{
  "_format": "hh-sol-artifact-1",
  "contractName": "ERC1155PausableMock",
  "sourceName": "contracts/OZ/mocks/ERC1155PausableMock.sol",
  "abi": [
    {
      "inputs": [
        {
          "internalType": "string",
          "name": "uri",
          "type": "string"
        }
      ],
      "stateMutability": "nonpayable",
      "type": "constructor"
    },
    {
      "anonymous": false,
      "inputs": [
        {
          "indexed": true,
          "internalType": "address",
          "name": "account",
          "type": "address"
        },
        {
          "indexed": true,
          "internalType": "address",
          "name": "operator",
          "type": "address"
        },
        {
          "indexed": false,
          "internalType": "bool",
          "name": "approved",
          "type": "bool"
        }
      ],
      "name": "ApprovalForAll",
      "type": "event"
    },
    {
      "anonymous": false,
      "inputs": [
        {
          "indexed": false,
          "internalType": "address",
          "name": "account",
          "type": "address"
        }
      ],
      "name": "Paused",
      "type": "event"
    },
    {
      "anonymous": false,
      "inputs": [
        {
          "indexed": true,
          "internalType": "address",
          "name": "operator",
          "type": "address"
        },
        {
          "indexed": true,
          "internalType": "address",
          "name": "from",
          "type": "address"
        },
        {
          "indexed": true,
          "internalType": "address",
          "name": "to",
          "type": "address"
        },
        {
          "indexed": false,
          "internalType": "uint256[]",
          "name": "ids",
          "type": "uint256[]"
        },
        {
          "indexed": false,
          "internalType": "uint256[]",
          "name": "values",
          "type": "uint256[]"
        }
      ],
      "name": "TransferBatch",
      "type": "event"
    },
    {
      "anonymous": false,
      "inputs": [
        {
          "indexed": true,
          "internalType": "address",
          "name": "operator",
          "type": "address"
        },
        {
          "indexed": true,
          "internalType": "address",
          "name": "from",
          "type": "address"
        },
        {
          "indexed": true,
          "internalType": "address",
          "name": "to",
          "type": "address"
        },
        {
          "indexed": false,
          "internalType": "uint256",
          "name": "id",
          "type": "uint256"
        },
        {
          "indexed": false,
          "internalType": "uint256",
          "name": "value",
          "type": "uint256"
        }
      ],
      "name": "TransferSingle",
      "type": "event"
    },
    {
      "anonymous": false,
      "inputs": [
        {
          "indexed": false,
          "internalType": "string",
          "name": "value",
          "type": "string"
        },
        {
          "indexed": true,
          "internalType": "uint256",
          "name": "id",
          "type": "uint256"
        }
      ],
      "name": "URI",
      "type": "event"
    },
    {
      "anonymous": false,
      "inputs": [
        {
          "indexed": false,
          "internalType": "address",
          "name": "account",
          "type": "address"
        }
      ],
      "name": "Unpaused",
      "type": "event"
    },
    {
      "inputs": [
        {
          "internalType": "address",
          "name": "account",
          "type": "address"
        },
        {
          "internalType": "uint256",
          "name": "id",
          "type": "uint256"
        }
      ],
      "name": "balanceOf",
      "outputs": [
        {
          "internalType": "uint256",
          "name": "",
          "type": "uint256"
        }
      ],
      "stateMutability": "view",
      "type": "function"
    },
    {
      "inputs": [
        {
          "internalType": "address[]",
          "name": "accounts",
          "type": "address[]"
        },
        {
          "internalType": "uint256[]",
          "name": "ids",
          "type": "uint256[]"
        }
      ],
      "name": "balanceOfBatch",
      "outputs": [
        {
          "internalType": "uint256[]",
          "name": "",
          "type": "uint256[]"
        }
      ],
      "stateMutability": "view",
      "type": "function"
    },
    {
      "inputs": [
        {
          "internalType": "address",
          "name": "owner",
          "type": "address"
        },
        {
          "internalType": "uint256",
          "name": "id",
          "type": "uint256"
        },
        {
          "internalType": "uint256",
          "name": "value",
          "type": "uint256"
        }
      ],
      "name": "burn",
      "outputs": [],
      "stateMutability": "nonpayable",
      "type": "function"
    },
    {
      "inputs": [
        {
          "internalType": "address",
          "name": "owner",
          "type": "address"
        },
        {
          "internalType": "uint256[]",
          "name": "ids",
          "type": "uint256[]"
        },
        {
          "internalType": "uint256[]",
          "name": "values",
          "type": "uint256[]"
        }
      ],
      "name": "burnBatch",
      "outputs": [],
      "stateMutability": "nonpayable",
      "type": "function"
    },
    {
      "inputs": [
        {
          "internalType": "address",
          "name": "account",
          "type": "address"
        },
        {
          "internalType": "address",
          "name": "operator",
          "type": "address"
        }
      ],
      "name": "isApprovedForAll",
      "outputs": [
        {
          "internalType": "bool",
          "name": "",
          "type": "bool"
        }
      ],
      "stateMutability": "view",
      "type": "function"
    },
    {
      "inputs": [
        {
          "internalType": "address",
          "name": "to",
          "type": "address"
        },
        {
          "internalType": "uint256",
          "name": "id",
          "type": "uint256"
        },
        {
          "internalType": "uint256",
          "name": "value",
          "type": "uint256"
        },
        {
          "internalType": "bytes",
          "name": "data",
          "type": "bytes"
        }
      ],
      "name": "mint",
      "outputs": [],
      "stateMutability": "nonpayable",
      "type": "function"
    },
    {
      "inputs": [
        {
          "internalType": "address",
          "name": "to",
          "type": "address"
        },
        {
          "internalType": "uint256[]",
          "name": "ids",
          "type": "uint256[]"
        },
        {
          "internalType": "uint256[]",
          "name": "values",
          "type": "uint256[]"
        },
        {
          "internalType": "bytes",
          "name": "data",
          "type": "bytes"
        }
      ],
      "name": "mintBatch",
      "outputs": [],
      "stateMutability": "nonpayable",
      "type": "function"
    },
    {
      "inputs": [],
      "name": "pause",
      "outputs": [],
      "stateMutability": "nonpayable",
      "type": "function"
    },
    {
      "inputs": [],
      "name": "paused",
      "outputs": [
        {
          "internalType": "bool",
          "name": "",
          "type": "bool"
        }
      ],
      "stateMutability": "view",
      "type": "function"
    },
    {
      "inputs": [
        {
          "internalType": "address",
          "name": "from",
          "type": "address"
        },
        {
          "internalType": "address",
          "name": "to",
          "type": "address"
        },
        {
          "internalType": "uint256[]",
          "name": "ids",
          "type": "uint256[]"
        },
        {
          "internalType": "uint256[]",
          "name": "amounts",
          "type": "uint256[]"
        },
        {
          "internalType": "bytes",
          "name": "data",
          "type": "bytes"
        }
      ],
      "name": "safeBatchTransferFrom",
      "outputs": [],
      "stateMutability": "nonpayable",
      "type": "function"
    },
    {
      "inputs": [
        {
          "internalType": "address",
          "name": "from",
          "type": "address"
        },
        {
          "internalType": "address",
          "name": "to",
          "type": "address"
        },
        {
          "internalType": "uint256",
          "name": "id",
          "type": "uint256"
        },
        {
          "internalType": "uint256",
          "name": "amount",
          "type": "uint256"
        },
        {
          "internalType": "bytes",
          "name": "data",
          "type": "bytes"
        }
      ],
      "name": "safeTransferFrom",
      "outputs": [],
      "stateMutability": "nonpayable",
      "type": "function"
    },
    {
      "inputs": [
        {
          "internalType": "address",
          "name": "operator",
          "type": "address"
        },
        {
          "internalType": "bool",
          "name": "approved",
          "type": "bool"
        }
      ],
      "name": "setApprovalForAll",
      "outputs": [],
      "stateMutability": "nonpayable",
      "type": "function"
    },
    {
      "inputs": [
        {
          "internalType": "string",
          "name": "newuri",
          "type": "string"
        }
      ],
      "name": "setURI",
      "outputs": [],
      "stateMutability": "nonpayable",
      "type": "function"
    },
    {
      "inputs": [
        {
          "internalType": "bytes4",
          "name": "interfaceId",
          "type": "bytes4"
        }
      ],
      "name": "supportsInterface",
      "outputs": [
        {
          "internalType": "bool",
          "name": "",
          "type": "bool"
        }
      ],
      "stateMutability": "view",
      "type": "function"
    },
    {
      "inputs": [],
      "name": "unpause",
      "outputs": [],
      "stateMutability": "nonpayable",
      "type": "function"
    },
    {
      "inputs": [
        {
          "internalType": "uint256",
          "name": "",
          "type": "uint256"
        }
      ],
      "name": "uri",
      "outputs": [
        {
          "internalType": "string",
          "name": "",
          "type": "string"
        }
      ],
      "stateMutability": "view",
      "type": "function"
    }
  ],
  "bytecode": "0x60806040523480156200001157600080fd5b5060405162003cfd38038062003cfd8339818101604052810190620000379190620001ac565b80806200004a816200006e60201b60201c565b50506000600360006101000a81548160ff0219169083151502179055505062000361565b8060029080519060200190620000869291906200008a565b5050565b828054620000989062000286565b90600052602060002090601f016020900481019282620000bc576000855562000108565b82601f10620000d757805160ff191683800117855562000108565b8280016001018555821562000108579182015b8281111562000107578251825591602001919060010190620000ea565b5b5090506200011791906200011b565b5090565b5b80821115620001365760008160009055506001016200011c565b5090565b6000620001516200014b846200021a565b620001f1565b9050828152602081018484840111156200016a57600080fd5b6200017784828562000250565b509392505050565b600082601f8301126200019157600080fd5b8151620001a38482602086016200013a565b91505092915050565b600060208284031215620001bf57600080fd5b600082015167ffffffffffffffff811115620001da57600080fd5b620001e8848285016200017f565b91505092915050565b6000620001fd62000210565b90506200020b8282620002bc565b919050565b6000604051905090565b600067ffffffffffffffff82111562000238576200023762000321565b5b620002438262000350565b9050602081019050919050565b60005b838110156200027057808201518184015260208101905062000253565b8381111562000280576000848401525b50505050565b600060028204905060018216806200029f57607f821691505b60208210811415620002b657620002b5620002f2565b5b50919050565b620002c78262000350565b810181811067ffffffffffffffff82111715620002e957620002e862000321565b5b80604052505050565b7f4e487b7100000000000000000000000000000000000000000000000000000000600052602260045260246000fd5b7f4e487b7100000000000000000000000000000000000000000000000000000000600052604160045260246000fd5b6000601f19601f8301169050919050565b61398c80620003716000396000f3fe608060405234801561001057600080fd5b50600436106100ff5760003560e01c80635c975abb11610097578063a22cb46511610066578063a22cb46514610282578063e985e9c51461029e578063f242432a146102ce578063f5298aca146102ea576100ff565b80635c975abb146102225780636b20c45414610240578063731133e91461025c5780638456cb5914610278576100ff565b80631f7fdffa116100d35780631f7fdffa146101b05780632eb2c2d6146101cc5780633f4ba83a146101e85780634e1273f4146101f2576100ff565b8062fdd58e1461010457806301ffc9a71461013457806302fe5305146101645780630e89341c14610180575b600080fd5b61011e600480360381019061011991906126b2565b610306565b60405161012b9190612fa7565b60405180910390f35b61014e60048036038101906101499190612824565b6103cf565b60405161015b9190612d6a565b60405180910390f35b61017e60048036038101906101799190612876565b6104b1565b005b61019a600480360381019061019591906128b7565b6104bd565b6040516101a79190612d85565b60405180910390f35b6101ca60048036038101906101c591906125cb565b610551565b005b6101e660048036038101906101e191906123fe565b610563565b005b6101f0610604565b005b61020c600480360381019061020791906127b8565b61060e565b6040516102199190612d11565b60405180910390f35b61022a6107bf565b6040516102379190612d6a565b60405180910390f35b61025a6004803603810190610255919061254c565b6107d6565b005b6102766004803603810190610271919061273d565b6107e6565b005b6102806107f8565b005b61029c60048036038101906102979190612676565b610802565b005b6102b860048036038101906102b391906123c2565b610818565b6040516102c59190612d6a565b60405180910390f35b6102e860048036038101906102e391906124bd565b6108ac565b005b61030460048036038101906102ff91906126ee565b61094d565b005b60008073ffffffffffffffffffffffffffffffffffffffff168373ffffffffffffffffffffffffffffffffffffffff161415610377576040517f08c379a000000000000000000000000000000000000000000000000000000000815260040161036e90612e07565b60405180910390fd5b60008083815260200190815260200160002060008473ffffffffffffffffffffffffffffffffffffffff1673ffffffffffffffffffffffffffffffffffffffff16815260200190815260200160002054905092915050565b60007fd9b67a26000000000000000000000000000000000000000000000000000000007bffffffffffffffffffffffffffffffffffffffffffffffffffffffff1916827bffffffffffffffffffffffffffffffffffffffffffffffffffffffff1916148061049a57507f0e89341c000000000000000000000000000000000000000000000000000000007bffffffffffffffffffffffffffffffffffffffffffffffffffffffff1916827bffffffffffffffffffffffffffffffffffffffffffffffffffffffff1916145b806104aa57506104a98261095d565b5b9050919050565b6104ba816109c7565b50565b6060600280546104cc90613247565b80601f01602080910402602001604051908101604052809291908181526020018280546104f890613247565b80156105455780601f1061051a57610100808354040283529160200191610545565b820191906000526020600020905b81548152906001019060200180831161052857829003601f168201915b50505050509050919050565b61055d848484846109e1565b50505050565b61056b610c4b565b73ffffffffffffffffffffffffffffffffffffffff168573ffffffffffffffffffffffffffffffffffffffff1614806105b157506105b0856105ab610c4b565b610818565b5b6105f0576040517f08c379a00000000000000000000000000000000000000000000000000000000081526004016105e790612ec7565b60405180910390fd5b6105fd8585858585610c53565b5050505050565b61060c610fb3565b565b60608151835114610654576040517f08c379a000000000000000000000000000000000000000000000000000000000815260040161064b90612f47565b60405180910390fd5b6000835167ffffffffffffffff811115610697577f4e487b7100000000000000000000000000000000000000000000000000000000600052604160045260246000fd5b6040519080825280602002602001820160405280156106c55781602001602082028036833780820191505090505b50905060005b84518110156107b45761075e858281518110610710577f4e487b7100000000000000000000000000000000000000000000000000000000600052603260045260246000fd5b6020026020010151858381518110610751577f4e487b7100000000000000000000000000000000000000000000000000000000600052603260045260246000fd5b6020026020010151610306565b828281518110610797577f4e487b7100000000000000000000000000000000000000000000000000000000600052603260045260246000fd5b602002602001018181525050806107ad906132aa565b90506106cb565b508091505092915050565b6000600360009054906101000a900460ff16905090565b6107e1838383611055565b505050565b6107f284848484611352565b50505050565b6108006114e8565b565b61081461080d610c4b565b838361158b565b5050565b6000600160008473ffffffffffffffffffffffffffffffffffffffff1673ffffffffffffffffffffffffffffffffffffffff16815260200190815260200160002060008373ffffffffffffffffffffffffffffffffffffffff1673ffffffffffffffffffffffffffffffffffffffff16815260200190815260200160002060009054906101000a900460ff16905092915050565b6108b4610c4b565b73ffffffffffffffffffffffffffffffffffffffff168573ffffffffffffffffffffffffffffffffffffffff1614806108fa57506108f9856108f4610c4b565b610818565b5b610939576040517f08c379a000000000000000000000000000000000000000000000000000000000815260040161093090612e67565b60405180910390fd5b61094685858585856116f8565b5050505050565b61095883838361197a565b505050565b60007f01ffc9a7000000000000000000000000000000000000000000000000000000007bffffffffffffffffffffffffffffffffffffffffffffffffffffffff1916827bffffffffffffffffffffffffffffffffffffffffffffffffffffffff1916149050919050565b80600290805190602001906109dd9291906120ba565b5050565b600073ffffffffffffffffffffffffffffffffffffffff168473ffffffffffffffffffffffffffffffffffffffff161415610a51576040517f08c379a0000000000000000000000000000000000000000000000000000000008152600401610a4890612f87565b60405180910390fd5b8151835114610a95576040517f08c379a0000000000000000000000000000000000000000000000000000000008152600401610a8c90612f67565b60405180910390fd5b6000610a9f610c4b565b9050610ab081600087878787611b97565b60005b8451811015610bb557838181518110610af5577f4e487b7100000000000000000000000000000000000000000000000000000000600052603260045260246000fd5b6020026020010151600080878481518110610b39577f4e487b7100000000000000000000000000000000000000000000000000000000600052603260045260246000fd5b6020026020010151815260200190815260200160002060008873ffffffffffffffffffffffffffffffffffffffff1673ffffffffffffffffffffffffffffffffffffffff1681526020019081526020016000206000828254610b9b919061313b565b925050819055508080610bad906132aa565b915050610ab3565b508473ffffffffffffffffffffffffffffffffffffffff16600073ffffffffffffffffffffffffffffffffffffffff168273ffffffffffffffffffffffffffffffffffffffff167f4a39dc06d4c0dbc64b70af90fd698a233a518aa5d07e595d983b8c0526c8f7fb8787604051610c2d929190612d33565b60405180910390a4610c4481600087878787611bad565b5050505050565b600033905090565b8151835114610c97576040517f08c379a0000000000000000000000000000000000000000000000000000000008152600401610c8e90612f67565b60405180910390fd5b600073ffffffffffffffffffffffffffffffffffffffff168473ffffffffffffffffffffffffffffffffffffffff161415610d07576040517f08c379a0000000000000000000000000000000000000000000000000000000008152600401610cfe90612ea7565b60405180910390fd5b6000610d11610c4b565b9050610d21818787878787611b97565b60005b8451811015610f1e576000858281518110610d68577f4e487b7100000000000000000000000000000000000000000000000000000000600052603260045260246000fd5b602002602001015190506000858381518110610dad577f4e487b7100000000000000000000000000000000000000000000000000000000600052603260045260246000fd5b60200260200101519050600080600084815260200190815260200160002060008b73ffffffffffffffffffffffffffffffffffffffff1673ffffffffffffffffffffffffffffffffffffffff16815260200190815260200160002054905081811015610e4e576040517f08c379a0000000000000000000000000000000000000000000000000000000008152600401610e4590612f07565b60405180910390fd5b81810360008085815260200190815260200160002060008c73ffffffffffffffffffffffffffffffffffffffff1673ffffffffffffffffffffffffffffffffffffffff168152602001908152602001600020819055508160008085815260200190815260200160002060008b73ffffffffffffffffffffffffffffffffffffffff1673ffffffffffffffffffffffffffffffffffffffff1681526020019081526020016000206000828254610f03919061313b565b9250508190555050505080610f17906132aa565b9050610d24565b508473ffffffffffffffffffffffffffffffffffffffff168673ffffffffffffffffffffffffffffffffffffffff168273ffffffffffffffffffffffffffffffffffffffff167f4a39dc06d4c0dbc64b70af90fd698a233a518aa5d07e595d983b8c0526c8f7fb8787604051610f95929190612d33565b60405180910390a4610fab818787878787611bad565b505050505050565b610fbb6107bf565b610ffa576040517f08c379a0000000000000000000000000000000000000000000000000000000008152600401610ff190612de7565b60405180910390fd5b6000600360006101000a81548160ff0219169083151502179055507f5db9ee0a495bf2e6ff9c91a7834c1ba4fdd244a5e8aa4e537bd38aeae4b073aa61103e610c4b565b60405161104b9190612c34565b60405180910390a1565b600073ffffffffffffffffffffffffffffffffffffffff168373ffffffffffffffffffffffffffffffffffffffff1614156110c5576040517f08c379a00000000000000000000000000000000000000000000000000000000081526004016110bc90612ee7565b60405180910390fd5b8051825114611109576040517f08c379a000000000000000000000000000000000000000000000000000000000815260040161110090612f67565b60405180910390fd5b6000611113610c4b565b905061113381856000868660405180602001604052806000815250611b97565b60005b83518110156112cc57600084828151811061117a577f4e487b7100000000000000000000000000000000000000000000000000000000600052603260045260246000fd5b6020026020010151905060008483815181106111bf577f4e487b7100000000000000000000000000000000000000000000000000000000600052603260045260246000fd5b60200260200101519050600080600084815260200190815260200160002060008973ffffffffffffffffffffffffffffffffffffffff1673ffffffffffffffffffffffffffffffffffffffff16815260200190815260200160002054905081811015611260576040517f08c379a000000000000000000000000000000000000000000000000000000000815260040161125790612e27565b60405180910390fd5b81810360008085815260200190815260200160002060008a73ffffffffffffffffffffffffffffffffffffffff1673ffffffffffffffffffffffffffffffffffffffff1681526020019081526020016000208190555050505080806112c4906132aa565b915050611136565b50600073ffffffffffffffffffffffffffffffffffffffff168473ffffffffffffffffffffffffffffffffffffffff168273ffffffffffffffffffffffffffffffffffffffff167f4a39dc06d4c0dbc64b70af90fd698a233a518aa5d07e595d983b8c0526c8f7fb8686604051611344929190612d33565b60405180910390a450505050565b600073ffffffffffffffffffffffffffffffffffffffff168473ffffffffffffffffffffffffffffffffffffffff1614156113c2576040517f08c379a00000000000000000000000000000000000000000000000000000000081526004016113b990612f87565b60405180910390fd5b60006113cc610c4b565b90506113ed816000876113de88611d94565b6113e788611d94565b87611b97565b8260008086815260200190815260200160002060008773ffffffffffffffffffffffffffffffffffffffff1673ffffffffffffffffffffffffffffffffffffffff168152602001908152602001600020600082825461144c919061313b565b925050819055508473ffffffffffffffffffffffffffffffffffffffff16600073ffffffffffffffffffffffffffffffffffffffff168273ffffffffffffffffffffffffffffffffffffffff167fc3d58168c5ae7397731d063d5bbf3d657854427343f4c083240f7aacaa2d0f6287876040516114ca929190612fc2565b60405180910390a46114e181600087878787611e5a565b5050505050565b6114f06107bf565b15611530576040517f08c379a000000000000000000000000000000000000000000000000000000000815260040161152790612e87565b60405180910390fd5b6001600360006101000a81548160ff0219169083151502179055507f62e78cea01bee320cd4e420270b5ea74000d11b0c9f74754ebdbfc544b05a258611574610c4b565b6040516115819190612c34565b60405180910390a1565b8173ffffffffffffffffffffffffffffffffffffffff168373ffffffffffffffffffffffffffffffffffffffff1614156115fa576040517f08c379a00000000000000000000000000000000000000000000000000000000081526004016115f190612f27565b60405180910390fd5b80600160008573ffffffffffffffffffffffffffffffffffffffff1673ffffffffffffffffffffffffffffffffffffffff16815260200190815260200160002060008473ffffffffffffffffffffffffffffffffffffffff1673ffffffffffffffffffffffffffffffffffffffff16815260200190815260200160002060006101000a81548160ff0219169083151502179055508173ffffffffffffffffffffffffffffffffffffffff168373ffffffffffffffffffffffffffffffffffffffff167f17307eab39ab6107e8899845ad3d59bd9653f200f220920489ca2b5937696c31836040516116eb9190612d6a565b60405180910390a3505050565b600073ffffffffffffffffffffffffffffffffffffffff168473ffffffffffffffffffffffffffffffffffffffff161415611768576040517f08c379a000000000000000000000000000000000000000000000000000000000815260040161175f90612ea7565b60405180910390fd5b6000611772610c4b565b905061179281878761178388611d94565b61178c88611d94565b87611b97565b600080600086815260200190815260200160002060008873ffffffffffffffffffffffffffffffffffffffff1673ffffffffffffffffffffffffffffffffffffffff16815260200190815260200160002054905083811015611829576040517f08c379a000000000000000000000000000000000000000000000000000000000815260040161182090612f07565b60405180910390fd5b83810360008087815260200190815260200160002060008973ffffffffffffffffffffffffffffffffffffffff1673ffffffffffffffffffffffffffffffffffffffff168152602001908152602001600020819055508360008087815260200190815260200160002060008873ffffffffffffffffffffffffffffffffffffffff1673ffffffffffffffffffffffffffffffffffffffff16815260200190815260200160002060008282546118de919061313b565b925050819055508573ffffffffffffffffffffffffffffffffffffffff168773ffffffffffffffffffffffffffffffffffffffff168373ffffffffffffffffffffffffffffffffffffffff167fc3d58168c5ae7397731d063d5bbf3d657854427343f4c083240f7aacaa2d0f62888860405161195b929190612fc2565b60405180910390a4611971828888888888611e5a565b50505050505050565b600073ffffffffffffffffffffffffffffffffffffffff168373ffffffffffffffffffffffffffffffffffffffff1614156119ea576040517f08c379a00000000000000000000000000000000000000000000000000000000081526004016119e190612ee7565b60405180910390fd5b60006119f4610c4b565b9050611a2481856000611a0687611d94565b611a0f87611d94565b60405180602001604052806000815250611b97565b600080600085815260200190815260200160002060008673ffffffffffffffffffffffffffffffffffffffff1673ffffffffffffffffffffffffffffffffffffffff16815260200190815260200160002054905082811015611abb576040517f08c379a0000000000000000000000000000000000000000000000000000000008152600401611ab290612e27565b60405180910390fd5b82810360008086815260200190815260200160002060008773ffffffffffffffffffffffffffffffffffffffff1673ffffffffffffffffffffffffffffffffffffffff16815260200190815260200160002081905550600073ffffffffffffffffffffffffffffffffffffffff168573ffffffffffffffffffffffffffffffffffffffff168373ffffffffffffffffffffffffffffffffffffffff167fc3d58168c5ae7397731d063d5bbf3d657854427343f4c083240f7aacaa2d0f628787604051611b88929190612fc2565b60405180910390a45050505050565b611ba5868686868686612041565b505050505050565b611bcc8473ffffffffffffffffffffffffffffffffffffffff1661209f565b15611d8c578373ffffffffffffffffffffffffffffffffffffffff1663bc197c8187878686866040518663ffffffff1660e01b8152600401611c12959493929190612c4f565b602060405180830381600087803b158015611c2c57600080fd5b505af1925050508015611c5d57506040513d601f19601f82011682018060405250810190611c5a919061284d565b60015b611d0357611c69613380565b806308c379a01415611cc65750611c7e613864565b80611c895750611cc8565b806040517f08c379a0000000000000000000000000000000000000000000000000000000008152600401611cbd9190612d85565b60405180910390fd5b505b6040517f08c379a0000000000000000000000000000000000000000000000000000000008152600401611cfa90612da7565b60405180910390fd5b63bc197c8160e01b7bffffffffffffffffffffffffffffffffffffffffffffffffffffffff1916817bffffffffffffffffffffffffffffffffffffffffffffffffffffffff191614611d8a576040517f08c379a0000000000000000000000000000000000000000000000000000000008152600401611d8190612dc7565b60405180910390fd5b505b505050505050565b60606000600167ffffffffffffffff811115611dd9577f4e487b7100000000000000000000000000000000000000000000000000000000600052604160045260246000fd5b604051908082528060200260200182016040528015611e075781602001602082028036833780820191505090505b5090508281600081518110611e45577f4e487b7100000000000000000000000000000000000000000000000000000000600052603260045260246000fd5b60200260200101818152505080915050919050565b611e798473ffffffffffffffffffffffffffffffffffffffff1661209f565b15612039578373ffffffffffffffffffffffffffffffffffffffff1663f23a6e6187878686866040518663ffffffff1660e01b8152600401611ebf959493929190612cb7565b602060405180830381600087803b158015611ed957600080fd5b505af1925050508015611f0a57506040513d601f19601f82011682018060405250810190611f07919061284d565b60015b611fb057611f16613380565b806308c379a01415611f735750611f2b613864565b80611f365750611f75565b806040517f08c379a0000000000000000000000000000000000000000000000000000000008152600401611f6a9190612d85565b60405180910390fd5b505b6040517f08c379a0000000000000000000000000000000000000000000000000000000008152600401611fa790612da7565b60405180910390fd5b63f23a6e6160e01b7bffffffffffffffffffffffffffffffffffffffffffffffffffffffff1916817bffffffffffffffffffffffffffffffffffffffffffffffffffffffff191614612037576040517f08c379a000000000000000000000000000000000000000000000000000000000815260040161202e90612dc7565b60405180910390fd5b505b505050505050565b61204f8686868686866120b2565b6120576107bf565b15612097576040517f08c379a000000000000000000000000000000000000000000000000000000000815260040161208e90612e47565b60405180910390fd5b505050505050565b600080823b905060008111915050919050565b505050505050565b8280546120c690613247565b90600052602060002090601f0160209004810192826120e8576000855561212f565b82601f1061210157805160ff191683800117855561212f565b8280016001018555821561212f579182015b8281111561212e578251825591602001919060010190612113565b5b50905061213c9190612140565b5090565b5b80821115612159576000816000905550600101612141565b5090565b600061217061216b84613010565b612feb565b9050808382526020820190508285602086028201111561218f57600080fd5b60005b858110156121bf57816121a588826122b1565b845260208401935060208301925050600181019050612192565b5050509392505050565b60006121dc6121d78461303c565b612feb565b905080838252602082019050828560208602820111156121fb57600080fd5b60005b8581101561222b578161221188826123ad565b8452602084019350602083019250506001810190506121fe565b5050509392505050565b600061224861224384613068565b612feb565b90508281526020810184848401111561226057600080fd5b61226b848285613205565b509392505050565b600061228661228184613099565b612feb565b90508281526020810184848401111561229e57600080fd5b6122a9848285613205565b509392505050565b6000813590506122c0816138fa565b92915050565b600082601f8301126122d757600080fd5b81356122e784826020860161215d565b91505092915050565b600082601f83011261230157600080fd5b81356123118482602086016121c9565b91505092915050565b60008135905061232981613911565b92915050565b60008135905061233e81613928565b92915050565b60008151905061235381613928565b92915050565b600082601f83011261236a57600080fd5b813561237a848260208601612235565b91505092915050565b600082601f83011261239457600080fd5b81356123a4848260208601612273565b91505092915050565b6000813590506123bc8161393f565b92915050565b600080604083850312156123d557600080fd5b60006123e3858286016122b1565b92505060206123f4858286016122b1565b9150509250929050565b600080600080600060a0868803121561241657600080fd5b6000612424888289016122b1565b9550506020612435888289016122b1565b945050604086013567ffffffffffffffff81111561245257600080fd5b61245e888289016122f0565b935050606086013567ffffffffffffffff81111561247b57600080fd5b612487888289016122f0565b925050608086013567ffffffffffffffff8111156124a457600080fd5b6124b088828901612359565b9150509295509295909350565b600080600080600060a086880312156124d557600080fd5b60006124e3888289016122b1565b95505060206124f4888289016122b1565b9450506040612505888289016123ad565b9350506060612516888289016123ad565b925050608086013567ffffffffffffffff81111561253357600080fd5b61253f88828901612359565b9150509295509295909350565b60008060006060848603121561256157600080fd5b600061256f868287016122b1565b935050602084013567ffffffffffffffff81111561258c57600080fd5b612598868287016122f0565b925050604084013567ffffffffffffffff8111156125b557600080fd5b6125c1868287016122f0565b9150509250925092565b600080600080608085870312156125e157600080fd5b60006125ef878288016122b1565b945050602085013567ffffffffffffffff81111561260c57600080fd5b612618878288016122f0565b935050604085013567ffffffffffffffff81111561263557600080fd5b612641878288016122f0565b925050606085013567ffffffffffffffff81111561265e57600080fd5b61266a87828801612359565b91505092959194509250565b6000806040838503121561268957600080fd5b6000612697858286016122b1565b92505060206126a88582860161231a565b9150509250929050565b600080604083850312156126c557600080fd5b60006126d3858286016122b1565b92505060206126e4858286016123ad565b9150509250929050565b60008060006060848603121561270357600080fd5b6000612711868287016122b1565b9350506020612722868287016123ad565b9250506040612733868287016123ad565b9150509250925092565b6000806000806080858703121561275357600080fd5b6000612761878288016122b1565b9450506020612772878288016123ad565b9350506040612783878288016123ad565b925050606085013567ffffffffffffffff8111156127a057600080fd5b6127ac87828801612359565b91505092959194509250565b600080604083850312156127cb57600080fd5b600083013567ffffffffffffffff8111156127e557600080fd5b6127f1858286016122c6565b925050602083013567ffffffffffffffff81111561280e57600080fd5b61281a858286016122f0565b9150509250929050565b60006020828403121561283657600080fd5b60006128448482850161232f565b91505092915050565b60006020828403121561285f57600080fd5b600061286d84828501612344565b91505092915050565b60006020828403121561288857600080fd5b600082013567ffffffffffffffff8111156128a257600080fd5b6128ae84828501612383565b91505092915050565b6000602082840312156128c957600080fd5b60006128d7848285016123ad565b91505092915050565b60006128ec8383612c16565b60208301905092915050565b61290181613191565b82525050565b6000612912826130da565b61291c8185613108565b9350612927836130ca565b8060005b8381101561295857815161293f88826128e0565b975061294a836130fb565b92505060018101905061292b565b5085935050505092915050565b61296e816131a3565b82525050565b600061297f826130e5565b6129898185613119565b9350612999818560208601613214565b6129a2816133a2565b840191505092915050565b60006129b8826130f0565b6129c2818561312a565b93506129d2818560208601613214565b6129db816133a2565b840191505092915050565b60006129f360348361312a565b91506129fe826133c0565b604082019050919050565b6000612a1660288361312a565b9150612a218261340f565b604082019050919050565b6000612a3960148361312a565b9150612a448261345e565b602082019050919050565b6000612a5c602b8361312a565b9150612a6782613487565b604082019050919050565b6000612a7f60248361312a565b9150612a8a826134d6565b604082019050919050565b6000612aa2602c8361312a565b9150612aad82613525565b604082019050919050565b6000612ac560298361312a565b9150612ad082613574565b604082019050919050565b6000612ae860108361312a565b9150612af3826135c3565b602082019050919050565b6000612b0b60258361312a565b9150612b16826135ec565b604082019050919050565b6000612b2e60328361312a565b9150612b398261363b565b604082019050919050565b6000612b5160238361312a565b9150612b5c8261368a565b604082019050919050565b6000612b74602a8361312a565b9150612b7f826136d9565b604082019050919050565b6000612b9760298361312a565b9150612ba282613728565b604082019050919050565b6000612bba60298361312a565b9150612bc582613777565b604082019050919050565b6000612bdd60288361312a565b9150612be8826137c6565b604082019050919050565b6000612c0060218361312a565b9150612c0b82613815565b604082019050919050565b612c1f816131fb565b82525050565b612c2e816131fb565b82525050565b6000602082019050612c4960008301846128f8565b92915050565b600060a082019050612c6460008301886128f8565b612c7160208301876128f8565b8181036040830152612c838186612907565b90508181036060830152612c978185612907565b90508181036080830152612cab8184612974565b90509695505050505050565b600060a082019050612ccc60008301886128f8565b612cd960208301876128f8565b612ce66040830186612c25565b612cf36060830185612c25565b8181036080830152612d058184612974565b90509695505050505050565b60006020820190508181036000830152612d2b8184612907565b905092915050565b60006040820190508181036000830152612d4d8185612907565b90508181036020830152612d618184612907565b90509392505050565b6000602082019050612d7f6000830184612965565b92915050565b60006020820190508181036000830152612d9f81846129ad565b905092915050565b60006020820190508181036000830152612dc0816129e6565b9050919050565b60006020820190508181036000830152612de081612a09565b9050919050565b60006020820190508181036000830152612e0081612a2c565b9050919050565b60006020820190508181036000830152612e2081612a4f565b9050919050565b60006020820190508181036000830152612e4081612a72565b9050919050565b60006020820190508181036000830152612e6081612a95565b9050919050565b60006020820190508181036000830152612e8081612ab8565b9050919050565b60006020820190508181036000830152612ea081612adb565b9050919050565b60006020820190508181036000830152612ec081612afe565b9050919050565b60006020820190508181036000830152612ee081612b21565b9050919050565b60006020820190508181036000830152612f0081612b44565b9050919050565b60006020820190508181036000830152612f2081612b67565b9050919050565b60006020820190508181036000830152612f4081612b8a565b9050919050565b60006020820190508181036000830152612f6081612bad565b9050919050565b60006020820190508181036000830152612f8081612bd0565b9050919050565b60006020820190508181036000830152612fa081612bf3565b9050919050565b6000602082019050612fbc6000830184612c25565b92915050565b6000604082019050612fd76000830185612c25565b612fe46020830184612c25565b9392505050565b6000612ff5613006565b90506130018282613279565b919050565b6000604051905090565b600067ffffffffffffffff82111561302b5761302a613351565b5b602082029050602081019050919050565b600067ffffffffffffffff82111561305757613056613351565b5b602082029050602081019050919050565b600067ffffffffffffffff82111561308357613082613351565b5b61308c826133a2565b9050602081019050919050565b600067ffffffffffffffff8211156130b4576130b3613351565b5b6130bd826133a2565b9050602081019050919050565b6000819050602082019050919050565b600081519050919050565b600081519050919050565b600081519050919050565b6000602082019050919050565b600082825260208201905092915050565b600082825260208201905092915050565b600082825260208201905092915050565b6000613146826131fb565b9150613151836131fb565b9250827fffffffffffffffffffffffffffffffffffffffffffffffffffffffffffffffff03821115613186576131856132f3565b5b828201905092915050565b600061319c826131db565b9050919050565b60008115159050919050565b60007fffffffff0000000000000000000000000000000000000000000000000000000082169050919050565b600073ffffffffffffffffffffffffffffffffffffffff82169050919050565b6000819050919050565b82818337600083830152505050565b60005b83811015613232578082015181840152602081019050613217565b83811115613241576000848401525b50505050565b6000600282049050600182168061325f57607f821691505b6020821081141561327357613272613322565b5b50919050565b613282826133a2565b810181811067ffffffffffffffff821117156132a1576132a0613351565b5b80604052505050565b60006132b5826131fb565b91507fffffffffffffffffffffffffffffffffffffffffffffffffffffffffffffffff8214156132e8576132e76132f3565b5b600182019050919050565b7f4e487b7100000000000000000000000000000000000000000000000000000000600052601160045260246000fd5b7f4e487b7100000000000000000000000000000000000000000000000000000000600052602260045260246000fd5b7f4e487b7100000000000000000000000000000000000000000000000000000000600052604160045260246000fd5b600060033d111561339f5760046000803e61339c6000516133b3565b90505b90565b6000601f19601f8301169050919050565b60008160e01c9050919050565b7f455243313135353a207472616e7366657220746f206e6f6e204552433131353560008201527f526563656976657220696d706c656d656e746572000000000000000000000000602082015250565b7f455243313135353a204552433131353552656365697665722072656a6563746560008201527f6420746f6b656e73000000000000000000000000000000000000000000000000602082015250565b7f5061757361626c653a206e6f7420706175736564000000000000000000000000600082015250565b7f455243313135353a2062616c616e636520717565727920666f7220746865207a60008201527f65726f2061646472657373000000000000000000000000000000000000000000602082015250565b7f455243313135353a206275726e20616d6f756e7420657863656564732062616c60008201527f616e636500000000000000000000000000000000000000000000000000000000602082015250565b7f455243313135355061757361626c653a20746f6b656e207472616e736665722060008201527f7768696c65207061757365640000000000000000000000000000000000000000602082015250565b7f455243313135353a2063616c6c6572206973206e6f74206f776e6572206e6f7260008201527f20617070726f7665640000000000000000000000000000000000000000000000602082015250565b7f5061757361626c653a2070617573656400000000000000000000000000000000600082015250565b7f455243313135353a207472616e7366657220746f20746865207a65726f20616460008201527f6472657373000000000000000000000000000000000000000000000000000000602082015250565b7f455243313135353a207472616e736665722063616c6c6572206973206e6f742060008201527f6f776e6572206e6f7220617070726f7665640000000000000000000000000000602082015250565b7f455243313135353a206275726e2066726f6d20746865207a65726f206164647260008201527f6573730000000000000000000000000000000000000000000000000000000000602082015250565b7f455243313135353a20696e73756666696369656e742062616c616e636520666f60008201527f72207472616e7366657200000000000000000000000000000000000000000000602082015250565b7f455243313135353a2073657474696e6720617070726f76616c2073746174757360008201527f20666f722073656c660000000000000000000000000000000000000000000000602082015250565b7f455243313135353a206163636f756e747320616e6420696473206c656e67746860008201527f206d69736d617463680000000000000000000000000000000000000000000000602082015250565b7f455243313135353a2069647320616e6420616d6f756e7473206c656e6774682060008201527f6d69736d61746368000000000000000000000000000000000000000000000000602082015250565b7f455243313135353a206d696e7420746f20746865207a65726f2061646472657360008201527f7300000000000000000000000000000000000000000000000000000000000000602082015250565b600060443d1015613874576138f7565b61387c613006565b60043d036004823e80513d602482011167ffffffffffffffff821117156138a45750506138f7565b808201805167ffffffffffffffff8111156138c257505050506138f7565b80602083010160043d0385018111156138df5750505050506138f7565b6138ee82602001850186613279565b82955050505050505b90565b61390381613191565b811461390e57600080fd5b50565b61391a816131a3565b811461392557600080fd5b50565b613931816131af565b811461393c57600080fd5b50565b613948816131fb565b811461395357600080fd5b5056fea2646970667358221220e6cea10aba16920510def8f573a57f56267ea65ac2d606e7e9cb1b8596e668bc64736f6c63430008020033",
  "linkReferences": {},
  "deployedLinkReferences": {}
}