{
  "_format": "hh-sol-artifact-1",
  "contractName": "EnumerableUintSetMock",
  "sourceName": "contracts/OZ/mocks/EnumerableSetMock.sol",
  "abi": [
    {
      "anonymous": false,
      "inputs": [
        {
          "indexed": false,
          "internalType": "bool",
          "name": "result",
          "type": "bool"
        }
      ],
      "name": "OperationResult",
      "type": "event"
    },
    {
      "inputs": [
        {
          "internalType": "uint256",
          "name": "value",
          "type": "uint256"
        }
      ],
      "name": "add",
      "outputs": [],
      "stateMutability": "nonpayable",
      "type": "function"
    },
    {
      "inputs": [
        {
          "internalType": "uint256",
          "name": "index",
          "type": "uint256"
        }
      ],
      "name": "at",
      "outputs": [
        {
          "internalType": "uint256",
          "name": "",
          "type": "uint256"
        }
      ],
      "stateMutability": "view",
      "type": "function"
    },
    {
      "inputs": [
        {
          "internalType": "uint256",
          "name": "value",
          "type": "uint256"
        }
      ],
      "name": "contains",
      "outputs": [
        {
          "internalType": "bool",
          "name": "",
          "type": "bool"
        }
      ],
      "stateMutability": "view",
      "type": "function"
    },
    {
      "inputs": [],
      "name": "length",
      "outputs": [
        {
          "internalType": "uint256",
          "name": "",
          "type": "uint256"
        }
      ],
      "stateMutability": "view",
      "type": "function"
    },
    {
      "inputs": [
        {
          "internalType": "uint256",
          "name": "value",
          "type": "uint256"
        }
      ],
      "name": "remove",
      "outputs": [],
      "stateMutability": "nonpayable",
      "type": "function"
    },
    {
      "inputs": [],
      "name": "values",
      "outputs": [
        {
          "internalType": "uint256[]",
          "name": "",
          "type": "uint256[]"
        }
      ],
      "stateMutability": "view",
      "type": "function"
    }
  ],
  "bytecode": "0x608060405234801561001057600080fd5b506107ea806100206000396000f3fe608060405234801561001057600080fd5b50600436106100625760003560e01c80631003e2d2146100675780631f7b6d32146100835780634cc82215146100a1578063971217b7146100bd578063c34052e0146100db578063e0886f901461010b575b600080fd5b610081600480360381019061007c91906105c7565b61013b565b005b61008b61018e565b60405161009891906106d0565b60405180910390f35b6100bb60048036038101906100b691906105c7565b61019f565b005b6100c56101f2565b6040516100d29190610693565b60405180910390f35b6100f560048036038101906100f091906105c7565b610203565b60405161010291906106b5565b60405180910390f35b610125600480360381019061012091906105c7565b610220565b60405161013291906106d0565b60405180910390f35b600061015182600061023d90919063ffffffff16565b90507fed9840e0775590557ad736875d96c95cf1458b766335f74339951a32c82a9e338160405161018291906106b5565b60405180910390a15050565b600061019a6000610257565b905090565b60006101b582600061026c90919063ffffffff16565b90507fed9840e0775590557ad736875d96c95cf1458b766335f74339951a32c82a9e33816040516101e691906106b5565b60405180910390a15050565b60606101fe6000610286565b905090565b60006102198260006102a790919063ffffffff16565b9050919050565b60006102368260006102c190919063ffffffff16565b9050919050565b600061024f836000018360001b6102db565b905092915050565b60006102658260000161034b565b9050919050565b600061027e836000018360001b61035c565b905092915050565b60606000610296836000016104e2565b905060608190508092505050919050565b60006102b9836000018360001b61053e565b905092915050565b60006102d08360000183610561565b60001c905092915050565b60006102e7838361053e565b610340578260000182908060018154018082558091505060019003906000526020600020016000909190919091505582600001805490508360010160008481526020019081526020016000208190555060019050610345565b600090505b92915050565b600081600001805490509050919050565b600080836001016000848152602001908152602001600020549050600081146104d657600060018261038e9190610724565b90506000600186600001805490506103a69190610724565b90508181146104615760008660000182815481106103ed577f4e487b7100000000000000000000000000000000000000000000000000000000600052603260045260246000fd5b9060005260206000200154905080876000018481548110610437577f4e487b7100000000000000000000000000000000000000000000000000000000600052603260045260246000fd5b90600052602060002001819055508387600101600083815260200190815260200160002081905550505b8560000180548061049b577f4e487b7100000000000000000000000000000000000000000000000000000000600052603160045260246000fd5b6001900381819060005260206000200160009055905585600101600086815260200190815260200160002060009055600193505050506104dc565b60009150505b92915050565b60608160000180548060200260200160405190810160405280929190818152602001828054801561053257602002820191906000526020600020905b81548152602001906001019080831161051e575b50505050509050919050565b600080836001016000848152602001908152602001600020541415905092915050565b600082600001828154811061059f577f4e487b7100000000000000000000000000000000000000000000000000000000600052603260045260246000fd5b9060005260206000200154905092915050565b6000813590506105c18161079d565b92915050565b6000602082840312156105d957600080fd5b60006105e7848285016105b2565b91505092915050565b60006105fc8383610675565b60208301905092915050565b6000610613826106fb565b61061d8185610713565b9350610628836106eb565b8060005b8381101561065957815161064088826105f0565b975061064b83610706565b92505060018101905061062c565b5085935050505092915050565b61066f81610758565b82525050565b61067e81610764565b82525050565b61068d81610764565b82525050565b600060208201905081810360008301526106ad8184610608565b905092915050565b60006020820190506106ca6000830184610666565b92915050565b60006020820190506106e56000830184610684565b92915050565b6000819050602082019050919050565b600081519050919050565b6000602082019050919050565b600082825260208201905092915050565b600061072f82610764565b915061073a83610764565b92508282101561074d5761074c61076e565b5b828203905092915050565b60008115159050919050565b6000819050919050565b7f4e487b7100000000000000000000000000000000000000000000000000000000600052601160045260246000fd5b6107a681610764565b81146107b157600080fd5b5056fea264697066735822122054eede8e4a5247f931766aa71113beff1ce07ca4e3654deeb49bd3583a3aaf6b64736f6c63430008020033",
  "linkReferences": {},
  "deployedLinkReferences": {}
}