{
  "_format": "hh-sol-artifact-1",
  "contractName": "Implementation3",
  "sourceName": "contracts/OZ/mocks/RegressionImplementation.sol",
  "abi": [
    {
      "inputs": [
        {
          "internalType": "uint256",
          "name": "_number",
          "type": "uint256"
        }
      ],
      "name": "getValue",
      "outputs": [
        {
          "internalType": "uint256",
          "name": "",
          "type": "uint256"
        }
      ],
      "stateMutability": "view",
      "type": "function"
    },
    {
      "inputs": [],
      "name": "initialize",
      "outputs": [],
      "stateMutability": "nonpayable",
      "type": "function"
    },
    {
      "inputs": [
        {
          "internalType": "uint256",
          "name": "_number",
          "type": "uint256"
        }
      ],
      "name": "setValue",
      "outputs": [],
      "stateMutability": "nonpayable",
      "type": "function"
    }
  ],
  "bytecode": "0x608060405234801561001057600080fd5b5061037d806100206000396000f3fe608060405234801561001057600080fd5b50600436106100415760003560e01c80630ff4c9161461004657806355241077146100765780638129fc1c14610092575b600080fd5b610060600480360381019061005b91906101ab565b61009c565b60405161006d9190610226565b60405180910390f35b610090600480360381019061008b91906101ab565b6100b3565b005b61009a6100bd565b005b6000816001546100ac9190610252565b9050919050565b8060018190555050565b600060019054906101000a900460ff16806100e3575060008054906101000a900460ff16155b610122576040517f08c379a000000000000000000000000000000000000000000000000000000000815260040161011990610206565b60405180910390fd5b60008060019054906101000a900460ff161590508015610172576001600060016101000a81548160ff02191690831515021790555060016000806101000a81548160ff0219169083151502179055505b80156101935760008060016101000a81548160ff0219169083151502179055505b50565b6000813590506101a581610330565b92915050565b6000602082840312156101bd57600080fd5b60006101cb84828501610196565b91505092915050565b60006101e1602e83610241565b91506101ec826102e1565b604082019050919050565b610200816102a8565b82525050565b6000602082019050818103600083015261021f816101d4565b9050919050565b600060208201905061023b60008301846101f7565b92915050565b600082825260208201905092915050565b600061025d826102a8565b9150610268836102a8565b9250827fffffffffffffffffffffffffffffffffffffffffffffffffffffffffffffffff0382111561029d5761029c6102b2565b5b828201905092915050565b6000819050919050565b7f4e487b7100000000000000000000000000000000000000000000000000000000600052601160045260246000fd5b7f496e697469616c697a61626c653a20636f6e747261637420697320616c72656160008201527f647920696e697469616c697a6564000000000000000000000000000000000000602082015250565b610339816102a8565b811461034457600080fd5b5056fea2646970667358221220d664248a90c143e0839c0de2be6c18e6772ed539236e6ebc5073f9d2681aec1064736f6c63430008020033",
  "linkReferences": {},
  "deployedLinkReferences": {}
}