{
  "_format": "hh-sol-artifact-1",
  "contractName": "Implementation2",
  "sourceName": "contracts/OZ/mocks/RegressionImplementation.sol",
  "abi": [
    {
      "inputs": [],
      "name": "getValue",
      "outputs": [
        {
          "internalType": "uint256",
          "name": "",
          "type": "uint256"
        }
      ],
      "stateMutability": "view",
      "type": "function"
    },
    {
      "inputs": [],
      "name": "initialize",
      "outputs": [],
      "stateMutability": "nonpayable",
      "type": "function"
    },
    {
      "inputs": [
        {
          "internalType": "uint256",
          "name": "_number",
          "type": "uint256"
        }
      ],
      "name": "setValue",
      "outputs": [],
      "stateMutability": "nonpayable",
      "type": "function"
    }
  ],
  "bytecode": "0x608060405234801561001057600080fd5b506102d9806100206000396000f3fe608060405234801561001057600080fd5b50600436106100415760003560e01c8063209652551461004657806355241077146100645780638129fc1c14610080575b600080fd5b61004e61008a565b60405161005b9190610207565b60405180910390f35b61007e6004803603810190610079919061018c565b610094565b005b61008861009e565b005b6000600154905090565b8060018190555050565b600060019054906101000a900460ff16806100c4575060008054906101000a900460ff16155b610103576040517f08c379a00000000000000000000000000000000000000000000000000000000081526004016100fa906101e7565b60405180910390fd5b60008060019054906101000a900460ff161590508015610153576001600060016101000a81548160ff02191690831515021790555060016000806101000a81548160ff0219169083151502179055505b80156101745760008060016101000a81548160ff0219169083151502179055505b50565b6000813590506101868161028c565b92915050565b60006020828403121561019e57600080fd5b60006101ac84828501610177565b91505092915050565b60006101c2602e83610222565b91506101cd8261023d565b604082019050919050565b6101e181610233565b82525050565b60006020820190508181036000830152610200816101b5565b9050919050565b600060208201905061021c60008301846101d8565b92915050565b600082825260208201905092915050565b6000819050919050565b7f496e697469616c697a61626c653a20636f6e747261637420697320616c72656160008201527f647920696e697469616c697a6564000000000000000000000000000000000000602082015250565b61029581610233565b81146102a057600080fd5b5056fea2646970667358221220ad3dcf7b09fed281540f3e0c229b387e28160097852c00f22bf885525f4838a964736f6c63430008020033",
  "linkReferences": {},
  "deployedLinkReferences": {}
}