{
  "_format": "hh-sol-artifact-1",
  "contractName": "GovernorCompatibilityBravoMock",
  "sourceName": "contracts/OZ/mocks/GovernorCompatibilityBravoMock.sol",
  "abi": [
    {
      "inputs": [
        {
          "internalType": "string",
          "name": "name_",
          "type": "string"
        },
        {
          "internalType": "contract ERC20VotesComp",
          "name": "token_",
          "type": "address"
        },
        {
          "internalType": "uint256",
          "name": "votingDelay_",
          "type": "uint256"
        },
        {
          "internalType": "uint256",
          "name": "votingPeriod_",
          "type": "uint256"
        },
        {
          "internalType": "uint256",
          "name": "proposalThreshold_",
          "type": "uint256"
        },
        {
          "internalType": "contract ICompoundTimelock",
          "name": "timelock_",
          "type": "address"
        }
      ],
      "stateMutability": "nonpayable",
      "type": "constructor"
    },
    {
      "anonymous": false,
      "inputs": [
        {
          "indexed": false,
          "internalType": "uint256",
          "name": "proposalId",
          "type": "uint256"
        }
      ],
      "name": "ProposalCanceled",
      "type": "event"
    },
    {
      "anonymous": false,
      "inputs": [
        {
          "indexed": false,
          "internalType": "uint256",
          "name": "proposalId",
          "type": "uint256"
        },
        {
          "indexed": false,
          "internalType": "address",
          "name": "proposer",
          "type": "address"
        },
        {
          "indexed": false,
          "internalType": "address[]",
          "name": "targets",
          "type": "address[]"
        },
        {
          "indexed": false,
          "internalType": "uint256[]",
          "name": "values",
          "type": "uint256[]"
        },
        {
          "indexed": false,
          "internalType": "string[]",
          "name": "signatures",
          "type": "string[]"
        },
        {
          "indexed": false,
          "internalType": "bytes[]",
          "name": "calldatas",
          "type": "bytes[]"
        },
        {
          "indexed": false,
          "internalType": "uint256",
          "name": "startBlock",
          "type": "uint256"
        },
        {
          "indexed": false,
          "internalType": "uint256",
          "name": "endBlock",
          "type": "uint256"
        },
        {
          "indexed": false,
          "internalType": "string",
          "name": "description",
          "type": "string"
        }
      ],
      "name": "ProposalCreated",
      "type": "event"
    },
    {
      "anonymous": false,
      "inputs": [
        {
          "indexed": false,
          "internalType": "uint256",
          "name": "proposalId",
          "type": "uint256"
        }
      ],
      "name": "ProposalExecuted",
      "type": "event"
    },
    {
      "anonymous": false,
      "inputs": [
        {
          "indexed": false,
          "internalType": "uint256",
          "name": "proposalId",
          "type": "uint256"
        },
        {
          "indexed": false,
          "internalType": "uint256",
          "name": "eta",
          "type": "uint256"
        }
      ],
      "name": "ProposalQueued",
      "type": "event"
    },
    {
      "anonymous": false,
      "inputs": [
        {
          "indexed": false,
          "internalType": "uint256",
          "name": "oldProposalThreshold",
          "type": "uint256"
        },
        {
          "indexed": false,
          "internalType": "uint256",
          "name": "newProposalThreshold",
          "type": "uint256"
        }
      ],
      "name": "ProposalThresholdSet",
      "type": "event"
    },
    {
      "anonymous": false,
      "inputs": [
        {
          "indexed": false,
          "internalType": "address",
          "name": "oldTimelock",
          "type": "address"
        },
        {
          "indexed": false,
          "internalType": "address",
          "name": "newTimelock",
          "type": "address"
        }
      ],
      "name": "TimelockChange",
      "type": "event"
    },
    {
      "anonymous": false,
      "inputs": [
        {
          "indexed": true,
          "internalType": "address",
          "name": "voter",
          "type": "address"
        },
        {
          "indexed": false,
          "internalType": "uint256",
          "name": "proposalId",
          "type": "uint256"
        },
        {
          "indexed": false,
          "internalType": "uint8",
          "name": "support",
          "type": "uint8"
        },
        {
          "indexed": false,
          "internalType": "uint256",
          "name": "weight",
          "type": "uint256"
        },
        {
          "indexed": false,
          "internalType": "string",
          "name": "reason",
          "type": "string"
        }
      ],
      "name": "VoteCast",
      "type": "event"
    },
    {
      "anonymous": false,
      "inputs": [
        {
          "indexed": false,
          "internalType": "uint256",
          "name": "oldVotingDelay",
          "type": "uint256"
        },
        {
          "indexed": false,
          "internalType": "uint256",
          "name": "newVotingDelay",
          "type": "uint256"
        }
      ],
      "name": "VotingDelaySet",
      "type": "event"
    },
    {
      "anonymous": false,
      "inputs": [
        {
          "indexed": false,
          "internalType": "uint256",
          "name": "oldVotingPeriod",
          "type": "uint256"
        },
        {
          "indexed": false,
          "internalType": "uint256",
          "name": "newVotingPeriod",
          "type": "uint256"
        }
      ],
      "name": "VotingPeriodSet",
      "type": "event"
    },
    {
      "inputs": [],
      "name": "BALLOT_TYPEHASH",
      "outputs": [
        {
          "internalType": "bytes32",
          "name": "",
          "type": "bytes32"
        }
      ],
      "stateMutability": "view",
      "type": "function"
    },
    {
      "inputs": [],
      "name": "COUNTING_MODE",
      "outputs": [
        {
          "internalType": "string",
          "name": "",
          "type": "string"
        }
      ],
      "stateMutability": "pure",
      "type": "function"
    },
    {
      "inputs": [],
      "name": "__acceptAdmin",
      "outputs": [],
      "stateMutability": "nonpayable",
      "type": "function"
    },
    {
      "inputs": [
        {
          "internalType": "uint256",
          "name": "proposalId",
          "type": "uint256"
        }
      ],
      "name": "cancel",
      "outputs": [],
      "stateMutability": "nonpayable",
      "type": "function"
    },
    {
      "inputs": [
        {
          "internalType": "address[]",
          "name": "targets",
          "type": "address[]"
        },
        {
          "internalType": "uint256[]",
          "name": "values",
          "type": "uint256[]"
        },
        {
          "internalType": "bytes[]",
          "name": "calldatas",
          "type": "bytes[]"
        },
        {
          "internalType": "bytes32",
          "name": "salt",
          "type": "bytes32"
        }
      ],
      "name": "cancel",
      "outputs": [
        {
          "internalType": "uint256",
          "name": "proposalId",
          "type": "uint256"
        }
      ],
      "stateMutability": "nonpayable",
      "type": "function"
    },
    {
      "inputs": [
        {
          "internalType": "uint256",
          "name": "proposalId",
          "type": "uint256"
        },
        {
          "internalType": "uint8",
          "name": "support",
          "type": "uint8"
        }
      ],
      "name": "castVote",
      "outputs": [
        {
          "internalType": "uint256",
          "name": "",
          "type": "uint256"
        }
      ],
      "stateMutability": "nonpayable",
      "type": "function"
    },
    {
      "inputs": [
        {
          "internalType": "uint256",
          "name": "proposalId",
          "type": "uint256"
        },
        {
          "internalType": "uint8",
          "name": "support",
          "type": "uint8"
        },
        {
          "internalType": "uint8",
          "name": "v",
          "type": "uint8"
        },
        {
          "internalType": "bytes32",
          "name": "r",
          "type": "bytes32"
        },
        {
          "internalType": "bytes32",
          "name": "s",
          "type": "bytes32"
        }
      ],
      "name": "castVoteBySig",
      "outputs": [
        {
          "internalType": "uint256",
          "name": "",
          "type": "uint256"
        }
      ],
      "stateMutability": "nonpayable",
      "type": "function"
    },
    {
      "inputs": [
        {
          "internalType": "uint256",
          "name": "proposalId",
          "type": "uint256"
        },
        {
          "internalType": "uint8",
          "name": "support",
          "type": "uint8"
        },
        {
          "internalType": "string",
          "name": "reason",
          "type": "string"
        }
      ],
      "name": "castVoteWithReason",
      "outputs": [
        {
          "internalType": "uint256",
          "name": "",
          "type": "uint256"
        }
      ],
      "stateMutability": "nonpayable",
      "type": "function"
    },
    {
      "inputs": [
        {
          "internalType": "address[]",
          "name": "targets",
          "type": "address[]"
        },
        {
          "internalType": "uint256[]",
          "name": "values",
          "type": "uint256[]"
        },
        {
          "internalType": "bytes[]",
          "name": "calldatas",
          "type": "bytes[]"
        },
        {
          "internalType": "bytes32",
          "name": "salt",
          "type": "bytes32"
        }
      ],
      "name": "execute",
      "outputs": [
        {
          "internalType": "uint256",
          "name": "",
          "type": "uint256"
        }
      ],
      "stateMutability": "payable",
      "type": "function"
    },
    {
      "inputs": [
        {
          "internalType": "uint256",
          "name": "proposalId",
          "type": "uint256"
        }
      ],
      "name": "execute",
      "outputs": [],
      "stateMutability": "payable",
      "type": "function"
    },
    {
      "inputs": [
        {
          "internalType": "uint256",
          "name": "proposalId",
          "type": "uint256"
        }
      ],
      "name": "getActions",
      "outputs": [
        {
          "internalType": "address[]",
          "name": "targets",
          "type": "address[]"
        },
        {
          "internalType": "uint256[]",
          "name": "values",
          "type": "uint256[]"
        },
        {
          "internalType": "string[]",
          "name": "signatures",
          "type": "string[]"
        },
        {
          "internalType": "bytes[]",
          "name": "calldatas",
          "type": "bytes[]"
        }
      ],
      "stateMutability": "view",
      "type": "function"
    },
    {
      "inputs": [
        {
          "internalType": "uint256",
          "name": "proposalId",
          "type": "uint256"
        },
        {
          "internalType": "address",
          "name": "voter",
          "type": "address"
        }
      ],
      "name": "getReceipt",
      "outputs": [
        {
          "components": [
            {
              "internalType": "bool",
              "name": "hasVoted",
              "type": "bool"
            },
            {
              "internalType": "uint8",
              "name": "support",
              "type": "uint8"
            },
            {
              "internalType": "uint96",
              "name": "votes",
              "type": "uint96"
            }
          ],
          "internalType": "struct IGovernorCompatibilityBravo.Receipt",
          "name": "",
          "type": "tuple"
        }
      ],
      "stateMutability": "view",
      "type": "function"
    },
    {
      "inputs": [
        {
          "internalType": "address",
          "name": "account",
          "type": "address"
        },
        {
          "internalType": "uint256",
          "name": "blockNumber",
          "type": "uint256"
        }
      ],
      "name": "getVotes",
      "outputs": [
        {
          "internalType": "uint256",
          "name": "",
          "type": "uint256"
        }
      ],
      "stateMutability": "view",
      "type": "function"
    },
    {
      "inputs": [
        {
          "internalType": "uint256",
          "name": "proposalId",
          "type": "uint256"
        },
        {
          "internalType": "address",
          "name": "account",
          "type": "address"
        }
      ],
      "name": "hasVoted",
      "outputs": [
        {
          "internalType": "bool",
          "name": "",
          "type": "bool"
        }
      ],
      "stateMutability": "view",
      "type": "function"
    },
    {
      "inputs": [
        {
          "internalType": "address[]",
          "name": "targets",
          "type": "address[]"
        },
        {
          "internalType": "uint256[]",
          "name": "values",
          "type": "uint256[]"
        },
        {
          "internalType": "bytes[]",
          "name": "calldatas",
          "type": "bytes[]"
        },
        {
          "internalType": "bytes32",
          "name": "descriptionHash",
          "type": "bytes32"
        }
      ],
      "name": "hashProposal",
      "outputs": [
        {
          "internalType": "uint256",
          "name": "",
          "type": "uint256"
        }
      ],
      "stateMutability": "pure",
      "type": "function"
    },
    {
      "inputs": [],
      "name": "name",
      "outputs": [
        {
          "internalType": "string",
          "name": "",
          "type": "string"
        }
      ],
      "stateMutability": "view",
      "type": "function"
    },
    {
      "inputs": [
        {
          "internalType": "uint256",
          "name": "proposalId",
          "type": "uint256"
        }
      ],
      "name": "proposalDeadline",
      "outputs": [
        {
          "internalType": "uint256",
          "name": "",
          "type": "uint256"
        }
      ],
      "stateMutability": "view",
      "type": "function"
    },
    {
      "inputs": [
        {
          "internalType": "uint256",
          "name": "proposalId",
          "type": "uint256"
        }
      ],
      "name": "proposalEta",
      "outputs": [
        {
          "internalType": "uint256",
          "name": "",
          "type": "uint256"
        }
      ],
      "stateMutability": "view",
      "type": "function"
    },
    {
      "inputs": [
        {
          "internalType": "uint256",
          "name": "proposalId",
          "type": "uint256"
        }
      ],
      "name": "proposalSnapshot",
      "outputs": [
        {
          "internalType": "uint256",
          "name": "",
          "type": "uint256"
        }
      ],
      "stateMutability": "view",
      "type": "function"
    },
    {
      "inputs": [],
      "name": "proposalThreshold",
      "outputs": [
        {
          "internalType": "uint256",
          "name": "",
          "type": "uint256"
        }
      ],
      "stateMutability": "view",
      "type": "function"
    },
    {
      "inputs": [
        {
          "internalType": "uint256",
          "name": "proposalId",
          "type": "uint256"
        }
      ],
      "name": "proposals",
      "outputs": [
        {
          "internalType": "uint256",
          "name": "id",
          "type": "uint256"
        },
        {
          "internalType": "address",
          "name": "proposer",
          "type": "address"
        },
        {
          "internalType": "uint256",
          "name": "eta",
          "type": "uint256"
        },
        {
          "internalType": "uint256",
          "name": "startBlock",
          "type": "uint256"
        },
        {
          "internalType": "uint256",
          "name": "endBlock",
          "type": "uint256"
        },
        {
          "internalType": "uint256",
          "name": "forVotes",
          "type": "uint256"
        },
        {
          "internalType": "uint256",
          "name": "againstVotes",
          "type": "uint256"
        },
        {
          "internalType": "uint256",
          "name": "abstainVotes",
          "type": "uint256"
        },
        {
          "internalType": "bool",
          "name": "canceled",
          "type": "bool"
        },
        {
          "internalType": "bool",
          "name": "executed",
          "type": "bool"
        }
      ],
      "stateMutability": "view",
      "type": "function"
    },
    {
      "inputs": [
        {
          "internalType": "address[]",
          "name": "targets",
          "type": "address[]"
        },
        {
          "internalType": "uint256[]",
          "name": "values",
          "type": "uint256[]"
        },
        {
          "internalType": "bytes[]",
          "name": "calldatas",
          "type": "bytes[]"
        },
        {
          "internalType": "string",
          "name": "description",
          "type": "string"
        }
      ],
      "name": "propose",
      "outputs": [
        {
          "internalType": "uint256",
          "name": "",
          "type": "uint256"
        }
      ],
      "stateMutability": "nonpayable",
      "type": "function"
    },
    {
      "inputs": [
        {
          "internalType": "address[]",
          "name": "targets",
          "type": "address[]"
        },
        {
          "internalType": "uint256[]",
          "name": "values",
          "type": "uint256[]"
        },
        {
          "internalType": "string[]",
          "name": "signatures",
          "type": "string[]"
        },
        {
          "internalType": "bytes[]",
          "name": "calldatas",
          "type": "bytes[]"
        },
        {
          "internalType": "string",
          "name": "description",
          "type": "string"
        }
      ],
      "name": "propose",
      "outputs": [
        {
          "internalType": "uint256",
          "name": "",
          "type": "uint256"
        }
      ],
      "stateMutability": "nonpayable",
      "type": "function"
    },
    {
      "inputs": [
        {
          "internalType": "address[]",
          "name": "targets",
          "type": "address[]"
        },
        {
          "internalType": "uint256[]",
          "name": "values",
          "type": "uint256[]"
        },
        {
          "internalType": "bytes[]",
          "name": "calldatas",
          "type": "bytes[]"
        },
        {
          "internalType": "bytes32",
          "name": "salt",
          "type": "bytes32"
        }
      ],
      "name": "queue",
      "outputs": [
        {
          "internalType": "uint256",
          "name": "",
          "type": "uint256"
        }
      ],
      "stateMutability": "nonpayable",
      "type": "function"
    },
    {
      "inputs": [
        {
          "internalType": "uint256",
          "name": "proposalId",
          "type": "uint256"
        }
      ],
      "name": "queue",
      "outputs": [],
      "stateMutability": "nonpayable",
      "type": "function"
    },
    {
      "inputs": [
        {
          "internalType": "uint256",
          "name": "",
          "type": "uint256"
        }
      ],
      "name": "quorum",
      "outputs": [
        {
          "internalType": "uint256",
          "name": "",
          "type": "uint256"
        }
      ],
      "stateMutability": "pure",
      "type": "function"
    },
    {
      "inputs": [],
      "name": "quorumVotes",
      "outputs": [
        {
          "internalType": "uint256",
          "name": "",
          "type": "uint256"
        }
      ],
      "stateMutability": "view",
      "type": "function"
    },
    {
      "inputs": [
        {
          "internalType": "address",
          "name": "target",
          "type": "address"
        },
        {
          "internalType": "uint256",
          "name": "value",
          "type": "uint256"
        },
        {
          "internalType": "bytes",
          "name": "data",
          "type": "bytes"
        }
      ],
      "name": "relay",
      "outputs": [],
      "stateMutability": "nonpayable",
      "type": "function"
    },
    {
      "inputs": [
        {
          "internalType": "uint256",
          "name": "newProposalThreshold",
          "type": "uint256"
        }
      ],
      "name": "setProposalThreshold",
      "outputs": [],
      "stateMutability": "nonpayable",
      "type": "function"
    },
    {
      "inputs": [
        {
          "internalType": "uint256",
          "name": "newVotingDelay",
          "type": "uint256"
        }
      ],
      "name": "setVotingDelay",
      "outputs": [],
      "stateMutability": "nonpayable",
      "type": "function"
    },
    {
      "inputs": [
        {
          "internalType": "uint256",
          "name": "newVotingPeriod",
          "type": "uint256"
        }
      ],
      "name": "setVotingPeriod",
      "outputs": [],
      "stateMutability": "nonpayable",
      "type": "function"
    },
    {
      "inputs": [
        {
          "internalType": "uint256",
          "name": "proposalId",
          "type": "uint256"
        }
      ],
      "name": "state",
      "outputs": [
        {
          "internalType": "enum IGovernor.ProposalState",
          "name": "",
          "type": "uint8"
        }
      ],
      "stateMutability": "view",
      "type": "function"
    },
    {
      "inputs": [
        {
          "internalType": "bytes4",
          "name": "interfaceId",
          "type": "bytes4"
        }
      ],
      "name": "supportsInterface",
      "outputs": [
        {
          "internalType": "bool",
          "name": "",
          "type": "bool"
        }
      ],
      "stateMutability": "view",
      "type": "function"
    },
    {
      "inputs": [],
      "name": "timelock",
      "outputs": [
        {
          "internalType": "address",
          "name": "",
          "type": "address"
        }
      ],
      "stateMutability": "view",
      "type": "function"
    },
    {
      "inputs": [],
      "name": "token",
      "outputs": [
        {
          "internalType": "contract ERC20VotesComp",
          "name": "",
          "type": "address"
        }
      ],
      "stateMutability": "view",
      "type": "function"
    },
    {
      "inputs": [
        {
          "internalType": "contract ICompoundTimelock",
          "name": "newTimelock",
          "type": "address"
        }
      ],
      "name": "updateTimelock",
      "outputs": [],
      "stateMutability": "nonpayable",
      "type": "function"
    },
    {
      "inputs": [],
      "name": "version",
      "outputs": [
        {
          "internalType": "string",
          "name": "",
          "type": "string"
        }
      ],
      "stateMutability": "view",
      "type": "function"
    },
    {
      "inputs": [],
      "name": "votingDelay",
      "outputs": [
        {
          "internalType": "uint256",
          "name": "",
          "type": "uint256"
        }
      ],
      "stateMutability": "view",
      "type": "function"
    },
    {
      "inputs": [],
      "name": "votingPeriod",
      "outputs": [
        {
          "internalType": "uint256",
          "name": "",
          "type": "uint256"
        }
      ],
      "stateMutability": "view",
      "type": "function"
    },
    {
      "stateMutability": "payable",
      "type": "receive"
    }
  ],
  "bytecode": "0x6101606040523480156200001257600080fd5b50604051620083bc380380620083bc833981810160405281019062000038919062000547565b84818585858a806200004f620001ab60201b60201c565b60008280519060200120905060008280519060200120905060007f8b73c3c69bb8fe3d512ecc4cf759cc79239f7b179b0ffacaa9a75d522b39400f90508260e081815250508161010081815250504660a08181525050620000b8818484620001e860201b60201c565b608081815250503073ffffffffffffffffffffffffffffffffffffffff1660c08173ffffffffffffffffffffffffffffffffffffffff1660601b81525050806101208181525050505050505080600090805190602001906200011c929190620003e0565b50506200012f836200022460201b60201c565b62000140826200026b60201b60201c565b6200015181620002f860201b60201c565b50505062000165816200033f60201b60201c565b508073ffffffffffffffffffffffffffffffffffffffff166101408173ffffffffffffffffffffffffffffffffffffffff1660601b8152505050505050505050620009cb565b60606040518060400160405280600181526020017f3100000000000000000000000000000000000000000000000000000000000000815250905090565b60008383834630604051602001620002059594939291906200067d565b6040516020818303038152906040528051906020012090509392505050565b7fc565b045403dc03c2eea82b81a0465edad9e2e7fc4d97e11421c209da93d7a936003548260405162000259929190620006fc565b60405180910390a18060038190555050565b60008111620002b1576040517f08c379a0000000000000000000000000000000000000000000000000000000008152600401620002a890620006da565b60405180910390fd5b7f7e3f7f0708a84de9203036abaa450dccc85ad5ff52f78c170f3edb55cf5e882860045482604051620002e6929190620006fc565b60405180910390a18060048190555050565b7fccb45da8d5717e6c4544694297c4ba5cf151d455c9bb0ed4fc7a38411bc05461600554826040516200032d929190620006fc565b60405180910390a18060058190555050565b7f08f74ea46ef7894f65eabfb5e6e695de773a000b47c529ab559178069b226401600660009054906101000a900473ffffffffffffffffffffffffffffffffffffffff16826040516200039492919062000650565b60405180910390a180600660006101000a81548173ffffffffffffffffffffffffffffffffffffffff021916908373ffffffffffffffffffffffffffffffffffffffff16021790555050565b828054620003ee9062000853565b90600052602060002090601f0160209004810192826200041257600085556200045e565b82601f106200042d57805160ff19168380011785556200045e565b828001600101855582156200045e579182015b828111156200045d57825182559160200191906001019062000440565b5b5090506200046d919062000471565b5090565b5b808211156200048c57600081600090555060010162000472565b5090565b6000620004a7620004a18462000752565b62000729565b905082815260208101848484011115620004c057600080fd5b620004cd8482856200081d565b509392505050565b600081519050620004e6816200097d565b92915050565b600081519050620004fd8162000997565b92915050565b600082601f8301126200051557600080fd5b81516200052784826020860162000490565b91505092915050565b6000815190506200054181620009b1565b92915050565b60008060008060008060c087890312156200056157600080fd5b600087015167ffffffffffffffff8111156200057c57600080fd5b6200058a89828a0162000503565b96505060206200059d89828a01620004d5565b9550506040620005b089828a0162000530565b9450506060620005c389828a0162000530565b9350506080620005d689828a0162000530565b92505060a0620005e989828a01620004ec565b9150509295509295509295565b620006018162000799565b82525050565b6200061281620007c1565b82525050565b60006200062760278362000788565b915062000634826200092e565b604082019050919050565b6200064a8162000813565b82525050565b6000604082019050620006676000830185620005f6565b620006766020830184620005f6565b9392505050565b600060a08201905062000694600083018862000607565b620006a3602083018762000607565b620006b2604083018662000607565b620006c160608301856200063f565b620006d06080830184620005f6565b9695505050505050565b60006020820190508181036000830152620006f58162000618565b9050919050565b60006040820190506200071360008301856200063f565b6200072260208301846200063f565b9392505050565b60006200073562000748565b905062000743828262000889565b919050565b6000604051905090565b600067ffffffffffffffff82111562000770576200076f620008ee565b5b6200077b826200091d565b9050602081019050919050565b600082825260208201905092915050565b6000620007a682620007f3565b9050919050565b6000620007ba82620007f3565b9050919050565b6000819050919050565b6000620007d88262000799565b9050919050565b6000620007ec82620007ad565b9050919050565b600073ffffffffffffffffffffffffffffffffffffffff82169050919050565b6000819050919050565b60005b838110156200083d57808201518184015260208101905062000820565b838111156200084d576000848401525b50505050565b600060028204905060018216806200086c57607f821691505b60208210811415620008835762000882620008bf565b5b50919050565b62000894826200091d565b810181811067ffffffffffffffff82111715620008b657620008b5620008ee565b5b80604052505050565b7f4e487b7100000000000000000000000000000000000000000000000000000000600052602260045260246000fd5b7f4e487b7100000000000000000000000000000000000000000000000000000000600052604160045260246000fd5b6000601f19601f8301169050919050565b7f476f7665726e6f7253657474696e67733a20766f74696e6720706572696f642060008201527f746f6f206c6f7700000000000000000000000000000000000000000000000000602082015250565b6200098881620007cb565b81146200099457600080fd5b50565b620009a281620007df565b8114620009ae57600080fd5b50565b620009bc8162000813565b8114620009c857600080fd5b50565b60805160a05160c05160601c60e05161010051610120516101405160601c61798962000a3360003960008181611e6e01526132d201526000613598015260006135da015260006135b9015260006134ee015260006135440152600061356d01526179896000f3fe6080604052600436106102345760003560e01c80637d5e81e21161012e578063dd4e2ba5116100ab578063eb9019d41161006f578063eb9019d414610958578063ece40cc114610995578063f8ce560a146109be578063fc0c546a146109fb578063fe0d94c114610a265761027a565b8063dd4e2ba514610873578063ddf0b0091461089e578063deaaa7cc146108c7578063e23a9a52146108f2578063ea0217cf1461092f5761027a565b8063c01f9e37116100f2578063c01f9e3714610768578063c28bc2fa146107a5578063c59057e4146107ce578063d33219b41461080b578063da95691a146108365761027a565b80637d5e81e214610683578063a890c910146106c0578063ab58fb8e146106e9578063b58131b014610726578063b9a61961146107515761027a565b80633932abb1116101bc578063452115d611610180578063452115d61461057857806354fd4d50146105b557806356781388146105e057806370b0f6601461061d5780637b3c71d3146106465761027a565b80633932abb11461046d5780633bccf4fd146104985780633e4f49e6146104d557806340e58ee514610512578063438596321461053b5761027a565b8063160cbed711610203578063160cbed71461035857806324bc1a64146103955780632656227d146103c05780632d63f693146103f0578063328dd9821461042d5761027a565b8063013cf08b1461027f57806301ffc9a7146102c557806302a251a31461030257806306fdde031461032d5761027a565b3661027a573073ffffffffffffffffffffffffffffffffffffffff16610258610a42565b73ffffffffffffffffffffffffffffffffffffffff161461027857600080fd5b005b600080fd5b34801561028b57600080fd5b506102a660048036038101906102a19190615870565b610a51565b6040516102bc9a99989796959493929190616a00565b60405180910390f35b3480156102d157600080fd5b506102ec60048036038101906102e791906157dd565b610bde565b6040516102f9919061647b565b60405180910390f35b34801561030e57600080fd5b50610317610bf0565b6040516103249190616935565b60405180910390f35b34801561033957600080fd5b50610342610bfa565b60405161034f91906165d8565b60405180910390f35b34801561036457600080fd5b5061037f600480360381019061037a919061552e565b610c8c565b60405161038c9190616935565b60405180910390f35b3480156103a157600080fd5b506103aa610ca4565b6040516103b79190616935565b60405180910390f35b6103da60048036038101906103d5919061552e565b610cc0565b6040516103e79190616935565b60405180910390f35b3480156103fc57600080fd5b5061041760048036038101906104129190615870565b610cd8565b6040516104249190616935565b60405180910390f35b34801561043957600080fd5b50610454600480360381019061044f9190615870565b610d46565b604051610464949392919061641a565b60405180910390f35b34801561047957600080fd5b50610482611003565b60405161048f9190616935565b60405180910390f35b3480156104a457600080fd5b506104bf60048036038101906104ba91906159a6565b61100d565b6040516104cc9190616935565b60405180910390f35b3480156104e157600080fd5b506104fc60048036038101906104f79190615870565b611097565b60405161050991906165bd565b60405180910390f35b34801561051e57600080fd5b5061053960048036038101906105349190615870565b6110a9565b005b34801561054757600080fd5b50610562600480360381019061055d91906158c2565b611441565b60405161056f919061647b565b60405180910390f35b34801561058457600080fd5b5061059f600480360381019061059a919061552e565b6114af565b6040516105ac9190616935565b60405180910390f35b3480156105c157600080fd5b506105ca6114c7565b6040516105d791906165d8565b60405180910390f35b3480156105ec57600080fd5b50610607600480360381019061060291906158fe565b611504565b6040516106149190616935565b60405180910390f35b34801561062957600080fd5b50610644600480360381019061063f9190615870565b611535565b005b34801561065257600080fd5b5061066d6004803603810190610668919061593a565b6115bd565b60405161067a9190616935565b60405180910390f35b34801561068f57600080fd5b506106aa60048036038101906106a591906155d9565b611625565b6040516106b79190616935565b60405180910390f35b3480156106cc57600080fd5b506106e760048036038101906106e29190615847565b61163d565b005b3480156106f557600080fd5b50610710600480360381019061070b9190615870565b6116c5565b60405161071d9190616935565b60405180910390f35b34801561073257600080fd5b5061073b6116d7565b6040516107489190616935565b60405180910390f35b34801561075d57600080fd5b506107666116e6565b005b34801561077457600080fd5b5061078f600480360381019061078a9190615870565b61176a565b60405161079c9190616935565b60405180910390f35b3480156107b157600080fd5b506107cc60048036038101906107c791906154c2565b6117d8565b005b3480156107da57600080fd5b506107f560048036038101906107f0919061552e565b6118aa565b6040516108029190616935565b60405180910390f35b34801561081757600080fd5b506108206118e6565b60405161082d91906162f4565b60405180910390f35b34801561084257600080fd5b5061085d6004803603810190610858919061569c565b611910565b60405161086a9190616935565b60405180910390f35b34801561087f57600080fd5b50610888611947565b60405161089591906165d8565b60405180910390f35b3480156108aa57600080fd5b506108c560048036038101906108c09190615870565b611984565b005b3480156108d357600080fd5b506108dc611c39565b6040516108e99190616496565b60405180910390f35b3480156108fe57600080fd5b50610919600480360381019061091491906158c2565b611c5d565b604051610926919061691a565b60405180910390f35b34801561093b57600080fd5b5061095660048036038101906109519190615870565b611d41565b005b34801561096457600080fd5b5061097f600480360381019061097a9190615486565b611dc9565b60405161098c9190616935565b60405180910390f35b3480156109a157600080fd5b506109bc60048036038101906109b79190615870565b611ddd565b005b3480156109ca57600080fd5b506109e560048036038101906109e09190615870565b611e65565b6040516109f29190616935565b60405180910390f35b348015610a0757600080fd5b50610a10611e6c565b604051610a1d91906165a2565b60405180910390f35b610a406004803603810190610a3b9190615870565b611e90565b005b6000610a4c612145565b905090565b6000806000806000806000806000808a9950610a6c8b6116c5565b9750610a778b610cd8565b9650610a828b61176a565b95506000600260008d815260200190815260200160002090508060000160009054906101000a900473ffffffffffffffffffffffffffffffffffffffff1699508060050154955080600601549450806007015493506000610ae28d611097565b905060026007811115610b1e577f4e487b7100000000000000000000000000000000000000000000000000000000600052602160045260246000fd5b816007811115610b57577f4e487b7100000000000000000000000000000000000000000000000000000000600052602160045260246000fd5b149350600780811115610b93577f4e487b7100000000000000000000000000000000000000000000000000000000600052602160045260246000fd5b816007811115610bcc577f4e487b7100000000000000000000000000000000000000000000000000000000600052602160045260246000fd5b14925050509193959799509193959799565b6000610be98261216f565b9050919050565b6000600454905090565b606060008054610c0990616fdc565b80601f0160208091040260200160405190810160405280929190818152602001828054610c3590616fdc565b8015610c825780601f10610c5757610100808354040283529160200191610c82565b820191906000526020600020905b815481529060010190602001808311610c6557829003601f168201915b5050505050905090565b6000610c9a858585856121e9565b9050949350505050565b6000610cbb600143610cb69190616e30565b611e65565b905090565b6000610cce85858585612743565b9050949350505050565b6000610d35600160008481526020019081526020016000206000016040518060200160405290816000820160009054906101000a900467ffffffffffffffff1667ffffffffffffffff1667ffffffffffffffff168152505061290e565b67ffffffffffffffff169050919050565b60608060608060006002600087815260200190815260200160002090508060010181600201826003018360040183805480602002602001604051908101604052809291908181526020018280548015610df457602002820191906000526020600020905b8160009054906101000a900473ffffffffffffffffffffffffffffffffffffffff1673ffffffffffffffffffffffffffffffffffffffff1681526020019060010190808311610daa575b5050505050935082805480602002602001604051908101604052809291908181526020018280548015610e4657602002820191906000526020600020905b815481526020019060010190808311610e32575b5050505050925081805480602002602001604051908101604052809291908181526020016000905b82821015610f1a578382906000526020600020018054610e8d90616fdc565b80601f0160208091040260200160405190810160405280929190818152602001828054610eb990616fdc565b8015610f065780601f10610edb57610100808354040283529160200191610f06565b820191906000526020600020905b815481529060010190602001808311610ee957829003601f168201915b505050505081526020019060010190610e6e565b50505050915080805480602002602001604051908101604052809291908181526020016000905b82821015610fed578382906000526020600020018054610f6090616fdc565b80601f0160208091040260200160405190810160405280929190818152602001828054610f8c90616fdc565b8015610fd95780601f10610fae57610100808354040283529160200191610fd9565b820191906000526020600020905b815481529060010190602001808311610fbc57829003601f168201915b505050505081526020019060010190610f41565b5050505090509450945094509450509193509193565b6000600354905090565b60008061106e6110667f150214d74d59b7d1e90c73fc22ef3d991dd0a76b046543d4d80ab92d2a50328f898960405160200161104b93929190616504565b6040516020818303038152906040528051906020012061291c565b868686612936565b905061108b87828860405180602001604052806000815250612961565b91505095945050505050565b60006110a282612b01565b9050919050565b60006002600083815260200190815260200160002090508060000160009054906101000a900473ffffffffffffffffffffffffffffffffffffffff1673ffffffffffffffffffffffffffffffffffffffff16611103612c78565b73ffffffffffffffffffffffffffffffffffffffff16148061116457506111286116d7565b6111628260000160009054906101000a900473ffffffffffffffffffffffffffffffffffffffff1660014361115d9190616e30565b611dc9565b105b6111a3576040517f08c379a000000000000000000000000000000000000000000000000000000000815260040161119a906168da565b60405180910390fd5b61143c8160010180548060200260200160405190810160405280929190818152602001828054801561122a57602002820191906000526020600020905b8160009054906101000a900473ffffffffffffffffffffffffffffffffffffffff1673ffffffffffffffffffffffffffffffffffffffff16815260200190600101908083116111e0575b50505050508260020180548060200260200160405190810160405280929190818152602001828054801561127d57602002820191906000526020600020905b815481526020019060010190808311611269575b505050505061143284600301805480602002602001604051908101604052809291908181526020016000905b828210156113555783829060005260206000200180546112c890616fdc565b80601f01602080910402602001604051908101604052809291908181526020018280546112f490616fdc565b80156113415780601f1061131657610100808354040283529160200191611341565b820191906000526020600020905b81548152906001019060200180831161132457829003601f168201915b5050505050815260200190600101906112a9565b5050505085600401805480602002602001604051908101604052809291908181526020016000905b8282101561142957838290600052602060002001805461139c90616fdc565b80601f01602080910402602001604051908101604052809291908181526020018280546113c890616fdc565b80156114155780601f106113ea57610100808354040283529160200191611415565b820191906000526020600020905b8154815290600101906020018083116113f857829003601f168201915b50505050508152602001906001019061137d565b50505050612c80565b8460090154612efb565b505050565b60006002600084815260200190815260200160002060080160008373ffffffffffffffffffffffffffffffffffffffff1673ffffffffffffffffffffffffffffffffffffffff16815260200190815260200160002060000160009054906101000a900460ff16905092915050565b60006114bd85858585612efb565b9050949350505050565b60606040518060400160405280600181526020017f3100000000000000000000000000000000000000000000000000000000000000815250905090565b60008061150f612c78565b905061152c84828560405180602001604052806000815250612961565b91505092915050565b61153d610a42565b73ffffffffffffffffffffffffffffffffffffffff1661155b612c78565b73ffffffffffffffffffffffffffffffffffffffff16146115b1576040517f08c379a00000000000000000000000000000000000000000000000000000000081526004016115a89061661a565b60405180910390fd5b6115ba81612f13565b50565b6000806115c8612c78565b905061161a86828787878080601f016020809104026020016040519081016040528093929190818152602001838380828437600081840152601f19601f82011690508083019250505050505050612961565b915050949350505050565b600061163385858585612f58565b9050949350505050565b611645610a42565b73ffffffffffffffffffffffffffffffffffffffff16611663612c78565b73ffffffffffffffffffffffffffffffffffffffff16146116b9576040517f08c379a00000000000000000000000000000000000000000000000000000000081526004016116b09061661a565b60405180910390fd5b6116c281612ff9565b50565b60006116d082613098565b9050919050565b60006116e1613106565b905090565b600660009054906101000a900473ffffffffffffffffffffffffffffffffffffffff1673ffffffffffffffffffffffffffffffffffffffff16630e18b6816040518163ffffffff1660e01b8152600401600060405180830381600087803b15801561175057600080fd5b505af1158015611764573d6000803e3d6000fd5b50505050565b60006117c7600160008481526020019081526020016000206001016040518060200160405290816000820160009054906101000a900467ffffffffffffffff1667ffffffffffffffff1667ffffffffffffffff168152505061290e565b67ffffffffffffffff169050919050565b6117e0610a42565b73ffffffffffffffffffffffffffffffffffffffff166117fe612c78565b73ffffffffffffffffffffffffffffffffffffffff1614611854576040517f08c379a000000000000000000000000000000000000000000000000000000000815260040161184b9061661a565b60405180910390fd5b6118a38483838080601f016020809104026020016040519081016040528093929190818152602001838380828437600081840152601f19601f8201169050808301925050505050505085613110565b5050505050565b6000848484846040516020016118c394939291906163c0565b6040516020818303038152906040528051906020012060001c9050949350505050565b6000600660009054906101000a900473ffffffffffffffffffffffffffffffffffffffff16905090565b600061192761191d612c78565b878787878761313f565b61193c86866119368787612c80565b85611625565b905095945050505050565b60606040518060400160405280601a81526020017f737570706f72743d627261766f2671756f72756d3d627261766f000000000000815250905090565b6000600260008381526020019081526020016000209050611c3481600101805480602002602001604051908101604052809291908181526020018280548015611a2257602002820191906000526020600020905b8160009054906101000a900473ffffffffffffffffffffffffffffffffffffffff1673ffffffffffffffffffffffffffffffffffffffff16815260200190600101908083116119d8575b505050505082600201805480602002602001604051908101604052809291908181526020018280548015611a7557602002820191906000526020600020905b815481526020019060010190808311611a61575b5050505050611c2a84600301805480602002602001604051908101604052809291908181526020016000905b82821015611b4d578382906000526020600020018054611ac090616fdc565b80601f0160208091040260200160405190810160405280929190818152602001828054611aec90616fdc565b8015611b395780601f10611b0e57610100808354040283529160200191611b39565b820191906000526020600020905b815481529060010190602001808311611b1c57829003601f168201915b505050505081526020019060010190611aa1565b5050505085600401805480602002602001604051908101604052809291908181526020016000905b82821015611c21578382906000526020600020018054611b9490616fdc565b80601f0160208091040260200160405190810160405280929190818152602001828054611bc090616fdc565b8015611c0d5780601f10611be257610100808354040283529160200191611c0d565b820191906000526020600020905b815481529060010190602001808311611bf057829003601f168201915b505050505081526020019060010190611b75565b50505050612c80565b8460090154610c8c565b505050565b7f150214d74d59b7d1e90c73fc22ef3d991dd0a76b046543d4d80ab92d2a50328f81565b611c65614bf2565b6002600084815260200190815260200160002060080160008373ffffffffffffffffffffffffffffffffffffffff1673ffffffffffffffffffffffffffffffffffffffff1681526020019081526020016000206040518060600160405290816000820160009054906101000a900460ff161515151581526020016000820160019054906101000a900460ff1660ff1660ff1681526020016000820160029054906101000a90046bffffffffffffffffffffffff166bffffffffffffffffffffffff166bffffffffffffffffffffffff1681525050905092915050565b611d49610a42565b73ffffffffffffffffffffffffffffffffffffffff16611d67612c78565b73ffffffffffffffffffffffffffffffffffffffff1614611dbd576040517f08c379a0000000000000000000000000000000000000000000000000000000008152600401611db49061661a565b60405180910390fd5b611dc681613246565b50565b6000611dd583836132ce565b905092915050565b611de5610a42565b73ffffffffffffffffffffffffffffffffffffffff16611e03612c78565b73ffffffffffffffffffffffffffffffffffffffff1614611e59576040517f08c379a0000000000000000000000000000000000000000000000000000000008152600401611e509061661a565b60405180910390fd5b611e6281613391565b50565b6000919050565b7f000000000000000000000000000000000000000000000000000000000000000081565b600060026000838152602001908152602001600020905061214081600101805480602002602001604051908101604052809291908181526020018280548015611f2e57602002820191906000526020600020905b8160009054906101000a900473ffffffffffffffffffffffffffffffffffffffff1673ffffffffffffffffffffffffffffffffffffffff1681526020019060010190808311611ee4575b505050505082600201805480602002602001604051908101604052809291908181526020018280548015611f8157602002820191906000526020600020905b815481526020019060010190808311611f6d575b505050505061213684600301805480602002602001604051908101604052809291908181526020016000905b82821015612059578382906000526020600020018054611fcc90616fdc565b80601f0160208091040260200160405190810160405280929190818152602001828054611ff890616fdc565b80156120455780601f1061201a57610100808354040283529160200191612045565b820191906000526020600020905b81548152906001019060200180831161202857829003601f168201915b505050505081526020019060010190611fad565b5050505085600401805480602002602001604051908101604052809291908181526020016000905b8282101561212d5783829060005260206000200180546120a090616fdc565b80601f01602080910402602001604051908101604052809291908181526020018280546120cc90616fdc565b80156121195780601f106120ee57610100808354040283529160200191612119565b820191906000526020600020905b8154815290600101906020018083116120fc57829003601f168201915b505050505081526020019060010190612081565b50505050612c80565b8460090154610cc0565b505050565b6000600660009054906101000a900473ffffffffffffffffffffffffffffffffffffffff16905090565b60007f6e665ced000000000000000000000000000000000000000000000000000000007bffffffffffffffffffffffffffffffffffffffffffffffffffffffff1916827bffffffffffffffffffffffffffffffffffffffffffffffffffffffff191614806121e257506121e1826133d6565b5b9050919050565b6000806121f8868686866118aa565b905060046007811115612234577f4e487b7100000000000000000000000000000000000000000000000000000000600052602160045260246000fd5b61223d82611097565b6007811115612275577f4e487b7100000000000000000000000000000000000000000000000000000000600052602160045260246000fd5b146122b5576040517f08c379a00000000000000000000000000000000000000000000000000000000081526004016122ac9061681a565b60405180910390fd5b6000600660009054906101000a900473ffffffffffffffffffffffffffffffffffffffff1673ffffffffffffffffffffffffffffffffffffffff16636a42b8f86040518163ffffffff1660e01b815260040160206040518083038186803b15801561231f57600080fd5b505afa158015612333573d6000803e3d6000fd5b505050506040513d601f19601f820116820180604052508101906123579190615899565b426123629190616d9c565b905061239461237082613450565b600760008581526020019081526020016000206000016134a790919063ffffffff16565b60005b87518110156126fc57600660009054906101000a900473ffffffffffffffffffffffffffffffffffffffff1673ffffffffffffffffffffffffffffffffffffffff1663f2b06537898381518110612417577f4e487b7100000000000000000000000000000000000000000000000000000000600052603260045260246000fd5b6020026020010151898481518110612458577f4e487b7100000000000000000000000000000000000000000000000000000000600052603260045260246000fd5b6020026020010151898581518110612499577f4e487b7100000000000000000000000000000000000000000000000000000000600052603260045260246000fd5b6020026020010151866040516020016124b59493929190616361565b604051602081830303815290604052805190602001206040518263ffffffff1660e01b81526004016124e79190616496565b60206040518083038186803b1580156124ff57600080fd5b505afa158015612513573d6000803e3d6000fd5b505050506040513d601f19601f82011682018060405250810190612537919061578b565b15612577576040517f08c379a000000000000000000000000000000000000000000000000000000000815260040161256e906166da565b60405180910390fd5b600660009054906101000a900473ffffffffffffffffffffffffffffffffffffffff1673ffffffffffffffffffffffffffffffffffffffff16633a66f9018983815181106125ee577f4e487b7100000000000000000000000000000000000000000000000000000000600052603260045260246000fd5b602002602001015189848151811061262f577f4e487b7100000000000000000000000000000000000000000000000000000000600052603260045260246000fd5b6020026020010151898581518110612670577f4e487b7100000000000000000000000000000000000000000000000000000000600052603260045260246000fd5b6020026020010151866040518563ffffffff1660e01b81526004016126989493929190616361565b602060405180830381600087803b1580156126b257600080fd5b505af11580156126c6573d6000803e3d6000fd5b505050506040513d601f19601f820116820180604052508101906126ea91906157b4565b50806126f59061703f565b9050612397565b507f9a2e42fd6722813d69113e7d0079d3d940171428df7373df9c7f7617cfda2892828260405161272e929190616a9c565b60405180910390a18192505050949350505050565b600080612752868686866118aa565b9050600061275f82611097565b90506004600781111561279b577f4e487b7100000000000000000000000000000000000000000000000000000000600052602160045260246000fd5b8160078111156127d4577f4e487b7100000000000000000000000000000000000000000000000000000000600052602160045260246000fd5b1480612850575060056007811115612815577f4e487b7100000000000000000000000000000000000000000000000000000000600052602160045260246000fd5b81600781111561284e577f4e487b7100000000000000000000000000000000000000000000000000000000600052602160045260246000fd5b145b61288f576040517f08c379a00000000000000000000000000000000000000000000000000000000081526004016128869061681a565b60405180910390fd5b600180600084815260200190815260200160002060020160006101000a81548160ff0219169083151502179055507f712ae1383f79ac853f8d882153778e0260ef8f03b504e2866e0593e04d2b291f826040516128ec9190616935565b60405180910390a161290182888888886134d6565b8192505050949350505050565b600081600001519050919050565b600061292f6129296134ea565b83613604565b9050919050565b600080600061294787878787613637565b9150915061295481613744565b8192505050949350505050565b600080600160008781526020019081526020016000209050600160078111156129b3577f4e487b7100000000000000000000000000000000000000000000000000000000600052602160045260246000fd5b6129bc87611097565b60078111156129f4577f4e487b7100000000000000000000000000000000000000000000000000000000600052602160045260246000fd5b14612a34576040517f08c379a0000000000000000000000000000000000000000000000000000000008152600401612a2b9061677a565b60405180910390fd5b6000612a9286612a83846000016040518060200160405290816000820160009054906101000a900467ffffffffffffffff1667ffffffffffffffff1667ffffffffffffffff168152505061290e565b67ffffffffffffffff16611dc9565b9050612aa087878784613a95565b8573ffffffffffffffffffffffffffffffffffffffff167fb8e138887d0aa13bab447e82de9d5c1777041ecd21ca36ba824ff1e6c07ddda488878488604051612aec9493929190616ac5565b60405180910390a28092505050949350505050565b600080612b0d83613d31565b905060046007811115612b49577f4e487b7100000000000000000000000000000000000000000000000000000000600052602160045260246000fd5b816007811115612b82577f4e487b7100000000000000000000000000000000000000000000000000000000600052602160045260246000fd5b14612b905780915050612c73565b6000612b9b846116c5565b90506000811415612bb0578192505050612c73565b600660009054906101000a900473ffffffffffffffffffffffffffffffffffffffff1673ffffffffffffffffffffffffffffffffffffffff1663c1a287e26040518163ffffffff1660e01b815260040160206040518083038186803b158015612c1857600080fd5b505afa158015612c2c573d6000803e3d6000fd5b505050506040513d601f19601f82011682018060405250810190612c509190615899565b81612c5b9190616d9c565b4210612c6c57600692505050612c73565b6005925050505b919050565b600033905090565b60606000825167ffffffffffffffff811115612cc5577f4e487b7100000000000000000000000000000000000000000000000000000000600052604160045260246000fd5b604051908082528060200260200182016040528015612cf857816020015b6060815260200190600190039081612ce35790505b50905060005b8451811015612ef0576000858281518110612d42577f4e487b7100000000000000000000000000000000000000000000000000000000600052603260045260246000fd5b60200260200101515114612e5957848181518110612d89577f4e487b7100000000000000000000000000000000000000000000000000000000600052603260045260246000fd5b6020026020010151848281518110612dca577f4e487b7100000000000000000000000000000000000000000000000000000000600052603260045260246000fd5b6020026020010151604051602401612de29190616580565b60405160208183030381529060405290604051612dff9190616291565b60405180910390207bffffffffffffffffffffffffffffffffffffffffffffffffffffffff19166020820180517bffffffffffffffffffffffffffffffffffffffffffffffffffffffff8381831617835250505050612e9b565b838181518110612e92577f4e487b7100000000000000000000000000000000000000000000000000000000600052603260045260246000fd5b60200260200101515b828281518110612ed4577f4e487b7100000000000000000000000000000000000000000000000000000000600052603260045260246000fd5b602002602001018190525080612ee99061703f565b9050612cfe565b508091505092915050565b6000612f0985858585613e46565b9050949350505050565b7fc565b045403dc03c2eea82b81a0465edad9e2e7fc4d97e11421c209da93d7a9360035482604051612f46929190616a9c565b60405180910390a18060038190555050565b6000612fe3612f65612c78565b8686865167ffffffffffffffff811115612fa8577f4e487b7100000000000000000000000000000000000000000000000000000000600052604160045260246000fd5b604051908082528060200260200182016040528015612fdb57816020015b6060815260200190600190039081612fc65790505b50878761313f565b612fef8585858561400a565b9050949350505050565b7f08f74ea46ef7894f65eabfb5e6e695de773a000b47c529ab559178069b226401600660009054906101000a900473ffffffffffffffffffffffffffffffffffffffff168260405161304c92919061630f565b60405180910390a180600660006101000a81548173ffffffffffffffffffffffffffffffffffffffff021916908373ffffffffffffffffffffffffffffffffffffffff16021790555050565b60006130f5600760008481526020019081526020016000206000016040518060200160405290816000820160009054906101000a900467ffffffffffffffff1667ffffffffffffffff1667ffffffffffffffff1681525050614330565b67ffffffffffffffff169050919050565b6000600554905090565b606061313684848460405180606001604052806029815260200161792b6029913961433e565b90509392505050565b6000818051906020012090506000613162878761315c8888612c80565b856118aa565b905060006002600083815260200190815260200160002090506000801b8160090154141561323b57888160000160006101000a81548173ffffffffffffffffffffffffffffffffffffffff021916908373ffffffffffffffffffffffffffffffffffffffff160217905550878160010190805190602001906131e5929190614c26565b50868160020190805190602001906131fe929190614cb0565b5085816003019080519060200190613217929190614cfd565b5084816004019080519060200190613230929190614d5d565b508281600901819055505b505050505050505050565b60008111613289576040517f08c379a0000000000000000000000000000000000000000000000000000000008152600401613280906166ba565b60405180910390fd5b7f7e3f7f0708a84de9203036abaa450dccc85ad5ff52f78c170f3edb55cf5e8828600454826040516132bc929190616a9c565b60405180910390a18060048190555050565b60007f000000000000000000000000000000000000000000000000000000000000000073ffffffffffffffffffffffffffffffffffffffff1663782d6fe184846040518363ffffffff1660e01b815260040161332b929190616338565b60206040518083038186803b15801561334357600080fd5b505afa158015613357573d6000803e3d6000fd5b505050506040513d601f19601f8201168201806040525081019061337b9190615a1d565b6bffffffffffffffffffffffff16905092915050565b7fccb45da8d5717e6c4544694297c4ba5cf151d455c9bb0ed4fc7a38411bc05461600554826040516133c4929190616a9c565b60405180910390a18060058190555050565b60007fbf26d897000000000000000000000000000000000000000000000000000000007bffffffffffffffffffffffffffffffffffffffffffffffffffffffff1916827bffffffffffffffffffffffffffffffffffffffffffffffffffffffff19161480613449575061344882614452565b5b9050919050565b600067ffffffffffffffff801682111561349f576040517f08c379a0000000000000000000000000000000000000000000000000000000008152600401613496906167da565b60405180910390fd5b819050919050565b808260000160006101000a81548167ffffffffffffffff021916908367ffffffffffffffff1602179055505050565b6134e385858585856144bc565b5050505050565b60007f000000000000000000000000000000000000000000000000000000000000000073ffffffffffffffffffffffffffffffffffffffff163073ffffffffffffffffffffffffffffffffffffffff1614801561356657507f000000000000000000000000000000000000000000000000000000000000000046145b15613593577f00000000000000000000000000000000000000000000000000000000000000009050613601565b6135fe7f00000000000000000000000000000000000000000000000000000000000000007f00000000000000000000000000000000000000000000000000000000000000007f00000000000000000000000000000000000000000000000000000000000000006146d7565b90505b90565b600082826040516020016136199291906162a8565b60405160208183030381529060405280519060200120905092915050565b6000807f7fffffffffffffffffffffffffffffff5d576e7357a4501ddfe92f46681b20a08360001c111561367257600060039150915061373b565b601b8560ff161415801561368a5750601c8560ff1614155b1561369c57600060049150915061373b565b6000600187878787604051600081526020016040526040516136c1949392919061653b565b6020604051602081039080840390855afa1580156136e3573d6000803e3d6000fd5b505050602060405103519050600073ffffffffffffffffffffffffffffffffffffffff168173ffffffffffffffffffffffffffffffffffffffff1614156137325760006001925092505061373b565b80600092509250505b94509492505050565b6000600481111561377e577f4e487b7100000000000000000000000000000000000000000000000000000000600052602160045260246000fd5b8160048111156137b7577f4e487b7100000000000000000000000000000000000000000000000000000000600052602160045260246000fd5b14156137c257613a92565b600160048111156137fc577f4e487b7100000000000000000000000000000000000000000000000000000000600052602160045260246000fd5b816004811115613835577f4e487b7100000000000000000000000000000000000000000000000000000000600052602160045260246000fd5b1415613876576040517f08c379a000000000000000000000000000000000000000000000000000000000815260040161386d906165fa565b60405180910390fd5b600260048111156138b0577f4e487b7100000000000000000000000000000000000000000000000000000000600052602160045260246000fd5b8160048111156138e9577f4e487b7100000000000000000000000000000000000000000000000000000000600052602160045260246000fd5b141561392a576040517f08c379a00000000000000000000000000000000000000000000000000000000081526004016139219061667a565b60405180910390fd5b60036004811115613964577f4e487b7100000000000000000000000000000000000000000000000000000000600052602160045260246000fd5b81600481111561399d577f4e487b7100000000000000000000000000000000000000000000000000000000600052602160045260246000fd5b14156139de576040517f08c379a00000000000000000000000000000000000000000000000000000000081526004016139d59061671a565b60405180910390fd5b600480811115613a17577f4e487b7100000000000000000000000000000000000000000000000000000000600052602160045260246000fd5b816004811115613a50577f4e487b7100000000000000000000000000000000000000000000000000000000600052602160045260246000fd5b1415613a91576040517f08c379a0000000000000000000000000000000000000000000000000000000008152600401613a88906167ba565b60405180910390fd5b5b50565b600060026000868152602001908152602001600020905060008160080160008673ffffffffffffffffffffffffffffffffffffffff1673ffffffffffffffffffffffffffffffffffffffff16815260200190815260200160002090508060000160009054906101000a900460ff1615613b43576040517f08c379a0000000000000000000000000000000000000000000000000000000008152600401613b3a906168fa565b60405180910390fd5b60018160000160006101000a81548160ff021916908315150217905550838160000160016101000a81548160ff021916908360ff160217905550613b8683614711565b8160000160026101000a8154816bffffffffffffffffffffffff02191690836bffffffffffffffffffffffff16021790555060006002811115613bf2577f4e487b7100000000000000000000000000000000000000000000000000000000600052602160045260246000fd5b60ff168460ff161415613c1f5782826006016000828254613c139190616d9c565b92505081905550613d29565b60016002811115613c59577f4e487b7100000000000000000000000000000000000000000000000000000000600052602160045260246000fd5b60ff168460ff161415613c865782826005016000828254613c7a9190616d9c565b92505081905550613d28565b600280811115613cbf577f4e487b7100000000000000000000000000000000000000000000000000000000600052602160045260246000fd5b60ff168460ff161415613cec5782826007016000828254613ce09190616d9c565b92505081905550613d27565b6040517f08c379a0000000000000000000000000000000000000000000000000000000008152600401613d1e9061685a565b60405180910390fd5b5b5b505050505050565b6000806001600084815260200190815260200160002090508060020160009054906101000a900460ff1615613d6a576007915050613e41565b8060020160019054906101000a900460ff1615613d8b576002915050613e41565b6000613d9684610cd8565b90506000811415613ddc576040517f08c379a0000000000000000000000000000000000000000000000000000000008152600401613dd39061687a565b60405180910390fd5b438110613dee57600092505050613e41565b6000613df98561176a565b9050438110613e0e5760019350505050613e41565b613e178561476c565b8015613e285750613e27856147a4565b5b15613e395760049350505050613e41565b600393505050505b919050565b600080613e55868686866147cf565b90506000613e62826116c5565b90506000811115613ffd5760005b8751811015613fdd57600660009054906101000a900473ffffffffffffffffffffffffffffffffffffffff1673ffffffffffffffffffffffffffffffffffffffff1663591fcdfe898381518110613ef0577f4e487b7100000000000000000000000000000000000000000000000000000000600052603260045260246000fd5b6020026020010151898481518110613f31577f4e487b7100000000000000000000000000000000000000000000000000000000600052603260045260246000fd5b6020026020010151898581518110613f72577f4e487b7100000000000000000000000000000000000000000000000000000000600052603260045260246000fd5b6020026020010151866040518563ffffffff1660e01b8152600401613f9a9493929190616361565b600060405180830381600087803b158015613fb457600080fd5b505af1158015613fc8573d6000803e3d6000fd5b5050505080613fd69061703f565b9050613e70565b50613ffc60076000848152602001908152602001600020600001614a0c565b5b8192505050949350505050565b60006140146116d7565b61402a336001436140259190616e30565b611dc9565b101561406b576040517f08c379a00000000000000000000000000000000000000000000000000000000081526004016140629061665a565b60405180910390fd5b600061408086868686805190602001206118aa565b905084518651146140c6576040517f08c379a00000000000000000000000000000000000000000000000000000000081526004016140bd9061669a565b60405180910390fd5b835186511461410a576040517f08c379a00000000000000000000000000000000000000000000000000000000081526004016141019061669a565b60405180910390fd5b600086511161414e576040517f08c379a00000000000000000000000000000000000000000000000000000000081526004016141459061679a565b60405180910390fd5b60006001600083815260200190815260200160002090506141ae816000016040518060200160405290816000820160009054906101000a900467ffffffffffffffff1667ffffffffffffffff1667ffffffffffffffff1681525050614a3b565b6141ed576040517f08c379a00000000000000000000000000000000000000000000000000000000081526004016141e49061689a565b60405180910390fd5b60006141ff6141fa611003565b613450565b61420843613450565b6142129190616df2565b90506000614226614221610bf0565b613450565b826142319190616df2565b90506142498284600001614a5590919063ffffffff16565b61425f8184600101614a5590919063ffffffff16565b7f7d84a6263ae0d98d3329bd7b46bb4e8d6f98cd35a7adb45c274c8b7fd5ebd5e084614289612c78565b8b8b8d5167ffffffffffffffff8111156142cc577f4e487b7100000000000000000000000000000000000000000000000000000000600052604160045260246000fd5b6040519080825280602002602001820160405280156142ff57816020015b60608152602001906001900390816142ea5790505b508c88888e60405161431999989796959493929190616950565b60405180910390a183945050505050949350505050565b600081600001519050919050565b606082471015614383576040517f08c379a000000000000000000000000000000000000000000000000000000000815260040161437a9061675a565b60405180910390fd5b61438c85614a84565b6143cb576040517f08c379a00000000000000000000000000000000000000000000000000000000081526004016143c2906168ba565b60405180910390fd5b6000808673ffffffffffffffffffffffffffffffffffffffff1685876040516143f4919061627a565b60006040518083038185875af1925050503d8060008114614431576040519150601f19603f3d011682016040523d82523d6000602084013e614436565b606091505b5091509150614446828286614a97565b92505050949350505050565b60007f01ffc9a7000000000000000000000000000000000000000000000000000000007bffffffffffffffffffffffffffffffffffffffffffffffffffffffff1916827bffffffffffffffffffffffffffffffffffffffffffffffffffffffff1916149050919050565b60006144c7866116c5565b90506000811161450c576040517f08c379a00000000000000000000000000000000000000000000000000000000081526004016145039061683a565b60405180910390fd5b614538600660009054906101000a900473ffffffffffffffffffffffffffffffffffffffff1634614afe565b60005b85518110156146ce57600660009054906101000a900473ffffffffffffffffffffffffffffffffffffffff1673ffffffffffffffffffffffffffffffffffffffff16630825f38f8783815181106145bb577f4e487b7100000000000000000000000000000000000000000000000000000000600052603260045260246000fd5b60200260200101518784815181106145fc577f4e487b7100000000000000000000000000000000000000000000000000000000600052603260045260246000fd5b602002602001015187858151811061463d577f4e487b7100000000000000000000000000000000000000000000000000000000600052603260045260246000fd5b6020026020010151866040518563ffffffff1660e01b81526004016146659493929190616361565b600060405180830381600087803b15801561467f57600080fd5b505af1158015614693573d6000803e3d6000fd5b505050506040513d6000823e3d601f19601f820116820180604052508101906146bc9190615806565b50806146c79061703f565b905061453b565b50505050505050565b600083838346306040516020016146f29594939291906164b1565b6040516020818303038152906040528051906020012090509392505050565b60006bffffffffffffffffffffffff8016821115614764576040517f08c379a000000000000000000000000000000000000000000000000000000000815260040161475b9061663a565b60405180910390fd5b819050919050565b600080600260008481526020019081526020016000209050806005015461479a61479585610cd8565b611e65565b1115915050919050565b6000806002600084815260200190815260200160002090508060060154816005015411915050919050565b6000806147de868686866118aa565b905060006147eb82611097565b905060026007811115614827577f4e487b7100000000000000000000000000000000000000000000000000000000600052602160045260246000fd5b816007811115614860577f4e487b7100000000000000000000000000000000000000000000000000000000600052602160045260246000fd5b141580156148df5750600660078111156148a3577f4e487b7100000000000000000000000000000000000000000000000000000000600052602160045260246000fd5b8160078111156148dc577f4e487b7100000000000000000000000000000000000000000000000000000000600052602160045260246000fd5b14155b801561495b575060078081111561491f577f4e487b7100000000000000000000000000000000000000000000000000000000600052602160045260246000fd5b816007811115614958577f4e487b7100000000000000000000000000000000000000000000000000000000600052602160045260246000fd5b14155b61499a576040517f08c379a0000000000000000000000000000000000000000000000000000000008152600401614991906167fa565b60405180910390fd5b600180600084815260200190815260200160002060020160016101000a81548160ff0219169083151502179055507f789cf55be980739dad1d0699b93b58e806b51c9d96619bfa8fe0a28abaa7b30c826040516149f79190616935565b60405180910390a18192505050949350505050565b60008160000160006101000a81548167ffffffffffffffff021916908367ffffffffffffffff16021790555050565b600080826000015167ffffffffffffffff16149050919050565b808260000160006101000a81548167ffffffffffffffff021916908367ffffffffffffffff1602179055505050565b600080823b905060008111915050919050565b60608315614aa757829050614af7565b600083511115614aba5782518084602001fd5b816040517f08c379a0000000000000000000000000000000000000000000000000000000008152600401614aee91906165d8565b60405180910390fd5b9392505050565b80471015614b41576040517f08c379a0000000000000000000000000000000000000000000000000000000008152600401614b389061673a565b60405180910390fd5b60008273ffffffffffffffffffffffffffffffffffffffff1682604051614b67906162df565b60006040518083038185875af1925050503d8060008114614ba4576040519150601f19603f3d011682016040523d82523d6000602084013e614ba9565b606091505b5050905080614bed576040517f08c379a0000000000000000000000000000000000000000000000000000000008152600401614be4906166fa565b60405180910390fd5b505050565b6040518060600160405280600015158152602001600060ff16815260200160006bffffffffffffffffffffffff1681525090565b828054828255906000526020600020908101928215614c9f579160200282015b82811115614c9e5782518260006101000a81548173ffffffffffffffffffffffffffffffffffffffff021916908373ffffffffffffffffffffffffffffffffffffffff16021790555091602001919060010190614c46565b5b509050614cac9190614dbd565b5090565b828054828255906000526020600020908101928215614cec579160200282015b82811115614ceb578251825591602001919060010190614cd0565b5b509050614cf99190614dbd565b5090565b828054828255906000526020600020908101928215614d4c579160200282015b82811115614d4b578251829080519060200190614d3b929190614dda565b5091602001919060010190614d1d565b5b509050614d599190614e60565b5090565b828054828255906000526020600020908101928215614dac579160200282015b82811115614dab578251829080519060200190614d9b929190614e84565b5091602001919060010190614d7d565b5b509050614db99190614f0a565b5090565b5b80821115614dd6576000816000905550600101614dbe565b5090565b828054614de690616fdc565b90600052602060002090601f016020900481019282614e085760008555614e4f565b82601f10614e2157805160ff1916838001178555614e4f565b82800160010185558215614e4f579182015b82811115614e4e578251825591602001919060010190614e33565b5b509050614e5c9190614dbd565b5090565b5b80821115614e805760008181614e779190614f2e565b50600101614e61565b5090565b828054614e9090616fdc565b90600052602060002090601f016020900481019282614eb25760008555614ef9565b82601f10614ecb57805160ff1916838001178555614ef9565b82800160010185558215614ef9579182015b82811115614ef8578251825591602001919060010190614edd565b5b509050614f069190614dbd565b5090565b5b80821115614f2a5760008181614f219190614f6e565b50600101614f0b565b5090565b508054614f3a90616fdc565b6000825580601f10614f4c5750614f6b565b601f016020900490600052602060002090810190614f6a9190614dbd565b5b50565b508054614f7a90616fdc565b6000825580601f10614f8c5750614fab565b601f016020900490600052602060002090810190614faa9190614dbd565b5b50565b6000614fc1614fbc84616b36565b616b11565b90508083825260208201905082856020860282011115614fe057600080fd5b60005b858110156150105781614ff688826151fa565b845260208401935060208301925050600181019050614fe3565b5050509392505050565b600061502d61502884616b62565b616b11565b9050808382526020820190508260005b8581101561506d57813585016150538882615355565b84526020840193506020830192505060018101905061503d565b5050509392505050565b600061508a61508584616b8e565b616b11565b9050808382526020820190508260005b858110156150ca57813585016150b08882615408565b84526020840193506020830192505060018101905061509a565b5050509392505050565b60006150e76150e284616bba565b616b11565b9050808382526020820190508285602086028201111561510657600080fd5b60005b85811015615136578161511c8882615432565b845260208401935060208301925050600181019050615109565b5050509392505050565b600061515361514e84616be6565b616b11565b90508281526020810184848401111561516b57600080fd5b615176848285616f9a565b509392505050565b600061519161518c84616be6565b616b11565b9050828152602081018484840111156151a957600080fd5b6151b4848285616fa9565b509392505050565b60006151cf6151ca84616c17565b616b11565b9050828152602081018484840111156151e757600080fd5b6151f2848285616f9a565b509392505050565b60008135905061520981617872565b92915050565b600082601f83011261522057600080fd5b8135615230848260208601614fae565b91505092915050565b600082601f83011261524a57600080fd5b813561525a84826020860161501a565b91505092915050565b600082601f83011261527457600080fd5b8135615284848260208601615077565b91505092915050565b600082601f83011261529e57600080fd5b81356152ae8482602086016150d4565b91505092915050565b6000815190506152c681617889565b92915050565b6000813590506152db816178a0565b92915050565b6000815190506152f0816178a0565b92915050565b600081359050615305816178b7565b92915050565b60008083601f84011261531d57600080fd5b8235905067ffffffffffffffff81111561533657600080fd5b60208301915083600182028301111561534e57600080fd5b9250929050565b600082601f83011261536657600080fd5b8135615376848260208601615140565b91505092915050565b600082601f83011261539057600080fd5b81516153a084826020860161517e565b91505092915050565b6000813590506153b8816178ce565b92915050565b60008083601f8401126153d057600080fd5b8235905067ffffffffffffffff8111156153e957600080fd5b60208301915083600182028301111561540157600080fd5b9250929050565b600082601f83011261541957600080fd5b81356154298482602086016151bc565b91505092915050565b600081359050615441816178e5565b92915050565b600081519050615456816178e5565b92915050565b60008135905061546b816178fc565b92915050565b60008151905061548081617913565b92915050565b6000806040838503121561549957600080fd5b60006154a7858286016151fa565b92505060206154b885828601615432565b9150509250929050565b600080600080606085870312156154d857600080fd5b60006154e6878288016151fa565b94505060206154f787828801615432565b935050604085013567ffffffffffffffff81111561551457600080fd5b6155208782880161530b565b925092505092959194509250565b6000806000806080858703121561554457600080fd5b600085013567ffffffffffffffff81111561555e57600080fd5b61556a8782880161520f565b945050602085013567ffffffffffffffff81111561558757600080fd5b6155938782880161528d565b935050604085013567ffffffffffffffff8111156155b057600080fd5b6155bc87828801615239565b92505060606155cd878288016152cc565b91505092959194509250565b600080600080608085870312156155ef57600080fd5b600085013567ffffffffffffffff81111561560957600080fd5b6156158782880161520f565b945050602085013567ffffffffffffffff81111561563257600080fd5b61563e8782880161528d565b935050604085013567ffffffffffffffff81111561565b57600080fd5b61566787828801615239565b925050606085013567ffffffffffffffff81111561568457600080fd5b61569087828801615408565b91505092959194509250565b600080600080600060a086880312156156b457600080fd5b600086013567ffffffffffffffff8111156156ce57600080fd5b6156da8882890161520f565b955050602086013567ffffffffffffffff8111156156f757600080fd5b6157038882890161528d565b945050604086013567ffffffffffffffff81111561572057600080fd5b61572c88828901615263565b935050606086013567ffffffffffffffff81111561574957600080fd5b61575588828901615239565b925050608086013567ffffffffffffffff81111561577257600080fd5b61577e88828901615408565b9150509295509295909350565b60006020828403121561579d57600080fd5b60006157ab848285016152b7565b91505092915050565b6000602082840312156157c657600080fd5b60006157d4848285016152e1565b91505092915050565b6000602082840312156157ef57600080fd5b60006157fd848285016152f6565b91505092915050565b60006020828403121561581857600080fd5b600082015167ffffffffffffffff81111561583257600080fd5b61583e8482850161537f565b91505092915050565b60006020828403121561585957600080fd5b6000615867848285016153a9565b91505092915050565b60006020828403121561588257600080fd5b600061589084828501615432565b91505092915050565b6000602082840312156158ab57600080fd5b60006158b984828501615447565b91505092915050565b600080604083850312156158d557600080fd5b60006158e385828601615432565b92505060206158f4858286016151fa565b9150509250929050565b6000806040838503121561591157600080fd5b600061591f85828601615432565b92505060206159308582860161545c565b9150509250929050565b6000806000806060858703121561595057600080fd5b600061595e87828801615432565b945050602061596f8782880161545c565b935050604085013567ffffffffffffffff81111561598c57600080fd5b615998878288016153be565b925092505092959194509250565b600080600080600060a086880312156159be57600080fd5b60006159cc88828901615432565b95505060206159dd8882890161545c565b94505060406159ee8882890161545c565b93505060606159ff888289016152cc565b9250506080615a10888289016152cc565b9150509295509295909350565b600060208284031215615a2f57600080fd5b6000615a3d84828501615471565b91505092915050565b6000615a528383615a9e565b60208301905092915050565b6000615a6a8383615ca6565b905092915050565b6000615a7e8383615d67565b905092915050565b6000615a928383616220565b60208301905092915050565b615aa781616e64565b82525050565b615ab681616e64565b82525050565b6000615ac782616c88565b615ad18185616cfe565b9350615adc83616c48565b8060005b83811015615b0d578151615af48882615a46565b9750615aff83616cca565b925050600181019050615ae0565b5085935050505092915050565b6000615b2582616c93565b615b2f8185616d0f565b935083602082028501615b4185616c58565b8060005b85811015615b7d5784840389528151615b5e8582615a5e565b9450615b6983616cd7565b925060208a01995050600181019050615b45565b50829750879550505050505092915050565b6000615b9a82616c9e565b615ba48185616d20565b935083602082028501615bb685616c68565b8060005b85811015615bf25784840389528151615bd38582615a72565b9450615bde83616ce4565b925060208a01995050600181019050615bba565b50829750879550505050505092915050565b6000615c0f82616ca9565b615c198185616d31565b9350615c2483616c78565b8060005b83811015615c55578151615c3c8882615a86565b9750615c4783616cf1565b925050600181019050615c28565b5085935050505092915050565b615c6b81616e88565b82525050565b615c7a81616e88565b82525050565b615c8981616e94565b82525050565b615ca0615c9b82616e94565b617088565b82525050565b6000615cb182616cb4565b615cbb8185616d42565b9350615ccb818560208601616fa9565b615cd48161714e565b840191505092915050565b6000615cea82616cb4565b615cf48185616d53565b9350615d04818560208601616fa9565b615d0d8161714e565b840191505092915050565b6000615d2382616cb4565b615d2d8185616d64565b9350615d3d818560208601616fa9565b80840191505092915050565b615d5281616f52565b82525050565b615d6181616f76565b82525050565b6000615d7282616cbf565b615d7c8185616d6f565b9350615d8c818560208601616fa9565b615d958161714e565b840191505092915050565b6000615dab82616cbf565b615db58185616d80565b9350615dc5818560208601616fa9565b615dce8161714e565b840191505092915050565b6000615de482616cbf565b615dee8185616d91565b9350615dfe818560208601616fa9565b80840191505092915050565b6000615e17601883616d80565b9150615e228261715f565b602082019050919050565b6000615e3a601883616d80565b9150615e4582617188565b602082019050919050565b6000615e5d602683616d80565b9150615e68826171b1565b604082019050919050565b6000615e80604383616d80565b9150615e8b82617200565b606082019050919050565b6000615ea3601f83616d80565b9150615eae82617275565b602082019050919050565b6000615ec6600283616d91565b9150615ed18261729e565b600282019050919050565b6000615ee9602183616d80565b9150615ef4826172c7565b604082019050919050565b6000615f0c602783616d80565b9150615f1782617316565b604082019050919050565b6000615f2f604283616d80565b9150615f3a82617365565b606082019050919050565b6000615f52603a83616d80565b9150615f5d826173da565b604082019050919050565b6000615f75602283616d80565b9150615f8082617429565b604082019050919050565b6000615f98601d83616d80565b9150615fa382617478565b602082019050919050565b6000615fbb602683616d80565b9150615fc6826174a1565b604082019050919050565b6000615fde602383616d80565b9150615fe9826174f0565b604082019050919050565b6000616001601883616d80565b915061600c8261753f565b602082019050919050565b6000616024602283616d80565b915061602f82617568565b604082019050919050565b6000616047602683616d80565b9150616052826175b7565b604082019050919050565b600061606a601d83616d80565b915061607582617606565b602082019050919050565b600061608d602183616d80565b91506160988261762f565b604082019050919050565b60006160b0603183616d80565b91506160bb8261767e565b604082019050919050565b60006160d3602d83616d80565b91506160de826176cd565b604082019050919050565b60006160f6601d83616d80565b91506161018261771c565b602082019050919050565b6000616119602183616d80565b915061612482617745565b604082019050919050565b600061613c600083616d64565b915061614782617794565b600082019050919050565b600061615f600083616d80565b915061616a82617794565b600082019050919050565b6000616182601d83616d80565b915061618d82617797565b602082019050919050565b60006161a5602783616d80565b91506161b0826177c0565b604082019050919050565b60006161c8602d83616d80565b91506161d38261780f565b604082019050919050565b6060820160008201516161f46000850182615c62565b506020820151616207602085018261624d565b50604082015161621a604085018261626b565b50505050565b61622981616f0f565b82525050565b61623881616f0f565b82525050565b61624781616f88565b82525050565b61625681616f2d565b82525050565b61626581616f2d565b82525050565b61627481616f3a565b82525050565b60006162868284615d18565b915081905092915050565b600061629d8284615dd9565b915081905092915050565b60006162b382615eb9565b91506162bf8285615c8f565b6020820191506162cf8284615c8f565b6020820191508190509392505050565b60006162ea8261612f565b9150819050919050565b60006020820190506163096000830184615aad565b92915050565b60006040820190506163246000830185615aad565b6163316020830184615aad565b9392505050565b600060408201905061634d6000830185615aad565b61635a602083018461622f565b9392505050565b600060a0820190506163766000830187615aad565b616383602083018661622f565b818103604083015261639481616152565b905081810360608301526163a88185615cdf565b90506163b7608083018461622f565b95945050505050565b600060808201905081810360008301526163da8187615abc565b905081810360208301526163ee8186615c04565b905081810360408301526164028185615b1a565b90506164116060830184615c80565b95945050505050565b600060808201905081810360008301526164348187615abc565b905081810360208301526164488186615c04565b9050818103604083015261645c8185615b8f565b905081810360608301526164708184615b1a565b905095945050505050565b60006020820190506164906000830184615c71565b92915050565b60006020820190506164ab6000830184615c80565b92915050565b600060a0820190506164c66000830188615c80565b6164d36020830187615c80565b6164e06040830186615c80565b6164ed606083018561622f565b6164fa6080830184615aad565b9695505050505050565b60006060820190506165196000830186615c80565b616526602083018561622f565b616533604083018461625c565b949350505050565b60006080820190506165506000830187615c80565b61655d602083018661625c565b61656a6040830185615c80565b6165776060830184615c80565b95945050505050565b6000602082019050818103600083015261659a8184615cdf565b905092915050565b60006020820190506165b76000830184615d49565b92915050565b60006020820190506165d26000830184615d58565b92915050565b600060208201905081810360008301526165f28184615da0565b905092915050565b6000602082019050818103600083015261661381615e0a565b9050919050565b6000602082019050818103600083015261663381615e2d565b9050919050565b6000602082019050818103600083015261665381615e50565b9050919050565b6000602082019050818103600083015261667381615e73565b9050919050565b6000602082019050818103600083015261669381615e96565b9050919050565b600060208201905081810360008301526166b381615edc565b9050919050565b600060208201905081810360008301526166d381615eff565b9050919050565b600060208201905081810360008301526166f381615f22565b9050919050565b6000602082019050818103600083015261671381615f45565b9050919050565b6000602082019050818103600083015261673381615f68565b9050919050565b6000602082019050818103600083015261675381615f8b565b9050919050565b6000602082019050818103600083015261677381615fae565b9050919050565b6000602082019050818103600083015261679381615fd1565b9050919050565b600060208201905081810360008301526167b381615ff4565b9050919050565b600060208201905081810360008301526167d381616017565b9050919050565b600060208201905081810360008301526167f38161603a565b9050919050565b600060208201905081810360008301526168138161605d565b9050919050565b6000602082019050818103600083015261683381616080565b9050919050565b60006020820190508181036000830152616853816160a3565b9050919050565b60006020820190508181036000830152616873816160c6565b9050919050565b60006020820190508181036000830152616893816160e9565b9050919050565b600060208201905081810360008301526168b38161610c565b9050919050565b600060208201905081810360008301526168d381616175565b9050919050565b600060208201905081810360008301526168f381616198565b9050919050565b60006020820190508181036000830152616913816161bb565b9050919050565b600060608201905061692f60008301846161de565b92915050565b600060208201905061694a600083018461622f565b92915050565b600061012082019050616966600083018c61622f565b616973602083018b615aad565b8181036040830152616985818a615abc565b905081810360608301526169998189615c04565b905081810360808301526169ad8188615b8f565b905081810360a08301526169c18187615b1a565b90506169d060c083018661623e565b6169dd60e083018561623e565b8181036101008301526169f08184615da0565b90509a9950505050505050505050565b600061014082019050616a16600083018d61622f565b616a23602083018c615aad565b616a30604083018b61622f565b616a3d606083018a61622f565b616a4a608083018961622f565b616a5760a083018861622f565b616a6460c083018761622f565b616a7160e083018661622f565b616a7f610100830185615c71565b616a8d610120830184615c71565b9b9a5050505050505050505050565b6000604082019050616ab1600083018561622f565b616abe602083018461622f565b9392505050565b6000608082019050616ada600083018761622f565b616ae7602083018661625c565b616af4604083018561622f565b8181036060830152616b068184615da0565b905095945050505050565b6000616b1b616b2c565b9050616b27828261700e565b919050565b6000604051905090565b600067ffffffffffffffff821115616b5157616b5061711f565b5b602082029050602081019050919050565b600067ffffffffffffffff821115616b7d57616b7c61711f565b5b602082029050602081019050919050565b600067ffffffffffffffff821115616ba957616ba861711f565b5b602082029050602081019050919050565b600067ffffffffffffffff821115616bd557616bd461711f565b5b602082029050602081019050919050565b600067ffffffffffffffff821115616c0157616c0061711f565b5b616c0a8261714e565b9050602081019050919050565b600067ffffffffffffffff821115616c3257616c3161711f565b5b616c3b8261714e565b9050602081019050919050565b6000819050602082019050919050565b6000819050602082019050919050565b6000819050602082019050919050565b6000819050602082019050919050565b600081519050919050565b600081519050919050565b600081519050919050565b600081519050919050565b600081519050919050565b600081519050919050565b6000602082019050919050565b6000602082019050919050565b6000602082019050919050565b6000602082019050919050565b600082825260208201905092915050565b600082825260208201905092915050565b600082825260208201905092915050565b600082825260208201905092915050565b600082825260208201905092915050565b600082825260208201905092915050565b600081905092915050565b600082825260208201905092915050565b600082825260208201905092915050565b600081905092915050565b6000616da782616f0f565b9150616db283616f0f565b9250827fffffffffffffffffffffffffffffffffffffffffffffffffffffffffffffffff03821115616de757616de6617092565b5b828201905092915050565b6000616dfd82616f19565b9150616e0883616f19565b92508267ffffffffffffffff03821115616e2557616e24617092565b5b828201905092915050565b6000616e3b82616f0f565b9150616e4683616f0f565b925082821015616e5957616e58617092565b5b828203905092915050565b6000616e6f82616eef565b9050919050565b6000616e8182616eef565b9050919050565b60008115159050919050565b6000819050919050565b60007fffffffff0000000000000000000000000000000000000000000000000000000082169050919050565b6000616ed582616e76565b9050919050565b6000819050616eea8261785e565b919050565b600073ffffffffffffffffffffffffffffffffffffffff82169050919050565b6000819050919050565b600067ffffffffffffffff82169050919050565b600060ff82169050919050565b60006bffffffffffffffffffffffff82169050919050565b6000616f5d82616f64565b9050919050565b6000616f6f82616eef565b9050919050565b6000616f8182616edc565b9050919050565b6000616f9382616f19565b9050919050565b82818337600083830152505050565b60005b83811015616fc7578082015181840152602081019050616fac565b83811115616fd6576000848401525b50505050565b60006002820490506001821680616ff457607f821691505b60208210811415617008576170076170f0565b5b50919050565b6170178261714e565b810181811067ffffffffffffffff821117156170365761703561711f565b5b80604052505050565b600061704a82616f0f565b91507fffffffffffffffffffffffffffffffffffffffffffffffffffffffffffffffff82141561707d5761707c617092565b5b600182019050919050565b6000819050919050565b7f4e487b7100000000000000000000000000000000000000000000000000000000600052601160045260246000fd5b7f4e487b7100000000000000000000000000000000000000000000000000000000600052602160045260246000fd5b7f4e487b7100000000000000000000000000000000000000000000000000000000600052602260045260246000fd5b7f4e487b7100000000000000000000000000000000000000000000000000000000600052604160045260246000fd5b6000601f19601f8301169050919050565b7f45434453413a20696e76616c6964207369676e61747572650000000000000000600082015250565b7f476f7665726e6f723a206f6e6c79476f7665726e616e63650000000000000000600082015250565b7f53616665436173743a2076616c756520646f65736e27742066697420696e203960008201527f3620626974730000000000000000000000000000000000000000000000000000602082015250565b7f476f7665726e6f72436f6d7061746962696c697479427261766f3a2070726f7060008201527f6f73657220766f7465732062656c6f772070726f706f73616c2074687265736860208201527f6f6c640000000000000000000000000000000000000000000000000000000000604082015250565b7f45434453413a20696e76616c6964207369676e6174757265206c656e67746800600082015250565b7f1901000000000000000000000000000000000000000000000000000000000000600082015250565b7f476f7665726e6f723a20696e76616c69642070726f706f73616c206c656e677460008201527f6800000000000000000000000000000000000000000000000000000000000000602082015250565b7f476f7665726e6f7253657474696e67733a20766f74696e6720706572696f642060008201527f746f6f206c6f7700000000000000000000000000000000000000000000000000602082015250565b7f476f7665726e6f7254696d656c6f636b436f6d706f756e643a206964656e746960008201527f63616c2070726f706f73616c20616374696f6e20616c7265616479207175657560208201527f6564000000000000000000000000000000000000000000000000000000000000604082015250565b7f416464726573733a20756e61626c6520746f2073656e642076616c75652c207260008201527f6563697069656e74206d61792068617665207265766572746564000000000000602082015250565b7f45434453413a20696e76616c6964207369676e6174757265202773272076616c60008201527f7565000000000000000000000000000000000000000000000000000000000000602082015250565b7f416464726573733a20696e73756666696369656e742062616c616e6365000000600082015250565b7f416464726573733a20696e73756666696369656e742062616c616e636520666f60008201527f722063616c6c0000000000000000000000000000000000000000000000000000602082015250565b7f476f7665726e6f723a20766f7465206e6f742063757272656e746c792061637460008201527f6976650000000000000000000000000000000000000000000000000000000000602082015250565b7f476f7665726e6f723a20656d7074792070726f706f73616c0000000000000000600082015250565b7f45434453413a20696e76616c6964207369676e6174757265202776272076616c60008201527f7565000000000000000000000000000000000000000000000000000000000000602082015250565b7f53616665436173743a2076616c756520646f65736e27742066697420696e203660008201527f3420626974730000000000000000000000000000000000000000000000000000602082015250565b7f476f7665726e6f723a2070726f706f73616c206e6f7420616374697665000000600082015250565b7f476f7665726e6f723a2070726f706f73616c206e6f742073756363657373667560008201527f6c00000000000000000000000000000000000000000000000000000000000000602082015250565b7f476f7665726e6f7254696d656c6f636b436f6d706f756e643a2070726f706f7360008201527f616c206e6f742079657420717565756564000000000000000000000000000000602082015250565b7f476f7665726e6f72436f6d7061746962696c697479427261766f3a20696e766160008201527f6c696420766f7465207479706500000000000000000000000000000000000000602082015250565b7f476f7665726e6f723a20756e6b6e6f776e2070726f706f73616c206964000000600082015250565b7f476f7665726e6f723a2070726f706f73616c20616c726561647920657869737460008201527f7300000000000000000000000000000000000000000000000000000000000000602082015250565b50565b7f416464726573733a2063616c6c20746f206e6f6e2d636f6e7472616374000000600082015250565b7f476f7665726e6f72427261766f3a2070726f706f7365722061626f766520746860008201527f726573686f6c6400000000000000000000000000000000000000000000000000602082015250565b7f476f7665726e6f72436f6d7061746962696c697479427261766f3a20766f746560008201527f20616c7265616479206361737400000000000000000000000000000000000000602082015250565b6008811061786f5761786e6170c1565b5b50565b61787b81616e64565b811461788657600080fd5b50565b61789281616e88565b811461789d57600080fd5b50565b6178a981616e94565b81146178b457600080fd5b50565b6178c081616e9e565b81146178cb57600080fd5b50565b6178d781616eca565b81146178e257600080fd5b50565b6178ee81616f0f565b81146178f957600080fd5b50565b61790581616f2d565b811461791057600080fd5b50565b61791c81616f3a565b811461792757600080fd5b5056fe416464726573733a206c6f772d6c6576656c2063616c6c20776974682076616c7565206661696c6564a2646970667358221220d2fe328d038ec96919e8e06ae9c456bc64ecd8ac2310c0221e67fa745f99ec6664736f6c63430008020033",
  "linkReferences": {},
  "deployedLinkReferences": {}
}