{
  "_format": "hh-sol-artifact-1",
  "contractName": "GovernorTimelockCompoundMock",
  "sourceName": "contracts/OZ/mocks/GovernorTimelockCompoundMock.sol",
  "abi": [
    {
      "inputs": [
        {
          "internalType": "string",
          "name": "name_",
          "type": "string"
        },
        {
          "internalType": "contract ERC20Votes",
          "name": "token_",
          "type": "address"
        },
        {
          "internalType": "uint256",
          "name": "votingDelay_",
          "type": "uint256"
        },
        {
          "internalType": "uint256",
          "name": "votingPeriod_",
          "type": "uint256"
        },
        {
          "internalType": "contract ICompoundTimelock",
          "name": "timelock_",
          "type": "address"
        },
        {
          "internalType": "uint256",
          "name": "quorumNumerator_",
          "type": "uint256"
        }
      ],
      "stateMutability": "nonpayable",
      "type": "constructor"
    },
    {
      "anonymous": false,
      "inputs": [
        {
          "indexed": false,
          "internalType": "uint256",
          "name": "proposalId",
          "type": "uint256"
        }
      ],
      "name": "ProposalCanceled",
      "type": "event"
    },
    {
      "anonymous": false,
      "inputs": [
        {
          "indexed": false,
          "internalType": "uint256",
          "name": "proposalId",
          "type": "uint256"
        },
        {
          "indexed": false,
          "internalType": "address",
          "name": "proposer",
          "type": "address"
        },
        {
          "indexed": false,
          "internalType": "address[]",
          "name": "targets",
          "type": "address[]"
        },
        {
          "indexed": false,
          "internalType": "uint256[]",
          "name": "values",
          "type": "uint256[]"
        },
        {
          "indexed": false,
          "internalType": "string[]",
          "name": "signatures",
          "type": "string[]"
        },
        {
          "indexed": false,
          "internalType": "bytes[]",
          "name": "calldatas",
          "type": "bytes[]"
        },
        {
          "indexed": false,
          "internalType": "uint256",
          "name": "startBlock",
          "type": "uint256"
        },
        {
          "indexed": false,
          "internalType": "uint256",
          "name": "endBlock",
          "type": "uint256"
        },
        {
          "indexed": false,
          "internalType": "string",
          "name": "description",
          "type": "string"
        }
      ],
      "name": "ProposalCreated",
      "type": "event"
    },
    {
      "anonymous": false,
      "inputs": [
        {
          "indexed": false,
          "internalType": "uint256",
          "name": "proposalId",
          "type": "uint256"
        }
      ],
      "name": "ProposalExecuted",
      "type": "event"
    },
    {
      "anonymous": false,
      "inputs": [
        {
          "indexed": false,
          "internalType": "uint256",
          "name": "proposalId",
          "type": "uint256"
        },
        {
          "indexed": false,
          "internalType": "uint256",
          "name": "eta",
          "type": "uint256"
        }
      ],
      "name": "ProposalQueued",
      "type": "event"
    },
    {
      "anonymous": false,
      "inputs": [
        {
          "indexed": false,
          "internalType": "uint256",
          "name": "oldProposalThreshold",
          "type": "uint256"
        },
        {
          "indexed": false,
          "internalType": "uint256",
          "name": "newProposalThreshold",
          "type": "uint256"
        }
      ],
      "name": "ProposalThresholdSet",
      "type": "event"
    },
    {
      "anonymous": false,
      "inputs": [
        {
          "indexed": false,
          "internalType": "uint256",
          "name": "oldQuorumNumerator",
          "type": "uint256"
        },
        {
          "indexed": false,
          "internalType": "uint256",
          "name": "newQuorumNumerator",
          "type": "uint256"
        }
      ],
      "name": "QuorumNumeratorUpdated",
      "type": "event"
    },
    {
      "anonymous": false,
      "inputs": [
        {
          "indexed": false,
          "internalType": "address",
          "name": "oldTimelock",
          "type": "address"
        },
        {
          "indexed": false,
          "internalType": "address",
          "name": "newTimelock",
          "type": "address"
        }
      ],
      "name": "TimelockChange",
      "type": "event"
    },
    {
      "anonymous": false,
      "inputs": [
        {
          "indexed": true,
          "internalType": "address",
          "name": "voter",
          "type": "address"
        },
        {
          "indexed": false,
          "internalType": "uint256",
          "name": "proposalId",
          "type": "uint256"
        },
        {
          "indexed": false,
          "internalType": "uint8",
          "name": "support",
          "type": "uint8"
        },
        {
          "indexed": false,
          "internalType": "uint256",
          "name": "weight",
          "type": "uint256"
        },
        {
          "indexed": false,
          "internalType": "string",
          "name": "reason",
          "type": "string"
        }
      ],
      "name": "VoteCast",
      "type": "event"
    },
    {
      "anonymous": false,
      "inputs": [
        {
          "indexed": false,
          "internalType": "uint256",
          "name": "oldVotingDelay",
          "type": "uint256"
        },
        {
          "indexed": false,
          "internalType": "uint256",
          "name": "newVotingDelay",
          "type": "uint256"
        }
      ],
      "name": "VotingDelaySet",
      "type": "event"
    },
    {
      "anonymous": false,
      "inputs": [
        {
          "indexed": false,
          "internalType": "uint256",
          "name": "oldVotingPeriod",
          "type": "uint256"
        },
        {
          "indexed": false,
          "internalType": "uint256",
          "name": "newVotingPeriod",
          "type": "uint256"
        }
      ],
      "name": "VotingPeriodSet",
      "type": "event"
    },
    {
      "inputs": [],
      "name": "BALLOT_TYPEHASH",
      "outputs": [
        {
          "internalType": "bytes32",
          "name": "",
          "type": "bytes32"
        }
      ],
      "stateMutability": "view",
      "type": "function"
    },
    {
      "inputs": [],
      "name": "COUNTING_MODE",
      "outputs": [
        {
          "internalType": "string",
          "name": "",
          "type": "string"
        }
      ],
      "stateMutability": "pure",
      "type": "function"
    },
    {
      "inputs": [],
      "name": "__acceptAdmin",
      "outputs": [],
      "stateMutability": "nonpayable",
      "type": "function"
    },
    {
      "inputs": [
        {
          "internalType": "address[]",
          "name": "targets",
          "type": "address[]"
        },
        {
          "internalType": "uint256[]",
          "name": "values",
          "type": "uint256[]"
        },
        {
          "internalType": "bytes[]",
          "name": "calldatas",
          "type": "bytes[]"
        },
        {
          "internalType": "bytes32",
          "name": "salt",
          "type": "bytes32"
        }
      ],
      "name": "cancel",
      "outputs": [
        {
          "internalType": "uint256",
          "name": "proposalId",
          "type": "uint256"
        }
      ],
      "stateMutability": "nonpayable",
      "type": "function"
    },
    {
      "inputs": [
        {
          "internalType": "uint256",
          "name": "proposalId",
          "type": "uint256"
        },
        {
          "internalType": "uint8",
          "name": "support",
          "type": "uint8"
        }
      ],
      "name": "castVote",
      "outputs": [
        {
          "internalType": "uint256",
          "name": "",
          "type": "uint256"
        }
      ],
      "stateMutability": "nonpayable",
      "type": "function"
    },
    {
      "inputs": [
        {
          "internalType": "uint256",
          "name": "proposalId",
          "type": "uint256"
        },
        {
          "internalType": "uint8",
          "name": "support",
          "type": "uint8"
        },
        {
          "internalType": "uint8",
          "name": "v",
          "type": "uint8"
        },
        {
          "internalType": "bytes32",
          "name": "r",
          "type": "bytes32"
        },
        {
          "internalType": "bytes32",
          "name": "s",
          "type": "bytes32"
        }
      ],
      "name": "castVoteBySig",
      "outputs": [
        {
          "internalType": "uint256",
          "name": "",
          "type": "uint256"
        }
      ],
      "stateMutability": "nonpayable",
      "type": "function"
    },
    {
      "inputs": [
        {
          "internalType": "uint256",
          "name": "proposalId",
          "type": "uint256"
        },
        {
          "internalType": "uint8",
          "name": "support",
          "type": "uint8"
        },
        {
          "internalType": "string",
          "name": "reason",
          "type": "string"
        }
      ],
      "name": "castVoteWithReason",
      "outputs": [
        {
          "internalType": "uint256",
          "name": "",
          "type": "uint256"
        }
      ],
      "stateMutability": "nonpayable",
      "type": "function"
    },
    {
      "inputs": [
        {
          "internalType": "address[]",
          "name": "targets",
          "type": "address[]"
        },
        {
          "internalType": "uint256[]",
          "name": "values",
          "type": "uint256[]"
        },
        {
          "internalType": "bytes[]",
          "name": "calldatas",
          "type": "bytes[]"
        },
        {
          "internalType": "bytes32",
          "name": "descriptionHash",
          "type": "bytes32"
        }
      ],
      "name": "execute",
      "outputs": [
        {
          "internalType": "uint256",
          "name": "",
          "type": "uint256"
        }
      ],
      "stateMutability": "payable",
      "type": "function"
    },
    {
      "inputs": [
        {
          "internalType": "address",
          "name": "account",
          "type": "address"
        },
        {
          "internalType": "uint256",
          "name": "blockNumber",
          "type": "uint256"
        }
      ],
      "name": "getVotes",
      "outputs": [
        {
          "internalType": "uint256",
          "name": "",
          "type": "uint256"
        }
      ],
      "stateMutability": "view",
      "type": "function"
    },
    {
      "inputs": [
        {
          "internalType": "uint256",
          "name": "proposalId",
          "type": "uint256"
        },
        {
          "internalType": "address",
          "name": "account",
          "type": "address"
        }
      ],
      "name": "hasVoted",
      "outputs": [
        {
          "internalType": "bool",
          "name": "",
          "type": "bool"
        }
      ],
      "stateMutability": "view",
      "type": "function"
    },
    {
      "inputs": [
        {
          "internalType": "address[]",
          "name": "targets",
          "type": "address[]"
        },
        {
          "internalType": "uint256[]",
          "name": "values",
          "type": "uint256[]"
        },
        {
          "internalType": "bytes[]",
          "name": "calldatas",
          "type": "bytes[]"
        },
        {
          "internalType": "bytes32",
          "name": "descriptionHash",
          "type": "bytes32"
        }
      ],
      "name": "hashProposal",
      "outputs": [
        {
          "internalType": "uint256",
          "name": "",
          "type": "uint256"
        }
      ],
      "stateMutability": "pure",
      "type": "function"
    },
    {
      "inputs": [],
      "name": "name",
      "outputs": [
        {
          "internalType": "string",
          "name": "",
          "type": "string"
        }
      ],
      "stateMutability": "view",
      "type": "function"
    },
    {
      "inputs": [
        {
          "internalType": "uint256",
          "name": "proposalId",
          "type": "uint256"
        }
      ],
      "name": "proposalDeadline",
      "outputs": [
        {
          "internalType": "uint256",
          "name": "",
          "type": "uint256"
        }
      ],
      "stateMutability": "view",
      "type": "function"
    },
    {
      "inputs": [
        {
          "internalType": "uint256",
          "name": "proposalId",
          "type": "uint256"
        }
      ],
      "name": "proposalEta",
      "outputs": [
        {
          "internalType": "uint256",
          "name": "",
          "type": "uint256"
        }
      ],
      "stateMutability": "view",
      "type": "function"
    },
    {
      "inputs": [
        {
          "internalType": "uint256",
          "name": "proposalId",
          "type": "uint256"
        }
      ],
      "name": "proposalSnapshot",
      "outputs": [
        {
          "internalType": "uint256",
          "name": "",
          "type": "uint256"
        }
      ],
      "stateMutability": "view",
      "type": "function"
    },
    {
      "inputs": [],
      "name": "proposalThreshold",
      "outputs": [
        {
          "internalType": "uint256",
          "name": "",
          "type": "uint256"
        }
      ],
      "stateMutability": "view",
      "type": "function"
    },
    {
      "inputs": [
        {
          "internalType": "uint256",
          "name": "proposalId",
          "type": "uint256"
        }
      ],
      "name": "proposalVotes",
      "outputs": [
        {
          "internalType": "uint256",
          "name": "againstVotes",
          "type": "uint256"
        },
        {
          "internalType": "uint256",
          "name": "forVotes",
          "type": "uint256"
        },
        {
          "internalType": "uint256",
          "name": "abstainVotes",
          "type": "uint256"
        }
      ],
      "stateMutability": "view",
      "type": "function"
    },
    {
      "inputs": [
        {
          "internalType": "address[]",
          "name": "targets",
          "type": "address[]"
        },
        {
          "internalType": "uint256[]",
          "name": "values",
          "type": "uint256[]"
        },
        {
          "internalType": "bytes[]",
          "name": "calldatas",
          "type": "bytes[]"
        },
        {
          "internalType": "string",
          "name": "description",
          "type": "string"
        }
      ],
      "name": "propose",
      "outputs": [
        {
          "internalType": "uint256",
          "name": "",
          "type": "uint256"
        }
      ],
      "stateMutability": "nonpayable",
      "type": "function"
    },
    {
      "inputs": [
        {
          "internalType": "address[]",
          "name": "targets",
          "type": "address[]"
        },
        {
          "internalType": "uint256[]",
          "name": "values",
          "type": "uint256[]"
        },
        {
          "internalType": "bytes[]",
          "name": "calldatas",
          "type": "bytes[]"
        },
        {
          "internalType": "bytes32",
          "name": "descriptionHash",
          "type": "bytes32"
        }
      ],
      "name": "queue",
      "outputs": [
        {
          "internalType": "uint256",
          "name": "",
          "type": "uint256"
        }
      ],
      "stateMutability": "nonpayable",
      "type": "function"
    },
    {
      "inputs": [
        {
          "internalType": "uint256",
          "name": "blockNumber",
          "type": "uint256"
        }
      ],
      "name": "quorum",
      "outputs": [
        {
          "internalType": "uint256",
          "name": "",
          "type": "uint256"
        }
      ],
      "stateMutability": "view",
      "type": "function"
    },
    {
      "inputs": [],
      "name": "quorumDenominator",
      "outputs": [
        {
          "internalType": "uint256",
          "name": "",
          "type": "uint256"
        }
      ],
      "stateMutability": "view",
      "type": "function"
    },
    {
      "inputs": [],
      "name": "quorumNumerator",
      "outputs": [
        {
          "internalType": "uint256",
          "name": "",
          "type": "uint256"
        }
      ],
      "stateMutability": "view",
      "type": "function"
    },
    {
      "inputs": [
        {
          "internalType": "address",
          "name": "target",
          "type": "address"
        },
        {
          "internalType": "uint256",
          "name": "value",
          "type": "uint256"
        },
        {
          "internalType": "bytes",
          "name": "data",
          "type": "bytes"
        }
      ],
      "name": "relay",
      "outputs": [],
      "stateMutability": "nonpayable",
      "type": "function"
    },
    {
      "inputs": [
        {
          "internalType": "uint256",
          "name": "newProposalThreshold",
          "type": "uint256"
        }
      ],
      "name": "setProposalThreshold",
      "outputs": [],
      "stateMutability": "nonpayable",
      "type": "function"
    },
    {
      "inputs": [
        {
          "internalType": "uint256",
          "name": "newVotingDelay",
          "type": "uint256"
        }
      ],
      "name": "setVotingDelay",
      "outputs": [],
      "stateMutability": "nonpayable",
      "type": "function"
    },
    {
      "inputs": [
        {
          "internalType": "uint256",
          "name": "newVotingPeriod",
          "type": "uint256"
        }
      ],
      "name": "setVotingPeriod",
      "outputs": [],
      "stateMutability": "nonpayable",
      "type": "function"
    },
    {
      "inputs": [
        {
          "internalType": "uint256",
          "name": "proposalId",
          "type": "uint256"
        }
      ],
      "name": "state",
      "outputs": [
        {
          "internalType": "enum IGovernor.ProposalState",
          "name": "",
          "type": "uint8"
        }
      ],
      "stateMutability": "view",
      "type": "function"
    },
    {
      "inputs": [
        {
          "internalType": "bytes4",
          "name": "interfaceId",
          "type": "bytes4"
        }
      ],
      "name": "supportsInterface",
      "outputs": [
        {
          "internalType": "bool",
          "name": "",
          "type": "bool"
        }
      ],
      "stateMutability": "view",
      "type": "function"
    },
    {
      "inputs": [],
      "name": "timelock",
      "outputs": [
        {
          "internalType": "address",
          "name": "",
          "type": "address"
        }
      ],
      "stateMutability": "view",
      "type": "function"
    },
    {
      "inputs": [],
      "name": "token",
      "outputs": [
        {
          "internalType": "contract ERC20Votes",
          "name": "",
          "type": "address"
        }
      ],
      "stateMutability": "view",
      "type": "function"
    },
    {
      "inputs": [
        {
          "internalType": "uint256",
          "name": "newQuorumNumerator",
          "type": "uint256"
        }
      ],
      "name": "updateQuorumNumerator",
      "outputs": [],
      "stateMutability": "nonpayable",
      "type": "function"
    },
    {
      "inputs": [
        {
          "internalType": "contract ICompoundTimelock",
          "name": "newTimelock",
          "type": "address"
        }
      ],
      "name": "updateTimelock",
      "outputs": [],
      "stateMutability": "nonpayable",
      "type": "function"
    },
    {
      "inputs": [],
      "name": "version",
      "outputs": [
        {
          "internalType": "string",
          "name": "",
          "type": "string"
        }
      ],
      "stateMutability": "view",
      "type": "function"
    },
    {
      "inputs": [],
      "name": "votingDelay",
      "outputs": [
        {
          "internalType": "uint256",
          "name": "",
          "type": "uint256"
        }
      ],
      "stateMutability": "view",
      "type": "function"
    },
    {
      "inputs": [],
      "name": "votingPeriod",
      "outputs": [
        {
          "internalType": "uint256",
          "name": "",
          "type": "uint256"
        }
      ],
      "stateMutability": "view",
      "type": "function"
    },
    {
      "stateMutability": "payable",
      "type": "receive"
    }
  ],
  "bytecode": "0x6101606040523480156200001257600080fd5b5060405162006bca38038062006bca833981810160405281019062000038919062000606565b808583868660008b8062000051620001bf60201b60201c565b60008280519060200120905060008280519060200120905060007f8b73c3c69bb8fe3d512ecc4cf759cc79239f7b179b0ffacaa9a75d522b39400f90508260e081815250508161010081815250504660a08181525050620000ba818484620001fc60201b60201c565b608081815250503073ffffffffffffffffffffffffffffffffffffffff1660c08173ffffffffffffffffffffffffffffffffffffffff1660601b81525050806101208181525050505050505080600090805190602001906200011e9291906200049f565b505062000131836200023860201b60201c565b62000142826200027f60201b60201c565b62000153816200030c60201b60201c565b50505062000167816200035360201b60201c565b508073ffffffffffffffffffffffffffffffffffffffff166101408173ffffffffffffffffffffffffffffffffffffffff1660601b8152505050620001b281620003f460201b60201c565b5050505050505062000b48565b60606040518060400160405280600181526020017f3100000000000000000000000000000000000000000000000000000000000000815250905090565b600083838346306040516020016200021995949392919062000763565b6040516020818303038152906040528051906020012090509392505050565b7fc565b045403dc03c2eea82b81a0465edad9e2e7fc4d97e11421c209da93d7a93600254826040516200026d92919062000804565b60405180910390a18060028190555050565b60008111620002c5576040517f08c379a0000000000000000000000000000000000000000000000000000000008152600401620002bc90620007e2565b60405180910390fd5b7f7e3f7f0708a84de9203036abaa450dccc85ad5ff52f78c170f3edb55cf5e882860035482604051620002fa92919062000804565b60405180910390a18060038190555050565b7fccb45da8d5717e6c4544694297c4ba5cf151d455c9bb0ed4fc7a38411bc05461600454826040516200034192919062000804565b60405180910390a18060048190555050565b7f08f74ea46ef7894f65eabfb5e6e695de773a000b47c529ab559178069b226401600560009054906101000a900473ffffffffffffffffffffffffffffffffffffffff1682604051620003a892919062000736565b60405180910390a180600560006101000a81548173ffffffffffffffffffffffffffffffffffffffff021916908373ffffffffffffffffffffffffffffffffffffffff16021790555050565b620004046200049660201b60201c565b81111562000449576040517f08c379a00000000000000000000000000000000000000000000000000000000081526004016200044090620007c0565b60405180910390fd5b60006007549050816007819055507f0553476bf02ef2726e8ce5ced78d63e26e602e4a2257b1f559418e24b463399781836040516200048a92919062000804565b60405180910390a15050565b60006064905090565b828054620004ad906200095b565b90600052602060002090601f016020900481019282620004d157600085556200051d565b82601f10620004ec57805160ff19168380011785556200051d565b828001600101855582156200051d579182015b828111156200051c578251825591602001919060010190620004ff565b5b5090506200052c919062000530565b5090565b5b808211156200054b57600081600090555060010162000531565b5090565b60006200056662000560846200085a565b62000831565b9050828152602081018484840111156200057f57600080fd5b6200058c84828562000925565b509392505050565b600081519050620005a58162000afa565b92915050565b600081519050620005bc8162000b14565b92915050565b600082601f830112620005d457600080fd5b8151620005e68482602086016200054f565b91505092915050565b600081519050620006008162000b2e565b92915050565b60008060008060008060c087890312156200062057600080fd5b600087015167ffffffffffffffff8111156200063b57600080fd5b6200064989828a01620005c2565b96505060206200065c89828a0162000594565b95505060406200066f89828a01620005ef565b94505060606200068289828a01620005ef565b93505060806200069589828a01620005ab565b92505060a0620006a889828a01620005ef565b9150509295509295509295565b620006c081620008a1565b82525050565b620006d181620008c9565b82525050565b6000620006e660438362000890565b9150620006f38262000a36565b606082019050919050565b60006200070d60278362000890565b91506200071a8262000aab565b604082019050919050565b62000730816200091b565b82525050565b60006040820190506200074d6000830185620006b5565b6200075c6020830184620006b5565b9392505050565b600060a0820190506200077a6000830188620006c6565b620007896020830187620006c6565b620007986040830186620006c6565b620007a7606083018562000725565b620007b66080830184620006b5565b9695505050505050565b60006020820190508181036000830152620007db81620006d7565b9050919050565b60006020820190508181036000830152620007fd81620006fe565b9050919050565b60006040820190506200081b600083018562000725565b6200082a602083018462000725565b9392505050565b60006200083d62000850565b90506200084b828262000991565b919050565b6000604051905090565b600067ffffffffffffffff821115620008785762000877620009f6565b5b620008838262000a25565b9050602081019050919050565b600082825260208201905092915050565b6000620008ae82620008fb565b9050919050565b6000620008c282620008fb565b9050919050565b6000819050919050565b6000620008e082620008a1565b9050919050565b6000620008f482620008b5565b9050919050565b600073ffffffffffffffffffffffffffffffffffffffff82169050919050565b6000819050919050565b60005b838110156200094557808201518184015260208101905062000928565b8381111562000955576000848401525b50505050565b600060028204905060018216806200097457607f821691505b602082108114156200098b576200098a620009c7565b5b50919050565b6200099c8262000a25565b810181811067ffffffffffffffff82111715620009be57620009bd620009f6565b5b80604052505050565b7f4e487b7100000000000000000000000000000000000000000000000000000000600052602260045260246000fd5b7f4e487b7100000000000000000000000000000000000000000000000000000000600052604160045260246000fd5b6000601f19601f8301169050919050565b7f476f7665726e6f72566f74657351756f72756d4672616374696f6e3a2071756f60008201527f72756d4e756d657261746f72206f7665722071756f72756d44656e6f6d696e6160208201527f746f720000000000000000000000000000000000000000000000000000000000604082015250565b7f476f7665726e6f7253657474696e67733a20766f74696e6720706572696f642060008201527f746f6f206c6f7700000000000000000000000000000000000000000000000000602082015250565b62000b0581620008d3565b811462000b1157600080fd5b50565b62000b1f81620008e7565b811462000b2b57600080fd5b50565b62000b39816200091b565b811462000b4557600080fd5b50565b60805160a05160c05160601c60e05161010051610120516101405160601c61601362000bb760003960008181611cd301528181612452015261255c01526000612961015260006129a301526000612982015260006128b70152600061290d0152600061293601526160136000f3fe6080604052600436106102085760003560e01c80637d5e81e211610118578063c59057e4116100a0578063ea0217cf1161006f578063ea0217cf14610844578063eb9019d41461086d578063ece40cc1146108aa578063f8ce560a146108d3578063fc0c546a146109105761024e565b8063c59057e414610786578063d33219b4146107c3578063dd4e2ba5146107ee578063deaaa7cc146108195761024e565b8063ab58fb8e116100e7578063ab58fb8e146106a1578063b58131b0146106de578063b9a6196114610709578063c01f9e3714610720578063c28bc2fa1461075d5761024e565b80637d5e81e2146105e557806397c3d33414610622578063a7713a701461064d578063a890c910146106785761024e565b80633bccf4fd1161019b578063544ffc9c1161016a578063544ffc9c146104d857806354fd4d5014610517578063567813881461054257806370b0f6601461057f5780637b3c71d3146105a85761024e565b80633bccf4fd146103e45780633e4f49e614610421578063438596321461045e578063452115d61461049b5761024e565b8063160cbed7116101d7578063160cbed71461030f5780632656227d1461034c5780632d63f6931461037c5780633932abb1146103b95761024e565b806301ffc9a71461025357806302a251a31461029057806306f3f9e6146102bb57806306fdde03146102e45761024e565b3661024e573073ffffffffffffffffffffffffffffffffffffffff1661022c61093b565b73ffffffffffffffffffffffffffffffffffffffff161461024c57600080fd5b005b600080fd5b34801561025f57600080fd5b5061027a60048036038101906102759190614057565b61094a565b6040516102879190614b91565b60405180910390f35b34801561029c57600080fd5b506102a561095c565b6040516102b29190614fee565b60405180910390f35b3480156102c757600080fd5b506102e260048036038101906102dd91906140ea565b610966565b005b3480156102f057600080fd5b506102f96109ee565b6040516103069190614ccc565b60405180910390f35b34801561031b57600080fd5b5061033660048036038101906103319190613e97565b610a80565b6040516103439190614fee565b60405180910390f35b61036660048036038101906103619190613e97565b610fda565b6040516103739190614fee565b60405180910390f35b34801561038857600080fd5b506103a3600480360381019061039e91906140ea565b6111a5565b6040516103b09190614fee565b60405180910390f35b3480156103c557600080fd5b506103ce611213565b6040516103db9190614fee565b60405180910390f35b3480156103f057600080fd5b5061040b60048036038101906104069190614220565b61121d565b6040516104189190614fee565b60405180910390f35b34801561042d57600080fd5b50610448600480360381019061044391906140ea565b6112a7565b6040516104559190614cb1565b60405180910390f35b34801561046a57600080fd5b506104856004803603810190610480919061413c565b6112b9565b6040516104929190614b91565b60405180910390f35b3480156104a757600080fd5b506104c260048036038101906104bd9190613e97565b611324565b6040516104cf9190614fee565b60405180910390f35b3480156104e457600080fd5b506104ff60048036038101906104fa91906140ea565b61133c565b60405161050e939291906150e2565b60405180910390f35b34801561052357600080fd5b5061052c611374565b6040516105399190614ccc565b60405180910390f35b34801561054e57600080fd5b5061056960048036038101906105649190614178565b6113b1565b6040516105769190614fee565b60405180910390f35b34801561058b57600080fd5b506105a660048036038101906105a191906140ea565b6113e2565b005b3480156105b457600080fd5b506105cf60048036038101906105ca91906141b4565b61146a565b6040516105dc9190614fee565b60405180910390f35b3480156105f157600080fd5b5061060c60048036038101906106079190613f42565b6114d2565b6040516106199190614fee565b60405180910390f35b34801561062e57600080fd5b506106376117f8565b6040516106449190614fee565b60405180910390f35b34801561065957600080fd5b50610662611801565b60405161066f9190614fee565b60405180910390f35b34801561068457600080fd5b5061069f600480360381019061069a91906140c1565b61180b565b005b3480156106ad57600080fd5b506106c860048036038101906106c391906140ea565b611893565b6040516106d59190614fee565b60405180910390f35b3480156106ea57600080fd5b506106f3611901565b6040516107009190614fee565b60405180910390f35b34801561071557600080fd5b5061071e611910565b005b34801561072c57600080fd5b50610747600480360381019061074291906140ea565b611994565b6040516107549190614fee565b60405180910390f35b34801561076957600080fd5b50610784600480360381019061077f9190613e2b565b611a02565b005b34801561079257600080fd5b506107ad60048036038101906107a89190613e97565b611ad4565b6040516107ba9190614fee565b60405180910390f35b3480156107cf57600080fd5b506107d8611b10565b6040516107e59190614a6b565b60405180910390f35b3480156107fa57600080fd5b50610803611b3a565b6040516108109190614ccc565b60405180910390f35b34801561082557600080fd5b5061082e611b77565b60405161083b9190614bac565b60405180910390f35b34801561085057600080fd5b5061086b600480360381019061086691906140ea565b611b9b565b005b34801561087957600080fd5b50610894600480360381019061088f9190613def565b611c23565b6040516108a19190614fee565b60405180910390f35b3480156108b657600080fd5b506108d160048036038101906108cc91906140ea565b611c37565b005b3480156108df57600080fd5b506108fa60048036038101906108f591906140ea565b611cbf565b6040516109079190614fee565b60405180910390f35b34801561091c57600080fd5b50610925611cd1565b6040516109329190614c96565b60405180910390f35b6000610945611cf5565b905090565b600061095582611d1f565b9050919050565b6000600354905090565b61096e61093b565b73ffffffffffffffffffffffffffffffffffffffff1661098c611d99565b73ffffffffffffffffffffffffffffffffffffffff16146109e2576040517f08c379a00000000000000000000000000000000000000000000000000000000081526004016109d990614d0e565b60405180910390fd5b6109eb81611da1565b50565b6060600080546109fd90615677565b80601f0160208091040260200160405190810160405280929190818152602001828054610a2990615677565b8015610a765780601f10610a4b57610100808354040283529160200191610a76565b820191906000526020600020905b815481529060010190602001808311610a5957829003601f168201915b5050505050905090565b600080610a8f86868686611ad4565b905060046007811115610acb577f4e487b7100000000000000000000000000000000000000000000000000000000600052602160045260246000fd5b610ad4826112a7565b6007811115610b0c577f4e487b7100000000000000000000000000000000000000000000000000000000600052602160045260246000fd5b14610b4c576040517f08c379a0000000000000000000000000000000000000000000000000000000008152600401610b4390614f2e565b60405180910390fd5b6000600560009054906101000a900473ffffffffffffffffffffffffffffffffffffffff1673ffffffffffffffffffffffffffffffffffffffff16636a42b8f86040518163ffffffff1660e01b815260040160206040518083038186803b158015610bb657600080fd5b505afa158015610bca573d6000803e3d6000fd5b505050506040513d601f19601f82011682018060405250810190610bee9190614113565b42610bf991906153c4565b9050610c2b610c0782611e36565b60066000858152602001908152602001600020600001611e8d90919063ffffffff16565b60005b8751811015610f9357600560009054906101000a900473ffffffffffffffffffffffffffffffffffffffff1673ffffffffffffffffffffffffffffffffffffffff1663f2b06537898381518110610cae577f4e487b7100000000000000000000000000000000000000000000000000000000600052603260045260246000fd5b6020026020010151898481518110610cef577f4e487b7100000000000000000000000000000000000000000000000000000000600052603260045260246000fd5b6020026020010151898581518110610d30577f4e487b7100000000000000000000000000000000000000000000000000000000600052603260045260246000fd5b602002602001015186604051602001610d4c9493929190614ad8565b604051602081830303815290604052805190602001206040518263ffffffff1660e01b8152600401610d7e9190614bac565b60206040518083038186803b158015610d9657600080fd5b505afa158015610daa573d6000803e3d6000fd5b505050506040513d601f19601f82011682018060405250810190610dce9190614005565b15610e0e576040517f08c379a0000000000000000000000000000000000000000000000000000000008152600401610e0590614dce565b60405180910390fd5b600560009054906101000a900473ffffffffffffffffffffffffffffffffffffffff1673ffffffffffffffffffffffffffffffffffffffff16633a66f901898381518110610e85577f4e487b7100000000000000000000000000000000000000000000000000000000600052603260045260246000fd5b6020026020010151898481518110610ec6577f4e487b7100000000000000000000000000000000000000000000000000000000600052603260045260246000fd5b6020026020010151898581518110610f07577f4e487b7100000000000000000000000000000000000000000000000000000000600052603260045260246000fd5b6020026020010151866040518563ffffffff1660e01b8152600401610f2f9493929190614ad8565b602060405180830381600087803b158015610f4957600080fd5b505af1158015610f5d573d6000803e3d6000fd5b505050506040513d601f19601f82011682018060405250810190610f81919061402e565b5080610f8c906156da565b9050610c2e565b507f9a2e42fd6722813d69113e7d0079d3d940171428df7373df9c7f7617cfda28928282604051610fc59291906150b9565b60405180910390a18192505050949350505050565b600080610fe986868686611ad4565b90506000610ff6826112a7565b905060046007811115611032577f4e487b7100000000000000000000000000000000000000000000000000000000600052602160045260246000fd5b81600781111561106b577f4e487b7100000000000000000000000000000000000000000000000000000000600052602160045260246000fd5b14806110e75750600560078111156110ac577f4e487b7100000000000000000000000000000000000000000000000000000000600052602160045260246000fd5b8160078111156110e5577f4e487b7100000000000000000000000000000000000000000000000000000000600052602160045260246000fd5b145b611126576040517f08c379a000000000000000000000000000000000000000000000000000000000815260040161111d90614f2e565b60405180910390fd5b600180600084815260200190815260200160002060020160006101000a81548160ff0219169083151502179055507f712ae1383f79ac853f8d882153778e0260ef8f03b504e2866e0593e04d2b291f826040516111839190614fee565b60405180910390a16111988288888888611ebc565b8192505050949350505050565b6000611202600160008481526020019081526020016000206000016040518060200160405290816000820160009054906101000a900467ffffffffffffffff1667ffffffffffffffff1667ffffffffffffffff1681525050611ed0565b67ffffffffffffffff169050919050565b6000600254905090565b60008061127e6112767f150214d74d59b7d1e90c73fc22ef3d991dd0a76b046543d4d80ab92d2a50328f898960405160200161125b93929190614c1a565b60405160208183030381529060405280519060200120611ede565b868686611ef8565b905061129b87828860405180602001604052806000815250611f23565b91505095945050505050565b60006112b2826120c3565b9050919050565b60006008600084815260200190815260200160002060030160008373ffffffffffffffffffffffffffffffffffffffff1673ffffffffffffffffffffffffffffffffffffffff16815260200190815260200160002060009054906101000a900460ff16905092915050565b60006113328585858561223a565b9050949350505050565b600080600080600860008681526020019081526020016000209050806000015481600101548260020154935093509350509193909250565b60606040518060400160405280600181526020017f3100000000000000000000000000000000000000000000000000000000000000815250905090565b6000806113bc611d99565b90506113d984828560405180602001604052806000815250611f23565b91505092915050565b6113ea61093b565b73ffffffffffffffffffffffffffffffffffffffff16611408611d99565b73ffffffffffffffffffffffffffffffffffffffff161461145e576040517f08c379a000000000000000000000000000000000000000000000000000000000815260040161145590614d0e565b60405180910390fd5b61146781612252565b50565b600080611475611d99565b90506114c786828787878080601f016020809104026020016040519081016040528093929190818152602001838380828437600081840152601f19601f82011690508083019250505050505050611f23565b915050949350505050565b60006114dc611901565b6114f2336001436114ed91906154e3565b611c23565b1015611533576040517f08c379a000000000000000000000000000000000000000000000000000000000815260040161152a90614d4e565b60405180910390fd5b60006115488686868680519060200120611ad4565b9050845186511461158e576040517f08c379a000000000000000000000000000000000000000000000000000000000815260040161158590614d8e565b60405180910390fd5b83518651146115d2576040517f08c379a00000000000000000000000000000000000000000000000000000000081526004016115c990614d8e565b60405180910390fd5b6000865111611616576040517f08c379a000000000000000000000000000000000000000000000000000000000815260040161160d90614eae565b60405180910390fd5b6000600160008381526020019081526020016000209050611676816000016040518060200160405290816000820160009054906101000a900467ffffffffffffffff1667ffffffffffffffff1667ffffffffffffffff1681525050612297565b6116b5576040517f08c379a00000000000000000000000000000000000000000000000000000000081526004016116ac90614fae565b60405180910390fd5b60006116c76116c2611213565b611e36565b6116d043611e36565b6116da919061541a565b905060006116ee6116e961095c565b611e36565b826116f9919061541a565b905061171182846000016122b190919063ffffffff16565b61172781846001016122b190919063ffffffff16565b7f7d84a6263ae0d98d3329bd7b46bb4e8d6f98cd35a7adb45c274c8b7fd5ebd5e084611751611d99565b8b8b8d5167ffffffffffffffff811115611794577f4e487b7100000000000000000000000000000000000000000000000000000000600052604160045260246000fd5b6040519080825280602002602001820160405280156117c757816020015b60608152602001906001900390816117b25790505b508c88888e6040516117e199989796959493929190615009565b60405180910390a183945050505050949350505050565b60006064905090565b6000600754905090565b61181361093b565b73ffffffffffffffffffffffffffffffffffffffff16611831611d99565b73ffffffffffffffffffffffffffffffffffffffff1614611887576040517f08c379a000000000000000000000000000000000000000000000000000000000815260040161187e90614d0e565b60405180910390fd5b611890816122e0565b50565b60006118f0600660008481526020019081526020016000206000016040518060200160405290816000820160009054906101000a900467ffffffffffffffff1667ffffffffffffffff1667ffffffffffffffff168152505061237f565b67ffffffffffffffff169050919050565b600061190b61238d565b905090565b600560009054906101000a900473ffffffffffffffffffffffffffffffffffffffff1673ffffffffffffffffffffffffffffffffffffffff16630e18b6816040518163ffffffff1660e01b8152600401600060405180830381600087803b15801561197a57600080fd5b505af115801561198e573d6000803e3d6000fd5b50505050565b60006119f1600160008481526020019081526020016000206001016040518060200160405290816000820160009054906101000a900467ffffffffffffffff1667ffffffffffffffff1667ffffffffffffffff1681525050611ed0565b67ffffffffffffffff169050919050565b611a0a61093b565b73ffffffffffffffffffffffffffffffffffffffff16611a28611d99565b73ffffffffffffffffffffffffffffffffffffffff1614611a7e576040517f08c379a0000000000000000000000000000000000000000000000000000000008152600401611a7590614d0e565b60405180910390fd5b611acd8483838080601f016020809104026020016040519081016040528093929190818152602001838380828437600081840152601f19601f8201169050808301925050505050505085612397565b5050505050565b600084848484604051602001611aed9493929190614b37565b6040516020818303038152906040528051906020012060001c9050949350505050565b6000600560009054906101000a900473ffffffffffffffffffffffffffffffffffffffff16905090565b60606040518060400160405280602081526020017f737570706f72743d627261766f2671756f72756d3d666f722c6162737461696e815250905090565b7f150214d74d59b7d1e90c73fc22ef3d991dd0a76b046543d4d80ab92d2a50328f81565b611ba361093b565b73ffffffffffffffffffffffffffffffffffffffff16611bc1611d99565b73ffffffffffffffffffffffffffffffffffffffff1614611c17576040517f08c379a0000000000000000000000000000000000000000000000000000000008152600401611c0e90614d0e565b60405180910390fd5b611c20816123c6565b50565b6000611c2f838361244e565b905092915050565b611c3f61093b565b73ffffffffffffffffffffffffffffffffffffffff16611c5d611d99565b73ffffffffffffffffffffffffffffffffffffffff1614611cb3576040517f08c379a0000000000000000000000000000000000000000000000000000000008152600401611caa90614d0e565b60405180910390fd5b611cbc81612503565b50565b6000611cca82612548565b9050919050565b7f000000000000000000000000000000000000000000000000000000000000000081565b6000600560009054906101000a900473ffffffffffffffffffffffffffffffffffffffff16905090565b60007f6e665ced000000000000000000000000000000000000000000000000000000007bffffffffffffffffffffffffffffffffffffffffffffffffffffffff1916827bffffffffffffffffffffffffffffffffffffffffffffffffffffffff19161480611d925750611d918261261e565b5b9050919050565b600033905090565b611da96117f8565b811115611deb576040517f08c379a0000000000000000000000000000000000000000000000000000000008152600401611de290614d2e565b60405180910390fd5b60006007549050816007819055507f0553476bf02ef2726e8ce5ced78d63e26e602e4a2257b1f559418e24b46339978183604051611e2a9291906150b9565b60405180910390a15050565b600067ffffffffffffffff8016821115611e85576040517f08c379a0000000000000000000000000000000000000000000000000000000008152600401611e7c90614eee565b60405180910390fd5b819050919050565b808260000160006101000a81548167ffffffffffffffff021916908367ffffffffffffffff1602179055505050565b611ec98585858585612698565b5050505050565b600081600001519050919050565b6000611ef1611eeb6128b3565b836129cd565b9050919050565b6000806000611f0987878787612a00565b91509150611f1681612b0d565b8192505050949350505050565b60008060016000878152602001908152602001600020905060016007811115611f75577f4e487b7100000000000000000000000000000000000000000000000000000000600052602160045260246000fd5b611f7e876112a7565b6007811115611fb6577f4e487b7100000000000000000000000000000000000000000000000000000000600052602160045260246000fd5b14611ff6576040517f08c379a0000000000000000000000000000000000000000000000000000000008152600401611fed90614e8e565b60405180910390fd5b600061205486612045846000016040518060200160405290816000820160009054906101000a900467ffffffffffffffff1667ffffffffffffffff1667ffffffffffffffff1681525050611ed0565b67ffffffffffffffff16611c23565b905061206287878784612e5e565b8573ffffffffffffffffffffffffffffffffffffffff167fb8e138887d0aa13bab447e82de9d5c1777041ecd21ca36ba824ff1e6c07ddda4888784886040516120ae9493929190615119565b60405180910390a28092505050949350505050565b6000806120cf836130d6565b90506004600781111561210b577f4e487b7100000000000000000000000000000000000000000000000000000000600052602160045260246000fd5b816007811115612144577f4e487b7100000000000000000000000000000000000000000000000000000000600052602160045260246000fd5b146121525780915050612235565b600061215d84611893565b90506000811415612172578192505050612235565b600560009054906101000a900473ffffffffffffffffffffffffffffffffffffffff1673ffffffffffffffffffffffffffffffffffffffff1663c1a287e26040518163ffffffff1660e01b815260040160206040518083038186803b1580156121da57600080fd5b505afa1580156121ee573d6000803e3d6000fd5b505050506040513d601f19601f820116820180604052508101906122129190614113565b8161221d91906153c4565b421061222e57600692505050612235565b6005925050505b919050565b6000612248858585856131eb565b9050949350505050565b7fc565b045403dc03c2eea82b81a0465edad9e2e7fc4d97e11421c209da93d7a93600254826040516122859291906150b9565b60405180910390a18060028190555050565b600080826000015167ffffffffffffffff16149050919050565b808260000160006101000a81548167ffffffffffffffff021916908367ffffffffffffffff1602179055505050565b7f08f74ea46ef7894f65eabfb5e6e695de773a000b47c529ab559178069b226401600560009054906101000a900473ffffffffffffffffffffffffffffffffffffffff1682604051612333929190614a86565b60405180910390a180600560006101000a81548173ffffffffffffffffffffffffffffffffffffffff021916908373ffffffffffffffffffffffffffffffffffffffff16021790555050565b600081600001519050919050565b6000600454905090565b60606123bd848484604051806060016040528060298152602001615fb5602991396133af565b90509392505050565b60008111612409576040517f08c379a000000000000000000000000000000000000000000000000000000000815260040161240090614dae565b60405180910390fd5b7f7e3f7f0708a84de9203036abaa450dccc85ad5ff52f78c170f3edb55cf5e88286003548260405161243c9291906150b9565b60405180910390a18060038190555050565b60007f000000000000000000000000000000000000000000000000000000000000000073ffffffffffffffffffffffffffffffffffffffff16633a46b1a884846040518363ffffffff1660e01b81526004016124ab929190614aaf565b60206040518083038186803b1580156124c357600080fd5b505afa1580156124d7573d6000803e3d6000fd5b505050506040513d601f19601f820116820180604052508101906124fb9190614113565b905092915050565b7fccb45da8d5717e6c4544694297c4ba5cf151d455c9bb0ed4fc7a38411bc05461600454826040516125369291906150b9565b60405180910390a18060048190555050565b60006125526117f8565b61255a611801565b7f000000000000000000000000000000000000000000000000000000000000000073ffffffffffffffffffffffffffffffffffffffff16638e539e8c856040518263ffffffff1660e01b81526004016125b39190614fee565b60206040518083038186803b1580156125cb57600080fd5b505afa1580156125df573d6000803e3d6000fd5b505050506040513d601f19601f820116820180604052508101906126039190614113565b61260d9190615489565b6126179190615458565b9050919050565b60007fbf26d897000000000000000000000000000000000000000000000000000000007bffffffffffffffffffffffffffffffffffffffffffffffffffffffff1916827bffffffffffffffffffffffffffffffffffffffffffffffffffffffff191614806126915750612690826134c3565b5b9050919050565b60006126a386611893565b9050600081116126e8576040517f08c379a00000000000000000000000000000000000000000000000000000000081526004016126df90614f4e565b60405180910390fd5b612714600560009054906101000a900473ffffffffffffffffffffffffffffffffffffffff163461352d565b60005b85518110156128aa57600560009054906101000a900473ffffffffffffffffffffffffffffffffffffffff1673ffffffffffffffffffffffffffffffffffffffff16630825f38f878381518110612797577f4e487b7100000000000000000000000000000000000000000000000000000000600052603260045260246000fd5b60200260200101518784815181106127d8577f4e487b7100000000000000000000000000000000000000000000000000000000600052603260045260246000fd5b6020026020010151878581518110612819577f4e487b7100000000000000000000000000000000000000000000000000000000600052603260045260246000fd5b6020026020010151866040518563ffffffff1660e01b81526004016128419493929190614ad8565b600060405180830381600087803b15801561285b57600080fd5b505af115801561286f573d6000803e3d6000fd5b505050506040513d6000823e3d601f19601f820116820180604052508101906128989190614080565b50806128a3906156da565b9050612717565b50505050505050565b60007f000000000000000000000000000000000000000000000000000000000000000073ffffffffffffffffffffffffffffffffffffffff163073ffffffffffffffffffffffffffffffffffffffff1614801561292f57507f000000000000000000000000000000000000000000000000000000000000000046145b1561295c577f000000000000000000000000000000000000000000000000000000000000000090506129ca565b6129c77f00000000000000000000000000000000000000000000000000000000000000007f00000000000000000000000000000000000000000000000000000000000000007f0000000000000000000000000000000000000000000000000000000000000000613621565b90505b90565b600082826040516020016129e2929190614a1f565b60405160208183030381529060405280519060200120905092915050565b6000807f7fffffffffffffffffffffffffffffff5d576e7357a4501ddfe92f46681b20a08360001c1115612a3b576000600391509150612b04565b601b8560ff1614158015612a535750601c8560ff1614155b15612a65576000600491509150612b04565b600060018787878760405160008152602001604052604051612a8a9493929190614c51565b6020604051602081039080840390855afa158015612aac573d6000803e3d6000fd5b505050602060405103519050600073ffffffffffffffffffffffffffffffffffffffff168173ffffffffffffffffffffffffffffffffffffffff161415612afb57600060019250925050612b04565b80600092509250505b94509492505050565b60006004811115612b47577f4e487b7100000000000000000000000000000000000000000000000000000000600052602160045260246000fd5b816004811115612b80577f4e487b7100000000000000000000000000000000000000000000000000000000600052602160045260246000fd5b1415612b8b57612e5b565b60016004811115612bc5577f4e487b7100000000000000000000000000000000000000000000000000000000600052602160045260246000fd5b816004811115612bfe577f4e487b7100000000000000000000000000000000000000000000000000000000600052602160045260246000fd5b1415612c3f576040517f08c379a0000000000000000000000000000000000000000000000000000000008152600401612c3690614cee565b60405180910390fd5b60026004811115612c79577f4e487b7100000000000000000000000000000000000000000000000000000000600052602160045260246000fd5b816004811115612cb2577f4e487b7100000000000000000000000000000000000000000000000000000000600052602160045260246000fd5b1415612cf3576040517f08c379a0000000000000000000000000000000000000000000000000000000008152600401612cea90614d6e565b60405180910390fd5b60036004811115612d2d577f4e487b7100000000000000000000000000000000000000000000000000000000600052602160045260246000fd5b816004811115612d66577f4e487b7100000000000000000000000000000000000000000000000000000000600052602160045260246000fd5b1415612da7576040517f08c379a0000000000000000000000000000000000000000000000000000000008152600401612d9e90614e0e565b60405180910390fd5b600480811115612de0577f4e487b7100000000000000000000000000000000000000000000000000000000600052602160045260246000fd5b816004811115612e19577f4e487b7100000000000000000000000000000000000000000000000000000000600052602160045260246000fd5b1415612e5a576040517f08c379a0000000000000000000000000000000000000000000000000000000008152600401612e5190614ece565b60405180910390fd5b5b50565b60006008600086815260200190815260200160002090508060030160008573ffffffffffffffffffffffffffffffffffffffff1673ffffffffffffffffffffffffffffffffffffffff16815260200190815260200160002060009054906101000a900460ff1615612f04576040517f08c379a0000000000000000000000000000000000000000000000000000000008152600401612efb90614e2e565b60405180910390fd5b60018160030160008673ffffffffffffffffffffffffffffffffffffffff1673ffffffffffffffffffffffffffffffffffffffff16815260200190815260200160002060006101000a81548160ff02191690831515021790555060006002811115612f98577f4e487b7100000000000000000000000000000000000000000000000000000000600052602160045260246000fd5b60ff168360ff161415612fc55781816000016000828254612fb991906153c4565b925050819055506130cf565b60016002811115612fff577f4e487b7100000000000000000000000000000000000000000000000000000000600052602160045260246000fd5b60ff168360ff16141561302c578181600101600082825461302091906153c4565b925050819055506130ce565b600280811115613065577f4e487b7100000000000000000000000000000000000000000000000000000000600052602160045260246000fd5b60ff168360ff161415613092578181600201600082825461308691906153c4565b925050819055506130cd565b6040517f08c379a00000000000000000000000000000000000000000000000000000000081526004016130c490614f8e565b60405180910390fd5b5b5b5050505050565b6000806001600084815260200190815260200160002090508060020160009054906101000a900460ff161561310f5760079150506131e6565b8060020160019054906101000a900460ff16156131305760029150506131e6565b600061313b846111a5565b90506000811415613181576040517f08c379a000000000000000000000000000000000000000000000000000000000815260040161317890614f6e565b60405180910390fd5b438110613193576000925050506131e6565b600061319e85611994565b90504381106131b357600193505050506131e6565b6131bc8561365b565b80156131cd57506131cc856136a2565b5b156131de57600493505050506131e6565b600393505050505b919050565b6000806131fa868686866136cd565b9050600061320782611893565b905060008111156133a25760005b875181101561338257600560009054906101000a900473ffffffffffffffffffffffffffffffffffffffff1673ffffffffffffffffffffffffffffffffffffffff1663591fcdfe898381518110613295577f4e487b7100000000000000000000000000000000000000000000000000000000600052603260045260246000fd5b60200260200101518984815181106132d6577f4e487b7100000000000000000000000000000000000000000000000000000000600052603260045260246000fd5b6020026020010151898581518110613317577f4e487b7100000000000000000000000000000000000000000000000000000000600052603260045260246000fd5b6020026020010151866040518563ffffffff1660e01b815260040161333f9493929190614ad8565b600060405180830381600087803b15801561335957600080fd5b505af115801561336d573d6000803e3d6000fd5b505050508061337b906156da565b9050613215565b506133a16006600084815260200190815260200160002060000161390a565b5b8192505050949350505050565b6060824710156133f4576040517f08c379a00000000000000000000000000000000000000000000000000000000081526004016133eb90614e6e565b60405180910390fd5b6133fd85613939565b61343c576040517f08c379a000000000000000000000000000000000000000000000000000000000815260040161343390614fce565b60405180910390fd5b6000808673ffffffffffffffffffffffffffffffffffffffff1685876040516134659190614a08565b60006040518083038185875af1925050503d80600081146134a2576040519150601f19603f3d011682016040523d82523d6000602084013e6134a7565b606091505b50915091506134b782828661394c565b92505050949350505050565b60007f01ffc9a7000000000000000000000000000000000000000000000000000000007bffffffffffffffffffffffffffffffffffffffffffffffffffffffff1916827bffffffffffffffffffffffffffffffffffffffffffffffffffffffff1916149050919050565b80471015613570576040517f08c379a000000000000000000000000000000000000000000000000000000000815260040161356790614e4e565b60405180910390fd5b60008273ffffffffffffffffffffffffffffffffffffffff168260405161359690614a56565b60006040518083038185875af1925050503d80600081146135d3576040519150601f19603f3d011682016040523d82523d6000602084013e6135d8565b606091505b505090508061361c576040517f08c379a000000000000000000000000000000000000000000000000000000000815260040161361390614dee565b60405180910390fd5b505050565b6000838383463060405160200161363c959493929190614bc7565b6040516020818303038152906040528051906020012090509392505050565b6000806008600084815260200190815260200160002090508060020154816001015461368791906153c4565b613698613693856111a5565b611cbf565b1115915050919050565b6000806008600084815260200190815260200160002090508060000154816001015411915050919050565b6000806136dc86868686611ad4565b905060006136e9826112a7565b905060026007811115613725577f4e487b7100000000000000000000000000000000000000000000000000000000600052602160045260246000fd5b81600781111561375e577f4e487b7100000000000000000000000000000000000000000000000000000000600052602160045260246000fd5b141580156137dd5750600660078111156137a1577f4e487b7100000000000000000000000000000000000000000000000000000000600052602160045260246000fd5b8160078111156137da577f4e487b7100000000000000000000000000000000000000000000000000000000600052602160045260246000fd5b14155b8015613859575060078081111561381d577f4e487b7100000000000000000000000000000000000000000000000000000000600052602160045260246000fd5b816007811115613856577f4e487b7100000000000000000000000000000000000000000000000000000000600052602160045260246000fd5b14155b613898576040517f08c379a000000000000000000000000000000000000000000000000000000000815260040161388f90614f0e565b60405180910390fd5b600180600084815260200190815260200160002060020160016101000a81548160ff0219169083151502179055507f789cf55be980739dad1d0699b93b58e806b51c9d96619bfa8fe0a28abaa7b30c826040516138f59190614fee565b60405180910390a18192505050949350505050565b60008160000160006101000a81548167ffffffffffffffff021916908367ffffffffffffffff16021790555050565b600080823b905060008111915050919050565b6060831561395c578290506139ac565b60008351111561396f5782518084602001fd5b816040517f08c379a00000000000000000000000000000000000000000000000000000000081526004016139a39190614ccc565b60405180910390fd5b9392505050565b60006139c66139c18461518a565b615165565b905080838252602082019050828560208602820111156139e557600080fd5b60005b85811015613a1557816139fb8882613ba2565b8452602084019350602083019250506001810190506139e8565b5050509392505050565b6000613a32613a2d846151b6565b615165565b9050808382526020820190508260005b85811015613a725781358501613a588882613cd3565b845260208401935060208301925050600181019050613a42565b5050509392505050565b6000613a8f613a8a846151e2565b615165565b90508083825260208201905082856020860282011115613aae57600080fd5b60005b85811015613ade5781613ac48882613db0565b845260208401935060208301925050600181019050613ab1565b5050509392505050565b6000613afb613af68461520e565b615165565b905082815260208101848484011115613b1357600080fd5b613b1e848285615635565b509392505050565b6000613b39613b348461520e565b615165565b905082815260208101848484011115613b5157600080fd5b613b5c848285615644565b509392505050565b6000613b77613b728461523f565b615165565b905082815260208101848484011115613b8f57600080fd5b613b9a848285615635565b509392505050565b600081359050613bb181615f13565b92915050565b600082601f830112613bc857600080fd5b8135613bd88482602086016139b3565b91505092915050565b600082601f830112613bf257600080fd5b8135613c02848260208601613a1f565b91505092915050565b600082601f830112613c1c57600080fd5b8135613c2c848260208601613a7c565b91505092915050565b600081519050613c4481615f2a565b92915050565b600081359050613c5981615f41565b92915050565b600081519050613c6e81615f41565b92915050565b600081359050613c8381615f58565b92915050565b60008083601f840112613c9b57600080fd5b8235905067ffffffffffffffff811115613cb457600080fd5b602083019150836001820283011115613ccc57600080fd5b9250929050565b600082601f830112613ce457600080fd5b8135613cf4848260208601613ae8565b91505092915050565b600082601f830112613d0e57600080fd5b8151613d1e848260208601613b26565b91505092915050565b600081359050613d3681615f6f565b92915050565b60008083601f840112613d4e57600080fd5b8235905067ffffffffffffffff811115613d6757600080fd5b602083019150836001820283011115613d7f57600080fd5b9250929050565b600082601f830112613d9757600080fd5b8135613da7848260208601613b64565b91505092915050565b600081359050613dbf81615f86565b92915050565b600081519050613dd481615f86565b92915050565b600081359050613de981615f9d565b92915050565b60008060408385031215613e0257600080fd5b6000613e1085828601613ba2565b9250506020613e2185828601613db0565b9150509250929050565b60008060008060608587031215613e4157600080fd5b6000613e4f87828801613ba2565b9450506020613e6087828801613db0565b935050604085013567ffffffffffffffff811115613e7d57600080fd5b613e8987828801613c89565b925092505092959194509250565b60008060008060808587031215613ead57600080fd5b600085013567ffffffffffffffff811115613ec757600080fd5b613ed387828801613bb7565b945050602085013567ffffffffffffffff811115613ef057600080fd5b613efc87828801613c0b565b935050604085013567ffffffffffffffff811115613f1957600080fd5b613f2587828801613be1565b9250506060613f3687828801613c4a565b91505092959194509250565b60008060008060808587031215613f5857600080fd5b600085013567ffffffffffffffff811115613f7257600080fd5b613f7e87828801613bb7565b945050602085013567ffffffffffffffff811115613f9b57600080fd5b613fa787828801613c0b565b935050604085013567ffffffffffffffff811115613fc457600080fd5b613fd087828801613be1565b925050606085013567ffffffffffffffff811115613fed57600080fd5b613ff987828801613d86565b91505092959194509250565b60006020828403121561401757600080fd5b600061402584828501613c35565b91505092915050565b60006020828403121561404057600080fd5b600061404e84828501613c5f565b91505092915050565b60006020828403121561406957600080fd5b600061407784828501613c74565b91505092915050565b60006020828403121561409257600080fd5b600082015167ffffffffffffffff8111156140ac57600080fd5b6140b884828501613cfd565b91505092915050565b6000602082840312156140d357600080fd5b60006140e184828501613d27565b91505092915050565b6000602082840312156140fc57600080fd5b600061410a84828501613db0565b91505092915050565b60006020828403121561412557600080fd5b600061413384828501613dc5565b91505092915050565b6000806040838503121561414f57600080fd5b600061415d85828601613db0565b925050602061416e85828601613ba2565b9150509250929050565b6000806040838503121561418b57600080fd5b600061419985828601613db0565b92505060206141aa85828601613dda565b9150509250929050565b600080600080606085870312156141ca57600080fd5b60006141d887828801613db0565b94505060206141e987828801613dda565b935050604085013567ffffffffffffffff81111561420657600080fd5b61421287828801613d3c565b925092505092959194509250565b600080600080600060a0868803121561423857600080fd5b600061424688828901613db0565b955050602061425788828901613dda565b945050604061426888828901613dda565b935050606061427988828901613c4a565b925050608061428a88828901613c4a565b9150509295509295909350565b60006142a383836142ef565b60208301905092915050565b60006142bb83836144e8565b905092915050565b60006142cf83836145a9565b905092915050565b60006142e383836149cc565b60208301905092915050565b6142f881615517565b82525050565b61430781615517565b82525050565b6000614318826152b0565b6143228185615326565b935061432d83615270565b8060005b8381101561435e5781516143458882614297565b9750614350836152f2565b925050600181019050614331565b5085935050505092915050565b6000614376826152bb565b6143808185615337565b93508360208202850161439285615280565b8060005b858110156143ce57848403895281516143af85826142af565b94506143ba836152ff565b925060208a01995050600181019050614396565b50829750879550505050505092915050565b60006143eb826152c6565b6143f58185615348565b93508360208202850161440785615290565b8060005b85811015614443578484038952815161442485826142c3565b945061442f8361530c565b925060208a0199505060018101905061440b565b50829750879550505050505092915050565b6000614460826152d1565b61446a8185615359565b9350614475836152a0565b8060005b838110156144a657815161448d88826142d7565b975061449883615319565b925050600181019050614479565b5085935050505092915050565b6144bc8161553b565b82525050565b6144cb81615547565b82525050565b6144e26144dd82615547565b615723565b82525050565b60006144f3826152dc565b6144fd818561536a565b935061450d818560208601615644565b61451681615818565b840191505092915050565b600061452c826152dc565b614536818561537b565b9350614546818560208601615644565b61454f81615818565b840191505092915050565b6000614565826152dc565b61456f818561538c565b935061457f818560208601615644565b80840191505092915050565b614594816155ed565b82525050565b6145a381615611565b82525050565b60006145b4826152e7565b6145be8185615397565b93506145ce818560208601615644565b6145d781615818565b840191505092915050565b60006145ed826152e7565b6145f781856153a8565b9350614607818560208601615644565b61461081615818565b840191505092915050565b60006146286018836153a8565b915061463382615829565b602082019050919050565b600061464b6018836153a8565b915061465682615852565b602082019050919050565b600061466e6043836153a8565b91506146798261587b565b606082019050919050565b60006146916043836153a8565b915061469c826158f0565b606082019050919050565b60006146b4601f836153a8565b91506146bf82615965565b602082019050919050565b60006146d76002836153b9565b91506146e28261598e565b600282019050919050565b60006146fa6021836153a8565b9150614705826159b7565b604082019050919050565b600061471d6027836153a8565b915061472882615a06565b604082019050919050565b60006147406042836153a8565b915061474b82615a55565b606082019050919050565b6000614763603a836153a8565b915061476e82615aca565b604082019050919050565b60006147866022836153a8565b915061479182615b19565b604082019050919050565b60006147a96027836153a8565b91506147b482615b68565b604082019050919050565b60006147cc601d836153a8565b91506147d782615bb7565b602082019050919050565b60006147ef6026836153a8565b91506147fa82615be0565b604082019050919050565b60006148126023836153a8565b915061481d82615c2f565b604082019050919050565b60006148356018836153a8565b915061484082615c7e565b602082019050919050565b60006148586022836153a8565b915061486382615ca7565b604082019050919050565b600061487b6026836153a8565b915061488682615cf6565b604082019050919050565b600061489e601d836153a8565b91506148a982615d45565b602082019050919050565b60006148c16021836153a8565b91506148cc82615d6e565b604082019050919050565b60006148e46031836153a8565b91506148ef82615dbd565b604082019050919050565b6000614907601d836153a8565b915061491282615e0c565b602082019050919050565b600061492a6035836153a8565b915061493582615e35565b604082019050919050565b600061494d6021836153a8565b915061495882615e84565b604082019050919050565b600061497060008361538c565b915061497b82615ed3565b600082019050919050565b60006149936000836153a8565b915061499e82615ed3565b600082019050919050565b60006149b6601d836153a8565b91506149c182615ed6565b602082019050919050565b6149d5816155c2565b82525050565b6149e4816155c2565b82525050565b6149f381615623565b82525050565b614a02816155e0565b82525050565b6000614a14828461455a565b915081905092915050565b6000614a2a826146ca565b9150614a3682856144d1565b602082019150614a4682846144d1565b6020820191508190509392505050565b6000614a6182614963565b9150819050919050565b6000602082019050614a8060008301846142fe565b92915050565b6000604082019050614a9b60008301856142fe565b614aa860208301846142fe565b9392505050565b6000604082019050614ac460008301856142fe565b614ad160208301846149db565b9392505050565b600060a082019050614aed60008301876142fe565b614afa60208301866149db565b8181036040830152614b0b81614986565b90508181036060830152614b1f8185614521565b9050614b2e60808301846149db565b95945050505050565b60006080820190508181036000830152614b51818761430d565b90508181036020830152614b658186614455565b90508181036040830152614b79818561436b565b9050614b8860608301846144c2565b95945050505050565b6000602082019050614ba660008301846144b3565b92915050565b6000602082019050614bc160008301846144c2565b92915050565b600060a082019050614bdc60008301886144c2565b614be960208301876144c2565b614bf660408301866144c2565b614c0360608301856149db565b614c1060808301846142fe565b9695505050505050565b6000606082019050614c2f60008301866144c2565b614c3c60208301856149db565b614c4960408301846149f9565b949350505050565b6000608082019050614c6660008301876144c2565b614c7360208301866149f9565b614c8060408301856144c2565b614c8d60608301846144c2565b95945050505050565b6000602082019050614cab600083018461458b565b92915050565b6000602082019050614cc6600083018461459a565b92915050565b60006020820190508181036000830152614ce681846145e2565b905092915050565b60006020820190508181036000830152614d078161461b565b9050919050565b60006020820190508181036000830152614d278161463e565b9050919050565b60006020820190508181036000830152614d4781614661565b9050919050565b60006020820190508181036000830152614d6781614684565b9050919050565b60006020820190508181036000830152614d87816146a7565b9050919050565b60006020820190508181036000830152614da7816146ed565b9050919050565b60006020820190508181036000830152614dc781614710565b9050919050565b60006020820190508181036000830152614de781614733565b9050919050565b60006020820190508181036000830152614e0781614756565b9050919050565b60006020820190508181036000830152614e2781614779565b9050919050565b60006020820190508181036000830152614e478161479c565b9050919050565b60006020820190508181036000830152614e67816147bf565b9050919050565b60006020820190508181036000830152614e87816147e2565b9050919050565b60006020820190508181036000830152614ea781614805565b9050919050565b60006020820190508181036000830152614ec781614828565b9050919050565b60006020820190508181036000830152614ee78161484b565b9050919050565b60006020820190508181036000830152614f078161486e565b9050919050565b60006020820190508181036000830152614f2781614891565b9050919050565b60006020820190508181036000830152614f47816148b4565b9050919050565b60006020820190508181036000830152614f67816148d7565b9050919050565b60006020820190508181036000830152614f87816148fa565b9050919050565b60006020820190508181036000830152614fa78161491d565b9050919050565b60006020820190508181036000830152614fc781614940565b9050919050565b60006020820190508181036000830152614fe7816149a9565b9050919050565b600060208201905061500360008301846149db565b92915050565b60006101208201905061501f600083018c6149db565b61502c602083018b6142fe565b818103604083015261503e818a61430d565b905081810360608301526150528189614455565b9050818103608083015261506681886143e0565b905081810360a083015261507a818761436b565b905061508960c08301866149ea565b61509660e08301856149ea565b8181036101008301526150a981846145e2565b90509a9950505050505050505050565b60006040820190506150ce60008301856149db565b6150db60208301846149db565b9392505050565b60006060820190506150f760008301866149db565b61510460208301856149db565b61511160408301846149db565b949350505050565b600060808201905061512e60008301876149db565b61513b60208301866149f9565b61514860408301856149db565b818103606083015261515a81846145e2565b905095945050505050565b600061516f615180565b905061517b82826156a9565b919050565b6000604051905090565b600067ffffffffffffffff8211156151a5576151a46157e9565b5b602082029050602081019050919050565b600067ffffffffffffffff8211156151d1576151d06157e9565b5b602082029050602081019050919050565b600067ffffffffffffffff8211156151fd576151fc6157e9565b5b602082029050602081019050919050565b600067ffffffffffffffff821115615229576152286157e9565b5b61523282615818565b9050602081019050919050565b600067ffffffffffffffff82111561525a576152596157e9565b5b61526382615818565b9050602081019050919050565b6000819050602082019050919050565b6000819050602082019050919050565b6000819050602082019050919050565b6000819050602082019050919050565b600081519050919050565b600081519050919050565b600081519050919050565b600081519050919050565b600081519050919050565b600081519050919050565b6000602082019050919050565b6000602082019050919050565b6000602082019050919050565b6000602082019050919050565b600082825260208201905092915050565b600082825260208201905092915050565b600082825260208201905092915050565b600082825260208201905092915050565b600082825260208201905092915050565b600082825260208201905092915050565b600081905092915050565b600082825260208201905092915050565b600082825260208201905092915050565b600081905092915050565b60006153cf826155c2565b91506153da836155c2565b9250827fffffffffffffffffffffffffffffffffffffffffffffffffffffffffffffffff0382111561540f5761540e61572d565b5b828201905092915050565b6000615425826155cc565b9150615430836155cc565b92508267ffffffffffffffff0382111561544d5761544c61572d565b5b828201905092915050565b6000615463826155c2565b915061546e836155c2565b92508261547e5761547d61575c565b5b828204905092915050565b6000615494826155c2565b915061549f836155c2565b9250817fffffffffffffffffffffffffffffffffffffffffffffffffffffffffffffffff04831182151516156154d8576154d761572d565b5b828202905092915050565b60006154ee826155c2565b91506154f9836155c2565b92508282101561550c5761550b61572d565b5b828203905092915050565b6000615522826155a2565b9050919050565b6000615534826155a2565b9050919050565b60008115159050919050565b6000819050919050565b60007fffffffff0000000000000000000000000000000000000000000000000000000082169050919050565b600061558882615529565b9050919050565b600081905061559d82615eff565b919050565b600073ffffffffffffffffffffffffffffffffffffffff82169050919050565b6000819050919050565b600067ffffffffffffffff82169050919050565b600060ff82169050919050565b60006155f8826155ff565b9050919050565b600061560a826155a2565b9050919050565b600061561c8261558f565b9050919050565b600061562e826155cc565b9050919050565b82818337600083830152505050565b60005b83811015615662578082015181840152602081019050615647565b83811115615671576000848401525b50505050565b6000600282049050600182168061568f57607f821691505b602082108114156156a3576156a26157ba565b5b50919050565b6156b282615818565b810181811067ffffffffffffffff821117156156d1576156d06157e9565b5b80604052505050565b60006156e5826155c2565b91507fffffffffffffffffffffffffffffffffffffffffffffffffffffffffffffffff8214156157185761571761572d565b5b600182019050919050565b6000819050919050565b7f4e487b7100000000000000000000000000000000000000000000000000000000600052601160045260246000fd5b7f4e487b7100000000000000000000000000000000000000000000000000000000600052601260045260246000fd5b7f4e487b7100000000000000000000000000000000000000000000000000000000600052602160045260246000fd5b7f4e487b7100000000000000000000000000000000000000000000000000000000600052602260045260246000fd5b7f4e487b7100000000000000000000000000000000000000000000000000000000600052604160045260246000fd5b6000601f19601f8301169050919050565b7f45434453413a20696e76616c6964207369676e61747572650000000000000000600082015250565b7f476f7665726e6f723a206f6e6c79476f7665726e616e63650000000000000000600082015250565b7f476f7665726e6f72566f74657351756f72756d4672616374696f6e3a2071756f60008201527f72756d4e756d657261746f72206f7665722071756f72756d44656e6f6d696e6160208201527f746f720000000000000000000000000000000000000000000000000000000000604082015250565b7f476f7665726e6f72436f6d7061746962696c697479427261766f3a2070726f7060008201527f6f73657220766f7465732062656c6f772070726f706f73616c2074687265736860208201527f6f6c640000000000000000000000000000000000000000000000000000000000604082015250565b7f45434453413a20696e76616c6964207369676e6174757265206c656e67746800600082015250565b7f1901000000000000000000000000000000000000000000000000000000000000600082015250565b7f476f7665726e6f723a20696e76616c69642070726f706f73616c206c656e677460008201527f6800000000000000000000000000000000000000000000000000000000000000602082015250565b7f476f7665726e6f7253657474696e67733a20766f74696e6720706572696f642060008201527f746f6f206c6f7700000000000000000000000000000000000000000000000000602082015250565b7f476f7665726e6f7254696d656c6f636b436f6d706f756e643a206964656e746960008201527f63616c2070726f706f73616c20616374696f6e20616c7265616479207175657560208201527f6564000000000000000000000000000000000000000000000000000000000000604082015250565b7f416464726573733a20756e61626c6520746f2073656e642076616c75652c207260008201527f6563697069656e74206d61792068617665207265766572746564000000000000602082015250565b7f45434453413a20696e76616c6964207369676e6174757265202773272076616c60008201527f7565000000000000000000000000000000000000000000000000000000000000602082015250565b7f476f7665726e6f72566f74696e6753696d706c653a20766f746520616c72656160008201527f6479206361737400000000000000000000000000000000000000000000000000602082015250565b7f416464726573733a20696e73756666696369656e742062616c616e6365000000600082015250565b7f416464726573733a20696e73756666696369656e742062616c616e636520666f60008201527f722063616c6c0000000000000000000000000000000000000000000000000000602082015250565b7f476f7665726e6f723a20766f7465206e6f742063757272656e746c792061637460008201527f6976650000000000000000000000000000000000000000000000000000000000602082015250565b7f476f7665726e6f723a20656d7074792070726f706f73616c0000000000000000600082015250565b7f45434453413a20696e76616c6964207369676e6174757265202776272076616c60008201527f7565000000000000000000000000000000000000000000000000000000000000602082015250565b7f53616665436173743a2076616c756520646f65736e27742066697420696e203660008201527f3420626974730000000000000000000000000000000000000000000000000000602082015250565b7f476f7665726e6f723a2070726f706f73616c206e6f7420616374697665000000600082015250565b7f476f7665726e6f723a2070726f706f73616c206e6f742073756363657373667560008201527f6c00000000000000000000000000000000000000000000000000000000000000602082015250565b7f476f7665726e6f7254696d656c6f636b436f6d706f756e643a2070726f706f7360008201527f616c206e6f742079657420717565756564000000000000000000000000000000602082015250565b7f476f7665726e6f723a20756e6b6e6f776e2070726f706f73616c206964000000600082015250565b7f476f7665726e6f72566f74696e6753696d706c653a20696e76616c696420766160008201527f6c756520666f7220656e756d20566f7465547970650000000000000000000000602082015250565b7f476f7665726e6f723a2070726f706f73616c20616c726561647920657869737460008201527f7300000000000000000000000000000000000000000000000000000000000000602082015250565b50565b7f416464726573733a2063616c6c20746f206e6f6e2d636f6e7472616374000000600082015250565b60088110615f1057615f0f61578b565b5b50565b615f1c81615517565b8114615f2757600080fd5b50565b615f338161553b565b8114615f3e57600080fd5b50565b615f4a81615547565b8114615f5557600080fd5b50565b615f6181615551565b8114615f6c57600080fd5b50565b615f788161557d565b8114615f8357600080fd5b50565b615f8f816155c2565b8114615f9a57600080fd5b50565b615fa6816155e0565b8114615fb157600080fd5b5056fe416464726573733a206c6f772d6c6576656c2063616c6c20776974682076616c7565206661696c6564a2646970667358221220ee157976fb0cbd3c03f0856aab87c39458537f204656a5d9658b830323b64cfa64736f6c63430008020033",
  "linkReferences": {},
  "deployedLinkReferences": {}
}