{
  "_format": "hh-sol-artifact-1",
  "contractName": "ERC20VotesCompMock",
  "sourceName": "contracts/OZ/mocks/ERC20VotesCompMock.sol",
  "abi": [
    {
      "inputs": [
        {
          "internalType": "string",
          "name": "name",
          "type": "string"
        },
        {
          "internalType": "string",
          "name": "symbol",
          "type": "string"
        }
      ],
      "stateMutability": "nonpayable",
      "type": "constructor"
    },
    {
      "anonymous": false,
      "inputs": [
        {
          "indexed": true,
          "internalType": "address",
          "name": "owner",
          "type": "address"
        },
        {
          "indexed": true,
          "internalType": "address",
          "name": "spender",
          "type": "address"
        },
        {
          "indexed": false,
          "internalType": "uint256",
          "name": "value",
          "type": "uint256"
        }
      ],
      "name": "Approval",
      "type": "event"
    },
    {
      "anonymous": false,
      "inputs": [
        {
          "indexed": true,
          "internalType": "address",
          "name": "delegator",
          "type": "address"
        },
        {
          "indexed": true,
          "internalType": "address",
          "name": "fromDelegate",
          "type": "address"
        },
        {
          "indexed": true,
          "internalType": "address",
          "name": "toDelegate",
          "type": "address"
        }
      ],
      "name": "DelegateChanged",
      "type": "event"
    },
    {
      "anonymous": false,
      "inputs": [
        {
          "indexed": true,
          "internalType": "address",
          "name": "delegate",
          "type": "address"
        },
        {
          "indexed": false,
          "internalType": "uint256",
          "name": "previousBalance",
          "type": "uint256"
        },
        {
          "indexed": false,
          "internalType": "uint256",
          "name": "newBalance",
          "type": "uint256"
        }
      ],
      "name": "DelegateVotesChanged",
      "type": "event"
    },
    {
      "anonymous": false,
      "inputs": [
        {
          "indexed": true,
          "internalType": "address",
          "name": "from",
          "type": "address"
        },
        {
          "indexed": true,
          "internalType": "address",
          "name": "to",
          "type": "address"
        },
        {
          "indexed": false,
          "internalType": "uint256",
          "name": "value",
          "type": "uint256"
        }
      ],
      "name": "Transfer",
      "type": "event"
    },
    {
      "inputs": [],
      "name": "DOMAIN_SEPARATOR",
      "outputs": [
        {
          "internalType": "bytes32",
          "name": "",
          "type": "bytes32"
        }
      ],
      "stateMutability": "view",
      "type": "function"
    },
    {
      "inputs": [
        {
          "internalType": "address",
          "name": "owner",
          "type": "address"
        },
        {
          "internalType": "address",
          "name": "spender",
          "type": "address"
        }
      ],
      "name": "allowance",
      "outputs": [
        {
          "internalType": "uint256",
          "name": "",
          "type": "uint256"
        }
      ],
      "stateMutability": "view",
      "type": "function"
    },
    {
      "inputs": [
        {
          "internalType": "address",
          "name": "spender",
          "type": "address"
        },
        {
          "internalType": "uint256",
          "name": "amount",
          "type": "uint256"
        }
      ],
      "name": "approve",
      "outputs": [
        {
          "internalType": "bool",
          "name": "",
          "type": "bool"
        }
      ],
      "stateMutability": "nonpayable",
      "type": "function"
    },
    {
      "inputs": [
        {
          "internalType": "address",
          "name": "account",
          "type": "address"
        }
      ],
      "name": "balanceOf",
      "outputs": [
        {
          "internalType": "uint256",
          "name": "",
          "type": "uint256"
        }
      ],
      "stateMutability": "view",
      "type": "function"
    },
    {
      "inputs": [
        {
          "internalType": "address",
          "name": "account",
          "type": "address"
        },
        {
          "internalType": "uint256",
          "name": "amount",
          "type": "uint256"
        }
      ],
      "name": "burn",
      "outputs": [],
      "stateMutability": "nonpayable",
      "type": "function"
    },
    {
      "inputs": [
        {
          "internalType": "address",
          "name": "account",
          "type": "address"
        },
        {
          "internalType": "uint32",
          "name": "pos",
          "type": "uint32"
        }
      ],
      "name": "checkpoints",
      "outputs": [
        {
          "components": [
            {
              "internalType": "uint32",
              "name": "fromBlock",
              "type": "uint32"
            },
            {
              "internalType": "uint224",
              "name": "votes",
              "type": "uint224"
            }
          ],
          "internalType": "struct ERC20Votes.Checkpoint",
          "name": "",
          "type": "tuple"
        }
      ],
      "stateMutability": "view",
      "type": "function"
    },
    {
      "inputs": [],
      "name": "decimals",
      "outputs": [
        {
          "internalType": "uint8",
          "name": "",
          "type": "uint8"
        }
      ],
      "stateMutability": "view",
      "type": "function"
    },
    {
      "inputs": [
        {
          "internalType": "address",
          "name": "spender",
          "type": "address"
        },
        {
          "internalType": "uint256",
          "name": "subtractedValue",
          "type": "uint256"
        }
      ],
      "name": "decreaseAllowance",
      "outputs": [
        {
          "internalType": "bool",
          "name": "",
          "type": "bool"
        }
      ],
      "stateMutability": "nonpayable",
      "type": "function"
    },
    {
      "inputs": [
        {
          "internalType": "address",
          "name": "delegatee",
          "type": "address"
        }
      ],
      "name": "delegate",
      "outputs": [],
      "stateMutability": "nonpayable",
      "type": "function"
    },
    {
      "inputs": [
        {
          "internalType": "address",
          "name": "delegatee",
          "type": "address"
        },
        {
          "internalType": "uint256",
          "name": "nonce",
          "type": "uint256"
        },
        {
          "internalType": "uint256",
          "name": "expiry",
          "type": "uint256"
        },
        {
          "internalType": "uint8",
          "name": "v",
          "type": "uint8"
        },
        {
          "internalType": "bytes32",
          "name": "r",
          "type": "bytes32"
        },
        {
          "internalType": "bytes32",
          "name": "s",
          "type": "bytes32"
        }
      ],
      "name": "delegateBySig",
      "outputs": [],
      "stateMutability": "nonpayable",
      "type": "function"
    },
    {
      "inputs": [
        {
          "internalType": "address",
          "name": "account",
          "type": "address"
        }
      ],
      "name": "delegates",
      "outputs": [
        {
          "internalType": "address",
          "name": "",
          "type": "address"
        }
      ],
      "stateMutability": "view",
      "type": "function"
    },
    {
      "inputs": [],
      "name": "getChainId",
      "outputs": [
        {
          "internalType": "uint256",
          "name": "",
          "type": "uint256"
        }
      ],
      "stateMutability": "view",
      "type": "function"
    },
    {
      "inputs": [
        {
          "internalType": "address",
          "name": "account",
          "type": "address"
        }
      ],
      "name": "getCurrentVotes",
      "outputs": [
        {
          "internalType": "uint96",
          "name": "",
          "type": "uint96"
        }
      ],
      "stateMutability": "view",
      "type": "function"
    },
    {
      "inputs": [
        {
          "internalType": "uint256",
          "name": "blockNumber",
          "type": "uint256"
        }
      ],
      "name": "getPastTotalSupply",
      "outputs": [
        {
          "internalType": "uint256",
          "name": "",
          "type": "uint256"
        }
      ],
      "stateMutability": "view",
      "type": "function"
    },
    {
      "inputs": [
        {
          "internalType": "address",
          "name": "account",
          "type": "address"
        },
        {
          "internalType": "uint256",
          "name": "blockNumber",
          "type": "uint256"
        }
      ],
      "name": "getPastVotes",
      "outputs": [
        {
          "internalType": "uint256",
          "name": "",
          "type": "uint256"
        }
      ],
      "stateMutability": "view",
      "type": "function"
    },
    {
      "inputs": [
        {
          "internalType": "address",
          "name": "account",
          "type": "address"
        },
        {
          "internalType": "uint256",
          "name": "blockNumber",
          "type": "uint256"
        }
      ],
      "name": "getPriorVotes",
      "outputs": [
        {
          "internalType": "uint96",
          "name": "",
          "type": "uint96"
        }
      ],
      "stateMutability": "view",
      "type": "function"
    },
    {
      "inputs": [
        {
          "internalType": "address",
          "name": "account",
          "type": "address"
        }
      ],
      "name": "getVotes",
      "outputs": [
        {
          "internalType": "uint256",
          "name": "",
          "type": "uint256"
        }
      ],
      "stateMutability": "view",
      "type": "function"
    },
    {
      "inputs": [
        {
          "internalType": "address",
          "name": "spender",
          "type": "address"
        },
        {
          "internalType": "uint256",
          "name": "addedValue",
          "type": "uint256"
        }
      ],
      "name": "increaseAllowance",
      "outputs": [
        {
          "internalType": "bool",
          "name": "",
          "type": "bool"
        }
      ],
      "stateMutability": "nonpayable",
      "type": "function"
    },
    {
      "inputs": [
        {
          "internalType": "address",
          "name": "account",
          "type": "address"
        },
        {
          "internalType": "uint256",
          "name": "amount",
          "type": "uint256"
        }
      ],
      "name": "mint",
      "outputs": [],
      "stateMutability": "nonpayable",
      "type": "function"
    },
    {
      "inputs": [],
      "name": "name",
      "outputs": [
        {
          "internalType": "string",
          "name": "",
          "type": "string"
        }
      ],
      "stateMutability": "view",
      "type": "function"
    },
    {
      "inputs": [
        {
          "internalType": "address",
          "name": "owner",
          "type": "address"
        }
      ],
      "name": "nonces",
      "outputs": [
        {
          "internalType": "uint256",
          "name": "",
          "type": "uint256"
        }
      ],
      "stateMutability": "view",
      "type": "function"
    },
    {
      "inputs": [
        {
          "internalType": "address",
          "name": "account",
          "type": "address"
        }
      ],
      "name": "numCheckpoints",
      "outputs": [
        {
          "internalType": "uint32",
          "name": "",
          "type": "uint32"
        }
      ],
      "stateMutability": "view",
      "type": "function"
    },
    {
      "inputs": [
        {
          "internalType": "address",
          "name": "owner",
          "type": "address"
        },
        {
          "internalType": "address",
          "name": "spender",
          "type": "address"
        },
        {
          "internalType": "uint256",
          "name": "value",
          "type": "uint256"
        },
        {
          "internalType": "uint256",
          "name": "deadline",
          "type": "uint256"
        },
        {
          "internalType": "uint8",
          "name": "v",
          "type": "uint8"
        },
        {
          "internalType": "bytes32",
          "name": "r",
          "type": "bytes32"
        },
        {
          "internalType": "bytes32",
          "name": "s",
          "type": "bytes32"
        }
      ],
      "name": "permit",
      "outputs": [],
      "stateMutability": "nonpayable",
      "type": "function"
    },
    {
      "inputs": [],
      "name": "symbol",
      "outputs": [
        {
          "internalType": "string",
          "name": "",
          "type": "string"
        }
      ],
      "stateMutability": "view",
      "type": "function"
    },
    {
      "inputs": [],
      "name": "totalSupply",
      "outputs": [
        {
          "internalType": "uint256",
          "name": "",
          "type": "uint256"
        }
      ],
      "stateMutability": "view",
      "type": "function"
    },
    {
      "inputs": [
        {
          "internalType": "address",
          "name": "recipient",
          "type": "address"
        },
        {
          "internalType": "uint256",
          "name": "amount",
          "type": "uint256"
        }
      ],
      "name": "transfer",
      "outputs": [
        {
          "internalType": "bool",
          "name": "",
          "type": "bool"
        }
      ],
      "stateMutability": "nonpayable",
      "type": "function"
    },
    {
      "inputs": [
        {
          "internalType": "address",
          "name": "sender",
          "type": "address"
        },
        {
          "internalType": "address",
          "name": "recipient",
          "type": "address"
        },
        {
          "internalType": "uint256",
          "name": "amount",
          "type": "uint256"
        }
      ],
      "name": "transferFrom",
      "outputs": [
        {
          "internalType": "bool",
          "name": "",
          "type": "bool"
        }
      ],
      "stateMutability": "nonpayable",
      "type": "function"
    }
  ],
  "bytecode": "0x6101606040527f6e71edae12b1b97f4d1f60370fef10105fa2faae0126114a169c64845d6126c9610140908152503480156200003a57600080fd5b5060405162004618380380620046188339818101604052810190620000609190620002ea565b81806040518060400160405280600181526020017f310000000000000000000000000000000000000000000000000000000000000081525084848160039080519060200190620000b2929190620001c8565b508060049080519060200190620000cb929190620001c8565b50505060008280519060200120905060008280519060200120905060007f8b73c3c69bb8fe3d512ecc4cf759cc79239f7b179b0ffacaa9a75d522b39400f90508260e081815250508161010081815250504660a08181525050620001378184846200018c60201b60201c565b608081815250503073ffffffffffffffffffffffffffffffffffffffff1660c08173ffffffffffffffffffffffffffffffffffffffff1660601b815250508061012081815250505050505050505050620005a5565b60008383834630604051602001620001a995949392919062000390565b6040516020818303038152906040528051906020012090509392505050565b828054620001d690620004ca565b90600052602060002090601f016020900481019282620001fa576000855562000246565b82601f106200021557805160ff191683800117855562000246565b8280016001018555821562000246579182015b828111156200024557825182559160200191906001019062000228565b5b50905062000255919062000259565b5090565b5b80821115620002745760008160009055506001016200025a565b5090565b60006200028f620002898462000416565b620003ed565b905082815260208101848484011115620002a857600080fd5b620002b584828562000494565b509392505050565b600082601f830112620002cf57600080fd5b8151620002e184826020860162000278565b91505092915050565b60008060408385031215620002fe57600080fd5b600083015167ffffffffffffffff8111156200031957600080fd5b6200032785828601620002bd565b925050602083015167ffffffffffffffff8111156200034557600080fd5b6200035385828601620002bd565b9150509250929050565b62000368816200044c565b82525050565b620003798162000460565b82525050565b6200038a816200048a565b82525050565b600060a082019050620003a760008301886200036e565b620003b660208301876200036e565b620003c560408301866200036e565b620003d460608301856200037f565b620003e360808301846200035d565b9695505050505050565b6000620003f96200040c565b905062000407828262000500565b919050565b6000604051905090565b600067ffffffffffffffff82111562000434576200043362000565565b5b6200043f8262000594565b9050602081019050919050565b600062000459826200046a565b9050919050565b6000819050919050565b600073ffffffffffffffffffffffffffffffffffffffff82169050919050565b6000819050919050565b60005b83811015620004b457808201518184015260208101905062000497565b83811115620004c4576000848401525b50505050565b60006002820490506001821680620004e357607f821691505b60208210811415620004fa57620004f962000536565b5b50919050565b6200050b8262000594565b810181811067ffffffffffffffff821117156200052d576200052c62000565565b5b80604052505050565b7f4e487b7100000000000000000000000000000000000000000000000000000000600052602260045260246000fd5b7f4e487b7100000000000000000000000000000000000000000000000000000000600052604160045260246000fd5b6000601f19601f8301169050919050565b60805160a05160c05160601c60e051610100516101205161014051614015620006036000396000610f2e015260006116e80152600061172a015260006117090152600061163e01526000611694015260006116bd01526140156000f3fe608060405234801561001057600080fd5b50600436106101a95760003560e01c806370a08231116100f9578063a457c2d711610097578063c3cda52011610071578063c3cda52014610556578063d505accf14610572578063dd62ed3e1461058e578063f1127ed8146105be576101a9565b8063a457c2d7146104c6578063a9059cbb146104f6578063b4b5ea5714610526576101a9565b80638e539e8c116100d35780638e539e8c1461042c57806395d89b411461045c5780639ab24eb01461047a5780639dc29fac146104aa576101a9565b806370a082311461039c578063782d6fe1146103cc5780637ecebe00146103fc576101a9565b80633644e5151161016657806340c10f191161014057806340c10f1914610304578063587cde1e146103205780635c19a95c146103505780636fcfff451461036c576101a9565b80633644e5151461028657806339509351146102a45780633a46b1a8146102d4576101a9565b806306fdde03146101ae578063095ea7b3146101cc57806318160ddd146101fc57806323b872dd1461021a578063313ce5671461024a5780633408e47014610268575b600080fd5b6101b66105ee565b6040516101c3919061330a565b60405180910390f35b6101e660048036038101906101e19190612bcc565b610680565b6040516101f39190613196565b60405180910390f35b61020461069e565b6040516102119190613627565b60405180910390f35b610234600480360381019061022f9190612adf565b6106a8565b6040516102419190613196565b60405180910390f35b6102526107a0565b60405161025f9190613686565b60405180910390f35b6102706107a9565b60405161027d9190613627565b60405180910390f35b61028e6107b1565b60405161029b91906131b1565b60405180910390f35b6102be60048036038101906102b99190612bcc565b6107c0565b6040516102cb9190613196565b60405180910390f35b6102ee60048036038101906102e99190612bcc565b61086c565b6040516102fb9190613627565b60405180910390f35b61031e60048036038101906103199190612bcc565b610900565b005b61033a60048036038101906103359190612a7a565b61090e565b604051610347919061317b565b60405180910390f35b61036a60048036038101906103659190612a7a565b610977565b005b61038660048036038101906103819190612a7a565b61098b565b604051610393919061366b565b60405180910390f35b6103b660048036038101906103b19190612a7a565b6109df565b6040516103c39190613627565b60405180910390f35b6103e660048036038101906103e19190612bcc565b610a27565b6040516103f391906136a1565b60405180910390f35b61041660048036038101906104119190612a7a565b610a43565b6040516104239190613627565b60405180910390f35b61044660048036038101906104419190612ccd565b610a93565b6040516104539190613627565b60405180910390f35b610464610ae9565b604051610471919061330a565b60405180910390f35b610494600480360381019061048f9190612a7a565b610b7b565b6040516104a19190613627565b60405180910390f35b6104c460048036038101906104bf9190612bcc565b610cb2565b005b6104e060048036038101906104db9190612bcc565b610cc0565b6040516104ed9190613196565b60405180910390f35b610510600480360381019061050b9190612bcc565b610dab565b60405161051d9190613196565b60405180910390f35b610540600480360381019061053b9190612a7a565b610dc9565b60405161054d91906136a1565b60405180910390f35b610570600480360381019061056b9190612c08565b610de3565b005b61058c60048036038101906105879190612b2e565b610ee7565b005b6105a860048036038101906105a39190612aa3565b611029565b6040516105b59190613627565b60405180910390f35b6105d860048036038101906105d39190612c91565b6110b0565b6040516105e5919061360c565b60405180910390f35b6060600380546105fd90613880565b80601f016020809104026020016040519081016040528092919081815260200182805461062990613880565b80156106765780601f1061064b57610100808354040283529160200191610676565b820191906000526020600020905b81548152906001019060200180831161065957829003601f168201915b5050505050905090565b600061069461068d6111e6565b84846111ee565b6001905092915050565b6000600254905090565b60006106b58484846113b9565b6000600160008673ffffffffffffffffffffffffffffffffffffffff1673ffffffffffffffffffffffffffffffffffffffff16815260200190815260200160002060006107006111e6565b73ffffffffffffffffffffffffffffffffffffffff1673ffffffffffffffffffffffffffffffffffffffff16815260200190815260200160002054905082811015610780576040517f08c379a0000000000000000000000000000000000000000000000000000000008152600401610777906134ec565b60405180910390fd5b6107948561078c6111e6565b8584036111ee565b60019150509392505050565b60006012905090565b600046905090565b60006107bb61163a565b905090565b60006108626107cd6111e6565b8484600160006107db6111e6565b73ffffffffffffffffffffffffffffffffffffffff1673ffffffffffffffffffffffffffffffffffffffff16815260200190815260200160002060008873ffffffffffffffffffffffffffffffffffffffff1673ffffffffffffffffffffffffffffffffffffffff1681526020019081526020016000205461085d91906136e3565b6111ee565b6001905092915050565b60004382106108b0576040517f08c379a00000000000000000000000000000000000000000000000000000000081526004016108a79061338c565b60405180910390fd5b6108f8600760008573ffffffffffffffffffffffffffffffffffffffff1673ffffffffffffffffffffffffffffffffffffffff16815260200190815260200160002083611754565b905092915050565b61090a82826118ac565b5050565b6000600660008373ffffffffffffffffffffffffffffffffffffffff1673ffffffffffffffffffffffffffffffffffffffff16815260200190815260200160002060009054906101000a900473ffffffffffffffffffffffffffffffffffffffff169050919050565b6109886109826111e6565b82611939565b50565b60006109d8600760008473ffffffffffffffffffffffffffffffffffffffff1673ffffffffffffffffffffffffffffffffffffffff16815260200190815260200160002080549050611a53565b9050919050565b60008060008373ffffffffffffffffffffffffffffffffffffffff1673ffffffffffffffffffffffffffffffffffffffff168152602001908152602001600020549050919050565b6000610a3b610a36848461086c565b611aa6565b905092915050565b6000610a8c600560008473ffffffffffffffffffffffffffffffffffffffff1673ffffffffffffffffffffffffffffffffffffffff168152602001908152602001600020611b01565b9050919050565b6000438210610ad7576040517f08c379a0000000000000000000000000000000000000000000000000000000008152600401610ace9061338c565b60405180910390fd5b610ae2600883611754565b9050919050565b606060048054610af890613880565b80601f0160208091040260200160405190810160405280929190818152602001828054610b2490613880565b8015610b715780601f10610b4657610100808354040283529160200191610b71565b820191906000526020600020905b815481529060010190602001808311610b5457829003601f168201915b5050505050905090565b600080600760008473ffffffffffffffffffffffffffffffffffffffff1673ffffffffffffffffffffffffffffffffffffffff16815260200190815260200160002080549050905060008114610c8957600760008473ffffffffffffffffffffffffffffffffffffffff1673ffffffffffffffffffffffffffffffffffffffff168152602001908152602001600020600182610c17919061376a565b81548110610c4e577f4e487b7100000000000000000000000000000000000000000000000000000000600052603260045260246000fd5b9060005260206000200160000160049054906101000a90047bffffffffffffffffffffffffffffffffffffffffffffffffffffffff16610c8c565b60005b7bffffffffffffffffffffffffffffffffffffffffffffffffffffffff16915050919050565b610cbc8282611b0f565b5050565b60008060016000610ccf6111e6565b73ffffffffffffffffffffffffffffffffffffffff1673ffffffffffffffffffffffffffffffffffffffff16815260200190815260200160002060008573ffffffffffffffffffffffffffffffffffffffff1673ffffffffffffffffffffffffffffffffffffffff16815260200190815260200160002054905082811015610d8c576040517f08c379a0000000000000000000000000000000000000000000000000000000008152600401610d83906135cc565b60405180910390fd5b610da0610d976111e6565b858584036111ee565b600191505092915050565b6000610dbf610db86111e6565b84846113b9565b6001905092915050565b6000610ddc610dd783610b7b565b611aa6565b9050919050565b83421115610e26576040517f08c379a0000000000000000000000000000000000000000000000000000000008152600401610e1d906133ac565b60405180910390fd5b6000610e88610e807fe48329057bfd03d55e49b547132e39cffd9c1820ad7b9d4c5307691425d15adf898989604051602001610e65949392919061322d565b60405160208183030381529060405280519060200120611b2d565b858585611b47565b9050610e9381611b72565b8614610ed4576040517f08c379a0000000000000000000000000000000000000000000000000000000008152600401610ecb9061340c565b60405180910390fd5b610ede8188611939565b50505050505050565b83421115610f2a576040517f08c379a0000000000000000000000000000000000000000000000000000000008152600401610f219061344c565b60405180910390fd5b60007f0000000000000000000000000000000000000000000000000000000000000000888888610f598c611b72565b89604051602001610f6f969594939291906131cc565b6040516020818303038152906040528051906020012090506000610f9282611b2d565b90506000610fa282878787611b47565b90508973ffffffffffffffffffffffffffffffffffffffff168173ffffffffffffffffffffffffffffffffffffffff1614611012576040517f08c379a0000000000000000000000000000000000000000000000000000000008152600401611009906134cc565b60405180910390fd5b61101d8a8a8a6111ee565b50505050505050505050565b6000600160008473ffffffffffffffffffffffffffffffffffffffff1673ffffffffffffffffffffffffffffffffffffffff16815260200190815260200160002060008373ffffffffffffffffffffffffffffffffffffffff1673ffffffffffffffffffffffffffffffffffffffff16815260200190815260200160002054905092915050565b6110b86129d3565b600760008473ffffffffffffffffffffffffffffffffffffffff1673ffffffffffffffffffffffffffffffffffffffff1681526020019081526020016000208263ffffffff1681548110611135577f4e487b7100000000000000000000000000000000000000000000000000000000600052603260045260246000fd5b906000526020600020016040518060400160405290816000820160009054906101000a900463ffffffff1663ffffffff1663ffffffff1681526020016000820160049054906101000a90047bffffffffffffffffffffffffffffffffffffffffffffffffffffffff167bffffffffffffffffffffffffffffffffffffffffffffffffffffffff167bffffffffffffffffffffffffffffffffffffffffffffffffffffffff1681525050905092915050565b600033905090565b600073ffffffffffffffffffffffffffffffffffffffff168373ffffffffffffffffffffffffffffffffffffffff16141561125e576040517f08c379a0000000000000000000000000000000000000000000000000000000008152600401611255906135ac565b60405180910390fd5b600073ffffffffffffffffffffffffffffffffffffffff168273ffffffffffffffffffffffffffffffffffffffff1614156112ce576040517f08c379a00000000000000000000000000000000000000000000000000000000081526004016112c59061342c565b60405180910390fd5b80600160008573ffffffffffffffffffffffffffffffffffffffff1673ffffffffffffffffffffffffffffffffffffffff16815260200190815260200160002060008473ffffffffffffffffffffffffffffffffffffffff1673ffffffffffffffffffffffffffffffffffffffff168152602001908152602001600020819055508173ffffffffffffffffffffffffffffffffffffffff168373ffffffffffffffffffffffffffffffffffffffff167f8c5be1e5ebec7d5bd14f71427d1e84f3dd0314c0f7b2291e5b200ac8c7c3b925836040516113ac9190613627565b60405180910390a3505050565b600073ffffffffffffffffffffffffffffffffffffffff168373ffffffffffffffffffffffffffffffffffffffff161415611429576040517f08c379a00000000000000000000000000000000000000000000000000000000081526004016114209061356c565b60405180910390fd5b600073ffffffffffffffffffffffffffffffffffffffff168273ffffffffffffffffffffffffffffffffffffffff161415611499576040517f08c379a00000000000000000000000000000000000000000000000000000000081526004016114909061334c565b60405180910390fd5b6114a4838383611bd0565b60008060008573ffffffffffffffffffffffffffffffffffffffff1673ffffffffffffffffffffffffffffffffffffffff1681526020019081526020016000205490508181101561152a576040517f08c379a00000000000000000000000000000000000000000000000000000000081526004016115219061346c565b60405180910390fd5b8181036000808673ffffffffffffffffffffffffffffffffffffffff1673ffffffffffffffffffffffffffffffffffffffff16815260200190815260200160002081905550816000808573ffffffffffffffffffffffffffffffffffffffff1673ffffffffffffffffffffffffffffffffffffffff16815260200190815260200160002060008282546115bd91906136e3565b925050819055508273ffffffffffffffffffffffffffffffffffffffff168473ffffffffffffffffffffffffffffffffffffffff167fddf252ad1be2c89b69c2b068fc378daa952ba7f163c4a11628f55a4df523b3ef846040516116219190613627565b60405180910390a3611634848484611bd5565b50505050565b60007f000000000000000000000000000000000000000000000000000000000000000073ffffffffffffffffffffffffffffffffffffffff163073ffffffffffffffffffffffffffffffffffffffff161480156116b657507f000000000000000000000000000000000000000000000000000000000000000046145b156116e3577f00000000000000000000000000000000000000000000000000000000000000009050611751565b61174e7f00000000000000000000000000000000000000000000000000000000000000007f00000000000000000000000000000000000000000000000000000000000000007f0000000000000000000000000000000000000000000000000000000000000000611c00565b90505b90565b6000808380549050905060005b818110156117f95760006117758284611c3a565b9050848682815481106117b1577f4e487b7100000000000000000000000000000000000000000000000000000000600052603260045260246000fd5b9060005260206000200160000160009054906101000a900463ffffffff1663ffffffff1611156117e3578092506117f3565b6001816117f091906136e3565b91505b50611761565b60008214611881578460018361180f919061376a565b81548110611846577f4e487b7100000000000000000000000000000000000000000000000000000000600052603260045260246000fd5b9060005260206000200160000160049054906101000a90047bffffffffffffffffffffffffffffffffffffffffffffffffffffffff16611884565b60005b7bffffffffffffffffffffffffffffffffffffffffffffffffffffffff169250505092915050565b6118b68282611c60565b6118be611dc0565b7bffffffffffffffffffffffffffffffffffffffffffffffffffffffff166118e461069e565b1115611925576040517f08c379a000000000000000000000000000000000000000000000000000000000815260040161191c9061350c565b60405180910390fd5b6119336008611dd683611dec565b50505050565b60006119448361090e565b90506000611951846109df565b905082600660008673ffffffffffffffffffffffffffffffffffffffff1673ffffffffffffffffffffffffffffffffffffffff16815260200190815260200160002060006101000a81548173ffffffffffffffffffffffffffffffffffffffff021916908373ffffffffffffffffffffffffffffffffffffffff1602179055508273ffffffffffffffffffffffffffffffffffffffff168273ffffffffffffffffffffffffffffffffffffffff168573ffffffffffffffffffffffffffffffffffffffff167f3134e8a2e6d97e929a7e54011ea5485d7d196dd5f0ba4d4ef95803e8e3fc257f60405160405180910390a4611a4d8284836120d6565b50505050565b600063ffffffff8016821115611a9e576040517f08c379a0000000000000000000000000000000000000000000000000000000008152600401611a959061358c565b60405180910390fd5b819050919050565b60006bffffffffffffffffffffffff8016821115611af9576040517f08c379a0000000000000000000000000000000000000000000000000000000008152600401611af09061336c565b60405180910390fd5b819050919050565b600081600001549050919050565b611b1982826122cf565b611b2760086124a683611dec565b50505050565b6000611b40611b3a61163a565b836124bc565b9050919050565b6000806000611b58878787876124ef565b91509150611b65816125fc565b8192505050949350505050565b600080600560008473ffffffffffffffffffffffffffffffffffffffff1673ffffffffffffffffffffffffffffffffffffffff1681526020019081526020016000209050611bbf81611b01565b9150611bca8161294d565b50919050565b505050565b611be0838383612963565b611bfb611bec8461090e565b611bf58461090e565b836120d6565b505050565b60008383834630604051602001611c1b959493929190613272565b6040516020818303038152906040528051906020012090509392505050565b60006002828418611c4b9190613739565b828416611c5891906136e3565b905092915050565b600073ffffffffffffffffffffffffffffffffffffffff168273ffffffffffffffffffffffffffffffffffffffff161415611cd0576040517f08c379a0000000000000000000000000000000000000000000000000000000008152600401611cc7906135ec565b60405180910390fd5b611cdc60008383611bd0565b8060026000828254611cee91906136e3565b92505081905550806000808473ffffffffffffffffffffffffffffffffffffffff1673ffffffffffffffffffffffffffffffffffffffff1681526020019081526020016000206000828254611d4391906136e3565b925050819055508173ffffffffffffffffffffffffffffffffffffffff16600073ffffffffffffffffffffffffffffffffffffffff167fddf252ad1be2c89b69c2b068fc378daa952ba7f163c4a11628f55a4df523b3ef83604051611da89190613627565b60405180910390a3611dbc60008383611bd5565b5050565b60006bffffffffffffffffffffffff8016905090565b60008183611de491906136e3565b905092915050565b60008060008580549050905060008114611e805785600182611e0e919061376a565b81548110611e45577f4e487b7100000000000000000000000000000000000000000000000000000000600052603260045260246000fd5b9060005260206000200160000160049054906101000a90047bffffffffffffffffffffffffffffffffffffffffffffffffffffffff16611e83565b60005b7bffffffffffffffffffffffffffffffffffffffffffffffffffffffff169250611eb183858763ffffffff16565b9150600081118015611f2a57504386600183611ecd919061376a565b81548110611f04577f4e487b7100000000000000000000000000000000000000000000000000000000600052603260045260246000fd5b9060005260206000200160000160009054906101000a900463ffffffff1663ffffffff16145b15611fdd57611f3882612968565b86600183611f46919061376a565b81548110611f7d577f4e487b7100000000000000000000000000000000000000000000000000000000600052603260045260246000fd5b9060005260206000200160000160046101000a8154817bffffffffffffffffffffffffffffffffffffffffffffffffffffffff02191690837bffffffffffffffffffffffffffffffffffffffffffffffffffffffff1602179055506120cd565b856040518060400160405280611ff243611a53565b63ffffffff16815260200161200685612968565b7bffffffffffffffffffffffffffffffffffffffffffffffffffffffff168152509080600181540180825580915050600190039060005260206000200160009091909190915060008201518160000160006101000a81548163ffffffff021916908363ffffffff16021790555060208201518160000160046101000a8154817bffffffffffffffffffffffffffffffffffffffffffffffffffffffff02191690837bffffffffffffffffffffffffffffffffffffffffffffffffffffffff16021790555050505b50935093915050565b8173ffffffffffffffffffffffffffffffffffffffff168373ffffffffffffffffffffffffffffffffffffffff16141580156121125750600081115b156122ca57600073ffffffffffffffffffffffffffffffffffffffff168373ffffffffffffffffffffffffffffffffffffffff16146121f057600080612199600760008773ffffffffffffffffffffffffffffffffffffffff1673ffffffffffffffffffffffffffffffffffffffff1681526020019081526020016000206124a685611dec565b915091508473ffffffffffffffffffffffffffffffffffffffff167fdec2bacdd2f05b59de34da9b523dff8be42e5e38e818c82fdb0bae774387a72483836040516121e5929190613642565b60405180910390a250505b600073ffffffffffffffffffffffffffffffffffffffff168273ffffffffffffffffffffffffffffffffffffffff16146122c957600080612272600760008673ffffffffffffffffffffffffffffffffffffffff1673ffffffffffffffffffffffffffffffffffffffff168152602001908152602001600020611dd685611dec565b915091508373ffffffffffffffffffffffffffffffffffffffff167fdec2bacdd2f05b59de34da9b523dff8be42e5e38e818c82fdb0bae774387a72483836040516122be929190613642565b60405180910390a250505b5b505050565b600073ffffffffffffffffffffffffffffffffffffffff168273ffffffffffffffffffffffffffffffffffffffff16141561233f576040517f08c379a00000000000000000000000000000000000000000000000000000000081526004016123369061354c565b60405180910390fd5b61234b82600083611bd0565b60008060008473ffffffffffffffffffffffffffffffffffffffff1673ffffffffffffffffffffffffffffffffffffffff168152602001908152602001600020549050818110156123d1576040517f08c379a00000000000000000000000000000000000000000000000000000000081526004016123c8906133cc565b60405180910390fd5b8181036000808573ffffffffffffffffffffffffffffffffffffffff1673ffffffffffffffffffffffffffffffffffffffff168152602001908152602001600020819055508160026000828254612428919061376a565b92505081905550600073ffffffffffffffffffffffffffffffffffffffff168373ffffffffffffffffffffffffffffffffffffffff167fddf252ad1be2c89b69c2b068fc378daa952ba7f163c4a11628f55a4df523b3ef8460405161248d9190613627565b60405180910390a36124a183600084611bd5565b505050565b600081836124b4919061376a565b905092915050565b600082826040516020016124d1929190613144565b60405160208183030381529060405280519060200120905092915050565b6000807f7fffffffffffffffffffffffffffffff5d576e7357a4501ddfe92f46681b20a08360001c111561252a5760006003915091506125f3565b601b8560ff16141580156125425750601c8560ff1614155b156125545760006004915091506125f3565b60006001878787876040516000815260200160405260405161257994939291906132c5565b6020604051602081039080840390855afa15801561259b573d6000803e3d6000fd5b505050602060405103519050600073ffffffffffffffffffffffffffffffffffffffff168173ffffffffffffffffffffffffffffffffffffffff1614156125ea576000600192509250506125f3565b80600092509250505b94509492505050565b60006004811115612636577f4e487b7100000000000000000000000000000000000000000000000000000000600052602160045260246000fd5b81600481111561266f577f4e487b7100000000000000000000000000000000000000000000000000000000600052602160045260246000fd5b141561267a5761294a565b600160048111156126b4577f4e487b7100000000000000000000000000000000000000000000000000000000600052602160045260246000fd5b8160048111156126ed577f4e487b7100000000000000000000000000000000000000000000000000000000600052602160045260246000fd5b141561272e576040517f08c379a00000000000000000000000000000000000000000000000000000000081526004016127259061332c565b60405180910390fd5b60026004811115612768577f4e487b7100000000000000000000000000000000000000000000000000000000600052602160045260246000fd5b8160048111156127a1577f4e487b7100000000000000000000000000000000000000000000000000000000600052602160045260246000fd5b14156127e2576040517f08c379a00000000000000000000000000000000000000000000000000000000081526004016127d9906133ec565b60405180910390fd5b6003600481111561281c577f4e487b7100000000000000000000000000000000000000000000000000000000600052602160045260246000fd5b816004811115612855577f4e487b7100000000000000000000000000000000000000000000000000000000600052602160045260246000fd5b1415612896576040517f08c379a000000000000000000000000000000000000000000000000000000000815260040161288d9061348c565b60405180910390fd5b6004808111156128cf577f4e487b7100000000000000000000000000000000000000000000000000000000600052602160045260246000fd5b816004811115612908577f4e487b7100000000000000000000000000000000000000000000000000000000600052602160045260246000fd5b1415612949576040517f08c379a0000000000000000000000000000000000000000000000000000000008152600401612940906134ac565b60405180910390fd5b5b50565b6001816000016000828254019250508190555050565b505050565b60007bffffffffffffffffffffffffffffffffffffffffffffffffffffffff80168211156129cb576040517f08c379a00000000000000000000000000000000000000000000000000000000081526004016129c29061352c565b60405180910390fd5b819050919050565b6040518060400160405280600063ffffffff16815260200160007bffffffffffffffffffffffffffffffffffffffffffffffffffffffff1681525090565b600081359050612a2081613f6c565b92915050565b600081359050612a3581613f83565b92915050565b600081359050612a4a81613f9a565b92915050565b600081359050612a5f81613fb1565b92915050565b600081359050612a7481613fc8565b92915050565b600060208284031215612a8c57600080fd5b6000612a9a84828501612a11565b91505092915050565b60008060408385031215612ab657600080fd5b6000612ac485828601612a11565b9250506020612ad585828601612a11565b9150509250929050565b600080600060608486031215612af457600080fd5b6000612b0286828701612a11565b9350506020612b1386828701612a11565b9250506040612b2486828701612a3b565b9150509250925092565b600080600080600080600060e0888a031215612b4957600080fd5b6000612b578a828b01612a11565b9750506020612b688a828b01612a11565b9650506040612b798a828b01612a3b565b9550506060612b8a8a828b01612a3b565b9450506080612b9b8a828b01612a65565b93505060a0612bac8a828b01612a26565b92505060c0612bbd8a828b01612a26565b91505092959891949750929550565b60008060408385031215612bdf57600080fd5b6000612bed85828601612a11565b9250506020612bfe85828601612a3b565b9150509250929050565b60008060008060008060c08789031215612c2157600080fd5b6000612c2f89828a01612a11565b9650506020612c4089828a01612a3b565b9550506040612c5189828a01612a3b565b9450506060612c6289828a01612a65565b9350506080612c7389828a01612a26565b92505060a0612c8489828a01612a26565b9150509295509295509295565b60008060408385031215612ca457600080fd5b6000612cb285828601612a11565b9250506020612cc385828601612a50565b9150509250929050565b600060208284031215612cdf57600080fd5b6000612ced84828501612a3b565b91505092915050565b612cff8161379e565b82525050565b612d0e816137b0565b82525050565b612d1d816137bc565b82525050565b612d34612d2f826137bc565b6138b2565b82525050565b6000612d45826136bc565b612d4f81856136c7565b9350612d5f81856020860161384d565b612d6881613949565b840191505092915050565b6000612d806018836136c7565b9150612d8b8261395a565b602082019050919050565b6000612da36023836136c7565b9150612dae82613983565b604082019050919050565b6000612dc66026836136c7565b9150612dd1826139d2565b604082019050919050565b6000612de9601f836136c7565b9150612df482613a21565b602082019050919050565b6000612e0c601d836136c7565b9150612e1782613a4a565b602082019050919050565b6000612e2f6022836136c7565b9150612e3a82613a73565b604082019050919050565b6000612e52601f836136c7565b9150612e5d82613ac2565b602082019050919050565b6000612e756019836136c7565b9150612e8082613aeb565b602082019050919050565b6000612e986022836136c7565b9150612ea382613b14565b604082019050919050565b6000612ebb6002836136d8565b9150612ec682613b63565b600282019050919050565b6000612ede601d836136c7565b9150612ee982613b8c565b602082019050919050565b6000612f016026836136c7565b9150612f0c82613bb5565b604082019050919050565b6000612f246022836136c7565b9150612f2f82613c04565b604082019050919050565b6000612f476022836136c7565b9150612f5282613c53565b604082019050919050565b6000612f6a601e836136c7565b9150612f7582613ca2565b602082019050919050565b6000612f8d6028836136c7565b9150612f9882613ccb565b604082019050919050565b6000612fb06030836136c7565b9150612fbb82613d1a565b604082019050919050565b6000612fd36027836136c7565b9150612fde82613d69565b604082019050919050565b6000612ff66021836136c7565b915061300182613db8565b604082019050919050565b60006130196025836136c7565b915061302482613e07565b604082019050919050565b600061303c6026836136c7565b915061304782613e56565b604082019050919050565b600061305f6024836136c7565b915061306a82613ea5565b604082019050919050565b60006130826025836136c7565b915061308d82613ef4565b604082019050919050565b60006130a5601f836136c7565b91506130b082613f43565b602082019050919050565b6040820160008201516130d16000850182613108565b5060208201516130e460208501826130ea565b50505050565b6130f3816137e6565b82525050565b6131028161380e565b82525050565b61311181613818565b82525050565b61312081613818565b82525050565b61312f81613828565b82525050565b61313e81613835565b82525050565b600061314f82612eae565b915061315b8285612d23565b60208201915061316b8284612d23565b6020820191508190509392505050565b60006020820190506131906000830184612cf6565b92915050565b60006020820190506131ab6000830184612d05565b92915050565b60006020820190506131c66000830184612d14565b92915050565b600060c0820190506131e16000830189612d14565b6131ee6020830188612cf6565b6131fb6040830187612cf6565b61320860608301866130f9565b61321560808301856130f9565b61322260a08301846130f9565b979650505050505050565b60006080820190506132426000830187612d14565b61324f6020830186612cf6565b61325c60408301856130f9565b61326960608301846130f9565b95945050505050565b600060a0820190506132876000830188612d14565b6132946020830187612d14565b6132a16040830186612d14565b6132ae60608301856130f9565b6132bb6080830184612cf6565b9695505050505050565b60006080820190506132da6000830187612d14565b6132e76020830186613126565b6132f46040830185612d14565b6133016060830184612d14565b95945050505050565b600060208201905081810360008301526133248184612d3a565b905092915050565b6000602082019050818103600083015261334581612d73565b9050919050565b6000602082019050818103600083015261336581612d96565b9050919050565b6000602082019050818103600083015261338581612db9565b9050919050565b600060208201905081810360008301526133a581612ddc565b9050919050565b600060208201905081810360008301526133c581612dff565b9050919050565b600060208201905081810360008301526133e581612e22565b9050919050565b6000602082019050818103600083015261340581612e45565b9050919050565b6000602082019050818103600083015261342581612e68565b9050919050565b6000602082019050818103600083015261344581612e8b565b9050919050565b6000602082019050818103600083015261346581612ed1565b9050919050565b6000602082019050818103600083015261348581612ef4565b9050919050565b600060208201905081810360008301526134a581612f17565b9050919050565b600060208201905081810360008301526134c581612f3a565b9050919050565b600060208201905081810360008301526134e581612f5d565b9050919050565b6000602082019050818103600083015261350581612f80565b9050919050565b6000602082019050818103600083015261352581612fa3565b9050919050565b6000602082019050818103600083015261354581612fc6565b9050919050565b6000602082019050818103600083015261356581612fe9565b9050919050565b600060208201905081810360008301526135858161300c565b9050919050565b600060208201905081810360008301526135a58161302f565b9050919050565b600060208201905081810360008301526135c581613052565b9050919050565b600060208201905081810360008301526135e581613075565b9050919050565b6000602082019050818103600083015261360581613098565b9050919050565b600060408201905061362160008301846130bb565b92915050565b600060208201905061363c60008301846130f9565b92915050565b600060408201905061365760008301856130f9565b61366460208301846130f9565b9392505050565b60006020820190506136806000830184613117565b92915050565b600060208201905061369b6000830184613126565b92915050565b60006020820190506136b66000830184613135565b92915050565b600081519050919050565b600082825260208201905092915050565b600081905092915050565b60006136ee8261380e565b91506136f98361380e565b9250827fffffffffffffffffffffffffffffffffffffffffffffffffffffffffffffffff0382111561372e5761372d6138bc565b5b828201905092915050565b60006137448261380e565b915061374f8361380e565b92508261375f5761375e6138eb565b5b828204905092915050565b60006137758261380e565b91506137808361380e565b925082821015613793576137926138bc565b5b828203905092915050565b60006137a9826137c6565b9050919050565b60008115159050919050565b6000819050919050565b600073ffffffffffffffffffffffffffffffffffffffff82169050919050565b60007bffffffffffffffffffffffffffffffffffffffffffffffffffffffff82169050919050565b6000819050919050565b600063ffffffff82169050919050565b600060ff82169050919050565b60006bffffffffffffffffffffffff82169050919050565b60005b8381101561386b578082015181840152602081019050613850565b8381111561387a576000848401525b50505050565b6000600282049050600182168061389857607f821691505b602082108114156138ac576138ab61391a565b5b50919050565b6000819050919050565b7f4e487b7100000000000000000000000000000000000000000000000000000000600052601160045260246000fd5b7f4e487b7100000000000000000000000000000000000000000000000000000000600052601260045260246000fd5b7f4e487b7100000000000000000000000000000000000000000000000000000000600052602260045260246000fd5b6000601f19601f8301169050919050565b7f45434453413a20696e76616c6964207369676e61747572650000000000000000600082015250565b7f45524332303a207472616e7366657220746f20746865207a65726f206164647260008201527f6573730000000000000000000000000000000000000000000000000000000000602082015250565b7f53616665436173743a2076616c756520646f65736e27742066697420696e203960008201527f3620626974730000000000000000000000000000000000000000000000000000602082015250565b7f4552433230566f7465733a20626c6f636b206e6f7420796574206d696e656400600082015250565b7f4552433230566f7465733a207369676e61747572652065787069726564000000600082015250565b7f45524332303a206275726e20616d6f756e7420657863656564732062616c616e60008201527f6365000000000000000000000000000000000000000000000000000000000000602082015250565b7f45434453413a20696e76616c6964207369676e6174757265206c656e67746800600082015250565b7f4552433230566f7465733a20696e76616c6964206e6f6e636500000000000000600082015250565b7f45524332303a20617070726f766520746f20746865207a65726f20616464726560008201527f7373000000000000000000000000000000000000000000000000000000000000602082015250565b7f1901000000000000000000000000000000000000000000000000000000000000600082015250565b7f45524332305065726d69743a206578706972656420646561646c696e65000000600082015250565b7f45524332303a207472616e7366657220616d6f756e742065786365656473206260008201527f616c616e63650000000000000000000000000000000000000000000000000000602082015250565b7f45434453413a20696e76616c6964207369676e6174757265202773272076616c60008201527f7565000000000000000000000000000000000000000000000000000000000000602082015250565b7f45434453413a20696e76616c6964207369676e6174757265202776272076616c60008201527f7565000000000000000000000000000000000000000000000000000000000000602082015250565b7f45524332305065726d69743a20696e76616c6964207369676e61747572650000600082015250565b7f45524332303a207472616e7366657220616d6f756e742065786365656473206160008201527f6c6c6f77616e6365000000000000000000000000000000000000000000000000602082015250565b7f4552433230566f7465733a20746f74616c20737570706c79207269736b73206f60008201527f766572666c6f77696e6720766f74657300000000000000000000000000000000602082015250565b7f53616665436173743a2076616c756520646f65736e27742066697420696e203260008201527f3234206269747300000000000000000000000000000000000000000000000000602082015250565b7f45524332303a206275726e2066726f6d20746865207a65726f2061646472657360008201527f7300000000000000000000000000000000000000000000000000000000000000602082015250565b7f45524332303a207472616e736665722066726f6d20746865207a65726f20616460008201527f6472657373000000000000000000000000000000000000000000000000000000602082015250565b7f53616665436173743a2076616c756520646f65736e27742066697420696e203360008201527f3220626974730000000000000000000000000000000000000000000000000000602082015250565b7f45524332303a20617070726f76652066726f6d20746865207a65726f2061646460008201527f7265737300000000000000000000000000000000000000000000000000000000602082015250565b7f45524332303a2064656372656173656420616c6c6f77616e63652062656c6f7760008201527f207a65726f000000000000000000000000000000000000000000000000000000602082015250565b7f45524332303a206d696e7420746f20746865207a65726f206164647265737300600082015250565b613f758161379e565b8114613f8057600080fd5b50565b613f8c816137bc565b8114613f9757600080fd5b50565b613fa38161380e565b8114613fae57600080fd5b50565b613fba81613818565b8114613fc557600080fd5b50565b613fd181613828565b8114613fdc57600080fd5b5056fea2646970667358221220be2b3ebfe9abf35c0410941b8cf097c5d79f57fe0d5d7c9a211628446e63bb8a64736f6c63430008020033",
  "linkReferences": {},
  "deployedLinkReferences": {}
}