{
  "_format": "hh-sol-artifact-1",
  "contractName": "DummyImplementation",
  "sourceName": "contracts/OZ/mocks/DummyImplementation.sol",
  "abi": [
    {
      "inputs": [],
      "name": "get",
      "outputs": [
        {
          "internalType": "bool",
          "name": "",
          "type": "bool"
        }
      ],
      "stateMutability": "pure",
      "type": "function"
    },
    {
      "inputs": [
        {
          "internalType": "uint256",
          "name": "_value",
          "type": "uint256"
        },
        {
          "internalType": "string",
          "name": "_text",
          "type": "string"
        },
        {
          "internalType": "uint256[]",
          "name": "_values",
          "type": "uint256[]"
        }
      ],
      "name": "initialize",
      "outputs": [],
      "stateMutability": "nonpayable",
      "type": "function"
    },
    {
      "inputs": [],
      "name": "initializeNonPayable",
      "outputs": [],
      "stateMutability": "nonpayable",
      "type": "function"
    },
    {
      "inputs": [
        {
          "internalType": "uint256",
          "name": "_value",
          "type": "uint256"
        }
      ],
      "name": "initializeNonPayableWithValue",
      "outputs": [],
      "stateMutability": "nonpayable",
      "type": "function"
    },
    {
      "inputs": [],
      "name": "initializePayable",
      "outputs": [],
      "stateMutability": "payable",
      "type": "function"
    },
    {
      "inputs": [
        {
          "internalType": "uint256",
          "name": "_value",
          "type": "uint256"
        }
      ],
      "name": "initializePayableWithValue",
      "outputs": [],
      "stateMutability": "payable",
      "type": "function"
    },
    {
      "inputs": [],
      "name": "reverts",
      "outputs": [],
      "stateMutability": "pure",
      "type": "function"
    },
    {
      "inputs": [],
      "name": "text",
      "outputs": [
        {
          "internalType": "string",
          "name": "",
          "type": "string"
        }
      ],
      "stateMutability": "view",
      "type": "function"
    },
    {
      "inputs": [],
      "name": "value",
      "outputs": [
        {
          "internalType": "uint256",
          "name": "",
          "type": "uint256"
        }
      ],
      "stateMutability": "view",
      "type": "function"
    },
    {
      "inputs": [
        {
          "internalType": "uint256",
          "name": "",
          "type": "uint256"
        }
      ],
      "name": "values",
      "outputs": [
        {
          "internalType": "uint256",
          "name": "",
          "type": "uint256"
        }
      ],
      "stateMutability": "view",
      "type": "function"
    },
    {
      "inputs": [],
      "name": "version",
      "outputs": [
        {
          "internalType": "string",
          "name": "",
          "type": "string"
        }
      ],
      "stateMutability": "pure",
      "type": "function"
    }
  ],
  "bytecode": "0x608060405234801561001057600080fd5b506109ae806100206000396000f3fe60806040526004361061009c5760003560e01c80635e383d21116100645780635e383d21146101505780636d4ce63c1461018d578063763e2831146101b85780639fba1f9a146101e1578063d31f8b6b146101eb578063e79f5bee146102145761009c565b80631f1bd692146100a1578063227367d5146100cc5780633bccbbc9146100e35780633fa4f245146100fa57806354fd4d5014610125575b600080fd5b3480156100ad57600080fd5b506100b6610230565b6040516100c39190610713565b60405180910390f35b3480156100d857600080fd5b506100e16102be565b005b3480156100ef57600080fd5b506100f86102c8565b005b34801561010657600080fd5b5061010f61030b565b60405161011c9190610755565b60405180910390f35b34801561013157600080fd5b5061013a610311565b6040516101479190610713565b60405180910390f35b34801561015c57600080fd5b50610177600480360381019061017291906105d6565b61034e565b6040516101849190610755565b60405180910390f35b34801561019957600080fd5b506101a2610372565b6040516101af91906106f8565b60405180910390f35b3480156101c457600080fd5b506101df60048036038101906101da91906105d6565b61037b565b005b6101e9610385565b005b3480156101f757600080fd5b50610212600480360381019061020d91906105ff565b61038f565b005b61022e600480360381019061022991906105d6565b6103c9565b005b6001805461023d90610866565b80601f016020809104026020016040519081016040528092919081815260200182805461026990610866565b80156102b65780601f1061028b576101008083540402835291602001916102b6565b820191906000526020600020905b81548152906001019060200180831161029957829003601f168201915b505050505081565b600a600081905550565b6000610309576040517f08c379a000000000000000000000000000000000000000000000000000000000815260040161030090610735565b60405180910390fd5b565b60005481565b60606040518060400160405280600281526020017f5631000000000000000000000000000000000000000000000000000000000000815250905090565b6002818154811061035e57600080fd5b906000526020600020016000915090505481565b60006001905090565b8060008190555050565b6064600081905550565b8260008190555081600190805190602001906103ac9291906103d3565b5080600290805190602001906103c3929190610459565b50505050565b8060008190555050565b8280546103df90610866565b90600052602060002090601f0160209004810192826104015760008555610448565b82601f1061041a57805160ff1916838001178555610448565b82800160010185558215610448579182015b8281111561044757825182559160200191906001019061042c565b5b50905061045591906104a6565b5090565b828054828255906000526020600020908101928215610495579160200282015b82811115610494578251825591602001919060010190610479565b5b5090506104a291906104a6565b5090565b5b808211156104bf5760008160009055506001016104a7565b5090565b60006104d66104d184610795565b610770565b905080838252602082019050828560208602820111156104f557600080fd5b60005b85811015610525578161050b88826105c1565b8452602084019350602083019250506001810190506104f8565b5050509392505050565b600061054261053d846107c1565b610770565b90508281526020810184848401111561055a57600080fd5b610565848285610824565b509392505050565b600082601f83011261057e57600080fd5b813561058e8482602086016104c3565b91505092915050565b600082601f8301126105a857600080fd5b81356105b884826020860161052f565b91505092915050565b6000813590506105d081610961565b92915050565b6000602082840312156105e857600080fd5b60006105f6848285016105c1565b91505092915050565b60008060006060848603121561061457600080fd5b6000610622868287016105c1565b935050602084013567ffffffffffffffff81111561063f57600080fd5b61064b86828701610597565b925050604084013567ffffffffffffffff81111561066857600080fd5b6106748682870161056d565b9150509250925092565b6106878161080e565b82525050565b6000610698826107f2565b6106a281856107fd565b93506106b2818560208601610833565b6106bb81610927565b840191505092915050565b60006106d3601c836107fd565b91506106de82610938565b602082019050919050565b6106f28161081a565b82525050565b600060208201905061070d600083018461067e565b92915050565b6000602082019050818103600083015261072d818461068d565b905092915050565b6000602082019050818103600083015261074e816106c6565b9050919050565b600060208201905061076a60008301846106e9565b92915050565b600061077a61078b565b90506107868282610898565b919050565b6000604051905090565b600067ffffffffffffffff8211156107b0576107af6108f8565b5b602082029050602081019050919050565b600067ffffffffffffffff8211156107dc576107db6108f8565b5b6107e582610927565b9050602081019050919050565b600081519050919050565b600082825260208201905092915050565b60008115159050919050565b6000819050919050565b82818337600083830152505050565b60005b83811015610851578082015181840152602081019050610836565b83811115610860576000848401525b50505050565b6000600282049050600182168061087e57607f821691505b60208210811415610892576108916108c9565b5b50919050565b6108a182610927565b810181811067ffffffffffffffff821117156108c0576108bf6108f8565b5b80604052505050565b7f4e487b7100000000000000000000000000000000000000000000000000000000600052602260045260246000fd5b7f4e487b7100000000000000000000000000000000000000000000000000000000600052604160045260246000fd5b6000601f19601f8301169050919050565b7f44756d6d79496d706c656d656e746174696f6e20726576657274656400000000600082015250565b61096a8161081a565b811461097557600080fd5b5056fea2646970667358221220a4447e244f0262ceacfd036e07dd413a93a9d9bfa5d68d1f5a147abf5f3ab3b564736f6c63430008020033",
  "linkReferences": {},
  "deployedLinkReferences": {}
}