{
  "_format": "hh-sol-artifact-1",
  "contractName": "MigratableMockV2",
  "sourceName": "contracts/OZ/mocks/SingleInheritanceInitializableMocks.sol",
  "abi": [
    {
      "inputs": [
        {
          "internalType": "uint256",
          "name": "value",
          "type": "uint256"
        }
      ],
      "name": "initialize",
      "outputs": [],
      "stateMutability": "payable",
      "type": "function"
    },
    {
      "inputs": [
        {
          "internalType": "uint256",
          "name": "value",
          "type": "uint256"
        },
        {
          "internalType": "uint256",
          "name": "anotherValue",
          "type": "uint256"
        }
      ],
      "name": "migrate",
      "outputs": [],
      "stateMutability": "payable",
      "type": "function"
    },
    {
      "inputs": [],
      "name": "x",
      "outputs": [
        {
          "internalType": "uint256",
          "name": "",
          "type": "uint256"
        }
      ],
      "stateMutability": "view",
      "type": "function"
    },
    {
      "inputs": [],
      "name": "y",
      "outputs": [
        {
          "internalType": "uint256",
          "name": "",
          "type": "uint256"
        }
      ],
      "stateMutability": "view",
      "type": "function"
    }
  ],
  "bytecode": "0x608060405234801561001057600080fd5b506103a4806100206000396000f3fe60806040526004361061003f5760003560e01c80630c55699c146100445780633e54bacb1461006f578063a56dfe4a1461008b578063fe4b84df146100b6575b600080fd5b34801561005057600080fd5b506100596100d2565b60405161006691906102d2565b60405180910390f35b61008960048036038101906100849190610244565b6100d8565b005b34801561009757600080fd5b506100a061011f565b6040516100ad91906102d2565b60405180910390f35b6100d060048036038101906100cb919061021b565b610125565b005b60015481565b600260009054906101000a900460ff16156100f257600080fd5b81600181905550806003819055506001600260006101000a81548160ff0219169083151502179055505050565b60035481565b600060019054906101000a900460ff168061014b575060008054906101000a900460ff16155b61018a576040517f08c379a0000000000000000000000000000000000000000000000000000000008152600401610181906102b2565b60405180910390fd5b60008060019054906101000a900460ff1615905080156101da576001600060016101000a81548160ff02191690831515021790555060016000806101000a81548160ff0219169083151502179055505b8160018190555080156102025760008060016101000a81548160ff0219169083151502179055505b5050565b60008135905061021581610357565b92915050565b60006020828403121561022d57600080fd5b600061023b84828501610206565b91505092915050565b6000806040838503121561025757600080fd5b600061026585828601610206565b925050602061027685828601610206565b9150509250929050565b600061028d602e836102ed565b915061029882610308565b604082019050919050565b6102ac816102fe565b82525050565b600060208201905081810360008301526102cb81610280565b9050919050565b60006020820190506102e760008301846102a3565b92915050565b600082825260208201905092915050565b6000819050919050565b7f496e697469616c697a61626c653a20636f6e747261637420697320616c72656160008201527f647920696e697469616c697a6564000000000000000000000000000000000000602082015250565b610360816102fe565b811461036b57600080fd5b5056fea2646970667358221220b42604966f06d857f8ab80cbcef44cf08e27daab621a10aa06f52793ec83cfb464736f6c63430008020033",
  "linkReferences": {},
  "deployedLinkReferences": {}
}