{
  "_format": "hh-sol-artifact-1",
  "contractName": "GovernorMock",
  "sourceName": "contracts/OZ/mocks/GovernorMock.sol",
  "abi": [
    {
      "inputs": [
        {
          "internalType": "string",
          "name": "name_",
          "type": "string"
        },
        {
          "internalType": "contract ERC20Votes",
          "name": "token_",
          "type": "address"
        },
        {
          "internalType": "uint256",
          "name": "votingDelay_",
          "type": "uint256"
        },
        {
          "internalType": "uint256",
          "name": "votingPeriod_",
          "type": "uint256"
        },
        {
          "internalType": "uint256",
          "name": "quorumNumerator_",
          "type": "uint256"
        }
      ],
      "stateMutability": "nonpayable",
      "type": "constructor"
    },
    {
      "anonymous": false,
      "inputs": [
        {
          "indexed": false,
          "internalType": "uint256",
          "name": "proposalId",
          "type": "uint256"
        }
      ],
      "name": "ProposalCanceled",
      "type": "event"
    },
    {
      "anonymous": false,
      "inputs": [
        {
          "indexed": false,
          "internalType": "uint256",
          "name": "proposalId",
          "type": "uint256"
        },
        {
          "indexed": false,
          "internalType": "address",
          "name": "proposer",
          "type": "address"
        },
        {
          "indexed": false,
          "internalType": "address[]",
          "name": "targets",
          "type": "address[]"
        },
        {
          "indexed": false,
          "internalType": "uint256[]",
          "name": "values",
          "type": "uint256[]"
        },
        {
          "indexed": false,
          "internalType": "string[]",
          "name": "signatures",
          "type": "string[]"
        },
        {
          "indexed": false,
          "internalType": "bytes[]",
          "name": "calldatas",
          "type": "bytes[]"
        },
        {
          "indexed": false,
          "internalType": "uint256",
          "name": "startBlock",
          "type": "uint256"
        },
        {
          "indexed": false,
          "internalType": "uint256",
          "name": "endBlock",
          "type": "uint256"
        },
        {
          "indexed": false,
          "internalType": "string",
          "name": "description",
          "type": "string"
        }
      ],
      "name": "ProposalCreated",
      "type": "event"
    },
    {
      "anonymous": false,
      "inputs": [
        {
          "indexed": false,
          "internalType": "uint256",
          "name": "proposalId",
          "type": "uint256"
        }
      ],
      "name": "ProposalExecuted",
      "type": "event"
    },
    {
      "anonymous": false,
      "inputs": [
        {
          "indexed": false,
          "internalType": "uint256",
          "name": "oldProposalThreshold",
          "type": "uint256"
        },
        {
          "indexed": false,
          "internalType": "uint256",
          "name": "newProposalThreshold",
          "type": "uint256"
        }
      ],
      "name": "ProposalThresholdSet",
      "type": "event"
    },
    {
      "anonymous": false,
      "inputs": [
        {
          "indexed": false,
          "internalType": "uint256",
          "name": "oldQuorumNumerator",
          "type": "uint256"
        },
        {
          "indexed": false,
          "internalType": "uint256",
          "name": "newQuorumNumerator",
          "type": "uint256"
        }
      ],
      "name": "QuorumNumeratorUpdated",
      "type": "event"
    },
    {
      "anonymous": false,
      "inputs": [
        {
          "indexed": true,
          "internalType": "address",
          "name": "voter",
          "type": "address"
        },
        {
          "indexed": false,
          "internalType": "uint256",
          "name": "proposalId",
          "type": "uint256"
        },
        {
          "indexed": false,
          "internalType": "uint8",
          "name": "support",
          "type": "uint8"
        },
        {
          "indexed": false,
          "internalType": "uint256",
          "name": "weight",
          "type": "uint256"
        },
        {
          "indexed": false,
          "internalType": "string",
          "name": "reason",
          "type": "string"
        }
      ],
      "name": "VoteCast",
      "type": "event"
    },
    {
      "anonymous": false,
      "inputs": [
        {
          "indexed": false,
          "internalType": "uint256",
          "name": "oldVotingDelay",
          "type": "uint256"
        },
        {
          "indexed": false,
          "internalType": "uint256",
          "name": "newVotingDelay",
          "type": "uint256"
        }
      ],
      "name": "VotingDelaySet",
      "type": "event"
    },
    {
      "anonymous": false,
      "inputs": [
        {
          "indexed": false,
          "internalType": "uint256",
          "name": "oldVotingPeriod",
          "type": "uint256"
        },
        {
          "indexed": false,
          "internalType": "uint256",
          "name": "newVotingPeriod",
          "type": "uint256"
        }
      ],
      "name": "VotingPeriodSet",
      "type": "event"
    },
    {
      "inputs": [],
      "name": "BALLOT_TYPEHASH",
      "outputs": [
        {
          "internalType": "bytes32",
          "name": "",
          "type": "bytes32"
        }
      ],
      "stateMutability": "view",
      "type": "function"
    },
    {
      "inputs": [],
      "name": "COUNTING_MODE",
      "outputs": [
        {
          "internalType": "string",
          "name": "",
          "type": "string"
        }
      ],
      "stateMutability": "pure",
      "type": "function"
    },
    {
      "inputs": [
        {
          "internalType": "address[]",
          "name": "targets",
          "type": "address[]"
        },
        {
          "internalType": "uint256[]",
          "name": "values",
          "type": "uint256[]"
        },
        {
          "internalType": "bytes[]",
          "name": "calldatas",
          "type": "bytes[]"
        },
        {
          "internalType": "bytes32",
          "name": "salt",
          "type": "bytes32"
        }
      ],
      "name": "cancel",
      "outputs": [
        {
          "internalType": "uint256",
          "name": "proposalId",
          "type": "uint256"
        }
      ],
      "stateMutability": "nonpayable",
      "type": "function"
    },
    {
      "inputs": [
        {
          "internalType": "uint256",
          "name": "proposalId",
          "type": "uint256"
        },
        {
          "internalType": "uint8",
          "name": "support",
          "type": "uint8"
        }
      ],
      "name": "castVote",
      "outputs": [
        {
          "internalType": "uint256",
          "name": "",
          "type": "uint256"
        }
      ],
      "stateMutability": "nonpayable",
      "type": "function"
    },
    {
      "inputs": [
        {
          "internalType": "uint256",
          "name": "proposalId",
          "type": "uint256"
        },
        {
          "internalType": "uint8",
          "name": "support",
          "type": "uint8"
        },
        {
          "internalType": "uint8",
          "name": "v",
          "type": "uint8"
        },
        {
          "internalType": "bytes32",
          "name": "r",
          "type": "bytes32"
        },
        {
          "internalType": "bytes32",
          "name": "s",
          "type": "bytes32"
        }
      ],
      "name": "castVoteBySig",
      "outputs": [
        {
          "internalType": "uint256",
          "name": "",
          "type": "uint256"
        }
      ],
      "stateMutability": "nonpayable",
      "type": "function"
    },
    {
      "inputs": [
        {
          "internalType": "uint256",
          "name": "proposalId",
          "type": "uint256"
        },
        {
          "internalType": "uint8",
          "name": "support",
          "type": "uint8"
        },
        {
          "internalType": "string",
          "name": "reason",
          "type": "string"
        }
      ],
      "name": "castVoteWithReason",
      "outputs": [
        {
          "internalType": "uint256",
          "name": "",
          "type": "uint256"
        }
      ],
      "stateMutability": "nonpayable",
      "type": "function"
    },
    {
      "inputs": [
        {
          "internalType": "address[]",
          "name": "targets",
          "type": "address[]"
        },
        {
          "internalType": "uint256[]",
          "name": "values",
          "type": "uint256[]"
        },
        {
          "internalType": "bytes[]",
          "name": "calldatas",
          "type": "bytes[]"
        },
        {
          "internalType": "bytes32",
          "name": "descriptionHash",
          "type": "bytes32"
        }
      ],
      "name": "execute",
      "outputs": [
        {
          "internalType": "uint256",
          "name": "",
          "type": "uint256"
        }
      ],
      "stateMutability": "payable",
      "type": "function"
    },
    {
      "inputs": [
        {
          "internalType": "address",
          "name": "account",
          "type": "address"
        },
        {
          "internalType": "uint256",
          "name": "blockNumber",
          "type": "uint256"
        }
      ],
      "name": "getVotes",
      "outputs": [
        {
          "internalType": "uint256",
          "name": "",
          "type": "uint256"
        }
      ],
      "stateMutability": "view",
      "type": "function"
    },
    {
      "inputs": [
        {
          "internalType": "uint256",
          "name": "proposalId",
          "type": "uint256"
        },
        {
          "internalType": "address",
          "name": "account",
          "type": "address"
        }
      ],
      "name": "hasVoted",
      "outputs": [
        {
          "internalType": "bool",
          "name": "",
          "type": "bool"
        }
      ],
      "stateMutability": "view",
      "type": "function"
    },
    {
      "inputs": [
        {
          "internalType": "address[]",
          "name": "targets",
          "type": "address[]"
        },
        {
          "internalType": "uint256[]",
          "name": "values",
          "type": "uint256[]"
        },
        {
          "internalType": "bytes[]",
          "name": "calldatas",
          "type": "bytes[]"
        },
        {
          "internalType": "bytes32",
          "name": "descriptionHash",
          "type": "bytes32"
        }
      ],
      "name": "hashProposal",
      "outputs": [
        {
          "internalType": "uint256",
          "name": "",
          "type": "uint256"
        }
      ],
      "stateMutability": "pure",
      "type": "function"
    },
    {
      "inputs": [],
      "name": "name",
      "outputs": [
        {
          "internalType": "string",
          "name": "",
          "type": "string"
        }
      ],
      "stateMutability": "view",
      "type": "function"
    },
    {
      "inputs": [
        {
          "internalType": "uint256",
          "name": "proposalId",
          "type": "uint256"
        }
      ],
      "name": "proposalDeadline",
      "outputs": [
        {
          "internalType": "uint256",
          "name": "",
          "type": "uint256"
        }
      ],
      "stateMutability": "view",
      "type": "function"
    },
    {
      "inputs": [
        {
          "internalType": "uint256",
          "name": "proposalId",
          "type": "uint256"
        }
      ],
      "name": "proposalSnapshot",
      "outputs": [
        {
          "internalType": "uint256",
          "name": "",
          "type": "uint256"
        }
      ],
      "stateMutability": "view",
      "type": "function"
    },
    {
      "inputs": [],
      "name": "proposalThreshold",
      "outputs": [
        {
          "internalType": "uint256",
          "name": "",
          "type": "uint256"
        }
      ],
      "stateMutability": "view",
      "type": "function"
    },
    {
      "inputs": [
        {
          "internalType": "uint256",
          "name": "proposalId",
          "type": "uint256"
        }
      ],
      "name": "proposalVotes",
      "outputs": [
        {
          "internalType": "uint256",
          "name": "againstVotes",
          "type": "uint256"
        },
        {
          "internalType": "uint256",
          "name": "forVotes",
          "type": "uint256"
        },
        {
          "internalType": "uint256",
          "name": "abstainVotes",
          "type": "uint256"
        }
      ],
      "stateMutability": "view",
      "type": "function"
    },
    {
      "inputs": [
        {
          "internalType": "address[]",
          "name": "targets",
          "type": "address[]"
        },
        {
          "internalType": "uint256[]",
          "name": "values",
          "type": "uint256[]"
        },
        {
          "internalType": "bytes[]",
          "name": "calldatas",
          "type": "bytes[]"
        },
        {
          "internalType": "string",
          "name": "description",
          "type": "string"
        }
      ],
      "name": "propose",
      "outputs": [
        {
          "internalType": "uint256",
          "name": "",
          "type": "uint256"
        }
      ],
      "stateMutability": "nonpayable",
      "type": "function"
    },
    {
      "inputs": [
        {
          "internalType": "uint256",
          "name": "blockNumber",
          "type": "uint256"
        }
      ],
      "name": "quorum",
      "outputs": [
        {
          "internalType": "uint256",
          "name": "",
          "type": "uint256"
        }
      ],
      "stateMutability": "view",
      "type": "function"
    },
    {
      "inputs": [],
      "name": "quorumDenominator",
      "outputs": [
        {
          "internalType": "uint256",
          "name": "",
          "type": "uint256"
        }
      ],
      "stateMutability": "view",
      "type": "function"
    },
    {
      "inputs": [],
      "name": "quorumNumerator",
      "outputs": [
        {
          "internalType": "uint256",
          "name": "",
          "type": "uint256"
        }
      ],
      "stateMutability": "view",
      "type": "function"
    },
    {
      "inputs": [
        {
          "internalType": "address",
          "name": "target",
          "type": "address"
        },
        {
          "internalType": "uint256",
          "name": "value",
          "type": "uint256"
        },
        {
          "internalType": "bytes",
          "name": "data",
          "type": "bytes"
        }
      ],
      "name": "relay",
      "outputs": [],
      "stateMutability": "nonpayable",
      "type": "function"
    },
    {
      "inputs": [
        {
          "internalType": "uint256",
          "name": "newProposalThreshold",
          "type": "uint256"
        }
      ],
      "name": "setProposalThreshold",
      "outputs": [],
      "stateMutability": "nonpayable",
      "type": "function"
    },
    {
      "inputs": [
        {
          "internalType": "uint256",
          "name": "newVotingDelay",
          "type": "uint256"
        }
      ],
      "name": "setVotingDelay",
      "outputs": [],
      "stateMutability": "nonpayable",
      "type": "function"
    },
    {
      "inputs": [
        {
          "internalType": "uint256",
          "name": "newVotingPeriod",
          "type": "uint256"
        }
      ],
      "name": "setVotingPeriod",
      "outputs": [],
      "stateMutability": "nonpayable",
      "type": "function"
    },
    {
      "inputs": [
        {
          "internalType": "uint256",
          "name": "proposalId",
          "type": "uint256"
        }
      ],
      "name": "state",
      "outputs": [
        {
          "internalType": "enum IGovernor.ProposalState",
          "name": "",
          "type": "uint8"
        }
      ],
      "stateMutability": "view",
      "type": "function"
    },
    {
      "inputs": [
        {
          "internalType": "bytes4",
          "name": "interfaceId",
          "type": "bytes4"
        }
      ],
      "name": "supportsInterface",
      "outputs": [
        {
          "internalType": "bool",
          "name": "",
          "type": "bool"
        }
      ],
      "stateMutability": "view",
      "type": "function"
    },
    {
      "inputs": [],
      "name": "token",
      "outputs": [
        {
          "internalType": "contract ERC20Votes",
          "name": "",
          "type": "address"
        }
      ],
      "stateMutability": "view",
      "type": "function"
    },
    {
      "inputs": [
        {
          "internalType": "uint256",
          "name": "newQuorumNumerator",
          "type": "uint256"
        }
      ],
      "name": "updateQuorumNumerator",
      "outputs": [],
      "stateMutability": "nonpayable",
      "type": "function"
    },
    {
      "inputs": [],
      "name": "version",
      "outputs": [
        {
          "internalType": "string",
          "name": "",
          "type": "string"
        }
      ],
      "stateMutability": "view",
      "type": "function"
    },
    {
      "inputs": [],
      "name": "votingDelay",
      "outputs": [
        {
          "internalType": "uint256",
          "name": "",
          "type": "uint256"
        }
      ],
      "stateMutability": "view",
      "type": "function"
    },
    {
      "inputs": [],
      "name": "votingPeriod",
      "outputs": [
        {
          "internalType": "uint256",
          "name": "",
          "type": "uint256"
        }
      ],
      "stateMutability": "view",
      "type": "function"
    },
    {
      "stateMutability": "payable",
      "type": "receive"
    }
  ],
  "bytecode": "0x6101606040523480156200001257600080fd5b506040516200568f3803806200568f83398181016040528101906200003891906200053a565b808484846000898062000050620001ab60201b60201c565b60008280519060200120905060008280519060200120905060007f8b73c3c69bb8fe3d512ecc4cf759cc79239f7b179b0ffacaa9a75d522b39400f90508260e081815250508161010081815250504660a08181525050620000b9818484620001e860201b60201c565b608081815250503073ffffffffffffffffffffffffffffffffffffffff1660c08173ffffffffffffffffffffffffffffffffffffffff1660601b81525050806101208181525050505050505080600090805190602001906200011d929190620003ea565b505062000130836200022460201b60201c565b62000141826200026b60201b60201c565b6200015281620002f860201b60201c565b5050508073ffffffffffffffffffffffffffffffffffffffff166101408173ffffffffffffffffffffffffffffffffffffffff1660601b81525050506200019f816200033f60201b60201c565b505050505050620009f9565b60606040518060400160405280600181526020017f3100000000000000000000000000000000000000000000000000000000000000815250905090565b600083838346306040516020016200020595949392919062000656565b6040516020818303038152906040528051906020012090509392505050565b7fc565b045403dc03c2eea82b81a0465edad9e2e7fc4d97e11421c209da93d7a936002548260405162000259929190620006f7565b60405180910390a18060028190555050565b60008111620002b1576040517f08c379a0000000000000000000000000000000000000000000000000000000008152600401620002a890620006d5565b60405180910390fd5b7f7e3f7f0708a84de9203036abaa450dccc85ad5ff52f78c170f3edb55cf5e882860035482604051620002e6929190620006f7565b60405180910390a18060038190555050565b7fccb45da8d5717e6c4544694297c4ba5cf151d455c9bb0ed4fc7a38411bc05461600454826040516200032d929190620006f7565b60405180910390a18060048190555050565b6200034f620003e160201b60201c565b81111562000394576040517f08c379a00000000000000000000000000000000000000000000000000000000081526004016200038b90620006b3565b60405180910390fd5b60006005549050816005819055507f0553476bf02ef2726e8ce5ced78d63e26e602e4a2257b1f559418e24b46339978183604051620003d5929190620006f7565b60405180910390a15050565b60006064905090565b828054620003f89062000826565b90600052602060002090601f0160209004810192826200041c576000855562000468565b82601f106200043757805160ff191683800117855562000468565b8280016001018555821562000468579182015b82811115620004675782518255916020019190600101906200044a565b5b5090506200047791906200047b565b5090565b5b80821115620004965760008160009055506001016200047c565b5090565b6000620004b1620004ab846200074d565b62000724565b905082815260208101848484011115620004ca57600080fd5b620004d7848285620007f0565b509392505050565b600081519050620004f081620009c5565b92915050565b600082601f8301126200050857600080fd5b81516200051a8482602086016200049a565b91505092915050565b6000815190506200053481620009df565b92915050565b600080600080600060a086880312156200055357600080fd5b600086015167ffffffffffffffff8111156200056e57600080fd5b6200057c88828901620004f6565b95505060206200058f88828901620004df565b9450506040620005a28882890162000523565b9350506060620005b58882890162000523565b9250506080620005c88882890162000523565b9150509295509295909350565b620005e08162000794565b82525050565b620005f181620007a8565b82525050565b60006200060660438362000783565b9150620006138262000901565b606082019050919050565b60006200062d60278362000783565b91506200063a8262000976565b604082019050919050565b6200065081620007e6565b82525050565b600060a0820190506200066d6000830188620005e6565b6200067c6020830187620005e6565b6200068b6040830186620005e6565b6200069a606083018562000645565b620006a96080830184620005d5565b9695505050505050565b60006020820190508181036000830152620006ce81620005f7565b9050919050565b60006020820190508181036000830152620006f0816200061e565b9050919050565b60006040820190506200070e600083018562000645565b6200071d602083018462000645565b9392505050565b60006200073062000743565b90506200073e82826200085c565b919050565b6000604051905090565b600067ffffffffffffffff8211156200076b576200076a620008c1565b5b6200077682620008f0565b9050602081019050919050565b600082825260208201905092915050565b6000620007a182620007c6565b9050919050565b6000819050919050565b6000620007bf8262000794565b9050919050565b600073ffffffffffffffffffffffffffffffffffffffff82169050919050565b6000819050919050565b60005b8381101562000810578082015181840152602081019050620007f3565b8381111562000820576000848401525b50505050565b600060028204905060018216806200083f57607f821691505b6020821081141562000856576200085562000892565b5b50919050565b6200086782620008f0565b810181811067ffffffffffffffff82111715620008895762000888620008c1565b5b80604052505050565b7f4e487b7100000000000000000000000000000000000000000000000000000000600052602260045260246000fd5b7f4e487b7100000000000000000000000000000000000000000000000000000000600052604160045260246000fd5b6000601f19601f8301169050919050565b7f476f7665726e6f72566f74657351756f72756d4672616374696f6e3a2071756f60008201527f72756d4e756d657261746f72206f7665722071756f72756d44656e6f6d696e6160208201527f746f720000000000000000000000000000000000000000000000000000000000604082015250565b7f476f7665726e6f7253657474696e67733a20766f74696e6720706572696f642060008201527f746f6f206c6f7700000000000000000000000000000000000000000000000000602082015250565b620009d081620007b2565b8114620009dc57600080fd5b50565b620009ea81620007e6565b8114620009f657600080fd5b50565b60805160a05160c05160601c60e05161010051610120516101405160601c614c2762000a686000396000818161130f015281816113d30152611c4101526000611e4c01526000611e8e01526000611e6d01526000611da201526000611df801526000611e210152614c276000f3fe6080604052600436106101d15760003560e01c80637b3c71d3116100f7578063c59057e411610095578063eb9019d411610064578063eb9019d414610751578063ece40cc11461078e578063f8ce560a146107b7578063fc0c546a146107f457610217565b8063c59057e414610695578063dd4e2ba5146106d2578063deaaa7cc146106fd578063ea0217cf1461072857610217565b8063a7713a70116100d1578063a7713a70146105d9578063b58131b014610604578063c01f9e371461062f578063c28bc2fa1461066c57610217565b80637b3c71d3146105345780637d5e81e21461057157806397c3d334146105ae57610217565b80633bccf4fd1161016f578063544ffc9c1161013e578063544ffc9c1461046457806354fd4d50146104a357806356781388146104ce57806370b0f6601461050b57610217565b80633bccf4fd146103705780633e4f49e6146103ad57806343859632146103ea578063452115d61461042757610217565b806306fdde03116101ab57806306fdde03146102ad5780632656227d146102d85780632d63f693146103085780633932abb11461034557610217565b806301ffc9a71461021c57806302a251a31461025957806306f3f9e61461028457610217565b36610217573073ffffffffffffffffffffffffffffffffffffffff166101f561081f565b73ffffffffffffffffffffffffffffffffffffffff161461021557600080fd5b005b600080fd5b34801561022857600080fd5b50610243600480360381019061023e9190613093565b610827565b60405161025091906139a0565b60405180910390f35b34801561026557600080fd5b5061026e6108a1565b60405161027b9190613d7d565b60405180910390f35b34801561029057600080fd5b506102ab60048036038101906102a691906130bc565b6108ab565b005b3480156102b957600080fd5b506102c2610933565b6040516102cf9190613adb565b60405180910390f35b6102f260048036038101906102ed9190612f25565b6109c5565b6040516102ff9190613d7d565b60405180910390f35b34801561031457600080fd5b5061032f600480360381019061032a91906130bc565b610b90565b60405161033c9190613d7d565b60405180910390f35b34801561035157600080fd5b5061035a610bfe565b6040516103679190613d7d565b60405180910390f35b34801561037c57600080fd5b50610397600480360381019061039291906131f2565b610c08565b6040516103a49190613d7d565b60405180910390f35b3480156103b957600080fd5b506103d460048036038101906103cf91906130bc565b610c92565b6040516103e19190613ac0565b60405180910390f35b3480156103f657600080fd5b50610411600480360381019061040c919061310e565b610da7565b60405161041e91906139a0565b60405180910390f35b34801561043357600080fd5b5061044e60048036038101906104499190612f25565b610e12565b60405161045b9190613d7d565b60405180910390f35b34801561047057600080fd5b5061048b600480360381019061048691906130bc565b610e2a565b60405161049a93929190613e71565b60405180910390f35b3480156104af57600080fd5b506104b8610e62565b6040516104c59190613adb565b60405180910390f35b3480156104da57600080fd5b506104f560048036038101906104f0919061314a565b610e9f565b6040516105029190613d7d565b60405180910390f35b34801561051757600080fd5b50610532600480360381019061052d91906130bc565b610ed0565b005b34801561054057600080fd5b5061055b60048036038101906105569190613186565b610f58565b6040516105689190613d7d565b60405180910390f35b34801561057d57600080fd5b5061059860048036038101906105939190612fd0565b610fc0565b6040516105a59190613d7d565b60405180910390f35b3480156105ba57600080fd5b506105c3610fd8565b6040516105d09190613d7d565b60405180910390f35b3480156105e557600080fd5b506105ee610fe1565b6040516105fb9190613d7d565b60405180910390f35b34801561061057600080fd5b50610619610feb565b6040516106269190613d7d565b60405180910390f35b34801561063b57600080fd5b50610656600480360381019061065191906130bc565b610ffa565b6040516106639190613d7d565b60405180910390f35b34801561067857600080fd5b50610693600480360381019061068e9190612eb9565b611068565b005b3480156106a157600080fd5b506106bc60048036038101906106b79190612f25565b61113a565b6040516106c99190613d7d565b60405180910390f35b3480156106de57600080fd5b506106e7611176565b6040516106f49190613adb565b60405180910390f35b34801561070957600080fd5b506107126111b3565b60405161071f91906139bb565b60405180910390f35b34801561073457600080fd5b5061074f600480360381019061074a91906130bc565b6111d7565b005b34801561075d57600080fd5b5061077860048036038101906107739190612e7d565b61125f565b6040516107859190613d7d565b60405180910390f35b34801561079a57600080fd5b506107b560048036038101906107b091906130bc565b611273565b005b3480156107c357600080fd5b506107de60048036038101906107d991906130bc565b6112fb565b6040516107eb9190613d7d565b60405180910390f35b34801561080057600080fd5b506108096113d1565b6040516108169190613aa5565b60405180910390f35b600030905090565b60007fbf26d897000000000000000000000000000000000000000000000000000000007bffffffffffffffffffffffffffffffffffffffffffffffffffffffff1916827bffffffffffffffffffffffffffffffffffffffffffffffffffffffff1916148061089a5750610899826113f5565b5b9050919050565b6000600354905090565b6108b361081f565b73ffffffffffffffffffffffffffffffffffffffff166108d161145f565b73ffffffffffffffffffffffffffffffffffffffff1614610927576040517f08c379a000000000000000000000000000000000000000000000000000000000815260040161091e90613b1d565b60405180910390fd5b61093081611467565b50565b606060008054610942906143d1565b80601f016020809104026020016040519081016040528092919081815260200182805461096e906143d1565b80156109bb5780601f10610990576101008083540402835291602001916109bb565b820191906000526020600020905b81548152906001019060200180831161099e57829003601f168201915b5050505050905090565b6000806109d48686868661113a565b905060006109e182610c92565b905060046007811115610a1d577f4e487b7100000000000000000000000000000000000000000000000000000000600052602160045260246000fd5b816007811115610a56577f4e487b7100000000000000000000000000000000000000000000000000000000600052602160045260246000fd5b1480610ad2575060056007811115610a97577f4e487b7100000000000000000000000000000000000000000000000000000000600052602160045260246000fd5b816007811115610ad0577f4e487b7100000000000000000000000000000000000000000000000000000000600052602160045260246000fd5b145b610b11576040517f08c379a0000000000000000000000000000000000000000000000000000000008152600401610b0890613cdd565b60405180910390fd5b600180600084815260200190815260200160002060020160006101000a81548160ff0219169083151502179055507f712ae1383f79ac853f8d882153778e0260ef8f03b504e2866e0593e04d2b291f82604051610b6e9190613d7d565b60405180910390a1610b8382888888886114fc565b8192505050949350505050565b6000610bed600160008481526020019081526020016000206000016040518060200160405290816000820160009054906101000a900467ffffffffffffffff1667ffffffffffffffff1667ffffffffffffffff168152505061167d565b67ffffffffffffffff169050919050565b6000600254905090565b600080610c69610c617f150214d74d59b7d1e90c73fc22ef3d991dd0a76b046543d4d80ab92d2a50328f8989604051602001610c4693929190613a29565b6040516020818303038152906040528051906020012061168b565b8686866116a5565b9050610c86878288604051806020016040528060008152506116d0565b91505095945050505050565b6000806001600084815260200190815260200160002090508060020160009054906101000a900460ff1615610ccb576007915050610da2565b8060020160019054906101000a900460ff1615610cec576002915050610da2565b6000610cf784610b90565b90506000811415610d3d576040517f08c379a0000000000000000000000000000000000000000000000000000000008152600401610d3490613cfd565b60405180910390fd5b438110610d4f57600092505050610da2565b6000610d5a85610ffa565b9050438110610d6f5760019350505050610da2565b610d7885611870565b8015610d895750610d88856118b7565b5b15610d9a5760049350505050610da2565b600393505050505b919050565b60006006600084815260200190815260200160002060030160008373ffffffffffffffffffffffffffffffffffffffff1673ffffffffffffffffffffffffffffffffffffffff16815260200190815260200160002060009054906101000a900460ff16905092915050565b6000610e20858585856118e2565b9050949350505050565b600080600080600660008681526020019081526020016000209050806000015481600101548260020154935093509350509193909250565b60606040518060400160405280600181526020017f3100000000000000000000000000000000000000000000000000000000000000815250905090565b600080610eaa61145f565b9050610ec7848285604051806020016040528060008152506116d0565b91505092915050565b610ed861081f565b73ffffffffffffffffffffffffffffffffffffffff16610ef661145f565b73ffffffffffffffffffffffffffffffffffffffff1614610f4c576040517f08c379a0000000000000000000000000000000000000000000000000000000008152600401610f4390613b1d565b60405180910390fd5b610f5581611b1f565b50565b600080610f6361145f565b9050610fb586828787878080601f016020809104026020016040519081016040528093929190818152602001838380828437600081840152601f19601f820116905080830192505050505050506116d0565b915050949350505050565b6000610fce85858585611b64565b9050949350505050565b60006064905090565b6000600554905090565b6000610ff5611b7c565b905090565b6000611057600160008481526020019081526020016000206001016040518060200160405290816000820160009054906101000a900467ffffffffffffffff1667ffffffffffffffff1667ffffffffffffffff168152505061167d565b67ffffffffffffffff169050919050565b61107061081f565b73ffffffffffffffffffffffffffffffffffffffff1661108e61145f565b73ffffffffffffffffffffffffffffffffffffffff16146110e4576040517f08c379a00000000000000000000000000000000000000000000000000000000081526004016110db90613b1d565b60405180910390fd5b6111338483838080601f016020809104026020016040519081016040528093929190818152602001838380828437600081840152601f19601f8201169050808301925050505050505085611b86565b5050505050565b6000848484846040516020016111539493929190613946565b6040516020818303038152906040528051906020012060001c9050949350505050565b60606040518060400160405280602081526020017f737570706f72743d627261766f2671756f72756d3d666f722c6162737461696e815250905090565b7f150214d74d59b7d1e90c73fc22ef3d991dd0a76b046543d4d80ab92d2a50328f81565b6111df61081f565b73ffffffffffffffffffffffffffffffffffffffff166111fd61145f565b73ffffffffffffffffffffffffffffffffffffffff1614611253576040517f08c379a000000000000000000000000000000000000000000000000000000000815260040161124a90613b1d565b60405180910390fd5b61125c81611bb5565b50565b600061126b8383611c3d565b905092915050565b61127b61081f565b73ffffffffffffffffffffffffffffffffffffffff1661129961145f565b73ffffffffffffffffffffffffffffffffffffffff16146112ef576040517f08c379a00000000000000000000000000000000000000000000000000000000081526004016112e690613b1d565b60405180910390fd5b6112f881611cf2565b50565b6000611305610fd8565b61130d610fe1565b7f000000000000000000000000000000000000000000000000000000000000000073ffffffffffffffffffffffffffffffffffffffff16638e539e8c856040518263ffffffff1660e01b81526004016113669190613d7d565b60206040518083038186803b15801561137e57600080fd5b505afa158015611392573d6000803e3d6000fd5b505050506040513d601f19601f820116820180604052508101906113b691906130e5565b6113c09190614207565b6113ca91906141d6565b9050919050565b7f000000000000000000000000000000000000000000000000000000000000000081565b60007f01ffc9a7000000000000000000000000000000000000000000000000000000007bffffffffffffffffffffffffffffffffffffffffffffffffffffffff1916827bffffffffffffffffffffffffffffffffffffffffffffffffffffffff1916149050919050565b600033905090565b61146f610fd8565b8111156114b1576040517f08c379a00000000000000000000000000000000000000000000000000000000081526004016114a890613b3d565b60405180910390fd5b60006005549050816005819055507f0553476bf02ef2726e8ce5ced78d63e26e602e4a2257b1f559418e24b463399781836040516114f0929190613e48565b60405180910390a15050565b6000604051806060016040528060278152602001614ba260279139905060005b855181101561167457600080878381518110611561577f4e487b7100000000000000000000000000000000000000000000000000000000600052603260045260246000fd5b602002602001015173ffffffffffffffffffffffffffffffffffffffff168784815181106115b8577f4e487b7100000000000000000000000000000000000000000000000000000000600052603260045260246000fd5b60200260200101518785815181106115f9577f4e487b7100000000000000000000000000000000000000000000000000000000600052603260045260246000fd5b602002602001015160405161160e91906138cf565b60006040518083038185875af1925050503d806000811461164b576040519150601f19603f3d011682016040523d82523d6000602084013e611650565b606091505b5091509150611660828286611d37565b5050508061166d90614434565b905061151c565b50505050505050565b600081600001519050919050565b600061169e611698611d9e565b83611eb8565b9050919050565b60008060006116b687878787611eeb565b915091506116c381611ff8565b8192505050949350505050565b60008060016000878152602001908152602001600020905060016007811115611722577f4e487b7100000000000000000000000000000000000000000000000000000000600052602160045260246000fd5b61172b87610c92565b6007811115611763577f4e487b7100000000000000000000000000000000000000000000000000000000600052602160045260246000fd5b146117a3576040517f08c379a000000000000000000000000000000000000000000000000000000000815260040161179a90613c3d565b60405180910390fd5b6000611801866117f2846000016040518060200160405290816000820160009054906101000a900467ffffffffffffffff1667ffffffffffffffff1667ffffffffffffffff168152505061167d565b67ffffffffffffffff1661125f565b905061180f87878784612349565b8573ffffffffffffffffffffffffffffffffffffffff167fb8e138887d0aa13bab447e82de9d5c1777041ecd21ca36ba824ff1e6c07ddda48887848860405161185b9493929190613ea8565b60405180910390a28092505050949350505050565b6000806006600084815260200190815260200160002090508060020154816001015461189c9190614142565b6118ad6118a885610b90565b6112fb565b1115915050919050565b6000806006600084815260200190815260200160002090508060000154816001015411915050919050565b6000806118f18686868661113a565b905060006118fe82610c92565b90506002600781111561193a577f4e487b7100000000000000000000000000000000000000000000000000000000600052602160045260246000fd5b816007811115611973577f4e487b7100000000000000000000000000000000000000000000000000000000600052602160045260246000fd5b141580156119f25750600660078111156119b6577f4e487b7100000000000000000000000000000000000000000000000000000000600052602160045260246000fd5b8160078111156119ef577f4e487b7100000000000000000000000000000000000000000000000000000000600052602160045260246000fd5b14155b8015611a6e5750600780811115611a32577f4e487b7100000000000000000000000000000000000000000000000000000000600052602160045260246000fd5b816007811115611a6b577f4e487b7100000000000000000000000000000000000000000000000000000000600052602160045260246000fd5b14155b611aad576040517f08c379a0000000000000000000000000000000000000000000000000000000008152600401611aa490613cbd565b60405180910390fd5b600180600084815260200190815260200160002060020160016101000a81548160ff0219169083151502179055507f789cf55be980739dad1d0699b93b58e806b51c9d96619bfa8fe0a28abaa7b30c82604051611b0a9190613d7d565b60405180910390a18192505050949350505050565b7fc565b045403dc03c2eea82b81a0465edad9e2e7fc4d97e11421c209da93d7a9360025482604051611b52929190613e48565b60405180910390a18060028190555050565b6000611b72858585856125c1565b9050949350505050565b6000600454905090565b6060611bac848484604051806060016040528060298152602001614bc9602991396128e7565b90509392505050565b60008111611bf8576040517f08c379a0000000000000000000000000000000000000000000000000000000008152600401611bef90613bbd565b60405180910390fd5b7f7e3f7f0708a84de9203036abaa450dccc85ad5ff52f78c170f3edb55cf5e882860035482604051611c2b929190613e48565b60405180910390a18060038190555050565b60007f000000000000000000000000000000000000000000000000000000000000000073ffffffffffffffffffffffffffffffffffffffff16633a46b1a884846040518363ffffffff1660e01b8152600401611c9a92919061391d565b60206040518083038186803b158015611cb257600080fd5b505afa158015611cc6573d6000803e3d6000fd5b505050506040513d601f19601f82011682018060405250810190611cea91906130e5565b905092915050565b7fccb45da8d5717e6c4544694297c4ba5cf151d455c9bb0ed4fc7a38411bc0546160045482604051611d25929190613e48565b60405180910390a18060048190555050565b60608315611d4757829050611d97565b600083511115611d5a5782518084602001fd5b816040517f08c379a0000000000000000000000000000000000000000000000000000000008152600401611d8e9190613adb565b60405180910390fd5b9392505050565b60007f000000000000000000000000000000000000000000000000000000000000000073ffffffffffffffffffffffffffffffffffffffff163073ffffffffffffffffffffffffffffffffffffffff16148015611e1a57507f000000000000000000000000000000000000000000000000000000000000000046145b15611e47577f00000000000000000000000000000000000000000000000000000000000000009050611eb5565b611eb27f00000000000000000000000000000000000000000000000000000000000000007f00000000000000000000000000000000000000000000000000000000000000007f00000000000000000000000000000000000000000000000000000000000000006129fb565b90505b90565b60008282604051602001611ecd9291906138e6565b60405160208183030381529060405280519060200120905092915050565b6000807f7fffffffffffffffffffffffffffffff5d576e7357a4501ddfe92f46681b20a08360001c1115611f26576000600391509150611fef565b601b8560ff1614158015611f3e5750601c8560ff1614155b15611f50576000600491509150611fef565b600060018787878760405160008152602001604052604051611f759493929190613a60565b6020604051602081039080840390855afa158015611f97573d6000803e3d6000fd5b505050602060405103519050600073ffffffffffffffffffffffffffffffffffffffff168173ffffffffffffffffffffffffffffffffffffffff161415611fe657600060019250925050611fef565b80600092509250505b94509492505050565b60006004811115612032577f4e487b7100000000000000000000000000000000000000000000000000000000600052602160045260246000fd5b81600481111561206b577f4e487b7100000000000000000000000000000000000000000000000000000000600052602160045260246000fd5b141561207657612346565b600160048111156120b0577f4e487b7100000000000000000000000000000000000000000000000000000000600052602160045260246000fd5b8160048111156120e9577f4e487b7100000000000000000000000000000000000000000000000000000000600052602160045260246000fd5b141561212a576040517f08c379a000000000000000000000000000000000000000000000000000000000815260040161212190613afd565b60405180910390fd5b60026004811115612164577f4e487b7100000000000000000000000000000000000000000000000000000000600052602160045260246000fd5b81600481111561219d577f4e487b7100000000000000000000000000000000000000000000000000000000600052602160045260246000fd5b14156121de576040517f08c379a00000000000000000000000000000000000000000000000000000000081526004016121d590613b7d565b60405180910390fd5b60036004811115612218577f4e487b7100000000000000000000000000000000000000000000000000000000600052602160045260246000fd5b816004811115612251577f4e487b7100000000000000000000000000000000000000000000000000000000600052602160045260246000fd5b1415612292576040517f08c379a000000000000000000000000000000000000000000000000000000000815260040161228990613bdd565b60405180910390fd5b6004808111156122cb577f4e487b7100000000000000000000000000000000000000000000000000000000600052602160045260246000fd5b816004811115612304577f4e487b7100000000000000000000000000000000000000000000000000000000600052602160045260246000fd5b1415612345576040517f08c379a000000000000000000000000000000000000000000000000000000000815260040161233c90613c7d565b60405180910390fd5b5b50565b60006006600086815260200190815260200160002090508060030160008573ffffffffffffffffffffffffffffffffffffffff1673ffffffffffffffffffffffffffffffffffffffff16815260200190815260200160002060009054906101000a900460ff16156123ef576040517f08c379a00000000000000000000000000000000000000000000000000000000081526004016123e690613bfd565b60405180910390fd5b60018160030160008673ffffffffffffffffffffffffffffffffffffffff1673ffffffffffffffffffffffffffffffffffffffff16815260200190815260200160002060006101000a81548160ff02191690831515021790555060006002811115612483577f4e487b7100000000000000000000000000000000000000000000000000000000600052602160045260246000fd5b60ff168360ff1614156124b057818160000160008282546124a49190614142565b925050819055506125ba565b600160028111156124ea577f4e487b7100000000000000000000000000000000000000000000000000000000600052602160045260246000fd5b60ff168360ff161415612517578181600101600082825461250b9190614142565b925050819055506125b9565b600280811115612550577f4e487b7100000000000000000000000000000000000000000000000000000000600052602160045260246000fd5b60ff168360ff16141561257d57818160020160008282546125719190614142565b925050819055506125b8565b6040517f08c379a00000000000000000000000000000000000000000000000000000000081526004016125af90613d1d565b60405180910390fd5b5b5b5050505050565b60006125cb610feb565b6125e1336001436125dc9190614261565b61125f565b1015612622576040517f08c379a000000000000000000000000000000000000000000000000000000000815260040161261990613b5d565b60405180910390fd5b6000612637868686868051906020012061113a565b9050845186511461267d576040517f08c379a000000000000000000000000000000000000000000000000000000000815260040161267490613b9d565b60405180910390fd5b83518651146126c1576040517f08c379a00000000000000000000000000000000000000000000000000000000081526004016126b890613b9d565b60405180910390fd5b6000865111612705576040517f08c379a00000000000000000000000000000000000000000000000000000000081526004016126fc90613c5d565b60405180910390fd5b6000600160008381526020019081526020016000209050612765816000016040518060200160405290816000820160009054906101000a900467ffffffffffffffff1667ffffffffffffffff1667ffffffffffffffff1681525050612a35565b6127a4576040517f08c379a000000000000000000000000000000000000000000000000000000000815260040161279b90613d3d565b60405180910390fd5b60006127b66127b1610bfe565b612a4f565b6127bf43612a4f565b6127c99190614198565b905060006127dd6127d86108a1565b612a4f565b826127e89190614198565b90506128008284600001612aa690919063ffffffff16565b6128168184600101612aa690919063ffffffff16565b7f7d84a6263ae0d98d3329bd7b46bb4e8d6f98cd35a7adb45c274c8b7fd5ebd5e08461284061145f565b8b8b8d5167ffffffffffffffff811115612883577f4e487b7100000000000000000000000000000000000000000000000000000000600052604160045260246000fd5b6040519080825280602002602001820160405280156128b657816020015b60608152602001906001900390816128a15790505b508c88888e6040516128d099989796959493929190613d98565b60405180910390a183945050505050949350505050565b60608247101561292c576040517f08c379a000000000000000000000000000000000000000000000000000000000815260040161292390613c1d565b60405180910390fd5b61293585612ad5565b612974576040517f08c379a000000000000000000000000000000000000000000000000000000000815260040161296b90613d5d565b60405180910390fd5b6000808673ffffffffffffffffffffffffffffffffffffffff16858760405161299d91906138cf565b60006040518083038185875af1925050503d80600081146129da576040519150601f19603f3d011682016040523d82523d6000602084013e6129df565b606091505b50915091506129ef828286611d37565b92505050949350505050565b60008383834630604051602001612a169594939291906139d6565b6040516020818303038152906040528051906020012090509392505050565b600080826000015167ffffffffffffffff16149050919050565b600067ffffffffffffffff8016821115612a9e576040517f08c379a0000000000000000000000000000000000000000000000000000000008152600401612a9590613c9d565b60405180910390fd5b819050919050565b808260000160006101000a81548167ffffffffffffffff021916908367ffffffffffffffff1602179055505050565b600080823b905060008111915050919050565b6000612afb612af684613f19565b613ef4565b90508083825260208201905082856020860282011115612b1a57600080fd5b60005b85811015612b4a5781612b308882612c99565b845260208401935060208301925050600181019050612b1d565b5050509392505050565b6000612b67612b6284613f45565b613ef4565b9050808382526020820190508260005b85811015612ba75781358501612b8d8882612da0565b845260208401935060208301925050600181019050612b77565b5050509392505050565b6000612bc4612bbf84613f71565b613ef4565b90508083825260208201905082856020860282011115612be357600080fd5b60005b85811015612c135781612bf98882612e3e565b845260208401935060208301925050600181019050612be6565b5050509392505050565b6000612c30612c2b84613f9d565b613ef4565b905082815260208101848484011115612c4857600080fd5b612c5384828561438f565b509392505050565b6000612c6e612c6984613fce565b613ef4565b905082815260208101848484011115612c8657600080fd5b612c9184828561438f565b509392505050565b600081359050612ca881614b2e565b92915050565b600082601f830112612cbf57600080fd5b8135612ccf848260208601612ae8565b91505092915050565b600082601f830112612ce957600080fd5b8135612cf9848260208601612b54565b91505092915050565b600082601f830112612d1357600080fd5b8135612d23848260208601612bb1565b91505092915050565b600081359050612d3b81614b45565b92915050565b600081359050612d5081614b5c565b92915050565b60008083601f840112612d6857600080fd5b8235905067ffffffffffffffff811115612d8157600080fd5b602083019150836001820283011115612d9957600080fd5b9250929050565b600082601f830112612db157600080fd5b8135612dc1848260208601612c1d565b91505092915050565b60008083601f840112612ddc57600080fd5b8235905067ffffffffffffffff811115612df557600080fd5b602083019150836001820283011115612e0d57600080fd5b9250929050565b600082601f830112612e2557600080fd5b8135612e35848260208601612c5b565b91505092915050565b600081359050612e4d81614b73565b92915050565b600081519050612e6281614b73565b92915050565b600081359050612e7781614b8a565b92915050565b60008060408385031215612e9057600080fd5b6000612e9e85828601612c99565b9250506020612eaf85828601612e3e565b9150509250929050565b60008060008060608587031215612ecf57600080fd5b6000612edd87828801612c99565b9450506020612eee87828801612e3e565b935050604085013567ffffffffffffffff811115612f0b57600080fd5b612f1787828801612d56565b925092505092959194509250565b60008060008060808587031215612f3b57600080fd5b600085013567ffffffffffffffff811115612f5557600080fd5b612f6187828801612cae565b945050602085013567ffffffffffffffff811115612f7e57600080fd5b612f8a87828801612d02565b935050604085013567ffffffffffffffff811115612fa757600080fd5b612fb387828801612cd8565b9250506060612fc487828801612d2c565b91505092959194509250565b60008060008060808587031215612fe657600080fd5b600085013567ffffffffffffffff81111561300057600080fd5b61300c87828801612cae565b945050602085013567ffffffffffffffff81111561302957600080fd5b61303587828801612d02565b935050604085013567ffffffffffffffff81111561305257600080fd5b61305e87828801612cd8565b925050606085013567ffffffffffffffff81111561307b57600080fd5b61308787828801612e14565b91505092959194509250565b6000602082840312156130a557600080fd5b60006130b384828501612d41565b91505092915050565b6000602082840312156130ce57600080fd5b60006130dc84828501612e3e565b91505092915050565b6000602082840312156130f757600080fd5b600061310584828501612e53565b91505092915050565b6000806040838503121561312157600080fd5b600061312f85828601612e3e565b925050602061314085828601612c99565b9150509250929050565b6000806040838503121561315d57600080fd5b600061316b85828601612e3e565b925050602061317c85828601612e68565b9150509250929050565b6000806000806060858703121561319c57600080fd5b60006131aa87828801612e3e565b94505060206131bb87828801612e68565b935050604085013567ffffffffffffffff8111156131d857600080fd5b6131e487828801612dca565b925092505092959194509250565b600080600080600060a0868803121561320a57600080fd5b600061321888828901612e3e565b955050602061322988828901612e68565b945050604061323a88828901612e68565b935050606061324b88828901612d2c565b925050608061325c88828901612d2c565b9150509295509295909350565b600061327583836132c1565b60208301905092915050565b600061328d83836134ba565b905092915050565b60006132a18383613542565b905092915050565b60006132b58383613893565b60208301905092915050565b6132ca81614295565b82525050565b6132d981614295565b82525050565b60006132ea8261403f565b6132f481856140b5565b93506132ff83613fff565b8060005b838110156133305781516133178882613269565b975061332283614081565b925050600181019050613303565b5085935050505092915050565b60006133488261404a565b61335281856140c6565b9350836020820285016133648561400f565b8060005b858110156133a057848403895281516133818582613281565b945061338c8361408e565b925060208a01995050600181019050613368565b50829750879550505050505092915050565b60006133bd82614055565b6133c781856140d7565b9350836020820285016133d98561401f565b8060005b8581101561341557848403895281516133f68582613295565b94506134018361409b565b925060208a019950506001810190506133dd565b50829750879550505050505092915050565b600061343282614060565b61343c81856140e8565b93506134478361402f565b8060005b8381101561347857815161345f88826132a9565b975061346a836140a8565b92505060018101905061344b565b5085935050505092915050565b61348e816142a7565b82525050565b61349d816142b3565b82525050565b6134b46134af826142b3565b61447d565b82525050565b60006134c58261406b565b6134cf81856140f9565b93506134df81856020860161439e565b6134e881614572565b840191505092915050565b60006134fe8261406b565b613508818561410a565b935061351881856020860161439e565b80840191505092915050565b61352d81614347565b82525050565b61353c8161436b565b82525050565b600061354d82614076565b6135578185614115565b935061356781856020860161439e565b61357081614572565b840191505092915050565b600061358682614076565b6135908185614126565b93506135a081856020860161439e565b6135a981614572565b840191505092915050565b60006135c1601883614126565b91506135cc82614583565b602082019050919050565b60006135e4601883614126565b91506135ef826145ac565b602082019050919050565b6000613607604383614126565b9150613612826145d5565b606082019050919050565b600061362a604383614126565b91506136358261464a565b606082019050919050565b600061364d601f83614126565b9150613658826146bf565b602082019050919050565b6000613670600283614137565b915061367b826146e8565b600282019050919050565b6000613693602183614126565b915061369e82614711565b604082019050919050565b60006136b6602783614126565b91506136c182614760565b604082019050919050565b60006136d9602283614126565b91506136e4826147af565b604082019050919050565b60006136fc602783614126565b9150613707826147fe565b604082019050919050565b600061371f602683614126565b915061372a8261484d565b604082019050919050565b6000613742602383614126565b915061374d8261489c565b604082019050919050565b6000613765601883614126565b9150613770826148eb565b602082019050919050565b6000613788602283614126565b915061379382614914565b604082019050919050565b60006137ab602683614126565b91506137b682614963565b604082019050919050565b60006137ce601d83614126565b91506137d9826149b2565b602082019050919050565b60006137f1602183614126565b91506137fc826149db565b604082019050919050565b6000613814601d83614126565b915061381f82614a2a565b602082019050919050565b6000613837603583614126565b915061384282614a53565b604082019050919050565b600061385a602183614126565b915061386582614aa2565b604082019050919050565b600061387d601d83614126565b915061388882614af1565b602082019050919050565b61389c8161431c565b82525050565b6138ab8161431c565b82525050565b6138ba8161437d565b82525050565b6138c98161433a565b82525050565b60006138db82846134f3565b915081905092915050565b60006138f182613663565b91506138fd82856134a3565b60208201915061390d82846134a3565b6020820191508190509392505050565b600060408201905061393260008301856132d0565b61393f60208301846138a2565b9392505050565b6000608082019050818103600083015261396081876132df565b905081810360208301526139748186613427565b90508181036040830152613988818561333d565b90506139976060830184613494565b95945050505050565b60006020820190506139b56000830184613485565b92915050565b60006020820190506139d06000830184613494565b92915050565b600060a0820190506139eb6000830188613494565b6139f86020830187613494565b613a056040830186613494565b613a1260608301856138a2565b613a1f60808301846132d0565b9695505050505050565b6000606082019050613a3e6000830186613494565b613a4b60208301856138a2565b613a5860408301846138c0565b949350505050565b6000608082019050613a756000830187613494565b613a8260208301866138c0565b613a8f6040830185613494565b613a9c6060830184613494565b95945050505050565b6000602082019050613aba6000830184613524565b92915050565b6000602082019050613ad56000830184613533565b92915050565b60006020820190508181036000830152613af5818461357b565b905092915050565b60006020820190508181036000830152613b16816135b4565b9050919050565b60006020820190508181036000830152613b36816135d7565b9050919050565b60006020820190508181036000830152613b56816135fa565b9050919050565b60006020820190508181036000830152613b768161361d565b9050919050565b60006020820190508181036000830152613b9681613640565b9050919050565b60006020820190508181036000830152613bb681613686565b9050919050565b60006020820190508181036000830152613bd6816136a9565b9050919050565b60006020820190508181036000830152613bf6816136cc565b9050919050565b60006020820190508181036000830152613c16816136ef565b9050919050565b60006020820190508181036000830152613c3681613712565b9050919050565b60006020820190508181036000830152613c5681613735565b9050919050565b60006020820190508181036000830152613c7681613758565b9050919050565b60006020820190508181036000830152613c968161377b565b9050919050565b60006020820190508181036000830152613cb68161379e565b9050919050565b60006020820190508181036000830152613cd6816137c1565b9050919050565b60006020820190508181036000830152613cf6816137e4565b9050919050565b60006020820190508181036000830152613d1681613807565b9050919050565b60006020820190508181036000830152613d368161382a565b9050919050565b60006020820190508181036000830152613d568161384d565b9050919050565b60006020820190508181036000830152613d7681613870565b9050919050565b6000602082019050613d9260008301846138a2565b92915050565b600061012082019050613dae600083018c6138a2565b613dbb602083018b6132d0565b8181036040830152613dcd818a6132df565b90508181036060830152613de18189613427565b90508181036080830152613df581886133b2565b905081810360a0830152613e09818761333d565b9050613e1860c08301866138b1565b613e2560e08301856138b1565b818103610100830152613e38818461357b565b90509a9950505050505050505050565b6000604082019050613e5d60008301856138a2565b613e6a60208301846138a2565b9392505050565b6000606082019050613e8660008301866138a2565b613e9360208301856138a2565b613ea060408301846138a2565b949350505050565b6000608082019050613ebd60008301876138a2565b613eca60208301866138c0565b613ed760408301856138a2565b8181036060830152613ee9818461357b565b905095945050505050565b6000613efe613f0f565b9050613f0a8282614403565b919050565b6000604051905090565b600067ffffffffffffffff821115613f3457613f33614543565b5b602082029050602081019050919050565b600067ffffffffffffffff821115613f6057613f5f614543565b5b602082029050602081019050919050565b600067ffffffffffffffff821115613f8c57613f8b614543565b5b602082029050602081019050919050565b600067ffffffffffffffff821115613fb857613fb7614543565b5b613fc182614572565b9050602081019050919050565b600067ffffffffffffffff821115613fe957613fe8614543565b5b613ff282614572565b9050602081019050919050565b6000819050602082019050919050565b6000819050602082019050919050565b6000819050602082019050919050565b6000819050602082019050919050565b600081519050919050565b600081519050919050565b600081519050919050565b600081519050919050565b600081519050919050565b600081519050919050565b6000602082019050919050565b6000602082019050919050565b6000602082019050919050565b6000602082019050919050565b600082825260208201905092915050565b600082825260208201905092915050565b600082825260208201905092915050565b600082825260208201905092915050565b600082825260208201905092915050565b600081905092915050565b600082825260208201905092915050565b600082825260208201905092915050565b600081905092915050565b600061414d8261431c565b91506141588361431c565b9250827fffffffffffffffffffffffffffffffffffffffffffffffffffffffffffffffff0382111561418d5761418c614487565b5b828201905092915050565b60006141a382614326565b91506141ae83614326565b92508267ffffffffffffffff038211156141cb576141ca614487565b5b828201905092915050565b60006141e18261431c565b91506141ec8361431c565b9250826141fc576141fb6144b6565b5b828204905092915050565b60006142128261431c565b915061421d8361431c565b9250817fffffffffffffffffffffffffffffffffffffffffffffffffffffffffffffffff048311821515161561425657614255614487565b5b828202905092915050565b600061426c8261431c565b91506142778361431c565b92508282101561428a57614289614487565b5b828203905092915050565b60006142a0826142fc565b9050919050565b60008115159050919050565b6000819050919050565b60007fffffffff0000000000000000000000000000000000000000000000000000000082169050919050565b60008190506142f782614b1a565b919050565b600073ffffffffffffffffffffffffffffffffffffffff82169050919050565b6000819050919050565b600067ffffffffffffffff82169050919050565b600060ff82169050919050565b600061435282614359565b9050919050565b6000614364826142fc565b9050919050565b6000614376826142e9565b9050919050565b600061438882614326565b9050919050565b82818337600083830152505050565b60005b838110156143bc5780820151818401526020810190506143a1565b838111156143cb576000848401525b50505050565b600060028204905060018216806143e957607f821691505b602082108114156143fd576143fc614514565b5b50919050565b61440c82614572565b810181811067ffffffffffffffff8211171561442b5761442a614543565b5b80604052505050565b600061443f8261431c565b91507fffffffffffffffffffffffffffffffffffffffffffffffffffffffffffffffff82141561447257614471614487565b5b600182019050919050565b6000819050919050565b7f4e487b7100000000000000000000000000000000000000000000000000000000600052601160045260246000fd5b7f4e487b7100000000000000000000000000000000000000000000000000000000600052601260045260246000fd5b7f4e487b7100000000000000000000000000000000000000000000000000000000600052602160045260246000fd5b7f4e487b7100000000000000000000000000000000000000000000000000000000600052602260045260246000fd5b7f4e487b7100000000000000000000000000000000000000000000000000000000600052604160045260246000fd5b6000601f19601f8301169050919050565b7f45434453413a20696e76616c6964207369676e61747572650000000000000000600082015250565b7f476f7665726e6f723a206f6e6c79476f7665726e616e63650000000000000000600082015250565b7f476f7665726e6f72566f74657351756f72756d4672616374696f6e3a2071756f60008201527f72756d4e756d657261746f72206f7665722071756f72756d44656e6f6d696e6160208201527f746f720000000000000000000000000000000000000000000000000000000000604082015250565b7f476f7665726e6f72436f6d7061746962696c697479427261766f3a2070726f7060008201527f6f73657220766f7465732062656c6f772070726f706f73616c2074687265736860208201527f6f6c640000000000000000000000000000000000000000000000000000000000604082015250565b7f45434453413a20696e76616c6964207369676e6174757265206c656e67746800600082015250565b7f1901000000000000000000000000000000000000000000000000000000000000600082015250565b7f476f7665726e6f723a20696e76616c69642070726f706f73616c206c656e677460008201527f6800000000000000000000000000000000000000000000000000000000000000602082015250565b7f476f7665726e6f7253657474696e67733a20766f74696e6720706572696f642060008201527f746f6f206c6f7700000000000000000000000000000000000000000000000000602082015250565b7f45434453413a20696e76616c6964207369676e6174757265202773272076616c60008201527f7565000000000000000000000000000000000000000000000000000000000000602082015250565b7f476f7665726e6f72566f74696e6753696d706c653a20766f746520616c72656160008201527f6479206361737400000000000000000000000000000000000000000000000000602082015250565b7f416464726573733a20696e73756666696369656e742062616c616e636520666f60008201527f722063616c6c0000000000000000000000000000000000000000000000000000602082015250565b7f476f7665726e6f723a20766f7465206e6f742063757272656e746c792061637460008201527f6976650000000000000000000000000000000000000000000000000000000000602082015250565b7f476f7665726e6f723a20656d7074792070726f706f73616c0000000000000000600082015250565b7f45434453413a20696e76616c6964207369676e6174757265202776272076616c60008201527f7565000000000000000000000000000000000000000000000000000000000000602082015250565b7f53616665436173743a2076616c756520646f65736e27742066697420696e203660008201527f3420626974730000000000000000000000000000000000000000000000000000602082015250565b7f476f7665726e6f723a2070726f706f73616c206e6f7420616374697665000000600082015250565b7f476f7665726e6f723a2070726f706f73616c206e6f742073756363657373667560008201527f6c00000000000000000000000000000000000000000000000000000000000000602082015250565b7f476f7665726e6f723a20756e6b6e6f776e2070726f706f73616c206964000000600082015250565b7f476f7665726e6f72566f74696e6753696d706c653a20696e76616c696420766160008201527f6c756520666f7220656e756d20566f7465547970650000000000000000000000602082015250565b7f476f7665726e6f723a2070726f706f73616c20616c726561647920657869737460008201527f7300000000000000000000000000000000000000000000000000000000000000602082015250565b7f416464726573733a2063616c6c20746f206e6f6e2d636f6e7472616374000000600082015250565b60088110614b2b57614b2a6144e5565b5b50565b614b3781614295565b8114614b4257600080fd5b50565b614b4e816142b3565b8114614b5957600080fd5b50565b614b65816142bd565b8114614b7057600080fd5b50565b614b7c8161431c565b8114614b8757600080fd5b50565b614b938161433a565b8114614b9e57600080fd5b5056fe476f7665726e6f723a2063616c6c20726576657274656420776974686f7574206d657373616765416464726573733a206c6f772d6c6576656c2063616c6c20776974682076616c7565206661696c6564a2646970667358221220687f304a60bdf8e31aedbcf13fcb76090180abeb73f03aa043105a0927d1b0ff64736f6c63430008020033",
  "linkReferences": {},
  "deployedLinkReferences": {}
}