{
  "_format": "hh-sol-artifact-1",
  "contractName": "MerkleProofWrapper",
  "sourceName": "contracts/OZ/mocks/MerkleProofWrapper.sol",
  "abi": [
    {
      "inputs": [
        {
          "internalType": "bytes32[]",
          "name": "proof",
          "type": "bytes32[]"
        },
        {
          "internalType": "bytes32",
          "name": "leaf",
          "type": "bytes32"
        }
      ],
      "name": "processProof",
      "outputs": [
        {
          "internalType": "bytes32",
          "name": "",
          "type": "bytes32"
        }
      ],
      "stateMutability": "pure",
      "type": "function"
    },
    {
      "inputs": [
        {
          "internalType": "bytes32[]",
          "name": "proof",
          "type": "bytes32[]"
        },
        {
          "internalType": "bytes32",
          "name": "root",
          "type": "bytes32"
        },
        {
          "internalType": "bytes32",
          "name": "leaf",
          "type": "bytes32"
        }
      ],
      "name": "verify",
      "outputs": [
        {
          "internalType": "bool",
          "name": "",
          "type": "bool"
        }
      ],
      "stateMutability": "pure",
      "type": "function"
    }
  ],
  "bytecode": "0x608060405234801561001057600080fd5b50610563806100206000396000f3fe608060405234801561001057600080fd5b50600436106100365760003560e01c80635a9a49c71461003b57806362702a6b1461006b575b600080fd5b610055600480360381019061005091906102b4565b61009b565b604051610062919061037c565b60405180910390f35b61008560048036038101906100809190610260565b6100b1565b6040516100929190610397565b60405180910390f35b60006100a88484846100c5565b90509392505050565b60006100bd83836100dc565b905092915050565b6000826100d285846100dc565b1490509392505050565b60008082905060005b84518110156101aa576000858281518110610129577f4e487b7100000000000000000000000000000000000000000000000000000000600052603260045260246000fd5b6020026020010151905080831161016a57828160405160200161014d929190610350565b604051602081830303815290604052805190602001209250610196565b808360405160200161017d929190610350565b6040516020818303038152906040528051906020012092505b5080806101a290610454565b9150506100e5565b508091505092915050565b60006101c86101c3846103d7565b6103b2565b905080838252602082019050828560208602820111156101e757600080fd5b60005b8581101561021757816101fd888261024b565b8452602084019350602083019250506001810190506101ea565b5050509392505050565b600082601f83011261023257600080fd5b81356102428482602086016101b5565b91505092915050565b60008135905061025a81610516565b92915050565b6000806040838503121561027357600080fd5b600083013567ffffffffffffffff81111561028d57600080fd5b61029985828601610221565b92505060206102aa8582860161024b565b9150509250929050565b6000806000606084860312156102c957600080fd5b600084013567ffffffffffffffff8111156102e357600080fd5b6102ef86828701610221565b93505060206103008682870161024b565b92505060406103118682870161024b565b9150509250925092565b61032481610403565b82525050565b6103338161040f565b82525050565b61034a6103458261040f565b61049d565b82525050565b600061035c8285610339565b60208201915061036c8284610339565b6020820191508190509392505050565b6000602082019050610391600083018461031b565b92915050565b60006020820190506103ac600083018461032a565b92915050565b60006103bc6103cd565b90506103c88282610423565b919050565b6000604051905090565b600067ffffffffffffffff8211156103f2576103f16104d6565b5b602082029050602081019050919050565b60008115159050919050565b6000819050919050565b6000819050919050565b61042c82610505565b810181811067ffffffffffffffff8211171561044b5761044a6104d6565b5b80604052505050565b600061045f82610419565b91507fffffffffffffffffffffffffffffffffffffffffffffffffffffffffffffffff821415610492576104916104a7565b5b600182019050919050565b6000819050919050565b7f4e487b7100000000000000000000000000000000000000000000000000000000600052601160045260246000fd5b7f4e487b7100000000000000000000000000000000000000000000000000000000600052604160045260246000fd5b6000601f19601f8301169050919050565b61051f8161040f565b811461052a57600080fd5b5056fea264697066735822122033eceb3d23094261c7aebdb6f96c35f47ad660fd79e502530d4e2a54f978437a64736f6c63430008020033",
  "linkReferences": {},
  "deployedLinkReferences": {}
}