{
  "_format": "hh-sol-artifact-1",
  "contractName": "GovernorTimelockControlMock",
  "sourceName": "contracts/OZ/mocks/GovernorTimelockControlMock.sol",
  "abi": [
    {
      "inputs": [
        {
          "internalType": "string",
          "name": "name_",
          "type": "string"
        },
        {
          "internalType": "contract ERC20Votes",
          "name": "token_",
          "type": "address"
        },
        {
          "internalType": "uint256",
          "name": "votingDelay_",
          "type": "uint256"
        },
        {
          "internalType": "uint256",
          "name": "votingPeriod_",
          "type": "uint256"
        },
        {
          "internalType": "contract TimelockController",
          "name": "timelock_",
          "type": "address"
        },
        {
          "internalType": "uint256",
          "name": "quorumNumerator_",
          "type": "uint256"
        }
      ],
      "stateMutability": "nonpayable",
      "type": "constructor"
    },
    {
      "anonymous": false,
      "inputs": [
        {
          "indexed": false,
          "internalType": "uint256",
          "name": "proposalId",
          "type": "uint256"
        }
      ],
      "name": "ProposalCanceled",
      "type": "event"
    },
    {
      "anonymous": false,
      "inputs": [
        {
          "indexed": false,
          "internalType": "uint256",
          "name": "proposalId",
          "type": "uint256"
        },
        {
          "indexed": false,
          "internalType": "address",
          "name": "proposer",
          "type": "address"
        },
        {
          "indexed": false,
          "internalType": "address[]",
          "name": "targets",
          "type": "address[]"
        },
        {
          "indexed": false,
          "internalType": "uint256[]",
          "name": "values",
          "type": "uint256[]"
        },
        {
          "indexed": false,
          "internalType": "string[]",
          "name": "signatures",
          "type": "string[]"
        },
        {
          "indexed": false,
          "internalType": "bytes[]",
          "name": "calldatas",
          "type": "bytes[]"
        },
        {
          "indexed": false,
          "internalType": "uint256",
          "name": "startBlock",
          "type": "uint256"
        },
        {
          "indexed": false,
          "internalType": "uint256",
          "name": "endBlock",
          "type": "uint256"
        },
        {
          "indexed": false,
          "internalType": "string",
          "name": "description",
          "type": "string"
        }
      ],
      "name": "ProposalCreated",
      "type": "event"
    },
    {
      "anonymous": false,
      "inputs": [
        {
          "indexed": false,
          "internalType": "uint256",
          "name": "proposalId",
          "type": "uint256"
        }
      ],
      "name": "ProposalExecuted",
      "type": "event"
    },
    {
      "anonymous": false,
      "inputs": [
        {
          "indexed": false,
          "internalType": "uint256",
          "name": "proposalId",
          "type": "uint256"
        },
        {
          "indexed": false,
          "internalType": "uint256",
          "name": "eta",
          "type": "uint256"
        }
      ],
      "name": "ProposalQueued",
      "type": "event"
    },
    {
      "anonymous": false,
      "inputs": [
        {
          "indexed": false,
          "internalType": "uint256",
          "name": "oldProposalThreshold",
          "type": "uint256"
        },
        {
          "indexed": false,
          "internalType": "uint256",
          "name": "newProposalThreshold",
          "type": "uint256"
        }
      ],
      "name": "ProposalThresholdSet",
      "type": "event"
    },
    {
      "anonymous": false,
      "inputs": [
        {
          "indexed": false,
          "internalType": "uint256",
          "name": "oldQuorumNumerator",
          "type": "uint256"
        },
        {
          "indexed": false,
          "internalType": "uint256",
          "name": "newQuorumNumerator",
          "type": "uint256"
        }
      ],
      "name": "QuorumNumeratorUpdated",
      "type": "event"
    },
    {
      "anonymous": false,
      "inputs": [
        {
          "indexed": false,
          "internalType": "address",
          "name": "oldTimelock",
          "type": "address"
        },
        {
          "indexed": false,
          "internalType": "address",
          "name": "newTimelock",
          "type": "address"
        }
      ],
      "name": "TimelockChange",
      "type": "event"
    },
    {
      "anonymous": false,
      "inputs": [
        {
          "indexed": true,
          "internalType": "address",
          "name": "voter",
          "type": "address"
        },
        {
          "indexed": false,
          "internalType": "uint256",
          "name": "proposalId",
          "type": "uint256"
        },
        {
          "indexed": false,
          "internalType": "uint8",
          "name": "support",
          "type": "uint8"
        },
        {
          "indexed": false,
          "internalType": "uint256",
          "name": "weight",
          "type": "uint256"
        },
        {
          "indexed": false,
          "internalType": "string",
          "name": "reason",
          "type": "string"
        }
      ],
      "name": "VoteCast",
      "type": "event"
    },
    {
      "anonymous": false,
      "inputs": [
        {
          "indexed": false,
          "internalType": "uint256",
          "name": "oldVotingDelay",
          "type": "uint256"
        },
        {
          "indexed": false,
          "internalType": "uint256",
          "name": "newVotingDelay",
          "type": "uint256"
        }
      ],
      "name": "VotingDelaySet",
      "type": "event"
    },
    {
      "anonymous": false,
      "inputs": [
        {
          "indexed": false,
          "internalType": "uint256",
          "name": "oldVotingPeriod",
          "type": "uint256"
        },
        {
          "indexed": false,
          "internalType": "uint256",
          "name": "newVotingPeriod",
          "type": "uint256"
        }
      ],
      "name": "VotingPeriodSet",
      "type": "event"
    },
    {
      "inputs": [],
      "name": "BALLOT_TYPEHASH",
      "outputs": [
        {
          "internalType": "bytes32",
          "name": "",
          "type": "bytes32"
        }
      ],
      "stateMutability": "view",
      "type": "function"
    },
    {
      "inputs": [],
      "name": "COUNTING_MODE",
      "outputs": [
        {
          "internalType": "string",
          "name": "",
          "type": "string"
        }
      ],
      "stateMutability": "pure",
      "type": "function"
    },
    {
      "inputs": [
        {
          "internalType": "address[]",
          "name": "targets",
          "type": "address[]"
        },
        {
          "internalType": "uint256[]",
          "name": "values",
          "type": "uint256[]"
        },
        {
          "internalType": "bytes[]",
          "name": "calldatas",
          "type": "bytes[]"
        },
        {
          "internalType": "bytes32",
          "name": "descriptionHash",
          "type": "bytes32"
        }
      ],
      "name": "cancel",
      "outputs": [
        {
          "internalType": "uint256",
          "name": "proposalId",
          "type": "uint256"
        }
      ],
      "stateMutability": "nonpayable",
      "type": "function"
    },
    {
      "inputs": [
        {
          "internalType": "uint256",
          "name": "proposalId",
          "type": "uint256"
        },
        {
          "internalType": "uint8",
          "name": "support",
          "type": "uint8"
        }
      ],
      "name": "castVote",
      "outputs": [
        {
          "internalType": "uint256",
          "name": "",
          "type": "uint256"
        }
      ],
      "stateMutability": "nonpayable",
      "type": "function"
    },
    {
      "inputs": [
        {
          "internalType": "uint256",
          "name": "proposalId",
          "type": "uint256"
        },
        {
          "internalType": "uint8",
          "name": "support",
          "type": "uint8"
        },
        {
          "internalType": "uint8",
          "name": "v",
          "type": "uint8"
        },
        {
          "internalType": "bytes32",
          "name": "r",
          "type": "bytes32"
        },
        {
          "internalType": "bytes32",
          "name": "s",
          "type": "bytes32"
        }
      ],
      "name": "castVoteBySig",
      "outputs": [
        {
          "internalType": "uint256",
          "name": "",
          "type": "uint256"
        }
      ],
      "stateMutability": "nonpayable",
      "type": "function"
    },
    {
      "inputs": [
        {
          "internalType": "uint256",
          "name": "proposalId",
          "type": "uint256"
        },
        {
          "internalType": "uint8",
          "name": "support",
          "type": "uint8"
        },
        {
          "internalType": "string",
          "name": "reason",
          "type": "string"
        }
      ],
      "name": "castVoteWithReason",
      "outputs": [
        {
          "internalType": "uint256",
          "name": "",
          "type": "uint256"
        }
      ],
      "stateMutability": "nonpayable",
      "type": "function"
    },
    {
      "inputs": [
        {
          "internalType": "address[]",
          "name": "targets",
          "type": "address[]"
        },
        {
          "internalType": "uint256[]",
          "name": "values",
          "type": "uint256[]"
        },
        {
          "internalType": "bytes[]",
          "name": "calldatas",
          "type": "bytes[]"
        },
        {
          "internalType": "bytes32",
          "name": "descriptionHash",
          "type": "bytes32"
        }
      ],
      "name": "execute",
      "outputs": [
        {
          "internalType": "uint256",
          "name": "",
          "type": "uint256"
        }
      ],
      "stateMutability": "payable",
      "type": "function"
    },
    {
      "inputs": [
        {
          "internalType": "address",
          "name": "account",
          "type": "address"
        },
        {
          "internalType": "uint256",
          "name": "blockNumber",
          "type": "uint256"
        }
      ],
      "name": "getVotes",
      "outputs": [
        {
          "internalType": "uint256",
          "name": "",
          "type": "uint256"
        }
      ],
      "stateMutability": "view",
      "type": "function"
    },
    {
      "inputs": [
        {
          "internalType": "uint256",
          "name": "proposalId",
          "type": "uint256"
        },
        {
          "internalType": "address",
          "name": "account",
          "type": "address"
        }
      ],
      "name": "hasVoted",
      "outputs": [
        {
          "internalType": "bool",
          "name": "",
          "type": "bool"
        }
      ],
      "stateMutability": "view",
      "type": "function"
    },
    {
      "inputs": [
        {
          "internalType": "address[]",
          "name": "targets",
          "type": "address[]"
        },
        {
          "internalType": "uint256[]",
          "name": "values",
          "type": "uint256[]"
        },
        {
          "internalType": "bytes[]",
          "name": "calldatas",
          "type": "bytes[]"
        },
        {
          "internalType": "bytes32",
          "name": "descriptionHash",
          "type": "bytes32"
        }
      ],
      "name": "hashProposal",
      "outputs": [
        {
          "internalType": "uint256",
          "name": "",
          "type": "uint256"
        }
      ],
      "stateMutability": "pure",
      "type": "function"
    },
    {
      "inputs": [],
      "name": "name",
      "outputs": [
        {
          "internalType": "string",
          "name": "",
          "type": "string"
        }
      ],
      "stateMutability": "view",
      "type": "function"
    },
    {
      "inputs": [
        {
          "internalType": "uint256",
          "name": "proposalId",
          "type": "uint256"
        }
      ],
      "name": "proposalDeadline",
      "outputs": [
        {
          "internalType": "uint256",
          "name": "",
          "type": "uint256"
        }
      ],
      "stateMutability": "view",
      "type": "function"
    },
    {
      "inputs": [
        {
          "internalType": "uint256",
          "name": "proposalId",
          "type": "uint256"
        }
      ],
      "name": "proposalEta",
      "outputs": [
        {
          "internalType": "uint256",
          "name": "",
          "type": "uint256"
        }
      ],
      "stateMutability": "view",
      "type": "function"
    },
    {
      "inputs": [
        {
          "internalType": "uint256",
          "name": "proposalId",
          "type": "uint256"
        }
      ],
      "name": "proposalSnapshot",
      "outputs": [
        {
          "internalType": "uint256",
          "name": "",
          "type": "uint256"
        }
      ],
      "stateMutability": "view",
      "type": "function"
    },
    {
      "inputs": [],
      "name": "proposalThreshold",
      "outputs": [
        {
          "internalType": "uint256",
          "name": "",
          "type": "uint256"
        }
      ],
      "stateMutability": "view",
      "type": "function"
    },
    {
      "inputs": [
        {
          "internalType": "uint256",
          "name": "proposalId",
          "type": "uint256"
        }
      ],
      "name": "proposalVotes",
      "outputs": [
        {
          "internalType": "uint256",
          "name": "againstVotes",
          "type": "uint256"
        },
        {
          "internalType": "uint256",
          "name": "forVotes",
          "type": "uint256"
        },
        {
          "internalType": "uint256",
          "name": "abstainVotes",
          "type": "uint256"
        }
      ],
      "stateMutability": "view",
      "type": "function"
    },
    {
      "inputs": [
        {
          "internalType": "address[]",
          "name": "targets",
          "type": "address[]"
        },
        {
          "internalType": "uint256[]",
          "name": "values",
          "type": "uint256[]"
        },
        {
          "internalType": "bytes[]",
          "name": "calldatas",
          "type": "bytes[]"
        },
        {
          "internalType": "string",
          "name": "description",
          "type": "string"
        }
      ],
      "name": "propose",
      "outputs": [
        {
          "internalType": "uint256",
          "name": "",
          "type": "uint256"
        }
      ],
      "stateMutability": "nonpayable",
      "type": "function"
    },
    {
      "inputs": [
        {
          "internalType": "address[]",
          "name": "targets",
          "type": "address[]"
        },
        {
          "internalType": "uint256[]",
          "name": "values",
          "type": "uint256[]"
        },
        {
          "internalType": "bytes[]",
          "name": "calldatas",
          "type": "bytes[]"
        },
        {
          "internalType": "bytes32",
          "name": "descriptionHash",
          "type": "bytes32"
        }
      ],
      "name": "queue",
      "outputs": [
        {
          "internalType": "uint256",
          "name": "",
          "type": "uint256"
        }
      ],
      "stateMutability": "nonpayable",
      "type": "function"
    },
    {
      "inputs": [
        {
          "internalType": "uint256",
          "name": "blockNumber",
          "type": "uint256"
        }
      ],
      "name": "quorum",
      "outputs": [
        {
          "internalType": "uint256",
          "name": "",
          "type": "uint256"
        }
      ],
      "stateMutability": "view",
      "type": "function"
    },
    {
      "inputs": [],
      "name": "quorumDenominator",
      "outputs": [
        {
          "internalType": "uint256",
          "name": "",
          "type": "uint256"
        }
      ],
      "stateMutability": "view",
      "type": "function"
    },
    {
      "inputs": [],
      "name": "quorumNumerator",
      "outputs": [
        {
          "internalType": "uint256",
          "name": "",
          "type": "uint256"
        }
      ],
      "stateMutability": "view",
      "type": "function"
    },
    {
      "inputs": [
        {
          "internalType": "address",
          "name": "target",
          "type": "address"
        },
        {
          "internalType": "uint256",
          "name": "value",
          "type": "uint256"
        },
        {
          "internalType": "bytes",
          "name": "data",
          "type": "bytes"
        }
      ],
      "name": "relay",
      "outputs": [],
      "stateMutability": "nonpayable",
      "type": "function"
    },
    {
      "inputs": [
        {
          "internalType": "uint256",
          "name": "newProposalThreshold",
          "type": "uint256"
        }
      ],
      "name": "setProposalThreshold",
      "outputs": [],
      "stateMutability": "nonpayable",
      "type": "function"
    },
    {
      "inputs": [
        {
          "internalType": "uint256",
          "name": "newVotingDelay",
          "type": "uint256"
        }
      ],
      "name": "setVotingDelay",
      "outputs": [],
      "stateMutability": "nonpayable",
      "type": "function"
    },
    {
      "inputs": [
        {
          "internalType": "uint256",
          "name": "newVotingPeriod",
          "type": "uint256"
        }
      ],
      "name": "setVotingPeriod",
      "outputs": [],
      "stateMutability": "nonpayable",
      "type": "function"
    },
    {
      "inputs": [
        {
          "internalType": "uint256",
          "name": "proposalId",
          "type": "uint256"
        }
      ],
      "name": "state",
      "outputs": [
        {
          "internalType": "enum IGovernor.ProposalState",
          "name": "",
          "type": "uint8"
        }
      ],
      "stateMutability": "view",
      "type": "function"
    },
    {
      "inputs": [
        {
          "internalType": "bytes4",
          "name": "interfaceId",
          "type": "bytes4"
        }
      ],
      "name": "supportsInterface",
      "outputs": [
        {
          "internalType": "bool",
          "name": "",
          "type": "bool"
        }
      ],
      "stateMutability": "view",
      "type": "function"
    },
    {
      "inputs": [],
      "name": "timelock",
      "outputs": [
        {
          "internalType": "address",
          "name": "",
          "type": "address"
        }
      ],
      "stateMutability": "view",
      "type": "function"
    },
    {
      "inputs": [],
      "name": "token",
      "outputs": [
        {
          "internalType": "contract ERC20Votes",
          "name": "",
          "type": "address"
        }
      ],
      "stateMutability": "view",
      "type": "function"
    },
    {
      "inputs": [
        {
          "internalType": "uint256",
          "name": "newQuorumNumerator",
          "type": "uint256"
        }
      ],
      "name": "updateQuorumNumerator",
      "outputs": [],
      "stateMutability": "nonpayable",
      "type": "function"
    },
    {
      "inputs": [
        {
          "internalType": "contract TimelockController",
          "name": "newTimelock",
          "type": "address"
        }
      ],
      "name": "updateTimelock",
      "outputs": [],
      "stateMutability": "nonpayable",
      "type": "function"
    },
    {
      "inputs": [],
      "name": "version",
      "outputs": [
        {
          "internalType": "string",
          "name": "",
          "type": "string"
        }
      ],
      "stateMutability": "view",
      "type": "function"
    },
    {
      "inputs": [],
      "name": "votingDelay",
      "outputs": [
        {
          "internalType": "uint256",
          "name": "",
          "type": "uint256"
        }
      ],
      "stateMutability": "view",
      "type": "function"
    },
    {
      "inputs": [],
      "name": "votingPeriod",
      "outputs": [
        {
          "internalType": "uint256",
          "name": "",
          "type": "uint256"
        }
      ],
      "stateMutability": "view",
      "type": "function"
    },
    {
      "stateMutability": "payable",
      "type": "receive"
    }
  ],
  "bytecode": "0x6101606040523480156200001257600080fd5b506040516200635138038062006351833981810160405281019062000038919062000606565b808583868660008b8062000051620001bf60201b60201c565b60008280519060200120905060008280519060200120905060007f8b73c3c69bb8fe3d512ecc4cf759cc79239f7b179b0ffacaa9a75d522b39400f90508260e081815250508161010081815250504660a08181525050620000ba818484620001fc60201b60201c565b608081815250503073ffffffffffffffffffffffffffffffffffffffff1660c08173ffffffffffffffffffffffffffffffffffffffff1660601b81525050806101208181525050505050505080600090805190602001906200011e9291906200049f565b505062000131836200023860201b60201c565b62000142826200027f60201b60201c565b62000153816200030c60201b60201c565b50505062000167816200035360201b60201c565b508073ffffffffffffffffffffffffffffffffffffffff166101408173ffffffffffffffffffffffffffffffffffffffff1660601b8152505050620001b281620003f460201b60201c565b5050505050505062000b48565b60606040518060400160405280600181526020017f3100000000000000000000000000000000000000000000000000000000000000815250905090565b600083838346306040516020016200021995949392919062000763565b6040516020818303038152906040528051906020012090509392505050565b7fc565b045403dc03c2eea82b81a0465edad9e2e7fc4d97e11421c209da93d7a93600254826040516200026d92919062000804565b60405180910390a18060028190555050565b60008111620002c5576040517f08c379a0000000000000000000000000000000000000000000000000000000008152600401620002bc90620007e2565b60405180910390fd5b7f7e3f7f0708a84de9203036abaa450dccc85ad5ff52f78c170f3edb55cf5e882860035482604051620002fa92919062000804565b60405180910390a18060038190555050565b7fccb45da8d5717e6c4544694297c4ba5cf151d455c9bb0ed4fc7a38411bc05461600454826040516200034192919062000804565b60405180910390a18060048190555050565b7f08f74ea46ef7894f65eabfb5e6e695de773a000b47c529ab559178069b226401600560009054906101000a900473ffffffffffffffffffffffffffffffffffffffff1682604051620003a892919062000736565b60405180910390a180600560006101000a81548173ffffffffffffffffffffffffffffffffffffffff021916908373ffffffffffffffffffffffffffffffffffffffff16021790555050565b620004046200049660201b60201c565b81111562000449576040517f08c379a00000000000000000000000000000000000000000000000000000000081526004016200044090620007c0565b60405180910390fd5b60006007549050816007819055507f0553476bf02ef2726e8ce5ced78d63e26e602e4a2257b1f559418e24b463399781836040516200048a92919062000804565b60405180910390a15050565b60006064905090565b828054620004ad906200095b565b90600052602060002090601f016020900481019282620004d157600085556200051d565b82601f10620004ec57805160ff19168380011785556200051d565b828001600101855582156200051d579182015b828111156200051c578251825591602001919060010190620004ff565b5b5090506200052c919062000530565b5090565b5b808211156200054b57600081600090555060010162000531565b5090565b60006200056662000560846200085a565b62000831565b9050828152602081018484840111156200057f57600080fd5b6200058c84828562000925565b509392505050565b600081519050620005a58162000afa565b92915050565b600081519050620005bc8162000b14565b92915050565b600082601f830112620005d457600080fd5b8151620005e68482602086016200054f565b91505092915050565b600081519050620006008162000b2e565b92915050565b60008060008060008060c087890312156200062057600080fd5b600087015167ffffffffffffffff8111156200063b57600080fd5b6200064989828a01620005c2565b96505060206200065c89828a0162000594565b95505060406200066f89828a01620005ef565b94505060606200068289828a01620005ef565b93505060806200069589828a01620005ab565b92505060a0620006a889828a01620005ef565b9150509295509295509295565b620006c081620008a1565b82525050565b620006d181620008c9565b82525050565b6000620006e660438362000890565b9150620006f38262000a36565b606082019050919050565b60006200070d60278362000890565b91506200071a8262000aab565b604082019050919050565b62000730816200091b565b82525050565b60006040820190506200074d6000830185620006b5565b6200075c6020830184620006b5565b9392505050565b600060a0820190506200077a6000830188620006c6565b620007896020830187620006c6565b620007986040830186620006c6565b620007a7606083018562000725565b620007b66080830184620006b5565b9695505050505050565b60006020820190508181036000830152620007db81620006d7565b9050919050565b60006020820190508181036000830152620007fd81620006fe565b9050919050565b60006040820190506200081b600083018562000725565b6200082a602083018462000725565b9392505050565b60006200083d62000850565b90506200084b828262000991565b919050565b6000604051905090565b600067ffffffffffffffff821115620008785762000877620009f6565b5b620008838262000a25565b9050602081019050919050565b600082825260208201905092915050565b6000620008ae82620008fb565b9050919050565b6000620008c282620008fb565b9050919050565b6000819050919050565b6000620008e082620008a1565b9050919050565b6000620008f482620008b5565b9050919050565b600073ffffffffffffffffffffffffffffffffffffffff82169050919050565b6000819050919050565b60005b838110156200094557808201518184015260208101905062000928565b8381111562000955576000848401525b50505050565b600060028204905060018216806200097457607f821691505b602082108114156200098b576200098a620009c7565b5b50919050565b6200099c8262000a25565b810181811067ffffffffffffffff82111715620009be57620009bd620009f6565b5b80604052505050565b7f4e487b7100000000000000000000000000000000000000000000000000000000600052602260045260246000fd5b7f4e487b7100000000000000000000000000000000000000000000000000000000600052604160045260246000fd5b6000601f19601f8301169050919050565b7f476f7665726e6f72566f74657351756f72756d4672616374696f6e3a2071756f60008201527f72756d4e756d657261746f72206f7665722071756f72756d44656e6f6d696e6160208201527f746f720000000000000000000000000000000000000000000000000000000000604082015250565b7f476f7665726e6f7253657474696e67733a20766f74696e6720706572696f642060008201527f746f6f206c6f7700000000000000000000000000000000000000000000000000602082015250565b62000b0581620008d3565b811462000b1157600080fd5b50565b62000b1f81620008e7565b811462000b2b57600080fd5b50565b62000b39816200091b565b811462000b4557600080fd5b50565b60805160a05160c05160601c60e05161010051610120516101405160601c61579a62000bb760003960008181611a650152818161226e015261237801526000612600015260006126420152600061262101526000612556015260006125ac015260006125d5015261579a6000f3fe6080604052600436106101fd5760003560e01c80637d5e81e21161010d578063c59057e4116100a0578063ea0217cf1161006f578063ea0217cf14610822578063eb9019d41461084b578063ece40cc114610888578063f8ce560a146108b1578063fc0c546a146108ee57610243565b8063c59057e414610764578063d33219b4146107a1578063dd4e2ba5146107cc578063deaaa7cc146107f757610243565b8063ab58fb8e116100dc578063ab58fb8e14610696578063b58131b0146106d3578063c01f9e37146106fe578063c28bc2fa1461073b57610243565b80637d5e81e2146105da57806397c3d33414610617578063a7713a7014610642578063a890c9101461066d57610243565b80633bccf4fd11610190578063544ffc9c1161015f578063544ffc9c146104cd57806354fd4d501461050c578063567813881461053757806370b0f660146105745780637b3c71d31461059d57610243565b80633bccf4fd146103d95780633e4f49e6146104165780634385963214610453578063452115d61461049057610243565b8063160cbed7116101cc578063160cbed7146103045780632656227d146103415780632d63f693146103715780633932abb1146103ae57610243565b806301ffc9a71461024857806302a251a31461028557806306f3f9e6146102b057806306fdde03146102d957610243565b36610243573073ffffffffffffffffffffffffffffffffffffffff16610221610919565b73ffffffffffffffffffffffffffffffffffffffff161461024157600080fd5b005b600080fd5b34801561025457600080fd5b5061026f600480360381019061026a9190613a99565b610928565b60405161027c9190614500565b60405180910390f35b34801561029157600080fd5b5061029a61093a565b6040516102a791906148dd565b60405180910390f35b3480156102bc57600080fd5b506102d760048036038101906102d29190613aeb565b610944565b005b3480156102e557600080fd5b506102ee6109cc565b6040516102fb919061463b565b60405180910390f35b34801561031057600080fd5b5061032b600480360381019061032691906138d9565b610a5e565b60405161033891906148dd565b60405180910390f35b61035b600480360381019061035691906138d9565b610d82565b60405161036891906148dd565b60405180910390f35b34801561037d57600080fd5b5061039860048036038101906103939190613aeb565b610f4d565b6040516103a591906148dd565b60405180910390f35b3480156103ba57600080fd5b506103c3610fbb565b6040516103d091906148dd565b60405180910390f35b3480156103e557600080fd5b5061040060048036038101906103fb9190613c21565b610fc5565b60405161040d91906148dd565b60405180910390f35b34801561042257600080fd5b5061043d60048036038101906104389190613aeb565b61104f565b60405161044a9190614620565b60405180910390f35b34801561045f57600080fd5b5061047a60048036038101906104759190613b3d565b611061565b6040516104879190614500565b60405180910390f35b34801561049c57600080fd5b506104b760048036038101906104b291906138d9565b6110cc565b6040516104c491906148dd565b60405180910390f35b3480156104d957600080fd5b506104f460048036038101906104ef9190613aeb565b6110e4565b604051610503939291906149d1565b60405180910390f35b34801561051857600080fd5b5061052161111c565b60405161052e919061463b565b60405180910390f35b34801561054357600080fd5b5061055e60048036038101906105599190613b79565b611159565b60405161056b91906148dd565b60405180910390f35b34801561058057600080fd5b5061059b60048036038101906105969190613aeb565b61118a565b005b3480156105a957600080fd5b506105c460048036038101906105bf9190613bb5565b611212565b6040516105d191906148dd565b60405180910390f35b3480156105e657600080fd5b5061060160048036038101906105fc9190613984565b61127a565b60405161060e91906148dd565b60405180910390f35b34801561062357600080fd5b5061062c6115a0565b60405161063991906148dd565b60405180910390f35b34801561064e57600080fd5b506106576115a9565b60405161066491906148dd565b60405180910390f35b34801561067957600080fd5b50610694600480360381019061068f9190613ac2565b6115b3565b005b3480156106a257600080fd5b506106bd60048036038101906106b89190613aeb565b61163b565b6040516106ca91906148dd565b60405180910390f35b3480156106df57600080fd5b506106e8611717565b6040516106f591906148dd565b60405180910390f35b34801561070a57600080fd5b5061072560048036038101906107209190613aeb565b611726565b60405161073291906148dd565b60405180910390f35b34801561074757600080fd5b50610762600480360381019061075d919061386d565b611794565b005b34801561077057600080fd5b5061078b600480360381019061078691906138d9565b611866565b60405161079891906148dd565b60405180910390f35b3480156107ad57600080fd5b506107b66118a2565b6040516107c3919061435b565b60405180910390f35b3480156107d857600080fd5b506107e16118cc565b6040516107ee919061463b565b60405180910390f35b34801561080357600080fd5b5061080c611909565b604051610819919061451b565b60405180910390f35b34801561082e57600080fd5b5061084960048036038101906108449190613aeb565b61192d565b005b34801561085757600080fd5b50610872600480360381019061086d9190613831565b6119b5565b60405161087f91906148dd565b60405180910390f35b34801561089457600080fd5b506108af60048036038101906108aa9190613aeb565b6119c9565b005b3480156108bd57600080fd5b506108d860048036038101906108d39190613aeb565b611a51565b6040516108e591906148dd565b60405180910390f35b3480156108fa57600080fd5b50610903611a63565b6040516109109190614605565b60405180910390f35b6000610923611a87565b905090565b600061093382611ab1565b9050919050565b6000600354905090565b61094c610919565b73ffffffffffffffffffffffffffffffffffffffff1661096a611b2b565b73ffffffffffffffffffffffffffffffffffffffff16146109c0576040517f08c379a00000000000000000000000000000000000000000000000000000000081526004016109b79061467d565b60405180910390fd5b6109c981611b33565b50565b6060600080546109db90614f79565b80601f0160208091040260200160405190810160405280929190818152602001828054610a0790614f79565b8015610a545780601f10610a2957610100808354040283529160200191610a54565b820191906000526020600020905b815481529060010190602001808311610a3757829003601f168201915b5050505050905090565b600080610a6d86868686611866565b905060046007811115610aa9577f4e487b7100000000000000000000000000000000000000000000000000000000600052602160045260246000fd5b610ab28261104f565b6007811115610aea577f4e487b7100000000000000000000000000000000000000000000000000000000600052602160045260246000fd5b14610b2a576040517f08c379a0000000000000000000000000000000000000000000000000000000008152600401610b219061483d565b60405180910390fd5b6000600560009054906101000a900473ffffffffffffffffffffffffffffffffffffffff1673ffffffffffffffffffffffffffffffffffffffff1663f27a0c926040518163ffffffff1660e01b815260040160206040518083038186803b158015610b9457600080fd5b505afa158015610ba8573d6000803e3d6000fd5b505050506040513d601f19601f82011682018060405250810190610bcc9190613b14565b9050600560009054906101000a900473ffffffffffffffffffffffffffffffffffffffff1673ffffffffffffffffffffffffffffffffffffffff1663b1c5f4278888886000896040518663ffffffff1660e01b8152600401610c32959493929190614422565b60206040518083038186803b158015610c4a57600080fd5b505afa158015610c5e573d6000803e3d6000fd5b505050506040513d601f19601f82011682018060405250810190610c829190613a70565b6006600084815260200190815260200160002081905550600560009054906101000a900473ffffffffffffffffffffffffffffffffffffffff1673ffffffffffffffffffffffffffffffffffffffff16638f2a0bb0888888600089876040518763ffffffff1660e01b8152600401610cff9695949392919061448a565b600060405180830381600087803b158015610d1957600080fd5b505af1158015610d2d573d6000803e3d6000fd5b505050507f9a2e42fd6722813d69113e7d0079d3d940171428df7373df9c7f7617cfda2892828242610d5f9190614ca2565b604051610d6d9291906149a8565b60405180910390a18192505050949350505050565b600080610d9186868686611866565b90506000610d9e8261104f565b905060046007811115610dda577f4e487b7100000000000000000000000000000000000000000000000000000000600052602160045260246000fd5b816007811115610e13577f4e487b7100000000000000000000000000000000000000000000000000000000600052602160045260246000fd5b1480610e8f575060056007811115610e54577f4e487b7100000000000000000000000000000000000000000000000000000000600052602160045260246000fd5b816007811115610e8d577f4e487b7100000000000000000000000000000000000000000000000000000000600052602160045260246000fd5b145b610ece576040517f08c379a0000000000000000000000000000000000000000000000000000000008152600401610ec59061483d565b60405180910390fd5b600180600084815260200190815260200160002060020160006101000a81548160ff0219169083151502179055507f712ae1383f79ac853f8d882153778e0260ef8f03b504e2866e0593e04d2b291f82604051610f2b91906148dd565b60405180910390a1610f408288888888611bc8565b8192505050949350505050565b6000610faa600160008481526020019081526020016000206000016040518060200160405290816000820160009054906101000a900467ffffffffffffffff1667ffffffffffffffff1667ffffffffffffffff1681525050611bdc565b67ffffffffffffffff169050919050565b6000600254905090565b60008061102661101e7f150214d74d59b7d1e90c73fc22ef3d991dd0a76b046543d4d80ab92d2a50328f898960405160200161100393929190614589565b60405160208183030381529060405280519060200120611bea565b868686611c04565b905061104387828860405180602001604052806000815250611c2f565b91505095945050505050565b600061105a82611dcf565b9050919050565b60006008600084815260200190815260200160002060030160008373ffffffffffffffffffffffffffffffffffffffff1673ffffffffffffffffffffffffffffffffffffffff16815260200190815260200160002060009054906101000a900460ff16905092915050565b60006110da8585858561200d565b9050949350505050565b600080600080600860008681526020019081526020016000209050806000015481600101548260020154935093509350509193909250565b60606040518060400160405280600181526020017f3100000000000000000000000000000000000000000000000000000000000000815250905090565b600080611164611b2b565b905061118184828560405180602001604052806000815250611c2f565b91505092915050565b611192610919565b73ffffffffffffffffffffffffffffffffffffffff166111b0611b2b565b73ffffffffffffffffffffffffffffffffffffffff1614611206576040517f08c379a00000000000000000000000000000000000000000000000000000000081526004016111fd9061467d565b60405180910390fd5b61120f81612025565b50565b60008061121d611b2b565b905061126f86828787878080601f016020809104026020016040519081016040528093929190818152602001838380828437600081840152601f19601f82011690508083019250505050505050611c2f565b915050949350505050565b6000611284611717565b61129a336001436112959190614dc1565b6119b5565b10156112db576040517f08c379a00000000000000000000000000000000000000000000000000000000081526004016112d2906146bd565b60405180910390fd5b60006112f08686868680519060200120611866565b90508451865114611336576040517f08c379a000000000000000000000000000000000000000000000000000000000815260040161132d906146fd565b60405180910390fd5b835186511461137a576040517f08c379a0000000000000000000000000000000000000000000000000000000008152600401611371906146fd565b60405180910390fd5b60008651116113be576040517f08c379a00000000000000000000000000000000000000000000000000000000081526004016113b5906147bd565b60405180910390fd5b600060016000838152602001908152602001600020905061141e816000016040518060200160405290816000820160009054906101000a900467ffffffffffffffff1667ffffffffffffffff1667ffffffffffffffff168152505061206a565b61145d576040517f08c379a00000000000000000000000000000000000000000000000000000000081526004016114549061489d565b60405180910390fd5b600061146f61146a610fbb565b612084565b61147843612084565b6114829190614cf8565b9050600061149661149161093a565b612084565b826114a19190614cf8565b90506114b982846000016120db90919063ffffffff16565b6114cf81846001016120db90919063ffffffff16565b7f7d84a6263ae0d98d3329bd7b46bb4e8d6f98cd35a7adb45c274c8b7fd5ebd5e0846114f9611b2b565b8b8b8d5167ffffffffffffffff81111561153c577f4e487b7100000000000000000000000000000000000000000000000000000000600052604160045260246000fd5b60405190808252806020026020018201604052801561156f57816020015b606081526020019060019003908161155a5790505b508c88888e604051611589999897969594939291906148f8565b60405180910390a183945050505050949350505050565b60006064905090565b6000600754905090565b6115bb610919565b73ffffffffffffffffffffffffffffffffffffffff166115d9611b2b565b73ffffffffffffffffffffffffffffffffffffffff161461162f576040517f08c379a00000000000000000000000000000000000000000000000000000000081526004016116269061467d565b60405180910390fd5b6116388161210a565b50565b600080600560009054906101000a900473ffffffffffffffffffffffffffffffffffffffff1673ffffffffffffffffffffffffffffffffffffffff1663d45c443560066000868152602001908152602001600020546040518263ffffffff1660e01b81526004016116ac919061451b565b60206040518083038186803b1580156116c457600080fd5b505afa1580156116d8573d6000803e3d6000fd5b505050506040513d601f19601f820116820180604052508101906116fc9190613b14565b90506001811461170c578061170f565b60005b915050919050565b60006117216121a9565b905090565b6000611783600160008481526020019081526020016000206001016040518060200160405290816000820160009054906101000a900467ffffffffffffffff1667ffffffffffffffff1667ffffffffffffffff1681525050611bdc565b67ffffffffffffffff169050919050565b61179c610919565b73ffffffffffffffffffffffffffffffffffffffff166117ba611b2b565b73ffffffffffffffffffffffffffffffffffffffff1614611810576040517f08c379a00000000000000000000000000000000000000000000000000000000081526004016118079061467d565b60405180910390fd5b61185f8483838080601f016020809104026020016040519081016040528093929190818152602001838380828437600081840152601f19601f82011690508083019250505050505050856121b3565b5050505050565b60008484848460405160200161187f94939291906143c8565b6040516020818303038152906040528051906020012060001c9050949350505050565b6000600560009054906101000a900473ffffffffffffffffffffffffffffffffffffffff16905090565b60606040518060400160405280602081526020017f737570706f72743d627261766f2671756f72756d3d666f722c6162737461696e815250905090565b7f150214d74d59b7d1e90c73fc22ef3d991dd0a76b046543d4d80ab92d2a50328f81565b611935610919565b73ffffffffffffffffffffffffffffffffffffffff16611953611b2b565b73ffffffffffffffffffffffffffffffffffffffff16146119a9576040517f08c379a00000000000000000000000000000000000000000000000000000000081526004016119a09061467d565b60405180910390fd5b6119b2816121e2565b50565b60006119c1838361226a565b905092915050565b6119d1610919565b73ffffffffffffffffffffffffffffffffffffffff166119ef611b2b565b73ffffffffffffffffffffffffffffffffffffffff1614611a45576040517f08c379a0000000000000000000000000000000000000000000000000000000008152600401611a3c9061467d565b60405180910390fd5b611a4e8161231f565b50565b6000611a5c82612364565b9050919050565b7f000000000000000000000000000000000000000000000000000000000000000081565b6000600560009054906101000a900473ffffffffffffffffffffffffffffffffffffffff16905090565b60007f6e665ced000000000000000000000000000000000000000000000000000000007bffffffffffffffffffffffffffffffffffffffffffffffffffffffff1916827bffffffffffffffffffffffffffffffffffffffffffffffffffffffff19161480611b245750611b238261243a565b5b9050919050565b600033905090565b611b3b6115a0565b811115611b7d576040517f08c379a0000000000000000000000000000000000000000000000000000000008152600401611b749061469d565b60405180910390fd5b60006007549050816007819055507f0553476bf02ef2726e8ce5ced78d63e26e602e4a2257b1f559418e24b46339978183604051611bbc9291906149a8565b60405180910390a15050565b611bd585858585856124b4565b5050505050565b600081600001519050919050565b6000611bfd611bf7612552565b8361266c565b9050919050565b6000806000611c158787878761269f565b91509150611c22816127ac565b8192505050949350505050565b60008060016000878152602001908152602001600020905060016007811115611c81577f4e487b7100000000000000000000000000000000000000000000000000000000600052602160045260246000fd5b611c8a8761104f565b6007811115611cc2577f4e487b7100000000000000000000000000000000000000000000000000000000600052602160045260246000fd5b14611d02576040517f08c379a0000000000000000000000000000000000000000000000000000000008152600401611cf99061479d565b60405180910390fd5b6000611d6086611d51846000016040518060200160405290816000820160009054906101000a900467ffffffffffffffff1667ffffffffffffffff1667ffffffffffffffff1681525050611bdc565b67ffffffffffffffff166119b5565b9050611d6e87878784612afd565b8573ffffffffffffffffffffffffffffffffffffffff167fb8e138887d0aa13bab447e82de9d5c1777041ecd21ca36ba824ff1e6c07ddda488878488604051611dba9493929190614a08565b60405180910390a28092505050949350505050565b600080611ddb83612d75565b905060046007811115611e17577f4e487b7100000000000000000000000000000000000000000000000000000000600052602160045260246000fd5b816007811115611e50577f4e487b7100000000000000000000000000000000000000000000000000000000600052602160045260246000fd5b14611e5e5780915050612008565b6000600660008581526020019081526020016000205490506000801b811415611e8b578192505050612008565b600560009054906101000a900473ffffffffffffffffffffffffffffffffffffffff1673ffffffffffffffffffffffffffffffffffffffff16632ab0f529826040518263ffffffff1660e01b8152600401611ee6919061451b565b60206040518083038186803b158015611efe57600080fd5b505afa158015611f12573d6000803e3d6000fd5b505050506040513d601f19601f82011682018060405250810190611f369190613a47565b15611f4657600792505050612008565b600560009054906101000a900473ffffffffffffffffffffffffffffffffffffffff1673ffffffffffffffffffffffffffffffffffffffff1663584b153e826040518263ffffffff1660e01b8152600401611fa1919061451b565b60206040518083038186803b158015611fb957600080fd5b505afa158015611fcd573d6000803e3d6000fd5b505050506040513d601f19601f82011682018060405250810190611ff19190613a47565b1561200157600592505050612008565b6002925050505b919050565b600061201b85858585612e8a565b9050949350505050565b7fc565b045403dc03c2eea82b81a0465edad9e2e7fc4d97e11421c209da93d7a93600254826040516120589291906149a8565b60405180910390a18060028190555050565b600080826000015167ffffffffffffffff16149050919050565b600067ffffffffffffffff80168211156120d3576040517f08c379a00000000000000000000000000000000000000000000000000000000081526004016120ca906147fd565b60405180910390fd5b819050919050565b808260000160006101000a81548167ffffffffffffffff021916908367ffffffffffffffff1602179055505050565b7f08f74ea46ef7894f65eabfb5e6e695de773a000b47c529ab559178069b226401600560009054906101000a900473ffffffffffffffffffffffffffffffffffffffff168260405161215d929190614376565b60405180910390a180600560006101000a81548173ffffffffffffffffffffffffffffffffffffffff021916908373ffffffffffffffffffffffffffffffffffffffff16021790555050565b6000600454905090565b60606121d984848460405180606001604052806029815260200161573c60299139612f7c565b90509392505050565b60008111612225576040517f08c379a000000000000000000000000000000000000000000000000000000000815260040161221c9061471d565b60405180910390fd5b7f7e3f7f0708a84de9203036abaa450dccc85ad5ff52f78c170f3edb55cf5e8828600354826040516122589291906149a8565b60405180910390a18060038190555050565b60007f000000000000000000000000000000000000000000000000000000000000000073ffffffffffffffffffffffffffffffffffffffff16633a46b1a884846040518363ffffffff1660e01b81526004016122c792919061439f565b60206040518083038186803b1580156122df57600080fd5b505afa1580156122f3573d6000803e3d6000fd5b505050506040513d601f19601f820116820180604052508101906123179190613b14565b905092915050565b7fccb45da8d5717e6c4544694297c4ba5cf151d455c9bb0ed4fc7a38411bc05461600454826040516123529291906149a8565b60405180910390a18060048190555050565b600061236e6115a0565b6123766115a9565b7f000000000000000000000000000000000000000000000000000000000000000073ffffffffffffffffffffffffffffffffffffffff16638e539e8c856040518263ffffffff1660e01b81526004016123cf91906148dd565b60206040518083038186803b1580156123e757600080fd5b505afa1580156123fb573d6000803e3d6000fd5b505050506040513d601f19601f8201168201806040525081019061241f9190613b14565b6124299190614d67565b6124339190614d36565b9050919050565b60007fbf26d897000000000000000000000000000000000000000000000000000000007bffffffffffffffffffffffffffffffffffffffffffffffffffffffff1916827bffffffffffffffffffffffffffffffffffffffffffffffffffffffff191614806124ad57506124ac82613090565b5b9050919050565b600560009054906101000a900473ffffffffffffffffffffffffffffffffffffffff1673ffffffffffffffffffffffffffffffffffffffff1663e38335e5348686866000876040518763ffffffff1660e01b8152600401612519959493929190614422565b6000604051808303818588803b15801561253257600080fd5b505af1158015612546573d6000803e3d6000fd5b50505050505050505050565b60007f000000000000000000000000000000000000000000000000000000000000000073ffffffffffffffffffffffffffffffffffffffff163073ffffffffffffffffffffffffffffffffffffffff161480156125ce57507f000000000000000000000000000000000000000000000000000000000000000046145b156125fb577f00000000000000000000000000000000000000000000000000000000000000009050612669565b6126667f00000000000000000000000000000000000000000000000000000000000000007f00000000000000000000000000000000000000000000000000000000000000007f00000000000000000000000000000000000000000000000000000000000000006130fa565b90505b90565b60008282604051602001612681929190614324565b60405160208183030381529060405280519060200120905092915050565b6000807f7fffffffffffffffffffffffffffffff5d576e7357a4501ddfe92f46681b20a08360001c11156126da5760006003915091506127a3565b601b8560ff16141580156126f25750601c8560ff1614155b156127045760006004915091506127a3565b60006001878787876040516000815260200160405260405161272994939291906145c0565b6020604051602081039080840390855afa15801561274b573d6000803e3d6000fd5b505050602060405103519050600073ffffffffffffffffffffffffffffffffffffffff168173ffffffffffffffffffffffffffffffffffffffff16141561279a576000600192509250506127a3565b80600092509250505b94509492505050565b600060048111156127e6577f4e487b7100000000000000000000000000000000000000000000000000000000600052602160045260246000fd5b81600481111561281f577f4e487b7100000000000000000000000000000000000000000000000000000000600052602160045260246000fd5b141561282a57612afa565b60016004811115612864577f4e487b7100000000000000000000000000000000000000000000000000000000600052602160045260246000fd5b81600481111561289d577f4e487b7100000000000000000000000000000000000000000000000000000000600052602160045260246000fd5b14156128de576040517f08c379a00000000000000000000000000000000000000000000000000000000081526004016128d59061465d565b60405180910390fd5b60026004811115612918577f4e487b7100000000000000000000000000000000000000000000000000000000600052602160045260246000fd5b816004811115612951577f4e487b7100000000000000000000000000000000000000000000000000000000600052602160045260246000fd5b1415612992576040517f08c379a0000000000000000000000000000000000000000000000000000000008152600401612989906146dd565b60405180910390fd5b600360048111156129cc577f4e487b7100000000000000000000000000000000000000000000000000000000600052602160045260246000fd5b816004811115612a05577f4e487b7100000000000000000000000000000000000000000000000000000000600052602160045260246000fd5b1415612a46576040517f08c379a0000000000000000000000000000000000000000000000000000000008152600401612a3d9061473d565b60405180910390fd5b600480811115612a7f577f4e487b7100000000000000000000000000000000000000000000000000000000600052602160045260246000fd5b816004811115612ab8577f4e487b7100000000000000000000000000000000000000000000000000000000600052602160045260246000fd5b1415612af9576040517f08c379a0000000000000000000000000000000000000000000000000000000008152600401612af0906147dd565b60405180910390fd5b5b50565b60006008600086815260200190815260200160002090508060030160008573ffffffffffffffffffffffffffffffffffffffff1673ffffffffffffffffffffffffffffffffffffffff16815260200190815260200160002060009054906101000a900460ff1615612ba3576040517f08c379a0000000000000000000000000000000000000000000000000000000008152600401612b9a9061475d565b60405180910390fd5b60018160030160008673ffffffffffffffffffffffffffffffffffffffff1673ffffffffffffffffffffffffffffffffffffffff16815260200190815260200160002060006101000a81548160ff02191690831515021790555060006002811115612c37577f4e487b7100000000000000000000000000000000000000000000000000000000600052602160045260246000fd5b60ff168360ff161415612c645781816000016000828254612c589190614ca2565b92505081905550612d6e565b60016002811115612c9e577f4e487b7100000000000000000000000000000000000000000000000000000000600052602160045260246000fd5b60ff168360ff161415612ccb5781816001016000828254612cbf9190614ca2565b92505081905550612d6d565b600280811115612d04577f4e487b7100000000000000000000000000000000000000000000000000000000600052602160045260246000fd5b60ff168360ff161415612d315781816002016000828254612d259190614ca2565b92505081905550612d6c565b6040517f08c379a0000000000000000000000000000000000000000000000000000000008152600401612d639061487d565b60405180910390fd5b5b5b5050505050565b6000806001600084815260200190815260200160002090508060020160009054906101000a900460ff1615612dae576007915050612e85565b8060020160019054906101000a900460ff1615612dcf576002915050612e85565b6000612dda84610f4d565b90506000811415612e20576040517f08c379a0000000000000000000000000000000000000000000000000000000008152600401612e179061485d565b60405180910390fd5b438110612e3257600092505050612e85565b6000612e3d85611726565b9050438110612e525760019350505050612e85565b612e5b85613134565b8015612e6c5750612e6b8561317b565b5b15612e7d5760049350505050612e85565b600393505050505b919050565b600080612e99868686866131a6565b90506000801b600660008381526020019081526020016000205414612f7057600560009054906101000a900473ffffffffffffffffffffffffffffffffffffffff1673ffffffffffffffffffffffffffffffffffffffff1663c4d252f560066000848152602001908152602001600020546040518263ffffffff1660e01b8152600401612f26919061451b565b600060405180830381600087803b158015612f4057600080fd5b505af1158015612f54573d6000803e3d6000fd5b5050505060066000828152602001908152602001600020600090555b80915050949350505050565b606082471015612fc1576040517f08c379a0000000000000000000000000000000000000000000000000000000008152600401612fb89061477d565b60405180910390fd5b612fca856133e3565b613009576040517f08c379a0000000000000000000000000000000000000000000000000000000008152600401613000906148bd565b60405180910390fd5b6000808673ffffffffffffffffffffffffffffffffffffffff168587604051613032919061430d565b60006040518083038185875af1925050503d806000811461306f576040519150601f19603f3d011682016040523d82523d6000602084013e613074565b606091505b50915091506130848282866133f6565b92505050949350505050565b60007f01ffc9a7000000000000000000000000000000000000000000000000000000007bffffffffffffffffffffffffffffffffffffffffffffffffffffffff1916827bffffffffffffffffffffffffffffffffffffffffffffffffffffffff1916149050919050565b60008383834630604051602001613115959493929190614536565b6040516020818303038152906040528051906020012090509392505050565b600080600860008481526020019081526020016000209050806002015481600101546131609190614ca2565b61317161316c85610f4d565b611a51565b1115915050919050565b6000806008600084815260200190815260200160002090508060000154816001015411915050919050565b6000806131b586868686611866565b905060006131c28261104f565b9050600260078111156131fe577f4e487b7100000000000000000000000000000000000000000000000000000000600052602160045260246000fd5b816007811115613237577f4e487b7100000000000000000000000000000000000000000000000000000000600052602160045260246000fd5b141580156132b657506006600781111561327a577f4e487b7100000000000000000000000000000000000000000000000000000000600052602160045260246000fd5b8160078111156132b3577f4e487b7100000000000000000000000000000000000000000000000000000000600052602160045260246000fd5b14155b801561333257506007808111156132f6577f4e487b7100000000000000000000000000000000000000000000000000000000600052602160045260246000fd5b81600781111561332f577f4e487b7100000000000000000000000000000000000000000000000000000000600052602160045260246000fd5b14155b613371576040517f08c379a00000000000000000000000000000000000000000000000000000000081526004016133689061481d565b60405180910390fd5b600180600084815260200190815260200160002060020160016101000a81548160ff0219169083151502179055507f789cf55be980739dad1d0699b93b58e806b51c9d96619bfa8fe0a28abaa7b30c826040516133ce91906148dd565b60405180910390a18192505050949350505050565b600080823b905060008111915050919050565b6060831561340657829050613456565b6000835111156134195782518084602001fd5b816040517f08c379a000000000000000000000000000000000000000000000000000000000815260040161344d919061463b565b60405180910390fd5b9392505050565b600061347061346b84614a79565b614a54565b9050808382526020820190508285602086028201111561348f57600080fd5b60005b858110156134bf57816134a5888261360e565b845260208401935060208301925050600181019050613492565b5050509392505050565b60006134dc6134d784614aa5565b614a54565b9050808382526020820190508260005b8581101561351c5781358501613502888261373f565b8452602084019350602083019250506001810190506134ec565b5050509392505050565b600061353961353484614ad1565b614a54565b9050808382526020820190508285602086028201111561355857600080fd5b60005b85811015613588578161356e88826137f2565b84526020840193506020830192505060018101905061355b565b5050509392505050565b60006135a56135a084614afd565b614a54565b9050828152602081018484840111156135bd57600080fd5b6135c8848285614f37565b509392505050565b60006135e36135de84614b2e565b614a54565b9050828152602081018484840111156135fb57600080fd5b613606848285614f37565b509392505050565b60008135905061361d8161569a565b92915050565b600082601f83011261363457600080fd5b813561364484826020860161345d565b91505092915050565b600082601f83011261365e57600080fd5b813561366e8482602086016134c9565b91505092915050565b600082601f83011261368857600080fd5b8135613698848260208601613526565b91505092915050565b6000815190506136b0816156b1565b92915050565b6000813590506136c5816156c8565b92915050565b6000815190506136da816156c8565b92915050565b6000813590506136ef816156df565b92915050565b60008083601f84011261370757600080fd5b8235905067ffffffffffffffff81111561372057600080fd5b60208301915083600182028301111561373857600080fd5b9250929050565b600082601f83011261375057600080fd5b8135613760848260208601613592565b91505092915050565b600081359050613778816156f6565b92915050565b60008083601f84011261379057600080fd5b8235905067ffffffffffffffff8111156137a957600080fd5b6020830191508360018202830111156137c157600080fd5b9250929050565b600082601f8301126137d957600080fd5b81356137e98482602086016135d0565b91505092915050565b6000813590506138018161570d565b92915050565b6000815190506138168161570d565b92915050565b60008135905061382b81615724565b92915050565b6000806040838503121561384457600080fd5b60006138528582860161360e565b9250506020613863858286016137f2565b9150509250929050565b6000806000806060858703121561388357600080fd5b60006138918782880161360e565b94505060206138a2878288016137f2565b935050604085013567ffffffffffffffff8111156138bf57600080fd5b6138cb878288016136f5565b925092505092959194509250565b600080600080608085870312156138ef57600080fd5b600085013567ffffffffffffffff81111561390957600080fd5b61391587828801613623565b945050602085013567ffffffffffffffff81111561393257600080fd5b61393e87828801613677565b935050604085013567ffffffffffffffff81111561395b57600080fd5b6139678782880161364d565b9250506060613978878288016136b6565b91505092959194509250565b6000806000806080858703121561399a57600080fd5b600085013567ffffffffffffffff8111156139b457600080fd5b6139c087828801613623565b945050602085013567ffffffffffffffff8111156139dd57600080fd5b6139e987828801613677565b935050604085013567ffffffffffffffff811115613a0657600080fd5b613a128782880161364d565b925050606085013567ffffffffffffffff811115613a2f57600080fd5b613a3b878288016137c8565b91505092959194509250565b600060208284031215613a5957600080fd5b6000613a67848285016136a1565b91505092915050565b600060208284031215613a8257600080fd5b6000613a90848285016136cb565b91505092915050565b600060208284031215613aab57600080fd5b6000613ab9848285016136e0565b91505092915050565b600060208284031215613ad457600080fd5b6000613ae284828501613769565b91505092915050565b600060208284031215613afd57600080fd5b6000613b0b848285016137f2565b91505092915050565b600060208284031215613b2657600080fd5b6000613b3484828501613807565b91505092915050565b60008060408385031215613b5057600080fd5b6000613b5e858286016137f2565b9250506020613b6f8582860161360e565b9150509250929050565b60008060408385031215613b8c57600080fd5b6000613b9a858286016137f2565b9250506020613bab8582860161381c565b9150509250929050565b60008060008060608587031215613bcb57600080fd5b6000613bd9878288016137f2565b9450506020613bea8782880161381c565b935050604085013567ffffffffffffffff811115613c0757600080fd5b613c138782880161377e565b925092505092959194509250565b600080600080600060a08688031215613c3957600080fd5b6000613c47888289016137f2565b9550506020613c588882890161381c565b9450506040613c698882890161381c565b9350506060613c7a888289016136b6565b9250506080613c8b888289016136b6565b9150509295509295909350565b6000613ca48383613cf0565b60208301905092915050565b6000613cbc8383613ee9565b905092915050565b6000613cd08383613f80565b905092915050565b6000613ce483836142d1565b60208301905092915050565b613cf981614df5565b82525050565b613d0881614df5565b82525050565b6000613d1982614b9f565b613d238185614c15565b9350613d2e83614b5f565b8060005b83811015613d5f578151613d468882613c98565b9750613d5183614be1565b925050600181019050613d32565b5085935050505092915050565b6000613d7782614baa565b613d818185614c26565b935083602082028501613d9385614b6f565b8060005b85811015613dcf5784840389528151613db08582613cb0565b9450613dbb83614bee565b925060208a01995050600181019050613d97565b50829750879550505050505092915050565b6000613dec82614bb5565b613df68185614c37565b935083602082028501613e0885614b7f565b8060005b85811015613e445784840389528151613e258582613cc4565b9450613e3083614bfb565b925060208a01995050600181019050613e0c565b50829750879550505050505092915050565b6000613e6182614bc0565b613e6b8185614c48565b9350613e7683614b8f565b8060005b83811015613ea7578151613e8e8882613cd8565b9750613e9983614c08565b925050600181019050613e7a565b5085935050505092915050565b613ebd81614e19565b82525050565b613ecc81614e25565b82525050565b613ee3613ede82614e25565b614fdc565b82525050565b6000613ef482614bcb565b613efe8185614c59565b9350613f0e818560208601614f46565b613f17816150d1565b840191505092915050565b6000613f2d82614bcb565b613f378185614c6a565b9350613f47818560208601614f46565b80840191505092915050565b613f5c81614ed5565b82525050565b613f6b81614ef9565b82525050565b613f7a81614f0b565b82525050565b6000613f8b82614bd6565b613f958185614c75565b9350613fa5818560208601614f46565b613fae816150d1565b840191505092915050565b6000613fc482614bd6565b613fce8185614c86565b9350613fde818560208601614f46565b613fe7816150d1565b840191505092915050565b6000613fff601883614c86565b915061400a826150ef565b602082019050919050565b6000614022601883614c86565b915061402d82615118565b602082019050919050565b6000614045604383614c86565b915061405082615141565b606082019050919050565b6000614068604383614c86565b9150614073826151b6565b606082019050919050565b600061408b601f83614c86565b91506140968261522b565b602082019050919050565b60006140ae600283614c97565b91506140b982615254565b600282019050919050565b60006140d1602183614c86565b91506140dc8261527d565b604082019050919050565b60006140f4602783614c86565b91506140ff826152cc565b604082019050919050565b6000614117602283614c86565b91506141228261531b565b604082019050919050565b600061413a602783614c86565b91506141458261536a565b604082019050919050565b600061415d602683614c86565b9150614168826153b9565b604082019050919050565b6000614180602383614c86565b915061418b82615408565b604082019050919050565b60006141a3601883614c86565b91506141ae82615457565b602082019050919050565b60006141c6602283614c86565b91506141d182615480565b604082019050919050565b60006141e9602683614c86565b91506141f4826154cf565b604082019050919050565b600061420c601d83614c86565b91506142178261551e565b602082019050919050565b600061422f602183614c86565b915061423a82615547565b604082019050919050565b6000614252601d83614c86565b915061425d82615596565b602082019050919050565b6000614275603583614c86565b9150614280826155bf565b604082019050919050565b6000614298602183614c86565b91506142a38261560e565b604082019050919050565b60006142bb601d83614c86565b91506142c68261565d565b602082019050919050565b6142da81614eaa565b82525050565b6142e981614eaa565b82525050565b6142f881614f25565b82525050565b61430781614ec8565b82525050565b60006143198284613f22565b915081905092915050565b600061432f826140a1565b915061433b8285613ed2565b60208201915061434b8284613ed2565b6020820191508190509392505050565b60006020820190506143706000830184613cff565b92915050565b600060408201905061438b6000830185613cff565b6143986020830184613cff565b9392505050565b60006040820190506143b46000830185613cff565b6143c160208301846142e0565b9392505050565b600060808201905081810360008301526143e28187613d0e565b905081810360208301526143f68186613e56565b9050818103604083015261440a8185613d6c565b90506144196060830184613ec3565b95945050505050565b600060a082019050818103600083015261443c8188613d0e565b905081810360208301526144508187613e56565b905081810360408301526144648186613d6c565b90506144736060830185613f71565b6144806080830184613ec3565b9695505050505050565b600060c08201905081810360008301526144a48189613d0e565b905081810360208301526144b88188613e56565b905081810360408301526144cc8187613d6c565b90506144db6060830186613f71565b6144e86080830185613ec3565b6144f560a08301846142e0565b979650505050505050565b60006020820190506145156000830184613eb4565b92915050565b60006020820190506145306000830184613ec3565b92915050565b600060a08201905061454b6000830188613ec3565b6145586020830187613ec3565b6145656040830186613ec3565b61457260608301856142e0565b61457f6080830184613cff565b9695505050505050565b600060608201905061459e6000830186613ec3565b6145ab60208301856142e0565b6145b860408301846142fe565b949350505050565b60006080820190506145d56000830187613ec3565b6145e260208301866142fe565b6145ef6040830185613ec3565b6145fc6060830184613ec3565b95945050505050565b600060208201905061461a6000830184613f53565b92915050565b60006020820190506146356000830184613f62565b92915050565b600060208201905081810360008301526146558184613fb9565b905092915050565b6000602082019050818103600083015261467681613ff2565b9050919050565b6000602082019050818103600083015261469681614015565b9050919050565b600060208201905081810360008301526146b681614038565b9050919050565b600060208201905081810360008301526146d68161405b565b9050919050565b600060208201905081810360008301526146f68161407e565b9050919050565b60006020820190508181036000830152614716816140c4565b9050919050565b60006020820190508181036000830152614736816140e7565b9050919050565b600060208201905081810360008301526147568161410a565b9050919050565b600060208201905081810360008301526147768161412d565b9050919050565b6000602082019050818103600083015261479681614150565b9050919050565b600060208201905081810360008301526147b681614173565b9050919050565b600060208201905081810360008301526147d681614196565b9050919050565b600060208201905081810360008301526147f6816141b9565b9050919050565b60006020820190508181036000830152614816816141dc565b9050919050565b60006020820190508181036000830152614836816141ff565b9050919050565b6000602082019050818103600083015261485681614222565b9050919050565b6000602082019050818103600083015261487681614245565b9050919050565b6000602082019050818103600083015261489681614268565b9050919050565b600060208201905081810360008301526148b68161428b565b9050919050565b600060208201905081810360008301526148d6816142ae565b9050919050565b60006020820190506148f260008301846142e0565b92915050565b60006101208201905061490e600083018c6142e0565b61491b602083018b613cff565b818103604083015261492d818a613d0e565b905081810360608301526149418189613e56565b905081810360808301526149558188613de1565b905081810360a08301526149698187613d6c565b905061497860c08301866142ef565b61498560e08301856142ef565b8181036101008301526149988184613fb9565b90509a9950505050505050505050565b60006040820190506149bd60008301856142e0565b6149ca60208301846142e0565b9392505050565b60006060820190506149e660008301866142e0565b6149f360208301856142e0565b614a0060408301846142e0565b949350505050565b6000608082019050614a1d60008301876142e0565b614a2a60208301866142fe565b614a3760408301856142e0565b8181036060830152614a498184613fb9565b905095945050505050565b6000614a5e614a6f565b9050614a6a8282614fab565b919050565b6000604051905090565b600067ffffffffffffffff821115614a9457614a936150a2565b5b602082029050602081019050919050565b600067ffffffffffffffff821115614ac057614abf6150a2565b5b602082029050602081019050919050565b600067ffffffffffffffff821115614aec57614aeb6150a2565b5b602082029050602081019050919050565b600067ffffffffffffffff821115614b1857614b176150a2565b5b614b21826150d1565b9050602081019050919050565b600067ffffffffffffffff821115614b4957614b486150a2565b5b614b52826150d1565b9050602081019050919050565b6000819050602082019050919050565b6000819050602082019050919050565b6000819050602082019050919050565b6000819050602082019050919050565b600081519050919050565b600081519050919050565b600081519050919050565b600081519050919050565b600081519050919050565b600081519050919050565b6000602082019050919050565b6000602082019050919050565b6000602082019050919050565b6000602082019050919050565b600082825260208201905092915050565b600082825260208201905092915050565b600082825260208201905092915050565b600082825260208201905092915050565b600082825260208201905092915050565b600081905092915050565b600082825260208201905092915050565b600082825260208201905092915050565b600081905092915050565b6000614cad82614eaa565b9150614cb883614eaa565b9250827fffffffffffffffffffffffffffffffffffffffffffffffffffffffffffffffff03821115614ced57614cec614fe6565b5b828201905092915050565b6000614d0382614eb4565b9150614d0e83614eb4565b92508267ffffffffffffffff03821115614d2b57614d2a614fe6565b5b828201905092915050565b6000614d4182614eaa565b9150614d4c83614eaa565b925082614d5c57614d5b615015565b5b828204905092915050565b6000614d7282614eaa565b9150614d7d83614eaa565b9250817fffffffffffffffffffffffffffffffffffffffffffffffffffffffffffffffff0483118215151615614db657614db5614fe6565b5b828202905092915050565b6000614dcc82614eaa565b9150614dd783614eaa565b925082821015614dea57614de9614fe6565b5b828203905092915050565b6000614e0082614e8a565b9050919050565b6000614e1282614e8a565b9050919050565b60008115159050919050565b6000819050919050565b60007fffffffff0000000000000000000000000000000000000000000000000000000082169050919050565b6000614e6682614e07565b9050919050565b6000819050614e7b82615686565b919050565b6000819050919050565b600073ffffffffffffffffffffffffffffffffffffffff82169050919050565b6000819050919050565b600067ffffffffffffffff82169050919050565b600060ff82169050919050565b6000614ee082614ee7565b9050919050565b6000614ef282614e8a565b9050919050565b6000614f0482614e6d565b9050919050565b6000614f1e614f1983614e80565b6150e2565b9050919050565b6000614f3082614eb4565b9050919050565b82818337600083830152505050565b60005b83811015614f64578082015181840152602081019050614f49565b83811115614f73576000848401525b50505050565b60006002820490506001821680614f9157607f821691505b60208210811415614fa557614fa4615073565b5b50919050565b614fb4826150d1565b810181811067ffffffffffffffff82111715614fd357614fd26150a2565b5b80604052505050565b6000819050919050565b7f4e487b7100000000000000000000000000000000000000000000000000000000600052601160045260246000fd5b7f4e487b7100000000000000000000000000000000000000000000000000000000600052601260045260246000fd5b7f4e487b7100000000000000000000000000000000000000000000000000000000600052602160045260246000fd5b7f4e487b7100000000000000000000000000000000000000000000000000000000600052602260045260246000fd5b7f4e487b7100000000000000000000000000000000000000000000000000000000600052604160045260246000fd5b6000601f19601f8301169050919050565b60008160001b9050919050565b7f45434453413a20696e76616c6964207369676e61747572650000000000000000600082015250565b7f476f7665726e6f723a206f6e6c79476f7665726e616e63650000000000000000600082015250565b7f476f7665726e6f72566f74657351756f72756d4672616374696f6e3a2071756f60008201527f72756d4e756d657261746f72206f7665722071756f72756d44656e6f6d696e6160208201527f746f720000000000000000000000000000000000000000000000000000000000604082015250565b7f476f7665726e6f72436f6d7061746962696c697479427261766f3a2070726f7060008201527f6f73657220766f7465732062656c6f772070726f706f73616c2074687265736860208201527f6f6c640000000000000000000000000000000000000000000000000000000000604082015250565b7f45434453413a20696e76616c6964207369676e6174757265206c656e67746800600082015250565b7f1901000000000000000000000000000000000000000000000000000000000000600082015250565b7f476f7665726e6f723a20696e76616c69642070726f706f73616c206c656e677460008201527f6800000000000000000000000000000000000000000000000000000000000000602082015250565b7f476f7665726e6f7253657474696e67733a20766f74696e6720706572696f642060008201527f746f6f206c6f7700000000000000000000000000000000000000000000000000602082015250565b7f45434453413a20696e76616c6964207369676e6174757265202773272076616c60008201527f7565000000000000000000000000000000000000000000000000000000000000602082015250565b7f476f7665726e6f72566f74696e6753696d706c653a20766f746520616c72656160008201527f6479206361737400000000000000000000000000000000000000000000000000602082015250565b7f416464726573733a20696e73756666696369656e742062616c616e636520666f60008201527f722063616c6c0000000000000000000000000000000000000000000000000000602082015250565b7f476f7665726e6f723a20766f7465206e6f742063757272656e746c792061637460008201527f6976650000000000000000000000000000000000000000000000000000000000602082015250565b7f476f7665726e6f723a20656d7074792070726f706f73616c0000000000000000600082015250565b7f45434453413a20696e76616c6964207369676e6174757265202776272076616c60008201527f7565000000000000000000000000000000000000000000000000000000000000602082015250565b7f53616665436173743a2076616c756520646f65736e27742066697420696e203660008201527f3420626974730000000000000000000000000000000000000000000000000000602082015250565b7f476f7665726e6f723a2070726f706f73616c206e6f7420616374697665000000600082015250565b7f476f7665726e6f723a2070726f706f73616c206e6f742073756363657373667560008201527f6c00000000000000000000000000000000000000000000000000000000000000602082015250565b7f476f7665726e6f723a20756e6b6e6f776e2070726f706f73616c206964000000600082015250565b7f476f7665726e6f72566f74696e6753696d706c653a20696e76616c696420766160008201527f6c756520666f7220656e756d20566f7465547970650000000000000000000000602082015250565b7f476f7665726e6f723a2070726f706f73616c20616c726561647920657869737460008201527f7300000000000000000000000000000000000000000000000000000000000000602082015250565b7f416464726573733a2063616c6c20746f206e6f6e2d636f6e7472616374000000600082015250565b6008811061569757615696615044565b5b50565b6156a381614df5565b81146156ae57600080fd5b50565b6156ba81614e19565b81146156c557600080fd5b50565b6156d181614e25565b81146156dc57600080fd5b50565b6156e881614e2f565b81146156f357600080fd5b50565b6156ff81614e5b565b811461570a57600080fd5b50565b61571681614eaa565b811461572157600080fd5b50565b61572d81614ec8565b811461573857600080fd5b5056fe416464726573733a206c6f772d6c6576656c2063616c6c20776974682076616c7565206661696c6564a2646970667358221220b0c3f0b0ad91e3d6e7629ab4db5124b60bea84f00973b156c1a6813274a2f6e364736f6c63430008020033",
  "linkReferences": {},
  "deployedLinkReferences": {}
}