{
  "_format": "hh-sol-artifact-1",
  "contractName": "AccessControlEnumerableMock",
  "sourceName": "contracts/OZ/mocks/AccessControlEnumerableMock.sol",
  "abi": [
    {
      "inputs": [],
      "stateMutability": "nonpayable",
      "type": "constructor"
    },
    {
      "anonymous": false,
      "inputs": [
        {
          "indexed": true,
          "internalType": "bytes32",
          "name": "role",
          "type": "bytes32"
        },
        {
          "indexed": true,
          "internalType": "bytes32",
          "name": "previousAdminRole",
          "type": "bytes32"
        },
        {
          "indexed": true,
          "internalType": "bytes32",
          "name": "newAdminRole",
          "type": "bytes32"
        }
      ],
      "name": "RoleAdminChanged",
      "type": "event"
    },
    {
      "anonymous": false,
      "inputs": [
        {
          "indexed": true,
          "internalType": "bytes32",
          "name": "role",
          "type": "bytes32"
        },
        {
          "indexed": true,
          "internalType": "address",
          "name": "account",
          "type": "address"
        },
        {
          "indexed": true,
          "internalType": "address",
          "name": "sender",
          "type": "address"
        }
      ],
      "name": "RoleGranted",
      "type": "event"
    },
    {
      "anonymous": false,
      "inputs": [
        {
          "indexed": true,
          "internalType": "bytes32",
          "name": "role",
          "type": "bytes32"
        },
        {
          "indexed": true,
          "internalType": "address",
          "name": "account",
          "type": "address"
        },
        {
          "indexed": true,
          "internalType": "address",
          "name": "sender",
          "type": "address"
        }
      ],
      "name": "RoleRevoked",
      "type": "event"
    },
    {
      "inputs": [],
      "name": "DEFAULT_ADMIN_ROLE",
      "outputs": [
        {
          "internalType": "bytes32",
          "name": "",
          "type": "bytes32"
        }
      ],
      "stateMutability": "view",
      "type": "function"
    },
    {
      "inputs": [
        {
          "internalType": "bytes32",
          "name": "role",
          "type": "bytes32"
        }
      ],
      "name": "getRoleAdmin",
      "outputs": [
        {
          "internalType": "bytes32",
          "name": "",
          "type": "bytes32"
        }
      ],
      "stateMutability": "view",
      "type": "function"
    },
    {
      "inputs": [
        {
          "internalType": "bytes32",
          "name": "role",
          "type": "bytes32"
        },
        {
          "internalType": "uint256",
          "name": "index",
          "type": "uint256"
        }
      ],
      "name": "getRoleMember",
      "outputs": [
        {
          "internalType": "address",
          "name": "",
          "type": "address"
        }
      ],
      "stateMutability": "view",
      "type": "function"
    },
    {
      "inputs": [
        {
          "internalType": "bytes32",
          "name": "role",
          "type": "bytes32"
        }
      ],
      "name": "getRoleMemberCount",
      "outputs": [
        {
          "internalType": "uint256",
          "name": "",
          "type": "uint256"
        }
      ],
      "stateMutability": "view",
      "type": "function"
    },
    {
      "inputs": [
        {
          "internalType": "bytes32",
          "name": "role",
          "type": "bytes32"
        },
        {
          "internalType": "address",
          "name": "account",
          "type": "address"
        }
      ],
      "name": "grantRole",
      "outputs": [],
      "stateMutability": "nonpayable",
      "type": "function"
    },
    {
      "inputs": [
        {
          "internalType": "bytes32",
          "name": "role",
          "type": "bytes32"
        },
        {
          "internalType": "address",
          "name": "account",
          "type": "address"
        }
      ],
      "name": "hasRole",
      "outputs": [
        {
          "internalType": "bool",
          "name": "",
          "type": "bool"
        }
      ],
      "stateMutability": "view",
      "type": "function"
    },
    {
      "inputs": [
        {
          "internalType": "bytes32",
          "name": "role",
          "type": "bytes32"
        },
        {
          "internalType": "address",
          "name": "account",
          "type": "address"
        }
      ],
      "name": "renounceRole",
      "outputs": [],
      "stateMutability": "nonpayable",
      "type": "function"
    },
    {
      "inputs": [
        {
          "internalType": "bytes32",
          "name": "role",
          "type": "bytes32"
        },
        {
          "internalType": "address",
          "name": "account",
          "type": "address"
        }
      ],
      "name": "revokeRole",
      "outputs": [],
      "stateMutability": "nonpayable",
      "type": "function"
    },
    {
      "inputs": [
        {
          "internalType": "bytes32",
          "name": "roleId",
          "type": "bytes32"
        }
      ],
      "name": "senderProtected",
      "outputs": [],
      "stateMutability": "nonpayable",
      "type": "function"
    },
    {
      "inputs": [
        {
          "internalType": "bytes32",
          "name": "roleId",
          "type": "bytes32"
        },
        {
          "internalType": "bytes32",
          "name": "adminRoleId",
          "type": "bytes32"
        }
      ],
      "name": "setRoleAdmin",
      "outputs": [],
      "stateMutability": "nonpayable",
      "type": "function"
    },
    {
      "inputs": [
        {
          "internalType": "bytes4",
          "name": "interfaceId",
          "type": "bytes4"
        }
      ],
      "name": "supportsInterface",
      "outputs": [
        {
          "internalType": "bool",
          "name": "",
          "type": "bool"
        }
      ],
      "stateMutability": "view",
      "type": "function"
    }
  ],
  "bytecode": "0x60806040523480156200001157600080fd5b50620000366000801b6200002a6200003c60201b60201c565b6200004460201b60201c565b620002d2565b600033905090565b6200005682826200005a60201b60201c565b5050565b620000718282620000a260201b6200049e1760201c565b6200009d81600160008581526020019081526020016000206200019360201b6200057e1790919060201c565b505050565b620000b48282620001cb60201b60201c565b6200018f57600160008084815260200190815260200160002060000160008373ffffffffffffffffffffffffffffffffffffffff1673ffffffffffffffffffffffffffffffffffffffff16815260200190815260200160002060006101000a81548160ff021916908315150217905550620001346200003c60201b60201c565b73ffffffffffffffffffffffffffffffffffffffff168173ffffffffffffffffffffffffffffffffffffffff16837f2f8788117e7eff1d82e926ec794901d17c78024a50270940304540a733656f0d60405160405180910390a45b5050565b6000620001c3836000018373ffffffffffffffffffffffffffffffffffffffff1660001b6200023560201b60201c565b905092915050565b600080600084815260200190815260200160002060000160008373ffffffffffffffffffffffffffffffffffffffff1673ffffffffffffffffffffffffffffffffffffffff16815260200190815260200160002060009054906101000a900460ff16905092915050565b6000620002498383620002af60201b60201c565b620002a4578260000182908060018154018082558091505060019003906000526020600020016000909190919091505582600001805490508360010160008481526020019081526020016000208190555060019050620002a9565b600090505b92915050565b600080836001016000848152602001908152602001600020541415905092915050565b6115c580620002e26000396000f3fe608060405234801561001057600080fd5b50600436106100a95760003560e01c80634b9304a4116100715780634b9304a4146101625780639010d07c1461017e57806391d14854146101ae578063a217fddf146101de578063ca15c873146101fc578063d547741f1461022c576100a9565b806301ffc9a7146100ae5780631e4e0091146100de578063248a9ca3146100fa5780632f2ff15d1461012a57806336568abe14610146575b600080fd5b6100c860048036038101906100c39190610fe0565b610248565b6040516100d59190611190565b60405180910390f35b6100f860048036038101906100f39190610f68565b6102c2565b005b610114600480360381019061010f9190610f03565b6102d0565b60405161012191906111ab565b60405180910390f35b610144600480360381019061013f9190610f2c565b6102ef565b005b610160600480360381019061015b9190610f2c565b610318565b005b61017c60048036038101906101779190610f03565b61039b565b005b61019860048036038101906101939190610fa4565b6103b1565b6040516101a59190611175565b60405180910390f35b6101c860048036038101906101c39190610f2c565b6103e0565b6040516101d59190611190565b60405180910390f35b6101e661044a565b6040516101f391906111ab565b60405180910390f35b61021660048036038101906102119190610f03565b610451565b6040516102239190611228565b60405180910390f35b61024660048036038101906102419190610f2c565b610475565b005b60007f5a05180f000000000000000000000000000000000000000000000000000000007bffffffffffffffffffffffffffffffffffffffffffffffffffffffff1916827bffffffffffffffffffffffffffffffffffffffffffffffffffffffff191614806102bb57506102ba826105ae565b5b9050919050565b6102cc8282610628565b5050565b6000806000838152602001908152602001600020600101549050919050565b6102f8826102d0565b61030981610304610683565b61068b565b6103138383610728565b505050565b610320610683565b73ffffffffffffffffffffffffffffffffffffffff168173ffffffffffffffffffffffffffffffffffffffff161461038d576040517f08c379a000000000000000000000000000000000000000000000000000000000815260040161038490611208565b60405180910390fd5b610397828261075c565b5050565b806103ad816103a8610683565b61068b565b5050565b60006103d8826001600086815260200190815260200160002061079090919063ffffffff16565b905092915050565b600080600084815260200190815260200160002060000160008373ffffffffffffffffffffffffffffffffffffffff1673ffffffffffffffffffffffffffffffffffffffff16815260200190815260200160002060009054906101000a900460ff16905092915050565b6000801b81565b600061046e600160008481526020019081526020016000206107aa565b9050919050565b61047e826102d0565b61048f8161048a610683565b61068b565b610499838361075c565b505050565b6104a882826103e0565b61057a57600160008084815260200190815260200160002060000160008373ffffffffffffffffffffffffffffffffffffffff1673ffffffffffffffffffffffffffffffffffffffff16815260200190815260200160002060006101000a81548160ff02191690831515021790555061051f610683565b73ffffffffffffffffffffffffffffffffffffffff168173ffffffffffffffffffffffffffffffffffffffff16837f2f8788117e7eff1d82e926ec794901d17c78024a50270940304540a733656f0d60405160405180910390a45b5050565b60006105a6836000018373ffffffffffffffffffffffffffffffffffffffff1660001b6107bf565b905092915050565b60007f7965db0b000000000000000000000000000000000000000000000000000000007bffffffffffffffffffffffffffffffffffffffffffffffffffffffff1916827bffffffffffffffffffffffffffffffffffffffffffffffffffffffff1916148061062157506106208261082f565b5b9050919050565b6000610633836102d0565b905081600080858152602001908152602001600020600101819055508181847fbd79b86ffe0ab8e8776151514217cd7cacd52c909f66475c3af44e129f0b00ff60405160405180910390a4505050565b600033905090565b61069582826103e0565b610724576106ba8173ffffffffffffffffffffffffffffffffffffffff166014610899565b6106c88360001c6020610899565b6040516020016106d992919061113b565b6040516020818303038152906040526040517f08c379a000000000000000000000000000000000000000000000000000000000815260040161071b91906111c6565b60405180910390fd5b5050565b610732828261049e565b610757816001600085815260200190815260200160002061057e90919063ffffffff16565b505050565b6107668282610b93565b61078b8160016000858152602001908152602001600020610c7490919063ffffffff16565b505050565b600061079f8360000183610ca4565b60001c905092915050565b60006107b882600001610cf5565b9050919050565b60006107cb8383610d06565b610824578260000182908060018154018082558091505060019003906000526020600020016000909190919091505582600001805490508360010160008481526020019081526020016000208190555060019050610829565b600090505b92915050565b60007f01ffc9a7000000000000000000000000000000000000000000000000000000007bffffffffffffffffffffffffffffffffffffffffffffffffffffffff1916827bffffffffffffffffffffffffffffffffffffffffffffffffffffffff1916149050919050565b6060600060028360026108ac91906112c0565b6108b6919061126a565b67ffffffffffffffff8111156108f5577f4e487b7100000000000000000000000000000000000000000000000000000000600052604160045260246000fd5b6040519080825280601f01601f1916602001820160405280156109275781602001600182028036833780820191505090505b5090507f300000000000000000000000000000000000000000000000000000000000000081600081518110610985577f4e487b7100000000000000000000000000000000000000000000000000000000600052603260045260246000fd5b60200101907effffffffffffffffffffffffffffffffffffffffffffffffffffffffffffff1916908160001a9053507f780000000000000000000000000000000000000000000000000000000000000081600181518110610a0f577f4e487b7100000000000000000000000000000000000000000000000000000000600052603260045260246000fd5b60200101907effffffffffffffffffffffffffffffffffffffffffffffffffffffffffffff1916908160001a90535060006001846002610a4f91906112c0565b610a59919061126a565b90505b6001811115610b45577f3031323334353637383961626364656600000000000000000000000000000000600f861660108110610ac1577f4e487b7100000000000000000000000000000000000000000000000000000000600052603260045260246000fd5b1a60f81b828281518110610afe577f4e487b7100000000000000000000000000000000000000000000000000000000600052603260045260246000fd5b60200101907effffffffffffffffffffffffffffffffffffffffffffffffffffffffffffff1916908160001a905350600485901c945080610b3e906113ff565b9050610a5c565b5060008414610b89576040517f08c379a0000000000000000000000000000000000000000000000000000000008152600401610b80906111e8565b60405180910390fd5b8091505092915050565b610b9d82826103e0565b15610c7057600080600084815260200190815260200160002060000160008373ffffffffffffffffffffffffffffffffffffffff1673ffffffffffffffffffffffffffffffffffffffff16815260200190815260200160002060006101000a81548160ff021916908315150217905550610c15610683565b73ffffffffffffffffffffffffffffffffffffffff168173ffffffffffffffffffffffffffffffffffffffff16837ff6391f5c32d9c69d2a47ea670b442974b53935d1edc7fd64eb21e047a839171b60405160405180910390a45b5050565b6000610c9c836000018373ffffffffffffffffffffffffffffffffffffffff1660001b610d29565b905092915050565b6000826000018281548110610ce2577f4e487b7100000000000000000000000000000000000000000000000000000000600052603260045260246000fd5b9060005260206000200154905092915050565b600081600001805490509050919050565b600080836001016000848152602001908152602001600020541415905092915050565b60008083600101600084815260200190815260200160002054905060008114610ea3576000600182610d5b919061131a565b9050600060018660000180549050610d73919061131a565b9050818114610e2e576000866000018281548110610dba577f4e487b7100000000000000000000000000000000000000000000000000000000600052603260045260246000fd5b9060005260206000200154905080876000018481548110610e04577f4e487b7100000000000000000000000000000000000000000000000000000000600052603260045260246000fd5b90600052602060002001819055508387600101600083815260200190815260200160002081905550505b85600001805480610e68577f4e487b7100000000000000000000000000000000000000000000000000000000600052603160045260246000fd5b600190038181906000526020600020016000905590558560010160008681526020019081526020016000206000905560019350505050610ea9565b60009150505b92915050565b600081359050610ebe81611533565b92915050565b600081359050610ed38161154a565b92915050565b600081359050610ee881611561565b92915050565b600081359050610efd81611578565b92915050565b600060208284031215610f1557600080fd5b6000610f2384828501610ec4565b91505092915050565b60008060408385031215610f3f57600080fd5b6000610f4d85828601610ec4565b9250506020610f5e85828601610eaf565b9150509250929050565b60008060408385031215610f7b57600080fd5b6000610f8985828601610ec4565b9250506020610f9a85828601610ec4565b9150509250929050565b60008060408385031215610fb757600080fd5b6000610fc585828601610ec4565b9250506020610fd685828601610eee565b9150509250929050565b600060208284031215610ff257600080fd5b600061100084828501610ed9565b91505092915050565b6110128161134e565b82525050565b61102181611360565b82525050565b6110308161136c565b82525050565b600061104182611243565b61104b818561124e565b935061105b8185602086016113cc565b61106481611458565b840191505092915050565b600061107a82611243565b611084818561125f565b93506110948185602086016113cc565b80840191505092915050565b60006110ad60208361124e565b91506110b882611469565b602082019050919050565b60006110d060178361125f565b91506110db82611492565b601782019050919050565b60006110f360118361125f565b91506110fe826114bb565b601182019050919050565b6000611116602f8361124e565b9150611121826114e4565b604082019050919050565b611135816113c2565b82525050565b6000611146826110c3565b9150611152828561106f565b915061115d826110e6565b9150611169828461106f565b91508190509392505050565b600060208201905061118a6000830184611009565b92915050565b60006020820190506111a56000830184611018565b92915050565b60006020820190506111c06000830184611027565b92915050565b600060208201905081810360008301526111e08184611036565b905092915050565b60006020820190508181036000830152611201816110a0565b9050919050565b6000602082019050818103600083015261122181611109565b9050919050565b600060208201905061123d600083018461112c565b92915050565b600081519050919050565b600082825260208201905092915050565b600081905092915050565b6000611275826113c2565b9150611280836113c2565b9250827fffffffffffffffffffffffffffffffffffffffffffffffffffffffffffffffff038211156112b5576112b4611429565b5b828201905092915050565b60006112cb826113c2565b91506112d6836113c2565b9250817fffffffffffffffffffffffffffffffffffffffffffffffffffffffffffffffff048311821515161561130f5761130e611429565b5b828202905092915050565b6000611325826113c2565b9150611330836113c2565b92508282101561134357611342611429565b5b828203905092915050565b6000611359826113a2565b9050919050565b60008115159050919050565b6000819050919050565b60007fffffffff0000000000000000000000000000000000000000000000000000000082169050919050565b600073ffffffffffffffffffffffffffffffffffffffff82169050919050565b6000819050919050565b60005b838110156113ea5780820151818401526020810190506113cf565b838111156113f9576000848401525b50505050565b600061140a826113c2565b9150600082141561141e5761141d611429565b5b600182039050919050565b7f4e487b7100000000000000000000000000000000000000000000000000000000600052601160045260246000fd5b6000601f19601f8301169050919050565b7f537472696e67733a20686578206c656e67746820696e73756666696369656e74600082015250565b7f416363657373436f6e74726f6c3a206163636f756e7420000000000000000000600082015250565b7f206973206d697373696e6720726f6c6520000000000000000000000000000000600082015250565b7f416363657373436f6e74726f6c3a2063616e206f6e6c792072656e6f756e636560008201527f20726f6c657320666f722073656c660000000000000000000000000000000000602082015250565b61153c8161134e565b811461154757600080fd5b50565b6115538161136c565b811461155e57600080fd5b50565b61156a81611376565b811461157557600080fd5b50565b611581816113c2565b811461158c57600080fd5b5056fea2646970667358221220fb6430cd481b9f8a5cec1fb3801870729ca268da51738af8c6556e9ba5b13c5264736f6c63430008020033",
  "linkReferences": {},
  "deployedLinkReferences": {}
}