{
  "_format": "hh-sol-artifact-1",
  "contractName": "ERC1155Mock",
  "sourceName": "contracts/OZ/mocks/ERC1155Mock.sol",
  "abi": [
    {
      "inputs": [
        {
          "internalType": "string",
          "name": "uri",
          "type": "string"
        }
      ],
      "stateMutability": "nonpayable",
      "type": "constructor"
    },
    {
      "anonymous": false,
      "inputs": [
        {
          "indexed": true,
          "internalType": "address",
          "name": "account",
          "type": "address"
        },
        {
          "indexed": true,
          "internalType": "address",
          "name": "operator",
          "type": "address"
        },
        {
          "indexed": false,
          "internalType": "bool",
          "name": "approved",
          "type": "bool"
        }
      ],
      "name": "ApprovalForAll",
      "type": "event"
    },
    {
      "anonymous": false,
      "inputs": [
        {
          "indexed": true,
          "internalType": "address",
          "name": "operator",
          "type": "address"
        },
        {
          "indexed": true,
          "internalType": "address",
          "name": "from",
          "type": "address"
        },
        {
          "indexed": true,
          "internalType": "address",
          "name": "to",
          "type": "address"
        },
        {
          "indexed": false,
          "internalType": "uint256[]",
          "name": "ids",
          "type": "uint256[]"
        },
        {
          "indexed": false,
          "internalType": "uint256[]",
          "name": "values",
          "type": "uint256[]"
        }
      ],
      "name": "TransferBatch",
      "type": "event"
    },
    {
      "anonymous": false,
      "inputs": [
        {
          "indexed": true,
          "internalType": "address",
          "name": "operator",
          "type": "address"
        },
        {
          "indexed": true,
          "internalType": "address",
          "name": "from",
          "type": "address"
        },
        {
          "indexed": true,
          "internalType": "address",
          "name": "to",
          "type": "address"
        },
        {
          "indexed": false,
          "internalType": "uint256",
          "name": "id",
          "type": "uint256"
        },
        {
          "indexed": false,
          "internalType": "uint256",
          "name": "value",
          "type": "uint256"
        }
      ],
      "name": "TransferSingle",
      "type": "event"
    },
    {
      "anonymous": false,
      "inputs": [
        {
          "indexed": false,
          "internalType": "string",
          "name": "value",
          "type": "string"
        },
        {
          "indexed": true,
          "internalType": "uint256",
          "name": "id",
          "type": "uint256"
        }
      ],
      "name": "URI",
      "type": "event"
    },
    {
      "inputs": [
        {
          "internalType": "address",
          "name": "account",
          "type": "address"
        },
        {
          "internalType": "uint256",
          "name": "id",
          "type": "uint256"
        }
      ],
      "name": "balanceOf",
      "outputs": [
        {
          "internalType": "uint256",
          "name": "",
          "type": "uint256"
        }
      ],
      "stateMutability": "view",
      "type": "function"
    },
    {
      "inputs": [
        {
          "internalType": "address[]",
          "name": "accounts",
          "type": "address[]"
        },
        {
          "internalType": "uint256[]",
          "name": "ids",
          "type": "uint256[]"
        }
      ],
      "name": "balanceOfBatch",
      "outputs": [
        {
          "internalType": "uint256[]",
          "name": "",
          "type": "uint256[]"
        }
      ],
      "stateMutability": "view",
      "type": "function"
    },
    {
      "inputs": [
        {
          "internalType": "address",
          "name": "owner",
          "type": "address"
        },
        {
          "internalType": "uint256",
          "name": "id",
          "type": "uint256"
        },
        {
          "internalType": "uint256",
          "name": "value",
          "type": "uint256"
        }
      ],
      "name": "burn",
      "outputs": [],
      "stateMutability": "nonpayable",
      "type": "function"
    },
    {
      "inputs": [
        {
          "internalType": "address",
          "name": "owner",
          "type": "address"
        },
        {
          "internalType": "uint256[]",
          "name": "ids",
          "type": "uint256[]"
        },
        {
          "internalType": "uint256[]",
          "name": "values",
          "type": "uint256[]"
        }
      ],
      "name": "burnBatch",
      "outputs": [],
      "stateMutability": "nonpayable",
      "type": "function"
    },
    {
      "inputs": [
        {
          "internalType": "address",
          "name": "account",
          "type": "address"
        },
        {
          "internalType": "address",
          "name": "operator",
          "type": "address"
        }
      ],
      "name": "isApprovedForAll",
      "outputs": [
        {
          "internalType": "bool",
          "name": "",
          "type": "bool"
        }
      ],
      "stateMutability": "view",
      "type": "function"
    },
    {
      "inputs": [
        {
          "internalType": "address",
          "name": "to",
          "type": "address"
        },
        {
          "internalType": "uint256",
          "name": "id",
          "type": "uint256"
        },
        {
          "internalType": "uint256",
          "name": "value",
          "type": "uint256"
        },
        {
          "internalType": "bytes",
          "name": "data",
          "type": "bytes"
        }
      ],
      "name": "mint",
      "outputs": [],
      "stateMutability": "nonpayable",
      "type": "function"
    },
    {
      "inputs": [
        {
          "internalType": "address",
          "name": "to",
          "type": "address"
        },
        {
          "internalType": "uint256[]",
          "name": "ids",
          "type": "uint256[]"
        },
        {
          "internalType": "uint256[]",
          "name": "values",
          "type": "uint256[]"
        },
        {
          "internalType": "bytes",
          "name": "data",
          "type": "bytes"
        }
      ],
      "name": "mintBatch",
      "outputs": [],
      "stateMutability": "nonpayable",
      "type": "function"
    },
    {
      "inputs": [
        {
          "internalType": "address",
          "name": "from",
          "type": "address"
        },
        {
          "internalType": "address",
          "name": "to",
          "type": "address"
        },
        {
          "internalType": "uint256[]",
          "name": "ids",
          "type": "uint256[]"
        },
        {
          "internalType": "uint256[]",
          "name": "amounts",
          "type": "uint256[]"
        },
        {
          "internalType": "bytes",
          "name": "data",
          "type": "bytes"
        }
      ],
      "name": "safeBatchTransferFrom",
      "outputs": [],
      "stateMutability": "nonpayable",
      "type": "function"
    },
    {
      "inputs": [
        {
          "internalType": "address",
          "name": "from",
          "type": "address"
        },
        {
          "internalType": "address",
          "name": "to",
          "type": "address"
        },
        {
          "internalType": "uint256",
          "name": "id",
          "type": "uint256"
        },
        {
          "internalType": "uint256",
          "name": "amount",
          "type": "uint256"
        },
        {
          "internalType": "bytes",
          "name": "data",
          "type": "bytes"
        }
      ],
      "name": "safeTransferFrom",
      "outputs": [],
      "stateMutability": "nonpayable",
      "type": "function"
    },
    {
      "inputs": [
        {
          "internalType": "address",
          "name": "operator",
          "type": "address"
        },
        {
          "internalType": "bool",
          "name": "approved",
          "type": "bool"
        }
      ],
      "name": "setApprovalForAll",
      "outputs": [],
      "stateMutability": "nonpayable",
      "type": "function"
    },
    {
      "inputs": [
        {
          "internalType": "string",
          "name": "newuri",
          "type": "string"
        }
      ],
      "name": "setURI",
      "outputs": [],
      "stateMutability": "nonpayable",
      "type": "function"
    },
    {
      "inputs": [
        {
          "internalType": "bytes4",
          "name": "interfaceId",
          "type": "bytes4"
        }
      ],
      "name": "supportsInterface",
      "outputs": [
        {
          "internalType": "bool",
          "name": "",
          "type": "bool"
        }
      ],
      "stateMutability": "view",
      "type": "function"
    },
    {
      "inputs": [
        {
          "internalType": "uint256",
          "name": "",
          "type": "uint256"
        }
      ],
      "name": "uri",
      "outputs": [
        {
          "internalType": "string",
          "name": "",
          "type": "string"
        }
      ],
      "stateMutability": "view",
      "type": "function"
    }
  ],
  "bytecode": "0x60806040523480156200001157600080fd5b50604051620039143803806200391483398181016040528101906200003791906200018f565b8062000049816200005160201b60201c565b505062000344565b8060029080519060200190620000699291906200006d565b5050565b8280546200007b9062000269565b90600052602060002090601f0160209004810192826200009f5760008555620000eb565b82601f10620000ba57805160ff1916838001178555620000eb565b82800160010185558215620000eb579182015b82811115620000ea578251825591602001919060010190620000cd565b5b509050620000fa9190620000fe565b5090565b5b8082111562000119576000816000905550600101620000ff565b5090565b6000620001346200012e84620001fd565b620001d4565b9050828152602081018484840111156200014d57600080fd5b6200015a84828562000233565b509392505050565b600082601f8301126200017457600080fd5b8151620001868482602086016200011d565b91505092915050565b600060208284031215620001a257600080fd5b600082015167ffffffffffffffff811115620001bd57600080fd5b620001cb8482850162000162565b91505092915050565b6000620001e0620001f3565b9050620001ee82826200029f565b919050565b6000604051905090565b600067ffffffffffffffff8211156200021b576200021a62000304565b5b620002268262000333565b9050602081019050919050565b60005b838110156200025357808201518184015260208101905062000236565b8381111562000263576000848401525b50505050565b600060028204905060018216806200028257607f821691505b60208210811415620002995762000298620002d5565b5b50919050565b620002aa8262000333565b810181811067ffffffffffffffff82111715620002cc57620002cb62000304565b5b80604052505050565b7f4e487b7100000000000000000000000000000000000000000000000000000000600052602260045260246000fd5b7f4e487b7100000000000000000000000000000000000000000000000000000000600052604160045260246000fd5b6000601f19601f8301169050919050565b6135c080620003546000396000f3fe608060405234801561001057600080fd5b50600436106100ce5760003560e01c80634e1273f41161008c578063a22cb46511610066578063a22cb4651461021f578063e985e9c51461023b578063f242432a1461026b578063f5298aca14610287576100ce565b80634e1273f4146101b75780636b20c454146101e7578063731133e914610203576100ce565b8062fdd58e146100d357806301ffc9a71461010357806302fe5305146101335780630e89341c1461014f5780631f7fdffa1461017f5780632eb2c2d61461019b575b600080fd5b6100ed60048036038101906100e8919061246b565b6102a3565b6040516100fa9190612c7c565b60405180910390f35b61011d600480360381019061011891906125dd565b61036c565b60405161012a9190612a9f565b60405180910390f35b61014d6004803603810190610148919061262f565b61044e565b005b61016960048036038101906101649190612670565b61045a565b6040516101769190612aba565b60405180910390f35b61019960048036038101906101949190612384565b6104ee565b005b6101b560048036038101906101b091906121b7565b610500565b005b6101d160048036038101906101cc9190612571565b6105a1565b6040516101de9190612a46565b60405180910390f35b61020160048036038101906101fc9190612305565b610752565b005b61021d600480360381019061021891906124f6565b610762565b005b6102396004803603810190610234919061242f565b610774565b005b6102556004803603810190610250919061217b565b61078a565b6040516102629190612a9f565b60405180910390f35b61028560048036038101906102809190612276565b61081e565b005b6102a1600480360381019061029c91906124a7565b6108bf565b005b60008073ffffffffffffffffffffffffffffffffffffffff168373ffffffffffffffffffffffffffffffffffffffff161415610314576040517f08c379a000000000000000000000000000000000000000000000000000000000815260040161030b90612b1c565b60405180910390fd5b60008083815260200190815260200160002060008473ffffffffffffffffffffffffffffffffffffffff1673ffffffffffffffffffffffffffffffffffffffff16815260200190815260200160002054905092915050565b60007fd9b67a26000000000000000000000000000000000000000000000000000000007bffffffffffffffffffffffffffffffffffffffffffffffffffffffff1916827bffffffffffffffffffffffffffffffffffffffffffffffffffffffff1916148061043757507f0e89341c000000000000000000000000000000000000000000000000000000007bffffffffffffffffffffffffffffffffffffffffffffffffffffffff1916827bffffffffffffffffffffffffffffffffffffffffffffffffffffffff1916145b806104475750610446826108cf565b5b9050919050565b61045781610939565b50565b60606002805461046990612f1c565b80601f016020809104026020016040519081016040528092919081815260200182805461049590612f1c565b80156104e25780601f106104b7576101008083540402835291602001916104e2565b820191906000526020600020905b8154815290600101906020018083116104c557829003601f168201915b50505050509050919050565b6104fa84848484610953565b50505050565b610508610bbd565b73ffffffffffffffffffffffffffffffffffffffff168573ffffffffffffffffffffffffffffffffffffffff16148061054e575061054d85610548610bbd565b61078a565b5b61058d576040517f08c379a000000000000000000000000000000000000000000000000000000000815260040161058490612b9c565b60405180910390fd5b61059a8585858585610bc5565b5050505050565b606081518351146105e7576040517f08c379a00000000000000000000000000000000000000000000000000000000081526004016105de90612c1c565b60405180910390fd5b6000835167ffffffffffffffff81111561062a577f4e487b7100000000000000000000000000000000000000000000000000000000600052604160045260246000fd5b6040519080825280602002602001820160405280156106585781602001602082028036833780820191505090505b50905060005b8451811015610747576106f18582815181106106a3577f4e487b7100000000000000000000000000000000000000000000000000000000600052603260045260246000fd5b60200260200101518583815181106106e4577f4e487b7100000000000000000000000000000000000000000000000000000000600052603260045260246000fd5b60200260200101516102a3565b82828151811061072a577f4e487b7100000000000000000000000000000000000000000000000000000000600052603260045260246000fd5b6020026020010181815250508061074090612f7f565b905061065e565b508091505092915050565b61075d838383610f25565b505050565b61076e84848484611222565b50505050565b61078661077f610bbd565b83836113b8565b5050565b6000600160008473ffffffffffffffffffffffffffffffffffffffff1673ffffffffffffffffffffffffffffffffffffffff16815260200190815260200160002060008373ffffffffffffffffffffffffffffffffffffffff1673ffffffffffffffffffffffffffffffffffffffff16815260200190815260200160002060009054906101000a900460ff16905092915050565b610826610bbd565b73ffffffffffffffffffffffffffffffffffffffff168573ffffffffffffffffffffffffffffffffffffffff16148061086c575061086b85610866610bbd565b61078a565b5b6108ab576040517f08c379a00000000000000000000000000000000000000000000000000000000081526004016108a290612b5c565b60405180910390fd5b6108b88585858585611525565b5050505050565b6108ca8383836117a7565b505050565b60007f01ffc9a7000000000000000000000000000000000000000000000000000000007bffffffffffffffffffffffffffffffffffffffffffffffffffffffff1916827bffffffffffffffffffffffffffffffffffffffffffffffffffffffff1916149050919050565b806002908051906020019061094f929190611e73565b5050565b600073ffffffffffffffffffffffffffffffffffffffff168473ffffffffffffffffffffffffffffffffffffffff1614156109c3576040517f08c379a00000000000000000000000000000000000000000000000000000000081526004016109ba90612c5c565b60405180910390fd5b8151835114610a07576040517f08c379a00000000000000000000000000000000000000000000000000000000081526004016109fe90612c3c565b60405180910390fd5b6000610a11610bbd565b9050610a22816000878787876119c4565b60005b8451811015610b2757838181518110610a67577f4e487b7100000000000000000000000000000000000000000000000000000000600052603260045260246000fd5b6020026020010151600080878481518110610aab577f4e487b7100000000000000000000000000000000000000000000000000000000600052603260045260246000fd5b6020026020010151815260200190815260200160002060008873ffffffffffffffffffffffffffffffffffffffff1673ffffffffffffffffffffffffffffffffffffffff1681526020019081526020016000206000828254610b0d9190612e10565b925050819055508080610b1f90612f7f565b915050610a25565b508473ffffffffffffffffffffffffffffffffffffffff16600073ffffffffffffffffffffffffffffffffffffffff168273ffffffffffffffffffffffffffffffffffffffff167f4a39dc06d4c0dbc64b70af90fd698a233a518aa5d07e595d983b8c0526c8f7fb8787604051610b9f929190612a68565b60405180910390a4610bb6816000878787876119cc565b5050505050565b600033905090565b8151835114610c09576040517f08c379a0000000000000000000000000000000000000000000000000000000008152600401610c0090612c3c565b60405180910390fd5b600073ffffffffffffffffffffffffffffffffffffffff168473ffffffffffffffffffffffffffffffffffffffff161415610c79576040517f08c379a0000000000000000000000000000000000000000000000000000000008152600401610c7090612b7c565b60405180910390fd5b6000610c83610bbd565b9050610c938187878787876119c4565b60005b8451811015610e90576000858281518110610cda577f4e487b7100000000000000000000000000000000000000000000000000000000600052603260045260246000fd5b602002602001015190506000858381518110610d1f577f4e487b7100000000000000000000000000000000000000000000000000000000600052603260045260246000fd5b60200260200101519050600080600084815260200190815260200160002060008b73ffffffffffffffffffffffffffffffffffffffff1673ffffffffffffffffffffffffffffffffffffffff16815260200190815260200160002054905081811015610dc0576040517f08c379a0000000000000000000000000000000000000000000000000000000008152600401610db790612bdc565b60405180910390fd5b81810360008085815260200190815260200160002060008c73ffffffffffffffffffffffffffffffffffffffff1673ffffffffffffffffffffffffffffffffffffffff168152602001908152602001600020819055508160008085815260200190815260200160002060008b73ffffffffffffffffffffffffffffffffffffffff1673ffffffffffffffffffffffffffffffffffffffff1681526020019081526020016000206000828254610e759190612e10565b9250508190555050505080610e8990612f7f565b9050610c96565b508473ffffffffffffffffffffffffffffffffffffffff168673ffffffffffffffffffffffffffffffffffffffff168273ffffffffffffffffffffffffffffffffffffffff167f4a39dc06d4c0dbc64b70af90fd698a233a518aa5d07e595d983b8c0526c8f7fb8787604051610f07929190612a68565b60405180910390a4610f1d8187878787876119cc565b505050505050565b600073ffffffffffffffffffffffffffffffffffffffff168373ffffffffffffffffffffffffffffffffffffffff161415610f95576040517f08c379a0000000000000000000000000000000000000000000000000000000008152600401610f8c90612bbc565b60405180910390fd5b8051825114610fd9576040517f08c379a0000000000000000000000000000000000000000000000000000000008152600401610fd090612c3c565b60405180910390fd5b6000610fe3610bbd565b9050611003818560008686604051806020016040528060008152506119c4565b60005b835181101561119c57600084828151811061104a577f4e487b7100000000000000000000000000000000000000000000000000000000600052603260045260246000fd5b60200260200101519050600084838151811061108f577f4e487b7100000000000000000000000000000000000000000000000000000000600052603260045260246000fd5b60200260200101519050600080600084815260200190815260200160002060008973ffffffffffffffffffffffffffffffffffffffff1673ffffffffffffffffffffffffffffffffffffffff16815260200190815260200160002054905081811015611130576040517f08c379a000000000000000000000000000000000000000000000000000000000815260040161112790612b3c565b60405180910390fd5b81810360008085815260200190815260200160002060008a73ffffffffffffffffffffffffffffffffffffffff1673ffffffffffffffffffffffffffffffffffffffff16815260200190815260200160002081905550505050808061119490612f7f565b915050611006565b50600073ffffffffffffffffffffffffffffffffffffffff168473ffffffffffffffffffffffffffffffffffffffff168273ffffffffffffffffffffffffffffffffffffffff167f4a39dc06d4c0dbc64b70af90fd698a233a518aa5d07e595d983b8c0526c8f7fb8686604051611214929190612a68565b60405180910390a450505050565b600073ffffffffffffffffffffffffffffffffffffffff168473ffffffffffffffffffffffffffffffffffffffff161415611292576040517f08c379a000000000000000000000000000000000000000000000000000000000815260040161128990612c5c565b60405180910390fd5b600061129c610bbd565b90506112bd816000876112ae88611bb3565b6112b788611bb3565b876119c4565b8260008086815260200190815260200160002060008773ffffffffffffffffffffffffffffffffffffffff1673ffffffffffffffffffffffffffffffffffffffff168152602001908152602001600020600082825461131c9190612e10565b925050819055508473ffffffffffffffffffffffffffffffffffffffff16600073ffffffffffffffffffffffffffffffffffffffff168273ffffffffffffffffffffffffffffffffffffffff167fc3d58168c5ae7397731d063d5bbf3d657854427343f4c083240f7aacaa2d0f62878760405161139a929190612c97565b60405180910390a46113b181600087878787611c79565b5050505050565b8173ffffffffffffffffffffffffffffffffffffffff168373ffffffffffffffffffffffffffffffffffffffff161415611427576040517f08c379a000000000000000000000000000000000000000000000000000000000815260040161141e90612bfc565b60405180910390fd5b80600160008573ffffffffffffffffffffffffffffffffffffffff1673ffffffffffffffffffffffffffffffffffffffff16815260200190815260200160002060008473ffffffffffffffffffffffffffffffffffffffff1673ffffffffffffffffffffffffffffffffffffffff16815260200190815260200160002060006101000a81548160ff0219169083151502179055508173ffffffffffffffffffffffffffffffffffffffff168373ffffffffffffffffffffffffffffffffffffffff167f17307eab39ab6107e8899845ad3d59bd9653f200f220920489ca2b5937696c31836040516115189190612a9f565b60405180910390a3505050565b600073ffffffffffffffffffffffffffffffffffffffff168473ffffffffffffffffffffffffffffffffffffffff161415611595576040517f08c379a000000000000000000000000000000000000000000000000000000000815260040161158c90612b7c565b60405180910390fd5b600061159f610bbd565b90506115bf8187876115b088611bb3565b6115b988611bb3565b876119c4565b600080600086815260200190815260200160002060008873ffffffffffffffffffffffffffffffffffffffff1673ffffffffffffffffffffffffffffffffffffffff16815260200190815260200160002054905083811015611656576040517f08c379a000000000000000000000000000000000000000000000000000000000815260040161164d90612bdc565b60405180910390fd5b83810360008087815260200190815260200160002060008973ffffffffffffffffffffffffffffffffffffffff1673ffffffffffffffffffffffffffffffffffffffff168152602001908152602001600020819055508360008087815260200190815260200160002060008873ffffffffffffffffffffffffffffffffffffffff1673ffffffffffffffffffffffffffffffffffffffff168152602001908152602001600020600082825461170b9190612e10565b925050819055508573ffffffffffffffffffffffffffffffffffffffff168773ffffffffffffffffffffffffffffffffffffffff168373ffffffffffffffffffffffffffffffffffffffff167fc3d58168c5ae7397731d063d5bbf3d657854427343f4c083240f7aacaa2d0f628888604051611788929190612c97565b60405180910390a461179e828888888888611c79565b50505050505050565b600073ffffffffffffffffffffffffffffffffffffffff168373ffffffffffffffffffffffffffffffffffffffff161415611817576040517f08c379a000000000000000000000000000000000000000000000000000000000815260040161180e90612bbc565b60405180910390fd5b6000611821610bbd565b90506118518185600061183387611bb3565b61183c87611bb3565b604051806020016040528060008152506119c4565b600080600085815260200190815260200160002060008673ffffffffffffffffffffffffffffffffffffffff1673ffffffffffffffffffffffffffffffffffffffff168152602001908152602001600020549050828110156118e8576040517f08c379a00000000000000000000000000000000000000000000000000000000081526004016118df90612b3c565b60405180910390fd5b82810360008086815260200190815260200160002060008773ffffffffffffffffffffffffffffffffffffffff1673ffffffffffffffffffffffffffffffffffffffff16815260200190815260200160002081905550600073ffffffffffffffffffffffffffffffffffffffff168573ffffffffffffffffffffffffffffffffffffffff168373ffffffffffffffffffffffffffffffffffffffff167fc3d58168c5ae7397731d063d5bbf3d657854427343f4c083240f7aacaa2d0f6287876040516119b5929190612c97565b60405180910390a45050505050565b505050505050565b6119eb8473ffffffffffffffffffffffffffffffffffffffff16611e60565b15611bab578373ffffffffffffffffffffffffffffffffffffffff1663bc197c8187878686866040518663ffffffff1660e01b8152600401611a31959493929190612984565b602060405180830381600087803b158015611a4b57600080fd5b505af1925050508015611a7c57506040513d601f19601f82011682018060405250810190611a799190612606565b60015b611b2257611a88613055565b806308c379a01415611ae55750611a9d613498565b80611aa85750611ae7565b806040517f08c379a0000000000000000000000000000000000000000000000000000000008152600401611adc9190612aba565b60405180910390fd5b505b6040517f08c379a0000000000000000000000000000000000000000000000000000000008152600401611b1990612adc565b60405180910390fd5b63bc197c8160e01b7bffffffffffffffffffffffffffffffffffffffffffffffffffffffff1916817bffffffffffffffffffffffffffffffffffffffffffffffffffffffff191614611ba9576040517f08c379a0000000000000000000000000000000000000000000000000000000008152600401611ba090612afc565b60405180910390fd5b505b505050505050565b60606000600167ffffffffffffffff811115611bf8577f4e487b7100000000000000000000000000000000000000000000000000000000600052604160045260246000fd5b604051908082528060200260200182016040528015611c265781602001602082028036833780820191505090505b5090508281600081518110611c64577f4e487b7100000000000000000000000000000000000000000000000000000000600052603260045260246000fd5b60200260200101818152505080915050919050565b611c988473ffffffffffffffffffffffffffffffffffffffff16611e60565b15611e58578373ffffffffffffffffffffffffffffffffffffffff1663f23a6e6187878686866040518663ffffffff1660e01b8152600401611cde9594939291906129ec565b602060405180830381600087803b158015611cf857600080fd5b505af1925050508015611d2957506040513d601f19601f82011682018060405250810190611d269190612606565b60015b611dcf57611d35613055565b806308c379a01415611d925750611d4a613498565b80611d555750611d94565b806040517f08c379a0000000000000000000000000000000000000000000000000000000008152600401611d899190612aba565b60405180910390fd5b505b6040517f08c379a0000000000000000000000000000000000000000000000000000000008152600401611dc690612adc565b60405180910390fd5b63f23a6e6160e01b7bffffffffffffffffffffffffffffffffffffffffffffffffffffffff1916817bffffffffffffffffffffffffffffffffffffffffffffffffffffffff191614611e56576040517f08c379a0000000000000000000000000000000000000000000000000000000008152600401611e4d90612afc565b60405180910390fd5b505b505050505050565b600080823b905060008111915050919050565b828054611e7f90612f1c565b90600052602060002090601f016020900481019282611ea15760008555611ee8565b82601f10611eba57805160ff1916838001178555611ee8565b82800160010185558215611ee8579182015b82811115611ee7578251825591602001919060010190611ecc565b5b509050611ef59190611ef9565b5090565b5b80821115611f12576000816000905550600101611efa565b5090565b6000611f29611f2484612ce5565b612cc0565b90508083825260208201905082856020860282011115611f4857600080fd5b60005b85811015611f785781611f5e888261206a565b845260208401935060208301925050600181019050611f4b565b5050509392505050565b6000611f95611f9084612d11565b612cc0565b90508083825260208201905082856020860282011115611fb457600080fd5b60005b85811015611fe45781611fca8882612166565b845260208401935060208301925050600181019050611fb7565b5050509392505050565b6000612001611ffc84612d3d565b612cc0565b90508281526020810184848401111561201957600080fd5b612024848285612eda565b509392505050565b600061203f61203a84612d6e565b612cc0565b90508281526020810184848401111561205757600080fd5b612062848285612eda565b509392505050565b6000813590506120798161352e565b92915050565b600082601f83011261209057600080fd5b81356120a0848260208601611f16565b91505092915050565b600082601f8301126120ba57600080fd5b81356120ca848260208601611f82565b91505092915050565b6000813590506120e281613545565b92915050565b6000813590506120f78161355c565b92915050565b60008151905061210c8161355c565b92915050565b600082601f83011261212357600080fd5b8135612133848260208601611fee565b91505092915050565b600082601f83011261214d57600080fd5b813561215d84826020860161202c565b91505092915050565b60008135905061217581613573565b92915050565b6000806040838503121561218e57600080fd5b600061219c8582860161206a565b92505060206121ad8582860161206a565b9150509250929050565b600080600080600060a086880312156121cf57600080fd5b60006121dd8882890161206a565b95505060206121ee8882890161206a565b945050604086013567ffffffffffffffff81111561220b57600080fd5b612217888289016120a9565b935050606086013567ffffffffffffffff81111561223457600080fd5b612240888289016120a9565b925050608086013567ffffffffffffffff81111561225d57600080fd5b61226988828901612112565b9150509295509295909350565b600080600080600060a0868803121561228e57600080fd5b600061229c8882890161206a565b95505060206122ad8882890161206a565b94505060406122be88828901612166565b93505060606122cf88828901612166565b925050608086013567ffffffffffffffff8111156122ec57600080fd5b6122f888828901612112565b9150509295509295909350565b60008060006060848603121561231a57600080fd5b60006123288682870161206a565b935050602084013567ffffffffffffffff81111561234557600080fd5b612351868287016120a9565b925050604084013567ffffffffffffffff81111561236e57600080fd5b61237a868287016120a9565b9150509250925092565b6000806000806080858703121561239a57600080fd5b60006123a88782880161206a565b945050602085013567ffffffffffffffff8111156123c557600080fd5b6123d1878288016120a9565b935050604085013567ffffffffffffffff8111156123ee57600080fd5b6123fa878288016120a9565b925050606085013567ffffffffffffffff81111561241757600080fd5b61242387828801612112565b91505092959194509250565b6000806040838503121561244257600080fd5b60006124508582860161206a565b9250506020612461858286016120d3565b9150509250929050565b6000806040838503121561247e57600080fd5b600061248c8582860161206a565b925050602061249d85828601612166565b9150509250929050565b6000806000606084860312156124bc57600080fd5b60006124ca8682870161206a565b93505060206124db86828701612166565b92505060406124ec86828701612166565b9150509250925092565b6000806000806080858703121561250c57600080fd5b600061251a8782880161206a565b945050602061252b87828801612166565b935050604061253c87828801612166565b925050606085013567ffffffffffffffff81111561255957600080fd5b61256587828801612112565b91505092959194509250565b6000806040838503121561258457600080fd5b600083013567ffffffffffffffff81111561259e57600080fd5b6125aa8582860161207f565b925050602083013567ffffffffffffffff8111156125c757600080fd5b6125d3858286016120a9565b9150509250929050565b6000602082840312156125ef57600080fd5b60006125fd848285016120e8565b91505092915050565b60006020828403121561261857600080fd5b6000612626848285016120fd565b91505092915050565b60006020828403121561264157600080fd5b600082013567ffffffffffffffff81111561265b57600080fd5b6126678482850161213c565b91505092915050565b60006020828403121561268257600080fd5b600061269084828501612166565b91505092915050565b60006126a58383612966565b60208301905092915050565b6126ba81612e66565b82525050565b60006126cb82612daf565b6126d58185612ddd565b93506126e083612d9f565b8060005b838110156127115781516126f88882612699565b975061270383612dd0565b9250506001810190506126e4565b5085935050505092915050565b61272781612e78565b82525050565b600061273882612dba565b6127428185612dee565b9350612752818560208601612ee9565b61275b81613077565b840191505092915050565b600061277182612dc5565b61277b8185612dff565b935061278b818560208601612ee9565b61279481613077565b840191505092915050565b60006127ac603483612dff565b91506127b782613095565b604082019050919050565b60006127cf602883612dff565b91506127da826130e4565b604082019050919050565b60006127f2602b83612dff565b91506127fd82613133565b604082019050919050565b6000612815602483612dff565b915061282082613182565b604082019050919050565b6000612838602983612dff565b9150612843826131d1565b604082019050919050565b600061285b602583612dff565b915061286682613220565b604082019050919050565b600061287e603283612dff565b91506128898261326f565b604082019050919050565b60006128a1602383612dff565b91506128ac826132be565b604082019050919050565b60006128c4602a83612dff565b91506128cf8261330d565b604082019050919050565b60006128e7602983612dff565b91506128f28261335c565b604082019050919050565b600061290a602983612dff565b9150612915826133ab565b604082019050919050565b600061292d602883612dff565b9150612938826133fa565b604082019050919050565b6000612950602183612dff565b915061295b82613449565b604082019050919050565b61296f81612ed0565b82525050565b61297e81612ed0565b82525050565b600060a08201905061299960008301886126b1565b6129a660208301876126b1565b81810360408301526129b881866126c0565b905081810360608301526129cc81856126c0565b905081810360808301526129e0818461272d565b90509695505050505050565b600060a082019050612a0160008301886126b1565b612a0e60208301876126b1565b612a1b6040830186612975565b612a286060830185612975565b8181036080830152612a3a818461272d565b90509695505050505050565b60006020820190508181036000830152612a6081846126c0565b905092915050565b60006040820190508181036000830152612a8281856126c0565b90508181036020830152612a9681846126c0565b90509392505050565b6000602082019050612ab4600083018461271e565b92915050565b60006020820190508181036000830152612ad48184612766565b905092915050565b60006020820190508181036000830152612af58161279f565b9050919050565b60006020820190508181036000830152612b15816127c2565b9050919050565b60006020820190508181036000830152612b35816127e5565b9050919050565b60006020820190508181036000830152612b5581612808565b9050919050565b60006020820190508181036000830152612b758161282b565b9050919050565b60006020820190508181036000830152612b958161284e565b9050919050565b60006020820190508181036000830152612bb581612871565b9050919050565b60006020820190508181036000830152612bd581612894565b9050919050565b60006020820190508181036000830152612bf5816128b7565b9050919050565b60006020820190508181036000830152612c15816128da565b9050919050565b60006020820190508181036000830152612c35816128fd565b9050919050565b60006020820190508181036000830152612c5581612920565b9050919050565b60006020820190508181036000830152612c7581612943565b9050919050565b6000602082019050612c916000830184612975565b92915050565b6000604082019050612cac6000830185612975565b612cb96020830184612975565b9392505050565b6000612cca612cdb565b9050612cd68282612f4e565b919050565b6000604051905090565b600067ffffffffffffffff821115612d0057612cff613026565b5b602082029050602081019050919050565b600067ffffffffffffffff821115612d2c57612d2b613026565b5b602082029050602081019050919050565b600067ffffffffffffffff821115612d5857612d57613026565b5b612d6182613077565b9050602081019050919050565b600067ffffffffffffffff821115612d8957612d88613026565b5b612d9282613077565b9050602081019050919050565b6000819050602082019050919050565b600081519050919050565b600081519050919050565b600081519050919050565b6000602082019050919050565b600082825260208201905092915050565b600082825260208201905092915050565b600082825260208201905092915050565b6000612e1b82612ed0565b9150612e2683612ed0565b9250827fffffffffffffffffffffffffffffffffffffffffffffffffffffffffffffffff03821115612e5b57612e5a612fc8565b5b828201905092915050565b6000612e7182612eb0565b9050919050565b60008115159050919050565b60007fffffffff0000000000000000000000000000000000000000000000000000000082169050919050565b600073ffffffffffffffffffffffffffffffffffffffff82169050919050565b6000819050919050565b82818337600083830152505050565b60005b83811015612f07578082015181840152602081019050612eec565b83811115612f16576000848401525b50505050565b60006002820490506001821680612f3457607f821691505b60208210811415612f4857612f47612ff7565b5b50919050565b612f5782613077565b810181811067ffffffffffffffff82111715612f7657612f75613026565b5b80604052505050565b6000612f8a82612ed0565b91507fffffffffffffffffffffffffffffffffffffffffffffffffffffffffffffffff821415612fbd57612fbc612fc8565b5b600182019050919050565b7f4e487b7100000000000000000000000000000000000000000000000000000000600052601160045260246000fd5b7f4e487b7100000000000000000000000000000000000000000000000000000000600052602260045260246000fd5b7f4e487b7100000000000000000000000000000000000000000000000000000000600052604160045260246000fd5b600060033d11156130745760046000803e613071600051613088565b90505b90565b6000601f19601f8301169050919050565b60008160e01c9050919050565b7f455243313135353a207472616e7366657220746f206e6f6e204552433131353560008201527f526563656976657220696d706c656d656e746572000000000000000000000000602082015250565b7f455243313135353a204552433131353552656365697665722072656a6563746560008201527f6420746f6b656e73000000000000000000000000000000000000000000000000602082015250565b7f455243313135353a2062616c616e636520717565727920666f7220746865207a60008201527f65726f2061646472657373000000000000000000000000000000000000000000602082015250565b7f455243313135353a206275726e20616d6f756e7420657863656564732062616c60008201527f616e636500000000000000000000000000000000000000000000000000000000602082015250565b7f455243313135353a2063616c6c6572206973206e6f74206f776e6572206e6f7260008201527f20617070726f7665640000000000000000000000000000000000000000000000602082015250565b7f455243313135353a207472616e7366657220746f20746865207a65726f20616460008201527f6472657373000000000000000000000000000000000000000000000000000000602082015250565b7f455243313135353a207472616e736665722063616c6c6572206973206e6f742060008201527f6f776e6572206e6f7220617070726f7665640000000000000000000000000000602082015250565b7f455243313135353a206275726e2066726f6d20746865207a65726f206164647260008201527f6573730000000000000000000000000000000000000000000000000000000000602082015250565b7f455243313135353a20696e73756666696369656e742062616c616e636520666f60008201527f72207472616e7366657200000000000000000000000000000000000000000000602082015250565b7f455243313135353a2073657474696e6720617070726f76616c2073746174757360008201527f20666f722073656c660000000000000000000000000000000000000000000000602082015250565b7f455243313135353a206163636f756e747320616e6420696473206c656e67746860008201527f206d69736d617463680000000000000000000000000000000000000000000000602082015250565b7f455243313135353a2069647320616e6420616d6f756e7473206c656e6774682060008201527f6d69736d61746368000000000000000000000000000000000000000000000000602082015250565b7f455243313135353a206d696e7420746f20746865207a65726f2061646472657360008201527f7300000000000000000000000000000000000000000000000000000000000000602082015250565b600060443d10156134a85761352b565b6134b0612cdb565b60043d036004823e80513d602482011167ffffffffffffffff821117156134d857505061352b565b808201805167ffffffffffffffff8111156134f6575050505061352b565b80602083010160043d03850181111561351357505050505061352b565b61352282602001850186612f4e565b82955050505050505b90565b61353781612e66565b811461354257600080fd5b50565b61354e81612e78565b811461355957600080fd5b50565b61356581612e84565b811461357057600080fd5b50565b61357c81612ed0565b811461358757600080fd5b5056fea2646970667358221220fbdf5c43df1f160066113350d1311a7c392097bd4c692dcbf9abf21fb63b7c1664736f6c63430008020033",
  "linkReferences": {},
  "deployedLinkReferences": {}
}