{
  "_format": "hh-sol-artifact-1",
  "contractName": "FixedPointPoop",
  "sourceName": "contracts/libraries/FixedPoint.sol",
  "abi": [
    {
      "inputs": [
        {
          "internalType": "address",
          "name": "fullmathlib",
          "type": "address"
        }
      ],
      "stateMutability": "nonpayable",
      "type": "constructor"
    },
    {
      "inputs": [
        {
          "components": [
            {
              "internalType": "uint224",
              "name": "_x",
              "type": "uint224"
            }
          ],
          "internalType": "struct FixedPointPoop.uq112x112",
          "name": "self",
          "type": "tuple"
        }
      ],
      "name": "decode",
      "outputs": [
        {
          "internalType": "uint112",
          "name": "",
          "type": "uint112"
        }
      ],
      "stateMutability": "view",
      "type": "function"
    },
    {
      "inputs": [
        {
          "components": [
            {
              "internalType": "uint224",
              "name": "_x",
              "type": "uint224"
            }
          ],
          "internalType": "struct FixedPointPoop.uq112x112",
          "name": "self",
          "type": "tuple"
        }
      ],
      "name": "decode112with18",
      "outputs": [
        {
          "internalType": "uint256",
          "name": "",
          "type": "uint256"
        }
      ],
      "stateMutability": "view",
      "type": "function"
    },
    {
      "inputs": [
        {
          "internalType": "uint256",
          "name": "numerator",
          "type": "uint256"
        },
        {
          "internalType": "uint256",
          "name": "denominator",
          "type": "uint256"
        }
      ],
      "name": "fraction",
      "outputs": [
        {
          "components": [
            {
              "internalType": "uint224",
              "name": "_x",
              "type": "uint224"
            }
          ],
          "internalType": "struct FixedPointPoop.uq112x112",
          "name": "",
          "type": "tuple"
        }
      ],
      "stateMutability": "view",
      "type": "function"
    }
  ],
  "bytecode": "0x608060405234801561001057600080fd5b5060405161093c38038061093c8339818101604052810190610032919061008d565b806000806101000a81548173ffffffffffffffffffffffffffffffffffffffff021916908373ffffffffffffffffffffffffffffffffffffffff160217905550506100ff565b600081519050610087816100e8565b92915050565b60006020828403121561009f57600080fd5b60006100ad84828501610078565b91505092915050565b60006100c1826100c8565b9050919050565b600073ffffffffffffffffffffffffffffffffffffffff82169050919050565b6100f1816100b6565b81146100fc57600080fd5b50565b61082e8061010e6000396000f3fe608060405234801561001057600080fd5b50600436106100415760003560e01c80630f1530e4146100465780634fd04a40146100765780638da7b038146100a6575b600080fd5b610060600480360381019061005b9190610547565b6100d6565b60405161006d91906106b2565b60405180910390f35b610090600480360381019061008b91906104f5565b6103de565b60405161009d91906106cd565b60405180910390f35b6100c060048036038101906100bb91906104f5565b610411565b6040516100cd91906106e8565b60405180910390f35b6100de61044d565b60008211610121576040517f08c379a000000000000000000000000000000000000000000000000000000000815260040161011890610672565b60405180910390fd5b600083141561015f57604051806020016040528060007bffffffffffffffffffffffffffffffffffffffffffffffffffffffff1681525090506103d8565b7fffffffffffffffffffffffffffffffffffffffffffffffffffffffffffffffff71ffffffffffffffffffffffffffffffffffff16831161026557600082607060ff1685901b816101ac57fe5b0490507fffffffffffffffffffffffffffffffffffffffffffffffffffffffffffffffff7bffffffffffffffffffffffffffffffffffffffffffffffffffffffff16811115610230576040517f08c379a000000000000000000000000000000000000000000000000000000000815260040161022790610692565b60405180910390fd5b6040518060200160405280827bffffffffffffffffffffffffffffffffffffffffffffffffffffffff168152509150506103d8565b60008060009054906101000a900473ffffffffffffffffffffffffffffffffffffffff1673ffffffffffffffffffffffffffffffffffffffff1663aa9a0912856e010000000000000000000000000000866040518463ffffffff1660e01b81526004016102d493929190610703565b60206040518083038186803b1580156102ec57600080fd5b505afa158015610300573d6000803e3d6000fd5b505050506040513d601f19601f82011682018060405250810190610324919061051e565b90507fffffffffffffffffffffffffffffffffffffffffffffffffffffffffffffffff7bffffffffffffffffffffffffffffffffffffffffffffffffffffffff168111156103a7576040517f08c379a000000000000000000000000000000000000000000000000000000000815260040161039e90610692565b60405180910390fd5b6040518060200160405280827bffffffffffffffffffffffffffffffffffffffffffffffffffffffff168152509150505b92915050565b6000607060ff1682600001517bffffffffffffffffffffffffffffffffffffffffffffffffffffffff16901c9050919050565b60006612725dd1d243ab82600001517bffffffffffffffffffffffffffffffffffffffffffffffffffffffff168161044557fe5b049050919050565b604051806020016040528060007bffffffffffffffffffffffffffffffffffffffffffffffffffffffff1681525090565b60006020828403121561049057600080fd5b61049a602061073a565b905060006104aa848285016104b6565b60008301525092915050565b6000813590506104c5816107ca565b92915050565b6000813590506104da816107e1565b92915050565b6000815190506104ef816107e1565b92915050565b60006020828403121561050757600080fd5b60006105158482850161047e565b91505092915050565b60006020828403121561053057600080fd5b600061053e848285016104e0565b91505092915050565b6000806040838503121561055a57600080fd5b6000610568858286016104cb565b9250506020610579858286016104cb565b9150509250929050565b600061059060268361076b565b91507f4669786564506f696e743a3a6672616374696f6e3a206469766973696f6e206260008301527f79207a65726f00000000000000000000000000000000000000000000000000006020830152604082019050919050565b60006105f6601e8361076b565b91507f4669786564506f696e743a3a6672616374696f6e3a206f766572666c6f7700006000830152602082019050919050565b60208201600082015161063f6000850182610654565b50505050565b61064e8161077c565b82525050565b61065d81610796565b82525050565b61066c816107be565b82525050565b6000602082019050818103600083015261068b81610583565b9050919050565b600060208201905081810360008301526106ab816105e9565b9050919050565b60006020820190506106c76000830184610629565b92915050565b60006020820190506106e26000830184610645565b92915050565b60006020820190506106fd6000830184610663565b92915050565b60006060820190506107186000830186610663565b6107256020830185610663565b6107326040830184610663565b949350505050565b6000604051905081810181811067ffffffffffffffff82111715610761576107606107c8565b5b8060405250919050565b600082825260208201905092915050565b60006dffffffffffffffffffffffffffff82169050919050565b60007bffffffffffffffffffffffffffffffffffffffffffffffffffffffff82169050919050565b6000819050919050565bfe5b6107d381610796565b81146107de57600080fd5b50565b6107ea816107be565b81146107f557600080fd5b5056fea2646970667358221220274cfa654077735c401fc8bfeaf2a9c573007663f8040f3c5891bc48a392fffa64736f6c63430007050033",
  "linkReferences": {},
  "deployedLinkReferences": {}
}