{
  "_format": "hh-sol-artifact-1",
  "contractName": "FullMath",
  "sourceName": "contracts/libraries/FixedPoint.sol",
  "abi": [
    {
      "inputs": [
        {
          "internalType": "uint256",
          "name": "x",
          "type": "uint256"
        },
        {
          "internalType": "uint256",
          "name": "y",
          "type": "uint256"
        },
        {
          "internalType": "uint256",
          "name": "d",
          "type": "uint256"
        }
      ],
      "name": "mulDiv",
      "outputs": [
        {
          "internalType": "uint256",
          "name": "",
          "type": "uint256"
        }
      ],
      "stateMutability": "pure",
      "type": "function"
    }
  ],
  "bytecode": "0x608060405234801561001057600080fd5b50610335806100206000396000f3fe608060405234801561001057600080fd5b506004361061002b5760003560e01c8063aa9a091214610030575b600080fd5b61004a600480360381019061004591906101f4565b610060565b60405161005791906102b2565b60405180910390f35b600080600061006f86866100ef565b915091506000848061007d57fe5b868809905082811115610091576001820391505b80830392508482106100d8576040517f08c379a00000000000000000000000000000000000000000000000000000000081526004016100cf90610292565b60405180910390fd5b6100e3838387610142565b93505050509392505050565b60008060007fffffffffffffffffffffffffffffffffffffffffffffffffffffffffffffffff8061011c57fe5b8486099050838502925082810391508281101561013a576001820391505b509250929050565b600080826000038316905080838161015657fe5b04925080858161016257fe5b049450600181826000038161017357fe5b04018402850194506000600190508084026002038102905080840260020381029050808402600203810290508084026002038102905080840260020381029050808402600203810290508084026002038102905080840260020381029050808602925050509392505050565b6000813590506101ee816102e8565b92915050565b60008060006060848603121561020957600080fd5b6000610217868287016101df565b9350506020610228868287016101df565b9250506040610239868287016101df565b9150509250925092565b6000610250601a836102cd565b91507f46756c6c4d6174683a3a6d756c4469763a206f766572666c6f770000000000006000830152602082019050919050565b61028c816102de565b82525050565b600060208201905081810360008301526102ab81610243565b9050919050565b60006020820190506102c76000830184610283565b92915050565b600082825260208201905092915050565b6000819050919050565b6102f1816102de565b81146102fc57600080fd5b5056fea26469706673582212208dd32c066add8f805361949271b5b5c4410744e7416359fd666c810090ce060b64736f6c63430007050033",
  "linkReferences": {},
  "deployedLinkReferences": {}
}