{
  "_format": "hh-sol-artifact-1",
  "contractName": "ERC721EnumerableMock",
  "sourceName": "contracts/OZ/mocks/ERC721EnumerableMock.sol",
  "abi": [
    {
      "inputs": [
        {
          "internalType": "string",
          "name": "name",
          "type": "string"
        },
        {
          "internalType": "string",
          "name": "symbol",
          "type": "string"
        }
      ],
      "stateMutability": "nonpayable",
      "type": "constructor"
    },
    {
      "anonymous": false,
      "inputs": [
        {
          "indexed": true,
          "internalType": "address",
          "name": "owner",
          "type": "address"
        },
        {
          "indexed": true,
          "internalType": "address",
          "name": "approved",
          "type": "address"
        },
        {
          "indexed": true,
          "internalType": "uint256",
          "name": "tokenId",
          "type": "uint256"
        }
      ],
      "name": "Approval",
      "type": "event"
    },
    {
      "anonymous": false,
      "inputs": [
        {
          "indexed": true,
          "internalType": "address",
          "name": "owner",
          "type": "address"
        },
        {
          "indexed": true,
          "internalType": "address",
          "name": "operator",
          "type": "address"
        },
        {
          "indexed": false,
          "internalType": "bool",
          "name": "approved",
          "type": "bool"
        }
      ],
      "name": "ApprovalForAll",
      "type": "event"
    },
    {
      "anonymous": false,
      "inputs": [
        {
          "indexed": true,
          "internalType": "address",
          "name": "from",
          "type": "address"
        },
        {
          "indexed": true,
          "internalType": "address",
          "name": "to",
          "type": "address"
        },
        {
          "indexed": true,
          "internalType": "uint256",
          "name": "tokenId",
          "type": "uint256"
        }
      ],
      "name": "Transfer",
      "type": "event"
    },
    {
      "inputs": [
        {
          "internalType": "address",
          "name": "to",
          "type": "address"
        },
        {
          "internalType": "uint256",
          "name": "tokenId",
          "type": "uint256"
        }
      ],
      "name": "approve",
      "outputs": [],
      "stateMutability": "nonpayable",
      "type": "function"
    },
    {
      "inputs": [
        {
          "internalType": "address",
          "name": "owner",
          "type": "address"
        }
      ],
      "name": "balanceOf",
      "outputs": [
        {
          "internalType": "uint256",
          "name": "",
          "type": "uint256"
        }
      ],
      "stateMutability": "view",
      "type": "function"
    },
    {
      "inputs": [],
      "name": "baseURI",
      "outputs": [
        {
          "internalType": "string",
          "name": "",
          "type": "string"
        }
      ],
      "stateMutability": "view",
      "type": "function"
    },
    {
      "inputs": [
        {
          "internalType": "uint256",
          "name": "tokenId",
          "type": "uint256"
        }
      ],
      "name": "burn",
      "outputs": [],
      "stateMutability": "nonpayable",
      "type": "function"
    },
    {
      "inputs": [
        {
          "internalType": "uint256",
          "name": "tokenId",
          "type": "uint256"
        }
      ],
      "name": "exists",
      "outputs": [
        {
          "internalType": "bool",
          "name": "",
          "type": "bool"
        }
      ],
      "stateMutability": "view",
      "type": "function"
    },
    {
      "inputs": [
        {
          "internalType": "uint256",
          "name": "tokenId",
          "type": "uint256"
        }
      ],
      "name": "getApproved",
      "outputs": [
        {
          "internalType": "address",
          "name": "",
          "type": "address"
        }
      ],
      "stateMutability": "view",
      "type": "function"
    },
    {
      "inputs": [
        {
          "internalType": "address",
          "name": "owner",
          "type": "address"
        },
        {
          "internalType": "address",
          "name": "operator",
          "type": "address"
        }
      ],
      "name": "isApprovedForAll",
      "outputs": [
        {
          "internalType": "bool",
          "name": "",
          "type": "bool"
        }
      ],
      "stateMutability": "view",
      "type": "function"
    },
    {
      "inputs": [
        {
          "internalType": "address",
          "name": "to",
          "type": "address"
        },
        {
          "internalType": "uint256",
          "name": "tokenId",
          "type": "uint256"
        }
      ],
      "name": "mint",
      "outputs": [],
      "stateMutability": "nonpayable",
      "type": "function"
    },
    {
      "inputs": [],
      "name": "name",
      "outputs": [
        {
          "internalType": "string",
          "name": "",
          "type": "string"
        }
      ],
      "stateMutability": "view",
      "type": "function"
    },
    {
      "inputs": [
        {
          "internalType": "uint256",
          "name": "tokenId",
          "type": "uint256"
        }
      ],
      "name": "ownerOf",
      "outputs": [
        {
          "internalType": "address",
          "name": "",
          "type": "address"
        }
      ],
      "stateMutability": "view",
      "type": "function"
    },
    {
      "inputs": [
        {
          "internalType": "address",
          "name": "to",
          "type": "address"
        },
        {
          "internalType": "uint256",
          "name": "tokenId",
          "type": "uint256"
        },
        {
          "internalType": "bytes",
          "name": "_data",
          "type": "bytes"
        }
      ],
      "name": "safeMint",
      "outputs": [],
      "stateMutability": "nonpayable",
      "type": "function"
    },
    {
      "inputs": [
        {
          "internalType": "address",
          "name": "to",
          "type": "address"
        },
        {
          "internalType": "uint256",
          "name": "tokenId",
          "type": "uint256"
        }
      ],
      "name": "safeMint",
      "outputs": [],
      "stateMutability": "nonpayable",
      "type": "function"
    },
    {
      "inputs": [
        {
          "internalType": "address",
          "name": "from",
          "type": "address"
        },
        {
          "internalType": "address",
          "name": "to",
          "type": "address"
        },
        {
          "internalType": "uint256",
          "name": "tokenId",
          "type": "uint256"
        }
      ],
      "name": "safeTransferFrom",
      "outputs": [],
      "stateMutability": "nonpayable",
      "type": "function"
    },
    {
      "inputs": [
        {
          "internalType": "address",
          "name": "from",
          "type": "address"
        },
        {
          "internalType": "address",
          "name": "to",
          "type": "address"
        },
        {
          "internalType": "uint256",
          "name": "tokenId",
          "type": "uint256"
        },
        {
          "internalType": "bytes",
          "name": "_data",
          "type": "bytes"
        }
      ],
      "name": "safeTransferFrom",
      "outputs": [],
      "stateMutability": "nonpayable",
      "type": "function"
    },
    {
      "inputs": [
        {
          "internalType": "address",
          "name": "operator",
          "type": "address"
        },
        {
          "internalType": "bool",
          "name": "approved",
          "type": "bool"
        }
      ],
      "name": "setApprovalForAll",
      "outputs": [],
      "stateMutability": "nonpayable",
      "type": "function"
    },
    {
      "inputs": [
        {
          "internalType": "string",
          "name": "newBaseTokenURI",
          "type": "string"
        }
      ],
      "name": "setBaseURI",
      "outputs": [],
      "stateMutability": "nonpayable",
      "type": "function"
    },
    {
      "inputs": [
        {
          "internalType": "bytes4",
          "name": "interfaceId",
          "type": "bytes4"
        }
      ],
      "name": "supportsInterface",
      "outputs": [
        {
          "internalType": "bool",
          "name": "",
          "type": "bool"
        }
      ],
      "stateMutability": "view",
      "type": "function"
    },
    {
      "inputs": [],
      "name": "symbol",
      "outputs": [
        {
          "internalType": "string",
          "name": "",
          "type": "string"
        }
      ],
      "stateMutability": "view",
      "type": "function"
    },
    {
      "inputs": [
        {
          "internalType": "uint256",
          "name": "index",
          "type": "uint256"
        }
      ],
      "name": "tokenByIndex",
      "outputs": [
        {
          "internalType": "uint256",
          "name": "",
          "type": "uint256"
        }
      ],
      "stateMutability": "view",
      "type": "function"
    },
    {
      "inputs": [
        {
          "internalType": "address",
          "name": "owner",
          "type": "address"
        },
        {
          "internalType": "uint256",
          "name": "index",
          "type": "uint256"
        }
      ],
      "name": "tokenOfOwnerByIndex",
      "outputs": [
        {
          "internalType": "uint256",
          "name": "",
          "type": "uint256"
        }
      ],
      "stateMutability": "view",
      "type": "function"
    },
    {
      "inputs": [
        {
          "internalType": "uint256",
          "name": "tokenId",
          "type": "uint256"
        }
      ],
      "name": "tokenURI",
      "outputs": [
        {
          "internalType": "string",
          "name": "",
          "type": "string"
        }
      ],
      "stateMutability": "view",
      "type": "function"
    },
    {
      "inputs": [],
      "name": "totalSupply",
      "outputs": [
        {
          "internalType": "uint256",
          "name": "",
          "type": "uint256"
        }
      ],
      "stateMutability": "view",
      "type": "function"
    },
    {
      "inputs": [
        {
          "internalType": "address",
          "name": "from",
          "type": "address"
        },
        {
          "internalType": "address",
          "name": "to",
          "type": "address"
        },
        {
          "internalType": "uint256",
          "name": "tokenId",
          "type": "uint256"
        }
      ],
      "name": "transferFrom",
      "outputs": [],
      "stateMutability": "nonpayable",
      "type": "function"
    }
  ],
  "bytecode": "0x60806040523480156200001157600080fd5b506040516200372d3803806200372d833981810160405281019062000037919062000197565b818181600090805190602001906200005192919062000075565b5080600190805190602001906200006a92919062000075565b50505050506200037a565b82805462000083906200029f565b90600052602060002090601f016020900481019282620000a75760008555620000f3565b82601f10620000c257805160ff1916838001178555620000f3565b82800160010185558215620000f3579182015b82811115620000f2578251825591602001919060010190620000d5565b5b50905062000102919062000106565b5090565b5b808211156200012157600081600090555060010162000107565b5090565b60006200013c620001368462000233565b6200020a565b9050828152602081018484840111156200015557600080fd5b6200016284828562000269565b509392505050565b600082601f8301126200017c57600080fd5b81516200018e84826020860162000125565b91505092915050565b60008060408385031215620001ab57600080fd5b600083015167ffffffffffffffff811115620001c657600080fd5b620001d4858286016200016a565b925050602083015167ffffffffffffffff811115620001f257600080fd5b62000200858286016200016a565b9150509250929050565b60006200021662000229565b9050620002248282620002d5565b919050565b6000604051905090565b600067ffffffffffffffff8211156200025157620002506200033a565b5b6200025c8262000369565b9050602081019050919050565b60005b83811015620002895780820151818401526020810190506200026c565b8381111562000299576000848401525b50505050565b60006002820490506001821680620002b857607f821691505b60208210811415620002cf57620002ce6200030b565b5b50919050565b620002e08262000369565b810181811067ffffffffffffffff821117156200030257620003016200033a565b5b80604052505050565b7f4e487b7100000000000000000000000000000000000000000000000000000000600052602260045260246000fd5b7f4e487b7100000000000000000000000000000000000000000000000000000000600052604160045260246000fd5b6000601f19601f8301169050919050565b6133a3806200038a6000396000f3fe608060405234801561001057600080fd5b506004361061014d5760003560e01c80634f6ccce7116100c357806395d89b411161007c57806395d89b41146103c0578063a1448194146103de578063a22cb465146103fa578063b88d4fde14610416578063c87b56dd14610432578063e985e9c5146104625761014d565b80634f6ccce7146102da57806355f804b31461030a5780636352211e146103265780636c0360eb1461035657806370a08231146103745780638832e6e3146103a45761014d565b806323b872dd1161011557806323b872dd1461020a5780632f745c591461022657806340c10f191461025657806342842e0e1461027257806342966c681461028e5780634f558e79146102aa5761014d565b806301ffc9a71461015257806306fdde0314610182578063081812fc146101a0578063095ea7b3146101d057806318160ddd146101ec575b600080fd5b61016c6004803603810190610167919061243c565b610492565b6040516101799190612887565b60405180910390f35b61018a61050c565b60405161019791906128a2565b60405180910390f35b6101ba60048036038101906101b591906124d3565b61059e565b6040516101c79190612820565b60405180910390f35b6101ea60048036038101906101e59190612399565b610623565b005b6101f461073b565b6040516102019190612ac4565b60405180910390f35b610224600480360381019061021f9190612293565b610748565b005b610240600480360381019061023b9190612399565b6107a8565b60405161024d9190612ac4565b60405180910390f35b610270600480360381019061026b9190612399565b61084d565b005b61028c60048036038101906102879190612293565b61085b565b005b6102a860048036038101906102a391906124d3565b61087b565b005b6102c460048036038101906102bf91906124d3565b610887565b6040516102d19190612887565b60405180910390f35b6102f460048036038101906102ef91906124d3565b610899565b6040516103019190612ac4565b60405180910390f35b610324600480360381019061031f919061248e565b610930565b005b610340600480360381019061033b91906124d3565b610946565b60405161034d9190612820565b60405180910390f35b61035e6109f8565b60405161036b91906128a2565b60405180910390f35b61038e6004803603810190610389919061222e565b610a07565b60405161039b9190612ac4565b60405180910390f35b6103be60048036038101906103b991906123d5565b610abf565b005b6103c8610acf565b6040516103d591906128a2565b60405180910390f35b6103f860048036038101906103f39190612399565b610b61565b005b610414600480360381019061040f919061235d565b610b6f565b005b610430600480360381019061042b91906122e2565b610b85565b005b61044c600480360381019061044791906124d3565b610be7565b60405161045991906128a2565b60405180910390f35b61047c60048036038101906104779190612257565b610c8e565b6040516104899190612887565b60405180910390f35b60007f780e9d63000000000000000000000000000000000000000000000000000000007bffffffffffffffffffffffffffffffffffffffffffffffffffffffff1916827bffffffffffffffffffffffffffffffffffffffffffffffffffffffff19161480610505575061050482610d22565b5b9050919050565b60606000805461051b90612ce9565b80601f016020809104026020016040519081016040528092919081815260200182805461054790612ce9565b80156105945780601f1061056957610100808354040283529160200191610594565b820191906000526020600020905b81548152906001019060200180831161057757829003601f168201915b5050505050905090565b60006105a982610e04565b6105e8576040517f08c379a00000000000000000000000000000000000000000000000000000000081526004016105df90612a04565b60405180910390fd5b6004600083815260200190815260200160002060009054906101000a900473ffffffffffffffffffffffffffffffffffffffff169050919050565b600061062e82610946565b90508073ffffffffffffffffffffffffffffffffffffffff168373ffffffffffffffffffffffffffffffffffffffff16141561069f576040517f08c379a000000000000000000000000000000000000000000000000000000000815260040161069690612a64565b60405180910390fd5b8073ffffffffffffffffffffffffffffffffffffffff166106be610e70565b73ffffffffffffffffffffffffffffffffffffffff1614806106ed57506106ec816106e7610e70565b610c8e565b5b61072c576040517f08c379a000000000000000000000000000000000000000000000000000000000815260040161072390612984565b60405180910390fd5b6107368383610e78565b505050565b6000600880549050905090565b610759610753610e70565b82610f31565b610798576040517f08c379a000000000000000000000000000000000000000000000000000000000815260040161078f90612a84565b60405180910390fd5b6107a383838361100f565b505050565b60006107b383610a07565b82106107f4576040517f08c379a00000000000000000000000000000000000000000000000000000000081526004016107eb906128c4565b60405180910390fd5b600660008473ffffffffffffffffffffffffffffffffffffffff1673ffffffffffffffffffffffffffffffffffffffff168152602001908152602001600020600083815260200190815260200160002054905092915050565b610857828261126b565b5050565b61087683838360405180602001604052806000815250610b85565b505050565b61088481611439565b50565b600061089282610e04565b9050919050565b60006108a361073b565b82106108e4576040517f08c379a00000000000000000000000000000000000000000000000000000000081526004016108db90612aa4565b60405180910390fd5b6008828154811061091e577f4e487b7100000000000000000000000000000000000000000000000000000000600052603260045260246000fd5b90600052602060002001549050919050565b8181600a9190610941929190612070565b505050565b6000806002600084815260200190815260200160002060009054906101000a900473ffffffffffffffffffffffffffffffffffffffff169050600073ffffffffffffffffffffffffffffffffffffffff168173ffffffffffffffffffffffffffffffffffffffff1614156109ef576040517f08c379a00000000000000000000000000000000000000000000000000000000081526004016109e6906129c4565b60405180910390fd5b80915050919050565b6060610a0261154a565b905090565b60008073ffffffffffffffffffffffffffffffffffffffff168273ffffffffffffffffffffffffffffffffffffffff161415610a78576040517f08c379a0000000000000000000000000000000000000000000000000000000008152600401610a6f906129a4565b60405180910390fd5b600360008373ffffffffffffffffffffffffffffffffffffffff1673ffffffffffffffffffffffffffffffffffffffff168152602001908152602001600020549050919050565b610aca8383836115dc565b505050565b606060018054610ade90612ce9565b80601f0160208091040260200160405190810160405280929190818152602001828054610b0a90612ce9565b8015610b575780601f10610b2c57610100808354040283529160200191610b57565b820191906000526020600020905b815481529060010190602001808311610b3a57829003601f168201915b5050505050905090565b610b6b8282611637565b5050565b610b81610b7a610e70565b8383611655565b5050565b610b96610b90610e70565b83610f31565b610bd5576040517f08c379a0000000000000000000000000000000000000000000000000000000008152600401610bcc90612a84565b60405180910390fd5b610be1848484846117c2565b50505050565b6060610bf282610e04565b610c31576040517f08c379a0000000000000000000000000000000000000000000000000000000008152600401610c2890612a44565b60405180910390fd5b6000610c3b61154a565b90506000815111610c5b5760405180602001604052806000815250610c86565b80610c658461181e565b604051602001610c769291906127fc565b6040516020818303038152906040525b915050919050565b6000600560008473ffffffffffffffffffffffffffffffffffffffff1673ffffffffffffffffffffffffffffffffffffffff16815260200190815260200160002060008373ffffffffffffffffffffffffffffffffffffffff1673ffffffffffffffffffffffffffffffffffffffff16815260200190815260200160002060009054906101000a900460ff16905092915050565b60007f80ac58cd000000000000000000000000000000000000000000000000000000007bffffffffffffffffffffffffffffffffffffffffffffffffffffffff1916827bffffffffffffffffffffffffffffffffffffffffffffffffffffffff19161480610ded57507f5b5e139f000000000000000000000000000000000000000000000000000000007bffffffffffffffffffffffffffffffffffffffffffffffffffffffff1916827bffffffffffffffffffffffffffffffffffffffffffffffffffffffff1916145b80610dfd5750610dfc826119cb565b5b9050919050565b60008073ffffffffffffffffffffffffffffffffffffffff166002600084815260200190815260200160002060009054906101000a900473ffffffffffffffffffffffffffffffffffffffff1673ffffffffffffffffffffffffffffffffffffffff1614159050919050565b600033905090565b816004600083815260200190815260200160002060006101000a81548173ffffffffffffffffffffffffffffffffffffffff021916908373ffffffffffffffffffffffffffffffffffffffff160217905550808273ffffffffffffffffffffffffffffffffffffffff16610eeb83610946565b73ffffffffffffffffffffffffffffffffffffffff167f8c5be1e5ebec7d5bd14f71427d1e84f3dd0314c0f7b2291e5b200ac8c7c3b92560405160405180910390a45050565b6000610f3c82610e04565b610f7b576040517f08c379a0000000000000000000000000000000000000000000000000000000008152600401610f7290612964565b60405180910390fd5b6000610f8683610946565b90508073ffffffffffffffffffffffffffffffffffffffff168473ffffffffffffffffffffffffffffffffffffffff161480610ff557508373ffffffffffffffffffffffffffffffffffffffff16610fdd8461059e565b73ffffffffffffffffffffffffffffffffffffffff16145b8061100657506110058185610c8e565b5b91505092915050565b8273ffffffffffffffffffffffffffffffffffffffff1661102f82610946565b73ffffffffffffffffffffffffffffffffffffffff1614611085576040517f08c379a000000000000000000000000000000000000000000000000000000000815260040161107c90612a24565b60405180910390fd5b600073ffffffffffffffffffffffffffffffffffffffff168273ffffffffffffffffffffffffffffffffffffffff1614156110f5576040517f08c379a00000000000000000000000000000000000000000000000000000000081526004016110ec90612924565b60405180910390fd5b611100838383611a35565b61110b600082610e78565b6001600360008573ffffffffffffffffffffffffffffffffffffffff1673ffffffffffffffffffffffffffffffffffffffff168152602001908152602001600020600082825461115b9190612bff565b925050819055506001600360008473ffffffffffffffffffffffffffffffffffffffff1673ffffffffffffffffffffffffffffffffffffffff16815260200190815260200160002060008282546111b29190612b78565b92505081905550816002600083815260200190815260200160002060006101000a81548173ffffffffffffffffffffffffffffffffffffffff021916908373ffffffffffffffffffffffffffffffffffffffff160217905550808273ffffffffffffffffffffffffffffffffffffffff168473ffffffffffffffffffffffffffffffffffffffff167fddf252ad1be2c89b69c2b068fc378daa952ba7f163c4a11628f55a4df523b3ef60405160405180910390a4505050565b600073ffffffffffffffffffffffffffffffffffffffff168273ffffffffffffffffffffffffffffffffffffffff1614156112db576040517f08c379a00000000000000000000000000000000000000000000000000000000081526004016112d2906129e4565b60405180910390fd5b6112e481610e04565b15611324576040517f08c379a000000000000000000000000000000000000000000000000000000000815260040161131b90612904565b60405180910390fd5b61133060008383611a35565b6001600360008473ffffffffffffffffffffffffffffffffffffffff1673ffffffffffffffffffffffffffffffffffffffff16815260200190815260200160002060008282546113809190612b78565b92505081905550816002600083815260200190815260200160002060006101000a81548173ffffffffffffffffffffffffffffffffffffffff021916908373ffffffffffffffffffffffffffffffffffffffff160217905550808273ffffffffffffffffffffffffffffffffffffffff16600073ffffffffffffffffffffffffffffffffffffffff167fddf252ad1be2c89b69c2b068fc378daa952ba7f163c4a11628f55a4df523b3ef60405160405180910390a45050565b600061144482610946565b905061145281600084611a35565b61145d600083610e78565b6001600360008373ffffffffffffffffffffffffffffffffffffffff1673ffffffffffffffffffffffffffffffffffffffff16815260200190815260200160002060008282546114ad9190612bff565b925050819055506002600083815260200190815260200160002060006101000a81549073ffffffffffffffffffffffffffffffffffffffff021916905581600073ffffffffffffffffffffffffffffffffffffffff168273ffffffffffffffffffffffffffffffffffffffff167fddf252ad1be2c89b69c2b068fc378daa952ba7f163c4a11628f55a4df523b3ef60405160405180910390a45050565b6060600a805461155990612ce9565b80601f016020809104026020016040519081016040528092919081815260200182805461158590612ce9565b80156115d25780601f106115a7576101008083540402835291602001916115d2565b820191906000526020600020905b8154815290600101906020018083116115b557829003601f168201915b5050505050905090565b6115e6838361126b565b6115f36000848484611b49565b611632576040517f08c379a0000000000000000000000000000000000000000000000000000000008152600401611629906128e4565b60405180910390fd5b505050565b6116518282604051806020016040528060008152506115dc565b5050565b8173ffffffffffffffffffffffffffffffffffffffff168373ffffffffffffffffffffffffffffffffffffffff1614156116c4576040517f08c379a00000000000000000000000000000000000000000000000000000000081526004016116bb90612944565b60405180910390fd5b80600560008573ffffffffffffffffffffffffffffffffffffffff1673ffffffffffffffffffffffffffffffffffffffff16815260200190815260200160002060008473ffffffffffffffffffffffffffffffffffffffff1673ffffffffffffffffffffffffffffffffffffffff16815260200190815260200160002060006101000a81548160ff0219169083151502179055508173ffffffffffffffffffffffffffffffffffffffff168373ffffffffffffffffffffffffffffffffffffffff167f17307eab39ab6107e8899845ad3d59bd9653f200f220920489ca2b5937696c31836040516117b59190612887565b60405180910390a3505050565b6117cd84848461100f565b6117d984848484611b49565b611818576040517f08c379a000000000000000000000000000000000000000000000000000000000815260040161180f906128e4565b60405180910390fd5b50505050565b60606000821415611866576040518060400160405280600181526020017f300000000000000000000000000000000000000000000000000000000000000081525090506119c6565b600082905060005b6000821461189857808061188190612d4c565b915050600a826118919190612bce565b915061186e565b60008167ffffffffffffffff8111156118da577f4e487b7100000000000000000000000000000000000000000000000000000000600052604160045260246000fd5b6040519080825280601f01601f19166020018201604052801561190c5781602001600182028036833780820191505090505b5090505b600085146119bf576001826119259190612bff565b9150600a856119349190612d95565b60306119409190612b78565b60f81b81838151811061197c577f4e487b7100000000000000000000000000000000000000000000000000000000600052603260045260246000fd5b60200101907effffffffffffffffffffffffffffffffffffffffffffffffffffffffffffff1916908160001a905350600a856119b89190612bce565b9450611910565b8093505050505b919050565b60007f01ffc9a7000000000000000000000000000000000000000000000000000000007bffffffffffffffffffffffffffffffffffffffffffffffffffffffff1916827bffffffffffffffffffffffffffffffffffffffffffffffffffffffff1916149050919050565b611a40838383611ce0565b600073ffffffffffffffffffffffffffffffffffffffff168373ffffffffffffffffffffffffffffffffffffffff161415611a8357611a7e81611ce5565b611ac2565b8173ffffffffffffffffffffffffffffffffffffffff168373ffffffffffffffffffffffffffffffffffffffff1614611ac157611ac08382611d2e565b5b5b600073ffffffffffffffffffffffffffffffffffffffff168273ffffffffffffffffffffffffffffffffffffffff161415611b0557611b0081611e9b565b611b44565b8273ffffffffffffffffffffffffffffffffffffffff168273ffffffffffffffffffffffffffffffffffffffff1614611b4357611b428282611fde565b5b5b505050565b6000611b6a8473ffffffffffffffffffffffffffffffffffffffff1661205d565b15611cd3578373ffffffffffffffffffffffffffffffffffffffff1663150b7a02611b93610e70565b8786866040518563ffffffff1660e01b8152600401611bb5949392919061283b565b602060405180830381600087803b158015611bcf57600080fd5b505af1925050508015611c0057506040513d601f19601f82011682018060405250810190611bfd9190612465565b60015b611c83573d8060008114611c30576040519150601f19603f3d011682016040523d82523d6000602084013e611c35565b606091505b50600081511415611c7b576040517f08c379a0000000000000000000000000000000000000000000000000000000008152600401611c72906128e4565b60405180910390fd5b805181602001fd5b63150b7a0260e01b7bffffffffffffffffffffffffffffffffffffffffffffffffffffffff1916817bffffffffffffffffffffffffffffffffffffffffffffffffffffffff191614915050611cd8565b600190505b949350505050565b505050565b6008805490506009600083815260200190815260200160002081905550600881908060018154018082558091505060019003906000526020600020016000909190919091505550565b60006001611d3b84610a07565b611d459190612bff565b9050600060076000848152602001908152602001600020549050818114611e2a576000600660008673ffffffffffffffffffffffffffffffffffffffff1673ffffffffffffffffffffffffffffffffffffffff168152602001908152602001600020600084815260200190815260200160002054905080600660008773ffffffffffffffffffffffffffffffffffffffff1673ffffffffffffffffffffffffffffffffffffffff168152602001908152602001600020600084815260200190815260200160002081905550816007600083815260200190815260200160002081905550505b6007600084815260200190815260200160002060009055600660008573ffffffffffffffffffffffffffffffffffffffff1673ffffffffffffffffffffffffffffffffffffffff16815260200190815260200160002060008381526020019081526020016000206000905550505050565b60006001600880549050611eaf9190612bff565b9050600060096000848152602001908152602001600020549050600060088381548110611f05577f4e487b7100000000000000000000000000000000000000000000000000000000600052603260045260246000fd5b906000526020600020015490508060088381548110611f4d577f4e487b7100000000000000000000000000000000000000000000000000000000600052603260045260246000fd5b906000526020600020018190555081600960008381526020019081526020016000208190555060096000858152602001908152602001600020600090556008805480611fc2577f4e487b7100000000000000000000000000000000000000000000000000000000600052603160045260246000fd5b6001900381819060005260206000200160009055905550505050565b6000611fe983610a07565b905081600660008573ffffffffffffffffffffffffffffffffffffffff1673ffffffffffffffffffffffffffffffffffffffff168152602001908152602001600020600083815260200190815260200160002081905550806007600084815260200190815260200160002081905550505050565b600080823b905060008111915050919050565b82805461207c90612ce9565b90600052602060002090601f01602090048101928261209e57600085556120e5565b82601f106120b757803560ff19168380011785556120e5565b828001600101855582156120e5579182015b828111156120e45782358255916020019190600101906120c9565b5b5090506120f291906120f6565b5090565b5b8082111561210f5760008160009055506001016120f7565b5090565b600061212661212184612b04565b612adf565b90508281526020810184848401111561213e57600080fd5b612149848285612ca7565b509392505050565b60008135905061216081613311565b92915050565b60008135905061217581613328565b92915050565b60008135905061218a8161333f565b92915050565b60008151905061219f8161333f565b92915050565b600082601f8301126121b657600080fd5b81356121c6848260208601612113565b91505092915050565b60008083601f8401126121e157600080fd5b8235905067ffffffffffffffff8111156121fa57600080fd5b60208301915083600182028301111561221257600080fd5b9250929050565b60008135905061222881613356565b92915050565b60006020828403121561224057600080fd5b600061224e84828501612151565b91505092915050565b6000806040838503121561226a57600080fd5b600061227885828601612151565b925050602061228985828601612151565b9150509250929050565b6000806000606084860312156122a857600080fd5b60006122b686828701612151565b93505060206122c786828701612151565b92505060406122d886828701612219565b9150509250925092565b600080600080608085870312156122f857600080fd5b600061230687828801612151565b945050602061231787828801612151565b935050604061232887828801612219565b925050606085013567ffffffffffffffff81111561234557600080fd5b612351878288016121a5565b91505092959194509250565b6000806040838503121561237057600080fd5b600061237e85828601612151565b925050602061238f85828601612166565b9150509250929050565b600080604083850312156123ac57600080fd5b60006123ba85828601612151565b92505060206123cb85828601612219565b9150509250929050565b6000806000606084860312156123ea57600080fd5b60006123f886828701612151565b935050602061240986828701612219565b925050604084013567ffffffffffffffff81111561242657600080fd5b612432868287016121a5565b9150509250925092565b60006020828403121561244e57600080fd5b600061245c8482850161217b565b91505092915050565b60006020828403121561247757600080fd5b600061248584828501612190565b91505092915050565b600080602083850312156124a157600080fd5b600083013567ffffffffffffffff8111156124bb57600080fd5b6124c7858286016121cf565b92509250509250929050565b6000602082840312156124e557600080fd5b60006124f384828501612219565b91505092915050565b61250581612c33565b82525050565b61251481612c45565b82525050565b600061252582612b35565b61252f8185612b4b565b935061253f818560208601612cb6565b61254881612e82565b840191505092915050565b600061255e82612b40565b6125688185612b5c565b9350612578818560208601612cb6565b61258181612e82565b840191505092915050565b600061259782612b40565b6125a18185612b6d565b93506125b1818560208601612cb6565b80840191505092915050565b60006125ca602b83612b5c565b91506125d582612e93565b604082019050919050565b60006125ed603283612b5c565b91506125f882612ee2565b604082019050919050565b6000612610601c83612b5c565b915061261b82612f31565b602082019050919050565b6000612633602483612b5c565b915061263e82612f5a565b604082019050919050565b6000612656601983612b5c565b915061266182612fa9565b602082019050919050565b6000612679602c83612b5c565b915061268482612fd2565b604082019050919050565b600061269c603883612b5c565b91506126a782613021565b604082019050919050565b60006126bf602a83612b5c565b91506126ca82613070565b604082019050919050565b60006126e2602983612b5c565b91506126ed826130bf565b604082019050919050565b6000612705602083612b5c565b91506127108261310e565b602082019050919050565b6000612728602c83612b5c565b915061273382613137565b604082019050919050565b600061274b602983612b5c565b915061275682613186565b604082019050919050565b600061276e602f83612b5c565b9150612779826131d5565b604082019050919050565b6000612791602183612b5c565b915061279c82613224565b604082019050919050565b60006127b4603183612b5c565b91506127bf82613273565b604082019050919050565b60006127d7602c83612b5c565b91506127e2826132c2565b604082019050919050565b6127f681612c9d565b82525050565b6000612808828561258c565b9150612814828461258c565b91508190509392505050565b600060208201905061283560008301846124fc565b92915050565b600060808201905061285060008301876124fc565b61285d60208301866124fc565b61286a60408301856127ed565b818103606083015261287c818461251a565b905095945050505050565b600060208201905061289c600083018461250b565b92915050565b600060208201905081810360008301526128bc8184612553565b905092915050565b600060208201905081810360008301526128dd816125bd565b9050919050565b600060208201905081810360008301526128fd816125e0565b9050919050565b6000602082019050818103600083015261291d81612603565b9050919050565b6000602082019050818103600083015261293d81612626565b9050919050565b6000602082019050818103600083015261295d81612649565b9050919050565b6000602082019050818103600083015261297d8161266c565b9050919050565b6000602082019050818103600083015261299d8161268f565b9050919050565b600060208201905081810360008301526129bd816126b2565b9050919050565b600060208201905081810360008301526129dd816126d5565b9050919050565b600060208201905081810360008301526129fd816126f8565b9050919050565b60006020820190508181036000830152612a1d8161271b565b9050919050565b60006020820190508181036000830152612a3d8161273e565b9050919050565b60006020820190508181036000830152612a5d81612761565b9050919050565b60006020820190508181036000830152612a7d81612784565b9050919050565b60006020820190508181036000830152612a9d816127a7565b9050919050565b60006020820190508181036000830152612abd816127ca565b9050919050565b6000602082019050612ad960008301846127ed565b92915050565b6000612ae9612afa565b9050612af58282612d1b565b919050565b6000604051905090565b600067ffffffffffffffff821115612b1f57612b1e612e53565b5b612b2882612e82565b9050602081019050919050565b600081519050919050565b600081519050919050565b600082825260208201905092915050565b600082825260208201905092915050565b600081905092915050565b6000612b8382612c9d565b9150612b8e83612c9d565b9250827fffffffffffffffffffffffffffffffffffffffffffffffffffffffffffffffff03821115612bc357612bc2612dc6565b5b828201905092915050565b6000612bd982612c9d565b9150612be483612c9d565b925082612bf457612bf3612df5565b5b828204905092915050565b6000612c0a82612c9d565b9150612c1583612c9d565b925082821015612c2857612c27612dc6565b5b828203905092915050565b6000612c3e82612c7d565b9050919050565b60008115159050919050565b60007fffffffff0000000000000000000000000000000000000000000000000000000082169050919050565b600073ffffffffffffffffffffffffffffffffffffffff82169050919050565b6000819050919050565b82818337600083830152505050565b60005b83811015612cd4578082015181840152602081019050612cb9565b83811115612ce3576000848401525b50505050565b60006002820490506001821680612d0157607f821691505b60208210811415612d1557612d14612e24565b5b50919050565b612d2482612e82565b810181811067ffffffffffffffff82111715612d4357612d42612e53565b5b80604052505050565b6000612d5782612c9d565b91507fffffffffffffffffffffffffffffffffffffffffffffffffffffffffffffffff821415612d8a57612d89612dc6565b5b600182019050919050565b6000612da082612c9d565b9150612dab83612c9d565b925082612dbb57612dba612df5565b5b828206905092915050565b7f4e487b7100000000000000000000000000000000000000000000000000000000600052601160045260246000fd5b7f4e487b7100000000000000000000000000000000000000000000000000000000600052601260045260246000fd5b7f4e487b7100000000000000000000000000000000000000000000000000000000600052602260045260246000fd5b7f4e487b7100000000000000000000000000000000000000000000000000000000600052604160045260246000fd5b6000601f19601f8301169050919050565b7f455243373231456e756d657261626c653a206f776e657220696e646578206f7560008201527f74206f6620626f756e6473000000000000000000000000000000000000000000602082015250565b7f4552433732313a207472616e7366657220746f206e6f6e20455243373231526560008201527f63656976657220696d706c656d656e7465720000000000000000000000000000602082015250565b7f4552433732313a20746f6b656e20616c7265616479206d696e74656400000000600082015250565b7f4552433732313a207472616e7366657220746f20746865207a65726f2061646460008201527f7265737300000000000000000000000000000000000000000000000000000000602082015250565b7f4552433732313a20617070726f766520746f2063616c6c657200000000000000600082015250565b7f4552433732313a206f70657261746f7220717565727920666f72206e6f6e657860008201527f697374656e7420746f6b656e0000000000000000000000000000000000000000602082015250565b7f4552433732313a20617070726f76652063616c6c6572206973206e6f74206f7760008201527f6e6572206e6f7220617070726f76656420666f7220616c6c0000000000000000602082015250565b7f4552433732313a2062616c616e636520717565727920666f7220746865207a6560008201527f726f206164647265737300000000000000000000000000000000000000000000602082015250565b7f4552433732313a206f776e657220717565727920666f72206e6f6e657869737460008201527f656e7420746f6b656e0000000000000000000000000000000000000000000000602082015250565b7f4552433732313a206d696e7420746f20746865207a65726f2061646472657373600082015250565b7f4552433732313a20617070726f76656420717565727920666f72206e6f6e657860008201527f697374656e7420746f6b656e0000000000000000000000000000000000000000602082015250565b7f4552433732313a207472616e73666572206f6620746f6b656e2074686174206960008201527f73206e6f74206f776e0000000000000000000000000000000000000000000000602082015250565b7f4552433732314d657461646174613a2055524920717565727920666f72206e6f60008201527f6e6578697374656e7420746f6b656e0000000000000000000000000000000000602082015250565b7f4552433732313a20617070726f76616c20746f2063757272656e74206f776e6560008201527f7200000000000000000000000000000000000000000000000000000000000000602082015250565b7f4552433732313a207472616e736665722063616c6c6572206973206e6f74206f60008201527f776e6572206e6f7220617070726f766564000000000000000000000000000000602082015250565b7f455243373231456e756d657261626c653a20676c6f62616c20696e646578206f60008201527f7574206f6620626f756e64730000000000000000000000000000000000000000602082015250565b61331a81612c33565b811461332557600080fd5b50565b61333181612c45565b811461333c57600080fd5b50565b61334881612c51565b811461335357600080fd5b50565b61335f81612c9d565b811461336a57600080fd5b5056fea26469706673582212201d6038dbc83ed5842e89524516b857b335b3737b8d4f7e648801de82fc360b4c64736f6c63430008020033",
  "linkReferences": {},
  "deployedLinkReferences": {}
}