{
  "_format": "hh-sol-artifact-1",
  "contractName": "Reliquary",
  "sourceName": "contracts/Reliquary.sol",
  "abi": [
    {
      "inputs": [
        {
          "internalType": "contract IERC20",
          "name": "_relic",
          "type": "address"
        }
      ],
      "stateMutability": "nonpayable",
      "type": "constructor"
    },
    {
      "anonymous": false,
      "inputs": [
        {
          "indexed": true,
          "internalType": "address",
          "name": "owner",
          "type": "address"
        },
        {
          "indexed": true,
          "internalType": "address",
          "name": "approved",
          "type": "address"
        },
        {
          "indexed": true,
          "internalType": "uint256",
          "name": "tokenId",
          "type": "uint256"
        }
      ],
      "name": "Approval",
      "type": "event"
    },
    {
      "anonymous": false,
      "inputs": [
        {
          "indexed": true,
          "internalType": "address",
          "name": "owner",
          "type": "address"
        },
        {
          "indexed": true,
          "internalType": "address",
          "name": "operator",
          "type": "address"
        },
        {
          "indexed": false,
          "internalType": "bool",
          "name": "approved",
          "type": "bool"
        }
      ],
      "name": "ApprovalForAll",
      "type": "event"
    },
    {
      "anonymous": false,
      "inputs": [
        {
          "indexed": true,
          "internalType": "address",
          "name": "user",
          "type": "address"
        },
        {
          "indexed": true,
          "internalType": "uint256",
          "name": "pid",
          "type": "uint256"
        },
        {
          "indexed": false,
          "internalType": "uint256",
          "name": "amount",
          "type": "uint256"
        },
        {
          "indexed": true,
          "internalType": "address",
          "name": "to",
          "type": "address"
        },
        {
          "indexed": false,
          "internalType": "uint256",
          "name": "positionId",
          "type": "uint256"
        }
      ],
      "name": "Deposit",
      "type": "event"
    },
    {
      "anonymous": false,
      "inputs": [
        {
          "indexed": true,
          "internalType": "address",
          "name": "user",
          "type": "address"
        },
        {
          "indexed": true,
          "internalType": "uint256",
          "name": "pid",
          "type": "uint256"
        },
        {
          "indexed": false,
          "internalType": "uint256",
          "name": "amount",
          "type": "uint256"
        },
        {
          "indexed": true,
          "internalType": "address",
          "name": "to",
          "type": "address"
        },
        {
          "indexed": false,
          "internalType": "uint256",
          "name": "positionId",
          "type": "uint256"
        }
      ],
      "name": "EmergencyWithdraw",
      "type": "event"
    },
    {
      "anonymous": false,
      "inputs": [
        {
          "indexed": true,
          "internalType": "address",
          "name": "user",
          "type": "address"
        },
        {
          "indexed": true,
          "internalType": "uint256",
          "name": "pid",
          "type": "uint256"
        },
        {
          "indexed": false,
          "internalType": "uint256",
          "name": "amount",
          "type": "uint256"
        },
        {
          "indexed": false,
          "internalType": "uint256",
          "name": "positionId",
          "type": "uint256"
        }
      ],
      "name": "Harvest",
      "type": "event"
    },
    {
      "anonymous": false,
      "inputs": [],
      "name": "LogInit",
      "type": "event"
    },
    {
      "anonymous": false,
      "inputs": [
        {
          "indexed": false,
          "internalType": "uint256",
          "name": "pid",
          "type": "uint256"
        },
        {
          "indexed": false,
          "internalType": "uint256",
          "name": "allocPoint",
          "type": "uint256"
        },
        {
          "indexed": true,
          "internalType": "contract IERC20",
          "name": "lpToken",
          "type": "address"
        },
        {
          "indexed": true,
          "internalType": "contract IRewarder",
          "name": "rewarder",
          "type": "address"
        },
        {
          "indexed": true,
          "internalType": "address",
          "name": "curve",
          "type": "address"
        }
      ],
      "name": "LogPoolAddition",
      "type": "event"
    },
    {
      "anonymous": false,
      "inputs": [
        {
          "indexed": true,
          "internalType": "uint256",
          "name": "pid",
          "type": "uint256"
        },
        {
          "indexed": false,
          "internalType": "uint256",
          "name": "allocPoint",
          "type": "uint256"
        },
        {
          "indexed": true,
          "internalType": "contract IRewarder",
          "name": "rewarder",
          "type": "address"
        },
        {
          "indexed": true,
          "internalType": "address",
          "name": "curve",
          "type": "address"
        }
      ],
      "name": "LogSetPool",
      "type": "event"
    },
    {
      "anonymous": false,
      "inputs": [
        {
          "indexed": true,
          "internalType": "uint256",
          "name": "pid",
          "type": "uint256"
        },
        {
          "indexed": false,
          "internalType": "uint64",
          "name": "lastRewardTime",
          "type": "uint64"
        },
        {
          "indexed": false,
          "internalType": "uint256",
          "name": "lpSupply",
          "type": "uint256"
        },
        {
          "indexed": false,
          "internalType": "uint256",
          "name": "accRELICPerShare",
          "type": "uint256"
        }
      ],
      "name": "LogUpdatePool",
      "type": "event"
    },
    {
      "anonymous": false,
      "inputs": [
        {
          "indexed": true,
          "internalType": "address",
          "name": "previousOwner",
          "type": "address"
        },
        {
          "indexed": true,
          "internalType": "address",
          "name": "newOwner",
          "type": "address"
        }
      ],
      "name": "OwnershipTransferred",
      "type": "event"
    },
    {
      "anonymous": false,
      "inputs": [
        {
          "indexed": true,
          "internalType": "address",
          "name": "from",
          "type": "address"
        },
        {
          "indexed": true,
          "internalType": "address",
          "name": "to",
          "type": "address"
        },
        {
          "indexed": true,
          "internalType": "uint256",
          "name": "tokenId",
          "type": "uint256"
        }
      ],
      "name": "Transfer",
      "type": "event"
    },
    {
      "anonymous": false,
      "inputs": [
        {
          "indexed": true,
          "internalType": "address",
          "name": "user",
          "type": "address"
        },
        {
          "indexed": true,
          "internalType": "uint256",
          "name": "pid",
          "type": "uint256"
        },
        {
          "indexed": false,
          "internalType": "uint256",
          "name": "amount",
          "type": "uint256"
        },
        {
          "indexed": true,
          "internalType": "address",
          "name": "to",
          "type": "address"
        },
        {
          "indexed": false,
          "internalType": "uint256",
          "name": "positionId",
          "type": "uint256"
        }
      ],
      "name": "Withdraw",
      "type": "event"
    },
    {
      "inputs": [],
      "name": "RELIC",
      "outputs": [
        {
          "internalType": "contract IERC20",
          "name": "",
          "type": "address"
        }
      ],
      "stateMutability": "view",
      "type": "function"
    },
    {
      "inputs": [
        {
          "internalType": "uint256",
          "name": "allocPoint",
          "type": "uint256"
        },
        {
          "internalType": "contract IERC20",
          "name": "_lpToken",
          "type": "address"
        },
        {
          "internalType": "contract IRewarder",
          "name": "_rewarder",
          "type": "address"
        },
        {
          "internalType": "contract ICurve",
          "name": "_curve",
          "type": "address"
        }
      ],
      "name": "add",
      "outputs": [],
      "stateMutability": "nonpayable",
      "type": "function"
    },
    {
      "inputs": [
        {
          "internalType": "address",
          "name": "to",
          "type": "address"
        },
        {
          "internalType": "uint256",
          "name": "tokenId",
          "type": "uint256"
        }
      ],
      "name": "approve",
      "outputs": [],
      "stateMutability": "nonpayable",
      "type": "function"
    },
    {
      "inputs": [
        {
          "internalType": "address",
          "name": "owner",
          "type": "address"
        }
      ],
      "name": "balanceOf",
      "outputs": [
        {
          "internalType": "uint256",
          "name": "",
          "type": "uint256"
        }
      ],
      "stateMutability": "view",
      "type": "function"
    },
    {
      "inputs": [
        {
          "internalType": "address",
          "name": "to",
          "type": "address"
        },
        {
          "internalType": "uint256",
          "name": "pid",
          "type": "uint256"
        }
      ],
      "name": "createNewPosition",
      "outputs": [
        {
          "internalType": "uint256",
          "name": "",
          "type": "uint256"
        }
      ],
      "stateMutability": "nonpayable",
      "type": "function"
    },
    {
      "inputs": [
        {
          "internalType": "address",
          "name": "to",
          "type": "address"
        },
        {
          "internalType": "uint256",
          "name": "pid",
          "type": "uint256"
        },
        {
          "internalType": "uint256",
          "name": "amount",
          "type": "uint256"
        }
      ],
      "name": "createPositionAndDeposit",
      "outputs": [
        {
          "internalType": "uint256",
          "name": "",
          "type": "uint256"
        }
      ],
      "stateMutability": "nonpayable",
      "type": "function"
    },
    {
      "inputs": [
        {
          "internalType": "uint256",
          "name": "positionId",
          "type": "uint256"
        },
        {
          "internalType": "uint256",
          "name": "pid",
          "type": "uint256"
        }
      ],
      "name": "curved",
      "outputs": [
        {
          "internalType": "uint256",
          "name": "",
          "type": "uint256"
        }
      ],
      "stateMutability": "view",
      "type": "function"
    },
    {
      "inputs": [
        {
          "internalType": "uint256",
          "name": "pid",
          "type": "uint256"
        },
        {
          "internalType": "uint256",
          "name": "amount",
          "type": "uint256"
        },
        {
          "internalType": "uint256",
          "name": "positionId",
          "type": "uint256"
        }
      ],
      "name": "deposit",
      "outputs": [],
      "stateMutability": "nonpayable",
      "type": "function"
    },
    {
      "inputs": [
        {
          "internalType": "uint256",
          "name": "pid",
          "type": "uint256"
        },
        {
          "internalType": "uint256",
          "name": "positionId",
          "type": "uint256"
        }
      ],
      "name": "emergencyWithdraw",
      "outputs": [],
      "stateMutability": "nonpayable",
      "type": "function"
    },
    {
      "inputs": [
        {
          "internalType": "uint256",
          "name": "tokenId",
          "type": "uint256"
        }
      ],
      "name": "getApproved",
      "outputs": [
        {
          "internalType": "address",
          "name": "",
          "type": "address"
        }
      ],
      "stateMutability": "view",
      "type": "function"
    },
    {
      "inputs": [
        {
          "internalType": "uint256",
          "name": "pid",
          "type": "uint256"
        },
        {
          "internalType": "uint256",
          "name": "positionId",
          "type": "uint256"
        }
      ],
      "name": "harvest",
      "outputs": [],
      "stateMutability": "nonpayable",
      "type": "function"
    },
    {
      "inputs": [
        {
          "internalType": "address",
          "name": "",
          "type": "address"
        }
      ],
      "name": "hasBeenAdded",
      "outputs": [
        {
          "internalType": "bool",
          "name": "",
          "type": "bool"
        }
      ],
      "stateMutability": "view",
      "type": "function"
    },
    {
      "inputs": [
        {
          "internalType": "address",
          "name": "owner",
          "type": "address"
        },
        {
          "internalType": "address",
          "name": "operator",
          "type": "address"
        }
      ],
      "name": "isApprovedForAll",
      "outputs": [
        {
          "internalType": "bool",
          "name": "",
          "type": "bool"
        }
      ],
      "stateMutability": "view",
      "type": "function"
    },
    {
      "inputs": [
        {
          "internalType": "uint256",
          "name": "",
          "type": "uint256"
        }
      ],
      "name": "lpToken",
      "outputs": [
        {
          "internalType": "contract IERC20",
          "name": "",
          "type": "address"
        }
      ],
      "stateMutability": "view",
      "type": "function"
    },
    {
      "inputs": [
        {
          "internalType": "uint256[]",
          "name": "pids",
          "type": "uint256[]"
        }
      ],
      "name": "massUpdatePools",
      "outputs": [],
      "stateMutability": "nonpayable",
      "type": "function"
    },
    {
      "inputs": [
        {
          "internalType": "bytes[]",
          "name": "data",
          "type": "bytes[]"
        }
      ],
      "name": "multicall",
      "outputs": [
        {
          "internalType": "bytes[]",
          "name": "results",
          "type": "bytes[]"
        }
      ],
      "stateMutability": "nonpayable",
      "type": "function"
    },
    {
      "inputs": [],
      "name": "name",
      "outputs": [
        {
          "internalType": "string",
          "name": "",
          "type": "string"
        }
      ],
      "stateMutability": "view",
      "type": "function"
    },
    {
      "inputs": [
        {
          "internalType": "uint256",
          "name": "",
          "type": "uint256"
        }
      ],
      "name": "nonces",
      "outputs": [
        {
          "internalType": "uint256",
          "name": "",
          "type": "uint256"
        }
      ],
      "stateMutability": "view",
      "type": "function"
    },
    {
      "inputs": [],
      "name": "owner",
      "outputs": [
        {
          "internalType": "address",
          "name": "",
          "type": "address"
        }
      ],
      "stateMutability": "view",
      "type": "function"
    },
    {
      "inputs": [
        {
          "internalType": "uint256",
          "name": "tokenId",
          "type": "uint256"
        }
      ],
      "name": "ownerOf",
      "outputs": [
        {
          "internalType": "address",
          "name": "",
          "type": "address"
        }
      ],
      "stateMutability": "view",
      "type": "function"
    },
    {
      "inputs": [
        {
          "internalType": "uint256",
          "name": "_pid",
          "type": "uint256"
        },
        {
          "internalType": "uint256",
          "name": "positionId",
          "type": "uint256"
        }
      ],
      "name": "pendingRelic",
      "outputs": [
        {
          "internalType": "uint256",
          "name": "pending",
          "type": "uint256"
        }
      ],
      "stateMutability": "view",
      "type": "function"
    },
    {
      "inputs": [
        {
          "internalType": "uint256",
          "name": "",
          "type": "uint256"
        }
      ],
      "name": "poolInfo",
      "outputs": [
        {
          "internalType": "uint128",
          "name": "accRelicPerShare",
          "type": "uint128"
        },
        {
          "internalType": "uint64",
          "name": "lastRewardTime",
          "type": "uint64"
        },
        {
          "internalType": "uint64",
          "name": "allocPoint",
          "type": "uint64"
        },
        {
          "internalType": "uint256",
          "name": "averageEntry",
          "type": "uint256"
        },
        {
          "internalType": "address",
          "name": "curveAddress",
          "type": "address"
        }
      ],
      "stateMutability": "view",
      "type": "function"
    },
    {
      "inputs": [],
      "name": "poolLength",
      "outputs": [
        {
          "internalType": "uint256",
          "name": "pools",
          "type": "uint256"
        }
      ],
      "stateMutability": "view",
      "type": "function"
    },
    {
      "inputs": [
        {
          "internalType": "uint256",
          "name": "",
          "type": "uint256"
        },
        {
          "internalType": "uint256",
          "name": "",
          "type": "uint256"
        }
      ],
      "name": "positionInfo",
      "outputs": [
        {
          "internalType": "uint256",
          "name": "amount",
          "type": "uint256"
        },
        {
          "internalType": "int256",
          "name": "rewardDebt",
          "type": "int256"
        },
        {
          "internalType": "uint256",
          "name": "entry",
          "type": "uint256"
        },
        {
          "internalType": "bool",
          "name": "exempt",
          "type": "bool"
        }
      ],
      "stateMutability": "view",
      "type": "function"
    },
    {
      "inputs": [],
      "name": "renounceOwnership",
      "outputs": [],
      "stateMutability": "nonpayable",
      "type": "function"
    },
    {
      "inputs": [
        {
          "internalType": "uint256",
          "name": "",
          "type": "uint256"
        }
      ],
      "name": "rewarder",
      "outputs": [
        {
          "internalType": "contract IRewarder",
          "name": "",
          "type": "address"
        }
      ],
      "stateMutability": "view",
      "type": "function"
    },
    {
      "inputs": [
        {
          "internalType": "address",
          "name": "from",
          "type": "address"
        },
        {
          "internalType": "address",
          "name": "to",
          "type": "address"
        },
        {
          "internalType": "uint256",
          "name": "tokenId",
          "type": "uint256"
        }
      ],
      "name": "safeTransferFrom",
      "outputs": [],
      "stateMutability": "nonpayable",
      "type": "function"
    },
    {
      "inputs": [
        {
          "internalType": "address",
          "name": "from",
          "type": "address"
        },
        {
          "internalType": "address",
          "name": "to",
          "type": "address"
        },
        {
          "internalType": "uint256",
          "name": "tokenId",
          "type": "uint256"
        },
        {
          "internalType": "bytes",
          "name": "_data",
          "type": "bytes"
        }
      ],
      "name": "safeTransferFrom",
      "outputs": [],
      "stateMutability": "nonpayable",
      "type": "function"
    },
    {
      "inputs": [
        {
          "internalType": "uint256",
          "name": "_pid",
          "type": "uint256"
        },
        {
          "internalType": "uint256",
          "name": "_allocPoint",
          "type": "uint256"
        },
        {
          "internalType": "contract IRewarder",
          "name": "_rewarder",
          "type": "address"
        },
        {
          "internalType": "address",
          "name": "_curve",
          "type": "address"
        },
        {
          "internalType": "bool",
          "name": "overwriteRewarder",
          "type": "bool"
        },
        {
          "internalType": "bool",
          "name": "overwriteCurve",
          "type": "bool"
        }
      ],
      "name": "set",
      "outputs": [],
      "stateMutability": "nonpayable",
      "type": "function"
    },
    {
      "inputs": [
        {
          "internalType": "address",
          "name": "operator",
          "type": "address"
        },
        {
          "internalType": "bool",
          "name": "approved",
          "type": "bool"
        }
      ],
      "name": "setApprovalForAll",
      "outputs": [],
      "stateMutability": "nonpayable",
      "type": "function"
    },
    {
      "inputs": [
        {
          "internalType": "bytes4",
          "name": "interfaceId",
          "type": "bytes4"
        }
      ],
      "name": "supportsInterface",
      "outputs": [
        {
          "internalType": "bool",
          "name": "",
          "type": "bool"
        }
      ],
      "stateMutability": "view",
      "type": "function"
    },
    {
      "inputs": [],
      "name": "symbol",
      "outputs": [
        {
          "internalType": "string",
          "name": "",
          "type": "string"
        }
      ],
      "stateMutability": "view",
      "type": "function"
    },
    {
      "inputs": [
        {
          "internalType": "uint256",
          "name": "tokenId",
          "type": "uint256"
        }
      ],
      "name": "tokenURI",
      "outputs": [
        {
          "internalType": "string",
          "name": "",
          "type": "string"
        }
      ],
      "stateMutability": "view",
      "type": "function"
    },
    {
      "inputs": [],
      "name": "totalAllocPoint",
      "outputs": [
        {
          "internalType": "uint256",
          "name": "",
          "type": "uint256"
        }
      ],
      "stateMutability": "view",
      "type": "function"
    },
    {
      "inputs": [
        {
          "internalType": "address",
          "name": "from",
          "type": "address"
        },
        {
          "internalType": "address",
          "name": "to",
          "type": "address"
        },
        {
          "internalType": "uint256",
          "name": "tokenId",
          "type": "uint256"
        }
      ],
      "name": "transferFrom",
      "outputs": [],
      "stateMutability": "nonpayable",
      "type": "function"
    },
    {
      "inputs": [
        {
          "internalType": "address",
          "name": "newOwner",
          "type": "address"
        }
      ],
      "name": "transferOwnership",
      "outputs": [],
      "stateMutability": "nonpayable",
      "type": "function"
    },
    {
      "inputs": [
        {
          "internalType": "uint256",
          "name": "pid",
          "type": "uint256"
        }
      ],
      "name": "updatePool",
      "outputs": [
        {
          "components": [
            {
              "internalType": "uint128",
              "name": "accRelicPerShare",
              "type": "uint128"
            },
            {
              "internalType": "uint64",
              "name": "lastRewardTime",
              "type": "uint64"
            },
            {
              "internalType": "uint64",
              "name": "allocPoint",
              "type": "uint64"
            },
            {
              "internalType": "uint256",
              "name": "averageEntry",
              "type": "uint256"
            },
            {
              "internalType": "address",
              "name": "curveAddress",
              "type": "address"
            }
          ],
          "internalType": "struct Reliquary.PoolInfo",
          "name": "pool",
          "type": "tuple"
        }
      ],
      "stateMutability": "nonpayable",
      "type": "function"
    },
    {
      "inputs": [
        {
          "internalType": "uint256",
          "name": "pid",
          "type": "uint256"
        },
        {
          "internalType": "uint256",
          "name": "amount",
          "type": "uint256"
        },
        {
          "internalType": "uint256",
          "name": "positionId",
          "type": "uint256"
        }
      ],
      "name": "withdraw",
      "outputs": [],
      "stateMutability": "nonpayable",
      "type": "function"
    },
    {
      "inputs": [
        {
          "internalType": "uint256",
          "name": "pid",
          "type": "uint256"
        },
        {
          "internalType": "uint256",
          "name": "amount",
          "type": "uint256"
        },
        {
          "internalType": "uint256",
          "name": "positionId",
          "type": "uint256"
        }
      ],
      "name": "withdrawAndHarvest",
      "outputs": [],
      "stateMutability": "nonpayable",
      "type": "function"
    }
  ],
  "bytecode": "0x60a06040523480156200001157600080fd5b50604051620077c0380380620077c08339818101604052810190620000379190620002ca565b6040518060400160405280600e81526020017f52656c696320506f736974696f6e0000000000000000000000000000000000008152506040518060400160405280600781526020017f4d454d454e544f000000000000000000000000000000000000000000000000008152508160009080519060200190620000bb92919062000203565b508060019080519060200190620000d492919062000203565b505050620000f7620000eb6200013560201b60201c565b6200013d60201b60201c565b8073ffffffffffffffffffffffffffffffffffffffff1660808173ffffffffffffffffffffffffffffffffffffffff1660601b8152505050620003bd565b600033905090565b6000600760009054906101000a900473ffffffffffffffffffffffffffffffffffffffff16905081600760006101000a81548173ffffffffffffffffffffffffffffffffffffffff021916908373ffffffffffffffffffffffffffffffffffffffff1602179055508173ffffffffffffffffffffffffffffffffffffffff168173ffffffffffffffffffffffffffffffffffffffff167f8be0079c531659141344cd1fd0a4f28419497f9722a3daafe3b4186f6b6457e060405160405180910390a35050565b82805462000211906200033e565b90600052602060002090601f01602090048101928262000235576000855562000281565b82601f106200025057805160ff191683800117855562000281565b8280016001018555821562000281579182015b828111156200028057825182559160200191906001019062000263565b5b50905062000290919062000294565b5090565b5b80821115620002af57600081600090555060010162000295565b5090565b600081519050620002c481620003a3565b92915050565b600060208284031215620002dd57600080fd5b6000620002ed84828501620002b3565b91505092915050565b600062000303826200031e565b9050919050565b60006200031782620002f6565b9050919050565b600073ffffffffffffffffffffffffffffffffffffffff82169050919050565b600060028204905060018216806200035757607f821691505b602082108114156200036e576200036d62000374565b5b50919050565b7f4e487b7100000000000000000000000000000000000000000000000000000000600052602260045260246000fd5b620003ae816200030a565b8114620003ba57600080fd5b50565b60805160601c6173d6620003ea60003960008181610cbb01528181612a1f015261335201526173d66000f3fe608060405234801561001057600080fd5b506004361061023c5760003560e01c80636352211e1161013b578063ac9650d8116100b8578063dbb94b501161007c578063dbb94b5014610726578063e4a4b7b114610756578063e985e9c514610772578063f2fde38b146107a2578063f3551fd8146107be5761023c565b8063ac9650d81461064a578063b88d4fde1461067a578063c346253d14610696578063c87b56dd146106c6578063da886736146106f65761023c565b80638da5cb5b116100ff5780638da5cb5b146105b857806395d89b41146105d65780639fe45cb4146105f4578063a22cb46514610612578063a41fe49f1461062e5761023c565b80636352211e146104ee57806370a082311461051e578063715018a61461054e57806378ed5d1f146105585780637f3bd711146105885761023c565b806317caf6f1116101c95780633fdacec31161018d5780633fdacec3146104375780633ffd3ce81461046a57806342842e0e1461048657806351eb05a6146104a257806357a5b58c146104d25761023c565b806317caf6f1146103955780631f276b6e146103b3578063239543b9146103cf57806323b872dd146103ff578063266f24b71461041b5761023c565b8063081812fc11610210578063081812fc146102c7578063081e3eda146102f7578063095ea7b314610315578063141a468c146103315780631526fe27146103615761023c565b8062aeef8a1461024157806301ffc9a71461025d57806305007a301461028d57806306fdde03146102a9575b600080fd5b61025b600480360381019061025691906159b6565b6107ee565b005b610277600480360381019061027291906157ea565b610ac1565b604051610284919061669c565b60405180910390f35b6102a760048036038101906102a291906159b6565b610ba3565b005b6102b1610f74565b6040516102be91906166ed565b60405180910390f35b6102e160048036038101906102dc919061583c565b611006565b6040516102ee91906165b3565b60405180910390f35b6102ff61108b565b60405161030c9190616a7d565b60405180910390f35b61032f600480360381019061032a91906156ac565b611098565b005b61034b6004803603810190610346919061583c565b6111b0565b6040516103589190616a7d565b60405180910390f35b61037b6004803603810190610376919061583c565b6111c8565b60405161038c959493929190616a2a565b60405180910390f35b61039d611272565b6040516103aa9190616a7d565b60405180910390f35b6103cd60048036038101906103c891906158f1565b611278565b005b6103e960048036038101906103e491906158f1565b6114f2565b6040516103f69190616a7d565b60405180910390f35b610419600480360381019061041491906155a6565b611887565b005b6104356004803603810190610430919061588e565b6118e7565b005b610451600480360381019061044c91906158f1565b611d4d565b6040516104619493929190616b91565b60405180910390f35b610484600480360381019061047f919061592d565b611d97565b005b6104a0600480360381019061049b91906155a6565b612185565b005b6104bc60048036038101906104b7919061583c565b6121a5565b6040516104c99190616a0f565b60405180910390f35b6104ec60048036038101906104e7919061577c565b61269d565b005b6105086004803603810190610503919061583c565b612710565b60405161051591906165b3565b60405180910390f35b61053860048036038101906105339190615541565b6127c2565b6040516105459190616a7d565b60405180910390f35b61055661287a565b005b610572600480360381019061056d919061583c565b612902565b60405161057f91906166b7565b60405180910390f35b6105a2600480360381019061059d9190615541565b612941565b6040516105af919061669c565b60405180910390f35b6105c0612961565b6040516105cd91906165b3565b60405180910390f35b6105de61298b565b6040516105eb91906166ed565b60405180910390f35b6105fc612a1d565b60405161060991906166b7565b60405180910390f35b61062c60048036038101906106279190615670565b612a41565b005b610648600480360381019061064391906159b6565b612a57565b005b610664600480360381019061065f9190615737565b612d36565b604051610671919061667a565b60405180910390f35b610694600480360381019061068f91906155f5565b612eb4565b005b6106b060048036038101906106ab919061583c565b612f16565b6040516106bd91906166d2565b60405180910390f35b6106e060048036038101906106db919061583c565b612f55565b6040516106ed91906166ed565b60405180910390f35b610710600480360381019061070b91906156ac565b612ffc565b60405161071d9190616a7d565b60405180910390f35b610740600480360381019061073b91906158f1565b613015565b60405161074d9190616a7d565b60405180910390f35b610770600480360381019061076b91906158f1565b613293565b005b61078c6004803603810190610787919061556a565b613508565b604051610799919061669c565b60405180910390f35b6107bc60048036038101906107b79190615541565b61359c565b005b6107d860048036038101906107d391906156e8565b613694565b6040516107e59190616a7d565b60405180910390f35b60006107f9846121a5565b9050610807848460006136b9565b506000600b600086815260200190815260200160002060008481526020019081526020016000209050600061083b84612710565b905084826000015461084d9190616e1a565b826000018190555064e8d4a5100083600001516fffffffffffffffffffffffffffffffff168661087d9190616ea1565b6108879190616e70565b82600101546108969190616d86565b82600101819055506000600a87815481106108da577f4e487b7100000000000000000000000000000000000000000000000000000000600052603260045260246000fd5b9060005260206000200160009054906101000a900473ffffffffffffffffffffffffffffffffffffffff169050600073ffffffffffffffffffffffffffffffffffffffff168173ffffffffffffffffffffffffffffffffffffffff16146109b4578073ffffffffffffffffffffffffffffffffffffffff166331c6db22888485600088600001546040518663ffffffff1660e01b8152600401610981959493929190616aeb565b600060405180830381600087803b15801561099b57600080fd5b505af11580156109af573d6000803e3d6000fd5b505050505b6109bf87878761383c565b50610a5133308860098b81548110610a00577f4e487b7100000000000000000000000000000000000000000000000000000000600052603260045260246000fd5b9060005260206000200160009054906101000a900473ffffffffffffffffffffffffffffffffffffffff1673ffffffffffffffffffffffffffffffffffffffff166138db909392919063ffffffff16565b8173ffffffffffffffffffffffffffffffffffffffff16873373ffffffffffffffffffffffffffffffffffffffff167eab9ea1934a18c419ebd648dfd54350d24ab746230b97428774bd8d923f4eaf8989604051610ab0929190616bd6565b60405180910390a450505050505050565b60007f80ac58cd000000000000000000000000000000000000000000000000000000007bffffffffffffffffffffffffffffffffffffffffffffffffffffffff1916827bffffffffffffffffffffffffffffffffffffffffffffffffffffffff19161480610b8c57507f5b5e139f000000000000000000000000000000000000000000000000000000007bffffffffffffffffffffffffffffffffffffffffffffffffffffffff1916827bffffffffffffffffffffffffffffffffffffffffffffffffffffffff1916145b80610b9c5750610b9b82613964565b5b9050919050565b6000610bae846121a5565b9050610bbc848460016136b9565b506000600b6000868152602001908152602001600020600084815260200190815260200160002090506000610bf084612710565b9050600064e8d4a5100084600001516fffffffffffffffffffffffffffffffff168460000154610c209190616ea1565b610c2a9190616e70565b90506000610c46846001015483610c419190616efb565b6139ce565b90506000610c5582888b613a1b565b905064e8d4a5100086600001516fffffffffffffffffffffffffffffffff1689610c7f9190616ea1565b610c899190616e70565b83610c949190616efb565b8560010181905550878560000154610cac9190616f8f565b8560000181905550610cff84827f000000000000000000000000000000000000000000000000000000000000000073ffffffffffffffffffffffffffffffffffffffff16613b939092919063ffffffff16565b6000600a8a81548110610d3b577f4e487b7100000000000000000000000000000000000000000000000000000000600052603260045260246000fd5b9060005260206000200160009054906101000a900473ffffffffffffffffffffffffffffffffffffffff169050600073ffffffffffffffffffffffffffffffffffffffff168173ffffffffffffffffffffffffffffffffffffffff1614610e14578073ffffffffffffffffffffffffffffffffffffffff166331c6db228b3388868b600001546040518663ffffffff1660e01b8152600401610de1959493929190616b3e565b600060405180830381600087803b158015610dfb57600080fd5b505af1158015610e0f573d6000803e3d6000fd5b505050505b610e1f8a8a8a61383c565b50610eaf858a60098d81548110610e5f577f4e487b7100000000000000000000000000000000000000000000000000000000600052603260045260246000fd5b9060005260206000200160009054906101000a900473ffffffffffffffffffffffffffffffffffffffff1673ffffffffffffffffffffffffffffffffffffffff16613b939092919063ffffffff16565b8473ffffffffffffffffffffffffffffffffffffffff168a3373ffffffffffffffffffffffffffffffffffffffff167f67c680c232fa9400adef6a1ad234c1d6d15a44170b85fddb60ceed23e31c32208c8c604051610f0f929190616bd6565b60405180910390a4893373ffffffffffffffffffffffffffffffffffffffff167f4534f107610758c3931de9ad1e176476fcfb8c74adf920167e1d54ee84fcfe76858b604051610f60929190616bd6565b60405180910390a350505050505050505050565b606060008054610f8390617155565b80601f0160208091040260200160405190810160405280929190818152602001828054610faf90617155565b8015610ffc5780601f10610fd157610100808354040283529160200191610ffc565b820191906000526020600020905b815481529060010190602001808311610fdf57829003601f168201915b5050505050905090565b600061101182613c19565b611050576040517f08c379a0000000000000000000000000000000000000000000000000000000008152600401611047906168cf565b60405180910390fd5b6004600083815260200190815260200160002060009054906101000a900473ffffffffffffffffffffffffffffffffffffffff169050919050565b6000600880549050905090565b60006110a382612710565b90508073ffffffffffffffffffffffffffffffffffffffff168373ffffffffffffffffffffffffffffffffffffffff161415611114576040517f08c379a000000000000000000000000000000000000000000000000000000000815260040161110b9061696f565b60405180910390fd5b8073ffffffffffffffffffffffffffffffffffffffff16611133613c85565b73ffffffffffffffffffffffffffffffffffffffff16148061116257506111618161115c613c85565b613508565b5b6111a1576040517f08c379a00000000000000000000000000000000000000000000000000000000081526004016111989061684f565b60405180910390fd5b6111ab8383613c8d565b505050565b60066020528060005260406000206000915090505481565b600881815481106111d857600080fd5b90600052602060002090600302016000915090508060000160009054906101000a90046fffffffffffffffffffffffffffffffff16908060000160109054906101000a900467ffffffffffffffff16908060000160189054906101000a900467ffffffffffffffff16908060010154908060020160009054906101000a900473ffffffffffffffffffffffffffffffffffffffff16905085565b600d5481565b6000600b60008481526020019081526020016000206000838152602001908152602001600020905060008160000154905060006112b484612710565b90506112c2858360016136b9565b5060008360000181905550600083600101819055506000600a8681548110611313577f4e487b7100000000000000000000000000000000000000000000000000000000600052603260045260246000fd5b9060005260206000200160009054906101000a900473ffffffffffffffffffffffffffffffffffffffff169050600073ffffffffffffffffffffffffffffffffffffffff168173ffffffffffffffffffffffffffffffffffffffff16146113e9578073ffffffffffffffffffffffffffffffffffffffff166331c6db228733856000806040518663ffffffff1660e01b81526004016113b6959493929190616a98565b600060405180830381600087803b1580156113d057600080fd5b505af11580156113e4573d6000803e3d6000fd5b505050505b6113f285613d46565b50611482828460098981548110611432577f4e487b7100000000000000000000000000000000000000000000000000000000600052603260045260246000fd5b9060005260206000200160009054906101000a900473ffffffffffffffffffffffffffffffffffffffff1673ffffffffffffffffffffffffffffffffffffffff16613b939092919063ffffffff16565b8173ffffffffffffffffffffffffffffffffffffffff16863373ffffffffffffffffffffffffffffffffffffffff167f49f7b10b8eb7a2ad947317dccbe1e83ecf9406060e44e511a5c0b3a3fb60ceec86896040516114e2929190616bd6565b60405180910390a4505050505050565b6000806008848154811061152f577f4e487b7100000000000000000000000000000000000000000000000000000000600052603260045260246000fd5b90600052602060002090600302016040518060a00160405290816000820160009054906101000a90046fffffffffffffffffffffffffffffffff166fffffffffffffffffffffffffffffffff166fffffffffffffffffffffffffffffffff1681526020016000820160109054906101000a900467ffffffffffffffff1667ffffffffffffffff1667ffffffffffffffff1681526020016000820160189054906101000a900467ffffffffffffffff1667ffffffffffffffff1667ffffffffffffffff168152602001600182015481526020016002820160009054906101000a900473ffffffffffffffffffffffffffffffffffffffff1673ffffffffffffffffffffffffffffffffffffffff1673ffffffffffffffffffffffffffffffffffffffff168152505090506000600b600086815260200190815260200160002060008581526020019081526020016000209050600082600001516fffffffffffffffffffffffffffffffff1690506000600987815481106116d7577f4e487b7100000000000000000000000000000000000000000000000000000000600052603260045260246000fd5b9060005260206000200160009054906101000a900473ffffffffffffffffffffffffffffffffffffffff1673ffffffffffffffffffffffffffffffffffffffff166370a08231306040518263ffffffff1660e01b815260040161173a91906165b3565b60206040518083038186803b15801561175257600080fd5b505afa158015611766573d6000803e3d6000fd5b505050506040513d601f19601f8201168201806040525081019061178a9190615865565b9050836020015167ffffffffffffffff16421180156117aa575060008114155b15611834576000846020015167ffffffffffffffff16426117cb9190616f8f565b90506000600d54866040015167ffffffffffffffff1664e8d4a51000846117f29190616ea1565b6117fc9190616ea1565b6118069190616e70565b90508264e8d4a51000828661181b9190616e1a565b6118259190616ea1565b61182f9190616e70565b935050505b600061186d846001015464e8d4a510008587600001546118549190616ea1565b61185e9190616e70565b6118689190616efb565b6139ce565b905061187a81888a613a1b565b9550505050505092915050565b611898611892613c85565b82613d5a565b6118d7576040517f08c379a00000000000000000000000000000000000000000000000000000000081526004016118ce906169af565b60405180910390fd5b6118e2838383613e38565b505050565b6118ef613c85565b73ffffffffffffffffffffffffffffffffffffffff1661190d612961565b73ffffffffffffffffffffffffffffffffffffffff1614611963576040517f08c379a000000000000000000000000000000000000000000000000000000000815260040161195a906168ef565b60405180910390fd5b600c60008473ffffffffffffffffffffffffffffffffffffffff1673ffffffffffffffffffffffffffffffffffffffff16815260200190815260200160002060009054906101000a900460ff16156119f0576040517f08c379a00000000000000000000000000000000000000000000000000000000081526004016119e7906167cf565b60405180910390fd5b600042905084600d54611a039190616e1a565b600d819055506009849080600181540180825580915050600190039060005260206000200160009091909190916101000a81548173ffffffffffffffffffffffffffffffffffffffff021916908373ffffffffffffffffffffffffffffffffffffffff160217905550600a839080600181540180825580915050600190039060005260206000200160009091909190916101000a81548173ffffffffffffffffffffffffffffffffffffffff021916908373ffffffffffffffffffffffffffffffffffffffff16021790555060086040518060a0016040528060006fffffffffffffffffffffffffffffffff168152602001611afe84614094565b67ffffffffffffffff168152602001611b1688614094565b67ffffffffffffffff168152602001600081526020018473ffffffffffffffffffffffffffffffffffffffff16815250908060018154018082558091505060019003906000526020600020906003020160009091909190915060008201518160000160006101000a8154816fffffffffffffffffffffffffffffffff02191690836fffffffffffffffffffffffffffffffff16021790555060208201518160000160106101000a81548167ffffffffffffffff021916908367ffffffffffffffff16021790555060408201518160000160186101000a81548167ffffffffffffffff021916908367ffffffffffffffff1602179055506060820151816001015560808201518160020160006101000a81548173ffffffffffffffffffffffffffffffffffffffff021916908373ffffffffffffffffffffffffffffffffffffffff16021790555050506001600c60008673ffffffffffffffffffffffffffffffffffffffff1673ffffffffffffffffffffffffffffffffffffffff16815260200190815260200160002060006101000a81548160ff0219169083151502179055508173ffffffffffffffffffffffffffffffffffffffff168373ffffffffffffffffffffffffffffffffffffffff168573ffffffffffffffffffffffffffffffffffffffff167f916c1141fd0c2a70bb95c6e9f2376006b00f90a78c0db17abbf423c61db950df6001600980549050611d2f9190616f8f565b89604051611d3e929190616bd6565b60405180910390a45050505050565b600b602052816000526040600020602052806000526040600020600091509150508060000154908060010154908060020154908060030160009054906101000a900460ff16905084565b611d9f613c85565b73ffffffffffffffffffffffffffffffffffffffff16611dbd612961565b73ffffffffffffffffffffffffffffffffffffffff1614611e13576040517f08c379a0000000000000000000000000000000000000000000000000000000008152600401611e0a906168ef565b60405180910390fd5b8460088781548110611e4e577f4e487b7100000000000000000000000000000000000000000000000000000000600052603260045260246000fd5b906000526020600020906003020160000160189054906101000a900467ffffffffffffffff1667ffffffffffffffff16600d54611e8b9190616f8f565b611e959190616e1a565b600d81905550611ea485614094565b60088781548110611ede577f4e487b7100000000000000000000000000000000000000000000000000000000600052603260045260246000fd5b906000526020600020906003020160000160186101000a81548167ffffffffffffffff021916908367ffffffffffffffff1602179055508115611f9f5783600a8781548110611f56577f4e487b7100000000000000000000000000000000000000000000000000000000600052603260045260246000fd5b9060005260206000200160006101000a81548173ffffffffffffffffffffffffffffffffffffffff021916908373ffffffffffffffffffffffffffffffffffffffff1602179055505b8015612030578260088781548110611fe0577f4e487b7100000000000000000000000000000000000000000000000000000000600052603260045260246000fd5b906000526020600020906003020160020160006101000a81548173ffffffffffffffffffffffffffffffffffffffff021916908373ffffffffffffffffffffffffffffffffffffffff1602179055505b806120a6576008868154811061206f577f4e487b7100000000000000000000000000000000000000000000000000000000600052603260045260246000fd5b906000526020600020906003020160020160009054906101000a900473ffffffffffffffffffffffffffffffffffffffff166120a8565b825b73ffffffffffffffffffffffffffffffffffffffff168261212d57600a87815481106120fd577f4e487b7100000000000000000000000000000000000000000000000000000000600052603260045260246000fd5b9060005260206000200160009054906101000a900473ffffffffffffffffffffffffffffffffffffffff1661212f565b845b73ffffffffffffffffffffffffffffffffffffffff16877fd722065ea238ff7f9d15326ce3ed36ea0b2686f93b51effe37236249e79e090a886040516121759190616a7d565b60405180910390a4505050505050565b6121a083838360405180602001604052806000815250612eb4565b505050565b6121ad6152b6565b600882815481106121e7577f4e487b7100000000000000000000000000000000000000000000000000000000600052603260045260246000fd5b90600052602060002090600302016040518060a00160405290816000820160009054906101000a90046fffffffffffffffffffffffffffffffff166fffffffffffffffffffffffffffffffff166fffffffffffffffffffffffffffffffff1681526020016000820160109054906101000a900467ffffffffffffffff1667ffffffffffffffff1667ffffffffffffffff1681526020016000820160189054906101000a900467ffffffffffffffff1667ffffffffffffffff1667ffffffffffffffff168152602001600182015481526020016002820160009054906101000a900473ffffffffffffffffffffffffffffffffffffffff1673ffffffffffffffffffffffffffffffffffffffff1673ffffffffffffffffffffffffffffffffffffffff16815250509050806020015167ffffffffffffffff1642111561269857600060098381548110612362577f4e487b7100000000000000000000000000000000000000000000000000000000600052603260045260246000fd5b9060005260206000200160009054906101000a900473ffffffffffffffffffffffffffffffffffffffff1673ffffffffffffffffffffffffffffffffffffffff166370a08231306040518263ffffffff1660e01b81526004016123c591906165b3565b60206040518083038186803b1580156123dd57600080fd5b505afa1580156123f1573d6000803e3d6000fd5b505050506040513d601f19601f820116820180604052508101906124159190615865565b905060008111156124f0576000826020015167ffffffffffffffff164261243c9190616f8f565b90506000600d54846040015167ffffffffffffffff1664e8d4a51000846124639190616ea1565b61246d9190616ea1565b6124779190616e70565b90506124be8364e8d4a510008361248e9190616ea1565b6124989190616e70565b85600001516fffffffffffffffffffffffffffffffff166124b99190616e1a565b6140eb565b84600001906fffffffffffffffffffffffffffffffff1690816fffffffffffffffffffffffffffffffff168152505050505b6124f942614094565b826020019067ffffffffffffffff16908167ffffffffffffffff16815250508160088481548110612553577f4e487b7100000000000000000000000000000000000000000000000000000000600052603260045260246000fd5b906000526020600020906003020160008201518160000160006101000a8154816fffffffffffffffffffffffffffffffff02191690836fffffffffffffffffffffffffffffffff16021790555060208201518160000160106101000a81548167ffffffffffffffff021916908367ffffffffffffffff16021790555060408201518160000160186101000a81548167ffffffffffffffff021916908367ffffffffffffffff1602179055506060820151816001015560808201518160020160006101000a81548173ffffffffffffffffffffffffffffffffffffffff021916908373ffffffffffffffffffffffffffffffffffffffff160217905550905050827f0fc9545022a542541ad085d091fb09a2ab36fee366a4576ab63714ea907ad353836020015183856000015160405161268e93929190616bff565b60405180910390a2505b919050565b600082829050905060005b8181101561270a576126f88484838181106126ec577f4e487b7100000000000000000000000000000000000000000000000000000000600052603260045260246000fd5b905060200201356121a5565b508061270390617187565b90506126a8565b50505050565b6000806002600084815260200190815260200160002060009054906101000a900473ffffffffffffffffffffffffffffffffffffffff169050600073ffffffffffffffffffffffffffffffffffffffff168173ffffffffffffffffffffffffffffffffffffffff1614156127b9576040517f08c379a00000000000000000000000000000000000000000000000000000000081526004016127b09061688f565b60405180910390fd5b80915050919050565b60008073ffffffffffffffffffffffffffffffffffffffff168273ffffffffffffffffffffffffffffffffffffffff161415612833576040517f08c379a000000000000000000000000000000000000000000000000000000000815260040161282a9061686f565b60405180910390fd5b600360008373ffffffffffffffffffffffffffffffffffffffff1673ffffffffffffffffffffffffffffffffffffffff168152602001908152602001600020549050919050565b612882613c85565b73ffffffffffffffffffffffffffffffffffffffff166128a0612961565b73ffffffffffffffffffffffffffffffffffffffff16146128f6576040517f08c379a00000000000000000000000000000000000000000000000000000000081526004016128ed906168ef565b60405180910390fd5b612900600061414a565b565b6009818154811061291257600080fd5b906000526020600020016000915054906101000a900473ffffffffffffffffffffffffffffffffffffffff1681565b600c6020528060005260406000206000915054906101000a900460ff1681565b6000600760009054906101000a900473ffffffffffffffffffffffffffffffffffffffff16905090565b60606001805461299a90617155565b80601f01602080910402602001604051908101604052809291908181526020018280546129c690617155565b8015612a135780601f106129e857610100808354040283529160200191612a13565b820191906000526020600020905b8154815290600101906020018083116129f657829003601f168201915b5050505050905090565b7f000000000000000000000000000000000000000000000000000000000000000081565b612a53612a4c613c85565b8383614210565b5050565b6000612a62846121a5565b9050612a70848460016136b9565b506000600b6000868152602001908152602001600020600084815260200190815260200160002090506000612aa484612710565b905064e8d4a5100083600001516fffffffffffffffffffffffffffffffff1686612ace9190616ea1565b612ad89190616e70565b8260010154612ae79190616efb565b8260010181905550848260000154612aff9190616f8f565b82600001819055506000600a8781548110612b43577f4e487b7100000000000000000000000000000000000000000000000000000000600052603260045260246000fd5b9060005260206000200160009054906101000a900473ffffffffffffffffffffffffffffffffffffffff169050600073ffffffffffffffffffffffffffffffffffffffff168173ffffffffffffffffffffffffffffffffffffffff1614612c1d578073ffffffffffffffffffffffffffffffffffffffff166331c6db22883385600088600001546040518663ffffffff1660e01b8152600401612bea959493929190616aeb565b600060405180830381600087803b158015612c0457600080fd5b505af1158015612c18573d6000803e3d6000fd5b505050505b612c2887878761383c565b50612c35878760016136b9565b50612cc5828760098a81548110612c75577f4e487b7100000000000000000000000000000000000000000000000000000000600052603260045260246000fd5b9060005260206000200160009054906101000a900473ffffffffffffffffffffffffffffffffffffffff1673ffffffffffffffffffffffffffffffffffffffff16613b939092919063ffffffff16565b8173ffffffffffffffffffffffffffffffffffffffff16873373ffffffffffffffffffffffffffffffffffffffff167f67c680c232fa9400adef6a1ad234c1d6d15a44170b85fddb60ceed23e31c32208989604051612d25929190616bd6565b60405180910390a450505050505050565b60608282905067ffffffffffffffff811115612d7b577f4e487b7100000000000000000000000000000000000000000000000000000000600052604160045260246000fd5b604051908082528060200260200182016040528015612dae57816020015b6060815260200190600190039081612d995790505b50905060005b83839050811015612ead57612e5630858584818110612dfc577f4e487b7100000000000000000000000000000000000000000000000000000000600052603260045260246000fd5b9050602002810190612e0e9190616c36565b8080601f016020809104026020016040519081016040528093929190818152602001838380828437600081840152601f19601f8201169050808301925050505050505061437d565b828281518110612e8f577f4e487b7100000000000000000000000000000000000000000000000000000000600052603260045260246000fd5b60200260200101819052508080612ea590617187565b915050612db4565b5092915050565b612ec5612ebf613c85565b83613d5a565b612f04576040517f08c379a0000000000000000000000000000000000000000000000000000000008152600401612efb906169af565b60405180910390fd5b612f10848484846143aa565b50505050565b600a8181548110612f2657600080fd5b906000526020600020016000915054906101000a900473ffffffffffffffffffffffffffffffffffffffff1681565b6060612f6082613c19565b612f9f576040517f08c379a0000000000000000000000000000000000000000000000000000000008152600401612f969061692f565b60405180910390fd5b6000612fa9614406565b90506000815111612fc95760405180602001604052806000815250612ff4565b80612fd38461441d565b604051602001612fe4929190616563565b6040516020818303038152906040525b915050919050565b60008061300984846145ca565b90508091505092915050565b600080600b600084815260200190815260200160002060008581526020019081526020016000206040518060800160405290816000820154815260200160018201548152602001600282015481526020016003820160009054906101000a900460ff16151515158152505090506000600884815481106130be577f4e487b7100000000000000000000000000000000000000000000000000000000600052603260045260246000fd5b90600052602060002090600302016040518060a00160405290816000820160009054906101000a90046fffffffffffffffffffffffffffffffff166fffffffffffffffffffffffffffffffff166fffffffffffffffffffffffffffffffff1681526020016000820160109054906101000a900467ffffffffffffffff1667ffffffffffffffff1667ffffffffffffffff1681526020016000820160189054906101000a900467ffffffffffffffff1667ffffffffffffffff1667ffffffffffffffff168152602001600182015481526020016002820160009054906101000a900473ffffffffffffffffffffffffffffffffffffffff1673ffffffffffffffffffffffffffffffffffffffff1673ffffffffffffffffffffffffffffffffffffffff1681525050905060008260400151426131f99190616f8f565b9050816080015173ffffffffffffffffffffffffffffffffffffffff166350777153826040518263ffffffff1660e01b81526004016132389190616a7d565b60206040518083038186803b15801561325057600080fd5b505afa158015613264573d6000803e3d6000fd5b505050506040513d601f19601f820116820180604052508101906132889190615865565b935050505092915050565b600061329e836121a5565b90506000600b60008581526020019081526020016000206000848152602001908152602001600020905060006132d384612710565b9050600064e8d4a5100084600001516fffffffffffffffffffffffffffffffff1684600001546133039190616ea1565b61330d9190616e70565b905060006133298460010154836133249190616efb565b6139ce565b9050600061333882888a613a1b565b9050828560010181905550600082146133975761339684827f000000000000000000000000000000000000000000000000000000000000000073ffffffffffffffffffffffffffffffffffffffff16613b939092919063ffffffff16565b5b6000600a89815481106133d3577f4e487b7100000000000000000000000000000000000000000000000000000000600052603260045260246000fd5b9060005260206000200160009054906101000a900473ffffffffffffffffffffffffffffffffffffffff169050600073ffffffffffffffffffffffffffffffffffffffff168173ffffffffffffffffffffffffffffffffffffffff16146134ac578073ffffffffffffffffffffffffffffffffffffffff166331c6db228a3388878b600001546040518663ffffffff1660e01b8152600401613479959493929190616b3e565b600060405180830381600087803b15801561349357600080fd5b505af11580156134a7573d6000803e3d6000fd5b505050505b883373ffffffffffffffffffffffffffffffffffffffff167f4534f107610758c3931de9ad1e176476fcfb8c74adf920167e1d54ee84fcfe76848b6040516134f5929190616bd6565b60405180910390a3505050505050505050565b6000600560008473ffffffffffffffffffffffffffffffffffffffff1673ffffffffffffffffffffffffffffffffffffffff16815260200190815260200160002060008373ffffffffffffffffffffffffffffffffffffffff1673ffffffffffffffffffffffffffffffffffffffff16815260200190815260200160002060009054906101000a900460ff16905092915050565b6135a4613c85565b73ffffffffffffffffffffffffffffffffffffffff166135c2612961565b73ffffffffffffffffffffffffffffffffffffffff1614613618576040517f08c379a000000000000000000000000000000000000000000000000000000000815260040161360f906168ef565b60405180910390fd5b600073ffffffffffffffffffffffffffffffffffffffff168173ffffffffffffffffffffffffffffffffffffffff161415613688576040517f08c379a000000000000000000000000000000000000000000000000000000000815260040161367f9061674f565b60405180910390fd5b6136918161414a565b50565b6000806136a18585612ffc565b90506136ae8484836107ee565b809150509392505050565b600080600885815481106136f6577f4e487b7100000000000000000000000000000000000000000000000000000000600052603260045260246000fd5b906000526020600020906003020190506000613711866145ec565b905060008161271084600101546137289190616ea1565b6137329190616e70565b905060008360010154426137469190616f8f565b905060006001811115613782577f4e487b7100000000000000000000000000000000000000000000000000000000600052602160045260246000fd5b8660018111156137bb577f4e487b7100000000000000000000000000000000000000000000000000000000600052602160045260246000fd5b14156137f95761271082826137d09190616ea1565b6137da9190616e70565b8460010160008282546137ed9190616e1a565b9250508190555061382d565b61271082826138089190616ea1565b6138129190616e70565b8460010160008282546138259190616f8f565b925050819055505b60019450505050509392505050565b600080600b600086815260200190815260200160002060008481526020019081526020016000209050600081600001546127108661387a9190616ea1565b6138849190616e70565b905060008260020154426138989190616f8f565b905061271082826138a99190616ea1565b6138b39190616e70565b8360020160008282546138c69190616e1a565b92505081905550600193505050509392505050565b61395e846323b872dd60e01b8585856040516024016138fc939291906165ce565b604051602081830303815290604052907bffffffffffffffffffffffffffffffffffffffffffffffffffffffff19166020820180517bffffffffffffffffffffffffffffffffffffffffffffffffffffffff83818316178352505050506146e2565b50505050565b60007f01ffc9a7000000000000000000000000000000000000000000000000000000007bffffffffffffffffffffffffffffffffffffffffffffffffffffffff1916827bffffffffffffffffffffffffffffffffffffffffffffffffffffffff1916149050919050565b600080821215613a13576040517f08c379a0000000000000000000000000000000000000000000000000000000008152600401613a0a9061670f565b60405180910390fd5b819050919050565b600080613a2884846147a9565b905060006001811115613a64577f4e487b7100000000000000000000000000000000000000000000000000000000600052602160045260246000fd5b81602001516001811115613aa1577f4e487b7100000000000000000000000000000000000000000000000000000000600052602160045260246000fd5b1415613ad9576127108160000151612710613abc9190616e1a565b86613ac79190616ea1565b613ad19190616e70565b915050613b8c565b600180811115613b12577f4e487b7100000000000000000000000000000000000000000000000000000000600052602160045260246000fd5b81602001516001811115613b4f577f4e487b7100000000000000000000000000000000000000000000000000000000600052602160045260246000fd5b1415613b87576127108160000151612710613b6a9190616f8f565b86613b759190616ea1565b613b7f9190616e70565b915050613b8c565b849150505b9392505050565b613c148363a9059cbb60e01b8484604051602401613bb2929190616651565b604051602081830303815290604052907bffffffffffffffffffffffffffffffffffffffffffffffffffffffff19166020820180517bffffffffffffffffffffffffffffffffffffffffffffffffffffffff83818316178352505050506146e2565b505050565b60008073ffffffffffffffffffffffffffffffffffffffff166002600084815260200190815260200160002060009054906101000a900473ffffffffffffffffffffffffffffffffffffffff1673ffffffffffffffffffffffffffffffffffffffff1614159050919050565b600033905090565b816004600083815260200190815260200160002060006101000a81548173ffffffffffffffffffffffffffffffffffffffff021916908373ffffffffffffffffffffffffffffffffffffffff160217905550808273ffffffffffffffffffffffffffffffffffffffff16613d0083612710565b73ffffffffffffffffffffffffffffffffffffffff167f8c5be1e5ebec7d5bd14f71427d1e84f3dd0314c0f7b2291e5b200ac8c7c3b92560405160405180910390a45050565b6000613d51826148c9565b60019050919050565b6000613d6582613c19565b613da4576040517f08c379a0000000000000000000000000000000000000000000000000000000008152600401613d9b9061680f565b60405180910390fd5b6000613daf83612710565b90508073ffffffffffffffffffffffffffffffffffffffff168473ffffffffffffffffffffffffffffffffffffffff161480613e1e57508373ffffffffffffffffffffffffffffffffffffffff16613e0684611006565b73ffffffffffffffffffffffffffffffffffffffff16145b80613e2f5750613e2e8185613508565b5b91505092915050565b8273ffffffffffffffffffffffffffffffffffffffff16613e5882612710565b73ffffffffffffffffffffffffffffffffffffffff1614613eae576040517f08c379a0000000000000000000000000000000000000000000000000000000008152600401613ea59061690f565b60405180910390fd5b600073ffffffffffffffffffffffffffffffffffffffff168273ffffffffffffffffffffffffffffffffffffffff161415613f1e576040517f08c379a0000000000000000000000000000000000000000000000000000000008152600401613f159061678f565b60405180910390fd5b613f298383836149da565b613f34600082613c8d565b6001600360008573ffffffffffffffffffffffffffffffffffffffff1673ffffffffffffffffffffffffffffffffffffffff1681526020019081526020016000206000828254613f849190616f8f565b925050819055506001600360008473ffffffffffffffffffffffffffffffffffffffff1673ffffffffffffffffffffffffffffffffffffffff1681526020019081526020016000206000828254613fdb9190616e1a565b92505081905550816002600083815260200190815260200160002060006101000a81548173ffffffffffffffffffffffffffffffffffffffff021916908373ffffffffffffffffffffffffffffffffffffffff160217905550808273ffffffffffffffffffffffffffffffffffffffff168473ffffffffffffffffffffffffffffffffffffffff167fddf252ad1be2c89b69c2b068fc378daa952ba7f163c4a11628f55a4df523b3ef60405160405180910390a4505050565b600067ffffffffffffffff80168211156140e3576040517f08c379a00000000000000000000000000000000000000000000000000000000081526004016140da9061694f565b60405180910390fd5b819050919050565b60006fffffffffffffffffffffffffffffffff8016821115614142576040517f08c379a00000000000000000000000000000000000000000000000000000000081526004016141399061682f565b60405180910390fd5b819050919050565b6000600760009054906101000a900473ffffffffffffffffffffffffffffffffffffffff16905081600760006101000a81548173ffffffffffffffffffffffffffffffffffffffff021916908373ffffffffffffffffffffffffffffffffffffffff1602179055508173ffffffffffffffffffffffffffffffffffffffff168173ffffffffffffffffffffffffffffffffffffffff167f8be0079c531659141344cd1fd0a4f28419497f9722a3daafe3b4186f6b6457e060405160405180910390a35050565b8173ffffffffffffffffffffffffffffffffffffffff168373ffffffffffffffffffffffffffffffffffffffff16141561427f576040517f08c379a0000000000000000000000000000000000000000000000000000000008152600401614276906167af565b60405180910390fd5b80600560008573ffffffffffffffffffffffffffffffffffffffff1673ffffffffffffffffffffffffffffffffffffffff16815260200190815260200160002060008473ffffffffffffffffffffffffffffffffffffffff1673ffffffffffffffffffffffffffffffffffffffff16815260200190815260200160002060006101000a81548160ff0219169083151502179055508173ffffffffffffffffffffffffffffffffffffffff168373ffffffffffffffffffffffffffffffffffffffff167f17307eab39ab6107e8899845ad3d59bd9653f200f220920489ca2b5937696c3183604051614370919061669c565b60405180910390a3505050565b60606143a2838360405180606001604052806027815260200161737a602791396149df565b905092915050565b6143b5848484613e38565b6143c184848484614aac565b614400576040517f08c379a00000000000000000000000000000000000000000000000000000000081526004016143f79061672f565b60405180910390fd5b50505050565b606060405180602001604052806000815250905090565b60606000821415614465576040518060400160405280600181526020017f300000000000000000000000000000000000000000000000000000000000000081525090506145c5565b600082905060005b6000821461449757808061448090617187565b915050600a826144909190616e70565b915061446d565b60008167ffffffffffffffff8111156144d9577f4e487b7100000000000000000000000000000000000000000000000000000000600052604160045260246000fd5b6040519080825280601f01601f19166020018201604052801561450b5781602001600182028036833780820191505090505b5090505b600085146145be576001826145249190616f8f565b9150600a8561453391906171da565b603061453f9190616e1a565b60f81b81838151811061457b577f4e487b7100000000000000000000000000000000000000000000000000000000600052603260045260246000fd5b60200101907effffffffffffffffffffffffffffffffffffffffffffffffffffffffffffff1916908160001a905350600a856145b79190616e70565b945061450f565b8093505050505b919050565b6000806145d683614c43565b90506145e28482614cb9565b8091505092915050565b600060098281548110614628577f4e487b7100000000000000000000000000000000000000000000000000000000600052603260045260246000fd5b9060005260206000200160009054906101000a900473ffffffffffffffffffffffffffffffffffffffff1673ffffffffffffffffffffffffffffffffffffffff166370a08231306040518263ffffffff1660e01b815260040161468b91906165b3565b60206040518083038186803b1580156146a357600080fd5b505afa1580156146b7573d6000803e3d6000fd5b505050506040513d601f19601f820116820180604052508101906146db9190615865565b9050919050565b6000614744826040518060400160405280602081526020017f5361666545524332303a206c6f772d6c6576656c2063616c6c206661696c65648152508573ffffffffffffffffffffffffffffffffffffffff16614cd79092919063ffffffff16565b90506000815111156147a4578080602001905181019061476491906157c1565b6147a3576040517f08c379a000000000000000000000000000000000000000000000000000000000815260040161479a906169ef565b60405180910390fd5b5b505050565b6147b1615321565b60006147bd8484613015565b905060006147ca84614cef565b90508082101561484d5760405180604001604052808261271085856147ef9190616f8f565b6147f99190616ea1565b6148039190616e70565b8152602001600180811115614841577f4e487b7100000000000000000000000000000000000000000000000000000000600052602160045260246000fd5b815250925050506148c3565b60405180604001604052808261271084866148689190616f8f565b6148729190616ea1565b61487c9190616e70565b8152602001600060018111156148bb577f4e487b7100000000000000000000000000000000000000000000000000000000600052602160045260246000fd5b815250925050505b92915050565b60006148d482612710565b90506148e2816000846149da565b6148ed600083613c8d565b6001600360008373ffffffffffffffffffffffffffffffffffffffff1673ffffffffffffffffffffffffffffffffffffffff168152602001908152602001600020600082825461493d9190616f8f565b925050819055506002600083815260200190815260200160002060006101000a81549073ffffffffffffffffffffffffffffffffffffffff021916905581600073ffffffffffffffffffffffffffffffffffffffff168273ffffffffffffffffffffffffffffffffffffffff167fddf252ad1be2c89b69c2b068fc378daa952ba7f163c4a11628f55a4df523b3ef60405160405180910390a45050565b505050565b60606149ea84614eff565b614a29576040517f08c379a0000000000000000000000000000000000000000000000000000000008152600401614a209061698f565b60405180910390fd5b6000808573ffffffffffffffffffffffffffffffffffffffff1685604051614a51919061654c565b600060405180830381855af49150503d8060008114614a8c576040519150601f19603f3d011682016040523d82523d6000602084013e614a91565b606091505b5091509150614aa1828286614f12565b925050509392505050565b6000614acd8473ffffffffffffffffffffffffffffffffffffffff16614eff565b15614c36578373ffffffffffffffffffffffffffffffffffffffff1663150b7a02614af6613c85565b8786866040518563ffffffff1660e01b8152600401614b189493929190616605565b602060405180830381600087803b158015614b3257600080fd5b505af1925050508015614b6357506040513d601f19601f82011682018060405250810190614b609190615813565b60015b614be6573d8060008114614b93576040519150601f19603f3d011682016040523d82523d6000602084013e614b98565b606091505b50600081511415614bde576040517f08c379a0000000000000000000000000000000000000000000000000000000008152600401614bd59061672f565b60405180910390fd5b805181602001fd5b63150b7a0260e01b7bffffffffffffffffffffffffffffffffffffffffffffffffffffffff1916817bffffffffffffffffffffffffffffffffffffffffffffffffffffffff191614915050614c3b565b600190505b949350505050565b600080826006600085815260200190815260200160002054604051602001614c6c929190616587565b6040516020818303038152906040528051906020012060001c9050600660008481526020019081526020016000206000815480929190614cab90617187565b919050555080915050919050565b614cd3828260405180602001604052806000815250614f79565b5050565b6060614ce68484600085614fd4565b90509392505050565b60008060088381548110614d2c577f4e487b7100000000000000000000000000000000000000000000000000000000600052603260045260246000fd5b90600052602060002090600302016040518060a00160405290816000820160009054906101000a90046fffffffffffffffffffffffffffffffff166fffffffffffffffffffffffffffffffff166fffffffffffffffffffffffffffffffff1681526020016000820160109054906101000a900467ffffffffffffffff1667ffffffffffffffff1667ffffffffffffffff1681526020016000820160189054906101000a900467ffffffffffffffff1667ffffffffffffffff1667ffffffffffffffff168152602001600182015481526020016002820160009054906101000a900473ffffffffffffffffffffffffffffffffffffffff1673ffffffffffffffffffffffffffffffffffffffff1673ffffffffffffffffffffffffffffffffffffffff168152505090506000816060015142614e679190616f8f565b9050816080015173ffffffffffffffffffffffffffffffffffffffff166350777153826040518263ffffffff1660e01b8152600401614ea69190616a7d565b60206040518083038186803b158015614ebe57600080fd5b505afa158015614ed2573d6000803e3d6000fd5b505050506040513d601f19601f82011682018060405250810190614ef69190615865565b92505050919050565b600080823b905060008111915050919050565b60608315614f2257829050614f72565b600083511115614f355782518084602001fd5b816040517f08c379a0000000000000000000000000000000000000000000000000000000008152600401614f6991906166ed565b60405180910390fd5b9392505050565b614f8383836150e8565b614f906000848484614aac565b614fcf576040517f08c379a0000000000000000000000000000000000000000000000000000000008152600401614fc69061672f565b60405180910390fd5b505050565b606082471015615019576040517f08c379a0000000000000000000000000000000000000000000000000000000008152600401615010906167ef565b60405180910390fd5b61502285614eff565b615061576040517f08c379a0000000000000000000000000000000000000000000000000000000008152600401615058906169cf565b60405180910390fd5b6000808673ffffffffffffffffffffffffffffffffffffffff16858760405161508a919061654c565b60006040518083038185875af1925050503d80600081146150c7576040519150601f19603f3d011682016040523d82523d6000602084013e6150cc565b606091505b50915091506150dc828286614f12565b92505050949350505050565b600073ffffffffffffffffffffffffffffffffffffffff168273ffffffffffffffffffffffffffffffffffffffff161415615158576040517f08c379a000000000000000000000000000000000000000000000000000000000815260040161514f906168af565b60405180910390fd5b61516181613c19565b156151a1576040517f08c379a00000000000000000000000000000000000000000000000000000000081526004016151989061676f565b60405180910390fd5b6151ad600083836149da565b6001600360008473ffffffffffffffffffffffffffffffffffffffff1673ffffffffffffffffffffffffffffffffffffffff16815260200190815260200160002060008282546151fd9190616e1a565b92505081905550816002600083815260200190815260200160002060006101000a81548173ffffffffffffffffffffffffffffffffffffffff021916908373ffffffffffffffffffffffffffffffffffffffff160217905550808273ffffffffffffffffffffffffffffffffffffffff16600073ffffffffffffffffffffffffffffffffffffffff167fddf252ad1be2c89b69c2b068fc378daa952ba7f163c4a11628f55a4df523b3ef60405160405180910390a45050565b6040518060a0016040528060006fffffffffffffffffffffffffffffffff168152602001600067ffffffffffffffff168152602001600067ffffffffffffffff16815260200160008152602001600073ffffffffffffffffffffffffffffffffffffffff1681525090565b6040518060400160405280600081526020016000600181111561536d577f4e487b7100000000000000000000000000000000000000000000000000000000600052602160045260246000fd5b81525090565b600061538661538184616cbe565b616c8d565b90508281526020810184848401111561539e57600080fd5b6153a9848285617113565b509392505050565b6000813590506153c0816172d8565b92915050565b60008083601f8401126153d857600080fd5b8235905067ffffffffffffffff8111156153f157600080fd5b60208301915083602082028301111561540957600080fd5b9250929050565b60008083601f84011261542257600080fd5b8235905067ffffffffffffffff81111561543b57600080fd5b60208301915083602082028301111561545357600080fd5b9250929050565b600081359050615469816172ef565b92915050565b60008151905061547e816172ef565b92915050565b60008135905061549381617306565b92915050565b6000815190506154a881617306565b92915050565b600082601f8301126154bf57600080fd5b81356154cf848260208601615373565b91505092915050565b6000813590506154e78161731d565b92915050565b6000813590506154fc81617334565b92915050565b6000813590506155118161734b565b92915050565b60008135905061552681617362565b92915050565b60008151905061553b81617362565b92915050565b60006020828403121561555357600080fd5b6000615561848285016153b1565b91505092915050565b6000806040838503121561557d57600080fd5b600061558b858286016153b1565b925050602061559c858286016153b1565b9150509250929050565b6000806000606084860312156155bb57600080fd5b60006155c9868287016153b1565b93505060206155da868287016153b1565b92505060406155eb86828701615517565b9150509250925092565b6000806000806080858703121561560b57600080fd5b6000615619878288016153b1565b945050602061562a878288016153b1565b935050604061563b87828801615517565b925050606085013567ffffffffffffffff81111561565857600080fd5b615664878288016154ae565b91505092959194509250565b6000806040838503121561568357600080fd5b6000615691858286016153b1565b92505060206156a28582860161545a565b9150509250929050565b600080604083850312156156bf57600080fd5b60006156cd858286016153b1565b92505060206156de85828601615517565b9150509250929050565b6000806000606084860312156156fd57600080fd5b600061570b868287016153b1565b935050602061571c86828701615517565b925050604061572d86828701615517565b9150509250925092565b6000806020838503121561574a57600080fd5b600083013567ffffffffffffffff81111561576457600080fd5b615770858286016153c6565b92509250509250929050565b6000806020838503121561578f57600080fd5b600083013567ffffffffffffffff8111156157a957600080fd5b6157b585828601615410565b92509250509250929050565b6000602082840312156157d357600080fd5b60006157e18482850161546f565b91505092915050565b6000602082840312156157fc57600080fd5b600061580a84828501615484565b91505092915050565b60006020828403121561582557600080fd5b600061583384828501615499565b91505092915050565b60006020828403121561584e57600080fd5b600061585c84828501615517565b91505092915050565b60006020828403121561587757600080fd5b60006158858482850161552c565b91505092915050565b600080600080608085870312156158a457600080fd5b60006158b287828801615517565b94505060206158c3878288016154ed565b93505060406158d487828801615502565b92505060606158e5878288016154d8565b91505092959194509250565b6000806040838503121561590457600080fd5b600061591285828601615517565b925050602061592385828601615517565b9150509250929050565b60008060008060008060c0878903121561594657600080fd5b600061595489828a01615517565b965050602061596589828a01615517565b955050604061597689828a01615502565b945050606061598789828a016153b1565b935050608061599889828a0161545a565b92505060a06159a989828a0161545a565b9150509295509295509295565b6000806000606084860312156159cb57600080fd5b60006159d986828701615517565b93505060206159ea86828701615517565b92505060406159fb86828701615517565b9150509250925092565b6000615a118383615abb565b905092915050565b615a2281616fc3565b82525050565b615a3181616fc3565b82525050565b6000615a4282616cfe565b615a4c8185616d2c565b935083602082028501615a5e85616cee565b8060005b85811015615a9a5784840389528151615a7b8582615a05565b9450615a8683616d1f565b925060208a01995050600181019050615a62565b50829750879550505050505092915050565b615ab581616fd5565b82525050565b6000615ac682616d09565b615ad08185616d3d565b9350615ae0818560208601617122565b615ae9816172c7565b840191505092915050565b6000615aff82616d09565b615b098185616d4e565b9350615b19818560208601617122565b615b22816172c7565b840191505092915050565b6000615b3882616d09565b615b428185616d5f565b9350615b52818560208601617122565b80840191505092915050565b615b67816170a7565b82525050565b615b76816170cb565b82525050565b615b8581617043565b82525050565b615b94816170ef565b82525050565b6000615ba582616d14565b615baf8185616d6a565b9350615bbf818560208601617122565b615bc8816172c7565b840191505092915050565b6000615bde82616d14565b615be88185616d7b565b9350615bf8818560208601617122565b80840191505092915050565b6000615c11600b83616d6a565b91507f496e7465676572203c20300000000000000000000000000000000000000000006000830152602082019050919050565b6000615c51603283616d6a565b91507f4552433732313a207472616e7366657220746f206e6f6e20455243373231526560008301527f63656976657220696d706c656d656e74657200000000000000000000000000006020830152604082019050919050565b6000615cb7602683616d6a565b91507f4f776e61626c653a206e6577206f776e657220697320746865207a65726f206160008301527f64647265737300000000000000000000000000000000000000000000000000006020830152604082019050919050565b6000615d1d601c83616d6a565b91507f4552433732313a20746f6b656e20616c7265616479206d696e746564000000006000830152602082019050919050565b6000615d5d602483616d6a565b91507f4552433732313a207472616e7366657220746f20746865207a65726f2061646460008301527f72657373000000000000000000000000000000000000000000000000000000006020830152604082019050919050565b6000615dc3601983616d6a565b91507f4552433732313a20617070726f766520746f2063616c6c6572000000000000006000830152602082019050919050565b6000615e03602183616d6a565b91507f7468697320746f6b656e2068617320616c7265616479206265656e206164646560008301527f64000000000000000000000000000000000000000000000000000000000000006020830152604082019050919050565b6000615e69602683616d6a565b91507f416464726573733a20696e73756666696369656e742062616c616e636520666f60008301527f722063616c6c00000000000000000000000000000000000000000000000000006020830152604082019050919050565b6000615ecf602c83616d6a565b91507f4552433732313a206f70657261746f7220717565727920666f72206e6f6e657860008301527f697374656e7420746f6b656e00000000000000000000000000000000000000006020830152604082019050919050565b6000615f35601c83616d6a565b91507f426f72696e674d6174683a2075696e74313238204f766572666c6f77000000006000830152602082019050919050565b6000615f75603883616d6a565b91507f4552433732313a20617070726f76652063616c6c6572206973206e6f74206f7760008301527f6e6572206e6f7220617070726f76656420666f7220616c6c00000000000000006020830152604082019050919050565b6000615fdb602a83616d6a565b91507f4552433732313a2062616c616e636520717565727920666f7220746865207a6560008301527f726f2061646472657373000000000000000000000000000000000000000000006020830152604082019050919050565b6000616041602983616d6a565b91507f4552433732313a206f776e657220717565727920666f72206e6f6e657869737460008301527f656e7420746f6b656e00000000000000000000000000000000000000000000006020830152604082019050919050565b60006160a7602083616d6a565b91507f4552433732313a206d696e7420746f20746865207a65726f20616464726573736000830152602082019050919050565b60006160e7602c83616d6a565b91507f4552433732313a20617070726f76656420717565727920666f72206e6f6e657860008301527f697374656e7420746f6b656e00000000000000000000000000000000000000006020830152604082019050919050565b600061614d602083616d6a565b91507f4f776e61626c653a2063616c6c6572206973206e6f7420746865206f776e65726000830152602082019050919050565b600061618d602983616d6a565b91507f4552433732313a207472616e73666572206f6620746f6b656e2074686174206960008301527f73206e6f74206f776e00000000000000000000000000000000000000000000006020830152604082019050919050565b60006161f3602f83616d6a565b91507f4552433732314d657461646174613a2055524920717565727920666f72206e6f60008301527f6e6578697374656e7420746f6b656e00000000000000000000000000000000006020830152604082019050919050565b6000616259601b83616d6a565b91507f426f72696e674d6174683a2075696e743634204f766572666c6f7700000000006000830152602082019050919050565b6000616299602183616d6a565b91507f4552433732313a20617070726f76616c20746f2063757272656e74206f776e6560008301527f72000000000000000000000000000000000000000000000000000000000000006020830152604082019050919050565b60006162ff602683616d6a565b91507f416464726573733a2064656c65676174652063616c6c20746f206e6f6e2d636f60008301527f6e747261637400000000000000000000000000000000000000000000000000006020830152604082019050919050565b6000616365603183616d6a565b91507f4552433732313a207472616e736665722063616c6c6572206973206e6f74206f60008301527f776e6572206e6f7220617070726f7665640000000000000000000000000000006020830152604082019050919050565b60006163cb601d83616d6a565b91507f416464726573733a2063616c6c20746f206e6f6e2d636f6e74726163740000006000830152602082019050919050565b600061640b602a83616d6a565b91507f5361666545524332303a204552433230206f7065726174696f6e20646964206e60008301527f6f742073756363656564000000000000000000000000000000000000000000006020830152604082019050919050565b60a08201600082015161647a60008501826164cc565b50602082015161648d602085018261652e565b5060408201516164a0604085018261652e565b5060608201516164b360608501826164f9565b5060808201516164c66080850182615a19565b50505050565b6164d58161704d565b82525050565b6164e48161704d565b82525050565b6164f381617101565b82525050565b61650281617089565b82525050565b61651181617089565b82525050565b61652861652382617089565b6171d0565b82525050565b61653781617093565b82525050565b61654681617093565b82525050565b60006165588284615b2d565b915081905092915050565b600061656f8285615bd3565b915061657b8284615bd3565b91508190509392505050565b60006165938285616517565b6020820191506165a38284616517565b6020820191508190509392505050565b60006020820190506165c86000830184615a28565b92915050565b60006060820190506165e36000830186615a28565b6165f06020830185615a28565b6165fd6040830184616508565b949350505050565b600060808201905061661a6000830187615a28565b6166276020830186615a28565b6166346040830185616508565b81810360608301526166468184615af4565b905095945050505050565b60006040820190506166666000830185615a28565b6166736020830184616508565b9392505050565b600060208201905081810360008301526166948184615a37565b905092915050565b60006020820190506166b16000830184615aac565b92915050565b60006020820190506166cc6000830184615b5e565b92915050565b60006020820190506166e76000830184615b6d565b92915050565b600060208201905081810360008301526167078184615b9a565b905092915050565b6000602082019050818103600083015261672881615c04565b9050919050565b6000602082019050818103600083015261674881615c44565b9050919050565b6000602082019050818103600083015261676881615caa565b9050919050565b6000602082019050818103600083015261678881615d10565b9050919050565b600060208201905081810360008301526167a881615d50565b9050919050565b600060208201905081810360008301526167c881615db6565b9050919050565b600060208201905081810360008301526167e881615df6565b9050919050565b6000602082019050818103600083015261680881615e5c565b9050919050565b6000602082019050818103600083015261682881615ec2565b9050919050565b6000602082019050818103600083015261684881615f28565b9050919050565b6000602082019050818103600083015261686881615f68565b9050919050565b6000602082019050818103600083015261688881615fce565b9050919050565b600060208201905081810360008301526168a881616034565b9050919050565b600060208201905081810360008301526168c88161609a565b9050919050565b600060208201905081810360008301526168e8816160da565b9050919050565b6000602082019050818103600083015261690881616140565b9050919050565b6000602082019050818103600083015261692881616180565b9050919050565b60006020820190508181036000830152616948816161e6565b9050919050565b600060208201905081810360008301526169688161624c565b9050919050565b600060208201905081810360008301526169888161628c565b9050919050565b600060208201905081810360008301526169a8816162f2565b9050919050565b600060208201905081810360008301526169c881616358565b9050919050565b600060208201905081810360008301526169e8816163be565b9050919050565b60006020820190508181036000830152616a08816163fe565b9050919050565b600060a082019050616a246000830184616464565b92915050565b600060a082019050616a3f60008301886164db565b616a4c602083018761653d565b616a59604083018661653d565b616a666060830185616508565b616a736080830184615a28565b9695505050505050565b6000602082019050616a926000830184616508565b92915050565b600060a082019050616aad6000830188616508565b616aba6020830187615a28565b616ac76040830186615a28565b616ad46060830185615b8b565b616ae16080830184615b8b565b9695505050505050565b600060a082019050616b006000830188616508565b616b0d6020830187615a28565b616b1a6040830186615a28565b616b276060830185615b8b565b616b346080830184616508565b9695505050505050565b600060a082019050616b536000830188616508565b616b606020830187615a28565b616b6d6040830186615a28565b616b7a6060830185616508565b616b876080830184616508565b9695505050505050565b6000608082019050616ba66000830187616508565b616bb36020830186615b7c565b616bc06040830185616508565b616bcd6060830184615aac565b95945050505050565b6000604082019050616beb6000830185616508565b616bf86020830184616508565b9392505050565b6000606082019050616c14600083018661653d565b616c216020830185616508565b616c2e60408301846164ea565b949350505050565b60008083356001602003843603038112616c4f57600080fd5b80840192508235915067ffffffffffffffff821115616c6d57600080fd5b602083019250600182023603831315616c8557600080fd5b509250929050565b6000604051905081810181811067ffffffffffffffff82111715616cb457616cb3617298565b5b8060405250919050565b600067ffffffffffffffff821115616cd957616cd8617298565b5b601f19601f8301169050602081019050919050565b6000819050602082019050919050565b600081519050919050565b600081519050919050565b600081519050919050565b6000602082019050919050565b600082825260208201905092915050565b600082825260208201905092915050565b600082825260208201905092915050565b600081905092915050565b600082825260208201905092915050565b600081905092915050565b6000616d9182617043565b9150616d9c83617043565b9250817f7fffffffffffffffffffffffffffffffffffffffffffffffffffffffffffffff03831360008312151615616dd757616dd661720b565b5b817f8000000000000000000000000000000000000000000000000000000000000000038312600083121615616e0f57616e0e61720b565b5b828201905092915050565b6000616e2582617089565b9150616e3083617089565b9250827fffffffffffffffffffffffffffffffffffffffffffffffffffffffffffffffff03821115616e6557616e6461720b565b5b828201905092915050565b6000616e7b82617089565b9150616e8683617089565b925082616e9657616e9561723a565b5b828204905092915050565b6000616eac82617089565b9150616eb783617089565b9250817fffffffffffffffffffffffffffffffffffffffffffffffffffffffffffffffff0483118215151615616ef057616eef61720b565b5b828202905092915050565b6000616f0682617043565b9150616f1183617043565b9250827f800000000000000000000000000000000000000000000000000000000000000001821260008412151615616f4c57616f4b61720b565b5b827f7fffffffffffffffffffffffffffffffffffffffffffffffffffffffffffffff018213600084121615616f8457616f8361720b565b5b828203905092915050565b6000616f9a82617089565b9150616fa583617089565b925082821015616fb857616fb761720b565b5b828203905092915050565b6000616fce82617069565b9050919050565b60008115159050919050565b60007fffffffff0000000000000000000000000000000000000000000000000000000082169050919050565b600061701882616fc3565b9050919050565b600061702a82616fc3565b9050919050565b600061703c82616fc3565b9050919050565b6000819050919050565b60006fffffffffffffffffffffffffffffffff82169050919050565b600073ffffffffffffffffffffffffffffffffffffffff82169050919050565b6000819050919050565b600067ffffffffffffffff82169050919050565b60006170b2826170b9565b9050919050565b60006170c482617069565b9050919050565b60006170d6826170dd565b9050919050565b60006170e882617069565b9050919050565b60006170fa82617089565b9050919050565b600061710c8261704d565b9050919050565b82818337600083830152505050565b60005b83811015617140578082015181840152602081019050617125565b8381111561714f576000848401525b50505050565b6000600282049050600182168061716d57607f821691505b6020821081141561718157617180617269565b5b50919050565b600061719282617089565b91507fffffffffffffffffffffffffffffffffffffffffffffffffffffffffffffffff8214156171c5576171c461720b565b5b600182019050919050565b6000819050919050565b60006171e582617089565b91506171f083617089565b925082617200576171ff61723a565b5b828206905092915050565b7f4e487b7100000000000000000000000000000000000000000000000000000000600052601160045260246000fd5b7f4e487b7100000000000000000000000000000000000000000000000000000000600052601260045260246000fd5b7f4e487b7100000000000000000000000000000000000000000000000000000000600052602260045260246000fd5b7f4e487b7100000000000000000000000000000000000000000000000000000000600052604160045260246000fd5b6000601f19601f8301169050919050565b6172e181616fc3565b81146172ec57600080fd5b50565b6172f881616fd5565b811461730357600080fd5b50565b61730f81616fe1565b811461731a57600080fd5b50565b6173268161700d565b811461733157600080fd5b50565b61733d8161701f565b811461734857600080fd5b50565b61735481617031565b811461735f57600080fd5b50565b61736b81617089565b811461737657600080fd5b5056fe416464726573733a206c6f772d6c6576656c2064656c65676174652063616c6c206661696c6564a2646970667358221220cd8a74da85dc9774a656b16446627a38eadea0853493538fc0f5e3b7f0ae099e64736f6c63430008000033",
  "linkReferences": {},
  "deployedLinkReferences": {}
}