{
  "_format": "hh-sol-artifact-1",
  "contractName": "Reliquary",
  "sourceName": "contracts/Reliquary.sol",
  "abi": [
    {
      "inputs": [
        {
          "internalType": "contract IERC20",
          "name": "_relic",
          "type": "address"
        }
      ],
      "stateMutability": "nonpayable",
      "type": "constructor"
    },
    {
      "anonymous": false,
      "inputs": [
        {
          "indexed": true,
          "internalType": "address",
          "name": "owner",
          "type": "address"
        },
        {
          "indexed": true,
          "internalType": "address",
          "name": "approved",
          "type": "address"
        },
        {
          "indexed": true,
          "internalType": "uint256",
          "name": "tokenId",
          "type": "uint256"
        }
      ],
      "name": "Approval",
      "type": "event"
    },
    {
      "anonymous": false,
      "inputs": [
        {
          "indexed": true,
          "internalType": "address",
          "name": "owner",
          "type": "address"
        },
        {
          "indexed": true,
          "internalType": "address",
          "name": "operator",
          "type": "address"
        },
        {
          "indexed": false,
          "internalType": "bool",
          "name": "approved",
          "type": "bool"
        }
      ],
      "name": "ApprovalForAll",
      "type": "event"
    },
    {
      "anonymous": false,
      "inputs": [
        {
          "indexed": true,
          "internalType": "address",
          "name": "user",
          "type": "address"
        },
        {
          "indexed": true,
          "internalType": "uint256",
          "name": "pid",
          "type": "uint256"
        },
        {
          "indexed": false,
          "internalType": "uint256",
          "name": "amount",
          "type": "uint256"
        },
        {
          "indexed": true,
          "internalType": "address",
          "name": "to",
          "type": "address"
        },
        {
          "indexed": false,
          "internalType": "uint256",
          "name": "positionId",
          "type": "uint256"
        }
      ],
      "name": "Deposit",
      "type": "event"
    },
    {
      "anonymous": false,
      "inputs": [
        {
          "indexed": true,
          "internalType": "address",
          "name": "user",
          "type": "address"
        },
        {
          "indexed": true,
          "internalType": "uint256",
          "name": "pid",
          "type": "uint256"
        },
        {
          "indexed": false,
          "internalType": "uint256",
          "name": "amount",
          "type": "uint256"
        },
        {
          "indexed": true,
          "internalType": "address",
          "name": "to",
          "type": "address"
        },
        {
          "indexed": false,
          "internalType": "uint256",
          "name": "positionId",
          "type": "uint256"
        }
      ],
      "name": "EmergencyWithdraw",
      "type": "event"
    },
    {
      "anonymous": false,
      "inputs": [
        {
          "indexed": true,
          "internalType": "address",
          "name": "user",
          "type": "address"
        },
        {
          "indexed": true,
          "internalType": "uint256",
          "name": "pid",
          "type": "uint256"
        },
        {
          "indexed": false,
          "internalType": "uint256",
          "name": "amount",
          "type": "uint256"
        },
        {
          "indexed": false,
          "internalType": "uint256",
          "name": "positionId",
          "type": "uint256"
        }
      ],
      "name": "Harvest",
      "type": "event"
    },
    {
      "anonymous": false,
      "inputs": [],
      "name": "LogInit",
      "type": "event"
    },
    {
      "anonymous": false,
      "inputs": [
        {
          "indexed": false,
          "internalType": "uint256",
          "name": "pid",
          "type": "uint256"
        },
        {
          "indexed": false,
          "internalType": "uint256",
          "name": "allocPoint",
          "type": "uint256"
        },
        {
          "indexed": true,
          "internalType": "contract IERC20",
          "name": "lpToken",
          "type": "address"
        },
        {
          "indexed": true,
          "internalType": "contract IRewarder",
          "name": "rewarder",
          "type": "address"
        },
        {
          "indexed": true,
          "internalType": "address",
          "name": "curve",
          "type": "address"
        }
      ],
      "name": "LogPoolAddition",
      "type": "event"
    },
    {
      "anonymous": false,
      "inputs": [
        {
          "indexed": true,
          "internalType": "uint256",
          "name": "pid",
          "type": "uint256"
        },
        {
          "indexed": false,
          "internalType": "uint256",
          "name": "allocPoint",
          "type": "uint256"
        },
        {
          "indexed": true,
          "internalType": "contract IRewarder",
          "name": "rewarder",
          "type": "address"
        },
        {
          "indexed": true,
          "internalType": "address",
          "name": "curve",
          "type": "address"
        }
      ],
      "name": "LogSetPool",
      "type": "event"
    },
    {
      "anonymous": false,
      "inputs": [
        {
          "indexed": true,
          "internalType": "uint256",
          "name": "pid",
          "type": "uint256"
        },
        {
          "indexed": false,
          "internalType": "uint64",
          "name": "lastRewardTime",
          "type": "uint64"
        },
        {
          "indexed": false,
          "internalType": "uint256",
          "name": "lpSupply",
          "type": "uint256"
        },
        {
          "indexed": false,
          "internalType": "uint256",
          "name": "accRELICPerShare",
          "type": "uint256"
        }
      ],
      "name": "LogUpdatePool",
      "type": "event"
    },
    {
      "anonymous": false,
      "inputs": [
        {
          "indexed": true,
          "internalType": "address",
          "name": "previousOwner",
          "type": "address"
        },
        {
          "indexed": true,
          "internalType": "address",
          "name": "newOwner",
          "type": "address"
        }
      ],
      "name": "OwnershipTransferred",
      "type": "event"
    },
    {
      "anonymous": false,
      "inputs": [
        {
          "indexed": true,
          "internalType": "address",
          "name": "from",
          "type": "address"
        },
        {
          "indexed": true,
          "internalType": "address",
          "name": "to",
          "type": "address"
        },
        {
          "indexed": true,
          "internalType": "uint256",
          "name": "tokenId",
          "type": "uint256"
        }
      ],
      "name": "Transfer",
      "type": "event"
    },
    {
      "anonymous": false,
      "inputs": [
        {
          "indexed": true,
          "internalType": "address",
          "name": "user",
          "type": "address"
        },
        {
          "indexed": true,
          "internalType": "uint256",
          "name": "pid",
          "type": "uint256"
        },
        {
          "indexed": false,
          "internalType": "uint256",
          "name": "amount",
          "type": "uint256"
        },
        {
          "indexed": true,
          "internalType": "address",
          "name": "to",
          "type": "address"
        },
        {
          "indexed": false,
          "internalType": "uint256",
          "name": "positionId",
          "type": "uint256"
        }
      ],
      "name": "Withdraw",
      "type": "event"
    },
    {
      "inputs": [],
      "name": "RELIC",
      "outputs": [
        {
          "internalType": "contract IERC20",
          "name": "",
          "type": "address"
        }
      ],
      "stateMutability": "view",
      "type": "function"
    },
    {
      "inputs": [
        {
          "internalType": "uint256",
          "name": "allocPoint",
          "type": "uint256"
        },
        {
          "internalType": "contract IERC20",
          "name": "_lpToken",
          "type": "address"
        },
        {
          "internalType": "contract IRewarder",
          "name": "_rewarder",
          "type": "address"
        },
        {
          "internalType": "contract ICurve",
          "name": "_curve",
          "type": "address"
        }
      ],
      "name": "add",
      "outputs": [],
      "stateMutability": "nonpayable",
      "type": "function"
    },
    {
      "inputs": [
        {
          "internalType": "address",
          "name": "to",
          "type": "address"
        },
        {
          "internalType": "uint256",
          "name": "tokenId",
          "type": "uint256"
        }
      ],
      "name": "approve",
      "outputs": [],
      "stateMutability": "nonpayable",
      "type": "function"
    },
    {
      "inputs": [
        {
          "internalType": "address",
          "name": "owner",
          "type": "address"
        }
      ],
      "name": "balanceOf",
      "outputs": [
        {
          "internalType": "uint256",
          "name": "",
          "type": "uint256"
        }
      ],
      "stateMutability": "view",
      "type": "function"
    },
    {
      "inputs": [
        {
          "internalType": "address",
          "name": "to",
          "type": "address"
        },
        {
          "internalType": "uint256",
          "name": "pid",
          "type": "uint256"
        }
      ],
      "name": "createNewPosition",
      "outputs": [
        {
          "internalType": "bytes32",
          "name": "",
          "type": "bytes32"
        }
      ],
      "stateMutability": "nonpayable",
      "type": "function"
    },
    {
      "inputs": [
        {
          "internalType": "uint256",
          "name": "positionId",
          "type": "uint256"
        },
        {
          "internalType": "uint256",
          "name": "pid",
          "type": "uint256"
        }
      ],
      "name": "curved",
      "outputs": [
        {
          "internalType": "uint256",
          "name": "",
          "type": "uint256"
        }
      ],
      "stateMutability": "view",
      "type": "function"
    },
    {
      "inputs": [
        {
          "internalType": "uint256",
          "name": "pid",
          "type": "uint256"
        },
        {
          "internalType": "uint256",
          "name": "amount",
          "type": "uint256"
        },
        {
          "internalType": "uint256",
          "name": "positionId",
          "type": "uint256"
        }
      ],
      "name": "deposit",
      "outputs": [],
      "stateMutability": "nonpayable",
      "type": "function"
    },
    {
      "inputs": [
        {
          "internalType": "uint256",
          "name": "pid",
          "type": "uint256"
        },
        {
          "internalType": "uint256",
          "name": "positionId",
          "type": "uint256"
        }
      ],
      "name": "emergencyWithdraw",
      "outputs": [],
      "stateMutability": "nonpayable",
      "type": "function"
    },
    {
      "inputs": [
        {
          "internalType": "uint256",
          "name": "tokenId",
          "type": "uint256"
        }
      ],
      "name": "getApproved",
      "outputs": [
        {
          "internalType": "address",
          "name": "",
          "type": "address"
        }
      ],
      "stateMutability": "view",
      "type": "function"
    },
    {
      "inputs": [
        {
          "internalType": "uint256",
          "name": "pid",
          "type": "uint256"
        },
        {
          "internalType": "uint256",
          "name": "positionId",
          "type": "uint256"
        }
      ],
      "name": "harvest",
      "outputs": [],
      "stateMutability": "nonpayable",
      "type": "function"
    },
    {
      "inputs": [
        {
          "internalType": "address",
          "name": "",
          "type": "address"
        }
      ],
      "name": "hasBeenAdded",
      "outputs": [
        {
          "internalType": "bool",
          "name": "",
          "type": "bool"
        }
      ],
      "stateMutability": "view",
      "type": "function"
    },
    {
      "inputs": [
        {
          "internalType": "address",
          "name": "owner",
          "type": "address"
        },
        {
          "internalType": "address",
          "name": "operator",
          "type": "address"
        }
      ],
      "name": "isApprovedForAll",
      "outputs": [
        {
          "internalType": "bool",
          "name": "",
          "type": "bool"
        }
      ],
      "stateMutability": "view",
      "type": "function"
    },
    {
      "inputs": [
        {
          "internalType": "uint256",
          "name": "",
          "type": "uint256"
        }
      ],
      "name": "lpToken",
      "outputs": [
        {
          "internalType": "contract IERC20",
          "name": "",
          "type": "address"
        }
      ],
      "stateMutability": "view",
      "type": "function"
    },
    {
      "inputs": [
        {
          "internalType": "uint256[]",
          "name": "pids",
          "type": "uint256[]"
        }
      ],
      "name": "massUpdatePools",
      "outputs": [],
      "stateMutability": "nonpayable",
      "type": "function"
    },
    {
      "inputs": [
        {
          "internalType": "bytes[]",
          "name": "data",
          "type": "bytes[]"
        }
      ],
      "name": "multicall",
      "outputs": [
        {
          "internalType": "bytes[]",
          "name": "results",
          "type": "bytes[]"
        }
      ],
      "stateMutability": "nonpayable",
      "type": "function"
    },
    {
      "inputs": [],
      "name": "name",
      "outputs": [
        {
          "internalType": "string",
          "name": "",
          "type": "string"
        }
      ],
      "stateMutability": "view",
      "type": "function"
    },
    {
      "inputs": [
        {
          "internalType": "uint256",
          "name": "",
          "type": "uint256"
        }
      ],
      "name": "nonces",
      "outputs": [
        {
          "internalType": "uint256",
          "name": "",
          "type": "uint256"
        }
      ],
      "stateMutability": "view",
      "type": "function"
    },
    {
      "inputs": [],
      "name": "owner",
      "outputs": [
        {
          "internalType": "address",
          "name": "",
          "type": "address"
        }
      ],
      "stateMutability": "view",
      "type": "function"
    },
    {
      "inputs": [
        {
          "internalType": "uint256",
          "name": "tokenId",
          "type": "uint256"
        }
      ],
      "name": "ownerOf",
      "outputs": [
        {
          "internalType": "address",
          "name": "",
          "type": "address"
        }
      ],
      "stateMutability": "view",
      "type": "function"
    },
    {
      "inputs": [
        {
          "internalType": "uint256",
          "name": "_pid",
          "type": "uint256"
        },
        {
          "internalType": "uint256",
          "name": "positionId",
          "type": "uint256"
        }
      ],
      "name": "pendingRelic",
      "outputs": [
        {
          "internalType": "uint256",
          "name": "pending",
          "type": "uint256"
        }
      ],
      "stateMutability": "view",
      "type": "function"
    },
    {
      "inputs": [
        {
          "internalType": "uint256",
          "name": "",
          "type": "uint256"
        }
      ],
      "name": "poolInfo",
      "outputs": [
        {
          "internalType": "uint128",
          "name": "accRelicPerShare",
          "type": "uint128"
        },
        {
          "internalType": "uint64",
          "name": "lastRewardTime",
          "type": "uint64"
        },
        {
          "internalType": "uint64",
          "name": "allocPoint",
          "type": "uint64"
        },
        {
          "internalType": "uint256",
          "name": "averageEntry",
          "type": "uint256"
        },
        {
          "internalType": "address",
          "name": "curveAddress",
          "type": "address"
        }
      ],
      "stateMutability": "view",
      "type": "function"
    },
    {
      "inputs": [],
      "name": "poolLength",
      "outputs": [
        {
          "internalType": "uint256",
          "name": "pools",
          "type": "uint256"
        }
      ],
      "stateMutability": "view",
      "type": "function"
    },
    {
      "inputs": [
        {
          "internalType": "uint256",
          "name": "",
          "type": "uint256"
        },
        {
          "internalType": "uint256",
          "name": "",
          "type": "uint256"
        }
      ],
      "name": "positionInfo",
      "outputs": [
        {
          "internalType": "uint256",
          "name": "amount",
          "type": "uint256"
        },
        {
          "internalType": "int256",
          "name": "rewardDebt",
          "type": "int256"
        },
        {
          "internalType": "uint256",
          "name": "entry",
          "type": "uint256"
        },
        {
          "internalType": "bool",
          "name": "exempt",
          "type": "bool"
        }
      ],
      "stateMutability": "view",
      "type": "function"
    },
    {
      "inputs": [],
      "name": "renounceOwnership",
      "outputs": [],
      "stateMutability": "nonpayable",
      "type": "function"
    },
    {
      "inputs": [
        {
          "internalType": "uint256",
          "name": "",
          "type": "uint256"
        }
      ],
      "name": "rewarder",
      "outputs": [
        {
          "internalType": "contract IRewarder",
          "name": "",
          "type": "address"
        }
      ],
      "stateMutability": "view",
      "type": "function"
    },
    {
      "inputs": [
        {
          "internalType": "address",
          "name": "from",
          "type": "address"
        },
        {
          "internalType": "address",
          "name": "to",
          "type": "address"
        },
        {
          "internalType": "uint256",
          "name": "tokenId",
          "type": "uint256"
        }
      ],
      "name": "safeTransferFrom",
      "outputs": [],
      "stateMutability": "nonpayable",
      "type": "function"
    },
    {
      "inputs": [
        {
          "internalType": "address",
          "name": "from",
          "type": "address"
        },
        {
          "internalType": "address",
          "name": "to",
          "type": "address"
        },
        {
          "internalType": "uint256",
          "name": "tokenId",
          "type": "uint256"
        },
        {
          "internalType": "bytes",
          "name": "_data",
          "type": "bytes"
        }
      ],
      "name": "safeTransferFrom",
      "outputs": [],
      "stateMutability": "nonpayable",
      "type": "function"
    },
    {
      "inputs": [
        {
          "internalType": "uint256",
          "name": "_pid",
          "type": "uint256"
        },
        {
          "internalType": "uint256",
          "name": "_allocPoint",
          "type": "uint256"
        },
        {
          "internalType": "contract IRewarder",
          "name": "_rewarder",
          "type": "address"
        },
        {
          "internalType": "address",
          "name": "_curve",
          "type": "address"
        },
        {
          "internalType": "bool",
          "name": "overwriteRewarder",
          "type": "bool"
        },
        {
          "internalType": "bool",
          "name": "overwriteCurve",
          "type": "bool"
        }
      ],
      "name": "set",
      "outputs": [],
      "stateMutability": "nonpayable",
      "type": "function"
    },
    {
      "inputs": [
        {
          "internalType": "address",
          "name": "operator",
          "type": "address"
        },
        {
          "internalType": "bool",
          "name": "approved",
          "type": "bool"
        }
      ],
      "name": "setApprovalForAll",
      "outputs": [],
      "stateMutability": "nonpayable",
      "type": "function"
    },
    {
      "inputs": [
        {
          "internalType": "bytes4",
          "name": "interfaceId",
          "type": "bytes4"
        }
      ],
      "name": "supportsInterface",
      "outputs": [
        {
          "internalType": "bool",
          "name": "",
          "type": "bool"
        }
      ],
      "stateMutability": "view",
      "type": "function"
    },
    {
      "inputs": [],
      "name": "symbol",
      "outputs": [
        {
          "internalType": "string",
          "name": "",
          "type": "string"
        }
      ],
      "stateMutability": "view",
      "type": "function"
    },
    {
      "inputs": [
        {
          "internalType": "uint256",
          "name": "tokenId",
          "type": "uint256"
        }
      ],
      "name": "tokenURI",
      "outputs": [
        {
          "internalType": "string",
          "name": "",
          "type": "string"
        }
      ],
      "stateMutability": "view",
      "type": "function"
    },
    {
      "inputs": [],
      "name": "totalAllocPoint",
      "outputs": [
        {
          "internalType": "uint256",
          "name": "",
          "type": "uint256"
        }
      ],
      "stateMutability": "view",
      "type": "function"
    },
    {
      "inputs": [
        {
          "internalType": "address",
          "name": "from",
          "type": "address"
        },
        {
          "internalType": "address",
          "name": "to",
          "type": "address"
        },
        {
          "internalType": "uint256",
          "name": "tokenId",
          "type": "uint256"
        }
      ],
      "name": "transferFrom",
      "outputs": [],
      "stateMutability": "nonpayable",
      "type": "function"
    },
    {
      "inputs": [
        {
          "internalType": "address",
          "name": "newOwner",
          "type": "address"
        }
      ],
      "name": "transferOwnership",
      "outputs": [],
      "stateMutability": "nonpayable",
      "type": "function"
    },
    {
      "inputs": [
        {
          "internalType": "uint256",
          "name": "pid",
          "type": "uint256"
        }
      ],
      "name": "updatePool",
      "outputs": [
        {
          "components": [
            {
              "internalType": "uint128",
              "name": "accRelicPerShare",
              "type": "uint128"
            },
            {
              "internalType": "uint64",
              "name": "lastRewardTime",
              "type": "uint64"
            },
            {
              "internalType": "uint64",
              "name": "allocPoint",
              "type": "uint64"
            },
            {
              "internalType": "uint256",
              "name": "averageEntry",
              "type": "uint256"
            },
            {
              "internalType": "address",
              "name": "curveAddress",
              "type": "address"
            }
          ],
          "internalType": "struct Reliquary.PoolInfo",
          "name": "pool",
          "type": "tuple"
        }
      ],
      "stateMutability": "nonpayable",
      "type": "function"
    },
    {
      "inputs": [
        {
          "internalType": "uint256",
          "name": "pid",
          "type": "uint256"
        },
        {
          "internalType": "uint256",
          "name": "amount",
          "type": "uint256"
        },
        {
          "internalType": "uint256",
          "name": "positionId",
          "type": "uint256"
        }
      ],
      "name": "withdraw",
      "outputs": [],
      "stateMutability": "nonpayable",
      "type": "function"
    },
    {
      "inputs": [
        {
          "internalType": "uint256",
          "name": "pid",
          "type": "uint256"
        },
        {
          "internalType": "uint256",
          "name": "amount",
          "type": "uint256"
        },
        {
          "internalType": "uint256",
          "name": "positionId",
          "type": "uint256"
        }
      ],
      "name": "withdrawAndHarvest",
      "outputs": [],
      "stateMutability": "nonpayable",
      "type": "function"
    }
  ],
  "bytecode": "0x60a06040523480156200001157600080fd5b506040516200773c3803806200773c8339818101604052810190620000379190620002ca565b6040518060400160405280600e81526020017f52656c696320506f736974696f6e0000000000000000000000000000000000008152506040518060400160405280600781526020017f4d454d454e544f000000000000000000000000000000000000000000000000008152508160009080519060200190620000bb92919062000203565b508060019080519060200190620000d492919062000203565b505050620000f7620000eb6200013560201b60201c565b6200013d60201b60201c565b8073ffffffffffffffffffffffffffffffffffffffff1660808173ffffffffffffffffffffffffffffffffffffffff1660601b8152505050620003bd565b600033905090565b6000600760009054906101000a900473ffffffffffffffffffffffffffffffffffffffff16905081600760006101000a81548173ffffffffffffffffffffffffffffffffffffffff021916908373ffffffffffffffffffffffffffffffffffffffff1602179055508173ffffffffffffffffffffffffffffffffffffffff168173ffffffffffffffffffffffffffffffffffffffff167f8be0079c531659141344cd1fd0a4f28419497f9722a3daafe3b4186f6b6457e060405160405180910390a35050565b82805462000211906200033e565b90600052602060002090601f01602090048101928262000235576000855562000281565b82601f106200025057805160ff191683800117855562000281565b8280016001018555821562000281579182015b828111156200028057825182559160200191906001019062000263565b5b50905062000290919062000294565b5090565b5b80821115620002af57600081600090555060010162000295565b5090565b600081519050620002c481620003a3565b92915050565b600060208284031215620002dd57600080fd5b6000620002ed84828501620002b3565b91505092915050565b600062000303826200031e565b9050919050565b60006200031782620002f6565b9050919050565b600073ffffffffffffffffffffffffffffffffffffffff82169050919050565b600060028204905060018216806200035757607f821691505b602082108114156200036e576200036d62000374565b5b50919050565b7f4e487b7100000000000000000000000000000000000000000000000000000000600052602260045260246000fd5b620003ae816200030a565b8114620003ba57600080fd5b50565b60805160601c617352620003ea60003960008181610c80015281816129e4015261331101526173526000f3fe608060405234801561001057600080fd5b50600436106102315760003560e01c80636352211e11610130578063a41fe49f116100b8578063da8867361161007c578063da886736146106eb578063dbb94b501461071b578063e4a4b7b11461074b578063e985e9c514610767578063f2fde38b1461079757610231565b8063a41fe49f14610623578063ac9650d81461063f578063b88d4fde1461066f578063c346253d1461068b578063c87b56dd146106bb57610231565b80637f3bd711116100ff5780637f3bd7111461057d5780638da5cb5b146105ad57806395d89b41146105cb5780639fe45cb4146105e9578063a22cb4651461060757610231565b80636352211e146104e357806370a0823114610513578063715018a61461054357806378ed5d1f1461054d57610231565b806317caf6f1116101be5780633fdacec3116101825780633fdacec31461042c5780633ffd3ce81461045f57806342842e0e1461047b57806351eb05a61461049757806357a5b58c146104c757610231565b806317caf6f11461038a5780631f276b6e146103a8578063239543b9146103c457806323b872dd146103f4578063266f24b71461041057610231565b8063081812fc11610205578063081812fc146102bc578063081e3eda146102ec578063095ea7b31461030a578063141a468c146103265780631526fe271461035657610231565b8062aeef8a1461023657806301ffc9a71461025257806305007a301461028257806306fdde031461029e575b600080fd5b610250600480360381019061024b91906158fe565b6107b3565b005b61026c60048036038101906102679190615732565b610a86565b60405161027991906165f3565b60405180910390f35b61029c600480360381019061029791906158fe565b610b68565b005b6102a6610f39565b6040516102b3919061665f565b60405180910390f35b6102d660048036038101906102d19190615784565b610fcb565b6040516102e3919061650a565b60405180910390f35b6102f4611050565b60405161030191906169ef565b60405180910390f35b610324600480360381019061031f9190615643565b61105d565b005b610340600480360381019061033b9190615784565b611175565b60405161034d91906169ef565b60405180910390f35b610370600480360381019061036b9190615784565b61118d565b60405161038195949392919061699c565b60405180910390f35b610392611237565b60405161039f91906169ef565b60405180910390f35b6103c260048036038101906103bd9190615839565b61123d565b005b6103de60048036038101906103d99190615839565b6114b7565b6040516103eb91906169ef565b60405180910390f35b61040e6004803603810190610409919061553d565b61184c565b005b61042a600480360381019061042591906157d6565b6118ac565b005b61044660048036038101906104419190615839565b611d12565b6040516104569493929190616b03565b60405180910390f35b61047960048036038101906104749190615875565b611d5c565b005b6104956004803603810190610490919061553d565b61214a565b005b6104b160048036038101906104ac9190615784565b61216a565b6040516104be9190616981565b60405180910390f35b6104e160048036038101906104dc91906156c4565b612662565b005b6104fd60048036038101906104f89190615784565b6126d5565b60405161050a919061650a565b60405180910390f35b61052d600480360381019061052891906154d8565b612787565b60405161053a91906169ef565b60405180910390f35b61054b61283f565b005b61056760048036038101906105629190615784565b6128c7565b6040516105749190616629565b60405180910390f35b610597600480360381019061059291906154d8565b612906565b6040516105a491906165f3565b60405180910390f35b6105b5612926565b6040516105c2919061650a565b60405180910390f35b6105d3612950565b6040516105e0919061665f565b60405180910390f35b6105f16129e2565b6040516105fe9190616629565b60405180910390f35b610621600480360381019061061c9190615607565b612a06565b005b61063d600480360381019061063891906158fe565b612a1c565b005b6106596004803603810190610654919061567f565b612cfb565b60405161066691906165d1565b60405180910390f35b6106896004803603810190610684919061558c565b612e79565b005b6106a560048036038101906106a09190615784565b612edb565b6040516106b29190616644565b60405180910390f35b6106d560048036038101906106d09190615784565b612f1a565b6040516106e2919061665f565b60405180910390f35b61070560048036038101906107009190615643565b612fc1565b604051610712919061660e565b60405180910390f35b61073560048036038101906107309190615839565b612fd4565b60405161074291906169ef565b60405180910390f35b61076560048036038101906107609190615839565b613252565b005b610781600480360381019061077c9190615501565b6134c7565b60405161078e91906165f3565b60405180910390f35b6107b160048036038101906107ac91906154d8565b61355b565b005b60006107be8461216a565b90506107cc84846000613653565b506000600b6000868152602001908152602001600020600084815260200190815260200160002090506000610800846126d5565b90508482600001546108129190616d8c565b826000018190555064e8d4a5100083600001516fffffffffffffffffffffffffffffffff16866108429190616e13565b61084c9190616de2565b826001015461085b9190616cf8565b82600101819055506000600a878154811061089f577f4e487b7100000000000000000000000000000000000000000000000000000000600052603260045260246000fd5b9060005260206000200160009054906101000a900473ffffffffffffffffffffffffffffffffffffffff169050600073ffffffffffffffffffffffffffffffffffffffff168173ffffffffffffffffffffffffffffffffffffffff1614610979578073ffffffffffffffffffffffffffffffffffffffff166331c6db22888485600088600001546040518663ffffffff1660e01b8152600401610946959493929190616a5d565b600060405180830381600087803b15801561096057600080fd5b505af1158015610974573d6000803e3d6000fd5b505050505b6109848787876137d6565b50610a1633308860098b815481106109c5577f4e487b7100000000000000000000000000000000000000000000000000000000600052603260045260246000fd5b9060005260206000200160009054906101000a900473ffffffffffffffffffffffffffffffffffffffff1673ffffffffffffffffffffffffffffffffffffffff16613875909392919063ffffffff16565b8173ffffffffffffffffffffffffffffffffffffffff16873373ffffffffffffffffffffffffffffffffffffffff167eab9ea1934a18c419ebd648dfd54350d24ab746230b97428774bd8d923f4eaf8989604051610a75929190616b48565b60405180910390a450505050505050565b60007f80ac58cd000000000000000000000000000000000000000000000000000000007bffffffffffffffffffffffffffffffffffffffffffffffffffffffff1916827bffffffffffffffffffffffffffffffffffffffffffffffffffffffff19161480610b5157507f5b5e139f000000000000000000000000000000000000000000000000000000007bffffffffffffffffffffffffffffffffffffffffffffffffffffffff1916827bffffffffffffffffffffffffffffffffffffffffffffffffffffffff1916145b80610b615750610b60826138fe565b5b9050919050565b6000610b738461216a565b9050610b8184846001613653565b506000600b6000868152602001908152602001600020600084815260200190815260200160002090506000610bb5846126d5565b9050600064e8d4a5100084600001516fffffffffffffffffffffffffffffffff168460000154610be59190616e13565b610bef9190616de2565b90506000610c0b846001015483610c069190616e6d565b613968565b90506000610c1a82888b6139b5565b905064e8d4a5100086600001516fffffffffffffffffffffffffffffffff1689610c449190616e13565b610c4e9190616de2565b83610c599190616e6d565b8560010181905550878560000154610c719190616f01565b8560000181905550610cc484827f000000000000000000000000000000000000000000000000000000000000000073ffffffffffffffffffffffffffffffffffffffff16613b2d9092919063ffffffff16565b6000600a8a81548110610d00577f4e487b7100000000000000000000000000000000000000000000000000000000600052603260045260246000fd5b9060005260206000200160009054906101000a900473ffffffffffffffffffffffffffffffffffffffff169050600073ffffffffffffffffffffffffffffffffffffffff168173ffffffffffffffffffffffffffffffffffffffff1614610dd9578073ffffffffffffffffffffffffffffffffffffffff166331c6db228b3388868b600001546040518663ffffffff1660e01b8152600401610da6959493929190616ab0565b600060405180830381600087803b158015610dc057600080fd5b505af1158015610dd4573d6000803e3d6000fd5b505050505b610de48a8a8a6137d6565b50610e74858a60098d81548110610e24577f4e487b7100000000000000000000000000000000000000000000000000000000600052603260045260246000fd5b9060005260206000200160009054906101000a900473ffffffffffffffffffffffffffffffffffffffff1673ffffffffffffffffffffffffffffffffffffffff16613b2d9092919063ffffffff16565b8473ffffffffffffffffffffffffffffffffffffffff168a3373ffffffffffffffffffffffffffffffffffffffff167f67c680c232fa9400adef6a1ad234c1d6d15a44170b85fddb60ceed23e31c32208c8c604051610ed4929190616b48565b60405180910390a4893373ffffffffffffffffffffffffffffffffffffffff167f4534f107610758c3931de9ad1e176476fcfb8c74adf920167e1d54ee84fcfe76858b604051610f25929190616b48565b60405180910390a350505050505050505050565b606060008054610f48906170d1565b80601f0160208091040260200160405190810160405280929190818152602001828054610f74906170d1565b8015610fc15780601f10610f9657610100808354040283529160200191610fc1565b820191906000526020600020905b815481529060010190602001808311610fa457829003601f168201915b5050505050905090565b6000610fd682613bb3565b611015576040517f08c379a000000000000000000000000000000000000000000000000000000000815260040161100c90616841565b60405180910390fd5b6004600083815260200190815260200160002060009054906101000a900473ffffffffffffffffffffffffffffffffffffffff169050919050565b6000600880549050905090565b6000611068826126d5565b90508073ffffffffffffffffffffffffffffffffffffffff168373ffffffffffffffffffffffffffffffffffffffff1614156110d9576040517f08c379a00000000000000000000000000000000000000000000000000000000081526004016110d0906168e1565b60405180910390fd5b8073ffffffffffffffffffffffffffffffffffffffff166110f8613c1f565b73ffffffffffffffffffffffffffffffffffffffff161480611127575061112681611121613c1f565b6134c7565b5b611166576040517f08c379a000000000000000000000000000000000000000000000000000000000815260040161115d906167c1565b60405180910390fd5b6111708383613c27565b505050565b60066020528060005260406000206000915090505481565b6008818154811061119d57600080fd5b90600052602060002090600302016000915090508060000160009054906101000a90046fffffffffffffffffffffffffffffffff16908060000160109054906101000a900467ffffffffffffffff16908060000160189054906101000a900467ffffffffffffffff16908060010154908060020160009054906101000a900473ffffffffffffffffffffffffffffffffffffffff16905085565b600d5481565b6000600b6000848152602001908152602001600020600083815260200190815260200160002090506000816000015490506000611279846126d5565b905061128785836001613653565b5060008360000181905550600083600101819055506000600a86815481106112d8577f4e487b7100000000000000000000000000000000000000000000000000000000600052603260045260246000fd5b9060005260206000200160009054906101000a900473ffffffffffffffffffffffffffffffffffffffff169050600073ffffffffffffffffffffffffffffffffffffffff168173ffffffffffffffffffffffffffffffffffffffff16146113ae578073ffffffffffffffffffffffffffffffffffffffff166331c6db228733856000806040518663ffffffff1660e01b815260040161137b959493929190616a0a565b600060405180830381600087803b15801561139557600080fd5b505af11580156113a9573d6000803e3d6000fd5b505050505b6113b785613ce0565b506114478284600989815481106113f7577f4e487b7100000000000000000000000000000000000000000000000000000000600052603260045260246000fd5b9060005260206000200160009054906101000a900473ffffffffffffffffffffffffffffffffffffffff1673ffffffffffffffffffffffffffffffffffffffff16613b2d9092919063ffffffff16565b8173ffffffffffffffffffffffffffffffffffffffff16863373ffffffffffffffffffffffffffffffffffffffff167f49f7b10b8eb7a2ad947317dccbe1e83ecf9406060e44e511a5c0b3a3fb60ceec86896040516114a7929190616b48565b60405180910390a4505050505050565b600080600884815481106114f4577f4e487b7100000000000000000000000000000000000000000000000000000000600052603260045260246000fd5b90600052602060002090600302016040518060a00160405290816000820160009054906101000a90046fffffffffffffffffffffffffffffffff166fffffffffffffffffffffffffffffffff166fffffffffffffffffffffffffffffffff1681526020016000820160109054906101000a900467ffffffffffffffff1667ffffffffffffffff1667ffffffffffffffff1681526020016000820160189054906101000a900467ffffffffffffffff1667ffffffffffffffff1667ffffffffffffffff168152602001600182015481526020016002820160009054906101000a900473ffffffffffffffffffffffffffffffffffffffff1673ffffffffffffffffffffffffffffffffffffffff1673ffffffffffffffffffffffffffffffffffffffff168152505090506000600b600086815260200190815260200160002060008581526020019081526020016000209050600082600001516fffffffffffffffffffffffffffffffff16905060006009878154811061169c577f4e487b7100000000000000000000000000000000000000000000000000000000600052603260045260246000fd5b9060005260206000200160009054906101000a900473ffffffffffffffffffffffffffffffffffffffff1673ffffffffffffffffffffffffffffffffffffffff166370a08231306040518263ffffffff1660e01b81526004016116ff919061650a565b60206040518083038186803b15801561171757600080fd5b505afa15801561172b573d6000803e3d6000fd5b505050506040513d601f19601f8201168201806040525081019061174f91906157ad565b9050836020015167ffffffffffffffff164211801561176f575060008114155b156117f9576000846020015167ffffffffffffffff16426117909190616f01565b90506000600d54866040015167ffffffffffffffff1664e8d4a51000846117b79190616e13565b6117c19190616e13565b6117cb9190616de2565b90508264e8d4a5100082866117e09190616d8c565b6117ea9190616e13565b6117f49190616de2565b935050505b6000611832846001015464e8d4a510008587600001546118199190616e13565b6118239190616de2565b61182d9190616e6d565b613968565b905061183f81888a6139b5565b9550505050505092915050565b61185d611857613c1f565b82613cf4565b61189c576040517f08c379a000000000000000000000000000000000000000000000000000000000815260040161189390616921565b60405180910390fd5b6118a7838383613dd2565b505050565b6118b4613c1f565b73ffffffffffffffffffffffffffffffffffffffff166118d2612926565b73ffffffffffffffffffffffffffffffffffffffff1614611928576040517f08c379a000000000000000000000000000000000000000000000000000000000815260040161191f90616861565b60405180910390fd5b600c60008473ffffffffffffffffffffffffffffffffffffffff1673ffffffffffffffffffffffffffffffffffffffff16815260200190815260200160002060009054906101000a900460ff16156119b5576040517f08c379a00000000000000000000000000000000000000000000000000000000081526004016119ac90616741565b60405180910390fd5b600042905084600d546119c89190616d8c565b600d819055506009849080600181540180825580915050600190039060005260206000200160009091909190916101000a81548173ffffffffffffffffffffffffffffffffffffffff021916908373ffffffffffffffffffffffffffffffffffffffff160217905550600a839080600181540180825580915050600190039060005260206000200160009091909190916101000a81548173ffffffffffffffffffffffffffffffffffffffff021916908373ffffffffffffffffffffffffffffffffffffffff16021790555060086040518060a0016040528060006fffffffffffffffffffffffffffffffff168152602001611ac38461402e565b67ffffffffffffffff168152602001611adb8861402e565b67ffffffffffffffff168152602001600081526020018473ffffffffffffffffffffffffffffffffffffffff16815250908060018154018082558091505060019003906000526020600020906003020160009091909190915060008201518160000160006101000a8154816fffffffffffffffffffffffffffffffff02191690836fffffffffffffffffffffffffffffffff16021790555060208201518160000160106101000a81548167ffffffffffffffff021916908367ffffffffffffffff16021790555060408201518160000160186101000a81548167ffffffffffffffff021916908367ffffffffffffffff1602179055506060820151816001015560808201518160020160006101000a81548173ffffffffffffffffffffffffffffffffffffffff021916908373ffffffffffffffffffffffffffffffffffffffff16021790555050506001600c60008673ffffffffffffffffffffffffffffffffffffffff1673ffffffffffffffffffffffffffffffffffffffff16815260200190815260200160002060006101000a81548160ff0219169083151502179055508173ffffffffffffffffffffffffffffffffffffffff168373ffffffffffffffffffffffffffffffffffffffff168573ffffffffffffffffffffffffffffffffffffffff167f916c1141fd0c2a70bb95c6e9f2376006b00f90a78c0db17abbf423c61db950df6001600980549050611cf49190616f01565b89604051611d03929190616b48565b60405180910390a45050505050565b600b602052816000526040600020602052806000526040600020600091509150508060000154908060010154908060020154908060030160009054906101000a900460ff16905084565b611d64613c1f565b73ffffffffffffffffffffffffffffffffffffffff16611d82612926565b73ffffffffffffffffffffffffffffffffffffffff1614611dd8576040517f08c379a0000000000000000000000000000000000000000000000000000000008152600401611dcf90616861565b60405180910390fd5b8460088781548110611e13577f4e487b7100000000000000000000000000000000000000000000000000000000600052603260045260246000fd5b906000526020600020906003020160000160189054906101000a900467ffffffffffffffff1667ffffffffffffffff16600d54611e509190616f01565b611e5a9190616d8c565b600d81905550611e698561402e565b60088781548110611ea3577f4e487b7100000000000000000000000000000000000000000000000000000000600052603260045260246000fd5b906000526020600020906003020160000160186101000a81548167ffffffffffffffff021916908367ffffffffffffffff1602179055508115611f645783600a8781548110611f1b577f4e487b7100000000000000000000000000000000000000000000000000000000600052603260045260246000fd5b9060005260206000200160006101000a81548173ffffffffffffffffffffffffffffffffffffffff021916908373ffffffffffffffffffffffffffffffffffffffff1602179055505b8015611ff5578260088781548110611fa5577f4e487b7100000000000000000000000000000000000000000000000000000000600052603260045260246000fd5b906000526020600020906003020160020160006101000a81548173ffffffffffffffffffffffffffffffffffffffff021916908373ffffffffffffffffffffffffffffffffffffffff1602179055505b8061206b5760088681548110612034577f4e487b7100000000000000000000000000000000000000000000000000000000600052603260045260246000fd5b906000526020600020906003020160020160009054906101000a900473ffffffffffffffffffffffffffffffffffffffff1661206d565b825b73ffffffffffffffffffffffffffffffffffffffff16826120f257600a87815481106120c2577f4e487b7100000000000000000000000000000000000000000000000000000000600052603260045260246000fd5b9060005260206000200160009054906101000a900473ffffffffffffffffffffffffffffffffffffffff166120f4565b845b73ffffffffffffffffffffffffffffffffffffffff16877fd722065ea238ff7f9d15326ce3ed36ea0b2686f93b51effe37236249e79e090a8860405161213a91906169ef565b60405180910390a4505050505050565b61216583838360405180602001604052806000815250612e79565b505050565b61217261524d565b600882815481106121ac577f4e487b7100000000000000000000000000000000000000000000000000000000600052603260045260246000fd5b90600052602060002090600302016040518060a00160405290816000820160009054906101000a90046fffffffffffffffffffffffffffffffff166fffffffffffffffffffffffffffffffff166fffffffffffffffffffffffffffffffff1681526020016000820160109054906101000a900467ffffffffffffffff1667ffffffffffffffff1667ffffffffffffffff1681526020016000820160189054906101000a900467ffffffffffffffff1667ffffffffffffffff1667ffffffffffffffff168152602001600182015481526020016002820160009054906101000a900473ffffffffffffffffffffffffffffffffffffffff1673ffffffffffffffffffffffffffffffffffffffff1673ffffffffffffffffffffffffffffffffffffffff16815250509050806020015167ffffffffffffffff1642111561265d57600060098381548110612327577f4e487b7100000000000000000000000000000000000000000000000000000000600052603260045260246000fd5b9060005260206000200160009054906101000a900473ffffffffffffffffffffffffffffffffffffffff1673ffffffffffffffffffffffffffffffffffffffff166370a08231306040518263ffffffff1660e01b815260040161238a919061650a565b60206040518083038186803b1580156123a257600080fd5b505afa1580156123b6573d6000803e3d6000fd5b505050506040513d601f19601f820116820180604052508101906123da91906157ad565b905060008111156124b5576000826020015167ffffffffffffffff16426124019190616f01565b90506000600d54846040015167ffffffffffffffff1664e8d4a51000846124289190616e13565b6124329190616e13565b61243c9190616de2565b90506124838364e8d4a51000836124539190616e13565b61245d9190616de2565b85600001516fffffffffffffffffffffffffffffffff1661247e9190616d8c565b614085565b84600001906fffffffffffffffffffffffffffffffff1690816fffffffffffffffffffffffffffffffff168152505050505b6124be4261402e565b826020019067ffffffffffffffff16908167ffffffffffffffff16815250508160088481548110612518577f4e487b7100000000000000000000000000000000000000000000000000000000600052603260045260246000fd5b906000526020600020906003020160008201518160000160006101000a8154816fffffffffffffffffffffffffffffffff02191690836fffffffffffffffffffffffffffffffff16021790555060208201518160000160106101000a81548167ffffffffffffffff021916908367ffffffffffffffff16021790555060408201518160000160186101000a81548167ffffffffffffffff021916908367ffffffffffffffff1602179055506060820151816001015560808201518160020160006101000a81548173ffffffffffffffffffffffffffffffffffffffff021916908373ffffffffffffffffffffffffffffffffffffffff160217905550905050827f0fc9545022a542541ad085d091fb09a2ab36fee366a4576ab63714ea907ad353836020015183856000015160405161265393929190616b71565b60405180910390a2505b919050565b600082829050905060005b818110156126cf576126bd8484838181106126b1577f4e487b7100000000000000000000000000000000000000000000000000000000600052603260045260246000fd5b9050602002013561216a565b50806126c890617103565b905061266d565b50505050565b6000806002600084815260200190815260200160002060009054906101000a900473ffffffffffffffffffffffffffffffffffffffff169050600073ffffffffffffffffffffffffffffffffffffffff168173ffffffffffffffffffffffffffffffffffffffff16141561277e576040517f08c379a000000000000000000000000000000000000000000000000000000000815260040161277590616801565b60405180910390fd5b80915050919050565b60008073ffffffffffffffffffffffffffffffffffffffff168273ffffffffffffffffffffffffffffffffffffffff1614156127f8576040517f08c379a00000000000000000000000000000000000000000000000000000000081526004016127ef906167e1565b60405180910390fd5b600360008373ffffffffffffffffffffffffffffffffffffffff1673ffffffffffffffffffffffffffffffffffffffff168152602001908152602001600020549050919050565b612847613c1f565b73ffffffffffffffffffffffffffffffffffffffff16612865612926565b73ffffffffffffffffffffffffffffffffffffffff16146128bb576040517f08c379a00000000000000000000000000000000000000000000000000000000081526004016128b290616861565b60405180910390fd5b6128c560006140e4565b565b600981815481106128d757600080fd5b906000526020600020016000915054906101000a900473ffffffffffffffffffffffffffffffffffffffff1681565b600c6020528060005260406000206000915054906101000a900460ff1681565b6000600760009054906101000a900473ffffffffffffffffffffffffffffffffffffffff16905090565b60606001805461295f906170d1565b80601f016020809104026020016040519081016040528092919081815260200182805461298b906170d1565b80156129d85780601f106129ad576101008083540402835291602001916129d8565b820191906000526020600020905b8154815290600101906020018083116129bb57829003601f168201915b5050505050905090565b7f000000000000000000000000000000000000000000000000000000000000000081565b612a18612a11613c1f565b83836141aa565b5050565b6000612a278461216a565b9050612a3584846001613653565b506000600b6000868152602001908152602001600020600084815260200190815260200160002090506000612a69846126d5565b905064e8d4a5100083600001516fffffffffffffffffffffffffffffffff1686612a939190616e13565b612a9d9190616de2565b8260010154612aac9190616e6d565b8260010181905550848260000154612ac49190616f01565b82600001819055506000600a8781548110612b08577f4e487b7100000000000000000000000000000000000000000000000000000000600052603260045260246000fd5b9060005260206000200160009054906101000a900473ffffffffffffffffffffffffffffffffffffffff169050600073ffffffffffffffffffffffffffffffffffffffff168173ffffffffffffffffffffffffffffffffffffffff1614612be2578073ffffffffffffffffffffffffffffffffffffffff166331c6db22883385600088600001546040518663ffffffff1660e01b8152600401612baf959493929190616a5d565b600060405180830381600087803b158015612bc957600080fd5b505af1158015612bdd573d6000803e3d6000fd5b505050505b612bed8787876137d6565b50612bfa87876001613653565b50612c8a828760098a81548110612c3a577f4e487b7100000000000000000000000000000000000000000000000000000000600052603260045260246000fd5b9060005260206000200160009054906101000a900473ffffffffffffffffffffffffffffffffffffffff1673ffffffffffffffffffffffffffffffffffffffff16613b2d9092919063ffffffff16565b8173ffffffffffffffffffffffffffffffffffffffff16873373ffffffffffffffffffffffffffffffffffffffff167f67c680c232fa9400adef6a1ad234c1d6d15a44170b85fddb60ceed23e31c32208989604051612cea929190616b48565b60405180910390a450505050505050565b60608282905067ffffffffffffffff811115612d40577f4e487b7100000000000000000000000000000000000000000000000000000000600052604160045260246000fd5b604051908082528060200260200182016040528015612d7357816020015b6060815260200190600190039081612d5e5790505b50905060005b83839050811015612e7257612e1b30858584818110612dc1577f4e487b7100000000000000000000000000000000000000000000000000000000600052603260045260246000fd5b9050602002810190612dd39190616ba8565b8080601f016020809104026020016040519081016040528093929190818152602001838380828437600081840152601f19601f82011690508083019250505050505050614317565b828281518110612e54577f4e487b7100000000000000000000000000000000000000000000000000000000600052603260045260246000fd5b60200260200101819052508080612e6a90617103565b915050612d79565b5092915050565b612e8a612e84613c1f565b83613cf4565b612ec9576040517f08c379a0000000000000000000000000000000000000000000000000000000008152600401612ec090616921565b60405180910390fd5b612ed584848484614344565b50505050565b600a8181548110612eeb57600080fd5b906000526020600020016000915054906101000a900473ffffffffffffffffffffffffffffffffffffffff1681565b6060612f2582613bb3565b612f64576040517f08c379a0000000000000000000000000000000000000000000000000000000008152600401612f5b906168a1565b60405180910390fd5b6000612f6e6143a0565b90506000815111612f8e5760405180602001604052806000815250612fb9565b80612f98846143b7565b604051602001612fa99291906164ba565b6040516020818303038152906040525b915050919050565b6000612fcd8383614564565b5092915050565b600080600b600084815260200190815260200160002060008581526020019081526020016000206040518060800160405290816000820154815260200160018201548152602001600282015481526020016003820160009054906101000a900460ff161515151581525050905060006008848154811061307d577f4e487b7100000000000000000000000000000000000000000000000000000000600052603260045260246000fd5b90600052602060002090600302016040518060a00160405290816000820160009054906101000a90046fffffffffffffffffffffffffffffffff166fffffffffffffffffffffffffffffffff166fffffffffffffffffffffffffffffffff1681526020016000820160109054906101000a900467ffffffffffffffff1667ffffffffffffffff1667ffffffffffffffff1681526020016000820160189054906101000a900467ffffffffffffffff1667ffffffffffffffff1667ffffffffffffffff168152602001600182015481526020016002820160009054906101000a900473ffffffffffffffffffffffffffffffffffffffff1673ffffffffffffffffffffffffffffffffffffffff1673ffffffffffffffffffffffffffffffffffffffff1681525050905060008260400151426131b89190616f01565b9050816080015173ffffffffffffffffffffffffffffffffffffffff166350777153826040518263ffffffff1660e01b81526004016131f791906169ef565b60206040518083038186803b15801561320f57600080fd5b505afa158015613223573d6000803e3d6000fd5b505050506040513d601f19601f8201168201806040525081019061324791906157ad565b935050505092915050565b600061325d8361216a565b90506000600b6000858152602001908152602001600020600084815260200190815260200160002090506000613292846126d5565b9050600064e8d4a5100084600001516fffffffffffffffffffffffffffffffff1684600001546132c29190616e13565b6132cc9190616de2565b905060006132e88460010154836132e39190616e6d565b613968565b905060006132f782888a6139b5565b9050828560010181905550600082146133565761335584827f000000000000000000000000000000000000000000000000000000000000000073ffffffffffffffffffffffffffffffffffffffff16613b2d9092919063ffffffff16565b5b6000600a8981548110613392577f4e487b7100000000000000000000000000000000000000000000000000000000600052603260045260246000fd5b9060005260206000200160009054906101000a900473ffffffffffffffffffffffffffffffffffffffff169050600073ffffffffffffffffffffffffffffffffffffffff168173ffffffffffffffffffffffffffffffffffffffff161461346b578073ffffffffffffffffffffffffffffffffffffffff166331c6db228a3388878b600001546040518663ffffffff1660e01b8152600401613438959493929190616ab0565b600060405180830381600087803b15801561345257600080fd5b505af1158015613466573d6000803e3d6000fd5b505050505b883373ffffffffffffffffffffffffffffffffffffffff167f4534f107610758c3931de9ad1e176476fcfb8c74adf920167e1d54ee84fcfe76848b6040516134b4929190616b48565b60405180910390a3505050505050505050565b6000600560008473ffffffffffffffffffffffffffffffffffffffff1673ffffffffffffffffffffffffffffffffffffffff16815260200190815260200160002060008373ffffffffffffffffffffffffffffffffffffffff1673ffffffffffffffffffffffffffffffffffffffff16815260200190815260200160002060009054906101000a900460ff16905092915050565b613563613c1f565b73ffffffffffffffffffffffffffffffffffffffff16613581612926565b73ffffffffffffffffffffffffffffffffffffffff16146135d7576040517f08c379a00000000000000000000000000000000000000000000000000000000081526004016135ce90616861565b60405180910390fd5b600073ffffffffffffffffffffffffffffffffffffffff168173ffffffffffffffffffffffffffffffffffffffff161415613647576040517f08c379a000000000000000000000000000000000000000000000000000000000815260040161363e906166c1565b60405180910390fd5b613650816140e4565b50565b60008060088581548110613690577f4e487b7100000000000000000000000000000000000000000000000000000000600052603260045260246000fd5b9060005260206000209060030201905060006136ab86614583565b905060008161271084600101546136c29190616e13565b6136cc9190616de2565b905060008360010154426136e09190616f01565b90506000600181111561371c577f4e487b7100000000000000000000000000000000000000000000000000000000600052602160045260246000fd5b866001811115613755577f4e487b7100000000000000000000000000000000000000000000000000000000600052602160045260246000fd5b141561379357612710828261376a9190616e13565b6137749190616de2565b8460010160008282546137879190616d8c565b925050819055506137c7565b61271082826137a29190616e13565b6137ac9190616de2565b8460010160008282546137bf9190616f01565b925050819055505b60019450505050509392505050565b600080600b60008681526020019081526020016000206000848152602001908152602001600020905060008160000154612710866138149190616e13565b61381e9190616de2565b905060008260020154426138329190616f01565b905061271082826138439190616e13565b61384d9190616de2565b8360020160008282546138609190616d8c565b92505081905550600193505050509392505050565b6138f8846323b872dd60e01b85858560405160240161389693929190616525565b604051602081830303815290604052907bffffffffffffffffffffffffffffffffffffffffffffffffffffffff19166020820180517bffffffffffffffffffffffffffffffffffffffffffffffffffffffff8381831617835250505050614679565b50505050565b60007f01ffc9a7000000000000000000000000000000000000000000000000000000007bffffffffffffffffffffffffffffffffffffffffffffffffffffffff1916827bffffffffffffffffffffffffffffffffffffffffffffffffffffffff1916149050919050565b6000808212156139ad576040517f08c379a00000000000000000000000000000000000000000000000000000000081526004016139a490616681565b60405180910390fd5b819050919050565b6000806139c28484614740565b9050600060018111156139fe577f4e487b7100000000000000000000000000000000000000000000000000000000600052602160045260246000fd5b81602001516001811115613a3b577f4e487b7100000000000000000000000000000000000000000000000000000000600052602160045260246000fd5b1415613a73576127108160000151612710613a569190616d8c565b86613a619190616e13565b613a6b9190616de2565b915050613b26565b600180811115613aac577f4e487b7100000000000000000000000000000000000000000000000000000000600052602160045260246000fd5b81602001516001811115613ae9577f4e487b7100000000000000000000000000000000000000000000000000000000600052602160045260246000fd5b1415613b21576127108160000151612710613b049190616f01565b86613b0f9190616e13565b613b199190616de2565b915050613b26565b849150505b9392505050565b613bae8363a9059cbb60e01b8484604051602401613b4c9291906165a8565b604051602081830303815290604052907bffffffffffffffffffffffffffffffffffffffffffffffffffffffff19166020820180517bffffffffffffffffffffffffffffffffffffffffffffffffffffffff8381831617835250505050614679565b505050565b60008073ffffffffffffffffffffffffffffffffffffffff166002600084815260200190815260200160002060009054906101000a900473ffffffffffffffffffffffffffffffffffffffff1673ffffffffffffffffffffffffffffffffffffffff1614159050919050565b600033905090565b816004600083815260200190815260200160002060006101000a81548173ffffffffffffffffffffffffffffffffffffffff021916908373ffffffffffffffffffffffffffffffffffffffff160217905550808273ffffffffffffffffffffffffffffffffffffffff16613c9a836126d5565b73ffffffffffffffffffffffffffffffffffffffff167f8c5be1e5ebec7d5bd14f71427d1e84f3dd0314c0f7b2291e5b200ac8c7c3b92560405160405180910390a45050565b6000613ceb82614860565b60019050919050565b6000613cff82613bb3565b613d3e576040517f08c379a0000000000000000000000000000000000000000000000000000000008152600401613d3590616781565b60405180910390fd5b6000613d49836126d5565b90508073ffffffffffffffffffffffffffffffffffffffff168473ffffffffffffffffffffffffffffffffffffffff161480613db857508373ffffffffffffffffffffffffffffffffffffffff16613da084610fcb565b73ffffffffffffffffffffffffffffffffffffffff16145b80613dc95750613dc881856134c7565b5b91505092915050565b8273ffffffffffffffffffffffffffffffffffffffff16613df2826126d5565b73ffffffffffffffffffffffffffffffffffffffff1614613e48576040517f08c379a0000000000000000000000000000000000000000000000000000000008152600401613e3f90616881565b60405180910390fd5b600073ffffffffffffffffffffffffffffffffffffffff168273ffffffffffffffffffffffffffffffffffffffff161415613eb8576040517f08c379a0000000000000000000000000000000000000000000000000000000008152600401613eaf90616701565b60405180910390fd5b613ec3838383614971565b613ece600082613c27565b6001600360008573ffffffffffffffffffffffffffffffffffffffff1673ffffffffffffffffffffffffffffffffffffffff1681526020019081526020016000206000828254613f1e9190616f01565b925050819055506001600360008473ffffffffffffffffffffffffffffffffffffffff1673ffffffffffffffffffffffffffffffffffffffff1681526020019081526020016000206000828254613f759190616d8c565b92505081905550816002600083815260200190815260200160002060006101000a81548173ffffffffffffffffffffffffffffffffffffffff021916908373ffffffffffffffffffffffffffffffffffffffff160217905550808273ffffffffffffffffffffffffffffffffffffffff168473ffffffffffffffffffffffffffffffffffffffff167fddf252ad1be2c89b69c2b068fc378daa952ba7f163c4a11628f55a4df523b3ef60405160405180910390a4505050565b600067ffffffffffffffff801682111561407d576040517f08c379a0000000000000000000000000000000000000000000000000000000008152600401614074906168c1565b60405180910390fd5b819050919050565b60006fffffffffffffffffffffffffffffffff80168211156140dc576040517f08c379a00000000000000000000000000000000000000000000000000000000081526004016140d3906167a1565b60405180910390fd5b819050919050565b6000600760009054906101000a900473ffffffffffffffffffffffffffffffffffffffff16905081600760006101000a81548173ffffffffffffffffffffffffffffffffffffffff021916908373ffffffffffffffffffffffffffffffffffffffff1602179055508173ffffffffffffffffffffffffffffffffffffffff168173ffffffffffffffffffffffffffffffffffffffff167f8be0079c531659141344cd1fd0a4f28419497f9722a3daafe3b4186f6b6457e060405160405180910390a35050565b8173ffffffffffffffffffffffffffffffffffffffff168373ffffffffffffffffffffffffffffffffffffffff161415614219576040517f08c379a000000000000000000000000000000000000000000000000000000000815260040161421090616721565b60405180910390fd5b80600560008573ffffffffffffffffffffffffffffffffffffffff1673ffffffffffffffffffffffffffffffffffffffff16815260200190815260200160002060008473ffffffffffffffffffffffffffffffffffffffff1673ffffffffffffffffffffffffffffffffffffffff16815260200190815260200160002060006101000a81548160ff0219169083151502179055508173ffffffffffffffffffffffffffffffffffffffff168373ffffffffffffffffffffffffffffffffffffffff167f17307eab39ab6107e8899845ad3d59bd9653f200f220920489ca2b5937696c318360405161430a91906165f3565b60405180910390a3505050565b606061433c83836040518060600160405280602781526020016172f660279139614976565b905092915050565b61434f848484613dd2565b61435b84848484614a43565b61439a576040517f08c379a0000000000000000000000000000000000000000000000000000000008152600401614391906166a1565b60405180910390fd5b50505050565b606060405180602001604052806000815250905090565b606060008214156143ff576040518060400160405280600181526020017f3000000000000000000000000000000000000000000000000000000000000000815250905061455f565b600082905060005b6000821461443157808061441a90617103565b915050600a8261442a9190616de2565b9150614407565b60008167ffffffffffffffff811115614473577f4e487b7100000000000000000000000000000000000000000000000000000000600052604160045260246000fd5b6040519080825280601f01601f1916602001820160405280156144a55781602001600182028036833780820191505090505b5090505b60008514614558576001826144be9190616f01565b9150600a856144cd9190617156565b60306144d99190616d8c565b60f81b818381518110614515577f4e487b7100000000000000000000000000000000000000000000000000000000600052603260045260246000fd5b60200101907effffffffffffffffffffffffffffffffffffffffffffffffffffffffffffff1916908160001a905350600a856145519190616de2565b94506144a9565b8093505050505b919050565b60008061457083614bda565b905061457c8482614c50565b5092915050565b6000600982815481106145bf577f4e487b7100000000000000000000000000000000000000000000000000000000600052603260045260246000fd5b9060005260206000200160009054906101000a900473ffffffffffffffffffffffffffffffffffffffff1673ffffffffffffffffffffffffffffffffffffffff166370a08231306040518263ffffffff1660e01b8152600401614622919061650a565b60206040518083038186803b15801561463a57600080fd5b505afa15801561464e573d6000803e3d6000fd5b505050506040513d601f19601f8201168201806040525081019061467291906157ad565b9050919050565b60006146db826040518060400160405280602081526020017f5361666545524332303a206c6f772d6c6576656c2063616c6c206661696c65648152508573ffffffffffffffffffffffffffffffffffffffff16614c6e9092919063ffffffff16565b905060008151111561473b57808060200190518101906146fb9190615709565b61473a576040517f08c379a000000000000000000000000000000000000000000000000000000000815260040161473190616961565b60405180910390fd5b5b505050565b6147486152b8565b60006147548484612fd4565b9050600061476184614c86565b9050808210156147e45760405180604001604052808261271085856147869190616f01565b6147909190616e13565b61479a9190616de2565b81526020016001808111156147d8577f4e487b7100000000000000000000000000000000000000000000000000000000600052602160045260246000fd5b8152509250505061485a565b60405180604001604052808261271084866147ff9190616f01565b6148099190616e13565b6148139190616de2565b815260200160006001811115614852577f4e487b7100000000000000000000000000000000000000000000000000000000600052602160045260246000fd5b815250925050505b92915050565b600061486b826126d5565b905061487981600084614971565b614884600083613c27565b6001600360008373ffffffffffffffffffffffffffffffffffffffff1673ffffffffffffffffffffffffffffffffffffffff16815260200190815260200160002060008282546148d49190616f01565b925050819055506002600083815260200190815260200160002060006101000a81549073ffffffffffffffffffffffffffffffffffffffff021916905581600073ffffffffffffffffffffffffffffffffffffffff168273ffffffffffffffffffffffffffffffffffffffff167fddf252ad1be2c89b69c2b068fc378daa952ba7f163c4a11628f55a4df523b3ef60405160405180910390a45050565b505050565b606061498184614e96565b6149c0576040517f08c379a00000000000000000000000000000000000000000000000000000000081526004016149b790616901565b60405180910390fd5b6000808573ffffffffffffffffffffffffffffffffffffffff16856040516149e891906164a3565b600060405180830381855af49150503d8060008114614a23576040519150601f19603f3d011682016040523d82523d6000602084013e614a28565b606091505b5091509150614a38828286614ea9565b925050509392505050565b6000614a648473ffffffffffffffffffffffffffffffffffffffff16614e96565b15614bcd578373ffffffffffffffffffffffffffffffffffffffff1663150b7a02614a8d613c1f565b8786866040518563ffffffff1660e01b8152600401614aaf949392919061655c565b602060405180830381600087803b158015614ac957600080fd5b505af1925050508015614afa57506040513d601f19601f82011682018060405250810190614af7919061575b565b60015b614b7d573d8060008114614b2a576040519150601f19603f3d011682016040523d82523d6000602084013e614b2f565b606091505b50600081511415614b75576040517f08c379a0000000000000000000000000000000000000000000000000000000008152600401614b6c906166a1565b60405180910390fd5b805181602001fd5b63150b7a0260e01b7bffffffffffffffffffffffffffffffffffffffffffffffffffffffff1916817bffffffffffffffffffffffffffffffffffffffffffffffffffffffff191614915050614bd2565b600190505b949350505050565b600080826006600085815260200190815260200160002054604051602001614c039291906164de565b6040516020818303038152906040528051906020012060001c9050600660008481526020019081526020016000206000815480929190614c4290617103565b919050555080915050919050565b614c6a828260405180602001604052806000815250614f10565b5050565b6060614c7d8484600085614f6b565b90509392505050565b60008060088381548110614cc3577f4e487b7100000000000000000000000000000000000000000000000000000000600052603260045260246000fd5b90600052602060002090600302016040518060a00160405290816000820160009054906101000a90046fffffffffffffffffffffffffffffffff166fffffffffffffffffffffffffffffffff166fffffffffffffffffffffffffffffffff1681526020016000820160109054906101000a900467ffffffffffffffff1667ffffffffffffffff1667ffffffffffffffff1681526020016000820160189054906101000a900467ffffffffffffffff1667ffffffffffffffff1667ffffffffffffffff168152602001600182015481526020016002820160009054906101000a900473ffffffffffffffffffffffffffffffffffffffff1673ffffffffffffffffffffffffffffffffffffffff1673ffffffffffffffffffffffffffffffffffffffff168152505090506000816060015142614dfe9190616f01565b9050816080015173ffffffffffffffffffffffffffffffffffffffff166350777153826040518263ffffffff1660e01b8152600401614e3d91906169ef565b60206040518083038186803b158015614e5557600080fd5b505afa158015614e69573d6000803e3d6000fd5b505050506040513d601f19601f82011682018060405250810190614e8d91906157ad565b92505050919050565b600080823b905060008111915050919050565b60608315614eb957829050614f09565b600083511115614ecc5782518084602001fd5b816040517f08c379a0000000000000000000000000000000000000000000000000000000008152600401614f00919061665f565b60405180910390fd5b9392505050565b614f1a838361507f565b614f276000848484614a43565b614f66576040517f08c379a0000000000000000000000000000000000000000000000000000000008152600401614f5d906166a1565b60405180910390fd5b505050565b606082471015614fb0576040517f08c379a0000000000000000000000000000000000000000000000000000000008152600401614fa790616761565b60405180910390fd5b614fb985614e96565b614ff8576040517f08c379a0000000000000000000000000000000000000000000000000000000008152600401614fef90616941565b60405180910390fd5b6000808673ffffffffffffffffffffffffffffffffffffffff16858760405161502191906164a3565b60006040518083038185875af1925050503d806000811461505e576040519150601f19603f3d011682016040523d82523d6000602084013e615063565b606091505b5091509150615073828286614ea9565b92505050949350505050565b600073ffffffffffffffffffffffffffffffffffffffff168273ffffffffffffffffffffffffffffffffffffffff1614156150ef576040517f08c379a00000000000000000000000000000000000000000000000000000000081526004016150e690616821565b60405180910390fd5b6150f881613bb3565b15615138576040517f08c379a000000000000000000000000000000000000000000000000000000000815260040161512f906166e1565b60405180910390fd5b61514460008383614971565b6001600360008473ffffffffffffffffffffffffffffffffffffffff1673ffffffffffffffffffffffffffffffffffffffff16815260200190815260200160002060008282546151949190616d8c565b92505081905550816002600083815260200190815260200160002060006101000a81548173ffffffffffffffffffffffffffffffffffffffff021916908373ffffffffffffffffffffffffffffffffffffffff160217905550808273ffffffffffffffffffffffffffffffffffffffff16600073ffffffffffffffffffffffffffffffffffffffff167fddf252ad1be2c89b69c2b068fc378daa952ba7f163c4a11628f55a4df523b3ef60405160405180910390a45050565b6040518060a0016040528060006fffffffffffffffffffffffffffffffff168152602001600067ffffffffffffffff168152602001600067ffffffffffffffff16815260200160008152602001600073ffffffffffffffffffffffffffffffffffffffff1681525090565b60405180604001604052806000815260200160006001811115615304577f4e487b7100000000000000000000000000000000000000000000000000000000600052602160045260246000fd5b81525090565b600061531d61531884616c30565b616bff565b90508281526020810184848401111561533557600080fd5b61534084828561708f565b509392505050565b60008135905061535781617254565b92915050565b60008083601f84011261536f57600080fd5b8235905067ffffffffffffffff81111561538857600080fd5b6020830191508360208202830111156153a057600080fd5b9250929050565b60008083601f8401126153b957600080fd5b8235905067ffffffffffffffff8111156153d257600080fd5b6020830191508360208202830111156153ea57600080fd5b9250929050565b6000813590506154008161726b565b92915050565b6000815190506154158161726b565b92915050565b60008135905061542a81617282565b92915050565b60008151905061543f81617282565b92915050565b600082601f83011261545657600080fd5b813561546684826020860161530a565b91505092915050565b60008135905061547e81617299565b92915050565b600081359050615493816172b0565b92915050565b6000813590506154a8816172c7565b92915050565b6000813590506154bd816172de565b92915050565b6000815190506154d2816172de565b92915050565b6000602082840312156154ea57600080fd5b60006154f884828501615348565b91505092915050565b6000806040838503121561551457600080fd5b600061552285828601615348565b925050602061553385828601615348565b9150509250929050565b60008060006060848603121561555257600080fd5b600061556086828701615348565b935050602061557186828701615348565b9250506040615582868287016154ae565b9150509250925092565b600080600080608085870312156155a257600080fd5b60006155b087828801615348565b94505060206155c187828801615348565b93505060406155d2878288016154ae565b925050606085013567ffffffffffffffff8111156155ef57600080fd5b6155fb87828801615445565b91505092959194509250565b6000806040838503121561561a57600080fd5b600061562885828601615348565b9250506020615639858286016153f1565b9150509250929050565b6000806040838503121561565657600080fd5b600061566485828601615348565b9250506020615675858286016154ae565b9150509250929050565b6000806020838503121561569257600080fd5b600083013567ffffffffffffffff8111156156ac57600080fd5b6156b88582860161535d565b92509250509250929050565b600080602083850312156156d757600080fd5b600083013567ffffffffffffffff8111156156f157600080fd5b6156fd858286016153a7565b92509250509250929050565b60006020828403121561571b57600080fd5b600061572984828501615406565b91505092915050565b60006020828403121561574457600080fd5b60006157528482850161541b565b91505092915050565b60006020828403121561576d57600080fd5b600061577b84828501615430565b91505092915050565b60006020828403121561579657600080fd5b60006157a4848285016154ae565b91505092915050565b6000602082840312156157bf57600080fd5b60006157cd848285016154c3565b91505092915050565b600080600080608085870312156157ec57600080fd5b60006157fa878288016154ae565b945050602061580b87828801615484565b935050604061581c87828801615499565b925050606061582d8782880161546f565b91505092959194509250565b6000806040838503121561584c57600080fd5b600061585a858286016154ae565b925050602061586b858286016154ae565b9150509250929050565b60008060008060008060c0878903121561588e57600080fd5b600061589c89828a016154ae565b96505060206158ad89828a016154ae565b95505060406158be89828a01615499565b94505060606158cf89828a01615348565b93505060806158e089828a016153f1565b92505060a06158f189828a016153f1565b9150509295509295509295565b60008060006060848603121561591357600080fd5b6000615921868287016154ae565b9350506020615932868287016154ae565b9250506040615943868287016154ae565b9150509250925092565b60006159598383615a12565b905092915050565b61596a81616f35565b82525050565b61597981616f35565b82525050565b600061598a82616c70565b6159948185616c9e565b9350836020820285016159a685616c60565b8060005b858110156159e257848403895281516159c3858261594d565b94506159ce83616c91565b925060208a019950506001810190506159aa565b50829750879550505050505092915050565b6159fd81616f47565b82525050565b615a0c81616f53565b82525050565b6000615a1d82616c7b565b615a278185616caf565b9350615a3781856020860161709e565b615a4081617243565b840191505092915050565b6000615a5682616c7b565b615a608185616cc0565b9350615a7081856020860161709e565b615a7981617243565b840191505092915050565b6000615a8f82616c7b565b615a998185616cd1565b9350615aa981856020860161709e565b80840191505092915050565b615abe81617023565b82525050565b615acd81617047565b82525050565b615adc81616fbf565b82525050565b615aeb8161706b565b82525050565b6000615afc82616c86565b615b068185616cdc565b9350615b1681856020860161709e565b615b1f81617243565b840191505092915050565b6000615b3582616c86565b615b3f8185616ced565b9350615b4f81856020860161709e565b80840191505092915050565b6000615b68600b83616cdc565b91507f496e7465676572203c20300000000000000000000000000000000000000000006000830152602082019050919050565b6000615ba8603283616cdc565b91507f4552433732313a207472616e7366657220746f206e6f6e20455243373231526560008301527f63656976657220696d706c656d656e74657200000000000000000000000000006020830152604082019050919050565b6000615c0e602683616cdc565b91507f4f776e61626c653a206e6577206f776e657220697320746865207a65726f206160008301527f64647265737300000000000000000000000000000000000000000000000000006020830152604082019050919050565b6000615c74601c83616cdc565b91507f4552433732313a20746f6b656e20616c7265616479206d696e746564000000006000830152602082019050919050565b6000615cb4602483616cdc565b91507f4552433732313a207472616e7366657220746f20746865207a65726f2061646460008301527f72657373000000000000000000000000000000000000000000000000000000006020830152604082019050919050565b6000615d1a601983616cdc565b91507f4552433732313a20617070726f766520746f2063616c6c6572000000000000006000830152602082019050919050565b6000615d5a602183616cdc565b91507f7468697320746f6b656e2068617320616c7265616479206265656e206164646560008301527f64000000000000000000000000000000000000000000000000000000000000006020830152604082019050919050565b6000615dc0602683616cdc565b91507f416464726573733a20696e73756666696369656e742062616c616e636520666f60008301527f722063616c6c00000000000000000000000000000000000000000000000000006020830152604082019050919050565b6000615e26602c83616cdc565b91507f4552433732313a206f70657261746f7220717565727920666f72206e6f6e657860008301527f697374656e7420746f6b656e00000000000000000000000000000000000000006020830152604082019050919050565b6000615e8c601c83616cdc565b91507f426f72696e674d6174683a2075696e74313238204f766572666c6f77000000006000830152602082019050919050565b6000615ecc603883616cdc565b91507f4552433732313a20617070726f76652063616c6c6572206973206e6f74206f7760008301527f6e6572206e6f7220617070726f76656420666f7220616c6c00000000000000006020830152604082019050919050565b6000615f32602a83616cdc565b91507f4552433732313a2062616c616e636520717565727920666f7220746865207a6560008301527f726f2061646472657373000000000000000000000000000000000000000000006020830152604082019050919050565b6000615f98602983616cdc565b91507f4552433732313a206f776e657220717565727920666f72206e6f6e657869737460008301527f656e7420746f6b656e00000000000000000000000000000000000000000000006020830152604082019050919050565b6000615ffe602083616cdc565b91507f4552433732313a206d696e7420746f20746865207a65726f20616464726573736000830152602082019050919050565b600061603e602c83616cdc565b91507f4552433732313a20617070726f76656420717565727920666f72206e6f6e657860008301527f697374656e7420746f6b656e00000000000000000000000000000000000000006020830152604082019050919050565b60006160a4602083616cdc565b91507f4f776e61626c653a2063616c6c6572206973206e6f7420746865206f776e65726000830152602082019050919050565b60006160e4602983616cdc565b91507f4552433732313a207472616e73666572206f6620746f6b656e2074686174206960008301527f73206e6f74206f776e00000000000000000000000000000000000000000000006020830152604082019050919050565b600061614a602f83616cdc565b91507f4552433732314d657461646174613a2055524920717565727920666f72206e6f60008301527f6e6578697374656e7420746f6b656e00000000000000000000000000000000006020830152604082019050919050565b60006161b0601b83616cdc565b91507f426f72696e674d6174683a2075696e743634204f766572666c6f7700000000006000830152602082019050919050565b60006161f0602183616cdc565b91507f4552433732313a20617070726f76616c20746f2063757272656e74206f776e6560008301527f72000000000000000000000000000000000000000000000000000000000000006020830152604082019050919050565b6000616256602683616cdc565b91507f416464726573733a2064656c65676174652063616c6c20746f206e6f6e2d636f60008301527f6e747261637400000000000000000000000000000000000000000000000000006020830152604082019050919050565b60006162bc603183616cdc565b91507f4552433732313a207472616e736665722063616c6c6572206973206e6f74206f60008301527f776e6572206e6f7220617070726f7665640000000000000000000000000000006020830152604082019050919050565b6000616322601d83616cdc565b91507f416464726573733a2063616c6c20746f206e6f6e2d636f6e74726163740000006000830152602082019050919050565b6000616362602a83616cdc565b91507f5361666545524332303a204552433230206f7065726174696f6e20646964206e60008301527f6f742073756363656564000000000000000000000000000000000000000000006020830152604082019050919050565b60a0820160008201516163d16000850182616423565b5060208201516163e46020850182616485565b5060408201516163f76040850182616485565b50606082015161640a6060850182616450565b50608082015161641d6080850182615961565b50505050565b61642c81616fc9565b82525050565b61643b81616fc9565b82525050565b61644a8161707d565b82525050565b61645981617005565b82525050565b61646881617005565b82525050565b61647f61647a82617005565b61714c565b82525050565b61648e8161700f565b82525050565b61649d8161700f565b82525050565b60006164af8284615a84565b915081905092915050565b60006164c68285615b2a565b91506164d28284615b2a565b91508190509392505050565b60006164ea828561646e565b6020820191506164fa828461646e565b6020820191508190509392505050565b600060208201905061651f6000830184615970565b92915050565b600060608201905061653a6000830186615970565b6165476020830185615970565b616554604083018461645f565b949350505050565b60006080820190506165716000830187615970565b61657e6020830186615970565b61658b604083018561645f565b818103606083015261659d8184615a4b565b905095945050505050565b60006040820190506165bd6000830185615970565b6165ca602083018461645f565b9392505050565b600060208201905081810360008301526165eb818461597f565b905092915050565b600060208201905061660860008301846159f4565b92915050565b60006020820190506166236000830184615a03565b92915050565b600060208201905061663e6000830184615ab5565b92915050565b60006020820190506166596000830184615ac4565b92915050565b600060208201905081810360008301526166798184615af1565b905092915050565b6000602082019050818103600083015261669a81615b5b565b9050919050565b600060208201905081810360008301526166ba81615b9b565b9050919050565b600060208201905081810360008301526166da81615c01565b9050919050565b600060208201905081810360008301526166fa81615c67565b9050919050565b6000602082019050818103600083015261671a81615ca7565b9050919050565b6000602082019050818103600083015261673a81615d0d565b9050919050565b6000602082019050818103600083015261675a81615d4d565b9050919050565b6000602082019050818103600083015261677a81615db3565b9050919050565b6000602082019050818103600083015261679a81615e19565b9050919050565b600060208201905081810360008301526167ba81615e7f565b9050919050565b600060208201905081810360008301526167da81615ebf565b9050919050565b600060208201905081810360008301526167fa81615f25565b9050919050565b6000602082019050818103600083015261681a81615f8b565b9050919050565b6000602082019050818103600083015261683a81615ff1565b9050919050565b6000602082019050818103600083015261685a81616031565b9050919050565b6000602082019050818103600083015261687a81616097565b9050919050565b6000602082019050818103600083015261689a816160d7565b9050919050565b600060208201905081810360008301526168ba8161613d565b9050919050565b600060208201905081810360008301526168da816161a3565b9050919050565b600060208201905081810360008301526168fa816161e3565b9050919050565b6000602082019050818103600083015261691a81616249565b9050919050565b6000602082019050818103600083015261693a816162af565b9050919050565b6000602082019050818103600083015261695a81616315565b9050919050565b6000602082019050818103600083015261697a81616355565b9050919050565b600060a08201905061699660008301846163bb565b92915050565b600060a0820190506169b16000830188616432565b6169be6020830187616494565b6169cb6040830186616494565b6169d8606083018561645f565b6169e56080830184615970565b9695505050505050565b6000602082019050616a04600083018461645f565b92915050565b600060a082019050616a1f600083018861645f565b616a2c6020830187615970565b616a396040830186615970565b616a466060830185615ae2565b616a536080830184615ae2565b9695505050505050565b600060a082019050616a72600083018861645f565b616a7f6020830187615970565b616a8c6040830186615970565b616a996060830185615ae2565b616aa6608083018461645f565b9695505050505050565b600060a082019050616ac5600083018861645f565b616ad26020830187615970565b616adf6040830186615970565b616aec606083018561645f565b616af9608083018461645f565b9695505050505050565b6000608082019050616b18600083018761645f565b616b256020830186615ad3565b616b32604083018561645f565b616b3f60608301846159f4565b95945050505050565b6000604082019050616b5d600083018561645f565b616b6a602083018461645f565b9392505050565b6000606082019050616b866000830186616494565b616b93602083018561645f565b616ba06040830184616441565b949350505050565b60008083356001602003843603038112616bc157600080fd5b80840192508235915067ffffffffffffffff821115616bdf57600080fd5b602083019250600182023603831315616bf757600080fd5b509250929050565b6000604051905081810181811067ffffffffffffffff82111715616c2657616c25617214565b5b8060405250919050565b600067ffffffffffffffff821115616c4b57616c4a617214565b5b601f19601f8301169050602081019050919050565b6000819050602082019050919050565b600081519050919050565b600081519050919050565b600081519050919050565b6000602082019050919050565b600082825260208201905092915050565b600082825260208201905092915050565b600082825260208201905092915050565b600081905092915050565b600082825260208201905092915050565b600081905092915050565b6000616d0382616fbf565b9150616d0e83616fbf565b9250817f7fffffffffffffffffffffffffffffffffffffffffffffffffffffffffffffff03831360008312151615616d4957616d48617187565b5b817f8000000000000000000000000000000000000000000000000000000000000000038312600083121615616d8157616d80617187565b5b828201905092915050565b6000616d9782617005565b9150616da283617005565b9250827fffffffffffffffffffffffffffffffffffffffffffffffffffffffffffffffff03821115616dd757616dd6617187565b5b828201905092915050565b6000616ded82617005565b9150616df883617005565b925082616e0857616e076171b6565b5b828204905092915050565b6000616e1e82617005565b9150616e2983617005565b9250817fffffffffffffffffffffffffffffffffffffffffffffffffffffffffffffffff0483118215151615616e6257616e61617187565b5b828202905092915050565b6000616e7882616fbf565b9150616e8383616fbf565b9250827f800000000000000000000000000000000000000000000000000000000000000001821260008412151615616ebe57616ebd617187565b5b827f7fffffffffffffffffffffffffffffffffffffffffffffffffffffffffffffff018213600084121615616ef657616ef5617187565b5b828203905092915050565b6000616f0c82617005565b9150616f1783617005565b925082821015616f2a57616f29617187565b5b828203905092915050565b6000616f4082616fe5565b9050919050565b60008115159050919050565b6000819050919050565b60007fffffffff0000000000000000000000000000000000000000000000000000000082169050919050565b6000616f9482616f35565b9050919050565b6000616fa682616f35565b9050919050565b6000616fb882616f35565b9050919050565b6000819050919050565b60006fffffffffffffffffffffffffffffffff82169050919050565b600073ffffffffffffffffffffffffffffffffffffffff82169050919050565b6000819050919050565b600067ffffffffffffffff82169050919050565b600061702e82617035565b9050919050565b600061704082616fe5565b9050919050565b600061705282617059565b9050919050565b600061706482616fe5565b9050919050565b600061707682617005565b9050919050565b600061708882616fc9565b9050919050565b82818337600083830152505050565b60005b838110156170bc5780820151818401526020810190506170a1565b838111156170cb576000848401525b50505050565b600060028204905060018216806170e957607f821691505b602082108114156170fd576170fc6171e5565b5b50919050565b600061710e82617005565b91507fffffffffffffffffffffffffffffffffffffffffffffffffffffffffffffffff82141561714157617140617187565b5b600182019050919050565b6000819050919050565b600061716182617005565b915061716c83617005565b92508261717c5761717b6171b6565b5b828206905092915050565b7f4e487b7100000000000000000000000000000000000000000000000000000000600052601160045260246000fd5b7f4e487b7100000000000000000000000000000000000000000000000000000000600052601260045260246000fd5b7f4e487b7100000000000000000000000000000000000000000000000000000000600052602260045260246000fd5b7f4e487b7100000000000000000000000000000000000000000000000000000000600052604160045260246000fd5b6000601f19601f8301169050919050565b61725d81616f35565b811461726857600080fd5b50565b61727481616f47565b811461727f57600080fd5b50565b61728b81616f5d565b811461729657600080fd5b50565b6172a281616f89565b81146172ad57600080fd5b50565b6172b981616f9b565b81146172c457600080fd5b50565b6172d081616fad565b81146172db57600080fd5b50565b6172e781617005565b81146172f257600080fd5b5056fe416464726573733a206c6f772d6c6576656c2064656c65676174652063616c6c206661696c6564a26469706673582212202d10654cad1f777eb625677452e7399ef943c58760c7ee0253881d23f235345764736f6c63430008000033",
  "linkReferences": {},
  "deployedLinkReferences": {}
}