{
  "_format": "hh-sol-artifact-1",
  "contractName": "ERC20ReturnTrueMock",
  "sourceName": "contracts/OZ/mocks/SafeERC20Helper.sol",
  "abi": [
    {
      "inputs": [
        {
          "internalType": "address",
          "name": "owner",
          "type": "address"
        },
        {
          "internalType": "address",
          "name": "",
          "type": "address"
        }
      ],
      "name": "allowance",
      "outputs": [
        {
          "internalType": "uint256",
          "name": "",
          "type": "uint256"
        }
      ],
      "stateMutability": "view",
      "type": "function"
    },
    {
      "inputs": [
        {
          "internalType": "address",
          "name": "",
          "type": "address"
        },
        {
          "internalType": "uint256",
          "name": "",
          "type": "uint256"
        }
      ],
      "name": "approve",
      "outputs": [
        {
          "internalType": "bool",
          "name": "",
          "type": "bool"
        }
      ],
      "stateMutability": "nonpayable",
      "type": "function"
    },
    {
      "inputs": [
        {
          "internalType": "uint256",
          "name": "allowance_",
          "type": "uint256"
        }
      ],
      "name": "setAllowance",
      "outputs": [],
      "stateMutability": "nonpayable",
      "type": "function"
    },
    {
      "inputs": [
        {
          "internalType": "address",
          "name": "",
          "type": "address"
        },
        {
          "internalType": "uint256",
          "name": "",
          "type": "uint256"
        }
      ],
      "name": "transfer",
      "outputs": [
        {
          "internalType": "bool",
          "name": "",
          "type": "bool"
        }
      ],
      "stateMutability": "nonpayable",
      "type": "function"
    },
    {
      "inputs": [
        {
          "internalType": "address",
          "name": "",
          "type": "address"
        },
        {
          "internalType": "address",
          "name": "",
          "type": "address"
        },
        {
          "internalType": "uint256",
          "name": "",
          "type": "uint256"
        }
      ],
      "name": "transferFrom",
      "outputs": [
        {
          "internalType": "bool",
          "name": "",
          "type": "bool"
        }
      ],
      "stateMutability": "nonpayable",
      "type": "function"
    }
  ],
  "bytecode": "0x608060405234801561001057600080fd5b5061042a806100206000396000f3fe608060405234801561001057600080fd5b50600436106100575760003560e01c8063095ea7b31461005c57806323b872dd1461008c5780633ba93f26146100bc578063a9059cbb146100d8578063dd62ed3e14610108575b600080fd5b610076600480360381019061007191906102c5565b610138565b6040516100839190610348565b60405180910390f35b6100a660048036038101906100a19190610276565b61014b565b6040516100b39190610348565b60405180910390f35b6100d660048036038101906100d19190610301565b61015f565b005b6100f260048036038101906100ed91906102c5565b6101ac565b6040516100ff9190610348565b60405180910390f35b610122600480360381019061011d919061023a565b6101bf565b60405161012f9190610363565b60405180910390f35b6000806001819055506001905092915050565b600080600181905550600190509392505050565b8060008061016b610208565b73ffffffffffffffffffffffffffffffffffffffff1673ffffffffffffffffffffffffffffffffffffffff1681526020019081526020016000208190555050565b6000806001819055506001905092915050565b60008060008473ffffffffffffffffffffffffffffffffffffffff1673ffffffffffffffffffffffffffffffffffffffff16815260200190815260200160002054905092915050565b600033905090565b60008135905061021f816103c6565b92915050565b600081359050610234816103dd565b92915050565b6000806040838503121561024d57600080fd5b600061025b85828601610210565b925050602061026c85828601610210565b9150509250929050565b60008060006060848603121561028b57600080fd5b600061029986828701610210565b93505060206102aa86828701610210565b92505060406102bb86828701610225565b9150509250925092565b600080604083850312156102d857600080fd5b60006102e685828601610210565b92505060206102f785828601610225565b9150509250929050565b60006020828403121561031357600080fd5b600061032184828501610225565b91505092915050565b61033381610390565b82525050565b610342816103bc565b82525050565b600060208201905061035d600083018461032a565b92915050565b60006020820190506103786000830184610339565b92915050565b60006103898261039c565b9050919050565b60008115159050919050565b600073ffffffffffffffffffffffffffffffffffffffff82169050919050565b6000819050919050565b6103cf8161037e565b81146103da57600080fd5b50565b6103e6816103bc565b81146103f157600080fd5b5056fea2646970667358221220e7df899be57128b5a1e99f96a72a55e335d34b5872710928d70103f6630c789764736f6c63430008020033",
  "linkReferences": {},
  "deployedLinkReferences": {}
}