{
  "_format": "hh-sol-artifact-1",
  "contractName": "ERC20ReturnFalseMock",
  "sourceName": "contracts/OZ/mocks/SafeERC20Helper.sol",
  "abi": [
    {
      "inputs": [
        {
          "internalType": "address",
          "name": "",
          "type": "address"
        },
        {
          "internalType": "address",
          "name": "",
          "type": "address"
        }
      ],
      "name": "allowance",
      "outputs": [
        {
          "internalType": "uint256",
          "name": "",
          "type": "uint256"
        }
      ],
      "stateMutability": "view",
      "type": "function"
    },
    {
      "inputs": [
        {
          "internalType": "address",
          "name": "",
          "type": "address"
        },
        {
          "internalType": "uint256",
          "name": "",
          "type": "uint256"
        }
      ],
      "name": "approve",
      "outputs": [
        {
          "internalType": "bool",
          "name": "",
          "type": "bool"
        }
      ],
      "stateMutability": "nonpayable",
      "type": "function"
    },
    {
      "inputs": [
        {
          "internalType": "address",
          "name": "",
          "type": "address"
        },
        {
          "internalType": "uint256",
          "name": "",
          "type": "uint256"
        }
      ],
      "name": "transfer",
      "outputs": [
        {
          "internalType": "bool",
          "name": "",
          "type": "bool"
        }
      ],
      "stateMutability": "nonpayable",
      "type": "function"
    },
    {
      "inputs": [
        {
          "internalType": "address",
          "name": "",
          "type": "address"
        },
        {
          "internalType": "address",
          "name": "",
          "type": "address"
        },
        {
          "internalType": "uint256",
          "name": "",
          "type": "uint256"
        }
      ],
      "name": "transferFrom",
      "outputs": [
        {
          "internalType": "bool",
          "name": "",
          "type": "bool"
        }
      ],
      "stateMutability": "nonpayable",
      "type": "function"
    }
  ],
  "bytecode": "0x608060405234801561001057600080fd5b50610356806100206000396000f3fe608060405234801561001057600080fd5b506004361061004c5760003560e01c8063095ea7b31461005157806323b872dd14610081578063a9059cbb146100b1578063dd62ed3e146100e1575b600080fd5b61006b6004803603810190610066919061021a565b610111565b6040516100789190610274565b60405180910390f35b61009b600480360381019061009691906101cb565b610124565b6040516100a89190610274565b60405180910390f35b6100cb60048036038101906100c6919061021a565b610138565b6040516100d89190610274565b60405180910390f35b6100fb60048036038101906100f6919061018f565b61014b565b604051610108919061028f565b60405180910390f35b6000806001819055506000905092915050565b600080600181905550600090509392505050565b6000806001819055506000905092915050565b6000806001541461015b57600080fd5b6000905092915050565b600081359050610174816102f2565b92915050565b60008135905061018981610309565b92915050565b600080604083850312156101a257600080fd5b60006101b085828601610165565b92505060206101c185828601610165565b9150509250929050565b6000806000606084860312156101e057600080fd5b60006101ee86828701610165565b93505060206101ff86828701610165565b92505060406102108682870161017a565b9150509250925092565b6000806040838503121561022d57600080fd5b600061023b85828601610165565b925050602061024c8582860161017a565b9150509250929050565b61025f816102bc565b82525050565b61026e816102e8565b82525050565b60006020820190506102896000830184610256565b92915050565b60006020820190506102a46000830184610265565b92915050565b60006102b5826102c8565b9050919050565b60008115159050919050565b600073ffffffffffffffffffffffffffffffffffffffff82169050919050565b6000819050919050565b6102fb816102aa565b811461030657600080fd5b50565b610312816102e8565b811461031d57600080fd5b5056fea2646970667358221220f911997908dee7089c505c868567c0800a192b2651837e7a8b72c2985566721f64736f6c63430008020033",
  "linkReferences": {},
  "deployedLinkReferences": {}
}