{
  "_format": "hh-sol-artifact-1",
  "contractName": "ERC721Mock",
  "sourceName": "contracts/OZ/mocks/ERC721Mock.sol",
  "abi": [
    {
      "inputs": [
        {
          "internalType": "string",
          "name": "name",
          "type": "string"
        },
        {
          "internalType": "string",
          "name": "symbol",
          "type": "string"
        }
      ],
      "stateMutability": "nonpayable",
      "type": "constructor"
    },
    {
      "anonymous": false,
      "inputs": [
        {
          "indexed": true,
          "internalType": "address",
          "name": "owner",
          "type": "address"
        },
        {
          "indexed": true,
          "internalType": "address",
          "name": "approved",
          "type": "address"
        },
        {
          "indexed": true,
          "internalType": "uint256",
          "name": "tokenId",
          "type": "uint256"
        }
      ],
      "name": "Approval",
      "type": "event"
    },
    {
      "anonymous": false,
      "inputs": [
        {
          "indexed": true,
          "internalType": "address",
          "name": "owner",
          "type": "address"
        },
        {
          "indexed": true,
          "internalType": "address",
          "name": "operator",
          "type": "address"
        },
        {
          "indexed": false,
          "internalType": "bool",
          "name": "approved",
          "type": "bool"
        }
      ],
      "name": "ApprovalForAll",
      "type": "event"
    },
    {
      "anonymous": false,
      "inputs": [
        {
          "indexed": true,
          "internalType": "address",
          "name": "from",
          "type": "address"
        },
        {
          "indexed": true,
          "internalType": "address",
          "name": "to",
          "type": "address"
        },
        {
          "indexed": true,
          "internalType": "uint256",
          "name": "tokenId",
          "type": "uint256"
        }
      ],
      "name": "Transfer",
      "type": "event"
    },
    {
      "inputs": [
        {
          "internalType": "address",
          "name": "to",
          "type": "address"
        },
        {
          "internalType": "uint256",
          "name": "tokenId",
          "type": "uint256"
        }
      ],
      "name": "approve",
      "outputs": [],
      "stateMutability": "nonpayable",
      "type": "function"
    },
    {
      "inputs": [
        {
          "internalType": "address",
          "name": "owner",
          "type": "address"
        }
      ],
      "name": "balanceOf",
      "outputs": [
        {
          "internalType": "uint256",
          "name": "",
          "type": "uint256"
        }
      ],
      "stateMutability": "view",
      "type": "function"
    },
    {
      "inputs": [],
      "name": "baseURI",
      "outputs": [
        {
          "internalType": "string",
          "name": "",
          "type": "string"
        }
      ],
      "stateMutability": "view",
      "type": "function"
    },
    {
      "inputs": [
        {
          "internalType": "uint256",
          "name": "tokenId",
          "type": "uint256"
        }
      ],
      "name": "burn",
      "outputs": [],
      "stateMutability": "nonpayable",
      "type": "function"
    },
    {
      "inputs": [
        {
          "internalType": "uint256",
          "name": "tokenId",
          "type": "uint256"
        }
      ],
      "name": "exists",
      "outputs": [
        {
          "internalType": "bool",
          "name": "",
          "type": "bool"
        }
      ],
      "stateMutability": "view",
      "type": "function"
    },
    {
      "inputs": [
        {
          "internalType": "uint256",
          "name": "tokenId",
          "type": "uint256"
        }
      ],
      "name": "getApproved",
      "outputs": [
        {
          "internalType": "address",
          "name": "",
          "type": "address"
        }
      ],
      "stateMutability": "view",
      "type": "function"
    },
    {
      "inputs": [
        {
          "internalType": "address",
          "name": "owner",
          "type": "address"
        },
        {
          "internalType": "address",
          "name": "operator",
          "type": "address"
        }
      ],
      "name": "isApprovedForAll",
      "outputs": [
        {
          "internalType": "bool",
          "name": "",
          "type": "bool"
        }
      ],
      "stateMutability": "view",
      "type": "function"
    },
    {
      "inputs": [
        {
          "internalType": "address",
          "name": "to",
          "type": "address"
        },
        {
          "internalType": "uint256",
          "name": "tokenId",
          "type": "uint256"
        }
      ],
      "name": "mint",
      "outputs": [],
      "stateMutability": "nonpayable",
      "type": "function"
    },
    {
      "inputs": [],
      "name": "name",
      "outputs": [
        {
          "internalType": "string",
          "name": "",
          "type": "string"
        }
      ],
      "stateMutability": "view",
      "type": "function"
    },
    {
      "inputs": [
        {
          "internalType": "uint256",
          "name": "tokenId",
          "type": "uint256"
        }
      ],
      "name": "ownerOf",
      "outputs": [
        {
          "internalType": "address",
          "name": "",
          "type": "address"
        }
      ],
      "stateMutability": "view",
      "type": "function"
    },
    {
      "inputs": [
        {
          "internalType": "address",
          "name": "to",
          "type": "address"
        },
        {
          "internalType": "uint256",
          "name": "tokenId",
          "type": "uint256"
        },
        {
          "internalType": "bytes",
          "name": "_data",
          "type": "bytes"
        }
      ],
      "name": "safeMint",
      "outputs": [],
      "stateMutability": "nonpayable",
      "type": "function"
    },
    {
      "inputs": [
        {
          "internalType": "address",
          "name": "to",
          "type": "address"
        },
        {
          "internalType": "uint256",
          "name": "tokenId",
          "type": "uint256"
        }
      ],
      "name": "safeMint",
      "outputs": [],
      "stateMutability": "nonpayable",
      "type": "function"
    },
    {
      "inputs": [
        {
          "internalType": "address",
          "name": "from",
          "type": "address"
        },
        {
          "internalType": "address",
          "name": "to",
          "type": "address"
        },
        {
          "internalType": "uint256",
          "name": "tokenId",
          "type": "uint256"
        }
      ],
      "name": "safeTransferFrom",
      "outputs": [],
      "stateMutability": "nonpayable",
      "type": "function"
    },
    {
      "inputs": [
        {
          "internalType": "address",
          "name": "from",
          "type": "address"
        },
        {
          "internalType": "address",
          "name": "to",
          "type": "address"
        },
        {
          "internalType": "uint256",
          "name": "tokenId",
          "type": "uint256"
        },
        {
          "internalType": "bytes",
          "name": "_data",
          "type": "bytes"
        }
      ],
      "name": "safeTransferFrom",
      "outputs": [],
      "stateMutability": "nonpayable",
      "type": "function"
    },
    {
      "inputs": [
        {
          "internalType": "address",
          "name": "operator",
          "type": "address"
        },
        {
          "internalType": "bool",
          "name": "approved",
          "type": "bool"
        }
      ],
      "name": "setApprovalForAll",
      "outputs": [],
      "stateMutability": "nonpayable",
      "type": "function"
    },
    {
      "inputs": [
        {
          "internalType": "bytes4",
          "name": "interfaceId",
          "type": "bytes4"
        }
      ],
      "name": "supportsInterface",
      "outputs": [
        {
          "internalType": "bool",
          "name": "",
          "type": "bool"
        }
      ],
      "stateMutability": "view",
      "type": "function"
    },
    {
      "inputs": [],
      "name": "symbol",
      "outputs": [
        {
          "internalType": "string",
          "name": "",
          "type": "string"
        }
      ],
      "stateMutability": "view",
      "type": "function"
    },
    {
      "inputs": [
        {
          "internalType": "uint256",
          "name": "tokenId",
          "type": "uint256"
        }
      ],
      "name": "tokenURI",
      "outputs": [
        {
          "internalType": "string",
          "name": "",
          "type": "string"
        }
      ],
      "stateMutability": "view",
      "type": "function"
    },
    {
      "inputs": [
        {
          "internalType": "address",
          "name": "from",
          "type": "address"
        },
        {
          "internalType": "address",
          "name": "to",
          "type": "address"
        },
        {
          "internalType": "uint256",
          "name": "tokenId",
          "type": "uint256"
        }
      ],
      "name": "transferFrom",
      "outputs": [],
      "stateMutability": "nonpayable",
      "type": "function"
    }
  ],
  "bytecode": "0x60806040523480156200001157600080fd5b5060405162002d3138038062002d31833981810160405281019062000037919062000197565b818181600090805190602001906200005192919062000075565b5080600190805190602001906200006a92919062000075565b50505050506200037a565b82805462000083906200029f565b90600052602060002090601f016020900481019282620000a75760008555620000f3565b82601f10620000c257805160ff1916838001178555620000f3565b82800160010185558215620000f3579182015b82811115620000f2578251825591602001919060010190620000d5565b5b50905062000102919062000106565b5090565b5b808211156200012157600081600090555060010162000107565b5090565b60006200013c620001368462000233565b6200020a565b9050828152602081018484840111156200015557600080fd5b6200016284828562000269565b509392505050565b600082601f8301126200017c57600080fd5b81516200018e84826020860162000125565b91505092915050565b60008060408385031215620001ab57600080fd5b600083015167ffffffffffffffff811115620001c657600080fd5b620001d4858286016200016a565b925050602083015167ffffffffffffffff811115620001f257600080fd5b62000200858286016200016a565b9150509250929050565b60006200021662000229565b9050620002248282620002d5565b919050565b6000604051905090565b600067ffffffffffffffff8211156200025157620002506200033a565b5b6200025c8262000369565b9050602081019050919050565b60005b83811015620002895780820151818401526020810190506200026c565b8381111562000299576000848401525b50505050565b60006002820490506001821680620002b857607f821691505b60208210811415620002cf57620002ce6200030b565b5b50919050565b620002e08262000369565b810181811067ffffffffffffffff821117156200030257620003016200033a565b5b80604052505050565b7f4e487b7100000000000000000000000000000000000000000000000000000000600052602260045260246000fd5b7f4e487b7100000000000000000000000000000000000000000000000000000000600052604160045260246000fd5b6000601f19601f8301169050919050565b6129a7806200038a6000396000f3fe608060405234801561001057600080fd5b50600436106101215760003560e01c80636352211e116100ad578063a144819411610071578063a144819414610318578063a22cb46514610334578063b88d4fde14610350578063c87b56dd1461036c578063e985e9c51461039c57610121565b80636352211e146102605780636c0360eb1461029057806370a08231146102ae5780638832e6e3146102de57806395d89b41146102fa57610121565b806323b872dd116100f457806323b872dd146101c057806340c10f19146101dc57806342842e0e146101f857806342966c68146102145780634f558e791461023057610121565b806301ffc9a71461012657806306fdde0314610156578063081812fc14610174578063095ea7b3146101a4575b600080fd5b610140600480360381019061013b9190611ba9565b6103cc565b60405161014d9190611f69565b60405180910390f35b61015e6104ae565b60405161016b9190611f84565b60405180910390f35b61018e60048036038101906101899190611bfb565b610540565b60405161019b9190611f02565b60405180910390f35b6101be60048036038101906101b99190611b06565b6105c5565b005b6101da60048036038101906101d59190611a00565b6106dd565b005b6101f660048036038101906101f19190611b06565b61073d565b005b610212600480360381019061020d9190611a00565b61074b565b005b61022e60048036038101906102299190611bfb565b61076b565b005b61024a60048036038101906102459190611bfb565b610777565b6040516102579190611f69565b60405180910390f35b61027a60048036038101906102759190611bfb565b610789565b6040516102879190611f02565b60405180910390f35b61029861083b565b6040516102a59190611f84565b60405180910390f35b6102c860048036038101906102c3919061199b565b61084a565b6040516102d59190612166565b60405180910390f35b6102f860048036038101906102f39190611b42565b610902565b005b610302610912565b60405161030f9190611f84565b60405180910390f35b610332600480360381019061032d9190611b06565b6109a4565b005b61034e60048036038101906103499190611aca565b6109b2565b005b61036a60048036038101906103659190611a4f565b6109c8565b005b61038660048036038101906103819190611bfb565b610a2a565b6040516103939190611f84565b60405180910390f35b6103b660048036038101906103b191906119c4565b610ad1565b6040516103c39190611f69565b60405180910390f35b60007f80ac58cd000000000000000000000000000000000000000000000000000000007bffffffffffffffffffffffffffffffffffffffffffffffffffffffff1916827bffffffffffffffffffffffffffffffffffffffffffffffffffffffff1916148061049757507f5b5e139f000000000000000000000000000000000000000000000000000000007bffffffffffffffffffffffffffffffffffffffffffffffffffffffff1916827bffffffffffffffffffffffffffffffffffffffffffffffffffffffff1916145b806104a757506104a682610b65565b5b9050919050565b6060600080546104bd9061238b565b80601f01602080910402602001604051908101604052809291908181526020018280546104e99061238b565b80156105365780601f1061050b57610100808354040283529160200191610536565b820191906000526020600020905b81548152906001019060200180831161051957829003601f168201915b5050505050905090565b600061054b82610bcf565b61058a576040517f08c379a0000000000000000000000000000000000000000000000000000000008152600401610581906120c6565b60405180910390fd5b6004600083815260200190815260200160002060009054906101000a900473ffffffffffffffffffffffffffffffffffffffff169050919050565b60006105d082610789565b90508073ffffffffffffffffffffffffffffffffffffffff168373ffffffffffffffffffffffffffffffffffffffff161415610641576040517f08c379a000000000000000000000000000000000000000000000000000000000815260040161063890612126565b60405180910390fd5b8073ffffffffffffffffffffffffffffffffffffffff16610660610c3b565b73ffffffffffffffffffffffffffffffffffffffff16148061068f575061068e81610689610c3b565b610ad1565b5b6106ce576040517f08c379a00000000000000000000000000000000000000000000000000000000081526004016106c590612046565b60405180910390fd5b6106d88383610c43565b505050565b6106ee6106e8610c3b565b82610cfc565b61072d576040517f08c379a000000000000000000000000000000000000000000000000000000000815260040161072490612146565b60405180910390fd5b610738838383610dda565b505050565b6107478282611036565b5050565b610766838383604051806020016040528060008152506109c8565b505050565b61077481611204565b50565b600061078282610bcf565b9050919050565b6000806002600084815260200190815260200160002060009054906101000a900473ffffffffffffffffffffffffffffffffffffffff169050600073ffffffffffffffffffffffffffffffffffffffff168173ffffffffffffffffffffffffffffffffffffffff161415610832576040517f08c379a000000000000000000000000000000000000000000000000000000000815260040161082990612086565b60405180910390fd5b80915050919050565b6060610845611315565b905090565b60008073ffffffffffffffffffffffffffffffffffffffff168273ffffffffffffffffffffffffffffffffffffffff1614156108bb576040517f08c379a00000000000000000000000000000000000000000000000000000000081526004016108b290612066565b60405180910390fd5b600360008373ffffffffffffffffffffffffffffffffffffffff1673ffffffffffffffffffffffffffffffffffffffff168152602001908152602001600020549050919050565b61090d83838361132c565b505050565b6060600180546109219061238b565b80601f016020809104026020016040519081016040528092919081815260200182805461094d9061238b565b801561099a5780601f1061096f5761010080835404028352916020019161099a565b820191906000526020600020905b81548152906001019060200180831161097d57829003601f168201915b5050505050905090565b6109ae8282611387565b5050565b6109c46109bd610c3b565b83836113a5565b5050565b6109d96109d3610c3b565b83610cfc565b610a18576040517f08c379a0000000000000000000000000000000000000000000000000000000008152600401610a0f90612146565b60405180910390fd5b610a2484848484611512565b50505050565b6060610a3582610bcf565b610a74576040517f08c379a0000000000000000000000000000000000000000000000000000000008152600401610a6b90612106565b60405180910390fd5b6000610a7e611315565b90506000815111610a9e5760405180602001604052806000815250610ac9565b80610aa88461156e565b604051602001610ab9929190611ede565b6040516020818303038152906040525b915050919050565b6000600560008473ffffffffffffffffffffffffffffffffffffffff1673ffffffffffffffffffffffffffffffffffffffff16815260200190815260200160002060008373ffffffffffffffffffffffffffffffffffffffff1673ffffffffffffffffffffffffffffffffffffffff16815260200190815260200160002060009054906101000a900460ff16905092915050565b60007f01ffc9a7000000000000000000000000000000000000000000000000000000007bffffffffffffffffffffffffffffffffffffffffffffffffffffffff1916827bffffffffffffffffffffffffffffffffffffffffffffffffffffffff1916149050919050565b60008073ffffffffffffffffffffffffffffffffffffffff166002600084815260200190815260200160002060009054906101000a900473ffffffffffffffffffffffffffffffffffffffff1673ffffffffffffffffffffffffffffffffffffffff1614159050919050565b600033905090565b816004600083815260200190815260200160002060006101000a81548173ffffffffffffffffffffffffffffffffffffffff021916908373ffffffffffffffffffffffffffffffffffffffff160217905550808273ffffffffffffffffffffffffffffffffffffffff16610cb683610789565b73ffffffffffffffffffffffffffffffffffffffff167f8c5be1e5ebec7d5bd14f71427d1e84f3dd0314c0f7b2291e5b200ac8c7c3b92560405160405180910390a45050565b6000610d0782610bcf565b610d46576040517f08c379a0000000000000000000000000000000000000000000000000000000008152600401610d3d90612026565b60405180910390fd5b6000610d5183610789565b90508073ffffffffffffffffffffffffffffffffffffffff168473ffffffffffffffffffffffffffffffffffffffff161480610dc057508373ffffffffffffffffffffffffffffffffffffffff16610da884610540565b73ffffffffffffffffffffffffffffffffffffffff16145b80610dd15750610dd08185610ad1565b5b91505092915050565b8273ffffffffffffffffffffffffffffffffffffffff16610dfa82610789565b73ffffffffffffffffffffffffffffffffffffffff1614610e50576040517f08c379a0000000000000000000000000000000000000000000000000000000008152600401610e47906120e6565b60405180910390fd5b600073ffffffffffffffffffffffffffffffffffffffff168273ffffffffffffffffffffffffffffffffffffffff161415610ec0576040517f08c379a0000000000000000000000000000000000000000000000000000000008152600401610eb790611fe6565b60405180910390fd5b610ecb83838361171b565b610ed6600082610c43565b6001600360008573ffffffffffffffffffffffffffffffffffffffff1673ffffffffffffffffffffffffffffffffffffffff1681526020019081526020016000206000828254610f2691906122a1565b925050819055506001600360008473ffffffffffffffffffffffffffffffffffffffff1673ffffffffffffffffffffffffffffffffffffffff1681526020019081526020016000206000828254610f7d919061221a565b92505081905550816002600083815260200190815260200160002060006101000a81548173ffffffffffffffffffffffffffffffffffffffff021916908373ffffffffffffffffffffffffffffffffffffffff160217905550808273ffffffffffffffffffffffffffffffffffffffff168473ffffffffffffffffffffffffffffffffffffffff167fddf252ad1be2c89b69c2b068fc378daa952ba7f163c4a11628f55a4df523b3ef60405160405180910390a4505050565b600073ffffffffffffffffffffffffffffffffffffffff168273ffffffffffffffffffffffffffffffffffffffff1614156110a6576040517f08c379a000000000000000000000000000000000000000000000000000000000815260040161109d906120a6565b60405180910390fd5b6110af81610bcf565b156110ef576040517f08c379a00000000000000000000000000000000000000000000000000000000081526004016110e690611fc6565b60405180910390fd5b6110fb6000838361171b565b6001600360008473ffffffffffffffffffffffffffffffffffffffff1673ffffffffffffffffffffffffffffffffffffffff168152602001908152602001600020600082825461114b919061221a565b92505081905550816002600083815260200190815260200160002060006101000a81548173ffffffffffffffffffffffffffffffffffffffff021916908373ffffffffffffffffffffffffffffffffffffffff160217905550808273ffffffffffffffffffffffffffffffffffffffff16600073ffffffffffffffffffffffffffffffffffffffff167fddf252ad1be2c89b69c2b068fc378daa952ba7f163c4a11628f55a4df523b3ef60405160405180910390a45050565b600061120f82610789565b905061121d8160008461171b565b611228600083610c43565b6001600360008373ffffffffffffffffffffffffffffffffffffffff1673ffffffffffffffffffffffffffffffffffffffff168152602001908152602001600020600082825461127891906122a1565b925050819055506002600083815260200190815260200160002060006101000a81549073ffffffffffffffffffffffffffffffffffffffff021916905581600073ffffffffffffffffffffffffffffffffffffffff168273ffffffffffffffffffffffffffffffffffffffff167fddf252ad1be2c89b69c2b068fc378daa952ba7f163c4a11628f55a4df523b3ef60405160405180910390a45050565b606060405180602001604052806000815250905090565b6113368383611036565b6113436000848484611720565b611382576040517f08c379a000000000000000000000000000000000000000000000000000000000815260040161137990611fa6565b60405180910390fd5b505050565b6113a182826040518060200160405280600081525061132c565b5050565b8173ffffffffffffffffffffffffffffffffffffffff168373ffffffffffffffffffffffffffffffffffffffff161415611414576040517f08c379a000000000000000000000000000000000000000000000000000000000815260040161140b90612006565b60405180910390fd5b80600560008573ffffffffffffffffffffffffffffffffffffffff1673ffffffffffffffffffffffffffffffffffffffff16815260200190815260200160002060008473ffffffffffffffffffffffffffffffffffffffff1673ffffffffffffffffffffffffffffffffffffffff16815260200190815260200160002060006101000a81548160ff0219169083151502179055508173ffffffffffffffffffffffffffffffffffffffff168373ffffffffffffffffffffffffffffffffffffffff167f17307eab39ab6107e8899845ad3d59bd9653f200f220920489ca2b5937696c31836040516115059190611f69565b60405180910390a3505050565b61151d848484610dda565b61152984848484611720565b611568576040517f08c379a000000000000000000000000000000000000000000000000000000000815260040161155f90611fa6565b60405180910390fd5b50505050565b606060008214156115b6576040518060400160405280600181526020017f30000000000000000000000000000000000000000000000000000000000000008152509050611716565b600082905060005b600082146115e85780806115d1906123ee565b915050600a826115e19190612270565b91506115be565b60008167ffffffffffffffff81111561162a577f4e487b7100000000000000000000000000000000000000000000000000000000600052604160045260246000fd5b6040519080825280601f01601f19166020018201604052801561165c5781602001600182028036833780820191505090505b5090505b6000851461170f5760018261167591906122a1565b9150600a856116849190612437565b6030611690919061221a565b60f81b8183815181106116cc577f4e487b7100000000000000000000000000000000000000000000000000000000600052603260045260246000fd5b60200101907effffffffffffffffffffffffffffffffffffffffffffffffffffffffffffff1916908160001a905350600a856117089190612270565b9450611660565b8093505050505b919050565b505050565b60006117418473ffffffffffffffffffffffffffffffffffffffff166118b7565b156118aa578373ffffffffffffffffffffffffffffffffffffffff1663150b7a0261176a610c3b565b8786866040518563ffffffff1660e01b815260040161178c9493929190611f1d565b602060405180830381600087803b1580156117a657600080fd5b505af19250505080156117d757506040513d601f19601f820116820180604052508101906117d49190611bd2565b60015b61185a573d8060008114611807576040519150601f19603f3d011682016040523d82523d6000602084013e61180c565b606091505b50600081511415611852576040517f08c379a000000000000000000000000000000000000000000000000000000000815260040161184990611fa6565b60405180910390fd5b805181602001fd5b63150b7a0260e01b7bffffffffffffffffffffffffffffffffffffffffffffffffffffffff1916817bffffffffffffffffffffffffffffffffffffffffffffffffffffffff1916149150506118af565b600190505b949350505050565b600080823b905060008111915050919050565b60006118dd6118d8846121a6565b612181565b9050828152602081018484840111156118f557600080fd5b611900848285612349565b509392505050565b60008135905061191781612915565b92915050565b60008135905061192c8161292c565b92915050565b60008135905061194181612943565b92915050565b60008151905061195681612943565b92915050565b600082601f83011261196d57600080fd5b813561197d8482602086016118ca565b91505092915050565b6000813590506119958161295a565b92915050565b6000602082840312156119ad57600080fd5b60006119bb84828501611908565b91505092915050565b600080604083850312156119d757600080fd5b60006119e585828601611908565b92505060206119f685828601611908565b9150509250929050565b600080600060608486031215611a1557600080fd5b6000611a2386828701611908565b9350506020611a3486828701611908565b9250506040611a4586828701611986565b9150509250925092565b60008060008060808587031215611a6557600080fd5b6000611a7387828801611908565b9450506020611a8487828801611908565b9350506040611a9587828801611986565b925050606085013567ffffffffffffffff811115611ab257600080fd5b611abe8782880161195c565b91505092959194509250565b60008060408385031215611add57600080fd5b6000611aeb85828601611908565b9250506020611afc8582860161191d565b9150509250929050565b60008060408385031215611b1957600080fd5b6000611b2785828601611908565b9250506020611b3885828601611986565b9150509250929050565b600080600060608486031215611b5757600080fd5b6000611b6586828701611908565b9350506020611b7686828701611986565b925050604084013567ffffffffffffffff811115611b9357600080fd5b611b9f8682870161195c565b9150509250925092565b600060208284031215611bbb57600080fd5b6000611bc984828501611932565b91505092915050565b600060208284031215611be457600080fd5b6000611bf284828501611947565b91505092915050565b600060208284031215611c0d57600080fd5b6000611c1b84828501611986565b91505092915050565b611c2d816122d5565b82525050565b611c3c816122e7565b82525050565b6000611c4d826121d7565b611c5781856121ed565b9350611c67818560208601612358565b611c7081612524565b840191505092915050565b6000611c86826121e2565b611c9081856121fe565b9350611ca0818560208601612358565b611ca981612524565b840191505092915050565b6000611cbf826121e2565b611cc9818561220f565b9350611cd9818560208601612358565b80840191505092915050565b6000611cf26032836121fe565b9150611cfd82612535565b604082019050919050565b6000611d15601c836121fe565b9150611d2082612584565b602082019050919050565b6000611d386024836121fe565b9150611d43826125ad565b604082019050919050565b6000611d5b6019836121fe565b9150611d66826125fc565b602082019050919050565b6000611d7e602c836121fe565b9150611d8982612625565b604082019050919050565b6000611da16038836121fe565b9150611dac82612674565b604082019050919050565b6000611dc4602a836121fe565b9150611dcf826126c3565b604082019050919050565b6000611de76029836121fe565b9150611df282612712565b604082019050919050565b6000611e0a6020836121fe565b9150611e1582612761565b602082019050919050565b6000611e2d602c836121fe565b9150611e388261278a565b604082019050919050565b6000611e506029836121fe565b9150611e5b826127d9565b604082019050919050565b6000611e73602f836121fe565b9150611e7e82612828565b604082019050919050565b6000611e966021836121fe565b9150611ea182612877565b604082019050919050565b6000611eb96031836121fe565b9150611ec4826128c6565b604082019050919050565b611ed88161233f565b82525050565b6000611eea8285611cb4565b9150611ef68284611cb4565b91508190509392505050565b6000602082019050611f176000830184611c24565b92915050565b6000608082019050611f326000830187611c24565b611f3f6020830186611c24565b611f4c6040830185611ecf565b8181036060830152611f5e8184611c42565b905095945050505050565b6000602082019050611f7e6000830184611c33565b92915050565b60006020820190508181036000830152611f9e8184611c7b565b905092915050565b60006020820190508181036000830152611fbf81611ce5565b9050919050565b60006020820190508181036000830152611fdf81611d08565b9050919050565b60006020820190508181036000830152611fff81611d2b565b9050919050565b6000602082019050818103600083015261201f81611d4e565b9050919050565b6000602082019050818103600083015261203f81611d71565b9050919050565b6000602082019050818103600083015261205f81611d94565b9050919050565b6000602082019050818103600083015261207f81611db7565b9050919050565b6000602082019050818103600083015261209f81611dda565b9050919050565b600060208201905081810360008301526120bf81611dfd565b9050919050565b600060208201905081810360008301526120df81611e20565b9050919050565b600060208201905081810360008301526120ff81611e43565b9050919050565b6000602082019050818103600083015261211f81611e66565b9050919050565b6000602082019050818103600083015261213f81611e89565b9050919050565b6000602082019050818103600083015261215f81611eac565b9050919050565b600060208201905061217b6000830184611ecf565b92915050565b600061218b61219c565b905061219782826123bd565b919050565b6000604051905090565b600067ffffffffffffffff8211156121c1576121c06124f5565b5b6121ca82612524565b9050602081019050919050565b600081519050919050565b600081519050919050565b600082825260208201905092915050565b600082825260208201905092915050565b600081905092915050565b60006122258261233f565b91506122308361233f565b9250827fffffffffffffffffffffffffffffffffffffffffffffffffffffffffffffffff0382111561226557612264612468565b5b828201905092915050565b600061227b8261233f565b91506122868361233f565b92508261229657612295612497565b5b828204905092915050565b60006122ac8261233f565b91506122b78361233f565b9250828210156122ca576122c9612468565b5b828203905092915050565b60006122e08261231f565b9050919050565b60008115159050919050565b60007fffffffff0000000000000000000000000000000000000000000000000000000082169050919050565b600073ffffffffffffffffffffffffffffffffffffffff82169050919050565b6000819050919050565b82818337600083830152505050565b60005b8381101561237657808201518184015260208101905061235b565b83811115612385576000848401525b50505050565b600060028204905060018216806123a357607f821691505b602082108114156123b7576123b66124c6565b5b50919050565b6123c682612524565b810181811067ffffffffffffffff821117156123e5576123e46124f5565b5b80604052505050565b60006123f98261233f565b91507fffffffffffffffffffffffffffffffffffffffffffffffffffffffffffffffff82141561242c5761242b612468565b5b600182019050919050565b60006124428261233f565b915061244d8361233f565b92508261245d5761245c612497565b5b828206905092915050565b7f4e487b7100000000000000000000000000000000000000000000000000000000600052601160045260246000fd5b7f4e487b7100000000000000000000000000000000000000000000000000000000600052601260045260246000fd5b7f4e487b7100000000000000000000000000000000000000000000000000000000600052602260045260246000fd5b7f4e487b7100000000000000000000000000000000000000000000000000000000600052604160045260246000fd5b6000601f19601f8301169050919050565b7f4552433732313a207472616e7366657220746f206e6f6e20455243373231526560008201527f63656976657220696d706c656d656e7465720000000000000000000000000000602082015250565b7f4552433732313a20746f6b656e20616c7265616479206d696e74656400000000600082015250565b7f4552433732313a207472616e7366657220746f20746865207a65726f2061646460008201527f7265737300000000000000000000000000000000000000000000000000000000602082015250565b7f4552433732313a20617070726f766520746f2063616c6c657200000000000000600082015250565b7f4552433732313a206f70657261746f7220717565727920666f72206e6f6e657860008201527f697374656e7420746f6b656e0000000000000000000000000000000000000000602082015250565b7f4552433732313a20617070726f76652063616c6c6572206973206e6f74206f7760008201527f6e6572206e6f7220617070726f76656420666f7220616c6c0000000000000000602082015250565b7f4552433732313a2062616c616e636520717565727920666f7220746865207a6560008201527f726f206164647265737300000000000000000000000000000000000000000000602082015250565b7f4552433732313a206f776e657220717565727920666f72206e6f6e657869737460008201527f656e7420746f6b656e0000000000000000000000000000000000000000000000602082015250565b7f4552433732313a206d696e7420746f20746865207a65726f2061646472657373600082015250565b7f4552433732313a20617070726f76656420717565727920666f72206e6f6e657860008201527f697374656e7420746f6b656e0000000000000000000000000000000000000000602082015250565b7f4552433732313a207472616e73666572206f6620746f6b656e2074686174206960008201527f73206e6f74206f776e0000000000000000000000000000000000000000000000602082015250565b7f4552433732314d657461646174613a2055524920717565727920666f72206e6f60008201527f6e6578697374656e7420746f6b656e0000000000000000000000000000000000602082015250565b7f4552433732313a20617070726f76616c20746f2063757272656e74206f776e6560008201527f7200000000000000000000000000000000000000000000000000000000000000602082015250565b7f4552433732313a207472616e736665722063616c6c6572206973206e6f74206f60008201527f776e6572206e6f7220617070726f766564000000000000000000000000000000602082015250565b61291e816122d5565b811461292957600080fd5b50565b612935816122e7565b811461294057600080fd5b50565b61294c816122f3565b811461295757600080fd5b50565b6129638161233f565b811461296e57600080fd5b5056fea26469706673582212205ad93d5ef347cccd8f410a72db8f7d10c09f4d1b4ee1e3379e5fce80367780a064736f6c63430008020033",
  "linkReferences": {},
  "deployedLinkReferences": {}
}