{
  "_format": "hh-sol-artifact-1",
  "contractName": "BitMapMock",
  "sourceName": "contracts/OZ/mocks/BitmapMock.sol",
  "abi": [
    {
      "inputs": [
        {
          "internalType": "uint256",
          "name": "index",
          "type": "uint256"
        }
      ],
      "name": "get",
      "outputs": [
        {
          "internalType": "bool",
          "name": "",
          "type": "bool"
        }
      ],
      "stateMutability": "view",
      "type": "function"
    },
    {
      "inputs": [
        {
          "internalType": "uint256",
          "name": "index",
          "type": "uint256"
        }
      ],
      "name": "set",
      "outputs": [],
      "stateMutability": "nonpayable",
      "type": "function"
    },
    {
      "inputs": [
        {
          "internalType": "uint256",
          "name": "index",
          "type": "uint256"
        },
        {
          "internalType": "bool",
          "name": "value",
          "type": "bool"
        }
      ],
      "name": "setTo",
      "outputs": [],
      "stateMutability": "nonpayable",
      "type": "function"
    },
    {
      "inputs": [
        {
          "internalType": "uint256",
          "name": "index",
          "type": "uint256"
        }
      ],
      "name": "unset",
      "outputs": [],
      "stateMutability": "nonpayable",
      "type": "function"
    }
  ],
  "bytecode": "0x608060405234801561001057600080fd5b5061034b806100206000396000f3fe608060405234801561001057600080fd5b506004361061004c5760003560e01c8063088d22551461005157806360fe47b11461006d5780639507d39a14610089578063dcc9d43c146100b9575b600080fd5b61006b60048036038101906100669190610242565b6100d5565b005b61008760048036038101906100829190610242565b6100ec565b005b6100a3600480360381019061009e9190610242565b610103565b6040516100b091906102b6565b60405180910390f35b6100d360048036038101906100ce919061026b565b610120565b005b6100e981600061013a90919063ffffffff16565b50565b61010081600061017990919063ffffffff16565b50565b60006101198260006101b790919063ffffffff16565b9050919050565b610136828260006101f39092919063ffffffff16565b5050565b6000600882901c9050600060ff83166001901b905080198460000160008481526020019081526020016000206000828254169250508190555050505050565b6000600882901c9050600060ff83166001901b9050808460000160008481526020019081526020016000206000828254179250508190555050505050565b600080600883901c9050600060ff84166001901b9050600081866000016000858152602001908152602001600020541614159250505092915050565b8015610208576102038383610179565b610213565b610212838361013a565b5b505050565b600081359050610227816102e7565b92915050565b60008135905061023c816102fe565b92915050565b60006020828403121561025457600080fd5b60006102628482850161022d565b91505092915050565b6000806040838503121561027e57600080fd5b600061028c8582860161022d565b925050602061029d85828601610218565b9150509250929050565b6102b0816102d1565b82525050565b60006020820190506102cb60008301846102a7565b92915050565b60008115159050919050565b6000819050919050565b6102f0816102d1565b81146102fb57600080fd5b50565b610307816102dd565b811461031257600080fd5b5056fea2646970667358221220fb55c08a2227cb0c7b955c44baafbc536f536379345687561a4ed2677786b44164736f6c63430008020033",
  "linkReferences": {},
  "deployedLinkReferences": {}
}