{
  "_format": "hh-sol-artifact-1",
  "contractName": "MyGovernor2",
  "sourceName": "contracts/OZ/mocks/wizard/MyGovernor2.sol",
  "abi": [
    {
      "inputs": [
        {
          "internalType": "contract ERC20Votes",
          "name": "_token",
          "type": "address"
        },
        {
          "internalType": "contract TimelockController",
          "name": "_timelock",
          "type": "address"
        }
      ],
      "stateMutability": "nonpayable",
      "type": "constructor"
    },
    {
      "anonymous": false,
      "inputs": [
        {
          "indexed": false,
          "internalType": "uint256",
          "name": "proposalId",
          "type": "uint256"
        }
      ],
      "name": "ProposalCanceled",
      "type": "event"
    },
    {
      "anonymous": false,
      "inputs": [
        {
          "indexed": false,
          "internalType": "uint256",
          "name": "proposalId",
          "type": "uint256"
        },
        {
          "indexed": false,
          "internalType": "address",
          "name": "proposer",
          "type": "address"
        },
        {
          "indexed": false,
          "internalType": "address[]",
          "name": "targets",
          "type": "address[]"
        },
        {
          "indexed": false,
          "internalType": "uint256[]",
          "name": "values",
          "type": "uint256[]"
        },
        {
          "indexed": false,
          "internalType": "string[]",
          "name": "signatures",
          "type": "string[]"
        },
        {
          "indexed": false,
          "internalType": "bytes[]",
          "name": "calldatas",
          "type": "bytes[]"
        },
        {
          "indexed": false,
          "internalType": "uint256",
          "name": "startBlock",
          "type": "uint256"
        },
        {
          "indexed": false,
          "internalType": "uint256",
          "name": "endBlock",
          "type": "uint256"
        },
        {
          "indexed": false,
          "internalType": "string",
          "name": "description",
          "type": "string"
        }
      ],
      "name": "ProposalCreated",
      "type": "event"
    },
    {
      "anonymous": false,
      "inputs": [
        {
          "indexed": false,
          "internalType": "uint256",
          "name": "proposalId",
          "type": "uint256"
        }
      ],
      "name": "ProposalExecuted",
      "type": "event"
    },
    {
      "anonymous": false,
      "inputs": [
        {
          "indexed": false,
          "internalType": "uint256",
          "name": "proposalId",
          "type": "uint256"
        },
        {
          "indexed": false,
          "internalType": "uint256",
          "name": "eta",
          "type": "uint256"
        }
      ],
      "name": "ProposalQueued",
      "type": "event"
    },
    {
      "anonymous": false,
      "inputs": [
        {
          "indexed": false,
          "internalType": "uint256",
          "name": "oldQuorumNumerator",
          "type": "uint256"
        },
        {
          "indexed": false,
          "internalType": "uint256",
          "name": "newQuorumNumerator",
          "type": "uint256"
        }
      ],
      "name": "QuorumNumeratorUpdated",
      "type": "event"
    },
    {
      "anonymous": false,
      "inputs": [
        {
          "indexed": false,
          "internalType": "address",
          "name": "oldTimelock",
          "type": "address"
        },
        {
          "indexed": false,
          "internalType": "address",
          "name": "newTimelock",
          "type": "address"
        }
      ],
      "name": "TimelockChange",
      "type": "event"
    },
    {
      "anonymous": false,
      "inputs": [
        {
          "indexed": true,
          "internalType": "address",
          "name": "voter",
          "type": "address"
        },
        {
          "indexed": false,
          "internalType": "uint256",
          "name": "proposalId",
          "type": "uint256"
        },
        {
          "indexed": false,
          "internalType": "uint8",
          "name": "support",
          "type": "uint8"
        },
        {
          "indexed": false,
          "internalType": "uint256",
          "name": "weight",
          "type": "uint256"
        },
        {
          "indexed": false,
          "internalType": "string",
          "name": "reason",
          "type": "string"
        }
      ],
      "name": "VoteCast",
      "type": "event"
    },
    {
      "inputs": [],
      "name": "BALLOT_TYPEHASH",
      "outputs": [
        {
          "internalType": "bytes32",
          "name": "",
          "type": "bytes32"
        }
      ],
      "stateMutability": "view",
      "type": "function"
    },
    {
      "inputs": [],
      "name": "COUNTING_MODE",
      "outputs": [
        {
          "internalType": "string",
          "name": "",
          "type": "string"
        }
      ],
      "stateMutability": "pure",
      "type": "function"
    },
    {
      "inputs": [
        {
          "internalType": "uint256",
          "name": "proposalId",
          "type": "uint256"
        },
        {
          "internalType": "uint8",
          "name": "support",
          "type": "uint8"
        }
      ],
      "name": "castVote",
      "outputs": [
        {
          "internalType": "uint256",
          "name": "",
          "type": "uint256"
        }
      ],
      "stateMutability": "nonpayable",
      "type": "function"
    },
    {
      "inputs": [
        {
          "internalType": "uint256",
          "name": "proposalId",
          "type": "uint256"
        },
        {
          "internalType": "uint8",
          "name": "support",
          "type": "uint8"
        },
        {
          "internalType": "uint8",
          "name": "v",
          "type": "uint8"
        },
        {
          "internalType": "bytes32",
          "name": "r",
          "type": "bytes32"
        },
        {
          "internalType": "bytes32",
          "name": "s",
          "type": "bytes32"
        }
      ],
      "name": "castVoteBySig",
      "outputs": [
        {
          "internalType": "uint256",
          "name": "",
          "type": "uint256"
        }
      ],
      "stateMutability": "nonpayable",
      "type": "function"
    },
    {
      "inputs": [
        {
          "internalType": "uint256",
          "name": "proposalId",
          "type": "uint256"
        },
        {
          "internalType": "uint8",
          "name": "support",
          "type": "uint8"
        },
        {
          "internalType": "string",
          "name": "reason",
          "type": "string"
        }
      ],
      "name": "castVoteWithReason",
      "outputs": [
        {
          "internalType": "uint256",
          "name": "",
          "type": "uint256"
        }
      ],
      "stateMutability": "nonpayable",
      "type": "function"
    },
    {
      "inputs": [
        {
          "internalType": "address[]",
          "name": "targets",
          "type": "address[]"
        },
        {
          "internalType": "uint256[]",
          "name": "values",
          "type": "uint256[]"
        },
        {
          "internalType": "bytes[]",
          "name": "calldatas",
          "type": "bytes[]"
        },
        {
          "internalType": "bytes32",
          "name": "descriptionHash",
          "type": "bytes32"
        }
      ],
      "name": "execute",
      "outputs": [
        {
          "internalType": "uint256",
          "name": "",
          "type": "uint256"
        }
      ],
      "stateMutability": "payable",
      "type": "function"
    },
    {
      "inputs": [
        {
          "internalType": "address",
          "name": "account",
          "type": "address"
        },
        {
          "internalType": "uint256",
          "name": "blockNumber",
          "type": "uint256"
        }
      ],
      "name": "getVotes",
      "outputs": [
        {
          "internalType": "uint256",
          "name": "",
          "type": "uint256"
        }
      ],
      "stateMutability": "view",
      "type": "function"
    },
    {
      "inputs": [
        {
          "internalType": "uint256",
          "name": "proposalId",
          "type": "uint256"
        },
        {
          "internalType": "address",
          "name": "account",
          "type": "address"
        }
      ],
      "name": "hasVoted",
      "outputs": [
        {
          "internalType": "bool",
          "name": "",
          "type": "bool"
        }
      ],
      "stateMutability": "view",
      "type": "function"
    },
    {
      "inputs": [
        {
          "internalType": "address[]",
          "name": "targets",
          "type": "address[]"
        },
        {
          "internalType": "uint256[]",
          "name": "values",
          "type": "uint256[]"
        },
        {
          "internalType": "bytes[]",
          "name": "calldatas",
          "type": "bytes[]"
        },
        {
          "internalType": "bytes32",
          "name": "descriptionHash",
          "type": "bytes32"
        }
      ],
      "name": "hashProposal",
      "outputs": [
        {
          "internalType": "uint256",
          "name": "",
          "type": "uint256"
        }
      ],
      "stateMutability": "pure",
      "type": "function"
    },
    {
      "inputs": [],
      "name": "name",
      "outputs": [
        {
          "internalType": "string",
          "name": "",
          "type": "string"
        }
      ],
      "stateMutability": "view",
      "type": "function"
    },
    {
      "inputs": [
        {
          "internalType": "uint256",
          "name": "proposalId",
          "type": "uint256"
        }
      ],
      "name": "proposalDeadline",
      "outputs": [
        {
          "internalType": "uint256",
          "name": "",
          "type": "uint256"
        }
      ],
      "stateMutability": "view",
      "type": "function"
    },
    {
      "inputs": [
        {
          "internalType": "uint256",
          "name": "proposalId",
          "type": "uint256"
        }
      ],
      "name": "proposalEta",
      "outputs": [
        {
          "internalType": "uint256",
          "name": "",
          "type": "uint256"
        }
      ],
      "stateMutability": "view",
      "type": "function"
    },
    {
      "inputs": [
        {
          "internalType": "uint256",
          "name": "proposalId",
          "type": "uint256"
        }
      ],
      "name": "proposalSnapshot",
      "outputs": [
        {
          "internalType": "uint256",
          "name": "",
          "type": "uint256"
        }
      ],
      "stateMutability": "view",
      "type": "function"
    },
    {
      "inputs": [],
      "name": "proposalThreshold",
      "outputs": [
        {
          "internalType": "uint256",
          "name": "",
          "type": "uint256"
        }
      ],
      "stateMutability": "pure",
      "type": "function"
    },
    {
      "inputs": [
        {
          "internalType": "uint256",
          "name": "proposalId",
          "type": "uint256"
        }
      ],
      "name": "proposalVotes",
      "outputs": [
        {
          "internalType": "uint256",
          "name": "againstVotes",
          "type": "uint256"
        },
        {
          "internalType": "uint256",
          "name": "forVotes",
          "type": "uint256"
        },
        {
          "internalType": "uint256",
          "name": "abstainVotes",
          "type": "uint256"
        }
      ],
      "stateMutability": "view",
      "type": "function"
    },
    {
      "inputs": [
        {
          "internalType": "address[]",
          "name": "targets",
          "type": "address[]"
        },
        {
          "internalType": "uint256[]",
          "name": "values",
          "type": "uint256[]"
        },
        {
          "internalType": "bytes[]",
          "name": "calldatas",
          "type": "bytes[]"
        },
        {
          "internalType": "string",
          "name": "description",
          "type": "string"
        }
      ],
      "name": "propose",
      "outputs": [
        {
          "internalType": "uint256",
          "name": "",
          "type": "uint256"
        }
      ],
      "stateMutability": "nonpayable",
      "type": "function"
    },
    {
      "inputs": [
        {
          "internalType": "address[]",
          "name": "targets",
          "type": "address[]"
        },
        {
          "internalType": "uint256[]",
          "name": "values",
          "type": "uint256[]"
        },
        {
          "internalType": "bytes[]",
          "name": "calldatas",
          "type": "bytes[]"
        },
        {
          "internalType": "bytes32",
          "name": "descriptionHash",
          "type": "bytes32"
        }
      ],
      "name": "queue",
      "outputs": [
        {
          "internalType": "uint256",
          "name": "",
          "type": "uint256"
        }
      ],
      "stateMutability": "nonpayable",
      "type": "function"
    },
    {
      "inputs": [
        {
          "internalType": "uint256",
          "name": "blockNumber",
          "type": "uint256"
        }
      ],
      "name": "quorum",
      "outputs": [
        {
          "internalType": "uint256",
          "name": "",
          "type": "uint256"
        }
      ],
      "stateMutability": "view",
      "type": "function"
    },
    {
      "inputs": [],
      "name": "quorumDenominator",
      "outputs": [
        {
          "internalType": "uint256",
          "name": "",
          "type": "uint256"
        }
      ],
      "stateMutability": "view",
      "type": "function"
    },
    {
      "inputs": [],
      "name": "quorumNumerator",
      "outputs": [
        {
          "internalType": "uint256",
          "name": "",
          "type": "uint256"
        }
      ],
      "stateMutability": "view",
      "type": "function"
    },
    {
      "inputs": [
        {
          "internalType": "address",
          "name": "target",
          "type": "address"
        },
        {
          "internalType": "uint256",
          "name": "value",
          "type": "uint256"
        },
        {
          "internalType": "bytes",
          "name": "data",
          "type": "bytes"
        }
      ],
      "name": "relay",
      "outputs": [],
      "stateMutability": "nonpayable",
      "type": "function"
    },
    {
      "inputs": [
        {
          "internalType": "uint256",
          "name": "proposalId",
          "type": "uint256"
        }
      ],
      "name": "state",
      "outputs": [
        {
          "internalType": "enum IGovernor.ProposalState",
          "name": "",
          "type": "uint8"
        }
      ],
      "stateMutability": "view",
      "type": "function"
    },
    {
      "inputs": [
        {
          "internalType": "bytes4",
          "name": "interfaceId",
          "type": "bytes4"
        }
      ],
      "name": "supportsInterface",
      "outputs": [
        {
          "internalType": "bool",
          "name": "",
          "type": "bool"
        }
      ],
      "stateMutability": "view",
      "type": "function"
    },
    {
      "inputs": [],
      "name": "timelock",
      "outputs": [
        {
          "internalType": "address",
          "name": "",
          "type": "address"
        }
      ],
      "stateMutability": "view",
      "type": "function"
    },
    {
      "inputs": [],
      "name": "token",
      "outputs": [
        {
          "internalType": "contract ERC20Votes",
          "name": "",
          "type": "address"
        }
      ],
      "stateMutability": "view",
      "type": "function"
    },
    {
      "inputs": [
        {
          "internalType": "uint256",
          "name": "newQuorumNumerator",
          "type": "uint256"
        }
      ],
      "name": "updateQuorumNumerator",
      "outputs": [],
      "stateMutability": "nonpayable",
      "type": "function"
    },
    {
      "inputs": [
        {
          "internalType": "contract TimelockController",
          "name": "newTimelock",
          "type": "address"
        }
      ],
      "name": "updateTimelock",
      "outputs": [],
      "stateMutability": "nonpayable",
      "type": "function"
    },
    {
      "inputs": [],
      "name": "version",
      "outputs": [
        {
          "internalType": "string",
          "name": "",
          "type": "string"
        }
      ],
      "stateMutability": "view",
      "type": "function"
    },
    {
      "inputs": [],
      "name": "votingDelay",
      "outputs": [
        {
          "internalType": "uint256",
          "name": "",
          "type": "uint256"
        }
      ],
      "stateMutability": "pure",
      "type": "function"
    },
    {
      "inputs": [],
      "name": "votingPeriod",
      "outputs": [
        {
          "internalType": "uint256",
          "name": "",
          "type": "uint256"
        }
      ],
      "stateMutability": "pure",
      "type": "function"
    },
    {
      "stateMutability": "payable",
      "type": "receive"
    }
  ],
  "bytecode": "0x6101606040523480156200001257600080fd5b50604051620057b6380380620057b683398181016040528101906200003891906200045a565b600482826040518060400160405280600a81526020017f4d79476f7665726e6f72000000000000000000000000000000000000000000008152508062000083620001b760201b60201c565b60008280519060200120905060008280519060200120905060007f8b73c3c69bb8fe3d512ecc4cf759cc79239f7b179b0ffacaa9a75d522b39400f90508260e081815250508161010081815250504660a08181525050620000ec818484620001f460201b60201c565b608081815250503073ffffffffffffffffffffffffffffffffffffffff1660c08173ffffffffffffffffffffffffffffffffffffffff1660601b8152505080610120818152505050505050508060009080519060200190620001509291906200037c565b505062000163816200023060201b60201c565b508073ffffffffffffffffffffffffffffffffffffffff166101408173ffffffffffffffffffffffffffffffffffffffff1660601b8152505050620001ae81620002d160201b60201c565b50505062000771565b60606040518060400160405280600181526020017f3100000000000000000000000000000000000000000000000000000000000000815250905090565b600083838346306040516020016200021195949392919062000522565b6040516020818303038152906040528051906020012090509392505050565b7f08f74ea46ef7894f65eabfb5e6e695de773a000b47c529ab559178069b226401600260009054906101000a900473ffffffffffffffffffffffffffffffffffffffff168260405162000285929190620004f5565b60405180910390a180600260006101000a81548173ffffffffffffffffffffffffffffffffffffffff021916908373ffffffffffffffffffffffffffffffffffffffff16021790555050565b620002e16200037360201b60201c565b81111562000326576040517f08c379a00000000000000000000000000000000000000000000000000000000081526004016200031d906200057f565b60405180910390fd5b60006004549050816004819055507f0553476bf02ef2726e8ce5ced78d63e26e602e4a2257b1f559418e24b4633997818360405162000367929190620005a1565b60405180910390a15050565b60006064905090565b8280546200038a9062000663565b90600052602060002090601f016020900481019282620003ae5760008555620003fa565b82601f10620003c957805160ff1916838001178555620003fa565b82800160010185558215620003fa579182015b82811115620003f9578251825591602001919060010190620003dc565b5b5090506200040991906200040d565b5090565b5b80821115620004285760008160009055506001016200040e565b5090565b6000815190506200043d816200073d565b92915050565b600081519050620004548162000757565b92915050565b600080604083850312156200046e57600080fd5b60006200047e858286016200042c565b9250506020620004918582860162000443565b9150509250929050565b620004a681620005df565b82525050565b620004b78162000607565b82525050565b6000620004cc604383620005ce565b9150620004d982620006c8565b606082019050919050565b620004ef8162000659565b82525050565b60006040820190506200050c60008301856200049b565b6200051b60208301846200049b565b9392505050565b600060a082019050620005396000830188620004ac565b620005486020830187620004ac565b620005576040830186620004ac565b620005666060830185620004e4565b6200057560808301846200049b565b9695505050505050565b600060208201905081810360008301526200059a81620004bd565b9050919050565b6000604082019050620005b86000830185620004e4565b620005c76020830184620004e4565b9392505050565b600082825260208201905092915050565b6000620005ec8262000639565b9050919050565b6000620006008262000639565b9050919050565b6000819050919050565b60006200061e82620005df565b9050919050565b60006200063282620005f3565b9050919050565b600073ffffffffffffffffffffffffffffffffffffffff82169050919050565b6000819050919050565b600060028204905060018216806200067c57607f821691505b6020821081141562000693576200069262000699565b5b50919050565b7f4e487b7100000000000000000000000000000000000000000000000000000000600052602260045260246000fd5b7f476f7665726e6f72566f74657351756f72756d4672616374696f6e3a2071756f60008201527f72756d4e756d657261746f72206f7665722071756f72756d44656e6f6d696e6160208201527f746f720000000000000000000000000000000000000000000000000000000000604082015250565b620007488162000611565b81146200075457600080fd5b50565b620007628162000625565b81146200076e57600080fd5b50565b60805160a05160c05160601c60e05161010051610120516101405160601c614fd6620007e0600039600081816114c401528181611b560152611c1b01526000611ea301526000611ee501526000611ec401526000611df901526000611e4f01526000611e780152614fd66000f3fe6080604052600436106101d15760003560e01c80637d5e81e2116100f7578063c28bc2fa11610095578063deaaa7cc11610064578063deaaa7cc14610765578063eb9019d414610790578063f8ce560a146107cd578063fc0c546a1461080a57610217565b8063c28bc2fa146106a9578063c59057e4146106d2578063d33219b41461070f578063dd4e2ba51461073a57610217565b8063a890c910116100d1578063a890c910146105db578063ab58fb8e14610604578063b58131b014610641578063c01f9e371461066c57610217565b80637d5e81e21461054857806397c3d33414610585578063a7713a70146105b057610217565b80633932abb11161016f578063544ffc9c1161013e578063544ffc9c1461046457806354fd4d50146104a357806356781388146104ce5780637b3c71d31461050b57610217565b80633932abb1146103825780633bccf4fd146103ad5780633e4f49e6146103ea578063438596321461042757610217565b806306fdde03116101ab57806306fdde03146102ad578063160cbed7146102d85780632656227d146103155780632d63f6931461034557610217565b806301ffc9a71461021c57806302a251a31461025957806306f3f9e61461028457610217565b36610217573073ffffffffffffffffffffffffffffffffffffffff166101f5610835565b73ffffffffffffffffffffffffffffffffffffffff161461021557600080fd5b005b600080fd5b34801561022857600080fd5b50610243600480360381019061023e91906133d3565b610844565b6040516102509190613df4565b60405180910390f35b34801561026557600080fd5b5061026e610856565b60405161027b9190614191565b60405180910390f35b34801561029057600080fd5b506102ab60048036038101906102a69190613425565b610860565b005b3480156102b957600080fd5b506102c26108e8565b6040516102cf9190613f2f565b60405180910390f35b3480156102e457600080fd5b506102ff60048036038101906102fa9190613213565b61097a565b60405161030c9190614191565b60405180910390f35b61032f600480360381019061032a9190613213565b610c9e565b60405161033c9190614191565b60405180910390f35b34801561035157600080fd5b5061036c60048036038101906103679190613425565b610e69565b6040516103799190614191565b60405180910390f35b34801561038e57600080fd5b50610397610ed7565b6040516103a49190614191565b60405180910390f35b3480156103b957600080fd5b506103d460048036038101906103cf919061355b565b610ee0565b6040516103e19190614191565b60405180910390f35b3480156103f657600080fd5b50610411600480360381019061040c9190613425565b610f6a565b60405161041e9190613f14565b60405180910390f35b34801561043357600080fd5b5061044e60048036038101906104499190613477565b610f7c565b60405161045b9190613df4565b60405180910390f35b34801561047057600080fd5b5061048b60048036038101906104869190613425565b610fe7565b60405161049a93929190614285565b60405180910390f35b3480156104af57600080fd5b506104b861101f565b6040516104c59190613f2f565b60405180910390f35b3480156104da57600080fd5b506104f560048036038101906104f091906134b3565b61105c565b6040516105029190614191565b60405180910390f35b34801561051757600080fd5b50610532600480360381019061052d91906134ef565b61108d565b60405161053f9190614191565b60405180910390f35b34801561055457600080fd5b5061056f600480360381019061056a91906132be565b6110f5565b60405161057c9190614191565b60405180910390f35b34801561059157600080fd5b5061059a61110d565b6040516105a79190614191565b60405180910390f35b3480156105bc57600080fd5b506105c5611116565b6040516105d29190614191565b60405180910390f35b3480156105e757600080fd5b5061060260048036038101906105fd91906133fc565b611120565b005b34801561061057600080fd5b5061062b60048036038101906106269190613425565b6111a8565b6040516106389190614191565b60405180910390f35b34801561064d57600080fd5b50610656611284565b6040516106639190614191565b60405180910390f35b34801561067857600080fd5b50610693600480360381019061068e9190613425565b611295565b6040516106a09190614191565b60405180910390f35b3480156106b557600080fd5b506106d060048036038101906106cb91906131a7565b611303565b005b3480156106de57600080fd5b506106f960048036038101906106f49190613213565b6113d5565b6040516107069190614191565b60405180910390f35b34801561071b57600080fd5b50610724611411565b6040516107319190613c4f565b60405180910390f35b34801561074657600080fd5b5061074f61143b565b60405161075c9190613f2f565b60405180910390f35b34801561077157600080fd5b5061077a611478565b6040516107879190613e0f565b60405180910390f35b34801561079c57600080fd5b506107b760048036038101906107b2919061316b565b61149c565b6040516107c49190614191565b60405180910390f35b3480156107d957600080fd5b506107f460048036038101906107ef9190613425565b6114b0565b6040516108019190614191565b60405180910390f35b34801561081657600080fd5b5061081f6114c2565b60405161082c9190613ef9565b60405180910390f35b600061083f6114e6565b905090565b600061084f82611510565b9050919050565b600061b2fa905090565b610868610835565b73ffffffffffffffffffffffffffffffffffffffff1661088661158a565b73ffffffffffffffffffffffffffffffffffffffff16146108dc576040517f08c379a00000000000000000000000000000000000000000000000000000000081526004016108d390613f71565b60405180910390fd5b6108e581611592565b50565b6060600080546108f79061482d565b80601f01602080910402602001604051908101604052809291908181526020018280546109239061482d565b80156109705780601f1061094557610100808354040283529160200191610970565b820191906000526020600020905b81548152906001019060200180831161095357829003601f168201915b5050505050905090565b600080610989868686866113d5565b9050600460078111156109c5577f4e487b7100000000000000000000000000000000000000000000000000000000600052602160045260246000fd5b6109ce82610f6a565b6007811115610a06577f4e487b7100000000000000000000000000000000000000000000000000000000600052602160045260246000fd5b14610a46576040517f08c379a0000000000000000000000000000000000000000000000000000000008152600401610a3d906140f1565b60405180910390fd5b6000600260009054906101000a900473ffffffffffffffffffffffffffffffffffffffff1673ffffffffffffffffffffffffffffffffffffffff1663f27a0c926040518163ffffffff1660e01b815260040160206040518083038186803b158015610ab057600080fd5b505afa158015610ac4573d6000803e3d6000fd5b505050506040513d601f19601f82011682018060405250810190610ae8919061344e565b9050600260009054906101000a900473ffffffffffffffffffffffffffffffffffffffff1673ffffffffffffffffffffffffffffffffffffffff1663b1c5f4278888886000896040518663ffffffff1660e01b8152600401610b4e959493929190613d16565b60206040518083038186803b158015610b6657600080fd5b505afa158015610b7a573d6000803e3d6000fd5b505050506040513d601f19601f82011682018060405250810190610b9e91906133aa565b6003600084815260200190815260200160002081905550600260009054906101000a900473ffffffffffffffffffffffffffffffffffffffff1673ffffffffffffffffffffffffffffffffffffffff16638f2a0bb0888888600089876040518763ffffffff1660e01b8152600401610c1b96959493929190613d7e565b600060405180830381600087803b158015610c3557600080fd5b505af1158015610c49573d6000803e3d6000fd5b505050507f9a2e42fd6722813d69113e7d0079d3d940171428df7373df9c7f7617cfda2892828242610c7b9190614556565b604051610c8992919061425c565b60405180910390a18192505050949350505050565b600080610cad868686866113d5565b90506000610cba82610f6a565b905060046007811115610cf6577f4e487b7100000000000000000000000000000000000000000000000000000000600052602160045260246000fd5b816007811115610d2f577f4e487b7100000000000000000000000000000000000000000000000000000000600052602160045260246000fd5b1480610dab575060056007811115610d70577f4e487b7100000000000000000000000000000000000000000000000000000000600052602160045260246000fd5b816007811115610da9577f4e487b7100000000000000000000000000000000000000000000000000000000600052602160045260246000fd5b145b610dea576040517f08c379a0000000000000000000000000000000000000000000000000000000008152600401610de1906140f1565b60405180910390fd5b600180600084815260200190815260200160002060020160006101000a81548160ff0219169083151502179055507f712ae1383f79ac853f8d882153778e0260ef8f03b504e2866e0593e04d2b291f82604051610e479190614191565b60405180910390a1610e5c8288888888611627565b8192505050949350505050565b6000610ec6600160008481526020019081526020016000206000016040518060200160405290816000820160009054906101000a900467ffffffffffffffff1667ffffffffffffffff1667ffffffffffffffff168152505061163b565b67ffffffffffffffff169050919050565b60006001905090565b600080610f41610f397f150214d74d59b7d1e90c73fc22ef3d991dd0a76b046543d4d80ab92d2a50328f8989604051602001610f1e93929190613e7d565b60405160208183030381529060405280519060200120611649565b868686611663565b9050610f5e8782886040518060200160405280600081525061168e565b91505095945050505050565b6000610f758261182e565b9050919050565b60006005600084815260200190815260200160002060030160008373ffffffffffffffffffffffffffffffffffffffff1673ffffffffffffffffffffffffffffffffffffffff16815260200190815260200160002060009054906101000a900460ff16905092915050565b600080600080600560008681526020019081526020016000209050806000015481600101548260020154935093509350509193909250565b60606040518060400160405280600181526020017f3100000000000000000000000000000000000000000000000000000000000000815250905090565b60008061106761158a565b90506110848482856040518060200160405280600081525061168e565b91505092915050565b60008061109861158a565b90506110ea86828787878080601f016020809104026020016040519081016040528093929190818152602001838380828437600081840152601f19601f8201169050808301925050505050505061168e565b915050949350505050565b600061110385858585611a6c565b9050949350505050565b60006064905090565b6000600454905090565b611128610835565b73ffffffffffffffffffffffffffffffffffffffff1661114661158a565b73ffffffffffffffffffffffffffffffffffffffff161461119c576040517f08c379a000000000000000000000000000000000000000000000000000000000815260040161119390613f71565b60405180910390fd5b6111a581611a84565b50565b600080600260009054906101000a900473ffffffffffffffffffffffffffffffffffffffff1673ffffffffffffffffffffffffffffffffffffffff1663d45c443560036000868152602001908152602001600020546040518263ffffffff1660e01b81526004016112199190613e0f565b60206040518083038186803b15801561123157600080fd5b505afa158015611245573d6000803e3d6000fd5b505050506040513d601f19601f82011682018060405250810190611269919061344e565b905060018114611279578061127c565b60005b915050919050565b6000683635c9adc5dea00000905090565b60006112f2600160008481526020019081526020016000206001016040518060200160405290816000820160009054906101000a900467ffffffffffffffff1667ffffffffffffffff1667ffffffffffffffff168152505061163b565b67ffffffffffffffff169050919050565b61130b610835565b73ffffffffffffffffffffffffffffffffffffffff1661132961158a565b73ffffffffffffffffffffffffffffffffffffffff161461137f576040517f08c379a000000000000000000000000000000000000000000000000000000000815260040161137690613f71565b60405180910390fd5b6113ce8483838080601f016020809104026020016040519081016040528093929190818152602001838380828437600081840152601f19601f8201169050808301925050505050505085611b23565b5050505050565b6000848484846040516020016113ee9493929190613cbc565b6040516020818303038152906040528051906020012060001c9050949350505050565b6000600260009054906101000a900473ffffffffffffffffffffffffffffffffffffffff16905090565b60606040518060400160405280602081526020017f737570706f72743d627261766f2671756f72756d3d666f722c6162737461696e815250905090565b7f150214d74d59b7d1e90c73fc22ef3d991dd0a76b046543d4d80ab92d2a50328f81565b60006114a88383611b52565b905092915050565b60006114bb82611c07565b9050919050565b7f000000000000000000000000000000000000000000000000000000000000000081565b6000600260009054906101000a900473ffffffffffffffffffffffffffffffffffffffff16905090565b60007f6e665ced000000000000000000000000000000000000000000000000000000007bffffffffffffffffffffffffffffffffffffffffffffffffffffffff1916827bffffffffffffffffffffffffffffffffffffffffffffffffffffffff19161480611583575061158282611cdd565b5b9050919050565b600033905090565b61159a61110d565b8111156115dc576040517f08c379a00000000000000000000000000000000000000000000000000000000081526004016115d390613f91565b60405180910390fd5b60006004549050816004819055507f0553476bf02ef2726e8ce5ced78d63e26e602e4a2257b1f559418e24b4633997818360405161161b92919061425c565b60405180910390a15050565b6116348585858585611d57565b5050505050565b600081600001519050919050565b600061165c611656611df5565b83611f0f565b9050919050565b600080600061167487878787611f42565b915091506116818161204f565b8192505050949350505050565b600080600160008781526020019081526020016000209050600160078111156116e0577f4e487b7100000000000000000000000000000000000000000000000000000000600052602160045260246000fd5b6116e987610f6a565b6007811115611721577f4e487b7100000000000000000000000000000000000000000000000000000000600052602160045260246000fd5b14611761576040517f08c379a000000000000000000000000000000000000000000000000000000000815260040161175890614071565b60405180910390fd5b60006117bf866117b0846000016040518060200160405290816000820160009054906101000a900467ffffffffffffffff1667ffffffffffffffff1667ffffffffffffffff168152505061163b565b67ffffffffffffffff1661149c565b90506117cd878787846123a0565b8573ffffffffffffffffffffffffffffffffffffffff167fb8e138887d0aa13bab447e82de9d5c1777041ecd21ca36ba824ff1e6c07ddda48887848860405161181994939291906142bc565b60405180910390a28092505050949350505050565b60008061183a83612618565b905060046007811115611876577f4e487b7100000000000000000000000000000000000000000000000000000000600052602160045260246000fd5b8160078111156118af577f4e487b7100000000000000000000000000000000000000000000000000000000600052602160045260246000fd5b146118bd5780915050611a67565b6000600360008581526020019081526020016000205490506000801b8114156118ea578192505050611a67565b600260009054906101000a900473ffffffffffffffffffffffffffffffffffffffff1673ffffffffffffffffffffffffffffffffffffffff16632ab0f529826040518263ffffffff1660e01b81526004016119459190613e0f565b60206040518083038186803b15801561195d57600080fd5b505afa158015611971573d6000803e3d6000fd5b505050506040513d601f19601f820116820180604052508101906119959190613381565b156119a557600792505050611a67565b600260009054906101000a900473ffffffffffffffffffffffffffffffffffffffff1673ffffffffffffffffffffffffffffffffffffffff1663584b153e826040518263ffffffff1660e01b8152600401611a009190613e0f565b60206040518083038186803b158015611a1857600080fd5b505afa158015611a2c573d6000803e3d6000fd5b505050506040513d601f19601f82011682018060405250810190611a509190613381565b15611a6057600592505050611a67565b6002925050505b919050565b6000611a7a8585858561272d565b9050949350505050565b7f08f74ea46ef7894f65eabfb5e6e695de773a000b47c529ab559178069b226401600260009054906101000a900473ffffffffffffffffffffffffffffffffffffffff1682604051611ad7929190613c6a565b60405180910390a180600260006101000a81548173ffffffffffffffffffffffffffffffffffffffff021916908373ffffffffffffffffffffffffffffffffffffffff16021790555050565b6060611b49848484604051806060016040528060298152602001614f7860299139612a53565b90509392505050565b60007f000000000000000000000000000000000000000000000000000000000000000073ffffffffffffffffffffffffffffffffffffffff16633a46b1a884846040518363ffffffff1660e01b8152600401611baf929190613c93565b60206040518083038186803b158015611bc757600080fd5b505afa158015611bdb573d6000803e3d6000fd5b505050506040513d601f19601f82011682018060405250810190611bff919061344e565b905092915050565b6000611c1161110d565b611c19611116565b7f000000000000000000000000000000000000000000000000000000000000000073ffffffffffffffffffffffffffffffffffffffff16638e539e8c856040518263ffffffff1660e01b8152600401611c729190614191565b60206040518083038186803b158015611c8a57600080fd5b505afa158015611c9e573d6000803e3d6000fd5b505050506040513d601f19601f82011682018060405250810190611cc2919061344e565b611ccc919061461b565b611cd691906145ea565b9050919050565b60007fbf26d897000000000000000000000000000000000000000000000000000000007bffffffffffffffffffffffffffffffffffffffffffffffffffffffff1916827bffffffffffffffffffffffffffffffffffffffffffffffffffffffff19161480611d505750611d4f82612b67565b5b9050919050565b600260009054906101000a900473ffffffffffffffffffffffffffffffffffffffff1673ffffffffffffffffffffffffffffffffffffffff1663e38335e5348686866000876040518763ffffffff1660e01b8152600401611dbc959493929190613d16565b6000604051808303818588803b158015611dd557600080fd5b505af1158015611de9573d6000803e3d6000fd5b50505050505050505050565b60007f000000000000000000000000000000000000000000000000000000000000000073ffffffffffffffffffffffffffffffffffffffff163073ffffffffffffffffffffffffffffffffffffffff16148015611e7157507f000000000000000000000000000000000000000000000000000000000000000046145b15611e9e577f00000000000000000000000000000000000000000000000000000000000000009050611f0c565b611f097f00000000000000000000000000000000000000000000000000000000000000007f00000000000000000000000000000000000000000000000000000000000000007f0000000000000000000000000000000000000000000000000000000000000000612bd1565b90505b90565b60008282604051602001611f24929190613c18565b60405160208183030381529060405280519060200120905092915050565b6000807f7fffffffffffffffffffffffffffffff5d576e7357a4501ddfe92f46681b20a08360001c1115611f7d576000600391509150612046565b601b8560ff1614158015611f955750601c8560ff1614155b15611fa7576000600491509150612046565b600060018787878760405160008152602001604052604051611fcc9493929190613eb4565b6020604051602081039080840390855afa158015611fee573d6000803e3d6000fd5b505050602060405103519050600073ffffffffffffffffffffffffffffffffffffffff168173ffffffffffffffffffffffffffffffffffffffff16141561203d57600060019250925050612046565b80600092509250505b94509492505050565b60006004811115612089577f4e487b7100000000000000000000000000000000000000000000000000000000600052602160045260246000fd5b8160048111156120c2577f4e487b7100000000000000000000000000000000000000000000000000000000600052602160045260246000fd5b14156120cd5761239d565b60016004811115612107577f4e487b7100000000000000000000000000000000000000000000000000000000600052602160045260246000fd5b816004811115612140577f4e487b7100000000000000000000000000000000000000000000000000000000600052602160045260246000fd5b1415612181576040517f08c379a000000000000000000000000000000000000000000000000000000000815260040161217890613f51565b60405180910390fd5b600260048111156121bb577f4e487b7100000000000000000000000000000000000000000000000000000000600052602160045260246000fd5b8160048111156121f4577f4e487b7100000000000000000000000000000000000000000000000000000000600052602160045260246000fd5b1415612235576040517f08c379a000000000000000000000000000000000000000000000000000000000815260040161222c90613fd1565b60405180910390fd5b6003600481111561226f577f4e487b7100000000000000000000000000000000000000000000000000000000600052602160045260246000fd5b8160048111156122a8577f4e487b7100000000000000000000000000000000000000000000000000000000600052602160045260246000fd5b14156122e9576040517f08c379a00000000000000000000000000000000000000000000000000000000081526004016122e090614011565b60405180910390fd5b600480811115612322577f4e487b7100000000000000000000000000000000000000000000000000000000600052602160045260246000fd5b81600481111561235b577f4e487b7100000000000000000000000000000000000000000000000000000000600052602160045260246000fd5b141561239c576040517f08c379a0000000000000000000000000000000000000000000000000000000008152600401612393906140b1565b60405180910390fd5b5b50565b60006005600086815260200190815260200160002090508060030160008573ffffffffffffffffffffffffffffffffffffffff1673ffffffffffffffffffffffffffffffffffffffff16815260200190815260200160002060009054906101000a900460ff1615612446576040517f08c379a000000000000000000000000000000000000000000000000000000000815260040161243d90614031565b60405180910390fd5b60018160030160008673ffffffffffffffffffffffffffffffffffffffff1673ffffffffffffffffffffffffffffffffffffffff16815260200190815260200160002060006101000a81548160ff021916908315150217905550600060028111156124da577f4e487b7100000000000000000000000000000000000000000000000000000000600052602160045260246000fd5b60ff168360ff16141561250757818160000160008282546124fb9190614556565b92505081905550612611565b60016002811115612541577f4e487b7100000000000000000000000000000000000000000000000000000000600052602160045260246000fd5b60ff168360ff16141561256e57818160010160008282546125629190614556565b92505081905550612610565b6002808111156125a7577f4e487b7100000000000000000000000000000000000000000000000000000000600052602160045260246000fd5b60ff168360ff1614156125d457818160020160008282546125c89190614556565b9250508190555061260f565b6040517f08c379a000000000000000000000000000000000000000000000000000000000815260040161260690614131565b60405180910390fd5b5b5b5050505050565b6000806001600084815260200190815260200160002090508060020160009054906101000a900460ff1615612651576007915050612728565b8060020160019054906101000a900460ff1615612672576002915050612728565b600061267d84610e69565b905060008114156126c3576040517f08c379a00000000000000000000000000000000000000000000000000000000081526004016126ba90614111565b60405180910390fd5b4381106126d557600092505050612728565b60006126e085611295565b90504381106126f55760019350505050612728565b6126fe85612c0b565b801561270f575061270e85612c52565b5b156127205760049350505050612728565b600393505050505b919050565b6000612737611284565b61274d336001436127489190614675565b61149c565b101561278e576040517f08c379a000000000000000000000000000000000000000000000000000000000815260040161278590613fb1565b60405180910390fd5b60006127a386868686805190602001206113d5565b905084518651146127e9576040517f08c379a00000000000000000000000000000000000000000000000000000000081526004016127e090613ff1565b60405180910390fd5b835186511461282d576040517f08c379a000000000000000000000000000000000000000000000000000000000815260040161282490613ff1565b60405180910390fd5b6000865111612871576040517f08c379a000000000000000000000000000000000000000000000000000000000815260040161286890614091565b60405180910390fd5b60006001600083815260200190815260200160002090506128d1816000016040518060200160405290816000820160009054906101000a900467ffffffffffffffff1667ffffffffffffffff1667ffffffffffffffff1681525050612c7d565b612910576040517f08c379a000000000000000000000000000000000000000000000000000000000815260040161290790614151565b60405180910390fd5b600061292261291d610ed7565b612c97565b61292b43612c97565b61293591906145ac565b90506000612949612944610856565b612c97565b8261295491906145ac565b905061296c8284600001612cee90919063ffffffff16565b6129828184600101612cee90919063ffffffff16565b7f7d84a6263ae0d98d3329bd7b46bb4e8d6f98cd35a7adb45c274c8b7fd5ebd5e0846129ac61158a565b8b8b8d5167ffffffffffffffff8111156129ef577f4e487b7100000000000000000000000000000000000000000000000000000000600052604160045260246000fd5b604051908082528060200260200182016040528015612a2257816020015b6060815260200190600190039081612a0d5790505b508c88888e604051612a3c999897969594939291906141ac565b60405180910390a183945050505050949350505050565b606082471015612a98576040517f08c379a0000000000000000000000000000000000000000000000000000000008152600401612a8f90614051565b60405180910390fd5b612aa185612d1d565b612ae0576040517f08c379a0000000000000000000000000000000000000000000000000000000008152600401612ad790614171565b60405180910390fd5b6000808673ffffffffffffffffffffffffffffffffffffffff168587604051612b099190613c01565b60006040518083038185875af1925050503d8060008114612b46576040519150601f19603f3d011682016040523d82523d6000602084013e612b4b565b606091505b5091509150612b5b828286612d30565b92505050949350505050565b60007f01ffc9a7000000000000000000000000000000000000000000000000000000007bffffffffffffffffffffffffffffffffffffffffffffffffffffffff1916827bffffffffffffffffffffffffffffffffffffffffffffffffffffffff1916149050919050565b60008383834630604051602001612bec959493929190613e2a565b6040516020818303038152906040528051906020012090509392505050565b60008060056000848152602001908152602001600020905080600201548160010154612c379190614556565b612c48612c4385610e69565b6114b0565b1115915050919050565b6000806005600084815260200190815260200160002090508060000154816001015411915050919050565b600080826000015167ffffffffffffffff16149050919050565b600067ffffffffffffffff8016821115612ce6576040517f08c379a0000000000000000000000000000000000000000000000000000000008152600401612cdd906140d1565b60405180910390fd5b819050919050565b808260000160006101000a81548167ffffffffffffffff021916908367ffffffffffffffff1602179055505050565b600080823b905060008111915050919050565b60608315612d4057829050612d90565b600083511115612d535782518084602001fd5b816040517f08c379a0000000000000000000000000000000000000000000000000000000008152600401612d879190613f2f565b60405180910390fd5b9392505050565b6000612daa612da58461432d565b614308565b90508083825260208201905082856020860282011115612dc957600080fd5b60005b85811015612df95781612ddf8882612f48565b845260208401935060208301925050600181019050612dcc565b5050509392505050565b6000612e16612e1184614359565b614308565b9050808382526020820190508260005b85811015612e565781358501612e3c8882613079565b845260208401935060208301925050600181019050612e26565b5050509392505050565b6000612e73612e6e84614385565b614308565b90508083825260208201905082856020860282011115612e9257600080fd5b60005b85811015612ec25781612ea8888261312c565b845260208401935060208301925050600181019050612e95565b5050509392505050565b6000612edf612eda846143b1565b614308565b905082815260208101848484011115612ef757600080fd5b612f028482856147eb565b509392505050565b6000612f1d612f18846143e2565b614308565b905082815260208101848484011115612f3557600080fd5b612f408482856147eb565b509392505050565b600081359050612f5781614ed6565b92915050565b600082601f830112612f6e57600080fd5b8135612f7e848260208601612d97565b91505092915050565b600082601f830112612f9857600080fd5b8135612fa8848260208601612e03565b91505092915050565b600082601f830112612fc257600080fd5b8135612fd2848260208601612e60565b91505092915050565b600081519050612fea81614eed565b92915050565b600081359050612fff81614f04565b92915050565b60008151905061301481614f04565b92915050565b60008135905061302981614f1b565b92915050565b60008083601f84011261304157600080fd5b8235905067ffffffffffffffff81111561305a57600080fd5b60208301915083600182028301111561307257600080fd5b9250929050565b600082601f83011261308a57600080fd5b813561309a848260208601612ecc565b91505092915050565b6000813590506130b281614f32565b92915050565b60008083601f8401126130ca57600080fd5b8235905067ffffffffffffffff8111156130e357600080fd5b6020830191508360018202830111156130fb57600080fd5b9250929050565b600082601f83011261311357600080fd5b8135613123848260208601612f0a565b91505092915050565b60008135905061313b81614f49565b92915050565b60008151905061315081614f49565b92915050565b60008135905061316581614f60565b92915050565b6000806040838503121561317e57600080fd5b600061318c85828601612f48565b925050602061319d8582860161312c565b9150509250929050565b600080600080606085870312156131bd57600080fd5b60006131cb87828801612f48565b94505060206131dc8782880161312c565b935050604085013567ffffffffffffffff8111156131f957600080fd5b6132058782880161302f565b925092505092959194509250565b6000806000806080858703121561322957600080fd5b600085013567ffffffffffffffff81111561324357600080fd5b61324f87828801612f5d565b945050602085013567ffffffffffffffff81111561326c57600080fd5b61327887828801612fb1565b935050604085013567ffffffffffffffff81111561329557600080fd5b6132a187828801612f87565b92505060606132b287828801612ff0565b91505092959194509250565b600080600080608085870312156132d457600080fd5b600085013567ffffffffffffffff8111156132ee57600080fd5b6132fa87828801612f5d565b945050602085013567ffffffffffffffff81111561331757600080fd5b61332387828801612fb1565b935050604085013567ffffffffffffffff81111561334057600080fd5b61334c87828801612f87565b925050606085013567ffffffffffffffff81111561336957600080fd5b61337587828801613102565b91505092959194509250565b60006020828403121561339357600080fd5b60006133a184828501612fdb565b91505092915050565b6000602082840312156133bc57600080fd5b60006133ca84828501613005565b91505092915050565b6000602082840312156133e557600080fd5b60006133f38482850161301a565b91505092915050565b60006020828403121561340e57600080fd5b600061341c848285016130a3565b91505092915050565b60006020828403121561343757600080fd5b60006134458482850161312c565b91505092915050565b60006020828403121561346057600080fd5b600061346e84828501613141565b91505092915050565b6000806040838503121561348a57600080fd5b60006134988582860161312c565b92505060206134a985828601612f48565b9150509250929050565b600080604083850312156134c657600080fd5b60006134d48582860161312c565b92505060206134e585828601613156565b9150509250929050565b6000806000806060858703121561350557600080fd5b60006135138782880161312c565b945050602061352487828801613156565b935050604085013567ffffffffffffffff81111561354157600080fd5b61354d878288016130b8565b925092505092959194509250565b600080600080600060a0868803121561357357600080fd5b60006135818882890161312c565b955050602061359288828901613156565b94505060406135a388828901613156565b93505060606135b488828901612ff0565b92505060806135c588828901612ff0565b9150509295509295909350565b60006135de838361362a565b60208301905092915050565b60006135f68383613823565b905092915050565b600061360a83836138ba565b905092915050565b600061361e8383613bc5565b60208301905092915050565b613633816146a9565b82525050565b613642816146a9565b82525050565b600061365382614453565b61365d81856144c9565b935061366883614413565b8060005b8381101561369957815161368088826135d2565b975061368b83614495565b92505060018101905061366c565b5085935050505092915050565b60006136b18261445e565b6136bb81856144da565b9350836020820285016136cd85614423565b8060005b8581101561370957848403895281516136ea85826135ea565b94506136f5836144a2565b925060208a019950506001810190506136d1565b50829750879550505050505092915050565b600061372682614469565b61373081856144eb565b93508360208202850161374285614433565b8060005b8581101561377e578484038952815161375f85826135fe565b945061376a836144af565b925060208a01995050600181019050613746565b50829750879550505050505092915050565b600061379b82614474565b6137a581856144fc565b93506137b083614443565b8060005b838110156137e15781516137c88882613612565b97506137d3836144bc565b9250506001810190506137b4565b5085935050505092915050565b6137f7816146cd565b82525050565b613806816146d9565b82525050565b61381d613818826146d9565b614890565b82525050565b600061382e8261447f565b613838818561450d565b93506138488185602086016147fa565b61385181614985565b840191505092915050565b60006138678261447f565b613871818561451e565b93506138818185602086016147fa565b80840191505092915050565b61389681614789565b82525050565b6138a5816147ad565b82525050565b6138b4816147bf565b82525050565b60006138c58261448a565b6138cf8185614529565b93506138df8185602086016147fa565b6138e881614985565b840191505092915050565b60006138fe8261448a565b613908818561453a565b93506139188185602086016147fa565b61392181614985565b840191505092915050565b600061393960188361453a565b9150613944826149a3565b602082019050919050565b600061395c60188361453a565b9150613967826149cc565b602082019050919050565b600061397f60438361453a565b915061398a826149f5565b606082019050919050565b60006139a260438361453a565b91506139ad82614a6a565b606082019050919050565b60006139c5601f8361453a565b91506139d082614adf565b602082019050919050565b60006139e860028361454b565b91506139f382614b08565b600282019050919050565b6000613a0b60218361453a565b9150613a1682614b31565b604082019050919050565b6000613a2e60228361453a565b9150613a3982614b80565b604082019050919050565b6000613a5160278361453a565b9150613a5c82614bcf565b604082019050919050565b6000613a7460268361453a565b9150613a7f82614c1e565b604082019050919050565b6000613a9760238361453a565b9150613aa282614c6d565b604082019050919050565b6000613aba60188361453a565b9150613ac582614cbc565b602082019050919050565b6000613add60228361453a565b9150613ae882614ce5565b604082019050919050565b6000613b0060268361453a565b9150613b0b82614d34565b604082019050919050565b6000613b2360218361453a565b9150613b2e82614d83565b604082019050919050565b6000613b46601d8361453a565b9150613b5182614dd2565b602082019050919050565b6000613b6960358361453a565b9150613b7482614dfb565b604082019050919050565b6000613b8c60218361453a565b9150613b9782614e4a565b604082019050919050565b6000613baf601d8361453a565b9150613bba82614e99565b602082019050919050565b613bce8161475e565b82525050565b613bdd8161475e565b82525050565b613bec816147d9565b82525050565b613bfb8161477c565b82525050565b6000613c0d828461385c565b915081905092915050565b6000613c23826139db565b9150613c2f828561380c565b602082019150613c3f828461380c565b6020820191508190509392505050565b6000602082019050613c646000830184613639565b92915050565b6000604082019050613c7f6000830185613639565b613c8c6020830184613639565b9392505050565b6000604082019050613ca86000830185613639565b613cb56020830184613bd4565b9392505050565b60006080820190508181036000830152613cd68187613648565b90508181036020830152613cea8186613790565b90508181036040830152613cfe81856136a6565b9050613d0d60608301846137fd565b95945050505050565b600060a0820190508181036000830152613d308188613648565b90508181036020830152613d448187613790565b90508181036040830152613d5881866136a6565b9050613d6760608301856138ab565b613d7460808301846137fd565b9695505050505050565b600060c0820190508181036000830152613d988189613648565b90508181036020830152613dac8188613790565b90508181036040830152613dc081876136a6565b9050613dcf60608301866138ab565b613ddc60808301856137fd565b613de960a0830184613bd4565b979650505050505050565b6000602082019050613e0960008301846137ee565b92915050565b6000602082019050613e2460008301846137fd565b92915050565b600060a082019050613e3f60008301886137fd565b613e4c60208301876137fd565b613e5960408301866137fd565b613e666060830185613bd4565b613e736080830184613639565b9695505050505050565b6000606082019050613e9260008301866137fd565b613e9f6020830185613bd4565b613eac6040830184613bf2565b949350505050565b6000608082019050613ec960008301876137fd565b613ed66020830186613bf2565b613ee360408301856137fd565b613ef060608301846137fd565b95945050505050565b6000602082019050613f0e600083018461388d565b92915050565b6000602082019050613f29600083018461389c565b92915050565b60006020820190508181036000830152613f4981846138f3565b905092915050565b60006020820190508181036000830152613f6a8161392c565b9050919050565b60006020820190508181036000830152613f8a8161394f565b9050919050565b60006020820190508181036000830152613faa81613972565b9050919050565b60006020820190508181036000830152613fca81613995565b9050919050565b60006020820190508181036000830152613fea816139b8565b9050919050565b6000602082019050818103600083015261400a816139fe565b9050919050565b6000602082019050818103600083015261402a81613a21565b9050919050565b6000602082019050818103600083015261404a81613a44565b9050919050565b6000602082019050818103600083015261406a81613a67565b9050919050565b6000602082019050818103600083015261408a81613a8a565b9050919050565b600060208201905081810360008301526140aa81613aad565b9050919050565b600060208201905081810360008301526140ca81613ad0565b9050919050565b600060208201905081810360008301526140ea81613af3565b9050919050565b6000602082019050818103600083015261410a81613b16565b9050919050565b6000602082019050818103600083015261412a81613b39565b9050919050565b6000602082019050818103600083015261414a81613b5c565b9050919050565b6000602082019050818103600083015261416a81613b7f565b9050919050565b6000602082019050818103600083015261418a81613ba2565b9050919050565b60006020820190506141a66000830184613bd4565b92915050565b6000610120820190506141c2600083018c613bd4565b6141cf602083018b613639565b81810360408301526141e1818a613648565b905081810360608301526141f58189613790565b90508181036080830152614209818861371b565b905081810360a083015261421d81876136a6565b905061422c60c0830186613be3565b61423960e0830185613be3565b81810361010083015261424c81846138f3565b90509a9950505050505050505050565b60006040820190506142716000830185613bd4565b61427e6020830184613bd4565b9392505050565b600060608201905061429a6000830186613bd4565b6142a76020830185613bd4565b6142b46040830184613bd4565b949350505050565b60006080820190506142d16000830187613bd4565b6142de6020830186613bf2565b6142eb6040830185613bd4565b81810360608301526142fd81846138f3565b905095945050505050565b6000614312614323565b905061431e828261485f565b919050565b6000604051905090565b600067ffffffffffffffff82111561434857614347614956565b5b602082029050602081019050919050565b600067ffffffffffffffff82111561437457614373614956565b5b602082029050602081019050919050565b600067ffffffffffffffff8211156143a05761439f614956565b5b602082029050602081019050919050565b600067ffffffffffffffff8211156143cc576143cb614956565b5b6143d582614985565b9050602081019050919050565b600067ffffffffffffffff8211156143fd576143fc614956565b5b61440682614985565b9050602081019050919050565b6000819050602082019050919050565b6000819050602082019050919050565b6000819050602082019050919050565b6000819050602082019050919050565b600081519050919050565b600081519050919050565b600081519050919050565b600081519050919050565b600081519050919050565b600081519050919050565b6000602082019050919050565b6000602082019050919050565b6000602082019050919050565b6000602082019050919050565b600082825260208201905092915050565b600082825260208201905092915050565b600082825260208201905092915050565b600082825260208201905092915050565b600082825260208201905092915050565b600081905092915050565b600082825260208201905092915050565b600082825260208201905092915050565b600081905092915050565b60006145618261475e565b915061456c8361475e565b9250827fffffffffffffffffffffffffffffffffffffffffffffffffffffffffffffffff038211156145a1576145a061489a565b5b828201905092915050565b60006145b782614768565b91506145c283614768565b92508267ffffffffffffffff038211156145df576145de61489a565b5b828201905092915050565b60006145f58261475e565b91506146008361475e565b9250826146105761460f6148c9565b5b828204905092915050565b60006146268261475e565b91506146318361475e565b9250817fffffffffffffffffffffffffffffffffffffffffffffffffffffffffffffffff048311821515161561466a5761466961489a565b5b828202905092915050565b60006146808261475e565b915061468b8361475e565b92508282101561469e5761469d61489a565b5b828203905092915050565b60006146b48261473e565b9050919050565b60006146c68261473e565b9050919050565b60008115159050919050565b6000819050919050565b60007fffffffff0000000000000000000000000000000000000000000000000000000082169050919050565b600061471a826146bb565b9050919050565b600081905061472f82614ec2565b919050565b6000819050919050565b600073ffffffffffffffffffffffffffffffffffffffff82169050919050565b6000819050919050565b600067ffffffffffffffff82169050919050565b600060ff82169050919050565b60006147948261479b565b9050919050565b60006147a68261473e565b9050919050565b60006147b882614721565b9050919050565b60006147d26147cd83614734565b614996565b9050919050565b60006147e482614768565b9050919050565b82818337600083830152505050565b60005b838110156148185780820151818401526020810190506147fd565b83811115614827576000848401525b50505050565b6000600282049050600182168061484557607f821691505b6020821081141561485957614858614927565b5b50919050565b61486882614985565b810181811067ffffffffffffffff8211171561488757614886614956565b5b80604052505050565b6000819050919050565b7f4e487b7100000000000000000000000000000000000000000000000000000000600052601160045260246000fd5b7f4e487b7100000000000000000000000000000000000000000000000000000000600052601260045260246000fd5b7f4e487b7100000000000000000000000000000000000000000000000000000000600052602160045260246000fd5b7f4e487b7100000000000000000000000000000000000000000000000000000000600052602260045260246000fd5b7f4e487b7100000000000000000000000000000000000000000000000000000000600052604160045260246000fd5b6000601f19601f8301169050919050565b60008160001b9050919050565b7f45434453413a20696e76616c6964207369676e61747572650000000000000000600082015250565b7f476f7665726e6f723a206f6e6c79476f7665726e616e63650000000000000000600082015250565b7f476f7665726e6f72566f74657351756f72756d4672616374696f6e3a2071756f60008201527f72756d4e756d657261746f72206f7665722071756f72756d44656e6f6d696e6160208201527f746f720000000000000000000000000000000000000000000000000000000000604082015250565b7f476f7665726e6f72436f6d7061746962696c697479427261766f3a2070726f7060008201527f6f73657220766f7465732062656c6f772070726f706f73616c2074687265736860208201527f6f6c640000000000000000000000000000000000000000000000000000000000604082015250565b7f45434453413a20696e76616c6964207369676e6174757265206c656e67746800600082015250565b7f1901000000000000000000000000000000000000000000000000000000000000600082015250565b7f476f7665726e6f723a20696e76616c69642070726f706f73616c206c656e677460008201527f6800000000000000000000000000000000000000000000000000000000000000602082015250565b7f45434453413a20696e76616c6964207369676e6174757265202773272076616c60008201527f7565000000000000000000000000000000000000000000000000000000000000602082015250565b7f476f7665726e6f72566f74696e6753696d706c653a20766f746520616c72656160008201527f6479206361737400000000000000000000000000000000000000000000000000602082015250565b7f416464726573733a20696e73756666696369656e742062616c616e636520666f60008201527f722063616c6c0000000000000000000000000000000000000000000000000000602082015250565b7f476f7665726e6f723a20766f7465206e6f742063757272656e746c792061637460008201527f6976650000000000000000000000000000000000000000000000000000000000602082015250565b7f476f7665726e6f723a20656d7074792070726f706f73616c0000000000000000600082015250565b7f45434453413a20696e76616c6964207369676e6174757265202776272076616c60008201527f7565000000000000000000000000000000000000000000000000000000000000602082015250565b7f53616665436173743a2076616c756520646f65736e27742066697420696e203660008201527f3420626974730000000000000000000000000000000000000000000000000000602082015250565b7f476f7665726e6f723a2070726f706f73616c206e6f742073756363657373667560008201527f6c00000000000000000000000000000000000000000000000000000000000000602082015250565b7f476f7665726e6f723a20756e6b6e6f776e2070726f706f73616c206964000000600082015250565b7f476f7665726e6f72566f74696e6753696d706c653a20696e76616c696420766160008201527f6c756520666f7220656e756d20566f7465547970650000000000000000000000602082015250565b7f476f7665726e6f723a2070726f706f73616c20616c726561647920657869737460008201527f7300000000000000000000000000000000000000000000000000000000000000602082015250565b7f416464726573733a2063616c6c20746f206e6f6e2d636f6e7472616374000000600082015250565b60088110614ed357614ed26148f8565b5b50565b614edf816146a9565b8114614eea57600080fd5b50565b614ef6816146cd565b8114614f0157600080fd5b50565b614f0d816146d9565b8114614f1857600080fd5b50565b614f24816146e3565b8114614f2f57600080fd5b50565b614f3b8161470f565b8114614f4657600080fd5b50565b614f528161475e565b8114614f5d57600080fd5b50565b614f698161477c565b8114614f7457600080fd5b5056fe416464726573733a206c6f772d6c6576656c2063616c6c20776974682076616c7565206661696c6564a2646970667358221220af64f0d83151539136ea8337bc4f4a42956ead51a9928defd3073aab9ea6533064736f6c63430008020033",
  "linkReferences": {},
  "deployedLinkReferences": {}
}