{
  "_format": "hh-sol-artifact-1",
  "contractName": "MyGovernor",
  "sourceName": "contracts/OZ/mocks/wizard/MyGovernor3.sol",
  "abi": [
    {
      "inputs": [
        {
          "internalType": "contract ERC20Votes",
          "name": "_token",
          "type": "address"
        },
        {
          "internalType": "contract TimelockController",
          "name": "_timelock",
          "type": "address"
        }
      ],
      "stateMutability": "nonpayable",
      "type": "constructor"
    },
    {
      "anonymous": false,
      "inputs": [
        {
          "indexed": false,
          "internalType": "uint256",
          "name": "proposalId",
          "type": "uint256"
        }
      ],
      "name": "ProposalCanceled",
      "type": "event"
    },
    {
      "anonymous": false,
      "inputs": [
        {
          "indexed": false,
          "internalType": "uint256",
          "name": "proposalId",
          "type": "uint256"
        },
        {
          "indexed": false,
          "internalType": "address",
          "name": "proposer",
          "type": "address"
        },
        {
          "indexed": false,
          "internalType": "address[]",
          "name": "targets",
          "type": "address[]"
        },
        {
          "indexed": false,
          "internalType": "uint256[]",
          "name": "values",
          "type": "uint256[]"
        },
        {
          "indexed": false,
          "internalType": "string[]",
          "name": "signatures",
          "type": "string[]"
        },
        {
          "indexed": false,
          "internalType": "bytes[]",
          "name": "calldatas",
          "type": "bytes[]"
        },
        {
          "indexed": false,
          "internalType": "uint256",
          "name": "startBlock",
          "type": "uint256"
        },
        {
          "indexed": false,
          "internalType": "uint256",
          "name": "endBlock",
          "type": "uint256"
        },
        {
          "indexed": false,
          "internalType": "string",
          "name": "description",
          "type": "string"
        }
      ],
      "name": "ProposalCreated",
      "type": "event"
    },
    {
      "anonymous": false,
      "inputs": [
        {
          "indexed": false,
          "internalType": "uint256",
          "name": "proposalId",
          "type": "uint256"
        }
      ],
      "name": "ProposalExecuted",
      "type": "event"
    },
    {
      "anonymous": false,
      "inputs": [
        {
          "indexed": false,
          "internalType": "uint256",
          "name": "proposalId",
          "type": "uint256"
        },
        {
          "indexed": false,
          "internalType": "uint256",
          "name": "eta",
          "type": "uint256"
        }
      ],
      "name": "ProposalQueued",
      "type": "event"
    },
    {
      "anonymous": false,
      "inputs": [
        {
          "indexed": false,
          "internalType": "uint256",
          "name": "oldQuorumNumerator",
          "type": "uint256"
        },
        {
          "indexed": false,
          "internalType": "uint256",
          "name": "newQuorumNumerator",
          "type": "uint256"
        }
      ],
      "name": "QuorumNumeratorUpdated",
      "type": "event"
    },
    {
      "anonymous": false,
      "inputs": [
        {
          "indexed": false,
          "internalType": "address",
          "name": "oldTimelock",
          "type": "address"
        },
        {
          "indexed": false,
          "internalType": "address",
          "name": "newTimelock",
          "type": "address"
        }
      ],
      "name": "TimelockChange",
      "type": "event"
    },
    {
      "anonymous": false,
      "inputs": [
        {
          "indexed": true,
          "internalType": "address",
          "name": "voter",
          "type": "address"
        },
        {
          "indexed": false,
          "internalType": "uint256",
          "name": "proposalId",
          "type": "uint256"
        },
        {
          "indexed": false,
          "internalType": "uint8",
          "name": "support",
          "type": "uint8"
        },
        {
          "indexed": false,
          "internalType": "uint256",
          "name": "weight",
          "type": "uint256"
        },
        {
          "indexed": false,
          "internalType": "string",
          "name": "reason",
          "type": "string"
        }
      ],
      "name": "VoteCast",
      "type": "event"
    },
    {
      "inputs": [],
      "name": "BALLOT_TYPEHASH",
      "outputs": [
        {
          "internalType": "bytes32",
          "name": "",
          "type": "bytes32"
        }
      ],
      "stateMutability": "view",
      "type": "function"
    },
    {
      "inputs": [],
      "name": "COUNTING_MODE",
      "outputs": [
        {
          "internalType": "string",
          "name": "",
          "type": "string"
        }
      ],
      "stateMutability": "pure",
      "type": "function"
    },
    {
      "inputs": [
        {
          "internalType": "uint256",
          "name": "proposalId",
          "type": "uint256"
        }
      ],
      "name": "cancel",
      "outputs": [],
      "stateMutability": "nonpayable",
      "type": "function"
    },
    {
      "inputs": [
        {
          "internalType": "uint256",
          "name": "proposalId",
          "type": "uint256"
        },
        {
          "internalType": "uint8",
          "name": "support",
          "type": "uint8"
        }
      ],
      "name": "castVote",
      "outputs": [
        {
          "internalType": "uint256",
          "name": "",
          "type": "uint256"
        }
      ],
      "stateMutability": "nonpayable",
      "type": "function"
    },
    {
      "inputs": [
        {
          "internalType": "uint256",
          "name": "proposalId",
          "type": "uint256"
        },
        {
          "internalType": "uint8",
          "name": "support",
          "type": "uint8"
        },
        {
          "internalType": "uint8",
          "name": "v",
          "type": "uint8"
        },
        {
          "internalType": "bytes32",
          "name": "r",
          "type": "bytes32"
        },
        {
          "internalType": "bytes32",
          "name": "s",
          "type": "bytes32"
        }
      ],
      "name": "castVoteBySig",
      "outputs": [
        {
          "internalType": "uint256",
          "name": "",
          "type": "uint256"
        }
      ],
      "stateMutability": "nonpayable",
      "type": "function"
    },
    {
      "inputs": [
        {
          "internalType": "uint256",
          "name": "proposalId",
          "type": "uint256"
        },
        {
          "internalType": "uint8",
          "name": "support",
          "type": "uint8"
        },
        {
          "internalType": "string",
          "name": "reason",
          "type": "string"
        }
      ],
      "name": "castVoteWithReason",
      "outputs": [
        {
          "internalType": "uint256",
          "name": "",
          "type": "uint256"
        }
      ],
      "stateMutability": "nonpayable",
      "type": "function"
    },
    {
      "inputs": [
        {
          "internalType": "address[]",
          "name": "targets",
          "type": "address[]"
        },
        {
          "internalType": "uint256[]",
          "name": "values",
          "type": "uint256[]"
        },
        {
          "internalType": "bytes[]",
          "name": "calldatas",
          "type": "bytes[]"
        },
        {
          "internalType": "bytes32",
          "name": "descriptionHash",
          "type": "bytes32"
        }
      ],
      "name": "execute",
      "outputs": [
        {
          "internalType": "uint256",
          "name": "",
          "type": "uint256"
        }
      ],
      "stateMutability": "payable",
      "type": "function"
    },
    {
      "inputs": [
        {
          "internalType": "uint256",
          "name": "proposalId",
          "type": "uint256"
        }
      ],
      "name": "execute",
      "outputs": [],
      "stateMutability": "payable",
      "type": "function"
    },
    {
      "inputs": [
        {
          "internalType": "uint256",
          "name": "proposalId",
          "type": "uint256"
        }
      ],
      "name": "getActions",
      "outputs": [
        {
          "internalType": "address[]",
          "name": "targets",
          "type": "address[]"
        },
        {
          "internalType": "uint256[]",
          "name": "values",
          "type": "uint256[]"
        },
        {
          "internalType": "string[]",
          "name": "signatures",
          "type": "string[]"
        },
        {
          "internalType": "bytes[]",
          "name": "calldatas",
          "type": "bytes[]"
        }
      ],
      "stateMutability": "view",
      "type": "function"
    },
    {
      "inputs": [
        {
          "internalType": "uint256",
          "name": "proposalId",
          "type": "uint256"
        },
        {
          "internalType": "address",
          "name": "voter",
          "type": "address"
        }
      ],
      "name": "getReceipt",
      "outputs": [
        {
          "components": [
            {
              "internalType": "bool",
              "name": "hasVoted",
              "type": "bool"
            },
            {
              "internalType": "uint8",
              "name": "support",
              "type": "uint8"
            },
            {
              "internalType": "uint96",
              "name": "votes",
              "type": "uint96"
            }
          ],
          "internalType": "struct IGovernorCompatibilityBravo.Receipt",
          "name": "",
          "type": "tuple"
        }
      ],
      "stateMutability": "view",
      "type": "function"
    },
    {
      "inputs": [
        {
          "internalType": "address",
          "name": "account",
          "type": "address"
        },
        {
          "internalType": "uint256",
          "name": "blockNumber",
          "type": "uint256"
        }
      ],
      "name": "getVotes",
      "outputs": [
        {
          "internalType": "uint256",
          "name": "",
          "type": "uint256"
        }
      ],
      "stateMutability": "view",
      "type": "function"
    },
    {
      "inputs": [
        {
          "internalType": "uint256",
          "name": "proposalId",
          "type": "uint256"
        },
        {
          "internalType": "address",
          "name": "account",
          "type": "address"
        }
      ],
      "name": "hasVoted",
      "outputs": [
        {
          "internalType": "bool",
          "name": "",
          "type": "bool"
        }
      ],
      "stateMutability": "view",
      "type": "function"
    },
    {
      "inputs": [
        {
          "internalType": "address[]",
          "name": "targets",
          "type": "address[]"
        },
        {
          "internalType": "uint256[]",
          "name": "values",
          "type": "uint256[]"
        },
        {
          "internalType": "bytes[]",
          "name": "calldatas",
          "type": "bytes[]"
        },
        {
          "internalType": "bytes32",
          "name": "descriptionHash",
          "type": "bytes32"
        }
      ],
      "name": "hashProposal",
      "outputs": [
        {
          "internalType": "uint256",
          "name": "",
          "type": "uint256"
        }
      ],
      "stateMutability": "pure",
      "type": "function"
    },
    {
      "inputs": [],
      "name": "name",
      "outputs": [
        {
          "internalType": "string",
          "name": "",
          "type": "string"
        }
      ],
      "stateMutability": "view",
      "type": "function"
    },
    {
      "inputs": [
        {
          "internalType": "uint256",
          "name": "proposalId",
          "type": "uint256"
        }
      ],
      "name": "proposalDeadline",
      "outputs": [
        {
          "internalType": "uint256",
          "name": "",
          "type": "uint256"
        }
      ],
      "stateMutability": "view",
      "type": "function"
    },
    {
      "inputs": [
        {
          "internalType": "uint256",
          "name": "proposalId",
          "type": "uint256"
        }
      ],
      "name": "proposalEta",
      "outputs": [
        {
          "internalType": "uint256",
          "name": "",
          "type": "uint256"
        }
      ],
      "stateMutability": "view",
      "type": "function"
    },
    {
      "inputs": [
        {
          "internalType": "uint256",
          "name": "proposalId",
          "type": "uint256"
        }
      ],
      "name": "proposalSnapshot",
      "outputs": [
        {
          "internalType": "uint256",
          "name": "",
          "type": "uint256"
        }
      ],
      "stateMutability": "view",
      "type": "function"
    },
    {
      "inputs": [],
      "name": "proposalThreshold",
      "outputs": [
        {
          "internalType": "uint256",
          "name": "",
          "type": "uint256"
        }
      ],
      "stateMutability": "pure",
      "type": "function"
    },
    {
      "inputs": [
        {
          "internalType": "uint256",
          "name": "proposalId",
          "type": "uint256"
        }
      ],
      "name": "proposals",
      "outputs": [
        {
          "internalType": "uint256",
          "name": "id",
          "type": "uint256"
        },
        {
          "internalType": "address",
          "name": "proposer",
          "type": "address"
        },
        {
          "internalType": "uint256",
          "name": "eta",
          "type": "uint256"
        },
        {
          "internalType": "uint256",
          "name": "startBlock",
          "type": "uint256"
        },
        {
          "internalType": "uint256",
          "name": "endBlock",
          "type": "uint256"
        },
        {
          "internalType": "uint256",
          "name": "forVotes",
          "type": "uint256"
        },
        {
          "internalType": "uint256",
          "name": "againstVotes",
          "type": "uint256"
        },
        {
          "internalType": "uint256",
          "name": "abstainVotes",
          "type": "uint256"
        },
        {
          "internalType": "bool",
          "name": "canceled",
          "type": "bool"
        },
        {
          "internalType": "bool",
          "name": "executed",
          "type": "bool"
        }
      ],
      "stateMutability": "view",
      "type": "function"
    },
    {
      "inputs": [
        {
          "internalType": "address[]",
          "name": "targets",
          "type": "address[]"
        },
        {
          "internalType": "uint256[]",
          "name": "values",
          "type": "uint256[]"
        },
        {
          "internalType": "bytes[]",
          "name": "calldatas",
          "type": "bytes[]"
        },
        {
          "internalType": "string",
          "name": "description",
          "type": "string"
        }
      ],
      "name": "propose",
      "outputs": [
        {
          "internalType": "uint256",
          "name": "",
          "type": "uint256"
        }
      ],
      "stateMutability": "nonpayable",
      "type": "function"
    },
    {
      "inputs": [
        {
          "internalType": "address[]",
          "name": "targets",
          "type": "address[]"
        },
        {
          "internalType": "uint256[]",
          "name": "values",
          "type": "uint256[]"
        },
        {
          "internalType": "string[]",
          "name": "signatures",
          "type": "string[]"
        },
        {
          "internalType": "bytes[]",
          "name": "calldatas",
          "type": "bytes[]"
        },
        {
          "internalType": "string",
          "name": "description",
          "type": "string"
        }
      ],
      "name": "propose",
      "outputs": [
        {
          "internalType": "uint256",
          "name": "",
          "type": "uint256"
        }
      ],
      "stateMutability": "nonpayable",
      "type": "function"
    },
    {
      "inputs": [
        {
          "internalType": "address[]",
          "name": "targets",
          "type": "address[]"
        },
        {
          "internalType": "uint256[]",
          "name": "values",
          "type": "uint256[]"
        },
        {
          "internalType": "bytes[]",
          "name": "calldatas",
          "type": "bytes[]"
        },
        {
          "internalType": "bytes32",
          "name": "descriptionHash",
          "type": "bytes32"
        }
      ],
      "name": "queue",
      "outputs": [
        {
          "internalType": "uint256",
          "name": "",
          "type": "uint256"
        }
      ],
      "stateMutability": "nonpayable",
      "type": "function"
    },
    {
      "inputs": [
        {
          "internalType": "uint256",
          "name": "proposalId",
          "type": "uint256"
        }
      ],
      "name": "queue",
      "outputs": [],
      "stateMutability": "nonpayable",
      "type": "function"
    },
    {
      "inputs": [
        {
          "internalType": "uint256",
          "name": "blockNumber",
          "type": "uint256"
        }
      ],
      "name": "quorum",
      "outputs": [
        {
          "internalType": "uint256",
          "name": "",
          "type": "uint256"
        }
      ],
      "stateMutability": "view",
      "type": "function"
    },
    {
      "inputs": [],
      "name": "quorumDenominator",
      "outputs": [
        {
          "internalType": "uint256",
          "name": "",
          "type": "uint256"
        }
      ],
      "stateMutability": "view",
      "type": "function"
    },
    {
      "inputs": [],
      "name": "quorumNumerator",
      "outputs": [
        {
          "internalType": "uint256",
          "name": "",
          "type": "uint256"
        }
      ],
      "stateMutability": "view",
      "type": "function"
    },
    {
      "inputs": [],
      "name": "quorumVotes",
      "outputs": [
        {
          "internalType": "uint256",
          "name": "",
          "type": "uint256"
        }
      ],
      "stateMutability": "view",
      "type": "function"
    },
    {
      "inputs": [
        {
          "internalType": "address",
          "name": "target",
          "type": "address"
        },
        {
          "internalType": "uint256",
          "name": "value",
          "type": "uint256"
        },
        {
          "internalType": "bytes",
          "name": "data",
          "type": "bytes"
        }
      ],
      "name": "relay",
      "outputs": [],
      "stateMutability": "nonpayable",
      "type": "function"
    },
    {
      "inputs": [
        {
          "internalType": "uint256",
          "name": "proposalId",
          "type": "uint256"
        }
      ],
      "name": "state",
      "outputs": [
        {
          "internalType": "enum IGovernor.ProposalState",
          "name": "",
          "type": "uint8"
        }
      ],
      "stateMutability": "view",
      "type": "function"
    },
    {
      "inputs": [
        {
          "internalType": "bytes4",
          "name": "interfaceId",
          "type": "bytes4"
        }
      ],
      "name": "supportsInterface",
      "outputs": [
        {
          "internalType": "bool",
          "name": "",
          "type": "bool"
        }
      ],
      "stateMutability": "view",
      "type": "function"
    },
    {
      "inputs": [],
      "name": "timelock",
      "outputs": [
        {
          "internalType": "address",
          "name": "",
          "type": "address"
        }
      ],
      "stateMutability": "view",
      "type": "function"
    },
    {
      "inputs": [],
      "name": "token",
      "outputs": [
        {
          "internalType": "contract ERC20Votes",
          "name": "",
          "type": "address"
        }
      ],
      "stateMutability": "view",
      "type": "function"
    },
    {
      "inputs": [
        {
          "internalType": "uint256",
          "name": "newQuorumNumerator",
          "type": "uint256"
        }
      ],
      "name": "updateQuorumNumerator",
      "outputs": [],
      "stateMutability": "nonpayable",
      "type": "function"
    },
    {
      "inputs": [
        {
          "internalType": "contract TimelockController",
          "name": "newTimelock",
          "type": "address"
        }
      ],
      "name": "updateTimelock",
      "outputs": [],
      "stateMutability": "nonpayable",
      "type": "function"
    },
    {
      "inputs": [],
      "name": "version",
      "outputs": [
        {
          "internalType": "string",
          "name": "",
          "type": "string"
        }
      ],
      "stateMutability": "view",
      "type": "function"
    },
    {
      "inputs": [],
      "name": "votingDelay",
      "outputs": [
        {
          "internalType": "uint256",
          "name": "",
          "type": "uint256"
        }
      ],
      "stateMutability": "pure",
      "type": "function"
    },
    {
      "inputs": [],
      "name": "votingPeriod",
      "outputs": [
        {
          "internalType": "uint256",
          "name": "",
          "type": "uint256"
        }
      ],
      "stateMutability": "pure",
      "type": "function"
    },
    {
      "stateMutability": "payable",
      "type": "receive"
    }
  ],
  "bytecode": "0x6101606040523480156200001257600080fd5b50604051620078c0380380620078c083398181016040528101906200003891906200045a565b600482826040518060400160405280600a81526020017f4d79476f7665726e6f72000000000000000000000000000000000000000000008152508062000083620001b760201b60201c565b60008280519060200120905060008280519060200120905060007f8b73c3c69bb8fe3d512ecc4cf759cc79239f7b179b0ffacaa9a75d522b39400f90508260e081815250508161010081815250504660a08181525050620000ec818484620001f460201b60201c565b608081815250503073ffffffffffffffffffffffffffffffffffffffff1660c08173ffffffffffffffffffffffffffffffffffffffff1660601b8152505080610120818152505050505050508060009080519060200190620001509291906200037c565b505062000163816200023060201b60201c565b508073ffffffffffffffffffffffffffffffffffffffff166101408173ffffffffffffffffffffffffffffffffffffffff1660601b8152505050620001ae81620002d160201b60201c565b50505062000771565b60606040518060400160405280600181526020017f3100000000000000000000000000000000000000000000000000000000000000815250905090565b600083838346306040516020016200021195949392919062000522565b6040516020818303038152906040528051906020012090509392505050565b7f08f74ea46ef7894f65eabfb5e6e695de773a000b47c529ab559178069b226401600260009054906101000a900473ffffffffffffffffffffffffffffffffffffffff168260405162000285929190620004f5565b60405180910390a180600260006101000a81548173ffffffffffffffffffffffffffffffffffffffff021916908373ffffffffffffffffffffffffffffffffffffffff16021790555050565b620002e16200037360201b60201c565b81111562000326576040517f08c379a00000000000000000000000000000000000000000000000000000000081526004016200031d906200057f565b60405180910390fd5b60006005549050816005819055507f0553476bf02ef2726e8ce5ced78d63e26e602e4a2257b1f559418e24b4633997818360405162000367929190620005a1565b60405180910390a15050565b60006064905090565b8280546200038a9062000663565b90600052602060002090601f016020900481019282620003ae5760008555620003fa565b82601f10620003c957805160ff1916838001178555620003fa565b82800160010185558215620003fa579182015b82811115620003f9578251825591602001919060010190620003dc565b5b5090506200040991906200040d565b5090565b5b80821115620004285760008160009055506001016200040e565b5090565b6000815190506200043d816200073d565b92915050565b600081519050620004548162000757565b92915050565b600080604083850312156200046e57600080fd5b60006200047e858286016200042c565b9250506020620004918582860162000443565b9150509250929050565b620004a681620005df565b82525050565b620004b78162000607565b82525050565b6000620004cc604383620005ce565b9150620004d982620006c8565b606082019050919050565b620004ef8162000659565b82525050565b60006040820190506200050c60008301856200049b565b6200051b60208301846200049b565b9392505050565b600060a082019050620005396000830188620004ac565b620005486020830187620004ac565b620005576040830186620004ac565b620005666060830185620004e4565b6200057560808301846200049b565b9695505050505050565b600060208201905081810360008301526200059a81620004bd565b9050919050565b6000604082019050620005b86000830185620004e4565b620005c76020830184620004e4565b9392505050565b600082825260208201905092915050565b6000620005ec8262000639565b9050919050565b6000620006008262000639565b9050919050565b6000819050919050565b60006200061e82620005df565b9050919050565b60006200063282620005f3565b9050919050565b600073ffffffffffffffffffffffffffffffffffffffff82169050919050565b6000819050919050565b600060028204905060018216806200067c57607f821691505b6020821081141562000693576200069262000699565b5b50919050565b7f4e487b7100000000000000000000000000000000000000000000000000000000600052602260045260246000fd5b7f476f7665726e6f72566f74657351756f72756d4672616374696f6e3a2071756f60008201527f72756d4e756d657261746f72206f7665722071756f72756d44656e6f6d696e6160208201527f746f720000000000000000000000000000000000000000000000000000000000604082015250565b620007488162000611565b81146200075457600080fd5b50565b620007628162000625565b81146200076e57600080fd5b50565b60805160a05160c05160601c60e05161010051610120516101405160601c6170e0620007e06000396000818161220401528181612f6e0152613033015260006132bb015260006132fd015260006132dc01526000613211015260006132670152600061329001526170e06000f3fe60806040526004361061021e5760003560e01c80637d5e81e211610123578063d33219b4116100ab578063e23a9a521161006f578063e23a9a52146108de578063eb9019d41461091b578063f8ce560a14610958578063fc0c546a14610995578063fe0d94c1146109c057610264565b8063d33219b4146107f7578063da95691a14610822578063dd4e2ba51461085f578063ddf0b0091461088a578063deaaa7cc146108b357610264565b8063ab58fb8e116100f2578063ab58fb8e146106ec578063b58131b014610729578063c01f9e3714610754578063c28bc2fa14610791578063c59057e4146107ba57610264565b80637d5e81e21461063057806397c3d3341461066d578063a7713a7014610698578063a890c910146106c357610264565b8063328dd982116101a657806340e58ee51161017557806340e58ee514610525578063438596321461054e57806354fd4d501461058b57806356781388146105b65780637b3c71d3146105f357610264565b8063328dd982146104405780633932abb1146104805780633bccf4fd146104ab5780633e4f49e6146104e857610264565b806306fdde03116101ed57806306fdde0314610340578063160cbed71461036b57806324bc1a64146103a85780632656227d146103d35780632d63f6931461040357610264565b8063013cf08b1461026957806301ffc9a7146102af57806302a251a3146102ec57806306f3f9e61461031757610264565b36610264573073ffffffffffffffffffffffffffffffffffffffff166102426109dc565b73ffffffffffffffffffffffffffffffffffffffff161461026257600080fd5b005b600080fd5b34801561027557600080fd5b50610290600480360381019061028b919061510e565b6109eb565b6040516102a69a9998979695949392919061619c565b60405180910390f35b3480156102bb57600080fd5b506102d660048036038101906102d191906150bc565b610b78565b6040516102e39190615c97565b60405180910390f35b3480156102f857600080fd5b50610301610b8a565b60405161030e91906160d1565b60405180910390f35b34801561032357600080fd5b5061033e6004803603810190610339919061510e565b610b94565b005b34801561034c57600080fd5b50610355610c1c565b6040516103629190615df4565b60405180910390f35b34801561037757600080fd5b50610392600480360381019061038d9190614e0d565b610cae565b60405161039f91906160d1565b60405180910390f35b3480156103b457600080fd5b506103bd610fd2565b6040516103ca91906160d1565b60405180910390f35b6103ed60048036038101906103e89190614e0d565b610fee565b6040516103fa91906160d1565b60405180910390f35b34801561040f57600080fd5b5061042a6004803603810190610425919061510e565b6111b9565b60405161043791906160d1565b60405180910390f35b34801561044c57600080fd5b506104676004803603810190610462919061510e565b611227565b6040516104779493929190615c36565b60405180910390f35b34801561048c57600080fd5b506104956114e4565b6040516104a291906160d1565b60405180910390f35b3480156104b757600080fd5b506104d260048036038101906104cd9190615244565b6114ed565b6040516104df91906160d1565b60405180910390f35b3480156104f457600080fd5b5061050f600480360381019061050a919061510e565b611577565b60405161051c9190615dd9565b60405180910390f35b34801561053157600080fd5b5061054c6004803603810190610547919061510e565b611589565b005b34801561055a57600080fd5b5061057560048036038101906105709190615160565b611921565b6040516105829190615c97565b60405180910390f35b34801561059757600080fd5b506105a061198f565b6040516105ad9190615df4565b60405180910390f35b3480156105c257600080fd5b506105dd60048036038101906105d8919061519c565b6119cc565b6040516105ea91906160d1565b60405180910390f35b3480156105ff57600080fd5b5061061a600480360381019061061591906151d8565b6119fd565b60405161062791906160d1565b60405180910390f35b34801561063c57600080fd5b5061065760048036038101906106529190614eb8565b611a65565b60405161066491906160d1565b60405180910390f35b34801561067957600080fd5b50610682611a7d565b60405161068f91906160d1565b60405180910390f35b3480156106a457600080fd5b506106ad611a86565b6040516106ba91906160d1565b60405180910390f35b3480156106cf57600080fd5b506106ea60048036038101906106e591906150e5565b611a90565b005b3480156106f857600080fd5b50610713600480360381019061070e919061510e565b611b18565b60405161072091906160d1565b60405180910390f35b34801561073557600080fd5b5061073e611bf4565b60405161074b91906160d1565b60405180910390f35b34801561076057600080fd5b5061077b6004803603810190610776919061510e565b611c05565b60405161078891906160d1565b60405180910390f35b34801561079d57600080fd5b506107b860048036038101906107b39190614da1565b611c73565b005b3480156107c657600080fd5b506107e160048036038101906107dc9190614e0d565b611d45565b6040516107ee91906160d1565b60405180910390f35b34801561080357600080fd5b5061080c611d81565b6040516108199190615a91565b60405180910390f35b34801561082e57600080fd5b5061084960048036038101906108449190614f7b565b611dab565b60405161085691906160d1565b60405180910390f35b34801561086b57600080fd5b50610874611de2565b6040516108819190615df4565b60405180910390f35b34801561089657600080fd5b506108b160048036038101906108ac919061510e565b611e1f565b005b3480156108bf57600080fd5b506108c86120d4565b6040516108d59190615cb2565b60405180910390f35b3480156108ea57600080fd5b5061090560048036038101906109009190615160565b6120f8565b60405161091291906160b6565b60405180910390f35b34801561092757600080fd5b50610942600480360381019061093d9190614d65565b6121dc565b60405161094f91906160d1565b60405180910390f35b34801561096457600080fd5b5061097f600480360381019061097a919061510e565b6121f0565b60405161098c91906160d1565b60405180910390f35b3480156109a157600080fd5b506109aa612202565b6040516109b79190615dbe565b60405180910390f35b6109da60048036038101906109d5919061510e565b612226565b005b60006109e66124db565b905090565b6000806000806000806000806000808a9950610a068b611b18565b9750610a118b6111b9565b9650610a1c8b611c05565b95506000600460008d815260200190815260200160002090508060000160009054906101000a900473ffffffffffffffffffffffffffffffffffffffff1699508060050154955080600601549450806007015493506000610a7c8d611577565b905060026007811115610ab8577f4e487b7100000000000000000000000000000000000000000000000000000000600052602160045260246000fd5b816007811115610af1577f4e487b7100000000000000000000000000000000000000000000000000000000600052602160045260246000fd5b149350600780811115610b2d577f4e487b7100000000000000000000000000000000000000000000000000000000600052602160045260246000fd5b816007811115610b66577f4e487b7100000000000000000000000000000000000000000000000000000000600052602160045260246000fd5b14925050509193959799509193959799565b6000610b8382612505565b9050919050565b600061b2fa905090565b610b9c6109dc565b73ffffffffffffffffffffffffffffffffffffffff16610bba61257f565b73ffffffffffffffffffffffffffffffffffffffff1614610c10576040517f08c379a0000000000000000000000000000000000000000000000000000000008152600401610c0790615e36565b60405180910390fd5b610c1981612587565b50565b606060008054610c2b90616827565b80601f0160208091040260200160405190810160405280929190818152602001828054610c5790616827565b8015610ca45780601f10610c7957610100808354040283529160200191610ca4565b820191906000526020600020905b815481529060010190602001808311610c8757829003601f168201915b5050505050905090565b600080610cbd86868686611d45565b905060046007811115610cf9577f4e487b7100000000000000000000000000000000000000000000000000000000600052602160045260246000fd5b610d0282611577565b6007811115610d3a577f4e487b7100000000000000000000000000000000000000000000000000000000600052602160045260246000fd5b14610d7a576040517f08c379a0000000000000000000000000000000000000000000000000000000008152600401610d7190615fd6565b60405180910390fd5b6000600260009054906101000a900473ffffffffffffffffffffffffffffffffffffffff1673ffffffffffffffffffffffffffffffffffffffff1663f27a0c926040518163ffffffff1660e01b815260040160206040518083038186803b158015610de457600080fd5b505afa158015610df8573d6000803e3d6000fd5b505050506040513d601f19601f82011682018060405250810190610e1c9190615137565b9050600260009054906101000a900473ffffffffffffffffffffffffffffffffffffffff1673ffffffffffffffffffffffffffffffffffffffff1663b1c5f4278888886000896040518663ffffffff1660e01b8152600401610e82959493929190615b58565b60206040518083038186803b158015610e9a57600080fd5b505afa158015610eae573d6000803e3d6000fd5b505050506040513d601f19601f82011682018060405250810190610ed29190615093565b6003600084815260200190815260200160002081905550600260009054906101000a900473ffffffffffffffffffffffffffffffffffffffff1673ffffffffffffffffffffffffffffffffffffffff16638f2a0bb0888888600089876040518763ffffffff1660e01b8152600401610f4f96959493929190615bc0565b600060405180830381600087803b158015610f6957600080fd5b505af1158015610f7d573d6000803e3d6000fd5b505050507f9a2e42fd6722813d69113e7d0079d3d940171428df7373df9c7f7617cfda2892828242610faf9190616538565b604051610fbd929190616238565b60405180910390a18192505050949350505050565b6000610fe9600143610fe49190616657565b6121f0565b905090565b600080610ffd86868686611d45565b9050600061100a82611577565b905060046007811115611046577f4e487b7100000000000000000000000000000000000000000000000000000000600052602160045260246000fd5b81600781111561107f577f4e487b7100000000000000000000000000000000000000000000000000000000600052602160045260246000fd5b14806110fb5750600560078111156110c0577f4e487b7100000000000000000000000000000000000000000000000000000000600052602160045260246000fd5b8160078111156110f9577f4e487b7100000000000000000000000000000000000000000000000000000000600052602160045260246000fd5b145b61113a576040517f08c379a000000000000000000000000000000000000000000000000000000000815260040161113190615fd6565b60405180910390fd5b600180600084815260200190815260200160002060020160006101000a81548160ff0219169083151502179055507f712ae1383f79ac853f8d882153778e0260ef8f03b504e2866e0593e04d2b291f8260405161119791906160d1565b60405180910390a16111ac828888888861261c565b8192505050949350505050565b6000611216600160008481526020019081526020016000206000016040518060200160405290816000820160009054906101000a900467ffffffffffffffff1667ffffffffffffffff1667ffffffffffffffff1681525050612630565b67ffffffffffffffff169050919050565b606080606080600060046000878152602001908152602001600020905080600101816002018260030183600401838054806020026020016040519081016040528092919081815260200182805480156112d557602002820191906000526020600020905b8160009054906101000a900473ffffffffffffffffffffffffffffffffffffffff1673ffffffffffffffffffffffffffffffffffffffff168152602001906001019080831161128b575b505050505093508280548060200260200160405190810160405280929190818152602001828054801561132757602002820191906000526020600020905b815481526020019060010190808311611313575b5050505050925081805480602002602001604051908101604052809291908181526020016000905b828210156113fb57838290600052602060002001805461136e90616827565b80601f016020809104026020016040519081016040528092919081815260200182805461139a90616827565b80156113e75780601f106113bc576101008083540402835291602001916113e7565b820191906000526020600020905b8154815290600101906020018083116113ca57829003601f168201915b50505050508152602001906001019061134f565b50505050915080805480602002602001604051908101604052809291908181526020016000905b828210156114ce57838290600052602060002001805461144190616827565b80601f016020809104026020016040519081016040528092919081815260200182805461146d90616827565b80156114ba5780601f1061148f576101008083540402835291602001916114ba565b820191906000526020600020905b81548152906001019060200180831161149d57829003601f168201915b505050505081526020019060010190611422565b5050505090509450945094509450509193509193565b60006001905090565b60008061154e6115467f150214d74d59b7d1e90c73fc22ef3d991dd0a76b046543d4d80ab92d2a50328f898960405160200161152b93929190615d20565b6040516020818303038152906040528051906020012061263e565b868686612658565b905061156b87828860405180602001604052806000815250612683565b91505095945050505050565b600061158282612823565b9050919050565b60006004600083815260200190815260200160002090508060000160009054906101000a900473ffffffffffffffffffffffffffffffffffffffff1673ffffffffffffffffffffffffffffffffffffffff166115e361257f565b73ffffffffffffffffffffffffffffffffffffffff1614806116445750611608611bf4565b6116428260000160009054906101000a900473ffffffffffffffffffffffffffffffffffffffff1660014361163d9190616657565b6121dc565b105b611683576040517f08c379a000000000000000000000000000000000000000000000000000000000815260040161167a90616076565b60405180910390fd5b61191c8160010180548060200260200160405190810160405280929190818152602001828054801561170a57602002820191906000526020600020905b8160009054906101000a900473ffffffffffffffffffffffffffffffffffffffff1673ffffffffffffffffffffffffffffffffffffffff16815260200190600101908083116116c0575b50505050508260020180548060200260200160405190810160405280929190818152602001828054801561175d57602002820191906000526020600020905b815481526020019060010190808311611749575b505050505061191284600301805480602002602001604051908101604052809291908181526020016000905b828210156118355783829060005260206000200180546117a890616827565b80601f01602080910402602001604051908101604052809291908181526020018280546117d490616827565b80156118215780601f106117f657610100808354040283529160200191611821565b820191906000526020600020905b81548152906001019060200180831161180457829003601f168201915b505050505081526020019060010190611789565b5050505085600401805480602002602001604051908101604052809291908181526020016000905b8282101561190957838290600052602060002001805461187c90616827565b80601f01602080910402602001604051908101604052809291908181526020018280546118a890616827565b80156118f55780601f106118ca576101008083540402835291602001916118f5565b820191906000526020600020905b8154815290600101906020018083116118d857829003601f168201915b50505050508152602001906001019061185d565b50505050612a61565b8460090154612cdc565b505050565b60006004600084815260200190815260200160002060080160008373ffffffffffffffffffffffffffffffffffffffff1673ffffffffffffffffffffffffffffffffffffffff16815260200190815260200160002060000160009054906101000a900460ff16905092915050565b60606040518060400160405280600181526020017f3100000000000000000000000000000000000000000000000000000000000000815250905090565b6000806119d761257f565b90506119f484828560405180602001604052806000815250612683565b91505092915050565b600080611a0861257f565b9050611a5a86828787878080601f016020809104026020016040519081016040528093929190818152602001838380828437600081840152601f19601f82011690508083019250505050505050612683565b915050949350505050565b6000611a7385858585612cf4565b9050949350505050565b60006064905090565b6000600554905090565b611a986109dc565b73ffffffffffffffffffffffffffffffffffffffff16611ab661257f565b73ffffffffffffffffffffffffffffffffffffffff1614611b0c576040517f08c379a0000000000000000000000000000000000000000000000000000000008152600401611b0390615e36565b60405180910390fd5b611b1581612d95565b50565b600080600260009054906101000a900473ffffffffffffffffffffffffffffffffffffffff1673ffffffffffffffffffffffffffffffffffffffff1663d45c443560036000868152602001908152602001600020546040518263ffffffff1660e01b8152600401611b899190615cb2565b60206040518083038186803b158015611ba157600080fd5b505afa158015611bb5573d6000803e3d6000fd5b505050506040513d601f19601f82011682018060405250810190611bd99190615137565b905060018114611be95780611bec565b60005b915050919050565b6000683635c9adc5dea00000905090565b6000611c62600160008481526020019081526020016000206001016040518060200160405290816000820160009054906101000a900467ffffffffffffffff1667ffffffffffffffff1667ffffffffffffffff1681525050612630565b67ffffffffffffffff169050919050565b611c7b6109dc565b73ffffffffffffffffffffffffffffffffffffffff16611c9961257f565b73ffffffffffffffffffffffffffffffffffffffff1614611cef576040517f08c379a0000000000000000000000000000000000000000000000000000000008152600401611ce690615e36565b60405180910390fd5b611d3e8483838080601f016020809104026020016040519081016040528093929190818152602001838380828437600081840152601f19601f8201169050808301925050505050505085612e34565b5050505050565b600084848484604051602001611d5e9493929190615afe565b6040516020818303038152906040528051906020012060001c9050949350505050565b6000600260009054906101000a900473ffffffffffffffffffffffffffffffffffffffff16905090565b6000611dc2611db861257f565b8787878787612e63565b611dd78686611dd18787612a61565b85611a65565b905095945050505050565b60606040518060400160405280601a81526020017f737570706f72743d627261766f2671756f72756d3d627261766f000000000000815250905090565b60006004600083815260200190815260200160002090506120cf81600101805480602002602001604051908101604052809291908181526020018280548015611ebd57602002820191906000526020600020905b8160009054906101000a900473ffffffffffffffffffffffffffffffffffffffff1673ffffffffffffffffffffffffffffffffffffffff1681526020019060010190808311611e73575b505050505082600201805480602002602001604051908101604052809291908181526020018280548015611f1057602002820191906000526020600020905b815481526020019060010190808311611efc575b50505050506120c584600301805480602002602001604051908101604052809291908181526020016000905b82821015611fe8578382906000526020600020018054611f5b90616827565b80601f0160208091040260200160405190810160405280929190818152602001828054611f8790616827565b8015611fd45780601f10611fa957610100808354040283529160200191611fd4565b820191906000526020600020905b815481529060010190602001808311611fb757829003601f168201915b505050505081526020019060010190611f3c565b5050505085600401805480602002602001604051908101604052809291908181526020016000905b828210156120bc57838290600052602060002001805461202f90616827565b80601f016020809104026020016040519081016040528092919081815260200182805461205b90616827565b80156120a85780601f1061207d576101008083540402835291602001916120a8565b820191906000526020600020905b81548152906001019060200180831161208b57829003601f168201915b505050505081526020019060010190612010565b50505050612a61565b8460090154610cae565b505050565b7f150214d74d59b7d1e90c73fc22ef3d991dd0a76b046543d4d80ab92d2a50328f81565b61210061454e565b6004600084815260200190815260200160002060080160008373ffffffffffffffffffffffffffffffffffffffff1673ffffffffffffffffffffffffffffffffffffffff1681526020019081526020016000206040518060600160405290816000820160009054906101000a900460ff161515151581526020016000820160019054906101000a900460ff1660ff1660ff1681526020016000820160029054906101000a90046bffffffffffffffffffffffff166bffffffffffffffffffffffff166bffffffffffffffffffffffff1681525050905092915050565b60006121e88383612f6a565b905092915050565b60006121fb8261301f565b9050919050565b7f000000000000000000000000000000000000000000000000000000000000000081565b60006004600083815260200190815260200160002090506124d6816001018054806020026020016040519081016040528092919081815260200182805480156122c457602002820191906000526020600020905b8160009054906101000a900473ffffffffffffffffffffffffffffffffffffffff1673ffffffffffffffffffffffffffffffffffffffff168152602001906001019080831161227a575b50505050508260020180548060200260200160405190810160405280929190818152602001828054801561231757602002820191906000526020600020905b815481526020019060010190808311612303575b50505050506124cc84600301805480602002602001604051908101604052809291908181526020016000905b828210156123ef57838290600052602060002001805461236290616827565b80601f016020809104026020016040519081016040528092919081815260200182805461238e90616827565b80156123db5780601f106123b0576101008083540402835291602001916123db565b820191906000526020600020905b8154815290600101906020018083116123be57829003601f168201915b505050505081526020019060010190612343565b5050505085600401805480602002602001604051908101604052809291908181526020016000905b828210156124c357838290600052602060002001805461243690616827565b80601f016020809104026020016040519081016040528092919081815260200182805461246290616827565b80156124af5780601f10612484576101008083540402835291602001916124af565b820191906000526020600020905b81548152906001019060200180831161249257829003601f168201915b505050505081526020019060010190612417565b50505050612a61565b8460090154610fee565b505050565b6000600260009054906101000a900473ffffffffffffffffffffffffffffffffffffffff16905090565b60007f6e665ced000000000000000000000000000000000000000000000000000000007bffffffffffffffffffffffffffffffffffffffffffffffffffffffff1916827bffffffffffffffffffffffffffffffffffffffffffffffffffffffff191614806125785750612577826130f5565b5b9050919050565b600033905090565b61258f611a7d565b8111156125d1576040517f08c379a00000000000000000000000000000000000000000000000000000000081526004016125c890615e56565b60405180910390fd5b60006005549050816005819055507f0553476bf02ef2726e8ce5ced78d63e26e602e4a2257b1f559418e24b46339978183604051612610929190616238565b60405180910390a15050565b612629858585858561316f565b5050505050565b600081600001519050919050565b600061265161264b61320d565b83613327565b9050919050565b60008060006126698787878761335a565b9150915061267681613467565b8192505050949350505050565b600080600160008781526020019081526020016000209050600160078111156126d5577f4e487b7100000000000000000000000000000000000000000000000000000000600052602160045260246000fd5b6126de87611577565b6007811115612716577f4e487b7100000000000000000000000000000000000000000000000000000000600052602160045260246000fd5b14612756576040517f08c379a000000000000000000000000000000000000000000000000000000000815260040161274d90615f36565b60405180910390fd5b60006127b4866127a5846000016040518060200160405290816000820160009054906101000a900467ffffffffffffffff1667ffffffffffffffff1667ffffffffffffffff1681525050612630565b67ffffffffffffffff166121dc565b90506127c2878787846137b8565b8573ffffffffffffffffffffffffffffffffffffffff167fb8e138887d0aa13bab447e82de9d5c1777041ecd21ca36ba824ff1e6c07ddda48887848860405161280e9493929190616261565b60405180910390a28092505050949350505050565b60008061282f83613a54565b90506004600781111561286b577f4e487b7100000000000000000000000000000000000000000000000000000000600052602160045260246000fd5b8160078111156128a4577f4e487b7100000000000000000000000000000000000000000000000000000000600052602160045260246000fd5b146128b25780915050612a5c565b6000600360008581526020019081526020016000205490506000801b8114156128df578192505050612a5c565b600260009054906101000a900473ffffffffffffffffffffffffffffffffffffffff1673ffffffffffffffffffffffffffffffffffffffff16632ab0f529826040518263ffffffff1660e01b815260040161293a9190615cb2565b60206040518083038186803b15801561295257600080fd5b505afa158015612966573d6000803e3d6000fd5b505050506040513d601f19601f8201168201806040525081019061298a919061506a565b1561299a57600792505050612a5c565b600260009054906101000a900473ffffffffffffffffffffffffffffffffffffffff1673ffffffffffffffffffffffffffffffffffffffff1663584b153e826040518263ffffffff1660e01b81526004016129f59190615cb2565b60206040518083038186803b158015612a0d57600080fd5b505afa158015612a21573d6000803e3d6000fd5b505050506040513d601f19601f82011682018060405250810190612a45919061506a565b15612a5557600592505050612a5c565b6002925050505b919050565b60606000825167ffffffffffffffff811115612aa6577f4e487b7100000000000000000000000000000000000000000000000000000000600052604160045260246000fd5b604051908082528060200260200182016040528015612ad957816020015b6060815260200190600190039081612ac45790505b50905060005b8451811015612cd1576000858281518110612b23577f4e487b7100000000000000000000000000000000000000000000000000000000600052603260045260246000fd5b60200260200101515114612c3a57848181518110612b6a577f4e487b7100000000000000000000000000000000000000000000000000000000600052603260045260246000fd5b6020026020010151848281518110612bab577f4e487b7100000000000000000000000000000000000000000000000000000000600052603260045260246000fd5b6020026020010151604051602401612bc39190615d9c565b60405160208183030381529060405290604051612be09190615a43565b60405180910390207bffffffffffffffffffffffffffffffffffffffffffffffffffffffff19166020820180517bffffffffffffffffffffffffffffffffffffffffffffffffffffffff8381831617835250505050612c7c565b838181518110612c73577f4e487b7100000000000000000000000000000000000000000000000000000000600052603260045260246000fd5b60200260200101515b828281518110612cb5577f4e487b7100000000000000000000000000000000000000000000000000000000600052603260045260246000fd5b602002602001018190525080612cca9061688a565b9050612adf565b508091505092915050565b6000612cea85858585613b69565b9050949350505050565b6000612d7f612d0161257f565b8686865167ffffffffffffffff811115612d44577f4e487b7100000000000000000000000000000000000000000000000000000000600052604160045260246000fd5b604051908082528060200260200182016040528015612d7757816020015b6060815260200190600190039081612d625790505b508787612e63565b612d8b85858585613c5b565b9050949350505050565b7f08f74ea46ef7894f65eabfb5e6e695de773a000b47c529ab559178069b226401600260009054906101000a900473ffffffffffffffffffffffffffffffffffffffff1682604051612de8929190615aac565b60405180910390a180600260006101000a81548173ffffffffffffffffffffffffffffffffffffffff021916908373ffffffffffffffffffffffffffffffffffffffff16021790555050565b6060612e5a84848460405180606001604052806029815260200161708260299139613f81565b90509392505050565b6000818051906020012090506000612e868787612e808888612a61565b85611d45565b905060006004600083815260200190815260200160002090506000801b81600901541415612f5f57888160000160006101000a81548173ffffffffffffffffffffffffffffffffffffffff021916908373ffffffffffffffffffffffffffffffffffffffff16021790555087816001019080519060200190612f09929190614582565b5086816002019080519060200190612f2292919061460c565b5085816003019080519060200190612f3b929190614659565b5084816004019080519060200190612f549291906146b9565b508281600901819055505b505050505050505050565b60007f000000000000000000000000000000000000000000000000000000000000000073ffffffffffffffffffffffffffffffffffffffff16633a46b1a884846040518363ffffffff1660e01b8152600401612fc7929190615ad5565b60206040518083038186803b158015612fdf57600080fd5b505afa158015612ff3573d6000803e3d6000fd5b505050506040513d601f19601f820116820180604052508101906130179190615137565b905092915050565b6000613029611a7d565b613031611a86565b7f000000000000000000000000000000000000000000000000000000000000000073ffffffffffffffffffffffffffffffffffffffff16638e539e8c856040518263ffffffff1660e01b815260040161308a91906160d1565b60206040518083038186803b1580156130a257600080fd5b505afa1580156130b6573d6000803e3d6000fd5b505050506040513d601f19601f820116820180604052508101906130da9190615137565b6130e491906165fd565b6130ee91906165cc565b9050919050565b60007fbf26d897000000000000000000000000000000000000000000000000000000007bffffffffffffffffffffffffffffffffffffffffffffffffffffffff1916827bffffffffffffffffffffffffffffffffffffffffffffffffffffffff19161480613168575061316782614095565b5b9050919050565b600260009054906101000a900473ffffffffffffffffffffffffffffffffffffffff1673ffffffffffffffffffffffffffffffffffffffff1663e38335e5348686866000876040518763ffffffff1660e01b81526004016131d4959493929190615b58565b6000604051808303818588803b1580156131ed57600080fd5b505af1158015613201573d6000803e3d6000fd5b50505050505050505050565b60007f000000000000000000000000000000000000000000000000000000000000000073ffffffffffffffffffffffffffffffffffffffff163073ffffffffffffffffffffffffffffffffffffffff1614801561328957507f000000000000000000000000000000000000000000000000000000000000000046145b156132b6577f00000000000000000000000000000000000000000000000000000000000000009050613324565b6133217f00000000000000000000000000000000000000000000000000000000000000007f00000000000000000000000000000000000000000000000000000000000000007f00000000000000000000000000000000000000000000000000000000000000006140ff565b90505b90565b6000828260405160200161333c929190615a5a565b60405160208183030381529060405280519060200120905092915050565b6000807f7fffffffffffffffffffffffffffffff5d576e7357a4501ddfe92f46681b20a08360001c111561339557600060039150915061345e565b601b8560ff16141580156133ad5750601c8560ff1614155b156133bf57600060049150915061345e565b6000600187878787604051600081526020016040526040516133e49493929190615d57565b6020604051602081039080840390855afa158015613406573d6000803e3d6000fd5b505050602060405103519050600073ffffffffffffffffffffffffffffffffffffffff168173ffffffffffffffffffffffffffffffffffffffff1614156134555760006001925092505061345e565b80600092509250505b94509492505050565b600060048111156134a1577f4e487b7100000000000000000000000000000000000000000000000000000000600052602160045260246000fd5b8160048111156134da577f4e487b7100000000000000000000000000000000000000000000000000000000600052602160045260246000fd5b14156134e5576137b5565b6001600481111561351f577f4e487b7100000000000000000000000000000000000000000000000000000000600052602160045260246000fd5b816004811115613558577f4e487b7100000000000000000000000000000000000000000000000000000000600052602160045260246000fd5b1415613599576040517f08c379a000000000000000000000000000000000000000000000000000000000815260040161359090615e16565b60405180910390fd5b600260048111156135d3577f4e487b7100000000000000000000000000000000000000000000000000000000600052602160045260246000fd5b81600481111561360c577f4e487b7100000000000000000000000000000000000000000000000000000000600052602160045260246000fd5b141561364d576040517f08c379a000000000000000000000000000000000000000000000000000000000815260040161364490615eb6565b60405180910390fd5b60036004811115613687577f4e487b7100000000000000000000000000000000000000000000000000000000600052602160045260246000fd5b8160048111156136c0577f4e487b7100000000000000000000000000000000000000000000000000000000600052602160045260246000fd5b1415613701576040517f08c379a00000000000000000000000000000000000000000000000000000000081526004016136f890615ef6565b60405180910390fd5b60048081111561373a577f4e487b7100000000000000000000000000000000000000000000000000000000600052602160045260246000fd5b816004811115613773577f4e487b7100000000000000000000000000000000000000000000000000000000600052602160045260246000fd5b14156137b4576040517f08c379a00000000000000000000000000000000000000000000000000000000081526004016137ab90615f76565b60405180910390fd5b5b50565b600060046000868152602001908152602001600020905060008160080160008673ffffffffffffffffffffffffffffffffffffffff1673ffffffffffffffffffffffffffffffffffffffff16815260200190815260200160002090508060000160009054906101000a900460ff1615613866576040517f08c379a000000000000000000000000000000000000000000000000000000000815260040161385d90616096565b60405180910390fd5b60018160000160006101000a81548160ff021916908315150217905550838160000160016101000a81548160ff021916908360ff1602179055506138a983614139565b8160000160026101000a8154816bffffffffffffffffffffffff02191690836bffffffffffffffffffffffff16021790555060006002811115613915577f4e487b7100000000000000000000000000000000000000000000000000000000600052602160045260246000fd5b60ff168460ff16141561394257828260060160008282546139369190616538565b92505081905550613a4c565b6001600281111561397c577f4e487b7100000000000000000000000000000000000000000000000000000000600052602160045260246000fd5b60ff168460ff1614156139a9578282600501600082825461399d9190616538565b92505081905550613a4b565b6002808111156139e2577f4e487b7100000000000000000000000000000000000000000000000000000000600052602160045260246000fd5b60ff168460ff161415613a0f5782826007016000828254613a039190616538565b92505081905550613a4a565b6040517f08c379a0000000000000000000000000000000000000000000000000000000008152600401613a4190615ff6565b60405180910390fd5b5b5b505050505050565b6000806001600084815260200190815260200160002090508060020160009054906101000a900460ff1615613a8d576007915050613b64565b8060020160019054906101000a900460ff1615613aae576002915050613b64565b6000613ab9846111b9565b90506000811415613aff576040517f08c379a0000000000000000000000000000000000000000000000000000000008152600401613af690616016565b60405180910390fd5b438110613b1157600092505050613b64565b6000613b1c85611c05565b9050438110613b315760019350505050613b64565b613b3a85614194565b8015613b4b5750613b4a856141cc565b5b15613b5c5760049350505050613b64565b600393505050505b919050565b600080613b78868686866141f7565b90506000801b600360008381526020019081526020016000205414613c4f57600260009054906101000a900473ffffffffffffffffffffffffffffffffffffffff1673ffffffffffffffffffffffffffffffffffffffff1663c4d252f560036000848152602001908152602001600020546040518263ffffffff1660e01b8152600401613c059190615cb2565b600060405180830381600087803b158015613c1f57600080fd5b505af1158015613c33573d6000803e3d6000fd5b5050505060036000828152602001908152602001600020600090555b80915050949350505050565b6000613c65611bf4565b613c7b33600143613c769190616657565b6121dc565b1015613cbc576040517f08c379a0000000000000000000000000000000000000000000000000000000008152600401613cb390615e96565b60405180910390fd5b6000613cd18686868680519060200120611d45565b90508451865114613d17576040517f08c379a0000000000000000000000000000000000000000000000000000000008152600401613d0e90615ed6565b60405180910390fd5b8351865114613d5b576040517f08c379a0000000000000000000000000000000000000000000000000000000008152600401613d5290615ed6565b60405180910390fd5b6000865111613d9f576040517f08c379a0000000000000000000000000000000000000000000000000000000008152600401613d9690615f56565b60405180910390fd5b6000600160008381526020019081526020016000209050613dff816000016040518060200160405290816000820160009054906101000a900467ffffffffffffffff1667ffffffffffffffff1667ffffffffffffffff1681525050614434565b613e3e576040517f08c379a0000000000000000000000000000000000000000000000000000000008152600401613e3590616036565b60405180910390fd5b6000613e50613e4b6114e4565b61444e565b613e594361444e565b613e63919061658e565b90506000613e77613e72610b8a565b61444e565b82613e82919061658e565b9050613e9a82846000016144a590919063ffffffff16565b613eb081846001016144a590919063ffffffff16565b7f7d84a6263ae0d98d3329bd7b46bb4e8d6f98cd35a7adb45c274c8b7fd5ebd5e084613eda61257f565b8b8b8d5167ffffffffffffffff811115613f1d577f4e487b7100000000000000000000000000000000000000000000000000000000600052604160045260246000fd5b604051908082528060200260200182016040528015613f5057816020015b6060815260200190600190039081613f3b5790505b508c88888e604051613f6a999897969594939291906160ec565b60405180910390a183945050505050949350505050565b606082471015613fc6576040517f08c379a0000000000000000000000000000000000000000000000000000000008152600401613fbd90615f16565b60405180910390fd5b613fcf856144d4565b61400e576040517f08c379a000000000000000000000000000000000000000000000000000000000815260040161400590616056565b60405180910390fd5b6000808673ffffffffffffffffffffffffffffffffffffffff1685876040516140379190615a2c565b60006040518083038185875af1925050503d8060008114614074576040519150601f19603f3d011682016040523d82523d6000602084013e614079565b606091505b50915091506140898282866144e7565b92505050949350505050565b60007f01ffc9a7000000000000000000000000000000000000000000000000000000007bffffffffffffffffffffffffffffffffffffffffffffffffffffffff1916827bffffffffffffffffffffffffffffffffffffffffffffffffffffffff1916149050919050565b6000838383463060405160200161411a959493929190615ccd565b6040516020818303038152906040528051906020012090509392505050565b60006bffffffffffffffffffffffff801682111561418c576040517f08c379a000000000000000000000000000000000000000000000000000000000815260040161418390615e76565b60405180910390fd5b819050919050565b60008060046000848152602001908152602001600020905080600501546141c26141bd856111b9565b6121f0565b1115915050919050565b6000806004600084815260200190815260200160002090508060060154816005015411915050919050565b60008061420686868686611d45565b9050600061421382611577565b90506002600781111561424f577f4e487b7100000000000000000000000000000000000000000000000000000000600052602160045260246000fd5b816007811115614288577f4e487b7100000000000000000000000000000000000000000000000000000000600052602160045260246000fd5b141580156143075750600660078111156142cb577f4e487b7100000000000000000000000000000000000000000000000000000000600052602160045260246000fd5b816007811115614304577f4e487b7100000000000000000000000000000000000000000000000000000000600052602160045260246000fd5b14155b80156143835750600780811115614347577f4e487b7100000000000000000000000000000000000000000000000000000000600052602160045260246000fd5b816007811115614380577f4e487b7100000000000000000000000000000000000000000000000000000000600052602160045260246000fd5b14155b6143c2576040517f08c379a00000000000000000000000000000000000000000000000000000000081526004016143b990615fb6565b60405180910390fd5b600180600084815260200190815260200160002060020160016101000a81548160ff0219169083151502179055507f789cf55be980739dad1d0699b93b58e806b51c9d96619bfa8fe0a28abaa7b30c8260405161441f91906160d1565b60405180910390a18192505050949350505050565b600080826000015167ffffffffffffffff16149050919050565b600067ffffffffffffffff801682111561449d576040517f08c379a000000000000000000000000000000000000000000000000000000000815260040161449490615f96565b60405180910390fd5b819050919050565b808260000160006101000a81548167ffffffffffffffff021916908367ffffffffffffffff1602179055505050565b600080823b905060008111915050919050565b606083156144f757829050614547565b60008351111561450a5782518084602001fd5b816040517f08c379a000000000000000000000000000000000000000000000000000000000815260040161453e9190615df4565b60405180910390fd5b9392505050565b6040518060600160405280600015158152602001600060ff16815260200160006bffffffffffffffffffffffff1681525090565b8280548282559060005260206000209081019282156145fb579160200282015b828111156145fa5782518260006101000a81548173ffffffffffffffffffffffffffffffffffffffff021916908373ffffffffffffffffffffffffffffffffffffffff160217905550916020019190600101906145a2565b5b5090506146089190614719565b5090565b828054828255906000526020600020908101928215614648579160200282015b8281111561464757825182559160200191906001019061462c565b5b5090506146559190614719565b5090565b8280548282559060005260206000209081019282156146a8579160200282015b828111156146a7578251829080519060200190614697929190614736565b5091602001919060010190614679565b5b5090506146b591906147bc565b5090565b828054828255906000526020600020908101928215614708579160200282015b828111156147075782518290805190602001906146f79291906147e0565b50916020019190600101906146d9565b5b5090506147159190614866565b5090565b5b8082111561473257600081600090555060010161471a565b5090565b82805461474290616827565b90600052602060002090601f01602090048101928261476457600085556147ab565b82601f1061477d57805160ff19168380011785556147ab565b828001600101855582156147ab579182015b828111156147aa57825182559160200191906001019061478f565b5b5090506147b89190614719565b5090565b5b808211156147dc57600081816147d3919061488a565b506001016147bd565b5090565b8280546147ec90616827565b90600052602060002090601f01602090048101928261480e5760008555614855565b82601f1061482757805160ff1916838001178555614855565b82800160010185558215614855579182015b82811115614854578251825591602001919060010190614839565b5b5090506148629190614719565b5090565b5b80821115614886576000818161487d91906148ca565b50600101614867565b5090565b50805461489690616827565b6000825580601f106148a857506148c7565b601f0160209004906000526020600020908101906148c69190614719565b5b50565b5080546148d690616827565b6000825580601f106148e85750614907565b601f0160209004906000526020600020908101906149069190614719565b5b50565b600061491d614918846162d2565b6162ad565b9050808382526020820190508285602086028201111561493c57600080fd5b60005b8581101561496c57816149528882614b18565b84526020840193506020830192505060018101905061493f565b5050509392505050565b6000614989614984846162fe565b6162ad565b9050808382526020820190508260005b858110156149c957813585016149af8882614c73565b845260208401935060208301925050600181019050614999565b5050509392505050565b60006149e66149e18461632a565b6162ad565b9050808382526020820190508260005b85811015614a265781358501614a0c8882614cfc565b8452602084019350602083019250506001810190506149f6565b5050509392505050565b6000614a43614a3e84616356565b6162ad565b90508083825260208201905082856020860282011115614a6257600080fd5b60005b85811015614a925781614a788882614d26565b845260208401935060208301925050600181019050614a65565b5050509392505050565b6000614aaf614aaa84616382565b6162ad565b905082815260208101848484011115614ac757600080fd5b614ad28482856167e5565b509392505050565b6000614aed614ae8846163b3565b6162ad565b905082815260208101848484011115614b0557600080fd5b614b108482856167e5565b509392505050565b600081359050614b2781616fe0565b92915050565b600082601f830112614b3e57600080fd5b8135614b4e84826020860161490a565b91505092915050565b600082601f830112614b6857600080fd5b8135614b78848260208601614976565b91505092915050565b600082601f830112614b9257600080fd5b8135614ba28482602086016149d3565b91505092915050565b600082601f830112614bbc57600080fd5b8135614bcc848260208601614a30565b91505092915050565b600081519050614be481616ff7565b92915050565b600081359050614bf98161700e565b92915050565b600081519050614c0e8161700e565b92915050565b600081359050614c2381617025565b92915050565b60008083601f840112614c3b57600080fd5b8235905067ffffffffffffffff811115614c5457600080fd5b602083019150836001820283011115614c6c57600080fd5b9250929050565b600082601f830112614c8457600080fd5b8135614c94848260208601614a9c565b91505092915050565b600081359050614cac8161703c565b92915050565b60008083601f840112614cc457600080fd5b8235905067ffffffffffffffff811115614cdd57600080fd5b602083019150836001820283011115614cf557600080fd5b9250929050565b600082601f830112614d0d57600080fd5b8135614d1d848260208601614ada565b91505092915050565b600081359050614d3581617053565b92915050565b600081519050614d4a81617053565b92915050565b600081359050614d5f8161706a565b92915050565b60008060408385031215614d7857600080fd5b6000614d8685828601614b18565b9250506020614d9785828601614d26565b9150509250929050565b60008060008060608587031215614db757600080fd5b6000614dc587828801614b18565b9450506020614dd687828801614d26565b935050604085013567ffffffffffffffff811115614df357600080fd5b614dff87828801614c29565b925092505092959194509250565b60008060008060808587031215614e2357600080fd5b600085013567ffffffffffffffff811115614e3d57600080fd5b614e4987828801614b2d565b945050602085013567ffffffffffffffff811115614e6657600080fd5b614e7287828801614bab565b935050604085013567ffffffffffffffff811115614e8f57600080fd5b614e9b87828801614b57565b9250506060614eac87828801614bea565b91505092959194509250565b60008060008060808587031215614ece57600080fd5b600085013567ffffffffffffffff811115614ee857600080fd5b614ef487828801614b2d565b945050602085013567ffffffffffffffff811115614f1157600080fd5b614f1d87828801614bab565b935050604085013567ffffffffffffffff811115614f3a57600080fd5b614f4687828801614b57565b925050606085013567ffffffffffffffff811115614f6357600080fd5b614f6f87828801614cfc565b91505092959194509250565b600080600080600060a08688031215614f9357600080fd5b600086013567ffffffffffffffff811115614fad57600080fd5b614fb988828901614b2d565b955050602086013567ffffffffffffffff811115614fd657600080fd5b614fe288828901614bab565b945050604086013567ffffffffffffffff811115614fff57600080fd5b61500b88828901614b81565b935050606086013567ffffffffffffffff81111561502857600080fd5b61503488828901614b57565b925050608086013567ffffffffffffffff81111561505157600080fd5b61505d88828901614cfc565b9150509295509295909350565b60006020828403121561507c57600080fd5b600061508a84828501614bd5565b91505092915050565b6000602082840312156150a557600080fd5b60006150b384828501614bff565b91505092915050565b6000602082840312156150ce57600080fd5b60006150dc84828501614c14565b91505092915050565b6000602082840312156150f757600080fd5b600061510584828501614c9d565b91505092915050565b60006020828403121561512057600080fd5b600061512e84828501614d26565b91505092915050565b60006020828403121561514957600080fd5b600061515784828501614d3b565b91505092915050565b6000806040838503121561517357600080fd5b600061518185828601614d26565b925050602061519285828601614b18565b9150509250929050565b600080604083850312156151af57600080fd5b60006151bd85828601614d26565b92505060206151ce85828601614d50565b9150509250929050565b600080600080606085870312156151ee57600080fd5b60006151fc87828801614d26565b945050602061520d87828801614d50565b935050604085013567ffffffffffffffff81111561522a57600080fd5b61523687828801614cb2565b925092505092959194509250565b600080600080600060a0868803121561525c57600080fd5b600061526a88828901614d26565b955050602061527b88828901614d50565b945050604061528c88828901614d50565b935050606061529d88828901614bea565b92505060806152ae88828901614bea565b9150509295509295909350565b60006152c78383615313565b60208301905092915050565b60006152df838361551b565b905092915050565b60006152f383836155eb565b905092915050565b600061530783836159d2565b60208301905092915050565b61531c8161668b565b82525050565b61532b8161668b565b82525050565b600061533c82616424565b615346818561649a565b9350615351836163e4565b8060005b8381101561538257815161536988826152bb565b975061537483616466565b925050600181019050615355565b5085935050505092915050565b600061539a8261642f565b6153a481856164ab565b9350836020820285016153b6856163f4565b8060005b858110156153f257848403895281516153d385826152d3565b94506153de83616473565b925060208a019950506001810190506153ba565b50829750879550505050505092915050565b600061540f8261643a565b61541981856164bc565b93508360208202850161542b85616404565b8060005b85811015615467578484038952815161544885826152e7565b945061545383616480565b925060208a0199505060018101905061542f565b50829750879550505050505092915050565b600061548482616445565b61548e81856164cd565b935061549983616414565b8060005b838110156154ca5781516154b188826152fb565b97506154bc8361648d565b92505060018101905061549d565b5085935050505092915050565b6154e0816166af565b82525050565b6154ef816166af565b82525050565b6154fe816166bb565b82525050565b615515615510826166bb565b6168d3565b82525050565b600061552682616450565b61553081856164de565b93506155408185602086016167f4565b615549816169c8565b840191505092915050565b600061555f82616450565b61556981856164ef565b93506155798185602086016167f4565b615582816169c8565b840191505092915050565b600061559882616450565b6155a28185616500565b93506155b28185602086016167f4565b80840191505092915050565b6155c781616783565b82525050565b6155d6816167a7565b82525050565b6155e5816167b9565b82525050565b60006155f68261645b565b615600818561650b565b93506156108185602086016167f4565b615619816169c8565b840191505092915050565b600061562f8261645b565b615639818561651c565b93506156498185602086016167f4565b615652816169c8565b840191505092915050565b60006156688261645b565b615672818561652d565b93506156828185602086016167f4565b80840191505092915050565b600061569b60188361651c565b91506156a6826169e6565b602082019050919050565b60006156be60188361651c565b91506156c982616a0f565b602082019050919050565b60006156e160438361651c565b91506156ec82616a38565b606082019050919050565b600061570460268361651c565b915061570f82616aad565b604082019050919050565b600061572760438361651c565b915061573282616afc565b606082019050919050565b600061574a601f8361651c565b915061575582616b71565b602082019050919050565b600061576d60028361652d565b915061577882616b9a565b600282019050919050565b600061579060218361651c565b915061579b82616bc3565b604082019050919050565b60006157b360228361651c565b91506157be82616c12565b604082019050919050565b60006157d660268361651c565b91506157e182616c61565b604082019050919050565b60006157f960238361651c565b915061580482616cb0565b604082019050919050565b600061581c60188361651c565b915061582782616cff565b602082019050919050565b600061583f60228361651c565b915061584a82616d28565b604082019050919050565b600061586260268361651c565b915061586d82616d77565b604082019050919050565b6000615885601d8361651c565b915061589082616dc6565b602082019050919050565b60006158a860218361651c565b91506158b382616def565b604082019050919050565b60006158cb602d8361651c565b91506158d682616e3e565b604082019050919050565b60006158ee601d8361651c565b91506158f982616e8d565b602082019050919050565b600061591160218361651c565b915061591c82616eb6565b604082019050919050565b6000615934601d8361651c565b915061593f82616f05565b602082019050919050565b600061595760278361651c565b915061596282616f2e565b604082019050919050565b600061597a602d8361651c565b915061598582616f7d565b604082019050919050565b6060820160008201516159a660008501826154d7565b5060208201516159b960208501826159ff565b5060408201516159cc6040850182615a1d565b50505050565b6159db81616740565b82525050565b6159ea81616740565b82525050565b6159f9816167d3565b82525050565b615a088161675e565b82525050565b615a178161675e565b82525050565b615a268161676b565b82525050565b6000615a38828461558d565b915081905092915050565b6000615a4f828461565d565b915081905092915050565b6000615a6582615760565b9150615a718285615504565b602082019150615a818284615504565b6020820191508190509392505050565b6000602082019050615aa66000830184615322565b92915050565b6000604082019050615ac16000830185615322565b615ace6020830184615322565b9392505050565b6000604082019050615aea6000830185615322565b615af760208301846159e1565b9392505050565b60006080820190508181036000830152615b188187615331565b90508181036020830152615b2c8186615479565b90508181036040830152615b40818561538f565b9050615b4f60608301846154f5565b95945050505050565b600060a0820190508181036000830152615b728188615331565b90508181036020830152615b868187615479565b90508181036040830152615b9a818661538f565b9050615ba960608301856155dc565b615bb660808301846154f5565b9695505050505050565b600060c0820190508181036000830152615bda8189615331565b90508181036020830152615bee8188615479565b90508181036040830152615c02818761538f565b9050615c1160608301866155dc565b615c1e60808301856154f5565b615c2b60a08301846159e1565b979650505050505050565b60006080820190508181036000830152615c508187615331565b90508181036020830152615c648186615479565b90508181036040830152615c788185615404565b90508181036060830152615c8c818461538f565b905095945050505050565b6000602082019050615cac60008301846154e6565b92915050565b6000602082019050615cc760008301846154f5565b92915050565b600060a082019050615ce260008301886154f5565b615cef60208301876154f5565b615cfc60408301866154f5565b615d0960608301856159e1565b615d166080830184615322565b9695505050505050565b6000606082019050615d3560008301866154f5565b615d4260208301856159e1565b615d4f6040830184615a0e565b949350505050565b6000608082019050615d6c60008301876154f5565b615d796020830186615a0e565b615d8660408301856154f5565b615d9360608301846154f5565b95945050505050565b60006020820190508181036000830152615db68184615554565b905092915050565b6000602082019050615dd360008301846155be565b92915050565b6000602082019050615dee60008301846155cd565b92915050565b60006020820190508181036000830152615e0e8184615624565b905092915050565b60006020820190508181036000830152615e2f8161568e565b9050919050565b60006020820190508181036000830152615e4f816156b1565b9050919050565b60006020820190508181036000830152615e6f816156d4565b9050919050565b60006020820190508181036000830152615e8f816156f7565b9050919050565b60006020820190508181036000830152615eaf8161571a565b9050919050565b60006020820190508181036000830152615ecf8161573d565b9050919050565b60006020820190508181036000830152615eef81615783565b9050919050565b60006020820190508181036000830152615f0f816157a6565b9050919050565b60006020820190508181036000830152615f2f816157c9565b9050919050565b60006020820190508181036000830152615f4f816157ec565b9050919050565b60006020820190508181036000830152615f6f8161580f565b9050919050565b60006020820190508181036000830152615f8f81615832565b9050919050565b60006020820190508181036000830152615faf81615855565b9050919050565b60006020820190508181036000830152615fcf81615878565b9050919050565b60006020820190508181036000830152615fef8161589b565b9050919050565b6000602082019050818103600083015261600f816158be565b9050919050565b6000602082019050818103600083015261602f816158e1565b9050919050565b6000602082019050818103600083015261604f81615904565b9050919050565b6000602082019050818103600083015261606f81615927565b9050919050565b6000602082019050818103600083015261608f8161594a565b9050919050565b600060208201905081810360008301526160af8161596d565b9050919050565b60006060820190506160cb6000830184615990565b92915050565b60006020820190506160e660008301846159e1565b92915050565b600061012082019050616102600083018c6159e1565b61610f602083018b615322565b8181036040830152616121818a615331565b905081810360608301526161358189615479565b905081810360808301526161498188615404565b905081810360a083015261615d818761538f565b905061616c60c08301866159f0565b61617960e08301856159f0565b81810361010083015261618c8184615624565b90509a9950505050505050505050565b6000610140820190506161b2600083018d6159e1565b6161bf602083018c615322565b6161cc604083018b6159e1565b6161d9606083018a6159e1565b6161e660808301896159e1565b6161f360a08301886159e1565b61620060c08301876159e1565b61620d60e08301866159e1565b61621b6101008301856154e6565b6162296101208301846154e6565b9b9a5050505050505050505050565b600060408201905061624d60008301856159e1565b61625a60208301846159e1565b9392505050565b600060808201905061627660008301876159e1565b6162836020830186615a0e565b61629060408301856159e1565b81810360608301526162a28184615624565b905095945050505050565b60006162b76162c8565b90506162c38282616859565b919050565b6000604051905090565b600067ffffffffffffffff8211156162ed576162ec616999565b5b602082029050602081019050919050565b600067ffffffffffffffff82111561631957616318616999565b5b602082029050602081019050919050565b600067ffffffffffffffff82111561634557616344616999565b5b602082029050602081019050919050565b600067ffffffffffffffff82111561637157616370616999565b5b602082029050602081019050919050565b600067ffffffffffffffff82111561639d5761639c616999565b5b6163a6826169c8565b9050602081019050919050565b600067ffffffffffffffff8211156163ce576163cd616999565b5b6163d7826169c8565b9050602081019050919050565b6000819050602082019050919050565b6000819050602082019050919050565b6000819050602082019050919050565b6000819050602082019050919050565b600081519050919050565b600081519050919050565b600081519050919050565b600081519050919050565b600081519050919050565b600081519050919050565b6000602082019050919050565b6000602082019050919050565b6000602082019050919050565b6000602082019050919050565b600082825260208201905092915050565b600082825260208201905092915050565b600082825260208201905092915050565b600082825260208201905092915050565b600082825260208201905092915050565b600082825260208201905092915050565b600081905092915050565b600082825260208201905092915050565b600082825260208201905092915050565b600081905092915050565b600061654382616740565b915061654e83616740565b9250827fffffffffffffffffffffffffffffffffffffffffffffffffffffffffffffffff03821115616583576165826168dd565b5b828201905092915050565b60006165998261674a565b91506165a48361674a565b92508267ffffffffffffffff038211156165c1576165c06168dd565b5b828201905092915050565b60006165d782616740565b91506165e283616740565b9250826165f2576165f161690c565b5b828204905092915050565b600061660882616740565b915061661383616740565b9250817fffffffffffffffffffffffffffffffffffffffffffffffffffffffffffffffff048311821515161561664c5761664b6168dd565b5b828202905092915050565b600061666282616740565b915061666d83616740565b9250828210156166805761667f6168dd565b5b828203905092915050565b600061669682616720565b9050919050565b60006166a882616720565b9050919050565b60008115159050919050565b6000819050919050565b60007fffffffff0000000000000000000000000000000000000000000000000000000082169050919050565b60006166fc8261669d565b9050919050565b600081905061671182616fcc565b919050565b6000819050919050565b600073ffffffffffffffffffffffffffffffffffffffff82169050919050565b6000819050919050565b600067ffffffffffffffff82169050919050565b600060ff82169050919050565b60006bffffffffffffffffffffffff82169050919050565b600061678e82616795565b9050919050565b60006167a082616720565b9050919050565b60006167b282616703565b9050919050565b60006167cc6167c783616716565b6169d9565b9050919050565b60006167de8261674a565b9050919050565b82818337600083830152505050565b60005b838110156168125780820151818401526020810190506167f7565b83811115616821576000848401525b50505050565b6000600282049050600182168061683f57607f821691505b602082108114156168535761685261696a565b5b50919050565b616862826169c8565b810181811067ffffffffffffffff8211171561688157616880616999565b5b80604052505050565b600061689582616740565b91507fffffffffffffffffffffffffffffffffffffffffffffffffffffffffffffffff8214156168c8576168c76168dd565b5b600182019050919050565b6000819050919050565b7f4e487b7100000000000000000000000000000000000000000000000000000000600052601160045260246000fd5b7f4e487b7100000000000000000000000000000000000000000000000000000000600052601260045260246000fd5b7f4e487b7100000000000000000000000000000000000000000000000000000000600052602160045260246000fd5b7f4e487b7100000000000000000000000000000000000000000000000000000000600052602260045260246000fd5b7f4e487b7100000000000000000000000000000000000000000000000000000000600052604160045260246000fd5b6000601f19601f8301169050919050565b60008160001b9050919050565b7f45434453413a20696e76616c6964207369676e61747572650000000000000000600082015250565b7f476f7665726e6f723a206f6e6c79476f7665726e616e63650000000000000000600082015250565b7f476f7665726e6f72566f74657351756f72756d4672616374696f6e3a2071756f60008201527f72756d4e756d657261746f72206f7665722071756f72756d44656e6f6d696e6160208201527f746f720000000000000000000000000000000000000000000000000000000000604082015250565b7f53616665436173743a2076616c756520646f65736e27742066697420696e203960008201527f3620626974730000000000000000000000000000000000000000000000000000602082015250565b7f476f7665726e6f72436f6d7061746962696c697479427261766f3a2070726f7060008201527f6f73657220766f7465732062656c6f772070726f706f73616c2074687265736860208201527f6f6c640000000000000000000000000000000000000000000000000000000000604082015250565b7f45434453413a20696e76616c6964207369676e6174757265206c656e67746800600082015250565b7f1901000000000000000000000000000000000000000000000000000000000000600082015250565b7f476f7665726e6f723a20696e76616c69642070726f706f73616c206c656e677460008201527f6800000000000000000000000000000000000000000000000000000000000000602082015250565b7f45434453413a20696e76616c6964207369676e6174757265202773272076616c60008201527f7565000000000000000000000000000000000000000000000000000000000000602082015250565b7f416464726573733a20696e73756666696369656e742062616c616e636520666f60008201527f722063616c6c0000000000000000000000000000000000000000000000000000602082015250565b7f476f7665726e6f723a20766f7465206e6f742063757272656e746c792061637460008201527f6976650000000000000000000000000000000000000000000000000000000000602082015250565b7f476f7665726e6f723a20656d7074792070726f706f73616c0000000000000000600082015250565b7f45434453413a20696e76616c6964207369676e6174757265202776272076616c60008201527f7565000000000000000000000000000000000000000000000000000000000000602082015250565b7f53616665436173743a2076616c756520646f65736e27742066697420696e203660008201527f3420626974730000000000000000000000000000000000000000000000000000602082015250565b7f476f7665726e6f723a2070726f706f73616c206e6f7420616374697665000000600082015250565b7f476f7665726e6f723a2070726f706f73616c206e6f742073756363657373667560008201527f6c00000000000000000000000000000000000000000000000000000000000000602082015250565b7f476f7665726e6f72436f6d7061746962696c697479427261766f3a20696e766160008201527f6c696420766f7465207479706500000000000000000000000000000000000000602082015250565b7f476f7665726e6f723a20756e6b6e6f776e2070726f706f73616c206964000000600082015250565b7f476f7665726e6f723a2070726f706f73616c20616c726561647920657869737460008201527f7300000000000000000000000000000000000000000000000000000000000000602082015250565b7f416464726573733a2063616c6c20746f206e6f6e2d636f6e7472616374000000600082015250565b7f476f7665726e6f72427261766f3a2070726f706f7365722061626f766520746860008201527f726573686f6c6400000000000000000000000000000000000000000000000000602082015250565b7f476f7665726e6f72436f6d7061746962696c697479427261766f3a20766f746560008201527f20616c7265616479206361737400000000000000000000000000000000000000602082015250565b60088110616fdd57616fdc61693b565b5b50565b616fe98161668b565b8114616ff457600080fd5b50565b617000816166af565b811461700b57600080fd5b50565b617017816166bb565b811461702257600080fd5b50565b61702e816166c5565b811461703957600080fd5b50565b617045816166f1565b811461705057600080fd5b50565b61705c81616740565b811461706757600080fd5b50565b6170738161675e565b811461707e57600080fd5b5056fe416464726573733a206c6f772d6c6576656c2063616c6c20776974682076616c7565206661696c6564a26469706673582212200f9eae79c13bfa23bc7ac29ebd39481d3f53a2589113a081b550be22ea6b1b8a64736f6c63430008020033",
  "linkReferences": {},
  "deployedLinkReferences": {}
}