{
  "_format": "hh-sol-artifact-1",
  "contractName": "CountersImpl",
  "sourceName": "contracts/OZ/mocks/CountersImpl.sol",
  "abi": [
    {
      "inputs": [],
      "name": "current",
      "outputs": [
        {
          "internalType": "uint256",
          "name": "",
          "type": "uint256"
        }
      ],
      "stateMutability": "view",
      "type": "function"
    },
    {
      "inputs": [],
      "name": "decrement",
      "outputs": [],
      "stateMutability": "nonpayable",
      "type": "function"
    },
    {
      "inputs": [],
      "name": "increment",
      "outputs": [],
      "stateMutability": "nonpayable",
      "type": "function"
    },
    {
      "inputs": [],
      "name": "reset",
      "outputs": [],
      "stateMutability": "nonpayable",
      "type": "function"
    }
  ],
  "bytecode": "0x608060405234801561001057600080fd5b50610236806100206000396000f3fe608060405234801561001057600080fd5b506004361061004c5760003560e01c80632baeceb7146100515780639fa6a6e31461005b578063d09de08a14610079578063d826f88f14610083575b600080fd5b61005961008d565b005b610063610099565b60405161007091906101a1565b60405180910390f35b6100816100aa565b005b61008b6100b6565b005b61009760006100c2565b565b60006100a5600061011e565b905090565b6100b4600061012c565b565b6100c06000610142565b565b6000816000015490506000811161010e576040517f08c379a000000000000000000000000000000000000000000000000000000000815260040161010590610181565b60405180910390fd5b6001810382600001819055505050565b600081600001549050919050565b6001816000016000828254019250508190555050565b6000816000018190555050565b600061015c601b836101bc565b9150610167826101d7565b602082019050919050565b61017b816101cd565b82525050565b6000602082019050818103600083015261019a8161014f565b9050919050565b60006020820190506101b66000830184610172565b92915050565b600082825260208201905092915050565b6000819050919050565b7f436f756e7465723a2064656372656d656e74206f766572666c6f77000000000060008201525056fea2646970667358221220a7874acb90d6a13f38147ed0b08eec72be0e22d34f1ebcabe25606b5bb45a8e664736f6c63430008020033",
  "linkReferences": {},
  "deployedLinkReferences": {}
}