{
  "_format": "hh-sol-artifact-1",
  "contractName": "ERC1155SupplyMock",
  "sourceName": "contracts/OZ/mocks/ERC1155SupplyMock.sol",
  "abi": [
    {
      "inputs": [
        {
          "internalType": "string",
          "name": "uri",
          "type": "string"
        }
      ],
      "stateMutability": "nonpayable",
      "type": "constructor"
    },
    {
      "anonymous": false,
      "inputs": [
        {
          "indexed": true,
          "internalType": "address",
          "name": "account",
          "type": "address"
        },
        {
          "indexed": true,
          "internalType": "address",
          "name": "operator",
          "type": "address"
        },
        {
          "indexed": false,
          "internalType": "bool",
          "name": "approved",
          "type": "bool"
        }
      ],
      "name": "ApprovalForAll",
      "type": "event"
    },
    {
      "anonymous": false,
      "inputs": [
        {
          "indexed": true,
          "internalType": "address",
          "name": "operator",
          "type": "address"
        },
        {
          "indexed": true,
          "internalType": "address",
          "name": "from",
          "type": "address"
        },
        {
          "indexed": true,
          "internalType": "address",
          "name": "to",
          "type": "address"
        },
        {
          "indexed": false,
          "internalType": "uint256[]",
          "name": "ids",
          "type": "uint256[]"
        },
        {
          "indexed": false,
          "internalType": "uint256[]",
          "name": "values",
          "type": "uint256[]"
        }
      ],
      "name": "TransferBatch",
      "type": "event"
    },
    {
      "anonymous": false,
      "inputs": [
        {
          "indexed": true,
          "internalType": "address",
          "name": "operator",
          "type": "address"
        },
        {
          "indexed": true,
          "internalType": "address",
          "name": "from",
          "type": "address"
        },
        {
          "indexed": true,
          "internalType": "address",
          "name": "to",
          "type": "address"
        },
        {
          "indexed": false,
          "internalType": "uint256",
          "name": "id",
          "type": "uint256"
        },
        {
          "indexed": false,
          "internalType": "uint256",
          "name": "value",
          "type": "uint256"
        }
      ],
      "name": "TransferSingle",
      "type": "event"
    },
    {
      "anonymous": false,
      "inputs": [
        {
          "indexed": false,
          "internalType": "string",
          "name": "value",
          "type": "string"
        },
        {
          "indexed": true,
          "internalType": "uint256",
          "name": "id",
          "type": "uint256"
        }
      ],
      "name": "URI",
      "type": "event"
    },
    {
      "inputs": [
        {
          "internalType": "address",
          "name": "account",
          "type": "address"
        },
        {
          "internalType": "uint256",
          "name": "id",
          "type": "uint256"
        }
      ],
      "name": "balanceOf",
      "outputs": [
        {
          "internalType": "uint256",
          "name": "",
          "type": "uint256"
        }
      ],
      "stateMutability": "view",
      "type": "function"
    },
    {
      "inputs": [
        {
          "internalType": "address[]",
          "name": "accounts",
          "type": "address[]"
        },
        {
          "internalType": "uint256[]",
          "name": "ids",
          "type": "uint256[]"
        }
      ],
      "name": "balanceOfBatch",
      "outputs": [
        {
          "internalType": "uint256[]",
          "name": "",
          "type": "uint256[]"
        }
      ],
      "stateMutability": "view",
      "type": "function"
    },
    {
      "inputs": [
        {
          "internalType": "address",
          "name": "owner",
          "type": "address"
        },
        {
          "internalType": "uint256",
          "name": "id",
          "type": "uint256"
        },
        {
          "internalType": "uint256",
          "name": "value",
          "type": "uint256"
        }
      ],
      "name": "burn",
      "outputs": [],
      "stateMutability": "nonpayable",
      "type": "function"
    },
    {
      "inputs": [
        {
          "internalType": "address",
          "name": "owner",
          "type": "address"
        },
        {
          "internalType": "uint256[]",
          "name": "ids",
          "type": "uint256[]"
        },
        {
          "internalType": "uint256[]",
          "name": "values",
          "type": "uint256[]"
        }
      ],
      "name": "burnBatch",
      "outputs": [],
      "stateMutability": "nonpayable",
      "type": "function"
    },
    {
      "inputs": [
        {
          "internalType": "uint256",
          "name": "id",
          "type": "uint256"
        }
      ],
      "name": "exists",
      "outputs": [
        {
          "internalType": "bool",
          "name": "",
          "type": "bool"
        }
      ],
      "stateMutability": "view",
      "type": "function"
    },
    {
      "inputs": [
        {
          "internalType": "address",
          "name": "account",
          "type": "address"
        },
        {
          "internalType": "address",
          "name": "operator",
          "type": "address"
        }
      ],
      "name": "isApprovedForAll",
      "outputs": [
        {
          "internalType": "bool",
          "name": "",
          "type": "bool"
        }
      ],
      "stateMutability": "view",
      "type": "function"
    },
    {
      "inputs": [
        {
          "internalType": "address",
          "name": "to",
          "type": "address"
        },
        {
          "internalType": "uint256",
          "name": "id",
          "type": "uint256"
        },
        {
          "internalType": "uint256",
          "name": "value",
          "type": "uint256"
        },
        {
          "internalType": "bytes",
          "name": "data",
          "type": "bytes"
        }
      ],
      "name": "mint",
      "outputs": [],
      "stateMutability": "nonpayable",
      "type": "function"
    },
    {
      "inputs": [
        {
          "internalType": "address",
          "name": "to",
          "type": "address"
        },
        {
          "internalType": "uint256[]",
          "name": "ids",
          "type": "uint256[]"
        },
        {
          "internalType": "uint256[]",
          "name": "values",
          "type": "uint256[]"
        },
        {
          "internalType": "bytes",
          "name": "data",
          "type": "bytes"
        }
      ],
      "name": "mintBatch",
      "outputs": [],
      "stateMutability": "nonpayable",
      "type": "function"
    },
    {
      "inputs": [
        {
          "internalType": "address",
          "name": "from",
          "type": "address"
        },
        {
          "internalType": "address",
          "name": "to",
          "type": "address"
        },
        {
          "internalType": "uint256[]",
          "name": "ids",
          "type": "uint256[]"
        },
        {
          "internalType": "uint256[]",
          "name": "amounts",
          "type": "uint256[]"
        },
        {
          "internalType": "bytes",
          "name": "data",
          "type": "bytes"
        }
      ],
      "name": "safeBatchTransferFrom",
      "outputs": [],
      "stateMutability": "nonpayable",
      "type": "function"
    },
    {
      "inputs": [
        {
          "internalType": "address",
          "name": "from",
          "type": "address"
        },
        {
          "internalType": "address",
          "name": "to",
          "type": "address"
        },
        {
          "internalType": "uint256",
          "name": "id",
          "type": "uint256"
        },
        {
          "internalType": "uint256",
          "name": "amount",
          "type": "uint256"
        },
        {
          "internalType": "bytes",
          "name": "data",
          "type": "bytes"
        }
      ],
      "name": "safeTransferFrom",
      "outputs": [],
      "stateMutability": "nonpayable",
      "type": "function"
    },
    {
      "inputs": [
        {
          "internalType": "address",
          "name": "operator",
          "type": "address"
        },
        {
          "internalType": "bool",
          "name": "approved",
          "type": "bool"
        }
      ],
      "name": "setApprovalForAll",
      "outputs": [],
      "stateMutability": "nonpayable",
      "type": "function"
    },
    {
      "inputs": [
        {
          "internalType": "string",
          "name": "newuri",
          "type": "string"
        }
      ],
      "name": "setURI",
      "outputs": [],
      "stateMutability": "nonpayable",
      "type": "function"
    },
    {
      "inputs": [
        {
          "internalType": "bytes4",
          "name": "interfaceId",
          "type": "bytes4"
        }
      ],
      "name": "supportsInterface",
      "outputs": [
        {
          "internalType": "bool",
          "name": "",
          "type": "bool"
        }
      ],
      "stateMutability": "view",
      "type": "function"
    },
    {
      "inputs": [
        {
          "internalType": "uint256",
          "name": "id",
          "type": "uint256"
        }
      ],
      "name": "totalSupply",
      "outputs": [
        {
          "internalType": "uint256",
          "name": "",
          "type": "uint256"
        }
      ],
      "stateMutability": "view",
      "type": "function"
    },
    {
      "inputs": [
        {
          "internalType": "uint256",
          "name": "",
          "type": "uint256"
        }
      ],
      "name": "uri",
      "outputs": [
        {
          "internalType": "string",
          "name": "",
          "type": "string"
        }
      ],
      "stateMutability": "view",
      "type": "function"
    }
  ],
  "bytecode": "0x60806040523480156200001157600080fd5b5060405162003c2938038062003c29833981810160405281019062000037919062000191565b80806200004a816200005360201b60201c565b50505062000346565b80600290805190602001906200006b9291906200006f565b5050565b8280546200007d906200026b565b90600052602060002090601f016020900481019282620000a15760008555620000ed565b82601f10620000bc57805160ff1916838001178555620000ed565b82800160010185558215620000ed579182015b82811115620000ec578251825591602001919060010190620000cf565b5b509050620000fc919062000100565b5090565b5b808211156200011b57600081600090555060010162000101565b5090565b6000620001366200013084620001ff565b620001d6565b9050828152602081018484840111156200014f57600080fd5b6200015c84828562000235565b509392505050565b600082601f8301126200017657600080fd5b8151620001888482602086016200011f565b91505092915050565b600060208284031215620001a457600080fd5b600082015167ffffffffffffffff811115620001bf57600080fd5b620001cd8482850162000164565b91505092915050565b6000620001e2620001f5565b9050620001f08282620002a1565b919050565b6000604051905090565b600067ffffffffffffffff8211156200021d576200021c62000306565b5b620002288262000335565b9050602081019050919050565b60005b838110156200025557808201518184015260208101905062000238565b8381111562000265576000848401525b50505050565b600060028204905060018216806200028457607f821691505b602082108114156200029b576200029a620002d7565b5b50919050565b620002ac8262000335565b810181811067ffffffffffffffff82111715620002ce57620002cd62000306565b5b80604052505050565b7f4e487b7100000000000000000000000000000000000000000000000000000000600052602260045260246000fd5b7f4e487b7100000000000000000000000000000000000000000000000000000000600052604160045260246000fd5b6000601f19601f8301169050919050565b6138d380620003566000396000f3fe608060405234801561001057600080fd5b50600436106100f45760003560e01c80634f558e7911610097578063bd85b03911610066578063bd85b03914610291578063e985e9c5146102c1578063f242432a146102f1578063f5298aca1461030d576100f4565b80634f558e791461020d5780636b20c4541461023d578063731133e914610259578063a22cb46514610275576100f4565b80630e89341c116100d35780630e89341c146101755780631f7fdffa146101a55780632eb2c2d6146101c15780634e1273f4146101dd576100f4565b8062fdd58e146100f957806301ffc9a71461012957806302fe530514610159575b600080fd5b610113600480360381019061010e919061274a565b610329565b6040516101209190612f5b565b60405180910390f35b610143600480360381019061013e91906128bc565b6103f2565b6040516101509190612d7e565b60405180910390f35b610173600480360381019061016e919061290e565b6104d4565b005b61018f600480360381019061018a919061294f565b6104e0565b60405161019c9190612d99565b60405180910390f35b6101bf60048036038101906101ba9190612663565b610574565b005b6101db60048036038101906101d69190612496565b610586565b005b6101f760048036038101906101f29190612850565b610627565b6040516102049190612d25565b60405180910390f35b6102276004803603810190610222919061294f565b6107d8565b6040516102349190612d7e565b60405180910390f35b610257600480360381019061025291906125e4565b6107ec565b005b610273600480360381019061026e91906127d5565b6107fc565b005b61028f600480360381019061028a919061270e565b61080e565b005b6102ab60048036038101906102a6919061294f565b610824565b6040516102b89190612f5b565b60405180910390f35b6102db60048036038101906102d6919061245a565b610841565b6040516102e89190612d7e565b60405180910390f35b61030b60048036038101906103069190612555565b6108d5565b005b61032760048036038101906103229190612786565b610976565b005b60008073ffffffffffffffffffffffffffffffffffffffff168373ffffffffffffffffffffffffffffffffffffffff16141561039a576040517f08c379a000000000000000000000000000000000000000000000000000000000815260040161039190612dfb565b60405180910390fd5b60008083815260200190815260200160002060008473ffffffffffffffffffffffffffffffffffffffff1673ffffffffffffffffffffffffffffffffffffffff16815260200190815260200160002054905092915050565b60007fd9b67a26000000000000000000000000000000000000000000000000000000007bffffffffffffffffffffffffffffffffffffffffffffffffffffffff1916827bffffffffffffffffffffffffffffffffffffffffffffffffffffffff191614806104bd57507f0e89341c000000000000000000000000000000000000000000000000000000007bffffffffffffffffffffffffffffffffffffffffffffffffffffffff1916827bffffffffffffffffffffffffffffffffffffffffffffffffffffffff1916145b806104cd57506104cc82610986565b5b9050919050565b6104dd816109f0565b50565b6060600280546104ef9061322f565b80601f016020809104026020016040519081016040528092919081815260200182805461051b9061322f565b80156105685780601f1061053d57610100808354040283529160200191610568565b820191906000526020600020905b81548152906001019060200180831161054b57829003601f168201915b50505050509050919050565b61058084848484610a0a565b50505050565b61058e610c74565b73ffffffffffffffffffffffffffffffffffffffff168573ffffffffffffffffffffffffffffffffffffffff1614806105d457506105d3856105ce610c74565b610841565b5b610613576040517f08c379a000000000000000000000000000000000000000000000000000000000815260040161060a90612e7b565b60405180910390fd5b6106208585858585610c7c565b5050505050565b6060815183511461066d576040517f08c379a000000000000000000000000000000000000000000000000000000000815260040161066490612efb565b60405180910390fd5b6000835167ffffffffffffffff8111156106b0577f4e487b7100000000000000000000000000000000000000000000000000000000600052604160045260246000fd5b6040519080825280602002602001820160405280156106de5781602001602082028036833780820191505090505b50905060005b84518110156107cd57610777858281518110610729577f4e487b7100000000000000000000000000000000000000000000000000000000600052603260045260246000fd5b602002602001015185838151811061076a577f4e487b7100000000000000000000000000000000000000000000000000000000600052603260045260246000fd5b6020026020010151610329565b8282815181106107b0577f4e487b7100000000000000000000000000000000000000000000000000000000600052603260045260246000fd5b602002602001018181525050806107c690613292565b90506106e4565b508091505092915050565b6000806107e483610824565b119050919050565b6107f7838383610fdc565b505050565b610808848484846112d9565b50505050565b610820610819610c74565b838361146f565b5050565b600060036000838152602001908152602001600020549050919050565b6000600160008473ffffffffffffffffffffffffffffffffffffffff1673ffffffffffffffffffffffffffffffffffffffff16815260200190815260200160002060008373ffffffffffffffffffffffffffffffffffffffff1673ffffffffffffffffffffffffffffffffffffffff16815260200190815260200160002060009054906101000a900460ff16905092915050565b6108dd610c74565b73ffffffffffffffffffffffffffffffffffffffff168573ffffffffffffffffffffffffffffffffffffffff16148061092357506109228561091d610c74565b610841565b5b610962576040517f08c379a000000000000000000000000000000000000000000000000000000000815260040161095990612e3b565b60405180910390fd5b61096f85858585856115dc565b5050505050565b61098183838361185e565b505050565b60007f01ffc9a7000000000000000000000000000000000000000000000000000000007bffffffffffffffffffffffffffffffffffffffffffffffffffffffff1916827bffffffffffffffffffffffffffffffffffffffffffffffffffffffff1916149050919050565b8060029080519060200190610a06929190612152565b5050565b600073ffffffffffffffffffffffffffffffffffffffff168473ffffffffffffffffffffffffffffffffffffffff161415610a7a576040517f08c379a0000000000000000000000000000000000000000000000000000000008152600401610a7190612f3b565b60405180910390fd5b8151835114610abe576040517f08c379a0000000000000000000000000000000000000000000000000000000008152600401610ab590612f1b565b60405180910390fd5b6000610ac8610c74565b9050610ad981600087878787611a7b565b60005b8451811015610bde57838181518110610b1e577f4e487b7100000000000000000000000000000000000000000000000000000000600052603260045260246000fd5b6020026020010151600080878481518110610b62577f4e487b7100000000000000000000000000000000000000000000000000000000600052603260045260246000fd5b6020026020010151815260200190815260200160002060008873ffffffffffffffffffffffffffffffffffffffff1673ffffffffffffffffffffffffffffffffffffffff1681526020019081526020016000206000828254610bc491906130ef565b925050819055508080610bd690613292565b915050610adc565b508473ffffffffffffffffffffffffffffffffffffffff16600073ffffffffffffffffffffffffffffffffffffffff168273ffffffffffffffffffffffffffffffffffffffff167f4a39dc06d4c0dbc64b70af90fd698a233a518aa5d07e595d983b8c0526c8f7fb8787604051610c56929190612d47565b60405180910390a4610c6d81600087878787611a91565b5050505050565b600033905090565b8151835114610cc0576040517f08c379a0000000000000000000000000000000000000000000000000000000008152600401610cb790612f1b565b60405180910390fd5b600073ffffffffffffffffffffffffffffffffffffffff168473ffffffffffffffffffffffffffffffffffffffff161415610d30576040517f08c379a0000000000000000000000000000000000000000000000000000000008152600401610d2790612e5b565b60405180910390fd5b6000610d3a610c74565b9050610d4a818787878787611a7b565b60005b8451811015610f47576000858281518110610d91577f4e487b7100000000000000000000000000000000000000000000000000000000600052603260045260246000fd5b602002602001015190506000858381518110610dd6577f4e487b7100000000000000000000000000000000000000000000000000000000600052603260045260246000fd5b60200260200101519050600080600084815260200190815260200160002060008b73ffffffffffffffffffffffffffffffffffffffff1673ffffffffffffffffffffffffffffffffffffffff16815260200190815260200160002054905081811015610e77576040517f08c379a0000000000000000000000000000000000000000000000000000000008152600401610e6e90612ebb565b60405180910390fd5b81810360008085815260200190815260200160002060008c73ffffffffffffffffffffffffffffffffffffffff1673ffffffffffffffffffffffffffffffffffffffff168152602001908152602001600020819055508160008085815260200190815260200160002060008b73ffffffffffffffffffffffffffffffffffffffff1673ffffffffffffffffffffffffffffffffffffffff1681526020019081526020016000206000828254610f2c91906130ef565b9250508190555050505080610f4090613292565b9050610d4d565b508473ffffffffffffffffffffffffffffffffffffffff168673ffffffffffffffffffffffffffffffffffffffff168273ffffffffffffffffffffffffffffffffffffffff167f4a39dc06d4c0dbc64b70af90fd698a233a518aa5d07e595d983b8c0526c8f7fb8787604051610fbe929190612d47565b60405180910390a4610fd4818787878787611a91565b505050505050565b600073ffffffffffffffffffffffffffffffffffffffff168373ffffffffffffffffffffffffffffffffffffffff16141561104c576040517f08c379a000000000000000000000000000000000000000000000000000000000815260040161104390612e9b565b60405180910390fd5b8051825114611090576040517f08c379a000000000000000000000000000000000000000000000000000000000815260040161108790612f1b565b60405180910390fd5b600061109a610c74565b90506110ba81856000868660405180602001604052806000815250611a7b565b60005b8351811015611253576000848281518110611101577f4e487b7100000000000000000000000000000000000000000000000000000000600052603260045260246000fd5b602002602001015190506000848381518110611146577f4e487b7100000000000000000000000000000000000000000000000000000000600052603260045260246000fd5b60200260200101519050600080600084815260200190815260200160002060008973ffffffffffffffffffffffffffffffffffffffff1673ffffffffffffffffffffffffffffffffffffffff168152602001908152602001600020549050818110156111e7576040517f08c379a00000000000000000000000000000000000000000000000000000000081526004016111de90612e1b565b60405180910390fd5b81810360008085815260200190815260200160002060008a73ffffffffffffffffffffffffffffffffffffffff1673ffffffffffffffffffffffffffffffffffffffff16815260200190815260200160002081905550505050808061124b90613292565b9150506110bd565b50600073ffffffffffffffffffffffffffffffffffffffff168473ffffffffffffffffffffffffffffffffffffffff168273ffffffffffffffffffffffffffffffffffffffff167f4a39dc06d4c0dbc64b70af90fd698a233a518aa5d07e595d983b8c0526c8f7fb86866040516112cb929190612d47565b60405180910390a450505050565b600073ffffffffffffffffffffffffffffffffffffffff168473ffffffffffffffffffffffffffffffffffffffff161415611349576040517f08c379a000000000000000000000000000000000000000000000000000000000815260040161134090612f3b565b60405180910390fd5b6000611353610c74565b90506113748160008761136588611c78565b61136e88611c78565b87611a7b565b8260008086815260200190815260200160002060008773ffffffffffffffffffffffffffffffffffffffff1673ffffffffffffffffffffffffffffffffffffffff16815260200190815260200160002060008282546113d391906130ef565b925050819055508473ffffffffffffffffffffffffffffffffffffffff16600073ffffffffffffffffffffffffffffffffffffffff168273ffffffffffffffffffffffffffffffffffffffff167fc3d58168c5ae7397731d063d5bbf3d657854427343f4c083240f7aacaa2d0f628787604051611451929190612f76565b60405180910390a461146881600087878787611d3e565b5050505050565b8173ffffffffffffffffffffffffffffffffffffffff168373ffffffffffffffffffffffffffffffffffffffff1614156114de576040517f08c379a00000000000000000000000000000000000000000000000000000000081526004016114d590612edb565b60405180910390fd5b80600160008573ffffffffffffffffffffffffffffffffffffffff1673ffffffffffffffffffffffffffffffffffffffff16815260200190815260200160002060008473ffffffffffffffffffffffffffffffffffffffff1673ffffffffffffffffffffffffffffffffffffffff16815260200190815260200160002060006101000a81548160ff0219169083151502179055508173ffffffffffffffffffffffffffffffffffffffff168373ffffffffffffffffffffffffffffffffffffffff167f17307eab39ab6107e8899845ad3d59bd9653f200f220920489ca2b5937696c31836040516115cf9190612d7e565b60405180910390a3505050565b600073ffffffffffffffffffffffffffffffffffffffff168473ffffffffffffffffffffffffffffffffffffffff16141561164c576040517f08c379a000000000000000000000000000000000000000000000000000000000815260040161164390612e5b565b60405180910390fd5b6000611656610c74565b905061167681878761166788611c78565b61167088611c78565b87611a7b565b600080600086815260200190815260200160002060008873ffffffffffffffffffffffffffffffffffffffff1673ffffffffffffffffffffffffffffffffffffffff1681526020019081526020016000205490508381101561170d576040517f08c379a000000000000000000000000000000000000000000000000000000000815260040161170490612ebb565b60405180910390fd5b83810360008087815260200190815260200160002060008973ffffffffffffffffffffffffffffffffffffffff1673ffffffffffffffffffffffffffffffffffffffff168152602001908152602001600020819055508360008087815260200190815260200160002060008873ffffffffffffffffffffffffffffffffffffffff1673ffffffffffffffffffffffffffffffffffffffff16815260200190815260200160002060008282546117c291906130ef565b925050819055508573ffffffffffffffffffffffffffffffffffffffff168773ffffffffffffffffffffffffffffffffffffffff168373ffffffffffffffffffffffffffffffffffffffff167fc3d58168c5ae7397731d063d5bbf3d657854427343f4c083240f7aacaa2d0f62888860405161183f929190612f76565b60405180910390a4611855828888888888611d3e565b50505050505050565b600073ffffffffffffffffffffffffffffffffffffffff168373ffffffffffffffffffffffffffffffffffffffff1614156118ce576040517f08c379a00000000000000000000000000000000000000000000000000000000081526004016118c590612e9b565b60405180910390fd5b60006118d8610c74565b9050611908818560006118ea87611c78565b6118f387611c78565b60405180602001604052806000815250611a7b565b600080600085815260200190815260200160002060008673ffffffffffffffffffffffffffffffffffffffff1673ffffffffffffffffffffffffffffffffffffffff1681526020019081526020016000205490508281101561199f576040517f08c379a000000000000000000000000000000000000000000000000000000000815260040161199690612e1b565b60405180910390fd5b82810360008086815260200190815260200160002060008773ffffffffffffffffffffffffffffffffffffffff1673ffffffffffffffffffffffffffffffffffffffff16815260200190815260200160002081905550600073ffffffffffffffffffffffffffffffffffffffff168573ffffffffffffffffffffffffffffffffffffffff168373ffffffffffffffffffffffffffffffffffffffff167fc3d58168c5ae7397731d063d5bbf3d657854427343f4c083240f7aacaa2d0f628787604051611a6c929190612f76565b60405180910390a45050505050565b611a89868686868686611f25565b505050505050565b611ab08473ffffffffffffffffffffffffffffffffffffffff16612137565b15611c70578373ffffffffffffffffffffffffffffffffffffffff1663bc197c8187878686866040518663ffffffff1660e01b8152600401611af6959493929190612c63565b602060405180830381600087803b158015611b1057600080fd5b505af1925050508015611b4157506040513d601f19601f82011682018060405250810190611b3e91906128e5565b60015b611be757611b4d613368565b806308c379a01415611baa5750611b626137ab565b80611b6d5750611bac565b806040517f08c379a0000000000000000000000000000000000000000000000000000000008152600401611ba19190612d99565b60405180910390fd5b505b6040517f08c379a0000000000000000000000000000000000000000000000000000000008152600401611bde90612dbb565b60405180910390fd5b63bc197c8160e01b7bffffffffffffffffffffffffffffffffffffffffffffffffffffffff1916817bffffffffffffffffffffffffffffffffffffffffffffffffffffffff191614611c6e576040517f08c379a0000000000000000000000000000000000000000000000000000000008152600401611c6590612ddb565b60405180910390fd5b505b505050505050565b60606000600167ffffffffffffffff811115611cbd577f4e487b7100000000000000000000000000000000000000000000000000000000600052604160045260246000fd5b604051908082528060200260200182016040528015611ceb5781602001602082028036833780820191505090505b5090508281600081518110611d29577f4e487b7100000000000000000000000000000000000000000000000000000000600052603260045260246000fd5b60200260200101818152505080915050919050565b611d5d8473ffffffffffffffffffffffffffffffffffffffff16612137565b15611f1d578373ffffffffffffffffffffffffffffffffffffffff1663f23a6e6187878686866040518663ffffffff1660e01b8152600401611da3959493929190612ccb565b602060405180830381600087803b158015611dbd57600080fd5b505af1925050508015611dee57506040513d601f19601f82011682018060405250810190611deb91906128e5565b60015b611e9457611dfa613368565b806308c379a01415611e575750611e0f6137ab565b80611e1a5750611e59565b806040517f08c379a0000000000000000000000000000000000000000000000000000000008152600401611e4e9190612d99565b60405180910390fd5b505b6040517f08c379a0000000000000000000000000000000000000000000000000000000008152600401611e8b90612dbb565b60405180910390fd5b63f23a6e6160e01b7bffffffffffffffffffffffffffffffffffffffffffffffffffffffff1916817bffffffffffffffffffffffffffffffffffffffffffffffffffffffff191614611f1b576040517f08c379a0000000000000000000000000000000000000000000000000000000008152600401611f1290612ddb565b60405180910390fd5b505b505050505050565b611f3386868686868661214a565b600073ffffffffffffffffffffffffffffffffffffffff168573ffffffffffffffffffffffffffffffffffffffff1614156120315760005b835181101561202f57828181518110611fad577f4e487b7100000000000000000000000000000000000000000000000000000000600052603260045260246000fd5b602002602001015160036000868481518110611ff2577f4e487b7100000000000000000000000000000000000000000000000000000000600052603260045260246000fd5b60200260200101518152602001908152602001600020600082825461201791906130ef565b925050819055508061202890613292565b9050611f6b565b505b600073ffffffffffffffffffffffffffffffffffffffff168473ffffffffffffffffffffffffffffffffffffffff16141561212f5760005b835181101561212d578281815181106120ab577f4e487b7100000000000000000000000000000000000000000000000000000000600052603260045260246000fd5b6020026020010151600360008684815181106120f0577f4e487b7100000000000000000000000000000000000000000000000000000000600052603260045260246000fd5b6020026020010151815260200190815260200160002060008282546121159190613145565b925050819055508061212690613292565b9050612069565b505b505050505050565b600080823b905060008111915050919050565b505050505050565b82805461215e9061322f565b90600052602060002090601f01602090048101928261218057600085556121c7565b82601f1061219957805160ff19168380011785556121c7565b828001600101855582156121c7579182015b828111156121c65782518255916020019190600101906121ab565b5b5090506121d491906121d8565b5090565b5b808211156121f15760008160009055506001016121d9565b5090565b600061220861220384612fc4565b612f9f565b9050808382526020820190508285602086028201111561222757600080fd5b60005b85811015612257578161223d8882612349565b84526020840193506020830192505060018101905061222a565b5050509392505050565b600061227461226f84612ff0565b612f9f565b9050808382526020820190508285602086028201111561229357600080fd5b60005b858110156122c357816122a98882612445565b845260208401935060208301925050600181019050612296565b5050509392505050565b60006122e06122db8461301c565b612f9f565b9050828152602081018484840111156122f857600080fd5b6123038482856131ed565b509392505050565b600061231e6123198461304d565b612f9f565b90508281526020810184848401111561233657600080fd5b6123418482856131ed565b509392505050565b60008135905061235881613841565b92915050565b600082601f83011261236f57600080fd5b813561237f8482602086016121f5565b91505092915050565b600082601f83011261239957600080fd5b81356123a9848260208601612261565b91505092915050565b6000813590506123c181613858565b92915050565b6000813590506123d68161386f565b92915050565b6000815190506123eb8161386f565b92915050565b600082601f83011261240257600080fd5b81356124128482602086016122cd565b91505092915050565b600082601f83011261242c57600080fd5b813561243c84826020860161230b565b91505092915050565b60008135905061245481613886565b92915050565b6000806040838503121561246d57600080fd5b600061247b85828601612349565b925050602061248c85828601612349565b9150509250929050565b600080600080600060a086880312156124ae57600080fd5b60006124bc88828901612349565b95505060206124cd88828901612349565b945050604086013567ffffffffffffffff8111156124ea57600080fd5b6124f688828901612388565b935050606086013567ffffffffffffffff81111561251357600080fd5b61251f88828901612388565b925050608086013567ffffffffffffffff81111561253c57600080fd5b612548888289016123f1565b9150509295509295909350565b600080600080600060a0868803121561256d57600080fd5b600061257b88828901612349565b955050602061258c88828901612349565b945050604061259d88828901612445565b93505060606125ae88828901612445565b925050608086013567ffffffffffffffff8111156125cb57600080fd5b6125d7888289016123f1565b9150509295509295909350565b6000806000606084860312156125f957600080fd5b600061260786828701612349565b935050602084013567ffffffffffffffff81111561262457600080fd5b61263086828701612388565b925050604084013567ffffffffffffffff81111561264d57600080fd5b61265986828701612388565b9150509250925092565b6000806000806080858703121561267957600080fd5b600061268787828801612349565b945050602085013567ffffffffffffffff8111156126a457600080fd5b6126b087828801612388565b935050604085013567ffffffffffffffff8111156126cd57600080fd5b6126d987828801612388565b925050606085013567ffffffffffffffff8111156126f657600080fd5b612702878288016123f1565b91505092959194509250565b6000806040838503121561272157600080fd5b600061272f85828601612349565b9250506020612740858286016123b2565b9150509250929050565b6000806040838503121561275d57600080fd5b600061276b85828601612349565b925050602061277c85828601612445565b9150509250929050565b60008060006060848603121561279b57600080fd5b60006127a986828701612349565b93505060206127ba86828701612445565b92505060406127cb86828701612445565b9150509250925092565b600080600080608085870312156127eb57600080fd5b60006127f987828801612349565b945050602061280a87828801612445565b935050604061281b87828801612445565b925050606085013567ffffffffffffffff81111561283857600080fd5b612844878288016123f1565b91505092959194509250565b6000806040838503121561286357600080fd5b600083013567ffffffffffffffff81111561287d57600080fd5b6128898582860161235e565b925050602083013567ffffffffffffffff8111156128a657600080fd5b6128b285828601612388565b9150509250929050565b6000602082840312156128ce57600080fd5b60006128dc848285016123c7565b91505092915050565b6000602082840312156128f757600080fd5b6000612905848285016123dc565b91505092915050565b60006020828403121561292057600080fd5b600082013567ffffffffffffffff81111561293a57600080fd5b6129468482850161241b565b91505092915050565b60006020828403121561296157600080fd5b600061296f84828501612445565b91505092915050565b60006129848383612c45565b60208301905092915050565b61299981613179565b82525050565b60006129aa8261308e565b6129b481856130bc565b93506129bf8361307e565b8060005b838110156129f05781516129d78882612978565b97506129e2836130af565b9250506001810190506129c3565b5085935050505092915050565b612a068161318b565b82525050565b6000612a1782613099565b612a2181856130cd565b9350612a318185602086016131fc565b612a3a8161338a565b840191505092915050565b6000612a50826130a4565b612a5a81856130de565b9350612a6a8185602086016131fc565b612a738161338a565b840191505092915050565b6000612a8b6034836130de565b9150612a96826133a8565b604082019050919050565b6000612aae6028836130de565b9150612ab9826133f7565b604082019050919050565b6000612ad1602b836130de565b9150612adc82613446565b604082019050919050565b6000612af46024836130de565b9150612aff82613495565b604082019050919050565b6000612b176029836130de565b9150612b22826134e4565b604082019050919050565b6000612b3a6025836130de565b9150612b4582613533565b604082019050919050565b6000612b5d6032836130de565b9150612b6882613582565b604082019050919050565b6000612b806023836130de565b9150612b8b826135d1565b604082019050919050565b6000612ba3602a836130de565b9150612bae82613620565b604082019050919050565b6000612bc66029836130de565b9150612bd18261366f565b604082019050919050565b6000612be96029836130de565b9150612bf4826136be565b604082019050919050565b6000612c0c6028836130de565b9150612c178261370d565b604082019050919050565b6000612c2f6021836130de565b9150612c3a8261375c565b604082019050919050565b612c4e816131e3565b82525050565b612c5d816131e3565b82525050565b600060a082019050612c786000830188612990565b612c856020830187612990565b8181036040830152612c97818661299f565b90508181036060830152612cab818561299f565b90508181036080830152612cbf8184612a0c565b90509695505050505050565b600060a082019050612ce06000830188612990565b612ced6020830187612990565b612cfa6040830186612c54565b612d076060830185612c54565b8181036080830152612d198184612a0c565b90509695505050505050565b60006020820190508181036000830152612d3f818461299f565b905092915050565b60006040820190508181036000830152612d61818561299f565b90508181036020830152612d75818461299f565b90509392505050565b6000602082019050612d9360008301846129fd565b92915050565b60006020820190508181036000830152612db38184612a45565b905092915050565b60006020820190508181036000830152612dd481612a7e565b9050919050565b60006020820190508181036000830152612df481612aa1565b9050919050565b60006020820190508181036000830152612e1481612ac4565b9050919050565b60006020820190508181036000830152612e3481612ae7565b9050919050565b60006020820190508181036000830152612e5481612b0a565b9050919050565b60006020820190508181036000830152612e7481612b2d565b9050919050565b60006020820190508181036000830152612e9481612b50565b9050919050565b60006020820190508181036000830152612eb481612b73565b9050919050565b60006020820190508181036000830152612ed481612b96565b9050919050565b60006020820190508181036000830152612ef481612bb9565b9050919050565b60006020820190508181036000830152612f1481612bdc565b9050919050565b60006020820190508181036000830152612f3481612bff565b9050919050565b60006020820190508181036000830152612f5481612c22565b9050919050565b6000602082019050612f706000830184612c54565b92915050565b6000604082019050612f8b6000830185612c54565b612f986020830184612c54565b9392505050565b6000612fa9612fba565b9050612fb58282613261565b919050565b6000604051905090565b600067ffffffffffffffff821115612fdf57612fde613339565b5b602082029050602081019050919050565b600067ffffffffffffffff82111561300b5761300a613339565b5b602082029050602081019050919050565b600067ffffffffffffffff82111561303757613036613339565b5b6130408261338a565b9050602081019050919050565b600067ffffffffffffffff82111561306857613067613339565b5b6130718261338a565b9050602081019050919050565b6000819050602082019050919050565b600081519050919050565b600081519050919050565b600081519050919050565b6000602082019050919050565b600082825260208201905092915050565b600082825260208201905092915050565b600082825260208201905092915050565b60006130fa826131e3565b9150613105836131e3565b9250827fffffffffffffffffffffffffffffffffffffffffffffffffffffffffffffffff0382111561313a576131396132db565b5b828201905092915050565b6000613150826131e3565b915061315b836131e3565b92508282101561316e5761316d6132db565b5b828203905092915050565b6000613184826131c3565b9050919050565b60008115159050919050565b60007fffffffff0000000000000000000000000000000000000000000000000000000082169050919050565b600073ffffffffffffffffffffffffffffffffffffffff82169050919050565b6000819050919050565b82818337600083830152505050565b60005b8381101561321a5780820151818401526020810190506131ff565b83811115613229576000848401525b50505050565b6000600282049050600182168061324757607f821691505b6020821081141561325b5761325a61330a565b5b50919050565b61326a8261338a565b810181811067ffffffffffffffff8211171561328957613288613339565b5b80604052505050565b600061329d826131e3565b91507fffffffffffffffffffffffffffffffffffffffffffffffffffffffffffffffff8214156132d0576132cf6132db565b5b600182019050919050565b7f4e487b7100000000000000000000000000000000000000000000000000000000600052601160045260246000fd5b7f4e487b7100000000000000000000000000000000000000000000000000000000600052602260045260246000fd5b7f4e487b7100000000000000000000000000000000000000000000000000000000600052604160045260246000fd5b600060033d11156133875760046000803e61338460005161339b565b90505b90565b6000601f19601f8301169050919050565b60008160e01c9050919050565b7f455243313135353a207472616e7366657220746f206e6f6e204552433131353560008201527f526563656976657220696d706c656d656e746572000000000000000000000000602082015250565b7f455243313135353a204552433131353552656365697665722072656a6563746560008201527f6420746f6b656e73000000000000000000000000000000000000000000000000602082015250565b7f455243313135353a2062616c616e636520717565727920666f7220746865207a60008201527f65726f2061646472657373000000000000000000000000000000000000000000602082015250565b7f455243313135353a206275726e20616d6f756e7420657863656564732062616c60008201527f616e636500000000000000000000000000000000000000000000000000000000602082015250565b7f455243313135353a2063616c6c6572206973206e6f74206f776e6572206e6f7260008201527f20617070726f7665640000000000000000000000000000000000000000000000602082015250565b7f455243313135353a207472616e7366657220746f20746865207a65726f20616460008201527f6472657373000000000000000000000000000000000000000000000000000000602082015250565b7f455243313135353a207472616e736665722063616c6c6572206973206e6f742060008201527f6f776e6572206e6f7220617070726f7665640000000000000000000000000000602082015250565b7f455243313135353a206275726e2066726f6d20746865207a65726f206164647260008201527f6573730000000000000000000000000000000000000000000000000000000000602082015250565b7f455243313135353a20696e73756666696369656e742062616c616e636520666f60008201527f72207472616e7366657200000000000000000000000000000000000000000000602082015250565b7f455243313135353a2073657474696e6720617070726f76616c2073746174757360008201527f20666f722073656c660000000000000000000000000000000000000000000000602082015250565b7f455243313135353a206163636f756e747320616e6420696473206c656e67746860008201527f206d69736d617463680000000000000000000000000000000000000000000000602082015250565b7f455243313135353a2069647320616e6420616d6f756e7473206c656e6774682060008201527f6d69736d61746368000000000000000000000000000000000000000000000000602082015250565b7f455243313135353a206d696e7420746f20746865207a65726f2061646472657360008201527f7300000000000000000000000000000000000000000000000000000000000000602082015250565b600060443d10156137bb5761383e565b6137c3612fba565b60043d036004823e80513d602482011167ffffffffffffffff821117156137eb57505061383e565b808201805167ffffffffffffffff811115613809575050505061383e565b80602083010160043d03850181111561382657505050505061383e565b61383582602001850186613261565b82955050505050505b90565b61384a81613179565b811461385557600080fd5b50565b6138618161318b565b811461386c57600080fd5b50565b61387881613197565b811461388357600080fd5b50565b61388f816131e3565b811461389a57600080fd5b5056fea26469706673582212200e14cfb3254ba9f0ccd0a8360e03850fd31785a800767753c1b51ffe4ea495ae64736f6c63430008020033",
  "linkReferences": {},
  "deployedLinkReferences": {}
}