{
  "_format": "hh-sol-artifact-1",
  "contractName": "StorageSlotMock",
  "sourceName": "contracts/OZ/mocks/StorageSlotMock.sol",
  "abi": [
    {
      "inputs": [
        {
          "internalType": "bytes32",
          "name": "slot",
          "type": "bytes32"
        }
      ],
      "name": "getAddress",
      "outputs": [
        {
          "internalType": "address",
          "name": "",
          "type": "address"
        }
      ],
      "stateMutability": "view",
      "type": "function"
    },
    {
      "inputs": [
        {
          "internalType": "bytes32",
          "name": "slot",
          "type": "bytes32"
        }
      ],
      "name": "getBoolean",
      "outputs": [
        {
          "internalType": "bool",
          "name": "",
          "type": "bool"
        }
      ],
      "stateMutability": "view",
      "type": "function"
    },
    {
      "inputs": [
        {
          "internalType": "bytes32",
          "name": "slot",
          "type": "bytes32"
        }
      ],
      "name": "getBytes32",
      "outputs": [
        {
          "internalType": "bytes32",
          "name": "",
          "type": "bytes32"
        }
      ],
      "stateMutability": "view",
      "type": "function"
    },
    {
      "inputs": [
        {
          "internalType": "bytes32",
          "name": "slot",
          "type": "bytes32"
        }
      ],
      "name": "getUint256",
      "outputs": [
        {
          "internalType": "uint256",
          "name": "",
          "type": "uint256"
        }
      ],
      "stateMutability": "view",
      "type": "function"
    },
    {
      "inputs": [
        {
          "internalType": "bytes32",
          "name": "slot",
          "type": "bytes32"
        },
        {
          "internalType": "address",
          "name": "value",
          "type": "address"
        }
      ],
      "name": "setAddress",
      "outputs": [],
      "stateMutability": "nonpayable",
      "type": "function"
    },
    {
      "inputs": [
        {
          "internalType": "bytes32",
          "name": "slot",
          "type": "bytes32"
        },
        {
          "internalType": "bool",
          "name": "value",
          "type": "bool"
        }
      ],
      "name": "setBoolean",
      "outputs": [],
      "stateMutability": "nonpayable",
      "type": "function"
    },
    {
      "inputs": [
        {
          "internalType": "bytes32",
          "name": "slot",
          "type": "bytes32"
        },
        {
          "internalType": "bytes32",
          "name": "value",
          "type": "bytes32"
        }
      ],
      "name": "setBytes32",
      "outputs": [],
      "stateMutability": "nonpayable",
      "type": "function"
    },
    {
      "inputs": [
        {
          "internalType": "bytes32",
          "name": "slot",
          "type": "bytes32"
        },
        {
          "internalType": "uint256",
          "name": "value",
          "type": "uint256"
        }
      ],
      "name": "setUint256",
      "outputs": [],
      "stateMutability": "nonpayable",
      "type": "function"
    }
  ],
  "bytecode": "0x608060405234801561001057600080fd5b50610604806100206000396000f3fe608060405234801561001057600080fd5b50600436106100885760003560e01c80634f3029c21161005b5780634f3029c214610139578063a6ed563e14610155578063ca446dd914610185578063f8715b3e146101a157610088565b806321f8a7211461008d57806333598b00146100bd5780633848207a146100ed5780634e91db081461011d575b600080fd5b6100a760048036038101906100a2919061035f565b6101bd565b6040516100b491906104b4565b60405180910390f35b6100d760048036038101906100d2919061035f565b6101f3565b6040516100e49190610505565b60405180910390f35b6101076004803603810190610102919061035f565b610209565b60405161011491906104cf565b60405180910390f35b61013760048036038101906101329190610400565b61022c565b005b610153600480360381019061014e919061043c565b610241565b005b61016f600480360381019061016a919061035f565b610256565b60405161017c91906104ea565b60405180910390f35b61019f600480360381019061019a9190610388565b61026c565b005b6101bb60048036038101906101b691906103c4565b6102bb565b005b60006101c8826102e3565b60000160009054906101000a900473ffffffffffffffffffffffffffffffffffffffff169050919050565b60006101fe826102ed565b600001549050919050565b6000610214826102f7565b60000160009054906101000a900460ff169050919050565b8061023683610301565b600001819055505050565b8061024b836102ed565b600001819055505050565b600061026182610301565b600001549050919050565b80610276836102e3565b60000160006101000a81548173ffffffffffffffffffffffffffffffffffffffff021916908373ffffffffffffffffffffffffffffffffffffffff1602179055505050565b806102c5836102f7565b60000160006101000a81548160ff0219169083151502179055505050565b6000819050919050565b6000819050919050565b6000819050919050565b6000819050919050565b60008135905061031a81610572565b92915050565b60008135905061032f81610589565b92915050565b600081359050610344816105a0565b92915050565b600081359050610359816105b7565b92915050565b60006020828403121561037157600080fd5b600061037f84828501610335565b91505092915050565b6000806040838503121561039b57600080fd5b60006103a985828601610335565b92505060206103ba8582860161030b565b9150509250929050565b600080604083850312156103d757600080fd5b60006103e585828601610335565b92505060206103f685828601610320565b9150509250929050565b6000806040838503121561041357600080fd5b600061042185828601610335565b925050602061043285828601610335565b9150509250929050565b6000806040838503121561044f57600080fd5b600061045d85828601610335565b925050602061046e8582860161034a565b9150509250929050565b61048181610520565b82525050565b61049081610532565b82525050565b61049f8161053e565b82525050565b6104ae81610568565b82525050565b60006020820190506104c96000830184610478565b92915050565b60006020820190506104e46000830184610487565b92915050565b60006020820190506104ff6000830184610496565b92915050565b600060208201905061051a60008301846104a5565b92915050565b600061052b82610548565b9050919050565b60008115159050919050565b6000819050919050565b600073ffffffffffffffffffffffffffffffffffffffff82169050919050565b6000819050919050565b61057b81610520565b811461058657600080fd5b50565b61059281610532565b811461059d57600080fd5b50565b6105a98161053e565b81146105b457600080fd5b50565b6105c081610568565b81146105cb57600080fd5b5056fea2646970667358221220aaed24e883406d0fd093a1aaf4200be9e9a378a908faadf95e20efb5a2a3525064736f6c63430008020033",
  "linkReferences": {},
  "deployedLinkReferences": {}
}