{
  "_format": "hh-sol-artifact-1",
  "contractName": "EIP712External",
  "sourceName": "contracts/OZ/mocks/EIP712External.sol",
  "abi": [
    {
      "inputs": [
        {
          "internalType": "string",
          "name": "name",
          "type": "string"
        },
        {
          "internalType": "string",
          "name": "version",
          "type": "string"
        }
      ],
      "stateMutability": "nonpayable",
      "type": "constructor"
    },
    {
      "inputs": [],
      "name": "domainSeparator",
      "outputs": [
        {
          "internalType": "bytes32",
          "name": "",
          "type": "bytes32"
        }
      ],
      "stateMutability": "view",
      "type": "function"
    },
    {
      "inputs": [],
      "name": "getChainId",
      "outputs": [
        {
          "internalType": "uint256",
          "name": "",
          "type": "uint256"
        }
      ],
      "stateMutability": "view",
      "type": "function"
    },
    {
      "inputs": [
        {
          "internalType": "bytes",
          "name": "signature",
          "type": "bytes"
        },
        {
          "internalType": "address",
          "name": "signer",
          "type": "address"
        },
        {
          "internalType": "address",
          "name": "mailTo",
          "type": "address"
        },
        {
          "internalType": "string",
          "name": "mailContents",
          "type": "string"
        }
      ],
      "name": "verify",
      "outputs": [],
      "stateMutability": "view",
      "type": "function"
    }
  ],
  "bytecode": "0x6101406040523480156200001257600080fd5b50604051620013c2380380620013c28339818101604052810190620000389190620001a5565b818160008280519060200120905060008280519060200120905060007f8b73c3c69bb8fe3d512ecc4cf759cc79239f7b179b0ffacaa9a75d522b39400f90508260e081815250508161010081815250504660a08181525050620000a3818484620000f760201b60201c565b608081815250503073ffffffffffffffffffffffffffffffffffffffff1660c08173ffffffffffffffffffffffffffffffffffffffff1660601b8152505080610120818152505050505050505050620003fb565b60008383834630604051602001620001149594939291906200024b565b6040516020818303038152906040528051906020012090509392505050565b60006200014a6200014484620002d1565b620002a8565b9050828152602081018484840111156200016357600080fd5b620001708482856200034f565b509392505050565b600082601f8301126200018a57600080fd5b81516200019c84826020860162000133565b91505092915050565b60008060408385031215620001b957600080fd5b600083015167ffffffffffffffff811115620001d457600080fd5b620001e28582860162000178565b925050602083015167ffffffffffffffff8111156200020057600080fd5b6200020e8582860162000178565b9150509250929050565b620002238162000307565b82525050565b62000234816200031b565b82525050565b620002458162000345565b82525050565b600060a08201905062000262600083018862000229565b62000271602083018762000229565b62000280604083018662000229565b6200028f60608301856200023a565b6200029e608083018462000218565b9695505050505050565b6000620002b4620002c7565b9050620002c2828262000385565b919050565b6000604051905090565b600067ffffffffffffffff821115620002ef57620002ee620003bb565b5b620002fa82620003ea565b9050602081019050919050565b6000620003148262000325565b9050919050565b6000819050919050565b600073ffffffffffffffffffffffffffffffffffffffff82169050919050565b6000819050919050565b60005b838110156200036f57808201518184015260208101905062000352565b838111156200037f576000848401525b50505050565b6200039082620003ea565b810181811067ffffffffffffffff82111715620003b257620003b1620003bb565b5b80604052505050565b7f4e487b7100000000000000000000000000000000000000000000000000000000600052604160045260246000fd5b6000601f19601f8301169050919050565b60805160a05160c05160601c60e0516101005161012051610f746200044e60003960006102500152600061029201526000610271015260006101a6015260006101fc015260006102250152610f746000f3fe608060405234801561001057600080fd5b50600436106100415760003560e01c806308c6e079146100465780633408e47014610062578063f698da2514610080575b600080fd5b610060600480360381019061005b919061093d565b61009e565b005b61006a61014a565b6040516100779190610c73565b60405180910390f35b610088610152565b6040516100959190610b09565b60405180910390f35b60006100fa7f847fc9da8ec3c72cae85ca691245eaeb0a4a1e74f77c3a919c43afda231d39ba8484805190602001206040516020016100df93929190610b24565b60405160208183030381529060405280519060200120610161565b90506000610108828761017b565b90508473ffffffffffffffffffffffffffffffffffffffff168173ffffffffffffffffffffffffffffffffffffffff161461014257600080fd5b505050505050565b600046905090565b600061015c6101a2565b905090565b600061017461016e6101a2565b836102bc565b9050919050565b600080600061018a85856102ef565b9150915061019781610372565b819250505092915050565b60007f000000000000000000000000000000000000000000000000000000000000000073ffffffffffffffffffffffffffffffffffffffff163073ffffffffffffffffffffffffffffffffffffffff1614801561021e57507f000000000000000000000000000000000000000000000000000000000000000046145b1561024b577f000000000000000000000000000000000000000000000000000000000000000090506102b9565b6102b67f00000000000000000000000000000000000000000000000000000000000000007f00000000000000000000000000000000000000000000000000000000000000007f00000000000000000000000000000000000000000000000000000000000000006106c3565b90505b90565b600082826040516020016102d1929190610ad2565b60405160208183030381529060405280519060200120905092915050565b6000806041835114156103315760008060006020860151925060408601519150606086015160001a9050610325878285856106fd565b9450945050505061036b565b60408351141561036257600080602085015191506040850151905061035786838361080a565b93509350505061036b565b60006002915091505b9250929050565b600060048111156103ac577f4e487b7100000000000000000000000000000000000000000000000000000000600052602160045260246000fd5b8160048111156103e5577f4e487b7100000000000000000000000000000000000000000000000000000000600052602160045260246000fd5b14156103f0576106c0565b6001600481111561042a577f4e487b7100000000000000000000000000000000000000000000000000000000600052602160045260246000fd5b816004811115610463577f4e487b7100000000000000000000000000000000000000000000000000000000600052602160045260246000fd5b14156104a4576040517f08c379a000000000000000000000000000000000000000000000000000000000815260040161049b90610bf3565b60405180910390fd5b600260048111156104de577f4e487b7100000000000000000000000000000000000000000000000000000000600052602160045260246000fd5b816004811115610517577f4e487b7100000000000000000000000000000000000000000000000000000000600052602160045260246000fd5b1415610558576040517f08c379a000000000000000000000000000000000000000000000000000000000815260040161054f90610c13565b60405180910390fd5b60036004811115610592577f4e487b7100000000000000000000000000000000000000000000000000000000600052602160045260246000fd5b8160048111156105cb577f4e487b7100000000000000000000000000000000000000000000000000000000600052602160045260246000fd5b141561060c576040517f08c379a000000000000000000000000000000000000000000000000000000000815260040161060390610c33565b60405180910390fd5b600480811115610645577f4e487b7100000000000000000000000000000000000000000000000000000000600052602160045260246000fd5b81600481111561067e577f4e487b7100000000000000000000000000000000000000000000000000000000600052602160045260246000fd5b14156106bf576040517f08c379a00000000000000000000000000000000000000000000000000000000081526004016106b690610c53565b60405180910390fd5b5b50565b600083838346306040516020016106de959493929190610b5b565b6040516020818303038152906040528051906020012090509392505050565b6000807f7fffffffffffffffffffffffffffffff5d576e7357a4501ddfe92f46681b20a08360001c1115610738576000600391509150610801565b601b8560ff16141580156107505750601c8560ff1614155b15610762576000600491509150610801565b6000600187878787604051600081526020016040526040516107879493929190610bae565b6020604051602081039080840390855afa1580156107a9573d6000803e3d6000fd5b505050602060405103519050600073ffffffffffffffffffffffffffffffffffffffff168173ffffffffffffffffffffffffffffffffffffffff1614156107f857600060019250925050610801565b80600092509250505b94509492505050565b6000806000807f7fffffffffffffffffffffffffffffffffffffffffffffffffffffffffffffff85169150601b8560ff1c01905061084a878288856106fd565b935093505050935093915050565b600061086b61086684610cb3565b610c8e565b90508281526020810184848401111561088357600080fd5b61088e848285610d84565b509392505050565b60006108a96108a484610ce4565b610c8e565b9050828152602081018484840111156108c157600080fd5b6108cc848285610d84565b509392505050565b6000813590506108e381610f27565b92915050565b600082601f8301126108fa57600080fd5b813561090a848260208601610858565b91505092915050565b600082601f83011261092457600080fd5b8135610934848260208601610896565b91505092915050565b6000806000806080858703121561095357600080fd5b600085013567ffffffffffffffff81111561096d57600080fd5b610979878288016108e9565b945050602061098a878288016108d4565b935050604061099b878288016108d4565b925050606085013567ffffffffffffffff8111156109b857600080fd5b6109c487828801610913565b91505092959194509250565b6109d981610d31565b82525050565b6109e881610d43565b82525050565b6109ff6109fa82610d43565b610dc4565b82525050565b6000610a12601883610d15565b9150610a1d82610e0e565b602082019050919050565b6000610a35601f83610d15565b9150610a4082610e37565b602082019050919050565b6000610a58600283610d26565b9150610a6382610e60565b600282019050919050565b6000610a7b602283610d15565b9150610a8682610e89565b604082019050919050565b6000610a9e602283610d15565b9150610aa982610ed8565b604082019050919050565b610abd81610d6d565b82525050565b610acc81610d77565b82525050565b6000610add82610a4b565b9150610ae982856109ee565b602082019150610af982846109ee565b6020820191508190509392505050565b6000602082019050610b1e60008301846109df565b92915050565b6000606082019050610b3960008301866109df565b610b4660208301856109d0565b610b5360408301846109df565b949350505050565b600060a082019050610b7060008301886109df565b610b7d60208301876109df565b610b8a60408301866109df565b610b976060830185610ab4565b610ba460808301846109d0565b9695505050505050565b6000608082019050610bc360008301876109df565b610bd06020830186610ac3565b610bdd60408301856109df565b610bea60608301846109df565b95945050505050565b60006020820190508181036000830152610c0c81610a05565b9050919050565b60006020820190508181036000830152610c2c81610a28565b9050919050565b60006020820190508181036000830152610c4c81610a6e565b9050919050565b60006020820190508181036000830152610c6c81610a91565b9050919050565b6000602082019050610c886000830184610ab4565b92915050565b6000610c98610ca9565b9050610ca48282610d93565b919050565b6000604051905090565b600067ffffffffffffffff821115610cce57610ccd610dce565b5b610cd782610dfd565b9050602081019050919050565b600067ffffffffffffffff821115610cff57610cfe610dce565b5b610d0882610dfd565b9050602081019050919050565b600082825260208201905092915050565b600081905092915050565b6000610d3c82610d4d565b9050919050565b6000819050919050565b600073ffffffffffffffffffffffffffffffffffffffff82169050919050565b6000819050919050565b600060ff82169050919050565b82818337600083830152505050565b610d9c82610dfd565b810181811067ffffffffffffffff82111715610dbb57610dba610dce565b5b80604052505050565b6000819050919050565b7f4e487b7100000000000000000000000000000000000000000000000000000000600052604160045260246000fd5b6000601f19601f8301169050919050565b7f45434453413a20696e76616c6964207369676e61747572650000000000000000600082015250565b7f45434453413a20696e76616c6964207369676e6174757265206c656e67746800600082015250565b7f1901000000000000000000000000000000000000000000000000000000000000600082015250565b7f45434453413a20696e76616c6964207369676e6174757265202773272076616c60008201527f7565000000000000000000000000000000000000000000000000000000000000602082015250565b7f45434453413a20696e76616c6964207369676e6174757265202776272076616c60008201527f7565000000000000000000000000000000000000000000000000000000000000602082015250565b610f3081610d31565b8114610f3b57600080fd5b5056fea2646970667358221220ddda64e6dc0b52f42cde4ef7eb2009b02d831575da9ae75ee6a69e81d6ec944e64736f6c63430008020033",
  "linkReferences": {},
  "deployedLinkReferences": {}
}