{
  "_format": "hh-sol-artifact-1",
  "contractName": "ERC721PausableMock",
  "sourceName": "contracts/OZ/mocks/ERC721PausableMock.sol",
  "abi": [
    {
      "inputs": [
        {
          "internalType": "string",
          "name": "name",
          "type": "string"
        },
        {
          "internalType": "string",
          "name": "symbol",
          "type": "string"
        }
      ],
      "stateMutability": "nonpayable",
      "type": "constructor"
    },
    {
      "anonymous": false,
      "inputs": [
        {
          "indexed": true,
          "internalType": "address",
          "name": "owner",
          "type": "address"
        },
        {
          "indexed": true,
          "internalType": "address",
          "name": "approved",
          "type": "address"
        },
        {
          "indexed": true,
          "internalType": "uint256",
          "name": "tokenId",
          "type": "uint256"
        }
      ],
      "name": "Approval",
      "type": "event"
    },
    {
      "anonymous": false,
      "inputs": [
        {
          "indexed": true,
          "internalType": "address",
          "name": "owner",
          "type": "address"
        },
        {
          "indexed": true,
          "internalType": "address",
          "name": "operator",
          "type": "address"
        },
        {
          "indexed": false,
          "internalType": "bool",
          "name": "approved",
          "type": "bool"
        }
      ],
      "name": "ApprovalForAll",
      "type": "event"
    },
    {
      "anonymous": false,
      "inputs": [
        {
          "indexed": false,
          "internalType": "address",
          "name": "account",
          "type": "address"
        }
      ],
      "name": "Paused",
      "type": "event"
    },
    {
      "anonymous": false,
      "inputs": [
        {
          "indexed": true,
          "internalType": "address",
          "name": "from",
          "type": "address"
        },
        {
          "indexed": true,
          "internalType": "address",
          "name": "to",
          "type": "address"
        },
        {
          "indexed": true,
          "internalType": "uint256",
          "name": "tokenId",
          "type": "uint256"
        }
      ],
      "name": "Transfer",
      "type": "event"
    },
    {
      "anonymous": false,
      "inputs": [
        {
          "indexed": false,
          "internalType": "address",
          "name": "account",
          "type": "address"
        }
      ],
      "name": "Unpaused",
      "type": "event"
    },
    {
      "inputs": [
        {
          "internalType": "address",
          "name": "to",
          "type": "address"
        },
        {
          "internalType": "uint256",
          "name": "tokenId",
          "type": "uint256"
        }
      ],
      "name": "approve",
      "outputs": [],
      "stateMutability": "nonpayable",
      "type": "function"
    },
    {
      "inputs": [
        {
          "internalType": "address",
          "name": "owner",
          "type": "address"
        }
      ],
      "name": "balanceOf",
      "outputs": [
        {
          "internalType": "uint256",
          "name": "",
          "type": "uint256"
        }
      ],
      "stateMutability": "view",
      "type": "function"
    },
    {
      "inputs": [
        {
          "internalType": "uint256",
          "name": "tokenId",
          "type": "uint256"
        }
      ],
      "name": "burn",
      "outputs": [],
      "stateMutability": "nonpayable",
      "type": "function"
    },
    {
      "inputs": [
        {
          "internalType": "uint256",
          "name": "tokenId",
          "type": "uint256"
        }
      ],
      "name": "exists",
      "outputs": [
        {
          "internalType": "bool",
          "name": "",
          "type": "bool"
        }
      ],
      "stateMutability": "view",
      "type": "function"
    },
    {
      "inputs": [
        {
          "internalType": "uint256",
          "name": "tokenId",
          "type": "uint256"
        }
      ],
      "name": "getApproved",
      "outputs": [
        {
          "internalType": "address",
          "name": "",
          "type": "address"
        }
      ],
      "stateMutability": "view",
      "type": "function"
    },
    {
      "inputs": [
        {
          "internalType": "address",
          "name": "owner",
          "type": "address"
        },
        {
          "internalType": "address",
          "name": "operator",
          "type": "address"
        }
      ],
      "name": "isApprovedForAll",
      "outputs": [
        {
          "internalType": "bool",
          "name": "",
          "type": "bool"
        }
      ],
      "stateMutability": "view",
      "type": "function"
    },
    {
      "inputs": [
        {
          "internalType": "address",
          "name": "to",
          "type": "address"
        },
        {
          "internalType": "uint256",
          "name": "tokenId",
          "type": "uint256"
        }
      ],
      "name": "mint",
      "outputs": [],
      "stateMutability": "nonpayable",
      "type": "function"
    },
    {
      "inputs": [],
      "name": "name",
      "outputs": [
        {
          "internalType": "string",
          "name": "",
          "type": "string"
        }
      ],
      "stateMutability": "view",
      "type": "function"
    },
    {
      "inputs": [
        {
          "internalType": "uint256",
          "name": "tokenId",
          "type": "uint256"
        }
      ],
      "name": "ownerOf",
      "outputs": [
        {
          "internalType": "address",
          "name": "",
          "type": "address"
        }
      ],
      "stateMutability": "view",
      "type": "function"
    },
    {
      "inputs": [],
      "name": "pause",
      "outputs": [],
      "stateMutability": "nonpayable",
      "type": "function"
    },
    {
      "inputs": [],
      "name": "paused",
      "outputs": [
        {
          "internalType": "bool",
          "name": "",
          "type": "bool"
        }
      ],
      "stateMutability": "view",
      "type": "function"
    },
    {
      "inputs": [
        {
          "internalType": "address",
          "name": "to",
          "type": "address"
        },
        {
          "internalType": "uint256",
          "name": "tokenId",
          "type": "uint256"
        },
        {
          "internalType": "bytes",
          "name": "_data",
          "type": "bytes"
        }
      ],
      "name": "safeMint",
      "outputs": [],
      "stateMutability": "nonpayable",
      "type": "function"
    },
    {
      "inputs": [
        {
          "internalType": "address",
          "name": "to",
          "type": "address"
        },
        {
          "internalType": "uint256",
          "name": "tokenId",
          "type": "uint256"
        }
      ],
      "name": "safeMint",
      "outputs": [],
      "stateMutability": "nonpayable",
      "type": "function"
    },
    {
      "inputs": [
        {
          "internalType": "address",
          "name": "from",
          "type": "address"
        },
        {
          "internalType": "address",
          "name": "to",
          "type": "address"
        },
        {
          "internalType": "uint256",
          "name": "tokenId",
          "type": "uint256"
        }
      ],
      "name": "safeTransferFrom",
      "outputs": [],
      "stateMutability": "nonpayable",
      "type": "function"
    },
    {
      "inputs": [
        {
          "internalType": "address",
          "name": "from",
          "type": "address"
        },
        {
          "internalType": "address",
          "name": "to",
          "type": "address"
        },
        {
          "internalType": "uint256",
          "name": "tokenId",
          "type": "uint256"
        },
        {
          "internalType": "bytes",
          "name": "_data",
          "type": "bytes"
        }
      ],
      "name": "safeTransferFrom",
      "outputs": [],
      "stateMutability": "nonpayable",
      "type": "function"
    },
    {
      "inputs": [
        {
          "internalType": "address",
          "name": "operator",
          "type": "address"
        },
        {
          "internalType": "bool",
          "name": "approved",
          "type": "bool"
        }
      ],
      "name": "setApprovalForAll",
      "outputs": [],
      "stateMutability": "nonpayable",
      "type": "function"
    },
    {
      "inputs": [
        {
          "internalType": "bytes4",
          "name": "interfaceId",
          "type": "bytes4"
        }
      ],
      "name": "supportsInterface",
      "outputs": [
        {
          "internalType": "bool",
          "name": "",
          "type": "bool"
        }
      ],
      "stateMutability": "view",
      "type": "function"
    },
    {
      "inputs": [],
      "name": "symbol",
      "outputs": [
        {
          "internalType": "string",
          "name": "",
          "type": "string"
        }
      ],
      "stateMutability": "view",
      "type": "function"
    },
    {
      "inputs": [
        {
          "internalType": "uint256",
          "name": "tokenId",
          "type": "uint256"
        }
      ],
      "name": "tokenURI",
      "outputs": [
        {
          "internalType": "string",
          "name": "",
          "type": "string"
        }
      ],
      "stateMutability": "view",
      "type": "function"
    },
    {
      "inputs": [
        {
          "internalType": "address",
          "name": "from",
          "type": "address"
        },
        {
          "internalType": "address",
          "name": "to",
          "type": "address"
        },
        {
          "internalType": "uint256",
          "name": "tokenId",
          "type": "uint256"
        }
      ],
      "name": "transferFrom",
      "outputs": [],
      "stateMutability": "nonpayable",
      "type": "function"
    },
    {
      "inputs": [],
      "name": "unpause",
      "outputs": [],
      "stateMutability": "nonpayable",
      "type": "function"
    }
  ],
  "bytecode": "0x60806040523480156200001157600080fd5b5060405162003099380380620030998339818101604052810190620000379190620001b2565b818181600090805190602001906200005192919062000090565b5080600190805190602001906200006a92919062000090565b5050506000600660006101000a81548160ff021916908315150217905550505062000395565b8280546200009e90620002ba565b90600052602060002090601f016020900481019282620000c257600085556200010e565b82601f10620000dd57805160ff19168380011785556200010e565b828001600101855582156200010e579182015b828111156200010d578251825591602001919060010190620000f0565b5b5090506200011d919062000121565b5090565b5b808211156200013c57600081600090555060010162000122565b5090565b60006200015762000151846200024e565b62000225565b9050828152602081018484840111156200017057600080fd5b6200017d84828562000284565b509392505050565b600082601f8301126200019757600080fd5b8151620001a984826020860162000140565b91505092915050565b60008060408385031215620001c657600080fd5b600083015167ffffffffffffffff811115620001e157600080fd5b620001ef8582860162000185565b925050602083015167ffffffffffffffff8111156200020d57600080fd5b6200021b8582860162000185565b9150509250929050565b60006200023162000244565b90506200023f8282620002f0565b919050565b6000604051905090565b600067ffffffffffffffff8211156200026c576200026b62000355565b5b620002778262000384565b9050602081019050919050565b60005b83811015620002a457808201518184015260208101905062000287565b83811115620002b4576000848401525b50505050565b60006002820490506001821680620002d357607f821691505b60208210811415620002ea57620002e962000326565b5b50919050565b620002fb8262000384565b810181811067ffffffffffffffff821117156200031d576200031c62000355565b5b80604052505050565b7f4e487b7100000000000000000000000000000000000000000000000000000000600052602260045260246000fd5b7f4e487b7100000000000000000000000000000000000000000000000000000000600052604160045260246000fd5b6000601f19601f8301169050919050565b612cf480620003a56000396000f3fe608060405234801561001057600080fd5b50600436106101375760003560e01c80635c975abb116100b857806395d89b411161007c57806395d89b4114610324578063a144819414610342578063a22cb4651461035e578063b88d4fde1461037a578063c87b56dd14610396578063e985e9c5146103c657610137565b80635c975abb146102805780636352211e1461029e57806370a08231146102ce5780638456cb59146102fe5780638832e6e31461030857610137565b80633f4ba83a116100ff5780633f4ba83a146101f257806340c10f19146101fc57806342842e0e1461021857806342966c68146102345780634f558e791461025057610137565b806301ffc9a71461013c57806306fdde031461016c578063081812fc1461018a578063095ea7b3146101ba57806323b872dd146101d6575b600080fd5b61015660048036038101906101519190611d8c565b6103f6565b60405161016391906121b5565b60405180910390f35b6101746104d8565b60405161018191906121d0565b60405180910390f35b6101a4600480360381019061019f9190611dde565b61056a565b6040516101b1919061214e565b60405180910390f35b6101d460048036038101906101cf9190611ce9565b6105ef565b005b6101f060048036038101906101eb9190611be3565b610707565b005b6101fa610767565b005b61021660048036038101906102119190611ce9565b610771565b005b610232600480360381019061022d9190611be3565b61077f565b005b61024e60048036038101906102499190611dde565b61079f565b005b61026a60048036038101906102659190611dde565b6107ab565b60405161027791906121b5565b60405180910390f35b6102886107bd565b60405161029591906121b5565b60405180910390f35b6102b860048036038101906102b39190611dde565b6107d4565b6040516102c5919061214e565b60405180910390f35b6102e860048036038101906102e39190611b7e565b610886565b6040516102f59190612412565b60405180910390f35b61030661093e565b005b610322600480360381019061031d9190611d25565b610948565b005b61032c610958565b60405161033991906121d0565b60405180910390f35b61035c60048036038101906103579190611ce9565b6109ea565b005b61037860048036038101906103739190611cad565b6109f8565b005b610394600480360381019061038f9190611c32565b610a0e565b005b6103b060048036038101906103ab9190611dde565b610a70565b6040516103bd91906121d0565b60405180910390f35b6103e060048036038101906103db9190611ba7565b610b17565b6040516103ed91906121b5565b60405180910390f35b60007f80ac58cd000000000000000000000000000000000000000000000000000000007bffffffffffffffffffffffffffffffffffffffffffffffffffffffff1916827bffffffffffffffffffffffffffffffffffffffffffffffffffffffff191614806104c157507f5b5e139f000000000000000000000000000000000000000000000000000000007bffffffffffffffffffffffffffffffffffffffffffffffffffffffff1916827bffffffffffffffffffffffffffffffffffffffffffffffffffffffff1916145b806104d157506104d082610bab565b5b9050919050565b6060600080546104e790612637565b80601f016020809104026020016040519081016040528092919081815260200182805461051390612637565b80156105605780601f1061053557610100808354040283529160200191610560565b820191906000526020600020905b81548152906001019060200180831161054357829003601f168201915b5050505050905090565b600061057582610c15565b6105b4576040517f08c379a00000000000000000000000000000000000000000000000000000000081526004016105ab90612372565b60405180910390fd5b6004600083815260200190815260200160002060009054906101000a900473ffffffffffffffffffffffffffffffffffffffff169050919050565b60006105fa826107d4565b90508073ffffffffffffffffffffffffffffffffffffffff168373ffffffffffffffffffffffffffffffffffffffff16141561066b576040517f08c379a0000000000000000000000000000000000000000000000000000000008152600401610662906123d2565b60405180910390fd5b8073ffffffffffffffffffffffffffffffffffffffff1661068a610c81565b73ffffffffffffffffffffffffffffffffffffffff1614806106b957506106b8816106b3610c81565b610b17565b5b6106f8576040517f08c379a00000000000000000000000000000000000000000000000000000000081526004016106ef906122f2565b60405180910390fd5b6107028383610c89565b505050565b610718610712610c81565b82610d42565b610757576040517f08c379a000000000000000000000000000000000000000000000000000000000815260040161074e906123f2565b60405180910390fd5b610762838383610e20565b505050565b61076f61107c565b565b61077b828261111e565b5050565b61079a83838360405180602001604052806000815250610a0e565b505050565b6107a8816112ec565b50565b60006107b682610c15565b9050919050565b6000600660009054906101000a900460ff16905090565b6000806002600084815260200190815260200160002060009054906101000a900473ffffffffffffffffffffffffffffffffffffffff169050600073ffffffffffffffffffffffffffffffffffffffff168173ffffffffffffffffffffffffffffffffffffffff16141561087d576040517f08c379a000000000000000000000000000000000000000000000000000000000815260040161087490612332565b60405180910390fd5b80915050919050565b60008073ffffffffffffffffffffffffffffffffffffffff168273ffffffffffffffffffffffffffffffffffffffff1614156108f7576040517f08c379a00000000000000000000000000000000000000000000000000000000081526004016108ee90612312565b60405180910390fd5b600360008373ffffffffffffffffffffffffffffffffffffffff1673ffffffffffffffffffffffffffffffffffffffff168152602001908152602001600020549050919050565b6109466113fd565b565b6109538383836114a0565b505050565b60606001805461096790612637565b80601f016020809104026020016040519081016040528092919081815260200182805461099390612637565b80156109e05780601f106109b5576101008083540402835291602001916109e0565b820191906000526020600020905b8154815290600101906020018083116109c357829003601f168201915b5050505050905090565b6109f482826114fb565b5050565b610a0a610a03610c81565b8383611519565b5050565b610a1f610a19610c81565b83610d42565b610a5e576040517f08c379a0000000000000000000000000000000000000000000000000000000008152600401610a55906123f2565b60405180910390fd5b610a6a84848484611686565b50505050565b6060610a7b82610c15565b610aba576040517f08c379a0000000000000000000000000000000000000000000000000000000008152600401610ab1906123b2565b60405180910390fd5b6000610ac46116e2565b90506000815111610ae45760405180602001604052806000815250610b0f565b80610aee846116f9565b604051602001610aff92919061212a565b6040516020818303038152906040525b915050919050565b6000600560008473ffffffffffffffffffffffffffffffffffffffff1673ffffffffffffffffffffffffffffffffffffffff16815260200190815260200160002060008373ffffffffffffffffffffffffffffffffffffffff1673ffffffffffffffffffffffffffffffffffffffff16815260200190815260200160002060009054906101000a900460ff16905092915050565b60007f01ffc9a7000000000000000000000000000000000000000000000000000000007bffffffffffffffffffffffffffffffffffffffffffffffffffffffff1916827bffffffffffffffffffffffffffffffffffffffffffffffffffffffff1916149050919050565b60008073ffffffffffffffffffffffffffffffffffffffff166002600084815260200190815260200160002060009054906101000a900473ffffffffffffffffffffffffffffffffffffffff1673ffffffffffffffffffffffffffffffffffffffff1614159050919050565b600033905090565b816004600083815260200190815260200160002060006101000a81548173ffffffffffffffffffffffffffffffffffffffff021916908373ffffffffffffffffffffffffffffffffffffffff160217905550808273ffffffffffffffffffffffffffffffffffffffff16610cfc836107d4565b73ffffffffffffffffffffffffffffffffffffffff167f8c5be1e5ebec7d5bd14f71427d1e84f3dd0314c0f7b2291e5b200ac8c7c3b92560405160405180910390a45050565b6000610d4d82610c15565b610d8c576040517f08c379a0000000000000000000000000000000000000000000000000000000008152600401610d83906122b2565b60405180910390fd5b6000610d97836107d4565b90508073ffffffffffffffffffffffffffffffffffffffff168473ffffffffffffffffffffffffffffffffffffffff161480610e0657508373ffffffffffffffffffffffffffffffffffffffff16610dee8461056a565b73ffffffffffffffffffffffffffffffffffffffff16145b80610e175750610e168185610b17565b5b91505092915050565b8273ffffffffffffffffffffffffffffffffffffffff16610e40826107d4565b73ffffffffffffffffffffffffffffffffffffffff1614610e96576040517f08c379a0000000000000000000000000000000000000000000000000000000008152600401610e8d90612392565b60405180910390fd5b600073ffffffffffffffffffffffffffffffffffffffff168273ffffffffffffffffffffffffffffffffffffffff161415610f06576040517f08c379a0000000000000000000000000000000000000000000000000000000008152600401610efd90612272565b60405180910390fd5b610f118383836118a6565b610f1c600082610c89565b6001600360008573ffffffffffffffffffffffffffffffffffffffff1673ffffffffffffffffffffffffffffffffffffffff1681526020019081526020016000206000828254610f6c919061254d565b925050819055506001600360008473ffffffffffffffffffffffffffffffffffffffff1673ffffffffffffffffffffffffffffffffffffffff1681526020019081526020016000206000828254610fc391906124c6565b92505081905550816002600083815260200190815260200160002060006101000a81548173ffffffffffffffffffffffffffffffffffffffff021916908373ffffffffffffffffffffffffffffffffffffffff160217905550808273ffffffffffffffffffffffffffffffffffffffff168473ffffffffffffffffffffffffffffffffffffffff167fddf252ad1be2c89b69c2b068fc378daa952ba7f163c4a11628f55a4df523b3ef60405160405180910390a4505050565b6110846107bd565b6110c3576040517f08c379a00000000000000000000000000000000000000000000000000000000081526004016110ba90612212565b60405180910390fd5b6000600660006101000a81548160ff0219169083151502179055507f5db9ee0a495bf2e6ff9c91a7834c1ba4fdd244a5e8aa4e537bd38aeae4b073aa611107610c81565b604051611114919061214e565b60405180910390a1565b600073ffffffffffffffffffffffffffffffffffffffff168273ffffffffffffffffffffffffffffffffffffffff16141561118e576040517f08c379a000000000000000000000000000000000000000000000000000000000815260040161118590612352565b60405180910390fd5b61119781610c15565b156111d7576040517f08c379a00000000000000000000000000000000000000000000000000000000081526004016111ce90612252565b60405180910390fd5b6111e3600083836118a6565b6001600360008473ffffffffffffffffffffffffffffffffffffffff1673ffffffffffffffffffffffffffffffffffffffff168152602001908152602001600020600082825461123391906124c6565b92505081905550816002600083815260200190815260200160002060006101000a81548173ffffffffffffffffffffffffffffffffffffffff021916908373ffffffffffffffffffffffffffffffffffffffff160217905550808273ffffffffffffffffffffffffffffffffffffffff16600073ffffffffffffffffffffffffffffffffffffffff167fddf252ad1be2c89b69c2b068fc378daa952ba7f163c4a11628f55a4df523b3ef60405160405180910390a45050565b60006112f7826107d4565b9050611305816000846118a6565b611310600083610c89565b6001600360008373ffffffffffffffffffffffffffffffffffffffff1673ffffffffffffffffffffffffffffffffffffffff1681526020019081526020016000206000828254611360919061254d565b925050819055506002600083815260200190815260200160002060006101000a81549073ffffffffffffffffffffffffffffffffffffffff021916905581600073ffffffffffffffffffffffffffffffffffffffff168273ffffffffffffffffffffffffffffffffffffffff167fddf252ad1be2c89b69c2b068fc378daa952ba7f163c4a11628f55a4df523b3ef60405160405180910390a45050565b6114056107bd565b15611445576040517f08c379a000000000000000000000000000000000000000000000000000000000815260040161143c906122d2565b60405180910390fd5b6001600660006101000a81548160ff0219169083151502179055507f62e78cea01bee320cd4e420270b5ea74000d11b0c9f74754ebdbfc544b05a258611489610c81565b604051611496919061214e565b60405180910390a1565b6114aa838361111e565b6114b760008484846118fe565b6114f6576040517f08c379a00000000000000000000000000000000000000000000000000000000081526004016114ed90612232565b60405180910390fd5b505050565b6115158282604051806020016040528060008152506114a0565b5050565b8173ffffffffffffffffffffffffffffffffffffffff168373ffffffffffffffffffffffffffffffffffffffff161415611588576040517f08c379a000000000000000000000000000000000000000000000000000000000815260040161157f90612292565b60405180910390fd5b80600560008573ffffffffffffffffffffffffffffffffffffffff1673ffffffffffffffffffffffffffffffffffffffff16815260200190815260200160002060008473ffffffffffffffffffffffffffffffffffffffff1673ffffffffffffffffffffffffffffffffffffffff16815260200190815260200160002060006101000a81548160ff0219169083151502179055508173ffffffffffffffffffffffffffffffffffffffff168373ffffffffffffffffffffffffffffffffffffffff167f17307eab39ab6107e8899845ad3d59bd9653f200f220920489ca2b5937696c318360405161167991906121b5565b60405180910390a3505050565b611691848484610e20565b61169d848484846118fe565b6116dc576040517f08c379a00000000000000000000000000000000000000000000000000000000081526004016116d390612232565b60405180910390fd5b50505050565b606060405180602001604052806000815250905090565b60606000821415611741576040518060400160405280600181526020017f300000000000000000000000000000000000000000000000000000000000000081525090506118a1565b600082905060005b6000821461177357808061175c9061269a565b915050600a8261176c919061251c565b9150611749565b60008167ffffffffffffffff8111156117b5577f4e487b7100000000000000000000000000000000000000000000000000000000600052604160045260246000fd5b6040519080825280601f01601f1916602001820160405280156117e75781602001600182028036833780820191505090505b5090505b6000851461189a57600182611800919061254d565b9150600a8561180f91906126e3565b603061181b91906124c6565b60f81b818381518110611857577f4e487b7100000000000000000000000000000000000000000000000000000000600052603260045260246000fd5b60200101907effffffffffffffffffffffffffffffffffffffffffffffffffffffffffffff1916908160001a905350600a85611893919061251c565b94506117eb565b8093505050505b919050565b6118b1838383611a95565b6118b96107bd565b156118f9576040517f08c379a00000000000000000000000000000000000000000000000000000000081526004016118f0906121f2565b60405180910390fd5b505050565b600061191f8473ffffffffffffffffffffffffffffffffffffffff16611a9a565b15611a88578373ffffffffffffffffffffffffffffffffffffffff1663150b7a02611948610c81565b8786866040518563ffffffff1660e01b815260040161196a9493929190612169565b602060405180830381600087803b15801561198457600080fd5b505af19250505080156119b557506040513d601f19601f820116820180604052508101906119b29190611db5565b60015b611a38573d80600081146119e5576040519150601f19603f3d011682016040523d82523d6000602084013e6119ea565b606091505b50600081511415611a30576040517f08c379a0000000000000000000000000000000000000000000000000000000008152600401611a2790612232565b60405180910390fd5b805181602001fd5b63150b7a0260e01b7bffffffffffffffffffffffffffffffffffffffffffffffffffffffff1916817bffffffffffffffffffffffffffffffffffffffffffffffffffffffff191614915050611a8d565b600190505b949350505050565b505050565b600080823b905060008111915050919050565b6000611ac0611abb84612452565b61242d565b905082815260208101848484011115611ad857600080fd5b611ae38482856125f5565b509392505050565b600081359050611afa81612c62565b92915050565b600081359050611b0f81612c79565b92915050565b600081359050611b2481612c90565b92915050565b600081519050611b3981612c90565b92915050565b600082601f830112611b5057600080fd5b8135611b60848260208601611aad565b91505092915050565b600081359050611b7881612ca7565b92915050565b600060208284031215611b9057600080fd5b6000611b9e84828501611aeb565b91505092915050565b60008060408385031215611bba57600080fd5b6000611bc885828601611aeb565b9250506020611bd985828601611aeb565b9150509250929050565b600080600060608486031215611bf857600080fd5b6000611c0686828701611aeb565b9350506020611c1786828701611aeb565b9250506040611c2886828701611b69565b9150509250925092565b60008060008060808587031215611c4857600080fd5b6000611c5687828801611aeb565b9450506020611c6787828801611aeb565b9350506040611c7887828801611b69565b925050606085013567ffffffffffffffff811115611c9557600080fd5b611ca187828801611b3f565b91505092959194509250565b60008060408385031215611cc057600080fd5b6000611cce85828601611aeb565b9250506020611cdf85828601611b00565b9150509250929050565b60008060408385031215611cfc57600080fd5b6000611d0a85828601611aeb565b9250506020611d1b85828601611b69565b9150509250929050565b600080600060608486031215611d3a57600080fd5b6000611d4886828701611aeb565b9350506020611d5986828701611b69565b925050604084013567ffffffffffffffff811115611d7657600080fd5b611d8286828701611b3f565b9150509250925092565b600060208284031215611d9e57600080fd5b6000611dac84828501611b15565b91505092915050565b600060208284031215611dc757600080fd5b6000611dd584828501611b2a565b91505092915050565b600060208284031215611df057600080fd5b6000611dfe84828501611b69565b91505092915050565b611e1081612581565b82525050565b611e1f81612593565b82525050565b6000611e3082612483565b611e3a8185612499565b9350611e4a818560208601612604565b611e53816127d0565b840191505092915050565b6000611e698261248e565b611e7381856124aa565b9350611e83818560208601612604565b611e8c816127d0565b840191505092915050565b6000611ea28261248e565b611eac81856124bb565b9350611ebc818560208601612604565b80840191505092915050565b6000611ed5602b836124aa565b9150611ee0826127e1565b604082019050919050565b6000611ef86014836124aa565b9150611f0382612830565b602082019050919050565b6000611f1b6032836124aa565b9150611f2682612859565b604082019050919050565b6000611f3e601c836124aa565b9150611f49826128a8565b602082019050919050565b6000611f616024836124aa565b9150611f6c826128d1565b604082019050919050565b6000611f846019836124aa565b9150611f8f82612920565b602082019050919050565b6000611fa7602c836124aa565b9150611fb282612949565b604082019050919050565b6000611fca6010836124aa565b9150611fd582612998565b602082019050919050565b6000611fed6038836124aa565b9150611ff8826129c1565b604082019050919050565b6000612010602a836124aa565b915061201b82612a10565b604082019050919050565b60006120336029836124aa565b915061203e82612a5f565b604082019050919050565b60006120566020836124aa565b915061206182612aae565b602082019050919050565b6000612079602c836124aa565b915061208482612ad7565b604082019050919050565b600061209c6029836124aa565b91506120a782612b26565b604082019050919050565b60006120bf602f836124aa565b91506120ca82612b75565b604082019050919050565b60006120e26021836124aa565b91506120ed82612bc4565b604082019050919050565b60006121056031836124aa565b915061211082612c13565b604082019050919050565b612124816125eb565b82525050565b60006121368285611e97565b91506121428284611e97565b91508190509392505050565b60006020820190506121636000830184611e07565b92915050565b600060808201905061217e6000830187611e07565b61218b6020830186611e07565b612198604083018561211b565b81810360608301526121aa8184611e25565b905095945050505050565b60006020820190506121ca6000830184611e16565b92915050565b600060208201905081810360008301526121ea8184611e5e565b905092915050565b6000602082019050818103600083015261220b81611ec8565b9050919050565b6000602082019050818103600083015261222b81611eeb565b9050919050565b6000602082019050818103600083015261224b81611f0e565b9050919050565b6000602082019050818103600083015261226b81611f31565b9050919050565b6000602082019050818103600083015261228b81611f54565b9050919050565b600060208201905081810360008301526122ab81611f77565b9050919050565b600060208201905081810360008301526122cb81611f9a565b9050919050565b600060208201905081810360008301526122eb81611fbd565b9050919050565b6000602082019050818103600083015261230b81611fe0565b9050919050565b6000602082019050818103600083015261232b81612003565b9050919050565b6000602082019050818103600083015261234b81612026565b9050919050565b6000602082019050818103600083015261236b81612049565b9050919050565b6000602082019050818103600083015261238b8161206c565b9050919050565b600060208201905081810360008301526123ab8161208f565b9050919050565b600060208201905081810360008301526123cb816120b2565b9050919050565b600060208201905081810360008301526123eb816120d5565b9050919050565b6000602082019050818103600083015261240b816120f8565b9050919050565b6000602082019050612427600083018461211b565b92915050565b6000612437612448565b90506124438282612669565b919050565b6000604051905090565b600067ffffffffffffffff82111561246d5761246c6127a1565b5b612476826127d0565b9050602081019050919050565b600081519050919050565b600081519050919050565b600082825260208201905092915050565b600082825260208201905092915050565b600081905092915050565b60006124d1826125eb565b91506124dc836125eb565b9250827fffffffffffffffffffffffffffffffffffffffffffffffffffffffffffffffff0382111561251157612510612714565b5b828201905092915050565b6000612527826125eb565b9150612532836125eb565b92508261254257612541612743565b5b828204905092915050565b6000612558826125eb565b9150612563836125eb565b92508282101561257657612575612714565b5b828203905092915050565b600061258c826125cb565b9050919050565b60008115159050919050565b60007fffffffff0000000000000000000000000000000000000000000000000000000082169050919050565b600073ffffffffffffffffffffffffffffffffffffffff82169050919050565b6000819050919050565b82818337600083830152505050565b60005b83811015612622578082015181840152602081019050612607565b83811115612631576000848401525b50505050565b6000600282049050600182168061264f57607f821691505b6020821081141561266357612662612772565b5b50919050565b612672826127d0565b810181811067ffffffffffffffff82111715612691576126906127a1565b5b80604052505050565b60006126a5826125eb565b91507fffffffffffffffffffffffffffffffffffffffffffffffffffffffffffffffff8214156126d8576126d7612714565b5b600182019050919050565b60006126ee826125eb565b91506126f9836125eb565b92508261270957612708612743565b5b828206905092915050565b7f4e487b7100000000000000000000000000000000000000000000000000000000600052601160045260246000fd5b7f4e487b7100000000000000000000000000000000000000000000000000000000600052601260045260246000fd5b7f4e487b7100000000000000000000000000000000000000000000000000000000600052602260045260246000fd5b7f4e487b7100000000000000000000000000000000000000000000000000000000600052604160045260246000fd5b6000601f19601f8301169050919050565b7f4552433732315061757361626c653a20746f6b656e207472616e73666572207760008201527f68696c6520706175736564000000000000000000000000000000000000000000602082015250565b7f5061757361626c653a206e6f7420706175736564000000000000000000000000600082015250565b7f4552433732313a207472616e7366657220746f206e6f6e20455243373231526560008201527f63656976657220696d706c656d656e7465720000000000000000000000000000602082015250565b7f4552433732313a20746f6b656e20616c7265616479206d696e74656400000000600082015250565b7f4552433732313a207472616e7366657220746f20746865207a65726f2061646460008201527f7265737300000000000000000000000000000000000000000000000000000000602082015250565b7f4552433732313a20617070726f766520746f2063616c6c657200000000000000600082015250565b7f4552433732313a206f70657261746f7220717565727920666f72206e6f6e657860008201527f697374656e7420746f6b656e0000000000000000000000000000000000000000602082015250565b7f5061757361626c653a2070617573656400000000000000000000000000000000600082015250565b7f4552433732313a20617070726f76652063616c6c6572206973206e6f74206f7760008201527f6e6572206e6f7220617070726f76656420666f7220616c6c0000000000000000602082015250565b7f4552433732313a2062616c616e636520717565727920666f7220746865207a6560008201527f726f206164647265737300000000000000000000000000000000000000000000602082015250565b7f4552433732313a206f776e657220717565727920666f72206e6f6e657869737460008201527f656e7420746f6b656e0000000000000000000000000000000000000000000000602082015250565b7f4552433732313a206d696e7420746f20746865207a65726f2061646472657373600082015250565b7f4552433732313a20617070726f76656420717565727920666f72206e6f6e657860008201527f697374656e7420746f6b656e0000000000000000000000000000000000000000602082015250565b7f4552433732313a207472616e73666572206f6620746f6b656e2074686174206960008201527f73206e6f74206f776e0000000000000000000000000000000000000000000000602082015250565b7f4552433732314d657461646174613a2055524920717565727920666f72206e6f60008201527f6e6578697374656e7420746f6b656e0000000000000000000000000000000000602082015250565b7f4552433732313a20617070726f76616c20746f2063757272656e74206f776e6560008201527f7200000000000000000000000000000000000000000000000000000000000000602082015250565b7f4552433732313a207472616e736665722063616c6c6572206973206e6f74206f60008201527f776e6572206e6f7220617070726f766564000000000000000000000000000000602082015250565b612c6b81612581565b8114612c7657600080fd5b50565b612c8281612593565b8114612c8d57600080fd5b50565b612c998161259f565b8114612ca457600080fd5b50565b612cb0816125eb565b8114612cbb57600080fd5b5056fea2646970667358221220a420e385f0676866224d437ed187bfe41048a8e3301377fd946f9e81780a248164736f6c63430008020033",
  "linkReferences": {},
  "deployedLinkReferences": {}
}