{
  "_format": "hh-sol-artifact-1",
  "contractName": "ERC721URIStorageMock",
  "sourceName": "contracts/OZ/mocks/ERC721URIStorageMock.sol",
  "abi": [
    {
      "inputs": [
        {
          "internalType": "string",
          "name": "name",
          "type": "string"
        },
        {
          "internalType": "string",
          "name": "symbol",
          "type": "string"
        }
      ],
      "stateMutability": "nonpayable",
      "type": "constructor"
    },
    {
      "anonymous": false,
      "inputs": [
        {
          "indexed": true,
          "internalType": "address",
          "name": "owner",
          "type": "address"
        },
        {
          "indexed": true,
          "internalType": "address",
          "name": "approved",
          "type": "address"
        },
        {
          "indexed": true,
          "internalType": "uint256",
          "name": "tokenId",
          "type": "uint256"
        }
      ],
      "name": "Approval",
      "type": "event"
    },
    {
      "anonymous": false,
      "inputs": [
        {
          "indexed": true,
          "internalType": "address",
          "name": "owner",
          "type": "address"
        },
        {
          "indexed": true,
          "internalType": "address",
          "name": "operator",
          "type": "address"
        },
        {
          "indexed": false,
          "internalType": "bool",
          "name": "approved",
          "type": "bool"
        }
      ],
      "name": "ApprovalForAll",
      "type": "event"
    },
    {
      "anonymous": false,
      "inputs": [
        {
          "indexed": true,
          "internalType": "address",
          "name": "from",
          "type": "address"
        },
        {
          "indexed": true,
          "internalType": "address",
          "name": "to",
          "type": "address"
        },
        {
          "indexed": true,
          "internalType": "uint256",
          "name": "tokenId",
          "type": "uint256"
        }
      ],
      "name": "Transfer",
      "type": "event"
    },
    {
      "inputs": [
        {
          "internalType": "address",
          "name": "to",
          "type": "address"
        },
        {
          "internalType": "uint256",
          "name": "tokenId",
          "type": "uint256"
        }
      ],
      "name": "approve",
      "outputs": [],
      "stateMutability": "nonpayable",
      "type": "function"
    },
    {
      "inputs": [
        {
          "internalType": "address",
          "name": "owner",
          "type": "address"
        }
      ],
      "name": "balanceOf",
      "outputs": [
        {
          "internalType": "uint256",
          "name": "",
          "type": "uint256"
        }
      ],
      "stateMutability": "view",
      "type": "function"
    },
    {
      "inputs": [],
      "name": "baseURI",
      "outputs": [
        {
          "internalType": "string",
          "name": "",
          "type": "string"
        }
      ],
      "stateMutability": "view",
      "type": "function"
    },
    {
      "inputs": [
        {
          "internalType": "uint256",
          "name": "tokenId",
          "type": "uint256"
        }
      ],
      "name": "burn",
      "outputs": [],
      "stateMutability": "nonpayable",
      "type": "function"
    },
    {
      "inputs": [
        {
          "internalType": "uint256",
          "name": "tokenId",
          "type": "uint256"
        }
      ],
      "name": "exists",
      "outputs": [
        {
          "internalType": "bool",
          "name": "",
          "type": "bool"
        }
      ],
      "stateMutability": "view",
      "type": "function"
    },
    {
      "inputs": [
        {
          "internalType": "uint256",
          "name": "tokenId",
          "type": "uint256"
        }
      ],
      "name": "getApproved",
      "outputs": [
        {
          "internalType": "address",
          "name": "",
          "type": "address"
        }
      ],
      "stateMutability": "view",
      "type": "function"
    },
    {
      "inputs": [
        {
          "internalType": "address",
          "name": "owner",
          "type": "address"
        },
        {
          "internalType": "address",
          "name": "operator",
          "type": "address"
        }
      ],
      "name": "isApprovedForAll",
      "outputs": [
        {
          "internalType": "bool",
          "name": "",
          "type": "bool"
        }
      ],
      "stateMutability": "view",
      "type": "function"
    },
    {
      "inputs": [
        {
          "internalType": "address",
          "name": "to",
          "type": "address"
        },
        {
          "internalType": "uint256",
          "name": "tokenId",
          "type": "uint256"
        }
      ],
      "name": "mint",
      "outputs": [],
      "stateMutability": "nonpayable",
      "type": "function"
    },
    {
      "inputs": [],
      "name": "name",
      "outputs": [
        {
          "internalType": "string",
          "name": "",
          "type": "string"
        }
      ],
      "stateMutability": "view",
      "type": "function"
    },
    {
      "inputs": [
        {
          "internalType": "uint256",
          "name": "tokenId",
          "type": "uint256"
        }
      ],
      "name": "ownerOf",
      "outputs": [
        {
          "internalType": "address",
          "name": "",
          "type": "address"
        }
      ],
      "stateMutability": "view",
      "type": "function"
    },
    {
      "inputs": [
        {
          "internalType": "address",
          "name": "to",
          "type": "address"
        },
        {
          "internalType": "uint256",
          "name": "tokenId",
          "type": "uint256"
        },
        {
          "internalType": "bytes",
          "name": "_data",
          "type": "bytes"
        }
      ],
      "name": "safeMint",
      "outputs": [],
      "stateMutability": "nonpayable",
      "type": "function"
    },
    {
      "inputs": [
        {
          "internalType": "address",
          "name": "to",
          "type": "address"
        },
        {
          "internalType": "uint256",
          "name": "tokenId",
          "type": "uint256"
        }
      ],
      "name": "safeMint",
      "outputs": [],
      "stateMutability": "nonpayable",
      "type": "function"
    },
    {
      "inputs": [
        {
          "internalType": "address",
          "name": "from",
          "type": "address"
        },
        {
          "internalType": "address",
          "name": "to",
          "type": "address"
        },
        {
          "internalType": "uint256",
          "name": "tokenId",
          "type": "uint256"
        }
      ],
      "name": "safeTransferFrom",
      "outputs": [],
      "stateMutability": "nonpayable",
      "type": "function"
    },
    {
      "inputs": [
        {
          "internalType": "address",
          "name": "from",
          "type": "address"
        },
        {
          "internalType": "address",
          "name": "to",
          "type": "address"
        },
        {
          "internalType": "uint256",
          "name": "tokenId",
          "type": "uint256"
        },
        {
          "internalType": "bytes",
          "name": "_data",
          "type": "bytes"
        }
      ],
      "name": "safeTransferFrom",
      "outputs": [],
      "stateMutability": "nonpayable",
      "type": "function"
    },
    {
      "inputs": [
        {
          "internalType": "address",
          "name": "operator",
          "type": "address"
        },
        {
          "internalType": "bool",
          "name": "approved",
          "type": "bool"
        }
      ],
      "name": "setApprovalForAll",
      "outputs": [],
      "stateMutability": "nonpayable",
      "type": "function"
    },
    {
      "inputs": [
        {
          "internalType": "string",
          "name": "newBaseTokenURI",
          "type": "string"
        }
      ],
      "name": "setBaseURI",
      "outputs": [],
      "stateMutability": "nonpayable",
      "type": "function"
    },
    {
      "inputs": [
        {
          "internalType": "uint256",
          "name": "tokenId",
          "type": "uint256"
        },
        {
          "internalType": "string",
          "name": "_tokenURI",
          "type": "string"
        }
      ],
      "name": "setTokenURI",
      "outputs": [],
      "stateMutability": "nonpayable",
      "type": "function"
    },
    {
      "inputs": [
        {
          "internalType": "bytes4",
          "name": "interfaceId",
          "type": "bytes4"
        }
      ],
      "name": "supportsInterface",
      "outputs": [
        {
          "internalType": "bool",
          "name": "",
          "type": "bool"
        }
      ],
      "stateMutability": "view",
      "type": "function"
    },
    {
      "inputs": [],
      "name": "symbol",
      "outputs": [
        {
          "internalType": "string",
          "name": "",
          "type": "string"
        }
      ],
      "stateMutability": "view",
      "type": "function"
    },
    {
      "inputs": [
        {
          "internalType": "uint256",
          "name": "tokenId",
          "type": "uint256"
        }
      ],
      "name": "tokenURI",
      "outputs": [
        {
          "internalType": "string",
          "name": "",
          "type": "string"
        }
      ],
      "stateMutability": "view",
      "type": "function"
    },
    {
      "inputs": [
        {
          "internalType": "address",
          "name": "from",
          "type": "address"
        },
        {
          "internalType": "address",
          "name": "to",
          "type": "address"
        },
        {
          "internalType": "uint256",
          "name": "tokenId",
          "type": "uint256"
        }
      ],
      "name": "transferFrom",
      "outputs": [],
      "stateMutability": "nonpayable",
      "type": "function"
    }
  ],
  "bytecode": "0x60806040523480156200001157600080fd5b506040516200344038038062003440833981810160405281019062000037919062000197565b818181600090805190602001906200005192919062000075565b5080600190805190602001906200006a92919062000075565b50505050506200037a565b82805462000083906200029f565b90600052602060002090601f016020900481019282620000a75760008555620000f3565b82601f10620000c257805160ff1916838001178555620000f3565b82800160010185558215620000f3579182015b82811115620000f2578251825591602001919060010190620000d5565b5b50905062000102919062000106565b5090565b5b808211156200012157600081600090555060010162000107565b5090565b60006200013c620001368462000233565b6200020a565b9050828152602081018484840111156200015557600080fd5b6200016284828562000269565b509392505050565b600082601f8301126200017c57600080fd5b81516200018e84826020860162000125565b91505092915050565b60008060408385031215620001ab57600080fd5b600083015167ffffffffffffffff811115620001c657600080fd5b620001d4858286016200016a565b925050602083015167ffffffffffffffff811115620001f257600080fd5b62000200858286016200016a565b9150509250929050565b60006200021662000229565b9050620002248282620002d5565b919050565b6000604051905090565b600067ffffffffffffffff8211156200025157620002506200033a565b5b6200025c8262000369565b9050602081019050919050565b60005b83811015620002895780820151818401526020810190506200026c565b8381111562000299576000848401525b50505050565b60006002820490506001821680620002b857607f821691505b60208210811415620002cf57620002ce6200030b565b5b50919050565b620002e08262000369565b810181811067ffffffffffffffff821117156200030257620003016200033a565b5b80604052505050565b7f4e487b7100000000000000000000000000000000000000000000000000000000600052602260045260246000fd5b7f4e487b7100000000000000000000000000000000000000000000000000000000600052604160045260246000fd5b6000601f19601f8301169050919050565b6130b6806200038a6000396000f3fe608060405234801561001057600080fd5b50600436106101375760003560e01c806355f804b3116100b857806395d89b411161007c57806395d89b4114610348578063a144819414610366578063a22cb46514610382578063b88d4fde1461039e578063c87b56dd146103ba578063e985e9c5146103ea57610137565b806355f804b3146102925780636352211e146102ae5780636c0360eb146102de57806370a08231146102fc5780638832e6e31461032c57610137565b806323b872dd116100ff57806323b872dd146101f257806340c10f191461020e57806342842e0e1461022a57806342966c68146102465780634f558e791461026257610137565b806301ffc9a71461013c57806306fdde031461016c578063081812fc1461018a578063095ea7b3146101ba578063162094c4146101d6575b600080fd5b610156600480360381019061015191906120ca565b61041a565b6040516101639190612569565b60405180910390f35b6101746104fc565b6040516101819190612584565b60405180910390f35b6101a4600480360381019061019f9190612161565b61058e565b6040516101b19190612502565b60405180910390f35b6101d460048036038101906101cf9190612027565b610613565b005b6101f060048036038101906101eb919061218a565b61072b565b005b61020c60048036038101906102079190611f21565b610739565b005b61022860048036038101906102239190612027565b610799565b005b610244600480360381019061023f9190611f21565b6107a7565b005b610260600480360381019061025b9190612161565b6107c7565b005b61027c60048036038101906102779190612161565b6107d3565b6040516102899190612569565b60405180910390f35b6102ac60048036038101906102a7919061211c565b6107e5565b005b6102c860048036038101906102c39190612161565b6107fb565b6040516102d59190612502565b60405180910390f35b6102e66108ad565b6040516102f39190612584565b60405180910390f35b61031660048036038101906103119190611ebc565b6108bc565b60405161032391906127a6565b60405180910390f35b61034660048036038101906103419190612063565b610974565b005b610350610984565b60405161035d9190612584565b60405180910390f35b610380600480360381019061037b9190612027565b610a16565b005b61039c60048036038101906103979190611feb565b610a24565b005b6103b860048036038101906103b39190611f70565b610a3a565b005b6103d460048036038101906103cf9190612161565b610a9c565b6040516103e19190612584565b60405180910390f35b61040460048036038101906103ff9190611ee5565b610bee565b6040516104119190612569565b60405180910390f35b60007f80ac58cd000000000000000000000000000000000000000000000000000000007bffffffffffffffffffffffffffffffffffffffffffffffffffffffff1916827bffffffffffffffffffffffffffffffffffffffffffffffffffffffff191614806104e557507f5b5e139f000000000000000000000000000000000000000000000000000000007bffffffffffffffffffffffffffffffffffffffffffffffffffffffff1916827bffffffffffffffffffffffffffffffffffffffffffffffffffffffff1916145b806104f557506104f482610c82565b5b9050919050565b60606000805461050b906129fc565b80601f0160208091040260200160405190810160405280929190818152602001828054610537906129fc565b80156105845780601f1061055957610100808354040283529160200191610584565b820191906000526020600020905b81548152906001019060200180831161056757829003601f168201915b5050505050905090565b600061059982610cec565b6105d8576040517f08c379a00000000000000000000000000000000000000000000000000000000081526004016105cf90612706565b60405180910390fd5b6004600083815260200190815260200160002060009054906101000a900473ffffffffffffffffffffffffffffffffffffffff169050919050565b600061061e826107fb565b90508073ffffffffffffffffffffffffffffffffffffffff168373ffffffffffffffffffffffffffffffffffffffff16141561068f576040517f08c379a000000000000000000000000000000000000000000000000000000000815260040161068690612766565b60405180910390fd5b8073ffffffffffffffffffffffffffffffffffffffff166106ae610d58565b73ffffffffffffffffffffffffffffffffffffffff1614806106dd57506106dc816106d7610d58565b610bee565b5b61071c576040517f08c379a000000000000000000000000000000000000000000000000000000000815260040161071390612646565b60405180910390fd5b6107268383610d60565b505050565b6107358282610e19565b5050565b61074a610744610d58565b82610e8d565b610789576040517f08c379a000000000000000000000000000000000000000000000000000000000815260040161078090612786565b60405180910390fd5b610794838383610f6b565b505050565b6107a382826111c7565b5050565b6107c283838360405180602001604052806000815250610a3a565b505050565b6107d081611395565b50565b60006107de82610cec565b9050919050565b8181600791906107f6929190611bd0565b505050565b6000806002600084815260200190815260200160002060009054906101000a900473ffffffffffffffffffffffffffffffffffffffff169050600073ffffffffffffffffffffffffffffffffffffffff168173ffffffffffffffffffffffffffffffffffffffff1614156108a4576040517f08c379a000000000000000000000000000000000000000000000000000000000815260040161089b90612686565b60405180910390fd5b80915050919050565b60606108b76113e8565b905090565b60008073ffffffffffffffffffffffffffffffffffffffff168273ffffffffffffffffffffffffffffffffffffffff16141561092d576040517f08c379a000000000000000000000000000000000000000000000000000000000815260040161092490612666565b60405180910390fd5b600360008373ffffffffffffffffffffffffffffffffffffffff1673ffffffffffffffffffffffffffffffffffffffff168152602001908152602001600020549050919050565b61097f83838361147a565b505050565b606060018054610993906129fc565b80601f01602080910402602001604051908101604052809291908181526020018280546109bf906129fc565b8015610a0c5780601f106109e157610100808354040283529160200191610a0c565b820191906000526020600020905b8154815290600101906020018083116109ef57829003601f168201915b5050505050905090565b610a2082826114d5565b5050565b610a36610a2f610d58565b83836114f3565b5050565b610a4b610a45610d58565b83610e8d565b610a8a576040517f08c379a0000000000000000000000000000000000000000000000000000000008152600401610a8190612786565b60405180910390fd5b610a9684848484611660565b50505050565b6060610aa782610cec565b610ae6576040517f08c379a0000000000000000000000000000000000000000000000000000000008152600401610add906126e6565b60405180910390fd5b6000600660008481526020019081526020016000208054610b06906129fc565b80601f0160208091040260200160405190810160405280929190818152602001828054610b32906129fc565b8015610b7f5780601f10610b5457610100808354040283529160200191610b7f565b820191906000526020600020905b815481529060010190602001808311610b6257829003601f168201915b505050505090506000610b906113e8565b9050600081511415610ba6578192505050610be9565b600082511115610bdb578082604051602001610bc39291906124de565b60405160208183030381529060405292505050610be9565b610be4846116bc565b925050505b919050565b6000600560008473ffffffffffffffffffffffffffffffffffffffff1673ffffffffffffffffffffffffffffffffffffffff16815260200190815260200160002060008373ffffffffffffffffffffffffffffffffffffffff1673ffffffffffffffffffffffffffffffffffffffff16815260200190815260200160002060009054906101000a900460ff16905092915050565b60007f01ffc9a7000000000000000000000000000000000000000000000000000000007bffffffffffffffffffffffffffffffffffffffffffffffffffffffff1916827bffffffffffffffffffffffffffffffffffffffffffffffffffffffff1916149050919050565b60008073ffffffffffffffffffffffffffffffffffffffff166002600084815260200190815260200160002060009054906101000a900473ffffffffffffffffffffffffffffffffffffffff1673ffffffffffffffffffffffffffffffffffffffff1614159050919050565b600033905090565b816004600083815260200190815260200160002060006101000a81548173ffffffffffffffffffffffffffffffffffffffff021916908373ffffffffffffffffffffffffffffffffffffffff160217905550808273ffffffffffffffffffffffffffffffffffffffff16610dd3836107fb565b73ffffffffffffffffffffffffffffffffffffffff167f8c5be1e5ebec7d5bd14f71427d1e84f3dd0314c0f7b2291e5b200ac8c7c3b92560405160405180910390a45050565b610e2282610cec565b610e61576040517f08c379a0000000000000000000000000000000000000000000000000000000008152600401610e58906126a6565b60405180910390fd5b80600660008481526020019081526020016000209080519060200190610e88929190611c56565b505050565b6000610e9882610cec565b610ed7576040517f08c379a0000000000000000000000000000000000000000000000000000000008152600401610ece90612626565b60405180910390fd5b6000610ee2836107fb565b90508073ffffffffffffffffffffffffffffffffffffffff168473ffffffffffffffffffffffffffffffffffffffff161480610f5157508373ffffffffffffffffffffffffffffffffffffffff16610f398461058e565b73ffffffffffffffffffffffffffffffffffffffff16145b80610f625750610f618185610bee565b5b91505092915050565b8273ffffffffffffffffffffffffffffffffffffffff16610f8b826107fb565b73ffffffffffffffffffffffffffffffffffffffff1614610fe1576040517f08c379a0000000000000000000000000000000000000000000000000000000008152600401610fd890612726565b60405180910390fd5b600073ffffffffffffffffffffffffffffffffffffffff168273ffffffffffffffffffffffffffffffffffffffff161415611051576040517f08c379a0000000000000000000000000000000000000000000000000000000008152600401611048906125e6565b60405180910390fd5b61105c838383611763565b611067600082610d60565b6001600360008573ffffffffffffffffffffffffffffffffffffffff1673ffffffffffffffffffffffffffffffffffffffff16815260200190815260200160002060008282546110b79190612912565b925050819055506001600360008473ffffffffffffffffffffffffffffffffffffffff1673ffffffffffffffffffffffffffffffffffffffff168152602001908152602001600020600082825461110e919061288b565b92505081905550816002600083815260200190815260200160002060006101000a81548173ffffffffffffffffffffffffffffffffffffffff021916908373ffffffffffffffffffffffffffffffffffffffff160217905550808273ffffffffffffffffffffffffffffffffffffffff168473ffffffffffffffffffffffffffffffffffffffff167fddf252ad1be2c89b69c2b068fc378daa952ba7f163c4a11628f55a4df523b3ef60405160405180910390a4505050565b600073ffffffffffffffffffffffffffffffffffffffff168273ffffffffffffffffffffffffffffffffffffffff161415611237576040517f08c379a000000000000000000000000000000000000000000000000000000000815260040161122e906126c6565b60405180910390fd5b61124081610cec565b15611280576040517f08c379a0000000000000000000000000000000000000000000000000000000008152600401611277906125c6565b60405180910390fd5b61128c60008383611763565b6001600360008473ffffffffffffffffffffffffffffffffffffffff1673ffffffffffffffffffffffffffffffffffffffff16815260200190815260200160002060008282546112dc919061288b565b92505081905550816002600083815260200190815260200160002060006101000a81548173ffffffffffffffffffffffffffffffffffffffff021916908373ffffffffffffffffffffffffffffffffffffffff160217905550808273ffffffffffffffffffffffffffffffffffffffff16600073ffffffffffffffffffffffffffffffffffffffff167fddf252ad1be2c89b69c2b068fc378daa952ba7f163c4a11628f55a4df523b3ef60405160405180910390a45050565b61139e81611768565b60006006600083815260200190815260200160002080546113be906129fc565b9050146113e5576006600082815260200190815260200160002060006113e49190611cdc565b5b50565b6060600780546113f7906129fc565b80601f0160208091040260200160405190810160405280929190818152602001828054611423906129fc565b80156114705780601f1061144557610100808354040283529160200191611470565b820191906000526020600020905b81548152906001019060200180831161145357829003601f168201915b5050505050905090565b61148483836111c7565b6114916000848484611879565b6114d0576040517f08c379a00000000000000000000000000000000000000000000000000000000081526004016114c7906125a6565b60405180910390fd5b505050565b6114ef82826040518060200160405280600081525061147a565b5050565b8173ffffffffffffffffffffffffffffffffffffffff168373ffffffffffffffffffffffffffffffffffffffff161415611562576040517f08c379a000000000000000000000000000000000000000000000000000000000815260040161155990612606565b60405180910390fd5b80600560008573ffffffffffffffffffffffffffffffffffffffff1673ffffffffffffffffffffffffffffffffffffffff16815260200190815260200160002060008473ffffffffffffffffffffffffffffffffffffffff1673ffffffffffffffffffffffffffffffffffffffff16815260200190815260200160002060006101000a81548160ff0219169083151502179055508173ffffffffffffffffffffffffffffffffffffffff168373ffffffffffffffffffffffffffffffffffffffff167f17307eab39ab6107e8899845ad3d59bd9653f200f220920489ca2b5937696c31836040516116539190612569565b60405180910390a3505050565b61166b848484610f6b565b61167784848484611879565b6116b6576040517f08c379a00000000000000000000000000000000000000000000000000000000081526004016116ad906125a6565b60405180910390fd5b50505050565b60606116c782610cec565b611706576040517f08c379a00000000000000000000000000000000000000000000000000000000081526004016116fd90612746565b60405180910390fd5b60006117106113e8565b90506000815111611730576040518060200160405280600081525061175b565b8061173a84611a10565b60405160200161174b9291906124de565b6040516020818303038152906040525b915050919050565b505050565b6000611773826107fb565b905061178181600084611763565b61178c600083610d60565b6001600360008373ffffffffffffffffffffffffffffffffffffffff1673ffffffffffffffffffffffffffffffffffffffff16815260200190815260200160002060008282546117dc9190612912565b925050819055506002600083815260200190815260200160002060006101000a81549073ffffffffffffffffffffffffffffffffffffffff021916905581600073ffffffffffffffffffffffffffffffffffffffff168273ffffffffffffffffffffffffffffffffffffffff167fddf252ad1be2c89b69c2b068fc378daa952ba7f163c4a11628f55a4df523b3ef60405160405180910390a45050565b600061189a8473ffffffffffffffffffffffffffffffffffffffff16611bbd565b15611a03578373ffffffffffffffffffffffffffffffffffffffff1663150b7a026118c3610d58565b8786866040518563ffffffff1660e01b81526004016118e5949392919061251d565b602060405180830381600087803b1580156118ff57600080fd5b505af192505050801561193057506040513d601f19601f8201168201806040525081019061192d91906120f3565b60015b6119b3573d8060008114611960576040519150601f19603f3d011682016040523d82523d6000602084013e611965565b606091505b506000815114156119ab576040517f08c379a00000000000000000000000000000000000000000000000000000000081526004016119a2906125a6565b60405180910390fd5b805181602001fd5b63150b7a0260e01b7bffffffffffffffffffffffffffffffffffffffffffffffffffffffff1916817bffffffffffffffffffffffffffffffffffffffffffffffffffffffff191614915050611a08565b600190505b949350505050565b60606000821415611a58576040518060400160405280600181526020017f30000000000000000000000000000000000000000000000000000000000000008152509050611bb8565b600082905060005b60008214611a8a578080611a7390612a5f565b915050600a82611a8391906128e1565b9150611a60565b60008167ffffffffffffffff811115611acc577f4e487b7100000000000000000000000000000000000000000000000000000000600052604160045260246000fd5b6040519080825280601f01601f191660200182016040528015611afe5781602001600182028036833780820191505090505b5090505b60008514611bb157600182611b179190612912565b9150600a85611b269190612aa8565b6030611b32919061288b565b60f81b818381518110611b6e577f4e487b7100000000000000000000000000000000000000000000000000000000600052603260045260246000fd5b60200101907effffffffffffffffffffffffffffffffffffffffffffffffffffffffffffff1916908160001a905350600a85611baa91906128e1565b9450611b02565b8093505050505b919050565b600080823b905060008111915050919050565b828054611bdc906129fc565b90600052602060002090601f016020900481019282611bfe5760008555611c45565b82601f10611c1757803560ff1916838001178555611c45565b82800160010185558215611c45579182015b82811115611c44578235825591602001919060010190611c29565b5b509050611c529190611d1c565b5090565b828054611c62906129fc565b90600052602060002090601f016020900481019282611c845760008555611ccb565b82601f10611c9d57805160ff1916838001178555611ccb565b82800160010185558215611ccb579182015b82811115611cca578251825591602001919060010190611caf565b5b509050611cd89190611d1c565b5090565b508054611ce8906129fc565b6000825580601f10611cfa5750611d19565b601f016020900490600052602060002090810190611d189190611d1c565b5b50565b5b80821115611d35576000816000905550600101611d1d565b5090565b6000611d4c611d47846127e6565b6127c1565b905082815260208101848484011115611d6457600080fd5b611d6f8482856129ba565b509392505050565b6000611d8a611d8584612817565b6127c1565b905082815260208101848484011115611da257600080fd5b611dad8482856129ba565b509392505050565b600081359050611dc481613024565b92915050565b600081359050611dd98161303b565b92915050565b600081359050611dee81613052565b92915050565b600081519050611e0381613052565b92915050565b600082601f830112611e1a57600080fd5b8135611e2a848260208601611d39565b91505092915050565b60008083601f840112611e4557600080fd5b8235905067ffffffffffffffff811115611e5e57600080fd5b602083019150836001820283011115611e7657600080fd5b9250929050565b600082601f830112611e8e57600080fd5b8135611e9e848260208601611d77565b91505092915050565b600081359050611eb681613069565b92915050565b600060208284031215611ece57600080fd5b6000611edc84828501611db5565b91505092915050565b60008060408385031215611ef857600080fd5b6000611f0685828601611db5565b9250506020611f1785828601611db5565b9150509250929050565b600080600060608486031215611f3657600080fd5b6000611f4486828701611db5565b9350506020611f5586828701611db5565b9250506040611f6686828701611ea7565b9150509250925092565b60008060008060808587031215611f8657600080fd5b6000611f9487828801611db5565b9450506020611fa587828801611db5565b9350506040611fb687828801611ea7565b925050606085013567ffffffffffffffff811115611fd357600080fd5b611fdf87828801611e09565b91505092959194509250565b60008060408385031215611ffe57600080fd5b600061200c85828601611db5565b925050602061201d85828601611dca565b9150509250929050565b6000806040838503121561203a57600080fd5b600061204885828601611db5565b925050602061205985828601611ea7565b9150509250929050565b60008060006060848603121561207857600080fd5b600061208686828701611db5565b935050602061209786828701611ea7565b925050604084013567ffffffffffffffff8111156120b457600080fd5b6120c086828701611e09565b9150509250925092565b6000602082840312156120dc57600080fd5b60006120ea84828501611ddf565b91505092915050565b60006020828403121561210557600080fd5b600061211384828501611df4565b91505092915050565b6000806020838503121561212f57600080fd5b600083013567ffffffffffffffff81111561214957600080fd5b61215585828601611e33565b92509250509250929050565b60006020828403121561217357600080fd5b600061218184828501611ea7565b91505092915050565b6000806040838503121561219d57600080fd5b60006121ab85828601611ea7565b925050602083013567ffffffffffffffff8111156121c857600080fd5b6121d485828601611e7d565b9150509250929050565b6121e781612946565b82525050565b6121f681612958565b82525050565b600061220782612848565b612211818561285e565b93506122218185602086016129c9565b61222a81612b95565b840191505092915050565b600061224082612853565b61224a818561286f565b935061225a8185602086016129c9565b61226381612b95565b840191505092915050565b600061227982612853565b6122838185612880565b93506122938185602086016129c9565b80840191505092915050565b60006122ac60328361286f565b91506122b782612ba6565b604082019050919050565b60006122cf601c8361286f565b91506122da82612bf5565b602082019050919050565b60006122f260248361286f565b91506122fd82612c1e565b604082019050919050565b600061231560198361286f565b915061232082612c6d565b602082019050919050565b6000612338602c8361286f565b915061234382612c96565b604082019050919050565b600061235b60388361286f565b915061236682612ce5565b604082019050919050565b600061237e602a8361286f565b915061238982612d34565b604082019050919050565b60006123a160298361286f565b91506123ac82612d83565b604082019050919050565b60006123c4602e8361286f565b91506123cf82612dd2565b604082019050919050565b60006123e760208361286f565b91506123f282612e21565b602082019050919050565b600061240a60318361286f565b915061241582612e4a565b604082019050919050565b600061242d602c8361286f565b915061243882612e99565b604082019050919050565b600061245060298361286f565b915061245b82612ee8565b604082019050919050565b6000612473602f8361286f565b915061247e82612f37565b604082019050919050565b600061249660218361286f565b91506124a182612f86565b604082019050919050565b60006124b960318361286f565b91506124c482612fd5565b604082019050919050565b6124d8816129b0565b82525050565b60006124ea828561226e565b91506124f6828461226e565b91508190509392505050565b600060208201905061251760008301846121de565b92915050565b600060808201905061253260008301876121de565b61253f60208301866121de565b61254c60408301856124cf565b818103606083015261255e81846121fc565b905095945050505050565b600060208201905061257e60008301846121ed565b92915050565b6000602082019050818103600083015261259e8184612235565b905092915050565b600060208201905081810360008301526125bf8161229f565b9050919050565b600060208201905081810360008301526125df816122c2565b9050919050565b600060208201905081810360008301526125ff816122e5565b9050919050565b6000602082019050818103600083015261261f81612308565b9050919050565b6000602082019050818103600083015261263f8161232b565b9050919050565b6000602082019050818103600083015261265f8161234e565b9050919050565b6000602082019050818103600083015261267f81612371565b9050919050565b6000602082019050818103600083015261269f81612394565b9050919050565b600060208201905081810360008301526126bf816123b7565b9050919050565b600060208201905081810360008301526126df816123da565b9050919050565b600060208201905081810360008301526126ff816123fd565b9050919050565b6000602082019050818103600083015261271f81612420565b9050919050565b6000602082019050818103600083015261273f81612443565b9050919050565b6000602082019050818103600083015261275f81612466565b9050919050565b6000602082019050818103600083015261277f81612489565b9050919050565b6000602082019050818103600083015261279f816124ac565b9050919050565b60006020820190506127bb60008301846124cf565b92915050565b60006127cb6127dc565b90506127d78282612a2e565b919050565b6000604051905090565b600067ffffffffffffffff82111561280157612800612b66565b5b61280a82612b95565b9050602081019050919050565b600067ffffffffffffffff82111561283257612831612b66565b5b61283b82612b95565b9050602081019050919050565b600081519050919050565b600081519050919050565b600082825260208201905092915050565b600082825260208201905092915050565b600081905092915050565b6000612896826129b0565b91506128a1836129b0565b9250827fffffffffffffffffffffffffffffffffffffffffffffffffffffffffffffffff038211156128d6576128d5612ad9565b5b828201905092915050565b60006128ec826129b0565b91506128f7836129b0565b92508261290757612906612b08565b5b828204905092915050565b600061291d826129b0565b9150612928836129b0565b92508282101561293b5761293a612ad9565b5b828203905092915050565b600061295182612990565b9050919050565b60008115159050919050565b60007fffffffff0000000000000000000000000000000000000000000000000000000082169050919050565b600073ffffffffffffffffffffffffffffffffffffffff82169050919050565b6000819050919050565b82818337600083830152505050565b60005b838110156129e75780820151818401526020810190506129cc565b838111156129f6576000848401525b50505050565b60006002820490506001821680612a1457607f821691505b60208210811415612a2857612a27612b37565b5b50919050565b612a3782612b95565b810181811067ffffffffffffffff82111715612a5657612a55612b66565b5b80604052505050565b6000612a6a826129b0565b91507fffffffffffffffffffffffffffffffffffffffffffffffffffffffffffffffff821415612a9d57612a9c612ad9565b5b600182019050919050565b6000612ab3826129b0565b9150612abe836129b0565b925082612ace57612acd612b08565b5b828206905092915050565b7f4e487b7100000000000000000000000000000000000000000000000000000000600052601160045260246000fd5b7f4e487b7100000000000000000000000000000000000000000000000000000000600052601260045260246000fd5b7f4e487b7100000000000000000000000000000000000000000000000000000000600052602260045260246000fd5b7f4e487b7100000000000000000000000000000000000000000000000000000000600052604160045260246000fd5b6000601f19601f8301169050919050565b7f4552433732313a207472616e7366657220746f206e6f6e20455243373231526560008201527f63656976657220696d706c656d656e7465720000000000000000000000000000602082015250565b7f4552433732313a20746f6b656e20616c7265616479206d696e74656400000000600082015250565b7f4552433732313a207472616e7366657220746f20746865207a65726f2061646460008201527f7265737300000000000000000000000000000000000000000000000000000000602082015250565b7f4552433732313a20617070726f766520746f2063616c6c657200000000000000600082015250565b7f4552433732313a206f70657261746f7220717565727920666f72206e6f6e657860008201527f697374656e7420746f6b656e0000000000000000000000000000000000000000602082015250565b7f4552433732313a20617070726f76652063616c6c6572206973206e6f74206f7760008201527f6e6572206e6f7220617070726f76656420666f7220616c6c0000000000000000602082015250565b7f4552433732313a2062616c616e636520717565727920666f7220746865207a6560008201527f726f206164647265737300000000000000000000000000000000000000000000602082015250565b7f4552433732313a206f776e657220717565727920666f72206e6f6e657869737460008201527f656e7420746f6b656e0000000000000000000000000000000000000000000000602082015250565b7f45524337323155524953746f726167653a2055524920736574206f66206e6f6e60008201527f6578697374656e7420746f6b656e000000000000000000000000000000000000602082015250565b7f4552433732313a206d696e7420746f20746865207a65726f2061646472657373600082015250565b7f45524337323155524953746f726167653a2055524920717565727920666f722060008201527f6e6f6e6578697374656e7420746f6b656e000000000000000000000000000000602082015250565b7f4552433732313a20617070726f76656420717565727920666f72206e6f6e657860008201527f697374656e7420746f6b656e0000000000000000000000000000000000000000602082015250565b7f4552433732313a207472616e73666572206f6620746f6b656e2074686174206960008201527f73206e6f74206f776e0000000000000000000000000000000000000000000000602082015250565b7f4552433732314d657461646174613a2055524920717565727920666f72206e6f60008201527f6e6578697374656e7420746f6b656e0000000000000000000000000000000000602082015250565b7f4552433732313a20617070726f76616c20746f2063757272656e74206f776e6560008201527f7200000000000000000000000000000000000000000000000000000000000000602082015250565b7f4552433732313a207472616e736665722063616c6c6572206973206e6f74206f60008201527f776e6572206e6f7220617070726f766564000000000000000000000000000000602082015250565b61302d81612946565b811461303857600080fd5b50565b61304481612958565b811461304f57600080fd5b50565b61305b81612964565b811461306657600080fd5b50565b613072816129b0565b811461307d57600080fd5b5056fea2646970667358221220bdb4342214edb439a39c94083bf09ce9914f08ea1c18bf5d8bc893144fff0f5164736f6c63430008020033",
  "linkReferences": {},
  "deployedLinkReferences": {}
}