{
  "_format": "hh-sol-artifact-1",
  "contractName": "SafeERC20",
  "sourceName": "contracts/libraries/SafeERC20.sol",
  "abi": [
    {
      "inputs": [
        {
          "internalType": "contract IERC20",
          "name": "token",
          "type": "IERC20"
        }
      ],
      "name": "safeDecimals",
      "outputs": [
        {
          "internalType": "uint8",
          "name": "",
          "type": "uint8"
        }
      ],
      "stateMutability": "view",
      "type": "function"
    }
  ],
  "bytecode": "0x610219610026600b82828239805160001a60731461001957fe5b30600052607381538281f3fe73000000000000000000000000000000000000000030146080604052600436106100355760003560e01c806372a58ae11461003a575b600080fd5b61007c6004803603602081101561005057600080fd5b81019080803573ffffffffffffffffffffffffffffffffffffffff169060200190929190505050610095565b604051808260ff16815260200191505060405180910390f35b60008060608373ffffffffffffffffffffffffffffffffffffffff1663313ce5676040516024016040516020818303038152906040529060e01b6020820180517bffffffffffffffffffffffffffffffffffffffffffffffffffffffff83818316178352505050506040518082805190602001908083835b60208310610130578051825260208201915060208101905060208303925061010d565b6001836020036101000a038019825116818451168082178552505050505050905001915050600060405180830381855afa9150503d8060008114610190576040519150601f19603f3d011682016040523d82523d6000602084013e610195565b606091505b50915091508180156101a8575060208151145b6101b35760126101da565b8080602001905160208110156101c857600080fd5b81019080805190602001909291905050505b9250505091905056fea2646970667358221220cfef790a49d0f5c584226f4681adbf17ac636d03c430fe9ad616fde2bf64aa2664736f6c634300060c0033",
  "linkReferences": {},
  "deployedLinkReferences": {}
}