{
  "_format": "hh-sol-artifact-1",
  "contractName": "GovernorPreventLateQuorumMock",
  "sourceName": "contracts/OZ/mocks/GovernorPreventLateQuorumMock.sol",
  "abi": [
    {
      "inputs": [
        {
          "internalType": "string",
          "name": "name_",
          "type": "string"
        },
        {
          "internalType": "contract ERC20Votes",
          "name": "token_",
          "type": "address"
        },
        {
          "internalType": "uint256",
          "name": "votingDelay_",
          "type": "uint256"
        },
        {
          "internalType": "uint256",
          "name": "votingPeriod_",
          "type": "uint256"
        },
        {
          "internalType": "uint256",
          "name": "quorum_",
          "type": "uint256"
        },
        {
          "internalType": "uint64",
          "name": "voteExtension_",
          "type": "uint64"
        }
      ],
      "stateMutability": "nonpayable",
      "type": "constructor"
    },
    {
      "anonymous": false,
      "inputs": [
        {
          "indexed": false,
          "internalType": "uint64",
          "name": "oldVoteExtension",
          "type": "uint64"
        },
        {
          "indexed": false,
          "internalType": "uint64",
          "name": "newVoteExtension",
          "type": "uint64"
        }
      ],
      "name": "LateQuorumVoteExtensionSet",
      "type": "event"
    },
    {
      "anonymous": false,
      "inputs": [
        {
          "indexed": false,
          "internalType": "uint256",
          "name": "proposalId",
          "type": "uint256"
        }
      ],
      "name": "ProposalCanceled",
      "type": "event"
    },
    {
      "anonymous": false,
      "inputs": [
        {
          "indexed": false,
          "internalType": "uint256",
          "name": "proposalId",
          "type": "uint256"
        },
        {
          "indexed": false,
          "internalType": "address",
          "name": "proposer",
          "type": "address"
        },
        {
          "indexed": false,
          "internalType": "address[]",
          "name": "targets",
          "type": "address[]"
        },
        {
          "indexed": false,
          "internalType": "uint256[]",
          "name": "values",
          "type": "uint256[]"
        },
        {
          "indexed": false,
          "internalType": "string[]",
          "name": "signatures",
          "type": "string[]"
        },
        {
          "indexed": false,
          "internalType": "bytes[]",
          "name": "calldatas",
          "type": "bytes[]"
        },
        {
          "indexed": false,
          "internalType": "uint256",
          "name": "startBlock",
          "type": "uint256"
        },
        {
          "indexed": false,
          "internalType": "uint256",
          "name": "endBlock",
          "type": "uint256"
        },
        {
          "indexed": false,
          "internalType": "string",
          "name": "description",
          "type": "string"
        }
      ],
      "name": "ProposalCreated",
      "type": "event"
    },
    {
      "anonymous": false,
      "inputs": [
        {
          "indexed": false,
          "internalType": "uint256",
          "name": "proposalId",
          "type": "uint256"
        }
      ],
      "name": "ProposalExecuted",
      "type": "event"
    },
    {
      "anonymous": false,
      "inputs": [
        {
          "indexed": true,
          "internalType": "uint256",
          "name": "proposalId",
          "type": "uint256"
        },
        {
          "indexed": false,
          "internalType": "uint64",
          "name": "extendedDeadline",
          "type": "uint64"
        }
      ],
      "name": "ProposalExtended",
      "type": "event"
    },
    {
      "anonymous": false,
      "inputs": [
        {
          "indexed": false,
          "internalType": "uint256",
          "name": "oldProposalThreshold",
          "type": "uint256"
        },
        {
          "indexed": false,
          "internalType": "uint256",
          "name": "newProposalThreshold",
          "type": "uint256"
        }
      ],
      "name": "ProposalThresholdSet",
      "type": "event"
    },
    {
      "anonymous": false,
      "inputs": [
        {
          "indexed": true,
          "internalType": "address",
          "name": "voter",
          "type": "address"
        },
        {
          "indexed": false,
          "internalType": "uint256",
          "name": "proposalId",
          "type": "uint256"
        },
        {
          "indexed": false,
          "internalType": "uint8",
          "name": "support",
          "type": "uint8"
        },
        {
          "indexed": false,
          "internalType": "uint256",
          "name": "weight",
          "type": "uint256"
        },
        {
          "indexed": false,
          "internalType": "string",
          "name": "reason",
          "type": "string"
        }
      ],
      "name": "VoteCast",
      "type": "event"
    },
    {
      "anonymous": false,
      "inputs": [
        {
          "indexed": false,
          "internalType": "uint256",
          "name": "oldVotingDelay",
          "type": "uint256"
        },
        {
          "indexed": false,
          "internalType": "uint256",
          "name": "newVotingDelay",
          "type": "uint256"
        }
      ],
      "name": "VotingDelaySet",
      "type": "event"
    },
    {
      "anonymous": false,
      "inputs": [
        {
          "indexed": false,
          "internalType": "uint256",
          "name": "oldVotingPeriod",
          "type": "uint256"
        },
        {
          "indexed": false,
          "internalType": "uint256",
          "name": "newVotingPeriod",
          "type": "uint256"
        }
      ],
      "name": "VotingPeriodSet",
      "type": "event"
    },
    {
      "inputs": [],
      "name": "BALLOT_TYPEHASH",
      "outputs": [
        {
          "internalType": "bytes32",
          "name": "",
          "type": "bytes32"
        }
      ],
      "stateMutability": "view",
      "type": "function"
    },
    {
      "inputs": [],
      "name": "COUNTING_MODE",
      "outputs": [
        {
          "internalType": "string",
          "name": "",
          "type": "string"
        }
      ],
      "stateMutability": "pure",
      "type": "function"
    },
    {
      "inputs": [
        {
          "internalType": "uint256",
          "name": "proposalId",
          "type": "uint256"
        },
        {
          "internalType": "uint8",
          "name": "support",
          "type": "uint8"
        }
      ],
      "name": "castVote",
      "outputs": [
        {
          "internalType": "uint256",
          "name": "",
          "type": "uint256"
        }
      ],
      "stateMutability": "nonpayable",
      "type": "function"
    },
    {
      "inputs": [
        {
          "internalType": "uint256",
          "name": "proposalId",
          "type": "uint256"
        },
        {
          "internalType": "uint8",
          "name": "support",
          "type": "uint8"
        },
        {
          "internalType": "uint8",
          "name": "v",
          "type": "uint8"
        },
        {
          "internalType": "bytes32",
          "name": "r",
          "type": "bytes32"
        },
        {
          "internalType": "bytes32",
          "name": "s",
          "type": "bytes32"
        }
      ],
      "name": "castVoteBySig",
      "outputs": [
        {
          "internalType": "uint256",
          "name": "",
          "type": "uint256"
        }
      ],
      "stateMutability": "nonpayable",
      "type": "function"
    },
    {
      "inputs": [
        {
          "internalType": "uint256",
          "name": "proposalId",
          "type": "uint256"
        },
        {
          "internalType": "uint8",
          "name": "support",
          "type": "uint8"
        },
        {
          "internalType": "string",
          "name": "reason",
          "type": "string"
        }
      ],
      "name": "castVoteWithReason",
      "outputs": [
        {
          "internalType": "uint256",
          "name": "",
          "type": "uint256"
        }
      ],
      "stateMutability": "nonpayable",
      "type": "function"
    },
    {
      "inputs": [
        {
          "internalType": "address[]",
          "name": "targets",
          "type": "address[]"
        },
        {
          "internalType": "uint256[]",
          "name": "values",
          "type": "uint256[]"
        },
        {
          "internalType": "bytes[]",
          "name": "calldatas",
          "type": "bytes[]"
        },
        {
          "internalType": "bytes32",
          "name": "descriptionHash",
          "type": "bytes32"
        }
      ],
      "name": "execute",
      "outputs": [
        {
          "internalType": "uint256",
          "name": "",
          "type": "uint256"
        }
      ],
      "stateMutability": "payable",
      "type": "function"
    },
    {
      "inputs": [
        {
          "internalType": "address",
          "name": "account",
          "type": "address"
        },
        {
          "internalType": "uint256",
          "name": "blockNumber",
          "type": "uint256"
        }
      ],
      "name": "getVotes",
      "outputs": [
        {
          "internalType": "uint256",
          "name": "",
          "type": "uint256"
        }
      ],
      "stateMutability": "view",
      "type": "function"
    },
    {
      "inputs": [
        {
          "internalType": "uint256",
          "name": "proposalId",
          "type": "uint256"
        },
        {
          "internalType": "address",
          "name": "account",
          "type": "address"
        }
      ],
      "name": "hasVoted",
      "outputs": [
        {
          "internalType": "bool",
          "name": "",
          "type": "bool"
        }
      ],
      "stateMutability": "view",
      "type": "function"
    },
    {
      "inputs": [
        {
          "internalType": "address[]",
          "name": "targets",
          "type": "address[]"
        },
        {
          "internalType": "uint256[]",
          "name": "values",
          "type": "uint256[]"
        },
        {
          "internalType": "bytes[]",
          "name": "calldatas",
          "type": "bytes[]"
        },
        {
          "internalType": "bytes32",
          "name": "descriptionHash",
          "type": "bytes32"
        }
      ],
      "name": "hashProposal",
      "outputs": [
        {
          "internalType": "uint256",
          "name": "",
          "type": "uint256"
        }
      ],
      "stateMutability": "pure",
      "type": "function"
    },
    {
      "inputs": [],
      "name": "lateQuorumVoteExtension",
      "outputs": [
        {
          "internalType": "uint64",
          "name": "",
          "type": "uint64"
        }
      ],
      "stateMutability": "view",
      "type": "function"
    },
    {
      "inputs": [],
      "name": "name",
      "outputs": [
        {
          "internalType": "string",
          "name": "",
          "type": "string"
        }
      ],
      "stateMutability": "view",
      "type": "function"
    },
    {
      "inputs": [
        {
          "internalType": "uint256",
          "name": "proposalId",
          "type": "uint256"
        }
      ],
      "name": "proposalDeadline",
      "outputs": [
        {
          "internalType": "uint256",
          "name": "",
          "type": "uint256"
        }
      ],
      "stateMutability": "view",
      "type": "function"
    },
    {
      "inputs": [
        {
          "internalType": "uint256",
          "name": "proposalId",
          "type": "uint256"
        }
      ],
      "name": "proposalSnapshot",
      "outputs": [
        {
          "internalType": "uint256",
          "name": "",
          "type": "uint256"
        }
      ],
      "stateMutability": "view",
      "type": "function"
    },
    {
      "inputs": [],
      "name": "proposalThreshold",
      "outputs": [
        {
          "internalType": "uint256",
          "name": "",
          "type": "uint256"
        }
      ],
      "stateMutability": "view",
      "type": "function"
    },
    {
      "inputs": [
        {
          "internalType": "uint256",
          "name": "proposalId",
          "type": "uint256"
        }
      ],
      "name": "proposalVotes",
      "outputs": [
        {
          "internalType": "uint256",
          "name": "againstVotes",
          "type": "uint256"
        },
        {
          "internalType": "uint256",
          "name": "forVotes",
          "type": "uint256"
        },
        {
          "internalType": "uint256",
          "name": "abstainVotes",
          "type": "uint256"
        }
      ],
      "stateMutability": "view",
      "type": "function"
    },
    {
      "inputs": [
        {
          "internalType": "address[]",
          "name": "targets",
          "type": "address[]"
        },
        {
          "internalType": "uint256[]",
          "name": "values",
          "type": "uint256[]"
        },
        {
          "internalType": "bytes[]",
          "name": "calldatas",
          "type": "bytes[]"
        },
        {
          "internalType": "string",
          "name": "description",
          "type": "string"
        }
      ],
      "name": "propose",
      "outputs": [
        {
          "internalType": "uint256",
          "name": "",
          "type": "uint256"
        }
      ],
      "stateMutability": "nonpayable",
      "type": "function"
    },
    {
      "inputs": [
        {
          "internalType": "uint256",
          "name": "",
          "type": "uint256"
        }
      ],
      "name": "quorum",
      "outputs": [
        {
          "internalType": "uint256",
          "name": "",
          "type": "uint256"
        }
      ],
      "stateMutability": "view",
      "type": "function"
    },
    {
      "inputs": [
        {
          "internalType": "address",
          "name": "target",
          "type": "address"
        },
        {
          "internalType": "uint256",
          "name": "value",
          "type": "uint256"
        },
        {
          "internalType": "bytes",
          "name": "data",
          "type": "bytes"
        }
      ],
      "name": "relay",
      "outputs": [],
      "stateMutability": "nonpayable",
      "type": "function"
    },
    {
      "inputs": [
        {
          "internalType": "uint64",
          "name": "newVoteExtension",
          "type": "uint64"
        }
      ],
      "name": "setLateQuorumVoteExtension",
      "outputs": [],
      "stateMutability": "nonpayable",
      "type": "function"
    },
    {
      "inputs": [
        {
          "internalType": "uint256",
          "name": "newProposalThreshold",
          "type": "uint256"
        }
      ],
      "name": "setProposalThreshold",
      "outputs": [],
      "stateMutability": "nonpayable",
      "type": "function"
    },
    {
      "inputs": [
        {
          "internalType": "uint256",
          "name": "newVotingDelay",
          "type": "uint256"
        }
      ],
      "name": "setVotingDelay",
      "outputs": [],
      "stateMutability": "nonpayable",
      "type": "function"
    },
    {
      "inputs": [
        {
          "internalType": "uint256",
          "name": "newVotingPeriod",
          "type": "uint256"
        }
      ],
      "name": "setVotingPeriod",
      "outputs": [],
      "stateMutability": "nonpayable",
      "type": "function"
    },
    {
      "inputs": [
        {
          "internalType": "uint256",
          "name": "proposalId",
          "type": "uint256"
        }
      ],
      "name": "state",
      "outputs": [
        {
          "internalType": "enum IGovernor.ProposalState",
          "name": "",
          "type": "uint8"
        }
      ],
      "stateMutability": "view",
      "type": "function"
    },
    {
      "inputs": [
        {
          "internalType": "bytes4",
          "name": "interfaceId",
          "type": "bytes4"
        }
      ],
      "name": "supportsInterface",
      "outputs": [
        {
          "internalType": "bool",
          "name": "",
          "type": "bool"
        }
      ],
      "stateMutability": "view",
      "type": "function"
    },
    {
      "inputs": [],
      "name": "token",
      "outputs": [
        {
          "internalType": "contract ERC20Votes",
          "name": "",
          "type": "address"
        }
      ],
      "stateMutability": "view",
      "type": "function"
    },
    {
      "inputs": [],
      "name": "version",
      "outputs": [
        {
          "internalType": "string",
          "name": "",
          "type": "string"
        }
      ],
      "stateMutability": "view",
      "type": "function"
    },
    {
      "inputs": [],
      "name": "votingDelay",
      "outputs": [
        {
          "internalType": "uint256",
          "name": "",
          "type": "uint256"
        }
      ],
      "stateMutability": "view",
      "type": "function"
    },
    {
      "inputs": [],
      "name": "votingPeriod",
      "outputs": [
        {
          "internalType": "uint256",
          "name": "",
          "type": "uint256"
        }
      ],
      "stateMutability": "view",
      "type": "function"
    },
    {
      "stateMutability": "payable",
      "type": "receive"
    }
  ],
  "bytecode": "0x6101606040523480156200001257600080fd5b50604051620052ed380380620052ed83398181016040528101906200003891906200052b565b8085858560008a8062000050620001b360201b60201c565b60008280519060200120905060008280519060200120905060007f8b73c3c69bb8fe3d512ecc4cf759cc79239f7b179b0ffacaa9a75d522b39400f90508260e081815250508161010081815250504660a08181525050620000b9818484620001f060201b60201c565b608081815250503073ffffffffffffffffffffffffffffffffffffffff1660c08173ffffffffffffffffffffffffffffffffffffffff1660601b81525050806101208181525050505050505080600090805190602001906200011d929190620003c4565b505062000130836200022c60201b60201c565b62000141826200027360201b60201c565b62000152816200030060201b60201c565b5050508073ffffffffffffffffffffffffffffffffffffffff166101408173ffffffffffffffffffffffffffffffffffffffff1660601b81525050506200019f816200034760201b60201c565b5081600881905550505050505050620009ac565b60606040518060400160405280600181526020017f3100000000000000000000000000000000000000000000000000000000000000815250905090565b600083838346306040516020016200020d95949392919062000645565b6040516020818303038152906040528051906020012090509392505050565b7fc565b045403dc03c2eea82b81a0465edad9e2e7fc4d97e11421c209da93d7a936002548260405162000261929190620006c4565b60405180910390a18060028190555050565b60008111620002b9576040517f08c379a0000000000000000000000000000000000000000000000000000000008152600401620002b090620006a2565b60405180910390fd5b7f7e3f7f0708a84de9203036abaa450dccc85ad5ff52f78c170f3edb55cf5e882860035482604051620002ee929190620006c4565b60405180910390a18060038190555050565b7fccb45da8d5717e6c4544694297c4ba5cf151d455c9bb0ed4fc7a38411bc054616004548260405162000335929190620006c4565b60405180910390a18060048190555050565b7f7ca4ac117ed3cdce75c1161d8207c440389b1a15d69d096831664657c07dafc2600660009054906101000a900467ffffffffffffffff168260405162000390929190620006f1565b60405180910390a180600660006101000a81548167ffffffffffffffff021916908367ffffffffffffffff16021790555050565b828054620003d29062000834565b90600052602060002090601f016020900481019282620003f6576000855562000442565b82601f106200041157805160ff191683800117855562000442565b8280016001018555821562000442579182015b828111156200044157825182559160200191906001019062000424565b5b50905062000451919062000455565b5090565b5b808211156200047057600081600090555060010162000456565b5090565b60006200048b620004858462000747565b6200071e565b905082815260208101848484011115620004a457600080fd5b620004b1848285620007fe565b509392505050565b600081519050620004ca816200095e565b92915050565b600082601f830112620004e257600080fd5b8151620004f484826020860162000474565b91505092915050565b6000815190506200050e8162000978565b92915050565b600081519050620005258162000992565b92915050565b60008060008060008060c087890312156200054557600080fd5b600087015167ffffffffffffffff8111156200056057600080fd5b6200056e89828a01620004d0565b96505060206200058189828a01620004b9565b95505060406200059489828a01620004fd565b9450506060620005a789828a01620004fd565b9350506080620005ba89828a01620004fd565b92505060a0620005cd89828a0162000514565b9150509295509295509295565b620005e5816200078e565b82525050565b620005f681620007a2565b82525050565b60006200060b6027836200077d565b915062000618826200090f565b604082019050919050565b6200062e81620007e0565b82525050565b6200063f81620007ea565b82525050565b600060a0820190506200065c6000830188620005eb565b6200066b6020830187620005eb565b6200067a6040830186620005eb565b62000689606083018562000623565b620006986080830184620005da565b9695505050505050565b60006020820190508181036000830152620006bd81620005fc565b9050919050565b6000604082019050620006db600083018562000623565b620006ea602083018462000623565b9392505050565b600060408201905062000708600083018562000634565b62000717602083018462000634565b9392505050565b60006200072a6200073d565b90506200073882826200086a565b919050565b6000604051905090565b600067ffffffffffffffff821115620007655762000764620008cf565b5b6200077082620008fe565b9050602081019050919050565b600082825260208201905092915050565b60006200079b82620007c0565b9050919050565b6000819050919050565b6000620007b9826200078e565b9050919050565b600073ffffffffffffffffffffffffffffffffffffffff82169050919050565b6000819050919050565b600067ffffffffffffffff82169050919050565b60005b838110156200081e57808201518184015260208101905062000801565b838111156200082e576000848401525b50505050565b600060028204905060018216806200084d57607f821691505b60208210811415620008645762000863620008a0565b5b50919050565b6200087582620008fe565b810181811067ffffffffffffffff82111715620008975762000896620008cf565b5b80604052505050565b7f4e487b7100000000000000000000000000000000000000000000000000000000600052602260045260246000fd5b7f4e487b7100000000000000000000000000000000000000000000000000000000600052604160045260246000fd5b6000601f19601f8301169050919050565b7f476f7665726e6f7253657474696e67733a20766f74696e6720706572696f642060008201527f746f6f206c6f7700000000000000000000000000000000000000000000000000602082015250565b6200096981620007ac565b81146200097557600080fd5b50565b6200098381620007e0565b81146200098f57600080fd5b50565b6200099d81620007ea565b8114620009a957600080fd5b50565b60805160a05160c05160601c60e05161010051610120516101405160601c6148d962000a146000396000818161148a01526115d101526000611cba01526000611cfc01526000611cdb01526000611c1001526000611c6601526000611c8f01526148d96000f3fe6080604052600436106101bb5760003560e01c80637b3c71d3116100ec578063dd4e2ba51161008a578063eb9019d411610064578063eb9019d4146106d3578063ece40cc114610710578063f8ce560a14610739578063fc0c546a1461077657610201565b8063dd4e2ba514610654578063deaaa7cc1461067f578063ea0217cf146106aa57610201565b8063c01f9e37116100c6578063c01f9e3714610588578063c28bc2fa146105c5578063c59057e4146105ee578063d07f91e91461062b57610201565b80637b3c71d3146104e35780637d5e81e214610520578063b58131b01461055d57610201565b80633bccf4fd11610159578063544ffc9c11610133578063544ffc9c1461041357806354fd4d5014610452578063567813881461047d57806370b0f660146104ba57610201565b80633bccf4fd1461035c5780633e4f49e61461039957806343859632146103d657610201565b80632656227d116101955780632656227d146102995780632d63f693146102c957806332b8113e146103065780633932abb11461033157610201565b806301ffc9a71461020657806302a251a31461024357806306fdde031461026e57610201565b36610201573073ffffffffffffffffffffffffffffffffffffffff166101df6107a1565b73ffffffffffffffffffffffffffffffffffffffff16146101ff57600080fd5b005b600080fd5b34801561021257600080fd5b5061022d60048036038101906102289190612e90565b6107a9565b60405161023a919061378f565b60405180910390f35b34801561024f57600080fd5b50610258610823565b6040516102659190613b2c565b60405180910390f35b34801561027a57600080fd5b5061028361082d565b60405161029091906138ca565b60405180910390f35b6102b360048036038101906102ae9190612d22565b6108bf565b6040516102c09190613b2c565b60405180910390f35b3480156102d557600080fd5b506102f060048036038101906102eb9190612eb9565b610a8a565b6040516102fd9190613b2c565b60405180910390f35b34801561031257600080fd5b5061031b610af8565b6040516103289190613ca3565b60405180910390f35b34801561033d57600080fd5b50610346610b16565b6040516103539190613b2c565b60405180910390f35b34801561036857600080fd5b50610383600480360381019061037e9190612fef565b610b20565b6040516103909190613b2c565b60405180910390f35b3480156103a557600080fd5b506103c060048036038101906103bb9190612eb9565b610baa565b6040516103cd91906138af565b60405180910390f35b3480156103e257600080fd5b506103fd60048036038101906103f89190612f0b565b610cbf565b60405161040a919061378f565b60405180910390f35b34801561041f57600080fd5b5061043a60048036038101906104359190612eb9565b610d2a565b60405161044993929190613c20565b60405180910390f35b34801561045e57600080fd5b50610467610d62565b60405161047491906138ca565b60405180910390f35b34801561048957600080fd5b506104a4600480360381019061049f9190612f47565b610d9f565b6040516104b19190613b2c565b60405180910390f35b3480156104c657600080fd5b506104e160048036038101906104dc9190612eb9565b610dd0565b005b3480156104ef57600080fd5b5061050a60048036038101906105059190612f83565b610e58565b6040516105179190613b2c565b60405180910390f35b34801561052c57600080fd5b5061054760048036038101906105429190612dcd565b610ec0565b6040516105549190613b2c565b60405180910390f35b34801561056957600080fd5b506105726111e6565b60405161057f9190613b2c565b60405180910390f35b34801561059457600080fd5b506105af60048036038101906105aa9190612eb9565b6111f5565b6040516105bc9190613b2c565b60405180910390f35b3480156105d157600080fd5b506105ec60048036038101906105e79190612cb6565b611207565b005b3480156105fa57600080fd5b5061061560048036038101906106109190612d22565b6112d9565b6040516106229190613b2c565b60405180910390f35b34801561063757600080fd5b50610652600480360381019061064d9190613066565b611315565b005b34801561066057600080fd5b5061066961139d565b60405161067691906138ca565b60405180910390f35b34801561068b57600080fd5b506106946113da565b6040516106a191906137aa565b60405180910390f35b3480156106b657600080fd5b506106d160048036038101906106cc9190612eb9565b6113fe565b005b3480156106df57600080fd5b506106fa60048036038101906106f59190612c7a565b611486565b6040516107079190613b2c565b60405180910390f35b34801561071c57600080fd5b5061073760048036038101906107329190612eb9565b61153b565b005b34801561074557600080fd5b50610760600480360381019061075b9190612eb9565b6115c3565b60405161076d9190613b2c565b60405180910390f35b34801561078257600080fd5b5061078b6115cf565b6040516107989190613894565b60405180910390f35b600030905090565b60007fbf26d897000000000000000000000000000000000000000000000000000000007bffffffffffffffffffffffffffffffffffffffffffffffffffffffff1916827bffffffffffffffffffffffffffffffffffffffffffffffffffffffff1916148061081c575061081b826115f3565b5b9050919050565b6000600354905090565b60606000805461083c90614139565b80601f016020809104026020016040519081016040528092919081815260200182805461086890614139565b80156108b55780601f1061088a576101008083540402835291602001916108b5565b820191906000526020600020905b81548152906001019060200180831161089857829003601f168201915b5050505050905090565b6000806108ce868686866112d9565b905060006108db82610baa565b905060046007811115610917577f4e487b7100000000000000000000000000000000000000000000000000000000600052602160045260246000fd5b816007811115610950577f4e487b7100000000000000000000000000000000000000000000000000000000600052602160045260246000fd5b14806109cc575060056007811115610991577f4e487b7100000000000000000000000000000000000000000000000000000000600052602160045260246000fd5b8160078111156109ca577f4e487b7100000000000000000000000000000000000000000000000000000000600052602160045260246000fd5b145b610a0b576040517f08c379a0000000000000000000000000000000000000000000000000000000008152600401610a0290613a8c565b60405180910390fd5b600180600084815260200190815260200160002060020160006101000a81548160ff0219169083151502179055507f712ae1383f79ac853f8d882153778e0260ef8f03b504e2866e0593e04d2b291f82604051610a689190613b2c565b60405180910390a1610a7d828888888861165d565b8192505050949350505050565b6000610ae7600160008481526020019081526020016000206000016040518060200160405290816000820160009054906101000a900467ffffffffffffffff1667ffffffffffffffff1667ffffffffffffffff16815250506117de565b67ffffffffffffffff169050919050565b6000600660009054906101000a900467ffffffffffffffff16905090565b6000600254905090565b600080610b81610b797f150214d74d59b7d1e90c73fc22ef3d991dd0a76b046543d4d80ab92d2a50328f8989604051602001610b5e93929190613818565b604051602081830303815290604052805190602001206117ec565b868686611806565b9050610b9e87828860405180602001604052806000815250611831565b91505095945050505050565b6000806001600084815260200190815260200160002090508060020160009054906101000a900460ff1615610be3576007915050610cba565b8060020160019054906101000a900460ff1615610c04576002915050610cba565b6000610c0f84610a8a565b90506000811415610c55576040517f08c379a0000000000000000000000000000000000000000000000000000000008152600401610c4c90613aac565b60405180910390fd5b438110610c6757600092505050610cba565b6000610c72856111f5565b9050438110610c875760019350505050610cba565b610c9085611849565b8015610ca15750610ca085611890565b5b15610cb25760049350505050610cba565b600393505050505b919050565b60006005600084815260200190815260200160002060030160008373ffffffffffffffffffffffffffffffffffffffff1673ffffffffffffffffffffffffffffffffffffffff16815260200190815260200160002060009054906101000a900460ff16905092915050565b600080600080600560008681526020019081526020016000209050806000015481600101548260020154935093509350509193909250565b60606040518060400160405280600181526020017f3100000000000000000000000000000000000000000000000000000000000000815250905090565b600080610daa6118bb565b9050610dc784828560405180602001604052806000815250611831565b91505092915050565b610dd86107a1565b73ffffffffffffffffffffffffffffffffffffffff16610df66118bb565b73ffffffffffffffffffffffffffffffffffffffff1614610e4c576040517f08c379a0000000000000000000000000000000000000000000000000000000008152600401610e439061390c565b60405180910390fd5b610e55816118c3565b50565b600080610e636118bb565b9050610eb586828787878080601f016020809104026020016040519081016040528093929190818152602001838380828437600081840152601f19601f82011690508083019250505050505050611831565b915050949350505050565b6000610eca6111e6565b610ee033600143610edb9190613fc9565b611486565b1015610f21576040517f08c379a0000000000000000000000000000000000000000000000000000000008152600401610f189061392c565b60405180910390fd5b6000610f3686868686805190602001206112d9565b90508451865114610f7c576040517f08c379a0000000000000000000000000000000000000000000000000000000008152600401610f739061396c565b60405180910390fd5b8351865114610fc0576040517f08c379a0000000000000000000000000000000000000000000000000000000008152600401610fb79061396c565b60405180910390fd5b6000865111611004576040517f08c379a0000000000000000000000000000000000000000000000000000000008152600401610ffb90613a2c565b60405180910390fd5b6000600160008381526020019081526020016000209050611064816000016040518060200160405290816000820160009054906101000a900467ffffffffffffffff1667ffffffffffffffff1667ffffffffffffffff1681525050611908565b6110a3576040517f08c379a000000000000000000000000000000000000000000000000000000000815260040161109a90613aec565b60405180910390fd5b60006110b56110b0610b16565b611922565b6110be43611922565b6110c89190613f8b565b905060006110dc6110d7610823565b611922565b826110e79190613f8b565b90506110ff828460000161197990919063ffffffff16565b611115818460010161197990919063ffffffff16565b7f7d84a6263ae0d98d3329bd7b46bb4e8d6f98cd35a7adb45c274c8b7fd5ebd5e08461113f6118bb565b8b8b8d5167ffffffffffffffff811115611182577f4e487b7100000000000000000000000000000000000000000000000000000000600052604160045260246000fd5b6040519080825280602002602001820160405280156111b557816020015b60608152602001906001900390816111a05790505b508c88888e6040516111cf99989796959493929190613b47565b60405180910390a183945050505050949350505050565b60006111f06119a8565b905090565b6000611200826119b2565b9050919050565b61120f6107a1565b73ffffffffffffffffffffffffffffffffffffffff1661122d6118bb565b73ffffffffffffffffffffffffffffffffffffffff1614611283576040517f08c379a000000000000000000000000000000000000000000000000000000000815260040161127a9061390c565b60405180910390fd5b6112d28483838080601f016020809104026020016040519081016040528093929190818152602001838380828437600081840152601f19601f8201169050808301925050505050505085611a2e565b5050505050565b6000848484846040516020016112f29493929190613735565b6040516020818303038152906040528051906020012060001c9050949350505050565b61131d6107a1565b73ffffffffffffffffffffffffffffffffffffffff1661133b6118bb565b73ffffffffffffffffffffffffffffffffffffffff1614611391576040517f08c379a00000000000000000000000000000000000000000000000000000000081526004016113889061390c565b60405180910390fd5b61139a81611a5d565b50565b60606040518060400160405280602081526020017f737570706f72743d627261766f2671756f72756d3d666f722c6162737461696e815250905090565b7f150214d74d59b7d1e90c73fc22ef3d991dd0a76b046543d4d80ab92d2a50328f81565b6114066107a1565b73ffffffffffffffffffffffffffffffffffffffff166114246118bb565b73ffffffffffffffffffffffffffffffffffffffff161461147a576040517f08c379a00000000000000000000000000000000000000000000000000000000081526004016114719061390c565b60405180910390fd5b61148381611ad8565b50565b60007f000000000000000000000000000000000000000000000000000000000000000073ffffffffffffffffffffffffffffffffffffffff16633a46b1a884846040518363ffffffff1660e01b81526004016114e392919061370c565b60206040518083038186803b1580156114fb57600080fd5b505afa15801561150f573d6000803e3d6000fd5b505050506040513d601f19601f820116820180604052508101906115339190612ee2565b905092915050565b6115436107a1565b73ffffffffffffffffffffffffffffffffffffffff166115616118bb565b73ffffffffffffffffffffffffffffffffffffffff16146115b7576040517f08c379a00000000000000000000000000000000000000000000000000000000081526004016115ae9061390c565b60405180910390fd5b6115c081611b60565b50565b60006008549050919050565b7f000000000000000000000000000000000000000000000000000000000000000081565b60007f01ffc9a7000000000000000000000000000000000000000000000000000000007bffffffffffffffffffffffffffffffffffffffffffffffffffffffff1916827bffffffffffffffffffffffffffffffffffffffffffffffffffffffff1916149050919050565b600060405180606001604052806027815260200161485460279139905060005b85518110156117d5576000808783815181106116c2577f4e487b7100000000000000000000000000000000000000000000000000000000600052603260045260246000fd5b602002602001015173ffffffffffffffffffffffffffffffffffffffff16878481518110611719577f4e487b7100000000000000000000000000000000000000000000000000000000600052603260045260246000fd5b602002602001015187858151811061175a577f4e487b7100000000000000000000000000000000000000000000000000000000600052603260045260246000fd5b602002602001015160405161176f91906136be565b60006040518083038185875af1925050503d80600081146117ac576040519150601f19603f3d011682016040523d82523d6000602084013e6117b1565b606091505b50915091506117c1828286611ba5565b505050806117ce9061419c565b905061167d565b50505050505050565b600081600001519050919050565b60006117ff6117f9611c0c565b83611d26565b9050919050565b600080600061181787878787611d59565b9150915061182481611e66565b8192505050949350505050565b600061183f858585856121b7565b9050949350505050565b600080600560008481526020019081526020016000209050806002015481600101546118759190613f35565b61188661188185610a8a565b6115c3565b1115915050919050565b6000806005600084815260200190815260200160002090508060000154816001015411915050919050565b600033905090565b7fc565b045403dc03c2eea82b81a0465edad9e2e7fc4d97e11421c209da93d7a93600254826040516118f6929190613bf7565b60405180910390a18060028190555050565b600080826000015167ffffffffffffffff16149050919050565b600067ffffffffffffffff8016821115611971576040517f08c379a000000000000000000000000000000000000000000000000000000000815260040161196890613a6c565b60405180910390fd5b819050919050565b808260000160006101000a81548167ffffffffffffffff021916908367ffffffffffffffff1602179055505050565b6000600454905090565b6000611a276119c0836122cf565b611a18600760008681526020019081526020016000206040518060200160405290816000820160009054906101000a900467ffffffffffffffff1667ffffffffffffffff1667ffffffffffffffff16815250506117de565b67ffffffffffffffff1661233d565b9050919050565b6060611a5484848460405180606001604052806029815260200161487b60299139612357565b90509392505050565b7f7ca4ac117ed3cdce75c1161d8207c440389b1a15d69d096831664657c07dafc2600660009054906101000a900467ffffffffffffffff1682604051611aa4929190613cbe565b60405180910390a180600660006101000a81548167ffffffffffffffff021916908367ffffffffffffffff16021790555050565b60008111611b1b576040517f08c379a0000000000000000000000000000000000000000000000000000000008152600401611b129061398c565b60405180910390fd5b7f7e3f7f0708a84de9203036abaa450dccc85ad5ff52f78c170f3edb55cf5e882860035482604051611b4e929190613bf7565b60405180910390a18060038190555050565b7fccb45da8d5717e6c4544694297c4ba5cf151d455c9bb0ed4fc7a38411bc0546160045482604051611b93929190613bf7565b60405180910390a18060048190555050565b60608315611bb557829050611c05565b600083511115611bc85782518084602001fd5b816040517f08c379a0000000000000000000000000000000000000000000000000000000008152600401611bfc91906138ca565b60405180910390fd5b9392505050565b60007f000000000000000000000000000000000000000000000000000000000000000073ffffffffffffffffffffffffffffffffffffffff163073ffffffffffffffffffffffffffffffffffffffff16148015611c8857507f000000000000000000000000000000000000000000000000000000000000000046145b15611cb5577f00000000000000000000000000000000000000000000000000000000000000009050611d23565b611d207f00000000000000000000000000000000000000000000000000000000000000007f00000000000000000000000000000000000000000000000000000000000000007f000000000000000000000000000000000000000000000000000000000000000061246b565b90505b90565b60008282604051602001611d3b9291906136d5565b60405160208183030381529060405280519060200120905092915050565b6000807f7fffffffffffffffffffffffffffffff5d576e7357a4501ddfe92f46681b20a08360001c1115611d94576000600391509150611e5d565b601b8560ff1614158015611dac5750601c8560ff1614155b15611dbe576000600491509150611e5d565b600060018787878760405160008152602001604052604051611de3949392919061384f565b6020604051602081039080840390855afa158015611e05573d6000803e3d6000fd5b505050602060405103519050600073ffffffffffffffffffffffffffffffffffffffff168173ffffffffffffffffffffffffffffffffffffffff161415611e5457600060019250925050611e5d565b80600092509250505b94509492505050565b60006004811115611ea0577f4e487b7100000000000000000000000000000000000000000000000000000000600052602160045260246000fd5b816004811115611ed9577f4e487b7100000000000000000000000000000000000000000000000000000000600052602160045260246000fd5b1415611ee4576121b4565b60016004811115611f1e577f4e487b7100000000000000000000000000000000000000000000000000000000600052602160045260246000fd5b816004811115611f57577f4e487b7100000000000000000000000000000000000000000000000000000000600052602160045260246000fd5b1415611f98576040517f08c379a0000000000000000000000000000000000000000000000000000000008152600401611f8f906138ec565b60405180910390fd5b60026004811115611fd2577f4e487b7100000000000000000000000000000000000000000000000000000000600052602160045260246000fd5b81600481111561200b577f4e487b7100000000000000000000000000000000000000000000000000000000600052602160045260246000fd5b141561204c576040517f08c379a00000000000000000000000000000000000000000000000000000000081526004016120439061394c565b60405180910390fd5b60036004811115612086577f4e487b7100000000000000000000000000000000000000000000000000000000600052602160045260246000fd5b8160048111156120bf577f4e487b7100000000000000000000000000000000000000000000000000000000600052602160045260246000fd5b1415612100576040517f08c379a00000000000000000000000000000000000000000000000000000000081526004016120f7906139ac565b60405180910390fd5b600480811115612139577f4e487b7100000000000000000000000000000000000000000000000000000000600052602160045260246000fd5b816004811115612172577f4e487b7100000000000000000000000000000000000000000000000000000000600052602160045260246000fd5b14156121b3576040517f08c379a00000000000000000000000000000000000000000000000000000000081526004016121aa90613a4c565b60405180910390fd5b5b50565b6000806121c6868686866124a5565b90506000600760008881526020019081526020016000209050612225816040518060200160405290816000820160009054906101000a900467ffffffffffffffff1667ffffffffffffffff1667ffffffffffffffff1681525050611908565b8015612236575061223587611849565b5b156122c2576000612245610af8565b61224e43611922565b6122589190613f8b565b9050612263886111f5565b8167ffffffffffffffff1611156122ad57877f541f725fb9f7c98a30cc9c0ff32fbb14358cd7159c847a3aa20a2bdc442ba511826040516122a49190613ca3565b60405180910390a25b6122c0818361197990919063ffffffff16565b505b8192505050949350505050565b600061232c600160008481526020019081526020016000206001016040518060200160405290816000820160009054906101000a900467ffffffffffffffff1667ffffffffffffffff1667ffffffffffffffff16815250506117de565b67ffffffffffffffff169050919050565b60008183101561234d578161234f565b825b905092915050565b60608247101561239c576040517f08c379a0000000000000000000000000000000000000000000000000000000008152600401612393906139ec565b60405180910390fd5b6123a585612645565b6123e4576040517f08c379a00000000000000000000000000000000000000000000000000000000081526004016123db90613b0c565b60405180910390fd5b6000808673ffffffffffffffffffffffffffffffffffffffff16858760405161240d91906136be565b60006040518083038185875af1925050503d806000811461244a576040519150601f19603f3d011682016040523d82523d6000602084013e61244f565b606091505b509150915061245f828286611ba5565b92505050949350505050565b600083838346306040516020016124869594939291906137c5565b6040516020818303038152906040528051906020012090509392505050565b600080600160008781526020019081526020016000209050600160078111156124f7577f4e487b7100000000000000000000000000000000000000000000000000000000600052602160045260246000fd5b61250087610baa565b6007811115612538577f4e487b7100000000000000000000000000000000000000000000000000000000600052602160045260246000fd5b14612578576040517f08c379a000000000000000000000000000000000000000000000000000000000815260040161256f90613a0c565b60405180910390fd5b60006125d6866125c7846000016040518060200160405290816000820160009054906101000a900467ffffffffffffffff1667ffffffffffffffff1667ffffffffffffffff16815250506117de565b67ffffffffffffffff16611486565b90506125e487878784612658565b8573ffffffffffffffffffffffffffffffffffffffff167fb8e138887d0aa13bab447e82de9d5c1777041ecd21ca36ba824ff1e6c07ddda4888784886040516126309493929190613c57565b60405180910390a28092505050949350505050565b600080823b905060008111915050919050565b60006005600086815260200190815260200160002090508060030160008573ffffffffffffffffffffffffffffffffffffffff1673ffffffffffffffffffffffffffffffffffffffff16815260200190815260200160002060009054906101000a900460ff16156126fe576040517f08c379a00000000000000000000000000000000000000000000000000000000081526004016126f5906139cc565b60405180910390fd5b60018160030160008673ffffffffffffffffffffffffffffffffffffffff1673ffffffffffffffffffffffffffffffffffffffff16815260200190815260200160002060006101000a81548160ff02191690831515021790555060006002811115612792577f4e487b7100000000000000000000000000000000000000000000000000000000600052602160045260246000fd5b60ff168360ff1614156127bf57818160000160008282546127b39190613f35565b925050819055506128c9565b600160028111156127f9577f4e487b7100000000000000000000000000000000000000000000000000000000600052602160045260246000fd5b60ff168360ff161415612826578181600101600082825461281a9190613f35565b925050819055506128c8565b60028081111561285f577f4e487b7100000000000000000000000000000000000000000000000000000000600052602160045260246000fd5b60ff168360ff16141561288c57818160020160008282546128809190613f35565b925050819055506128c7565b6040517f08c379a00000000000000000000000000000000000000000000000000000000081526004016128be90613acc565b60405180910390fd5b5b5b5050505050565b60006128e36128de84613d0c565b613ce7565b9050808382526020820190508285602086028201111561290257600080fd5b60005b8581101561293257816129188882612a81565b845260208401935060208301925050600181019050612905565b5050509392505050565b600061294f61294a84613d38565b613ce7565b9050808382526020820190508260005b8581101561298f57813585016129758882612b88565b84526020840193506020830192505060018101905061295f565b5050509392505050565b60006129ac6129a784613d64565b613ce7565b905080838252602082019050828560208602820111156129cb57600080fd5b60005b858110156129fb57816129e18882612c26565b8452602084019350602083019250506001810190506129ce565b5050509392505050565b6000612a18612a1384613d90565b613ce7565b905082815260208101848484011115612a3057600080fd5b612a3b8482856140f7565b509392505050565b6000612a56612a5184613dc1565b613ce7565b905082815260208101848484011115612a6e57600080fd5b612a798482856140f7565b509392505050565b600081359050612a90816147c9565b92915050565b600082601f830112612aa757600080fd5b8135612ab78482602086016128d0565b91505092915050565b600082601f830112612ad157600080fd5b8135612ae184826020860161293c565b91505092915050565b600082601f830112612afb57600080fd5b8135612b0b848260208601612999565b91505092915050565b600081359050612b23816147e0565b92915050565b600081359050612b38816147f7565b92915050565b60008083601f840112612b5057600080fd5b8235905067ffffffffffffffff811115612b6957600080fd5b602083019150836001820283011115612b8157600080fd5b9250929050565b600082601f830112612b9957600080fd5b8135612ba9848260208601612a05565b91505092915050565b60008083601f840112612bc457600080fd5b8235905067ffffffffffffffff811115612bdd57600080fd5b602083019150836001820283011115612bf557600080fd5b9250929050565b600082601f830112612c0d57600080fd5b8135612c1d848260208601612a43565b91505092915050565b600081359050612c358161480e565b92915050565b600081519050612c4a8161480e565b92915050565b600081359050612c5f81614825565b92915050565b600081359050612c748161483c565b92915050565b60008060408385031215612c8d57600080fd5b6000612c9b85828601612a81565b9250506020612cac85828601612c26565b9150509250929050565b60008060008060608587031215612ccc57600080fd5b6000612cda87828801612a81565b9450506020612ceb87828801612c26565b935050604085013567ffffffffffffffff811115612d0857600080fd5b612d1487828801612b3e565b925092505092959194509250565b60008060008060808587031215612d3857600080fd5b600085013567ffffffffffffffff811115612d5257600080fd5b612d5e87828801612a96565b945050602085013567ffffffffffffffff811115612d7b57600080fd5b612d8787828801612aea565b935050604085013567ffffffffffffffff811115612da457600080fd5b612db087828801612ac0565b9250506060612dc187828801612b14565b91505092959194509250565b60008060008060808587031215612de357600080fd5b600085013567ffffffffffffffff811115612dfd57600080fd5b612e0987828801612a96565b945050602085013567ffffffffffffffff811115612e2657600080fd5b612e3287828801612aea565b935050604085013567ffffffffffffffff811115612e4f57600080fd5b612e5b87828801612ac0565b925050606085013567ffffffffffffffff811115612e7857600080fd5b612e8487828801612bfc565b91505092959194509250565b600060208284031215612ea257600080fd5b6000612eb084828501612b29565b91505092915050565b600060208284031215612ecb57600080fd5b6000612ed984828501612c26565b91505092915050565b600060208284031215612ef457600080fd5b6000612f0284828501612c3b565b91505092915050565b60008060408385031215612f1e57600080fd5b6000612f2c85828601612c26565b9250506020612f3d85828601612a81565b9150509250929050565b60008060408385031215612f5a57600080fd5b6000612f6885828601612c26565b9250506020612f7985828601612c65565b9150509250929050565b60008060008060608587031215612f9957600080fd5b6000612fa787828801612c26565b9450506020612fb887828801612c65565b935050604085013567ffffffffffffffff811115612fd557600080fd5b612fe187828801612bb2565b925092505092959194509250565b600080600080600060a0868803121561300757600080fd5b600061301588828901612c26565b955050602061302688828901612c65565b945050604061303788828901612c65565b935050606061304888828901612b14565b925050608061305988828901612b14565b9150509295509295909350565b60006020828403121561307857600080fd5b600061308684828501612c50565b91505092915050565b600061309b83836130e7565b60208301905092915050565b60006130b383836132e0565b905092915050565b60006130c78383613368565b905092915050565b60006130db8383613673565b60208301905092915050565b6130f081613ffd565b82525050565b6130ff81613ffd565b82525050565b600061311082613e32565b61311a8185613ea8565b935061312583613df2565b8060005b8381101561315657815161313d888261308f565b975061314883613e74565b925050600181019050613129565b5085935050505092915050565b600061316e82613e3d565b6131788185613eb9565b93508360208202850161318a85613e02565b8060005b858110156131c657848403895281516131a785826130a7565b94506131b283613e81565b925060208a0199505060018101905061318e565b50829750879550505050505092915050565b60006131e382613e48565b6131ed8185613eca565b9350836020820285016131ff85613e12565b8060005b8581101561323b578484038952815161321c85826130bb565b945061322783613e8e565b925060208a01995050600181019050613203565b50829750879550505050505092915050565b600061325882613e53565b6132628185613edb565b935061326d83613e22565b8060005b8381101561329e57815161328588826130cf565b975061329083613e9b565b925050600181019050613271565b5085935050505092915050565b6132b48161400f565b82525050565b6132c38161401b565b82525050565b6132da6132d58261401b565b6141e5565b82525050565b60006132eb82613e5e565b6132f58185613eec565b9350613305818560208601614106565b61330e816142ab565b840191505092915050565b600061332482613e5e565b61332e8185613efd565b935061333e818560208601614106565b80840191505092915050565b613353816140af565b82525050565b613362816140d3565b82525050565b600061337382613e69565b61337d8185613f08565b935061338d818560208601614106565b613396816142ab565b840191505092915050565b60006133ac82613e69565b6133b68185613f19565b93506133c6818560208601614106565b6133cf816142ab565b840191505092915050565b60006133e7601883613f19565b91506133f2826142bc565b602082019050919050565b600061340a601883613f19565b9150613415826142e5565b602082019050919050565b600061342d604383613f19565b91506134388261430e565b606082019050919050565b6000613450601f83613f19565b915061345b82614383565b602082019050919050565b6000613473600283613f2a565b915061347e826143ac565b600282019050919050565b6000613496602183613f19565b91506134a1826143d5565b604082019050919050565b60006134b9602783613f19565b91506134c482614424565b604082019050919050565b60006134dc602283613f19565b91506134e782614473565b604082019050919050565b60006134ff602783613f19565b915061350a826144c2565b604082019050919050565b6000613522602683613f19565b915061352d82614511565b604082019050919050565b6000613545602383613f19565b915061355082614560565b604082019050919050565b6000613568601883613f19565b9150613573826145af565b602082019050919050565b600061358b602283613f19565b9150613596826145d8565b604082019050919050565b60006135ae602683613f19565b91506135b982614627565b604082019050919050565b60006135d1602183613f19565b91506135dc82614676565b604082019050919050565b60006135f4601d83613f19565b91506135ff826146c5565b602082019050919050565b6000613617603583613f19565b9150613622826146ee565b604082019050919050565b600061363a602183613f19565b91506136458261473d565b604082019050919050565b600061365d601d83613f19565b91506136688261478c565b602082019050919050565b61367c81614084565b82525050565b61368b81614084565b82525050565b61369a816140e5565b82525050565b6136a98161408e565b82525050565b6136b8816140a2565b82525050565b60006136ca8284613319565b915081905092915050565b60006136e082613466565b91506136ec82856132c9565b6020820191506136fc82846132c9565b6020820191508190509392505050565b600060408201905061372160008301856130f6565b61372e6020830184613682565b9392505050565b6000608082019050818103600083015261374f8187613105565b90508181036020830152613763818661324d565b905081810360408301526137778185613163565b905061378660608301846132ba565b95945050505050565b60006020820190506137a460008301846132ab565b92915050565b60006020820190506137bf60008301846132ba565b92915050565b600060a0820190506137da60008301886132ba565b6137e760208301876132ba565b6137f460408301866132ba565b6138016060830185613682565b61380e60808301846130f6565b9695505050505050565b600060608201905061382d60008301866132ba565b61383a6020830185613682565b61384760408301846136af565b949350505050565b600060808201905061386460008301876132ba565b61387160208301866136af565b61387e60408301856132ba565b61388b60608301846132ba565b95945050505050565b60006020820190506138a9600083018461334a565b92915050565b60006020820190506138c46000830184613359565b92915050565b600060208201905081810360008301526138e481846133a1565b905092915050565b60006020820190508181036000830152613905816133da565b9050919050565b60006020820190508181036000830152613925816133fd565b9050919050565b6000602082019050818103600083015261394581613420565b9050919050565b6000602082019050818103600083015261396581613443565b9050919050565b6000602082019050818103600083015261398581613489565b9050919050565b600060208201905081810360008301526139a5816134ac565b9050919050565b600060208201905081810360008301526139c5816134cf565b9050919050565b600060208201905081810360008301526139e5816134f2565b9050919050565b60006020820190508181036000830152613a0581613515565b9050919050565b60006020820190508181036000830152613a2581613538565b9050919050565b60006020820190508181036000830152613a458161355b565b9050919050565b60006020820190508181036000830152613a658161357e565b9050919050565b60006020820190508181036000830152613a85816135a1565b9050919050565b60006020820190508181036000830152613aa5816135c4565b9050919050565b60006020820190508181036000830152613ac5816135e7565b9050919050565b60006020820190508181036000830152613ae58161360a565b9050919050565b60006020820190508181036000830152613b058161362d565b9050919050565b60006020820190508181036000830152613b2581613650565b9050919050565b6000602082019050613b416000830184613682565b92915050565b600061012082019050613b5d600083018c613682565b613b6a602083018b6130f6565b8181036040830152613b7c818a613105565b90508181036060830152613b90818961324d565b90508181036080830152613ba481886131d8565b905081810360a0830152613bb88187613163565b9050613bc760c0830186613691565b613bd460e0830185613691565b818103610100830152613be781846133a1565b90509a9950505050505050505050565b6000604082019050613c0c6000830185613682565b613c196020830184613682565b9392505050565b6000606082019050613c356000830186613682565b613c426020830185613682565b613c4f6040830184613682565b949350505050565b6000608082019050613c6c6000830187613682565b613c7960208301866136af565b613c866040830185613682565b8181036060830152613c9881846133a1565b905095945050505050565b6000602082019050613cb860008301846136a0565b92915050565b6000604082019050613cd360008301856136a0565b613ce060208301846136a0565b9392505050565b6000613cf1613d02565b9050613cfd828261416b565b919050565b6000604051905090565b600067ffffffffffffffff821115613d2757613d2661427c565b5b602082029050602081019050919050565b600067ffffffffffffffff821115613d5357613d5261427c565b5b602082029050602081019050919050565b600067ffffffffffffffff821115613d7f57613d7e61427c565b5b602082029050602081019050919050565b600067ffffffffffffffff821115613dab57613daa61427c565b5b613db4826142ab565b9050602081019050919050565b600067ffffffffffffffff821115613ddc57613ddb61427c565b5b613de5826142ab565b9050602081019050919050565b6000819050602082019050919050565b6000819050602082019050919050565b6000819050602082019050919050565b6000819050602082019050919050565b600081519050919050565b600081519050919050565b600081519050919050565b600081519050919050565b600081519050919050565b600081519050919050565b6000602082019050919050565b6000602082019050919050565b6000602082019050919050565b6000602082019050919050565b600082825260208201905092915050565b600082825260208201905092915050565b600082825260208201905092915050565b600082825260208201905092915050565b600082825260208201905092915050565b600081905092915050565b600082825260208201905092915050565b600082825260208201905092915050565b600081905092915050565b6000613f4082614084565b9150613f4b83614084565b9250827fffffffffffffffffffffffffffffffffffffffffffffffffffffffffffffffff03821115613f8057613f7f6141ef565b5b828201905092915050565b6000613f968261408e565b9150613fa18361408e565b92508267ffffffffffffffff03821115613fbe57613fbd6141ef565b5b828201905092915050565b6000613fd482614084565b9150613fdf83614084565b925082821015613ff257613ff16141ef565b5b828203905092915050565b600061400882614064565b9050919050565b60008115159050919050565b6000819050919050565b60007fffffffff0000000000000000000000000000000000000000000000000000000082169050919050565b600081905061405f826147b5565b919050565b600073ffffffffffffffffffffffffffffffffffffffff82169050919050565b6000819050919050565b600067ffffffffffffffff82169050919050565b600060ff82169050919050565b60006140ba826140c1565b9050919050565b60006140cc82614064565b9050919050565b60006140de82614051565b9050919050565b60006140f08261408e565b9050919050565b82818337600083830152505050565b60005b83811015614124578082015181840152602081019050614109565b83811115614133576000848401525b50505050565b6000600282049050600182168061415157607f821691505b602082108114156141655761416461424d565b5b50919050565b614174826142ab565b810181811067ffffffffffffffff821117156141935761419261427c565b5b80604052505050565b60006141a782614084565b91507fffffffffffffffffffffffffffffffffffffffffffffffffffffffffffffffff8214156141da576141d96141ef565b5b600182019050919050565b6000819050919050565b7f4e487b7100000000000000000000000000000000000000000000000000000000600052601160045260246000fd5b7f4e487b7100000000000000000000000000000000000000000000000000000000600052602160045260246000fd5b7f4e487b7100000000000000000000000000000000000000000000000000000000600052602260045260246000fd5b7f4e487b7100000000000000000000000000000000000000000000000000000000600052604160045260246000fd5b6000601f19601f8301169050919050565b7f45434453413a20696e76616c6964207369676e61747572650000000000000000600082015250565b7f476f7665726e6f723a206f6e6c79476f7665726e616e63650000000000000000600082015250565b7f476f7665726e6f72436f6d7061746962696c697479427261766f3a2070726f7060008201527f6f73657220766f7465732062656c6f772070726f706f73616c2074687265736860208201527f6f6c640000000000000000000000000000000000000000000000000000000000604082015250565b7f45434453413a20696e76616c6964207369676e6174757265206c656e67746800600082015250565b7f1901000000000000000000000000000000000000000000000000000000000000600082015250565b7f476f7665726e6f723a20696e76616c69642070726f706f73616c206c656e677460008201527f6800000000000000000000000000000000000000000000000000000000000000602082015250565b7f476f7665726e6f7253657474696e67733a20766f74696e6720706572696f642060008201527f746f6f206c6f7700000000000000000000000000000000000000000000000000602082015250565b7f45434453413a20696e76616c6964207369676e6174757265202773272076616c60008201527f7565000000000000000000000000000000000000000000000000000000000000602082015250565b7f476f7665726e6f72566f74696e6753696d706c653a20766f746520616c72656160008201527f6479206361737400000000000000000000000000000000000000000000000000602082015250565b7f416464726573733a20696e73756666696369656e742062616c616e636520666f60008201527f722063616c6c0000000000000000000000000000000000000000000000000000602082015250565b7f476f7665726e6f723a20766f7465206e6f742063757272656e746c792061637460008201527f6976650000000000000000000000000000000000000000000000000000000000602082015250565b7f476f7665726e6f723a20656d7074792070726f706f73616c0000000000000000600082015250565b7f45434453413a20696e76616c6964207369676e6174757265202776272076616c60008201527f7565000000000000000000000000000000000000000000000000000000000000602082015250565b7f53616665436173743a2076616c756520646f65736e27742066697420696e203660008201527f3420626974730000000000000000000000000000000000000000000000000000602082015250565b7f476f7665726e6f723a2070726f706f73616c206e6f742073756363657373667560008201527f6c00000000000000000000000000000000000000000000000000000000000000602082015250565b7f476f7665726e6f723a20756e6b6e6f776e2070726f706f73616c206964000000600082015250565b7f476f7665726e6f72566f74696e6753696d706c653a20696e76616c696420766160008201527f6c756520666f7220656e756d20566f7465547970650000000000000000000000602082015250565b7f476f7665726e6f723a2070726f706f73616c20616c726561647920657869737460008201527f7300000000000000000000000000000000000000000000000000000000000000602082015250565b7f416464726573733a2063616c6c20746f206e6f6e2d636f6e7472616374000000600082015250565b600881106147c6576147c561421e565b5b50565b6147d281613ffd565b81146147dd57600080fd5b50565b6147e98161401b565b81146147f457600080fd5b50565b61480081614025565b811461480b57600080fd5b50565b61481781614084565b811461482257600080fd5b50565b61482e8161408e565b811461483957600080fd5b50565b614845816140a2565b811461485057600080fd5b5056fe476f7665726e6f723a2063616c6c20726576657274656420776974686f7574206d657373616765416464726573733a206c6f772d6c6576656c2063616c6c20776974682076616c7565206661696c6564a2646970667358221220a1a08c980bb2d7a9736483b8867d17f2a06bd272fa3fec82520db28bea5f1aaa64736f6c63430008020033",
  "linkReferences": {},
  "deployedLinkReferences": {}
}