{
  "_format": "hh-sol-artifact-1",
  "contractName": "Memento",
  "sourceName": "contracts/Memento.sol",
  "abi": [
    {
      "anonymous": false,
      "inputs": [
        {
          "indexed": true,
          "internalType": "address",
          "name": "owner",
          "type": "address"
        },
        {
          "indexed": true,
          "internalType": "address",
          "name": "approved",
          "type": "address"
        },
        {
          "indexed": true,
          "internalType": "uint256",
          "name": "tokenId",
          "type": "uint256"
        }
      ],
      "name": "Approval",
      "type": "event"
    },
    {
      "anonymous": false,
      "inputs": [
        {
          "indexed": true,
          "internalType": "address",
          "name": "owner",
          "type": "address"
        },
        {
          "indexed": true,
          "internalType": "address",
          "name": "operator",
          "type": "address"
        },
        {
          "indexed": false,
          "internalType": "bool",
          "name": "approved",
          "type": "bool"
        }
      ],
      "name": "ApprovalForAll",
      "type": "event"
    },
    {
      "anonymous": false,
      "inputs": [
        {
          "indexed": true,
          "internalType": "address",
          "name": "from",
          "type": "address"
        },
        {
          "indexed": true,
          "internalType": "address",
          "name": "to",
          "type": "address"
        },
        {
          "indexed": true,
          "internalType": "uint256",
          "name": "tokenId",
          "type": "uint256"
        }
      ],
      "name": "Transfer",
      "type": "event"
    },
    {
      "inputs": [
        {
          "internalType": "address",
          "name": "to",
          "type": "address"
        },
        {
          "internalType": "uint256",
          "name": "tokenId",
          "type": "uint256"
        }
      ],
      "name": "approve",
      "outputs": [],
      "stateMutability": "nonpayable",
      "type": "function"
    },
    {
      "inputs": [
        {
          "internalType": "address",
          "name": "owner",
          "type": "address"
        }
      ],
      "name": "balanceOf",
      "outputs": [
        {
          "internalType": "uint256",
          "name": "",
          "type": "uint256"
        }
      ],
      "stateMutability": "view",
      "type": "function"
    },
    {
      "inputs": [
        {
          "internalType": "uint256",
          "name": "tokenId",
          "type": "uint256"
        }
      ],
      "name": "getApproved",
      "outputs": [
        {
          "internalType": "address",
          "name": "",
          "type": "address"
        }
      ],
      "stateMutability": "view",
      "type": "function"
    },
    {
      "inputs": [
        {
          "internalType": "address",
          "name": "owner",
          "type": "address"
        },
        {
          "internalType": "address",
          "name": "operator",
          "type": "address"
        }
      ],
      "name": "isApprovedForAll",
      "outputs": [
        {
          "internalType": "bool",
          "name": "",
          "type": "bool"
        }
      ],
      "stateMutability": "view",
      "type": "function"
    },
    {
      "inputs": [],
      "name": "name",
      "outputs": [
        {
          "internalType": "string",
          "name": "",
          "type": "string"
        }
      ],
      "stateMutability": "view",
      "type": "function"
    },
    {
      "inputs": [
        {
          "internalType": "uint256",
          "name": "",
          "type": "uint256"
        }
      ],
      "name": "nonces",
      "outputs": [
        {
          "internalType": "uint256",
          "name": "",
          "type": "uint256"
        }
      ],
      "stateMutability": "view",
      "type": "function"
    },
    {
      "inputs": [
        {
          "internalType": "uint256",
          "name": "tokenId",
          "type": "uint256"
        }
      ],
      "name": "ownerOf",
      "outputs": [
        {
          "internalType": "address",
          "name": "",
          "type": "address"
        }
      ],
      "stateMutability": "view",
      "type": "function"
    },
    {
      "inputs": [
        {
          "internalType": "address",
          "name": "from",
          "type": "address"
        },
        {
          "internalType": "address",
          "name": "to",
          "type": "address"
        },
        {
          "internalType": "uint256",
          "name": "tokenId",
          "type": "uint256"
        }
      ],
      "name": "safeTransferFrom",
      "outputs": [],
      "stateMutability": "nonpayable",
      "type": "function"
    },
    {
      "inputs": [
        {
          "internalType": "address",
          "name": "from",
          "type": "address"
        },
        {
          "internalType": "address",
          "name": "to",
          "type": "address"
        },
        {
          "internalType": "uint256",
          "name": "tokenId",
          "type": "uint256"
        },
        {
          "internalType": "bytes",
          "name": "_data",
          "type": "bytes"
        }
      ],
      "name": "safeTransferFrom",
      "outputs": [],
      "stateMutability": "nonpayable",
      "type": "function"
    },
    {
      "inputs": [
        {
          "internalType": "address",
          "name": "operator",
          "type": "address"
        },
        {
          "internalType": "bool",
          "name": "approved",
          "type": "bool"
        }
      ],
      "name": "setApprovalForAll",
      "outputs": [],
      "stateMutability": "nonpayable",
      "type": "function"
    },
    {
      "inputs": [
        {
          "internalType": "bytes4",
          "name": "interfaceId",
          "type": "bytes4"
        }
      ],
      "name": "supportsInterface",
      "outputs": [
        {
          "internalType": "bool",
          "name": "",
          "type": "bool"
        }
      ],
      "stateMutability": "view",
      "type": "function"
    },
    {
      "inputs": [],
      "name": "symbol",
      "outputs": [
        {
          "internalType": "string",
          "name": "",
          "type": "string"
        }
      ],
      "stateMutability": "view",
      "type": "function"
    },
    {
      "inputs": [
        {
          "internalType": "uint256",
          "name": "tokenId",
          "type": "uint256"
        }
      ],
      "name": "tokenURI",
      "outputs": [
        {
          "internalType": "string",
          "name": "",
          "type": "string"
        }
      ],
      "stateMutability": "view",
      "type": "function"
    },
    {
      "inputs": [
        {
          "internalType": "address",
          "name": "from",
          "type": "address"
        },
        {
          "internalType": "address",
          "name": "to",
          "type": "address"
        },
        {
          "internalType": "uint256",
          "name": "tokenId",
          "type": "uint256"
        }
      ],
      "name": "transferFrom",
      "outputs": [],
      "stateMutability": "nonpayable",
      "type": "function"
    }
  ],
  "bytecode": "0x60806040523480156200001157600080fd5b506040518060400160405280600e81526020017f52656c696320506f736974696f6e0000000000000000000000000000000000008152506040518060400160405280600781526020017f4d454d454e544f00000000000000000000000000000000000000000000000000815250816000908051906020019062000096929190620000b8565b508060019080519060200190620000af929190620000b8565b505050620001cd565b828054620000c69062000168565b90600052602060002090601f016020900481019282620000ea576000855562000136565b82601f106200010557805160ff191683800117855562000136565b8280016001018555821562000136579182015b828111156200013557825182559160200191906001019062000118565b5b50905062000145919062000149565b5090565b5b80821115620001645760008160009055506001016200014a565b5090565b600060028204905060018216806200018157607f821691505b602082108114156200019857620001976200019e565b5b50919050565b7f4e487b7100000000000000000000000000000000000000000000000000000000600052602260045260246000fd5b61240a80620001dd6000396000f3fe608060405234801561001057600080fd5b50600436106100ea5760003560e01c80636352211e1161008c578063a22cb46511610066578063a22cb4651461026f578063b88d4fde1461028b578063c87b56dd146102a7578063e985e9c5146102d7576100ea565b80636352211e146101f157806370a082311461022157806395d89b4114610251576100ea565b8063095ea7b3116100c8578063095ea7b31461016d578063141a468c1461018957806323b872dd146101b957806342842e0e146101d5576100ea565b806301ffc9a7146100ef57806306fdde031461011f578063081812fc1461013d575b600080fd5b610109600480360381019061010491906116e4565b610307565b6040516101169190611a5e565b60405180910390f35b6101276103e9565b6040516101349190611a79565b60405180910390f35b61015760048036038101906101529190611736565b61047b565b60405161016491906119f7565b60405180910390f35b610187600480360381019061018291906116a8565b610500565b005b6101a3600480360381019061019e9190611736565b610618565b6040516101b09190611c1b565b60405180910390f35b6101d360048036038101906101ce91906115a2565b610630565b005b6101ef60048036038101906101ea91906115a2565b610690565b005b61020b60048036038101906102069190611736565b6106b0565b60405161021891906119f7565b60405180910390f35b61023b6004803603810190610236919061153d565b610762565b6040516102489190611c1b565b60405180910390f35b61025961081a565b6040516102669190611a79565b60405180910390f35b6102896004803603810190610284919061166c565b6108ac565b005b6102a560048036038101906102a091906115f1565b6108c2565b005b6102c160048036038101906102bc9190611736565b610924565b6040516102ce9190611a79565b60405180910390f35b6102f160048036038101906102ec9190611566565b6109cb565b6040516102fe9190611a5e565b60405180910390f35b60007f80ac58cd000000000000000000000000000000000000000000000000000000007bffffffffffffffffffffffffffffffffffffffffffffffffffffffff1916827bffffffffffffffffffffffffffffffffffffffffffffffffffffffff191614806103d257507f5b5e139f000000000000000000000000000000000000000000000000000000007bffffffffffffffffffffffffffffffffffffffffffffffffffffffff1916827bffffffffffffffffffffffffffffffffffffffffffffffffffffffff1916145b806103e257506103e182610a5f565b5b9050919050565b6060600080546103f890611e40565b80601f016020809104026020016040519081016040528092919081815260200182805461042490611e40565b80156104715780601f1061044657610100808354040283529160200191610471565b820191906000526020600020905b81548152906001019060200180831161045457829003601f168201915b5050505050905090565b600061048682610ac9565b6104c5576040517f08c379a00000000000000000000000000000000000000000000000000000000081526004016104bc90611b7b565b60405180910390fd5b6004600083815260200190815260200160002060009054906101000a900473ffffffffffffffffffffffffffffffffffffffff169050919050565b600061050b826106b0565b90508073ffffffffffffffffffffffffffffffffffffffff168373ffffffffffffffffffffffffffffffffffffffff16141561057c576040517f08c379a000000000000000000000000000000000000000000000000000000000815260040161057390611bdb565b60405180910390fd5b8073ffffffffffffffffffffffffffffffffffffffff1661059b610b35565b73ffffffffffffffffffffffffffffffffffffffff1614806105ca57506105c9816105c4610b35565b6109cb565b5b610609576040517f08c379a000000000000000000000000000000000000000000000000000000000815260040161060090611b1b565b60405180910390fd5b6106138383610b3d565b505050565b60066020528060005260406000206000915090505481565b61064161063b610b35565b82610bf6565b610680576040517f08c379a000000000000000000000000000000000000000000000000000000000815260040161067790611bfb565b60405180910390fd5b61068b838383610cd4565b505050565b6106ab838383604051806020016040528060008152506108c2565b505050565b6000806002600084815260200190815260200160002060009054906101000a900473ffffffffffffffffffffffffffffffffffffffff169050600073ffffffffffffffffffffffffffffffffffffffff168173ffffffffffffffffffffffffffffffffffffffff161415610759576040517f08c379a000000000000000000000000000000000000000000000000000000000815260040161075090611b5b565b60405180910390fd5b80915050919050565b60008073ffffffffffffffffffffffffffffffffffffffff168273ffffffffffffffffffffffffffffffffffffffff1614156107d3576040517f08c379a00000000000000000000000000000000000000000000000000000000081526004016107ca90611b3b565b60405180910390fd5b600360008373ffffffffffffffffffffffffffffffffffffffff1673ffffffffffffffffffffffffffffffffffffffff168152602001908152602001600020549050919050565b60606001805461082990611e40565b80601f016020809104026020016040519081016040528092919081815260200182805461085590611e40565b80156108a25780601f10610877576101008083540402835291602001916108a2565b820191906000526020600020905b81548152906001019060200180831161088557829003601f168201915b5050505050905090565b6108be6108b7610b35565b8383610f30565b5050565b6108d36108cd610b35565b83610bf6565b610912576040517f08c379a000000000000000000000000000000000000000000000000000000000815260040161090990611bfb565b60405180910390fd5b61091e8484848461109d565b50505050565b606061092f82610ac9565b61096e576040517f08c379a000000000000000000000000000000000000000000000000000000000815260040161096590611bbb565b60405180910390fd5b60006109786110f9565b9050600081511161099857604051806020016040528060008152506109c3565b806109a284611110565b6040516020016109b39291906119d3565b6040516020818303038152906040525b915050919050565b6000600560008473ffffffffffffffffffffffffffffffffffffffff1673ffffffffffffffffffffffffffffffffffffffff16815260200190815260200160002060008373ffffffffffffffffffffffffffffffffffffffff1673ffffffffffffffffffffffffffffffffffffffff16815260200190815260200160002060009054906101000a900460ff16905092915050565b60007f01ffc9a7000000000000000000000000000000000000000000000000000000007bffffffffffffffffffffffffffffffffffffffffffffffffffffffff1916827bffffffffffffffffffffffffffffffffffffffffffffffffffffffff1916149050919050565b60008073ffffffffffffffffffffffffffffffffffffffff166002600084815260200190815260200160002060009054906101000a900473ffffffffffffffffffffffffffffffffffffffff1673ffffffffffffffffffffffffffffffffffffffff1614159050919050565b600033905090565b816004600083815260200190815260200160002060006101000a81548173ffffffffffffffffffffffffffffffffffffffff021916908373ffffffffffffffffffffffffffffffffffffffff160217905550808273ffffffffffffffffffffffffffffffffffffffff16610bb0836106b0565b73ffffffffffffffffffffffffffffffffffffffff167f8c5be1e5ebec7d5bd14f71427d1e84f3dd0314c0f7b2291e5b200ac8c7c3b92560405160405180910390a45050565b6000610c0182610ac9565b610c40576040517f08c379a0000000000000000000000000000000000000000000000000000000008152600401610c3790611afb565b60405180910390fd5b6000610c4b836106b0565b90508073ffffffffffffffffffffffffffffffffffffffff168473ffffffffffffffffffffffffffffffffffffffff161480610cba57508373ffffffffffffffffffffffffffffffffffffffff16610ca28461047b565b73ffffffffffffffffffffffffffffffffffffffff16145b80610ccb5750610cca81856109cb565b5b91505092915050565b8273ffffffffffffffffffffffffffffffffffffffff16610cf4826106b0565b73ffffffffffffffffffffffffffffffffffffffff1614610d4a576040517f08c379a0000000000000000000000000000000000000000000000000000000008152600401610d4190611b9b565b60405180910390fd5b600073ffffffffffffffffffffffffffffffffffffffff168273ffffffffffffffffffffffffffffffffffffffff161415610dba576040517f08c379a0000000000000000000000000000000000000000000000000000000008152600401610db190611abb565b60405180910390fd5b610dc58383836112bd565b610dd0600082610b3d565b6001600360008573ffffffffffffffffffffffffffffffffffffffff1673ffffffffffffffffffffffffffffffffffffffff1681526020019081526020016000206000828254610e209190611d56565b925050819055506001600360008473ffffffffffffffffffffffffffffffffffffffff1673ffffffffffffffffffffffffffffffffffffffff1681526020019081526020016000206000828254610e779190611ccf565b92505081905550816002600083815260200190815260200160002060006101000a81548173ffffffffffffffffffffffffffffffffffffffff021916908373ffffffffffffffffffffffffffffffffffffffff160217905550808273ffffffffffffffffffffffffffffffffffffffff168473ffffffffffffffffffffffffffffffffffffffff167fddf252ad1be2c89b69c2b068fc378daa952ba7f163c4a11628f55a4df523b3ef60405160405180910390a4505050565b8173ffffffffffffffffffffffffffffffffffffffff168373ffffffffffffffffffffffffffffffffffffffff161415610f9f576040517f08c379a0000000000000000000000000000000000000000000000000000000008152600401610f9690611adb565b60405180910390fd5b80600560008573ffffffffffffffffffffffffffffffffffffffff1673ffffffffffffffffffffffffffffffffffffffff16815260200190815260200160002060008473ffffffffffffffffffffffffffffffffffffffff1673ffffffffffffffffffffffffffffffffffffffff16815260200190815260200160002060006101000a81548160ff0219169083151502179055508173ffffffffffffffffffffffffffffffffffffffff168373ffffffffffffffffffffffffffffffffffffffff167f17307eab39ab6107e8899845ad3d59bd9653f200f220920489ca2b5937696c31836040516110909190611a5e565b60405180910390a3505050565b6110a8848484610cd4565b6110b4848484846112c2565b6110f3576040517f08c379a00000000000000000000000000000000000000000000000000000000081526004016110ea90611a9b565b60405180910390fd5b50505050565b606060405180602001604052806000815250905090565b60606000821415611158576040518060400160405280600181526020017f300000000000000000000000000000000000000000000000000000000000000081525090506112b8565b600082905060005b6000821461118a57808061117390611ea3565b915050600a826111839190611d25565b9150611160565b60008167ffffffffffffffff8111156111cc577f4e487b7100000000000000000000000000000000000000000000000000000000600052604160045260246000fd5b6040519080825280601f01601f1916602001820160405280156111fe5781602001600182028036833780820191505090505b5090505b600085146112b1576001826112179190611d56565b9150600a856112269190611eec565b60306112329190611ccf565b60f81b81838151811061126e577f4e487b7100000000000000000000000000000000000000000000000000000000600052603260045260246000fd5b60200101907effffffffffffffffffffffffffffffffffffffffffffffffffffffffffffff1916908160001a905350600a856112aa9190611d25565b9450611202565b8093505050505b919050565b505050565b60006112e38473ffffffffffffffffffffffffffffffffffffffff16611459565b1561144c578373ffffffffffffffffffffffffffffffffffffffff1663150b7a0261130c610b35565b8786866040518563ffffffff1660e01b815260040161132e9493929190611a12565b602060405180830381600087803b15801561134857600080fd5b505af192505050801561137957506040513d601f19601f82011682018060405250810190611376919061170d565b60015b6113fc573d80600081146113a9576040519150601f19603f3d011682016040523d82523d6000602084013e6113ae565b606091505b506000815114156113f4576040517f08c379a00000000000000000000000000000000000000000000000000000000081526004016113eb90611a9b565b60405180910390fd5b805181602001fd5b63150b7a0260e01b7bffffffffffffffffffffffffffffffffffffffffffffffffffffffff1916817bffffffffffffffffffffffffffffffffffffffffffffffffffffffff191614915050611451565b600190505b949350505050565b600080823b905060008111915050919050565b600061147f61147a84611c5b565b611c36565b90508281526020810184848401111561149757600080fd5b6114a2848285611dfe565b509392505050565b6000813590506114b981612378565b92915050565b6000813590506114ce8161238f565b92915050565b6000813590506114e3816123a6565b92915050565b6000815190506114f8816123a6565b92915050565b600082601f83011261150f57600080fd5b813561151f84826020860161146c565b91505092915050565b600081359050611537816123bd565b92915050565b60006020828403121561154f57600080fd5b600061155d848285016114aa565b91505092915050565b6000806040838503121561157957600080fd5b6000611587858286016114aa565b9250506020611598858286016114aa565b9150509250929050565b6000806000606084860312156115b757600080fd5b60006115c5868287016114aa565b93505060206115d6868287016114aa565b92505060406115e786828701611528565b9150509250925092565b6000806000806080858703121561160757600080fd5b6000611615878288016114aa565b9450506020611626878288016114aa565b935050604061163787828801611528565b925050606085013567ffffffffffffffff81111561165457600080fd5b611660878288016114fe565b91505092959194509250565b6000806040838503121561167f57600080fd5b600061168d858286016114aa565b925050602061169e858286016114bf565b9150509250929050565b600080604083850312156116bb57600080fd5b60006116c9858286016114aa565b92505060206116da85828601611528565b9150509250929050565b6000602082840312156116f657600080fd5b6000611704848285016114d4565b91505092915050565b60006020828403121561171f57600080fd5b600061172d848285016114e9565b91505092915050565b60006020828403121561174857600080fd5b600061175684828501611528565b91505092915050565b61176881611d8a565b82525050565b61177781611d9c565b82525050565b600061178882611c8c565b6117928185611ca2565b93506117a2818560208601611e0d565b6117ab81611fd9565b840191505092915050565b60006117c182611c97565b6117cb8185611cb3565b93506117db818560208601611e0d565b6117e481611fd9565b840191505092915050565b60006117fa82611c97565b6118048185611cc4565b9350611814818560208601611e0d565b80840191505092915050565b600061182d603283611cb3565b915061183882611fea565b604082019050919050565b6000611850602483611cb3565b915061185b82612039565b604082019050919050565b6000611873601983611cb3565b915061187e82612088565b602082019050919050565b6000611896602c83611cb3565b91506118a1826120b1565b604082019050919050565b60006118b9603883611cb3565b91506118c482612100565b604082019050919050565b60006118dc602a83611cb3565b91506118e78261214f565b604082019050919050565b60006118ff602983611cb3565b915061190a8261219e565b604082019050919050565b6000611922602c83611cb3565b915061192d826121ed565b604082019050919050565b6000611945602983611cb3565b91506119508261223c565b604082019050919050565b6000611968602f83611cb3565b91506119738261228b565b604082019050919050565b600061198b602183611cb3565b9150611996826122da565b604082019050919050565b60006119ae603183611cb3565b91506119b982612329565b604082019050919050565b6119cd81611df4565b82525050565b60006119df82856117ef565b91506119eb82846117ef565b91508190509392505050565b6000602082019050611a0c600083018461175f565b92915050565b6000608082019050611a27600083018761175f565b611a34602083018661175f565b611a4160408301856119c4565b8181036060830152611a53818461177d565b905095945050505050565b6000602082019050611a73600083018461176e565b92915050565b60006020820190508181036000830152611a9381846117b6565b905092915050565b60006020820190508181036000830152611ab481611820565b9050919050565b60006020820190508181036000830152611ad481611843565b9050919050565b60006020820190508181036000830152611af481611866565b9050919050565b60006020820190508181036000830152611b1481611889565b9050919050565b60006020820190508181036000830152611b34816118ac565b9050919050565b60006020820190508181036000830152611b54816118cf565b9050919050565b60006020820190508181036000830152611b74816118f2565b9050919050565b60006020820190508181036000830152611b9481611915565b9050919050565b60006020820190508181036000830152611bb481611938565b9050919050565b60006020820190508181036000830152611bd48161195b565b9050919050565b60006020820190508181036000830152611bf48161197e565b9050919050565b60006020820190508181036000830152611c14816119a1565b9050919050565b6000602082019050611c3060008301846119c4565b92915050565b6000611c40611c51565b9050611c4c8282611e72565b919050565b6000604051905090565b600067ffffffffffffffff821115611c7657611c75611faa565b5b611c7f82611fd9565b9050602081019050919050565b600081519050919050565b600081519050919050565b600082825260208201905092915050565b600082825260208201905092915050565b600081905092915050565b6000611cda82611df4565b9150611ce583611df4565b9250827fffffffffffffffffffffffffffffffffffffffffffffffffffffffffffffffff03821115611d1a57611d19611f1d565b5b828201905092915050565b6000611d3082611df4565b9150611d3b83611df4565b925082611d4b57611d4a611f4c565b5b828204905092915050565b6000611d6182611df4565b9150611d6c83611df4565b925082821015611d7f57611d7e611f1d565b5b828203905092915050565b6000611d9582611dd4565b9050919050565b60008115159050919050565b60007fffffffff0000000000000000000000000000000000000000000000000000000082169050919050565b600073ffffffffffffffffffffffffffffffffffffffff82169050919050565b6000819050919050565b82818337600083830152505050565b60005b83811015611e2b578082015181840152602081019050611e10565b83811115611e3a576000848401525b50505050565b60006002820490506001821680611e5857607f821691505b60208210811415611e6c57611e6b611f7b565b5b50919050565b611e7b82611fd9565b810181811067ffffffffffffffff82111715611e9a57611e99611faa565b5b80604052505050565b6000611eae82611df4565b91507fffffffffffffffffffffffffffffffffffffffffffffffffffffffffffffffff821415611ee157611ee0611f1d565b5b600182019050919050565b6000611ef782611df4565b9150611f0283611df4565b925082611f1257611f11611f4c565b5b828206905092915050565b7f4e487b7100000000000000000000000000000000000000000000000000000000600052601160045260246000fd5b7f4e487b7100000000000000000000000000000000000000000000000000000000600052601260045260246000fd5b7f4e487b7100000000000000000000000000000000000000000000000000000000600052602260045260246000fd5b7f4e487b7100000000000000000000000000000000000000000000000000000000600052604160045260246000fd5b6000601f19601f8301169050919050565b7f4552433732313a207472616e7366657220746f206e6f6e20455243373231526560008201527f63656976657220696d706c656d656e7465720000000000000000000000000000602082015250565b7f4552433732313a207472616e7366657220746f20746865207a65726f2061646460008201527f7265737300000000000000000000000000000000000000000000000000000000602082015250565b7f4552433732313a20617070726f766520746f2063616c6c657200000000000000600082015250565b7f4552433732313a206f70657261746f7220717565727920666f72206e6f6e657860008201527f697374656e7420746f6b656e0000000000000000000000000000000000000000602082015250565b7f4552433732313a20617070726f76652063616c6c6572206973206e6f74206f7760008201527f6e6572206e6f7220617070726f76656420666f7220616c6c0000000000000000602082015250565b7f4552433732313a2062616c616e636520717565727920666f7220746865207a6560008201527f726f206164647265737300000000000000000000000000000000000000000000602082015250565b7f4552433732313a206f776e657220717565727920666f72206e6f6e657869737460008201527f656e7420746f6b656e0000000000000000000000000000000000000000000000602082015250565b7f4552433732313a20617070726f76656420717565727920666f72206e6f6e657860008201527f697374656e7420746f6b656e0000000000000000000000000000000000000000602082015250565b7f4552433732313a207472616e73666572206f6620746f6b656e2074686174206960008201527f73206e6f74206f776e0000000000000000000000000000000000000000000000602082015250565b7f4552433732314d657461646174613a2055524920717565727920666f72206e6f60008201527f6e6578697374656e7420746f6b656e0000000000000000000000000000000000602082015250565b7f4552433732313a20617070726f76616c20746f2063757272656e74206f776e6560008201527f7200000000000000000000000000000000000000000000000000000000000000602082015250565b7f4552433732313a207472616e736665722063616c6c6572206973206e6f74206f60008201527f776e6572206e6f7220617070726f766564000000000000000000000000000000602082015250565b61238181611d8a565b811461238c57600080fd5b50565b61239881611d9c565b81146123a357600080fd5b50565b6123af81611da8565b81146123ba57600080fd5b50565b6123c681611df4565b81146123d157600080fd5b5056fea26469706673582212208d7ac963313381a8abc4310668440ad97d2094a7a7cd7e0414cb36cfb280f2b764736f6c63430008020033",
  "linkReferences": {},
  "deployedLinkReferences": {}
}