{
  "_format": "hh-sol-artifact-1",
  "contractName": "MyGovernor1",
  "sourceName": "contracts/OZ/mocks/wizard/MyGovernor1.sol",
  "abi": [
    {
      "inputs": [
        {
          "internalType": "contract ERC20Votes",
          "name": "_token",
          "type": "address"
        },
        {
          "internalType": "contract TimelockController",
          "name": "_timelock",
          "type": "address"
        }
      ],
      "stateMutability": "nonpayable",
      "type": "constructor"
    },
    {
      "anonymous": false,
      "inputs": [
        {
          "indexed": false,
          "internalType": "uint256",
          "name": "proposalId",
          "type": "uint256"
        }
      ],
      "name": "ProposalCanceled",
      "type": "event"
    },
    {
      "anonymous": false,
      "inputs": [
        {
          "indexed": false,
          "internalType": "uint256",
          "name": "proposalId",
          "type": "uint256"
        },
        {
          "indexed": false,
          "internalType": "address",
          "name": "proposer",
          "type": "address"
        },
        {
          "indexed": false,
          "internalType": "address[]",
          "name": "targets",
          "type": "address[]"
        },
        {
          "indexed": false,
          "internalType": "uint256[]",
          "name": "values",
          "type": "uint256[]"
        },
        {
          "indexed": false,
          "internalType": "string[]",
          "name": "signatures",
          "type": "string[]"
        },
        {
          "indexed": false,
          "internalType": "bytes[]",
          "name": "calldatas",
          "type": "bytes[]"
        },
        {
          "indexed": false,
          "internalType": "uint256",
          "name": "startBlock",
          "type": "uint256"
        },
        {
          "indexed": false,
          "internalType": "uint256",
          "name": "endBlock",
          "type": "uint256"
        },
        {
          "indexed": false,
          "internalType": "string",
          "name": "description",
          "type": "string"
        }
      ],
      "name": "ProposalCreated",
      "type": "event"
    },
    {
      "anonymous": false,
      "inputs": [
        {
          "indexed": false,
          "internalType": "uint256",
          "name": "proposalId",
          "type": "uint256"
        }
      ],
      "name": "ProposalExecuted",
      "type": "event"
    },
    {
      "anonymous": false,
      "inputs": [
        {
          "indexed": false,
          "internalType": "uint256",
          "name": "proposalId",
          "type": "uint256"
        },
        {
          "indexed": false,
          "internalType": "uint256",
          "name": "eta",
          "type": "uint256"
        }
      ],
      "name": "ProposalQueued",
      "type": "event"
    },
    {
      "anonymous": false,
      "inputs": [
        {
          "indexed": false,
          "internalType": "uint256",
          "name": "oldQuorumNumerator",
          "type": "uint256"
        },
        {
          "indexed": false,
          "internalType": "uint256",
          "name": "newQuorumNumerator",
          "type": "uint256"
        }
      ],
      "name": "QuorumNumeratorUpdated",
      "type": "event"
    },
    {
      "anonymous": false,
      "inputs": [
        {
          "indexed": false,
          "internalType": "address",
          "name": "oldTimelock",
          "type": "address"
        },
        {
          "indexed": false,
          "internalType": "address",
          "name": "newTimelock",
          "type": "address"
        }
      ],
      "name": "TimelockChange",
      "type": "event"
    },
    {
      "anonymous": false,
      "inputs": [
        {
          "indexed": true,
          "internalType": "address",
          "name": "voter",
          "type": "address"
        },
        {
          "indexed": false,
          "internalType": "uint256",
          "name": "proposalId",
          "type": "uint256"
        },
        {
          "indexed": false,
          "internalType": "uint8",
          "name": "support",
          "type": "uint8"
        },
        {
          "indexed": false,
          "internalType": "uint256",
          "name": "weight",
          "type": "uint256"
        },
        {
          "indexed": false,
          "internalType": "string",
          "name": "reason",
          "type": "string"
        }
      ],
      "name": "VoteCast",
      "type": "event"
    },
    {
      "inputs": [],
      "name": "BALLOT_TYPEHASH",
      "outputs": [
        {
          "internalType": "bytes32",
          "name": "",
          "type": "bytes32"
        }
      ],
      "stateMutability": "view",
      "type": "function"
    },
    {
      "inputs": [],
      "name": "COUNTING_MODE",
      "outputs": [
        {
          "internalType": "string",
          "name": "",
          "type": "string"
        }
      ],
      "stateMutability": "pure",
      "type": "function"
    },
    {
      "inputs": [
        {
          "internalType": "uint256",
          "name": "proposalId",
          "type": "uint256"
        },
        {
          "internalType": "uint8",
          "name": "support",
          "type": "uint8"
        }
      ],
      "name": "castVote",
      "outputs": [
        {
          "internalType": "uint256",
          "name": "",
          "type": "uint256"
        }
      ],
      "stateMutability": "nonpayable",
      "type": "function"
    },
    {
      "inputs": [
        {
          "internalType": "uint256",
          "name": "proposalId",
          "type": "uint256"
        },
        {
          "internalType": "uint8",
          "name": "support",
          "type": "uint8"
        },
        {
          "internalType": "uint8",
          "name": "v",
          "type": "uint8"
        },
        {
          "internalType": "bytes32",
          "name": "r",
          "type": "bytes32"
        },
        {
          "internalType": "bytes32",
          "name": "s",
          "type": "bytes32"
        }
      ],
      "name": "castVoteBySig",
      "outputs": [
        {
          "internalType": "uint256",
          "name": "",
          "type": "uint256"
        }
      ],
      "stateMutability": "nonpayable",
      "type": "function"
    },
    {
      "inputs": [
        {
          "internalType": "uint256",
          "name": "proposalId",
          "type": "uint256"
        },
        {
          "internalType": "uint8",
          "name": "support",
          "type": "uint8"
        },
        {
          "internalType": "string",
          "name": "reason",
          "type": "string"
        }
      ],
      "name": "castVoteWithReason",
      "outputs": [
        {
          "internalType": "uint256",
          "name": "",
          "type": "uint256"
        }
      ],
      "stateMutability": "nonpayable",
      "type": "function"
    },
    {
      "inputs": [
        {
          "internalType": "address[]",
          "name": "targets",
          "type": "address[]"
        },
        {
          "internalType": "uint256[]",
          "name": "values",
          "type": "uint256[]"
        },
        {
          "internalType": "bytes[]",
          "name": "calldatas",
          "type": "bytes[]"
        },
        {
          "internalType": "bytes32",
          "name": "descriptionHash",
          "type": "bytes32"
        }
      ],
      "name": "execute",
      "outputs": [
        {
          "internalType": "uint256",
          "name": "",
          "type": "uint256"
        }
      ],
      "stateMutability": "payable",
      "type": "function"
    },
    {
      "inputs": [
        {
          "internalType": "address",
          "name": "account",
          "type": "address"
        },
        {
          "internalType": "uint256",
          "name": "blockNumber",
          "type": "uint256"
        }
      ],
      "name": "getVotes",
      "outputs": [
        {
          "internalType": "uint256",
          "name": "",
          "type": "uint256"
        }
      ],
      "stateMutability": "view",
      "type": "function"
    },
    {
      "inputs": [
        {
          "internalType": "uint256",
          "name": "proposalId",
          "type": "uint256"
        },
        {
          "internalType": "address",
          "name": "account",
          "type": "address"
        }
      ],
      "name": "hasVoted",
      "outputs": [
        {
          "internalType": "bool",
          "name": "",
          "type": "bool"
        }
      ],
      "stateMutability": "view",
      "type": "function"
    },
    {
      "inputs": [
        {
          "internalType": "address[]",
          "name": "targets",
          "type": "address[]"
        },
        {
          "internalType": "uint256[]",
          "name": "values",
          "type": "uint256[]"
        },
        {
          "internalType": "bytes[]",
          "name": "calldatas",
          "type": "bytes[]"
        },
        {
          "internalType": "bytes32",
          "name": "descriptionHash",
          "type": "bytes32"
        }
      ],
      "name": "hashProposal",
      "outputs": [
        {
          "internalType": "uint256",
          "name": "",
          "type": "uint256"
        }
      ],
      "stateMutability": "pure",
      "type": "function"
    },
    {
      "inputs": [],
      "name": "name",
      "outputs": [
        {
          "internalType": "string",
          "name": "",
          "type": "string"
        }
      ],
      "stateMutability": "view",
      "type": "function"
    },
    {
      "inputs": [
        {
          "internalType": "uint256",
          "name": "proposalId",
          "type": "uint256"
        }
      ],
      "name": "proposalDeadline",
      "outputs": [
        {
          "internalType": "uint256",
          "name": "",
          "type": "uint256"
        }
      ],
      "stateMutability": "view",
      "type": "function"
    },
    {
      "inputs": [
        {
          "internalType": "uint256",
          "name": "proposalId",
          "type": "uint256"
        }
      ],
      "name": "proposalEta",
      "outputs": [
        {
          "internalType": "uint256",
          "name": "",
          "type": "uint256"
        }
      ],
      "stateMutability": "view",
      "type": "function"
    },
    {
      "inputs": [
        {
          "internalType": "uint256",
          "name": "proposalId",
          "type": "uint256"
        }
      ],
      "name": "proposalSnapshot",
      "outputs": [
        {
          "internalType": "uint256",
          "name": "",
          "type": "uint256"
        }
      ],
      "stateMutability": "view",
      "type": "function"
    },
    {
      "inputs": [],
      "name": "proposalThreshold",
      "outputs": [
        {
          "internalType": "uint256",
          "name": "",
          "type": "uint256"
        }
      ],
      "stateMutability": "view",
      "type": "function"
    },
    {
      "inputs": [
        {
          "internalType": "uint256",
          "name": "proposalId",
          "type": "uint256"
        }
      ],
      "name": "proposalVotes",
      "outputs": [
        {
          "internalType": "uint256",
          "name": "againstVotes",
          "type": "uint256"
        },
        {
          "internalType": "uint256",
          "name": "forVotes",
          "type": "uint256"
        },
        {
          "internalType": "uint256",
          "name": "abstainVotes",
          "type": "uint256"
        }
      ],
      "stateMutability": "view",
      "type": "function"
    },
    {
      "inputs": [
        {
          "internalType": "address[]",
          "name": "targets",
          "type": "address[]"
        },
        {
          "internalType": "uint256[]",
          "name": "values",
          "type": "uint256[]"
        },
        {
          "internalType": "bytes[]",
          "name": "calldatas",
          "type": "bytes[]"
        },
        {
          "internalType": "string",
          "name": "description",
          "type": "string"
        }
      ],
      "name": "propose",
      "outputs": [
        {
          "internalType": "uint256",
          "name": "",
          "type": "uint256"
        }
      ],
      "stateMutability": "nonpayable",
      "type": "function"
    },
    {
      "inputs": [
        {
          "internalType": "address[]",
          "name": "targets",
          "type": "address[]"
        },
        {
          "internalType": "uint256[]",
          "name": "values",
          "type": "uint256[]"
        },
        {
          "internalType": "bytes[]",
          "name": "calldatas",
          "type": "bytes[]"
        },
        {
          "internalType": "bytes32",
          "name": "descriptionHash",
          "type": "bytes32"
        }
      ],
      "name": "queue",
      "outputs": [
        {
          "internalType": "uint256",
          "name": "",
          "type": "uint256"
        }
      ],
      "stateMutability": "nonpayable",
      "type": "function"
    },
    {
      "inputs": [
        {
          "internalType": "uint256",
          "name": "blockNumber",
          "type": "uint256"
        }
      ],
      "name": "quorum",
      "outputs": [
        {
          "internalType": "uint256",
          "name": "",
          "type": "uint256"
        }
      ],
      "stateMutability": "view",
      "type": "function"
    },
    {
      "inputs": [],
      "name": "quorumDenominator",
      "outputs": [
        {
          "internalType": "uint256",
          "name": "",
          "type": "uint256"
        }
      ],
      "stateMutability": "view",
      "type": "function"
    },
    {
      "inputs": [],
      "name": "quorumNumerator",
      "outputs": [
        {
          "internalType": "uint256",
          "name": "",
          "type": "uint256"
        }
      ],
      "stateMutability": "view",
      "type": "function"
    },
    {
      "inputs": [
        {
          "internalType": "address",
          "name": "target",
          "type": "address"
        },
        {
          "internalType": "uint256",
          "name": "value",
          "type": "uint256"
        },
        {
          "internalType": "bytes",
          "name": "data",
          "type": "bytes"
        }
      ],
      "name": "relay",
      "outputs": [],
      "stateMutability": "nonpayable",
      "type": "function"
    },
    {
      "inputs": [
        {
          "internalType": "uint256",
          "name": "proposalId",
          "type": "uint256"
        }
      ],
      "name": "state",
      "outputs": [
        {
          "internalType": "enum IGovernor.ProposalState",
          "name": "",
          "type": "uint8"
        }
      ],
      "stateMutability": "view",
      "type": "function"
    },
    {
      "inputs": [
        {
          "internalType": "bytes4",
          "name": "interfaceId",
          "type": "bytes4"
        }
      ],
      "name": "supportsInterface",
      "outputs": [
        {
          "internalType": "bool",
          "name": "",
          "type": "bool"
        }
      ],
      "stateMutability": "view",
      "type": "function"
    },
    {
      "inputs": [],
      "name": "timelock",
      "outputs": [
        {
          "internalType": "address",
          "name": "",
          "type": "address"
        }
      ],
      "stateMutability": "view",
      "type": "function"
    },
    {
      "inputs": [],
      "name": "token",
      "outputs": [
        {
          "internalType": "contract ERC20Votes",
          "name": "",
          "type": "address"
        }
      ],
      "stateMutability": "view",
      "type": "function"
    },
    {
      "inputs": [
        {
          "internalType": "uint256",
          "name": "newQuorumNumerator",
          "type": "uint256"
        }
      ],
      "name": "updateQuorumNumerator",
      "outputs": [],
      "stateMutability": "nonpayable",
      "type": "function"
    },
    {
      "inputs": [
        {
          "internalType": "contract TimelockController",
          "name": "newTimelock",
          "type": "address"
        }
      ],
      "name": "updateTimelock",
      "outputs": [],
      "stateMutability": "nonpayable",
      "type": "function"
    },
    {
      "inputs": [],
      "name": "version",
      "outputs": [
        {
          "internalType": "string",
          "name": "",
          "type": "string"
        }
      ],
      "stateMutability": "view",
      "type": "function"
    },
    {
      "inputs": [],
      "name": "votingDelay",
      "outputs": [
        {
          "internalType": "uint256",
          "name": "",
          "type": "uint256"
        }
      ],
      "stateMutability": "pure",
      "type": "function"
    },
    {
      "inputs": [],
      "name": "votingPeriod",
      "outputs": [
        {
          "internalType": "uint256",
          "name": "",
          "type": "uint256"
        }
      ],
      "stateMutability": "pure",
      "type": "function"
    },
    {
      "stateMutability": "payable",
      "type": "receive"
    }
  ],
  "bytecode": "0x6101606040523480156200001257600080fd5b50604051620057923803806200579283398181016040528101906200003891906200045a565b600482826040518060400160405280600a81526020017f4d79476f7665726e6f72000000000000000000000000000000000000000000008152508062000083620001b760201b60201c565b60008280519060200120905060008280519060200120905060007f8b73c3c69bb8fe3d512ecc4cf759cc79239f7b179b0ffacaa9a75d522b39400f90508260e081815250508161010081815250504660a08181525050620000ec818484620001f460201b60201c565b608081815250503073ffffffffffffffffffffffffffffffffffffffff1660c08173ffffffffffffffffffffffffffffffffffffffff1660601b8152505080610120818152505050505050508060009080519060200190620001509291906200037c565b505062000163816200023060201b60201c565b508073ffffffffffffffffffffffffffffffffffffffff166101408173ffffffffffffffffffffffffffffffffffffffff1660601b8152505050620001ae81620002d160201b60201c565b50505062000771565b60606040518060400160405280600181526020017f3100000000000000000000000000000000000000000000000000000000000000815250905090565b600083838346306040516020016200021195949392919062000522565b6040516020818303038152906040528051906020012090509392505050565b7f08f74ea46ef7894f65eabfb5e6e695de773a000b47c529ab559178069b226401600260009054906101000a900473ffffffffffffffffffffffffffffffffffffffff168260405162000285929190620004f5565b60405180910390a180600260006101000a81548173ffffffffffffffffffffffffffffffffffffffff021916908373ffffffffffffffffffffffffffffffffffffffff16021790555050565b620002e16200037360201b60201c565b81111562000326576040517f08c379a00000000000000000000000000000000000000000000000000000000081526004016200031d906200057f565b60405180910390fd5b60006004549050816004819055507f0553476bf02ef2726e8ce5ced78d63e26e602e4a2257b1f559418e24b4633997818360405162000367929190620005a1565b60405180910390a15050565b60006064905090565b8280546200038a9062000663565b90600052602060002090601f016020900481019282620003ae5760008555620003fa565b82601f10620003c957805160ff1916838001178555620003fa565b82800160010185558215620003fa579182015b82811115620003f9578251825591602001919060010190620003dc565b5b5090506200040991906200040d565b5090565b5b80821115620004285760008160009055506001016200040e565b5090565b6000815190506200043d816200073d565b92915050565b600081519050620004548162000757565b92915050565b600080604083850312156200046e57600080fd5b60006200047e858286016200042c565b9250506020620004918582860162000443565b9150509250929050565b620004a681620005df565b82525050565b620004b78162000607565b82525050565b6000620004cc604383620005ce565b9150620004d982620006c8565b606082019050919050565b620004ef8162000659565b82525050565b60006040820190506200050c60008301856200049b565b6200051b60208301846200049b565b9392505050565b600060a082019050620005396000830188620004ac565b620005486020830187620004ac565b620005576040830186620004ac565b620005666060830185620004e4565b6200057560808301846200049b565b9695505050505050565b600060208201905081810360008301526200059a81620004bd565b9050919050565b6000604082019050620005b86000830185620004e4565b620005c76020830184620004e4565b9392505050565b600082825260208201905092915050565b6000620005ec8262000639565b9050919050565b6000620006008262000639565b9050919050565b6000819050919050565b60006200061e82620005df565b9050919050565b60006200063282620005f3565b9050919050565b600073ffffffffffffffffffffffffffffffffffffffff82169050919050565b6000819050919050565b600060028204905060018216806200067c57607f821691505b6020821081141562000693576200069262000699565b5b50919050565b7f4e487b7100000000000000000000000000000000000000000000000000000000600052602260045260246000fd5b7f476f7665726e6f72566f74657351756f72756d4672616374696f6e3a2071756f60008201527f72756d4e756d657261746f72206f7665722071756f72756d44656e6f6d696e6160208201527f746f720000000000000000000000000000000000000000000000000000000000604082015250565b620007488162000611565b81146200075457600080fd5b50565b620007628162000625565b81146200076e57600080fd5b50565b60805160a05160c05160601c60e05161010051610120516101405160601c614fb2620007e0600039600081816114b801528181611e580152611f1d015260006121a5015260006121e7015260006121c6015260006120fb015260006121510152600061217a0152614fb26000f3fe6080604052600436106101d15760003560e01c80637d5e81e2116100f7578063c28bc2fa11610095578063deaaa7cc11610064578063deaaa7cc14610765578063eb9019d414610790578063f8ce560a146107cd578063fc0c546a1461080a57610217565b8063c28bc2fa146106a9578063c59057e4146106d2578063d33219b41461070f578063dd4e2ba51461073a57610217565b8063a890c910116100d1578063a890c910146105db578063ab58fb8e14610604578063b58131b014610641578063c01f9e371461066c57610217565b80637d5e81e21461054857806397c3d33414610585578063a7713a70146105b057610217565b80633932abb11161016f578063544ffc9c1161013e578063544ffc9c1461046457806354fd4d50146104a357806356781388146104ce5780637b3c71d31461050b57610217565b80633932abb1146103825780633bccf4fd146103ad5780633e4f49e6146103ea578063438596321461042757610217565b806306fdde03116101ab57806306fdde03146102ad578063160cbed7146102d85780632656227d146103155780632d63f6931461034557610217565b806301ffc9a71461021c57806302a251a31461025957806306f3f9e61461028457610217565b36610217573073ffffffffffffffffffffffffffffffffffffffff166101f5610835565b73ffffffffffffffffffffffffffffffffffffffff161461021557600080fd5b005b600080fd5b34801561022857600080fd5b50610243600480360381019061023e91906133af565b610844565b6040516102509190613dd0565b60405180910390f35b34801561026557600080fd5b5061026e610856565b60405161027b919061416d565b60405180910390f35b34801561029057600080fd5b506102ab60048036038101906102a69190613401565b610860565b005b3480156102b957600080fd5b506102c26108e8565b6040516102cf9190613f0b565b60405180910390f35b3480156102e457600080fd5b506102ff60048036038101906102fa91906131ef565b61097a565b60405161030c919061416d565b60405180910390f35b61032f600480360381019061032a91906131ef565b610c9e565b60405161033c919061416d565b60405180910390f35b34801561035157600080fd5b5061036c60048036038101906103679190613401565b610e69565b604051610379919061416d565b60405180910390f35b34801561038e57600080fd5b50610397610ed7565b6040516103a4919061416d565b60405180910390f35b3480156103b957600080fd5b506103d460048036038101906103cf9190613537565b610ee0565b6040516103e1919061416d565b60405180910390f35b3480156103f657600080fd5b50610411600480360381019061040c9190613401565b610f6a565b60405161041e9190613ef0565b60405180910390f35b34801561043357600080fd5b5061044e60048036038101906104499190613453565b610f7c565b60405161045b9190613dd0565b60405180910390f35b34801561047057600080fd5b5061048b60048036038101906104869190613401565b610fe7565b60405161049a93929190614261565b60405180910390f35b3480156104af57600080fd5b506104b861101f565b6040516104c59190613f0b565b60405180910390f35b3480156104da57600080fd5b506104f560048036038101906104f0919061348f565b61105c565b604051610502919061416d565b60405180910390f35b34801561051757600080fd5b50610532600480360381019061052d91906134cb565b61108d565b60405161053f919061416d565b60405180910390f35b34801561055457600080fd5b5061056f600480360381019061056a919061329a565b6110f5565b60405161057c919061416d565b60405180910390f35b34801561059157600080fd5b5061059a61110d565b6040516105a7919061416d565b60405180910390f35b3480156105bc57600080fd5b506105c5611116565b6040516105d2919061416d565b60405180910390f35b3480156105e757600080fd5b5061060260048036038101906105fd91906133d8565b611120565b005b34801561061057600080fd5b5061062b60048036038101906106269190613401565b6111a8565b604051610638919061416d565b60405180910390f35b34801561064d57600080fd5b50610656611284565b604051610663919061416d565b60405180910390f35b34801561067857600080fd5b50610693600480360381019061068e9190613401565b611289565b6040516106a0919061416d565b60405180910390f35b3480156106b557600080fd5b506106d060048036038101906106cb9190613183565b6112f7565b005b3480156106de57600080fd5b506106f960048036038101906106f491906131ef565b6113c9565b604051610706919061416d565b60405180910390f35b34801561071b57600080fd5b50610724611405565b6040516107319190613c2b565b60405180910390f35b34801561074657600080fd5b5061074f61142f565b60405161075c9190613f0b565b60405180910390f35b34801561077157600080fd5b5061077a61146c565b6040516107879190613deb565b60405180910390f35b34801561079c57600080fd5b506107b760048036038101906107b29190613147565b611490565b6040516107c4919061416d565b60405180910390f35b3480156107d957600080fd5b506107f460048036038101906107ef9190613401565b6114a4565b604051610801919061416d565b60405180910390f35b34801561081657600080fd5b5061081f6114b6565b60405161082c9190613ed5565b60405180910390f35b600061083f6114da565b905090565b600061084f82611504565b9050919050565b600061b2fa905090565b610868610835565b73ffffffffffffffffffffffffffffffffffffffff1661088661157e565b73ffffffffffffffffffffffffffffffffffffffff16146108dc576040517f08c379a00000000000000000000000000000000000000000000000000000000081526004016108d390613f4d565b60405180910390fd5b6108e581611586565b50565b6060600080546108f790614809565b80601f016020809104026020016040519081016040528092919081815260200182805461092390614809565b80156109705780601f1061094557610100808354040283529160200191610970565b820191906000526020600020905b81548152906001019060200180831161095357829003601f168201915b5050505050905090565b600080610989868686866113c9565b9050600460078111156109c5577f4e487b7100000000000000000000000000000000000000000000000000000000600052602160045260246000fd5b6109ce82610f6a565b6007811115610a06577f4e487b7100000000000000000000000000000000000000000000000000000000600052602160045260246000fd5b14610a46576040517f08c379a0000000000000000000000000000000000000000000000000000000008152600401610a3d906140cd565b60405180910390fd5b6000600260009054906101000a900473ffffffffffffffffffffffffffffffffffffffff1673ffffffffffffffffffffffffffffffffffffffff1663f27a0c926040518163ffffffff1660e01b815260040160206040518083038186803b158015610ab057600080fd5b505afa158015610ac4573d6000803e3d6000fd5b505050506040513d601f19601f82011682018060405250810190610ae8919061342a565b9050600260009054906101000a900473ffffffffffffffffffffffffffffffffffffffff1673ffffffffffffffffffffffffffffffffffffffff1663b1c5f4278888886000896040518663ffffffff1660e01b8152600401610b4e959493929190613cf2565b60206040518083038186803b158015610b6657600080fd5b505afa158015610b7a573d6000803e3d6000fd5b505050506040513d601f19601f82011682018060405250810190610b9e9190613386565b6003600084815260200190815260200160002081905550600260009054906101000a900473ffffffffffffffffffffffffffffffffffffffff1673ffffffffffffffffffffffffffffffffffffffff16638f2a0bb0888888600089876040518763ffffffff1660e01b8152600401610c1b96959493929190613d5a565b600060405180830381600087803b158015610c3557600080fd5b505af1158015610c49573d6000803e3d6000fd5b505050507f9a2e42fd6722813d69113e7d0079d3d940171428df7373df9c7f7617cfda2892828242610c7b9190614532565b604051610c89929190614238565b60405180910390a18192505050949350505050565b600080610cad868686866113c9565b90506000610cba82610f6a565b905060046007811115610cf6577f4e487b7100000000000000000000000000000000000000000000000000000000600052602160045260246000fd5b816007811115610d2f577f4e487b7100000000000000000000000000000000000000000000000000000000600052602160045260246000fd5b1480610dab575060056007811115610d70577f4e487b7100000000000000000000000000000000000000000000000000000000600052602160045260246000fd5b816007811115610da9577f4e487b7100000000000000000000000000000000000000000000000000000000600052602160045260246000fd5b145b610dea576040517f08c379a0000000000000000000000000000000000000000000000000000000008152600401610de1906140cd565b60405180910390fd5b600180600084815260200190815260200160002060020160006101000a81548160ff0219169083151502179055507f712ae1383f79ac853f8d882153778e0260ef8f03b504e2866e0593e04d2b291f82604051610e47919061416d565b60405180910390a1610e5c828888888861161b565b8192505050949350505050565b6000610ec6600160008481526020019081526020016000206000016040518060200160405290816000820160009054906101000a900467ffffffffffffffff1667ffffffffffffffff1667ffffffffffffffff168152505061162f565b67ffffffffffffffff169050919050565b60006001905090565b600080610f41610f397f150214d74d59b7d1e90c73fc22ef3d991dd0a76b046543d4d80ab92d2a50328f8989604051602001610f1e93929190613e59565b6040516020818303038152906040528051906020012061163d565b868686611657565b9050610f5e87828860405180602001604052806000815250611682565b91505095945050505050565b6000610f7582611822565b9050919050565b60006005600084815260200190815260200160002060030160008373ffffffffffffffffffffffffffffffffffffffff1673ffffffffffffffffffffffffffffffffffffffff16815260200190815260200160002060009054906101000a900460ff16905092915050565b600080600080600560008681526020019081526020016000209050806000015481600101548260020154935093509350509193909250565b60606040518060400160405280600181526020017f3100000000000000000000000000000000000000000000000000000000000000815250905090565b60008061106761157e565b905061108484828560405180602001604052806000815250611682565b91505092915050565b60008061109861157e565b90506110ea86828787878080601f016020809104026020016040519081016040528093929190818152602001838380828437600081840152601f19601f82011690508083019250505050505050611682565b915050949350505050565b600061110385858585611a60565b9050949350505050565b60006064905090565b6000600454905090565b611128610835565b73ffffffffffffffffffffffffffffffffffffffff1661114661157e565b73ffffffffffffffffffffffffffffffffffffffff161461119c576040517f08c379a000000000000000000000000000000000000000000000000000000000815260040161119390613f4d565b60405180910390fd5b6111a581611d86565b50565b600080600260009054906101000a900473ffffffffffffffffffffffffffffffffffffffff1673ffffffffffffffffffffffffffffffffffffffff1663d45c443560036000868152602001908152602001600020546040518263ffffffff1660e01b81526004016112199190613deb565b60206040518083038186803b15801561123157600080fd5b505afa158015611245573d6000803e3d6000fd5b505050506040513d601f19601f82011682018060405250810190611269919061342a565b905060018114611279578061127c565b60005b915050919050565b600090565b60006112e6600160008481526020019081526020016000206001016040518060200160405290816000820160009054906101000a900467ffffffffffffffff1667ffffffffffffffff1667ffffffffffffffff168152505061162f565b67ffffffffffffffff169050919050565b6112ff610835565b73ffffffffffffffffffffffffffffffffffffffff1661131d61157e565b73ffffffffffffffffffffffffffffffffffffffff1614611373576040517f08c379a000000000000000000000000000000000000000000000000000000000815260040161136a90613f4d565b60405180910390fd5b6113c28483838080601f016020809104026020016040519081016040528093929190818152602001838380828437600081840152601f19601f8201169050808301925050505050505085611e25565b5050505050565b6000848484846040516020016113e29493929190613c98565b6040516020818303038152906040528051906020012060001c9050949350505050565b6000600260009054906101000a900473ffffffffffffffffffffffffffffffffffffffff16905090565b60606040518060400160405280602081526020017f737570706f72743d627261766f2671756f72756d3d666f722c6162737461696e815250905090565b7f150214d74d59b7d1e90c73fc22ef3d991dd0a76b046543d4d80ab92d2a50328f81565b600061149c8383611e54565b905092915050565b60006114af82611f09565b9050919050565b7f000000000000000000000000000000000000000000000000000000000000000081565b6000600260009054906101000a900473ffffffffffffffffffffffffffffffffffffffff16905090565b60007f6e665ced000000000000000000000000000000000000000000000000000000007bffffffffffffffffffffffffffffffffffffffffffffffffffffffff1916827bffffffffffffffffffffffffffffffffffffffffffffffffffffffff19161480611577575061157682611fdf565b5b9050919050565b600033905090565b61158e61110d565b8111156115d0576040517f08c379a00000000000000000000000000000000000000000000000000000000081526004016115c790613f6d565b60405180910390fd5b60006004549050816004819055507f0553476bf02ef2726e8ce5ced78d63e26e602e4a2257b1f559418e24b4633997818360405161160f929190614238565b60405180910390a15050565b6116288585858585612059565b5050505050565b600081600001519050919050565b600061165061164a6120f7565b83612211565b9050919050565b600080600061166887878787612244565b9150915061167581612351565b8192505050949350505050565b600080600160008781526020019081526020016000209050600160078111156116d4577f4e487b7100000000000000000000000000000000000000000000000000000000600052602160045260246000fd5b6116dd87610f6a565b6007811115611715577f4e487b7100000000000000000000000000000000000000000000000000000000600052602160045260246000fd5b14611755576040517f08c379a000000000000000000000000000000000000000000000000000000000815260040161174c9061404d565b60405180910390fd5b60006117b3866117a4846000016040518060200160405290816000820160009054906101000a900467ffffffffffffffff1667ffffffffffffffff1667ffffffffffffffff168152505061162f565b67ffffffffffffffff16611490565b90506117c1878787846126a2565b8573ffffffffffffffffffffffffffffffffffffffff167fb8e138887d0aa13bab447e82de9d5c1777041ecd21ca36ba824ff1e6c07ddda48887848860405161180d9493929190614298565b60405180910390a28092505050949350505050565b60008061182e8361291a565b90506004600781111561186a577f4e487b7100000000000000000000000000000000000000000000000000000000600052602160045260246000fd5b8160078111156118a3577f4e487b7100000000000000000000000000000000000000000000000000000000600052602160045260246000fd5b146118b15780915050611a5b565b6000600360008581526020019081526020016000205490506000801b8114156118de578192505050611a5b565b600260009054906101000a900473ffffffffffffffffffffffffffffffffffffffff1673ffffffffffffffffffffffffffffffffffffffff16632ab0f529826040518263ffffffff1660e01b81526004016119399190613deb565b60206040518083038186803b15801561195157600080fd5b505afa158015611965573d6000803e3d6000fd5b505050506040513d601f19601f82011682018060405250810190611989919061335d565b1561199957600792505050611a5b565b600260009054906101000a900473ffffffffffffffffffffffffffffffffffffffff1673ffffffffffffffffffffffffffffffffffffffff1663584b153e826040518263ffffffff1660e01b81526004016119f49190613deb565b60206040518083038186803b158015611a0c57600080fd5b505afa158015611a20573d6000803e3d6000fd5b505050506040513d601f19601f82011682018060405250810190611a44919061335d565b15611a5457600592505050611a5b565b6002925050505b919050565b6000611a6a611284565b611a8033600143611a7b9190614651565b611490565b1015611ac1576040517f08c379a0000000000000000000000000000000000000000000000000000000008152600401611ab890613f8d565b60405180910390fd5b6000611ad686868686805190602001206113c9565b90508451865114611b1c576040517f08c379a0000000000000000000000000000000000000000000000000000000008152600401611b1390613fcd565b60405180910390fd5b8351865114611b60576040517f08c379a0000000000000000000000000000000000000000000000000000000008152600401611b5790613fcd565b60405180910390fd5b6000865111611ba4576040517f08c379a0000000000000000000000000000000000000000000000000000000008152600401611b9b9061406d565b60405180910390fd5b6000600160008381526020019081526020016000209050611c04816000016040518060200160405290816000820160009054906101000a900467ffffffffffffffff1667ffffffffffffffff1667ffffffffffffffff1681525050612a2f565b611c43576040517f08c379a0000000000000000000000000000000000000000000000000000000008152600401611c3a9061412d565b60405180910390fd5b6000611c55611c50610ed7565b612a49565b611c5e43612a49565b611c689190614588565b90506000611c7c611c77610856565b612a49565b82611c879190614588565b9050611c9f8284600001612aa090919063ffffffff16565b611cb58184600101612aa090919063ffffffff16565b7f7d84a6263ae0d98d3329bd7b46bb4e8d6f98cd35a7adb45c274c8b7fd5ebd5e084611cdf61157e565b8b8b8d5167ffffffffffffffff811115611d22577f4e487b7100000000000000000000000000000000000000000000000000000000600052604160045260246000fd5b604051908082528060200260200182016040528015611d5557816020015b6060815260200190600190039081611d405790505b508c88888e604051611d6f99989796959493929190614188565b60405180910390a183945050505050949350505050565b7f08f74ea46ef7894f65eabfb5e6e695de773a000b47c529ab559178069b226401600260009054906101000a900473ffffffffffffffffffffffffffffffffffffffff1682604051611dd9929190613c46565b60405180910390a180600260006101000a81548173ffffffffffffffffffffffffffffffffffffffff021916908373ffffffffffffffffffffffffffffffffffffffff16021790555050565b6060611e4b848484604051806060016040528060298152602001614f5460299139612acf565b90509392505050565b60007f000000000000000000000000000000000000000000000000000000000000000073ffffffffffffffffffffffffffffffffffffffff16633a46b1a884846040518363ffffffff1660e01b8152600401611eb1929190613c6f565b60206040518083038186803b158015611ec957600080fd5b505afa158015611edd573d6000803e3d6000fd5b505050506040513d601f19601f82011682018060405250810190611f01919061342a565b905092915050565b6000611f1361110d565b611f1b611116565b7f000000000000000000000000000000000000000000000000000000000000000073ffffffffffffffffffffffffffffffffffffffff16638e539e8c856040518263ffffffff1660e01b8152600401611f74919061416d565b60206040518083038186803b158015611f8c57600080fd5b505afa158015611fa0573d6000803e3d6000fd5b505050506040513d601f19601f82011682018060405250810190611fc4919061342a565b611fce91906145f7565b611fd891906145c6565b9050919050565b60007fbf26d897000000000000000000000000000000000000000000000000000000007bffffffffffffffffffffffffffffffffffffffffffffffffffffffff1916827bffffffffffffffffffffffffffffffffffffffffffffffffffffffff19161480612052575061205182612be3565b5b9050919050565b600260009054906101000a900473ffffffffffffffffffffffffffffffffffffffff1673ffffffffffffffffffffffffffffffffffffffff1663e38335e5348686866000876040518763ffffffff1660e01b81526004016120be959493929190613cf2565b6000604051808303818588803b1580156120d757600080fd5b505af11580156120eb573d6000803e3d6000fd5b50505050505050505050565b60007f000000000000000000000000000000000000000000000000000000000000000073ffffffffffffffffffffffffffffffffffffffff163073ffffffffffffffffffffffffffffffffffffffff1614801561217357507f000000000000000000000000000000000000000000000000000000000000000046145b156121a0577f0000000000000000000000000000000000000000000000000000000000000000905061220e565b61220b7f00000000000000000000000000000000000000000000000000000000000000007f00000000000000000000000000000000000000000000000000000000000000007f0000000000000000000000000000000000000000000000000000000000000000612c4d565b90505b90565b60008282604051602001612226929190613bf4565b60405160208183030381529060405280519060200120905092915050565b6000807f7fffffffffffffffffffffffffffffff5d576e7357a4501ddfe92f46681b20a08360001c111561227f576000600391509150612348565b601b8560ff16141580156122975750601c8560ff1614155b156122a9576000600491509150612348565b6000600187878787604051600081526020016040526040516122ce9493929190613e90565b6020604051602081039080840390855afa1580156122f0573d6000803e3d6000fd5b505050602060405103519050600073ffffffffffffffffffffffffffffffffffffffff168173ffffffffffffffffffffffffffffffffffffffff16141561233f57600060019250925050612348565b80600092509250505b94509492505050565b6000600481111561238b577f4e487b7100000000000000000000000000000000000000000000000000000000600052602160045260246000fd5b8160048111156123c4577f4e487b7100000000000000000000000000000000000000000000000000000000600052602160045260246000fd5b14156123cf5761269f565b60016004811115612409577f4e487b7100000000000000000000000000000000000000000000000000000000600052602160045260246000fd5b816004811115612442577f4e487b7100000000000000000000000000000000000000000000000000000000600052602160045260246000fd5b1415612483576040517f08c379a000000000000000000000000000000000000000000000000000000000815260040161247a90613f2d565b60405180910390fd5b600260048111156124bd577f4e487b7100000000000000000000000000000000000000000000000000000000600052602160045260246000fd5b8160048111156124f6577f4e487b7100000000000000000000000000000000000000000000000000000000600052602160045260246000fd5b1415612537576040517f08c379a000000000000000000000000000000000000000000000000000000000815260040161252e90613fad565b60405180910390fd5b60036004811115612571577f4e487b7100000000000000000000000000000000000000000000000000000000600052602160045260246000fd5b8160048111156125aa577f4e487b7100000000000000000000000000000000000000000000000000000000600052602160045260246000fd5b14156125eb576040517f08c379a00000000000000000000000000000000000000000000000000000000081526004016125e290613fed565b60405180910390fd5b600480811115612624577f4e487b7100000000000000000000000000000000000000000000000000000000600052602160045260246000fd5b81600481111561265d577f4e487b7100000000000000000000000000000000000000000000000000000000600052602160045260246000fd5b141561269e576040517f08c379a00000000000000000000000000000000000000000000000000000000081526004016126959061408d565b60405180910390fd5b5b50565b60006005600086815260200190815260200160002090508060030160008573ffffffffffffffffffffffffffffffffffffffff1673ffffffffffffffffffffffffffffffffffffffff16815260200190815260200160002060009054906101000a900460ff1615612748576040517f08c379a000000000000000000000000000000000000000000000000000000000815260040161273f9061400d565b60405180910390fd5b60018160030160008673ffffffffffffffffffffffffffffffffffffffff1673ffffffffffffffffffffffffffffffffffffffff16815260200190815260200160002060006101000a81548160ff021916908315150217905550600060028111156127dc577f4e487b7100000000000000000000000000000000000000000000000000000000600052602160045260246000fd5b60ff168360ff16141561280957818160000160008282546127fd9190614532565b92505081905550612913565b60016002811115612843577f4e487b7100000000000000000000000000000000000000000000000000000000600052602160045260246000fd5b60ff168360ff16141561287057818160010160008282546128649190614532565b92505081905550612912565b6002808111156128a9577f4e487b7100000000000000000000000000000000000000000000000000000000600052602160045260246000fd5b60ff168360ff1614156128d657818160020160008282546128ca9190614532565b92505081905550612911565b6040517f08c379a00000000000000000000000000000000000000000000000000000000081526004016129089061410d565b60405180910390fd5b5b5b5050505050565b6000806001600084815260200190815260200160002090508060020160009054906101000a900460ff1615612953576007915050612a2a565b8060020160019054906101000a900460ff1615612974576002915050612a2a565b600061297f84610e69565b905060008114156129c5576040517f08c379a00000000000000000000000000000000000000000000000000000000081526004016129bc906140ed565b60405180910390fd5b4381106129d757600092505050612a2a565b60006129e285611289565b90504381106129f75760019350505050612a2a565b612a0085612c87565b8015612a115750612a1085612cce565b5b15612a225760049350505050612a2a565b600393505050505b919050565b600080826000015167ffffffffffffffff16149050919050565b600067ffffffffffffffff8016821115612a98576040517f08c379a0000000000000000000000000000000000000000000000000000000008152600401612a8f906140ad565b60405180910390fd5b819050919050565b808260000160006101000a81548167ffffffffffffffff021916908367ffffffffffffffff1602179055505050565b606082471015612b14576040517f08c379a0000000000000000000000000000000000000000000000000000000008152600401612b0b9061402d565b60405180910390fd5b612b1d85612cf9565b612b5c576040517f08c379a0000000000000000000000000000000000000000000000000000000008152600401612b539061414d565b60405180910390fd5b6000808673ffffffffffffffffffffffffffffffffffffffff168587604051612b859190613bdd565b60006040518083038185875af1925050503d8060008114612bc2576040519150601f19603f3d011682016040523d82523d6000602084013e612bc7565b606091505b5091509150612bd7828286612d0c565b92505050949350505050565b60007f01ffc9a7000000000000000000000000000000000000000000000000000000007bffffffffffffffffffffffffffffffffffffffffffffffffffffffff1916827bffffffffffffffffffffffffffffffffffffffffffffffffffffffff1916149050919050565b60008383834630604051602001612c68959493929190613e06565b6040516020818303038152906040528051906020012090509392505050565b60008060056000848152602001908152602001600020905080600201548160010154612cb39190614532565b612cc4612cbf85610e69565b6114a4565b1115915050919050565b6000806005600084815260200190815260200160002090508060000154816001015411915050919050565b600080823b905060008111915050919050565b60608315612d1c57829050612d6c565b600083511115612d2f5782518084602001fd5b816040517f08c379a0000000000000000000000000000000000000000000000000000000008152600401612d639190613f0b565b60405180910390fd5b9392505050565b6000612d86612d8184614309565b6142e4565b90508083825260208201905082856020860282011115612da557600080fd5b60005b85811015612dd55781612dbb8882612f24565b845260208401935060208301925050600181019050612da8565b5050509392505050565b6000612df2612ded84614335565b6142e4565b9050808382526020820190508260005b85811015612e325781358501612e188882613055565b845260208401935060208301925050600181019050612e02565b5050509392505050565b6000612e4f612e4a84614361565b6142e4565b90508083825260208201905082856020860282011115612e6e57600080fd5b60005b85811015612e9e5781612e848882613108565b845260208401935060208301925050600181019050612e71565b5050509392505050565b6000612ebb612eb68461438d565b6142e4565b905082815260208101848484011115612ed357600080fd5b612ede8482856147c7565b509392505050565b6000612ef9612ef4846143be565b6142e4565b905082815260208101848484011115612f1157600080fd5b612f1c8482856147c7565b509392505050565b600081359050612f3381614eb2565b92915050565b600082601f830112612f4a57600080fd5b8135612f5a848260208601612d73565b91505092915050565b600082601f830112612f7457600080fd5b8135612f84848260208601612ddf565b91505092915050565b600082601f830112612f9e57600080fd5b8135612fae848260208601612e3c565b91505092915050565b600081519050612fc681614ec9565b92915050565b600081359050612fdb81614ee0565b92915050565b600081519050612ff081614ee0565b92915050565b60008135905061300581614ef7565b92915050565b60008083601f84011261301d57600080fd5b8235905067ffffffffffffffff81111561303657600080fd5b60208301915083600182028301111561304e57600080fd5b9250929050565b600082601f83011261306657600080fd5b8135613076848260208601612ea8565b91505092915050565b60008135905061308e81614f0e565b92915050565b60008083601f8401126130a657600080fd5b8235905067ffffffffffffffff8111156130bf57600080fd5b6020830191508360018202830111156130d757600080fd5b9250929050565b600082601f8301126130ef57600080fd5b81356130ff848260208601612ee6565b91505092915050565b60008135905061311781614f25565b92915050565b60008151905061312c81614f25565b92915050565b60008135905061314181614f3c565b92915050565b6000806040838503121561315a57600080fd5b600061316885828601612f24565b925050602061317985828601613108565b9150509250929050565b6000806000806060858703121561319957600080fd5b60006131a787828801612f24565b94505060206131b887828801613108565b935050604085013567ffffffffffffffff8111156131d557600080fd5b6131e18782880161300b565b925092505092959194509250565b6000806000806080858703121561320557600080fd5b600085013567ffffffffffffffff81111561321f57600080fd5b61322b87828801612f39565b945050602085013567ffffffffffffffff81111561324857600080fd5b61325487828801612f8d565b935050604085013567ffffffffffffffff81111561327157600080fd5b61327d87828801612f63565b925050606061328e87828801612fcc565b91505092959194509250565b600080600080608085870312156132b057600080fd5b600085013567ffffffffffffffff8111156132ca57600080fd5b6132d687828801612f39565b945050602085013567ffffffffffffffff8111156132f357600080fd5b6132ff87828801612f8d565b935050604085013567ffffffffffffffff81111561331c57600080fd5b61332887828801612f63565b925050606085013567ffffffffffffffff81111561334557600080fd5b613351878288016130de565b91505092959194509250565b60006020828403121561336f57600080fd5b600061337d84828501612fb7565b91505092915050565b60006020828403121561339857600080fd5b60006133a684828501612fe1565b91505092915050565b6000602082840312156133c157600080fd5b60006133cf84828501612ff6565b91505092915050565b6000602082840312156133ea57600080fd5b60006133f88482850161307f565b91505092915050565b60006020828403121561341357600080fd5b600061342184828501613108565b91505092915050565b60006020828403121561343c57600080fd5b600061344a8482850161311d565b91505092915050565b6000806040838503121561346657600080fd5b600061347485828601613108565b925050602061348585828601612f24565b9150509250929050565b600080604083850312156134a257600080fd5b60006134b085828601613108565b92505060206134c185828601613132565b9150509250929050565b600080600080606085870312156134e157600080fd5b60006134ef87828801613108565b945050602061350087828801613132565b935050604085013567ffffffffffffffff81111561351d57600080fd5b61352987828801613094565b925092505092959194509250565b600080600080600060a0868803121561354f57600080fd5b600061355d88828901613108565b955050602061356e88828901613132565b945050604061357f88828901613132565b935050606061359088828901612fcc565b92505060806135a188828901612fcc565b9150509295509295909350565b60006135ba8383613606565b60208301905092915050565b60006135d283836137ff565b905092915050565b60006135e68383613896565b905092915050565b60006135fa8383613ba1565b60208301905092915050565b61360f81614685565b82525050565b61361e81614685565b82525050565b600061362f8261442f565b61363981856144a5565b9350613644836143ef565b8060005b8381101561367557815161365c88826135ae565b975061366783614471565b925050600181019050613648565b5085935050505092915050565b600061368d8261443a565b61369781856144b6565b9350836020820285016136a9856143ff565b8060005b858110156136e557848403895281516136c685826135c6565b94506136d18361447e565b925060208a019950506001810190506136ad565b50829750879550505050505092915050565b600061370282614445565b61370c81856144c7565b93508360208202850161371e8561440f565b8060005b8581101561375a578484038952815161373b85826135da565b94506137468361448b565b925060208a01995050600181019050613722565b50829750879550505050505092915050565b600061377782614450565b61378181856144d8565b935061378c8361441f565b8060005b838110156137bd5781516137a488826135ee565b97506137af83614498565b925050600181019050613790565b5085935050505092915050565b6137d3816146a9565b82525050565b6137e2816146b5565b82525050565b6137f96137f4826146b5565b61486c565b82525050565b600061380a8261445b565b61381481856144e9565b93506138248185602086016147d6565b61382d81614961565b840191505092915050565b60006138438261445b565b61384d81856144fa565b935061385d8185602086016147d6565b80840191505092915050565b61387281614765565b82525050565b61388181614789565b82525050565b6138908161479b565b82525050565b60006138a182614466565b6138ab8185614505565b93506138bb8185602086016147d6565b6138c481614961565b840191505092915050565b60006138da82614466565b6138e48185614516565b93506138f48185602086016147d6565b6138fd81614961565b840191505092915050565b6000613915601883614516565b91506139208261497f565b602082019050919050565b6000613938601883614516565b9150613943826149a8565b602082019050919050565b600061395b604383614516565b9150613966826149d1565b606082019050919050565b600061397e604383614516565b915061398982614a46565b606082019050919050565b60006139a1601f83614516565b91506139ac82614abb565b602082019050919050565b60006139c4600283614527565b91506139cf82614ae4565b600282019050919050565b60006139e7602183614516565b91506139f282614b0d565b604082019050919050565b6000613a0a602283614516565b9150613a1582614b5c565b604082019050919050565b6000613a2d602783614516565b9150613a3882614bab565b604082019050919050565b6000613a50602683614516565b9150613a5b82614bfa565b604082019050919050565b6000613a73602383614516565b9150613a7e82614c49565b604082019050919050565b6000613a96601883614516565b9150613aa182614c98565b602082019050919050565b6000613ab9602283614516565b9150613ac482614cc1565b604082019050919050565b6000613adc602683614516565b9150613ae782614d10565b604082019050919050565b6000613aff602183614516565b9150613b0a82614d5f565b604082019050919050565b6000613b22601d83614516565b9150613b2d82614dae565b602082019050919050565b6000613b45603583614516565b9150613b5082614dd7565b604082019050919050565b6000613b68602183614516565b9150613b7382614e26565b604082019050919050565b6000613b8b601d83614516565b9150613b9682614e75565b602082019050919050565b613baa8161473a565b82525050565b613bb98161473a565b82525050565b613bc8816147b5565b82525050565b613bd781614758565b82525050565b6000613be98284613838565b915081905092915050565b6000613bff826139b7565b9150613c0b82856137e8565b602082019150613c1b82846137e8565b6020820191508190509392505050565b6000602082019050613c406000830184613615565b92915050565b6000604082019050613c5b6000830185613615565b613c686020830184613615565b9392505050565b6000604082019050613c846000830185613615565b613c916020830184613bb0565b9392505050565b60006080820190508181036000830152613cb28187613624565b90508181036020830152613cc6818661376c565b90508181036040830152613cda8185613682565b9050613ce960608301846137d9565b95945050505050565b600060a0820190508181036000830152613d0c8188613624565b90508181036020830152613d20818761376c565b90508181036040830152613d348186613682565b9050613d436060830185613887565b613d5060808301846137d9565b9695505050505050565b600060c0820190508181036000830152613d748189613624565b90508181036020830152613d88818861376c565b90508181036040830152613d9c8187613682565b9050613dab6060830186613887565b613db860808301856137d9565b613dc560a0830184613bb0565b979650505050505050565b6000602082019050613de560008301846137ca565b92915050565b6000602082019050613e0060008301846137d9565b92915050565b600060a082019050613e1b60008301886137d9565b613e2860208301876137d9565b613e3560408301866137d9565b613e426060830185613bb0565b613e4f6080830184613615565b9695505050505050565b6000606082019050613e6e60008301866137d9565b613e7b6020830185613bb0565b613e886040830184613bce565b949350505050565b6000608082019050613ea560008301876137d9565b613eb26020830186613bce565b613ebf60408301856137d9565b613ecc60608301846137d9565b95945050505050565b6000602082019050613eea6000830184613869565b92915050565b6000602082019050613f056000830184613878565b92915050565b60006020820190508181036000830152613f2581846138cf565b905092915050565b60006020820190508181036000830152613f4681613908565b9050919050565b60006020820190508181036000830152613f668161392b565b9050919050565b60006020820190508181036000830152613f868161394e565b9050919050565b60006020820190508181036000830152613fa681613971565b9050919050565b60006020820190508181036000830152613fc681613994565b9050919050565b60006020820190508181036000830152613fe6816139da565b9050919050565b60006020820190508181036000830152614006816139fd565b9050919050565b6000602082019050818103600083015261402681613a20565b9050919050565b6000602082019050818103600083015261404681613a43565b9050919050565b6000602082019050818103600083015261406681613a66565b9050919050565b6000602082019050818103600083015261408681613a89565b9050919050565b600060208201905081810360008301526140a681613aac565b9050919050565b600060208201905081810360008301526140c681613acf565b9050919050565b600060208201905081810360008301526140e681613af2565b9050919050565b6000602082019050818103600083015261410681613b15565b9050919050565b6000602082019050818103600083015261412681613b38565b9050919050565b6000602082019050818103600083015261414681613b5b565b9050919050565b6000602082019050818103600083015261416681613b7e565b9050919050565b60006020820190506141826000830184613bb0565b92915050565b60006101208201905061419e600083018c613bb0565b6141ab602083018b613615565b81810360408301526141bd818a613624565b905081810360608301526141d1818961376c565b905081810360808301526141e581886136f7565b905081810360a08301526141f98187613682565b905061420860c0830186613bbf565b61421560e0830185613bbf565b81810361010083015261422881846138cf565b90509a9950505050505050505050565b600060408201905061424d6000830185613bb0565b61425a6020830184613bb0565b9392505050565b60006060820190506142766000830186613bb0565b6142836020830185613bb0565b6142906040830184613bb0565b949350505050565b60006080820190506142ad6000830187613bb0565b6142ba6020830186613bce565b6142c76040830185613bb0565b81810360608301526142d981846138cf565b905095945050505050565b60006142ee6142ff565b90506142fa828261483b565b919050565b6000604051905090565b600067ffffffffffffffff82111561432457614323614932565b5b602082029050602081019050919050565b600067ffffffffffffffff8211156143505761434f614932565b5b602082029050602081019050919050565b600067ffffffffffffffff82111561437c5761437b614932565b5b602082029050602081019050919050565b600067ffffffffffffffff8211156143a8576143a7614932565b5b6143b182614961565b9050602081019050919050565b600067ffffffffffffffff8211156143d9576143d8614932565b5b6143e282614961565b9050602081019050919050565b6000819050602082019050919050565b6000819050602082019050919050565b6000819050602082019050919050565b6000819050602082019050919050565b600081519050919050565b600081519050919050565b600081519050919050565b600081519050919050565b600081519050919050565b600081519050919050565b6000602082019050919050565b6000602082019050919050565b6000602082019050919050565b6000602082019050919050565b600082825260208201905092915050565b600082825260208201905092915050565b600082825260208201905092915050565b600082825260208201905092915050565b600082825260208201905092915050565b600081905092915050565b600082825260208201905092915050565b600082825260208201905092915050565b600081905092915050565b600061453d8261473a565b91506145488361473a565b9250827fffffffffffffffffffffffffffffffffffffffffffffffffffffffffffffffff0382111561457d5761457c614876565b5b828201905092915050565b600061459382614744565b915061459e83614744565b92508267ffffffffffffffff038211156145bb576145ba614876565b5b828201905092915050565b60006145d18261473a565b91506145dc8361473a565b9250826145ec576145eb6148a5565b5b828204905092915050565b60006146028261473a565b915061460d8361473a565b9250817fffffffffffffffffffffffffffffffffffffffffffffffffffffffffffffffff048311821515161561464657614645614876565b5b828202905092915050565b600061465c8261473a565b91506146678361473a565b92508282101561467a57614679614876565b5b828203905092915050565b60006146908261471a565b9050919050565b60006146a28261471a565b9050919050565b60008115159050919050565b6000819050919050565b60007fffffffff0000000000000000000000000000000000000000000000000000000082169050919050565b60006146f682614697565b9050919050565b600081905061470b82614e9e565b919050565b6000819050919050565b600073ffffffffffffffffffffffffffffffffffffffff82169050919050565b6000819050919050565b600067ffffffffffffffff82169050919050565b600060ff82169050919050565b600061477082614777565b9050919050565b60006147828261471a565b9050919050565b6000614794826146fd565b9050919050565b60006147ae6147a983614710565b614972565b9050919050565b60006147c082614744565b9050919050565b82818337600083830152505050565b60005b838110156147f45780820151818401526020810190506147d9565b83811115614803576000848401525b50505050565b6000600282049050600182168061482157607f821691505b6020821081141561483557614834614903565b5b50919050565b61484482614961565b810181811067ffffffffffffffff8211171561486357614862614932565b5b80604052505050565b6000819050919050565b7f4e487b7100000000000000000000000000000000000000000000000000000000600052601160045260246000fd5b7f4e487b7100000000000000000000000000000000000000000000000000000000600052601260045260246000fd5b7f4e487b7100000000000000000000000000000000000000000000000000000000600052602160045260246000fd5b7f4e487b7100000000000000000000000000000000000000000000000000000000600052602260045260246000fd5b7f4e487b7100000000000000000000000000000000000000000000000000000000600052604160045260246000fd5b6000601f19601f8301169050919050565b60008160001b9050919050565b7f45434453413a20696e76616c6964207369676e61747572650000000000000000600082015250565b7f476f7665726e6f723a206f6e6c79476f7665726e616e63650000000000000000600082015250565b7f476f7665726e6f72566f74657351756f72756d4672616374696f6e3a2071756f60008201527f72756d4e756d657261746f72206f7665722071756f72756d44656e6f6d696e6160208201527f746f720000000000000000000000000000000000000000000000000000000000604082015250565b7f476f7665726e6f72436f6d7061746962696c697479427261766f3a2070726f7060008201527f6f73657220766f7465732062656c6f772070726f706f73616c2074687265736860208201527f6f6c640000000000000000000000000000000000000000000000000000000000604082015250565b7f45434453413a20696e76616c6964207369676e6174757265206c656e67746800600082015250565b7f1901000000000000000000000000000000000000000000000000000000000000600082015250565b7f476f7665726e6f723a20696e76616c69642070726f706f73616c206c656e677460008201527f6800000000000000000000000000000000000000000000000000000000000000602082015250565b7f45434453413a20696e76616c6964207369676e6174757265202773272076616c60008201527f7565000000000000000000000000000000000000000000000000000000000000602082015250565b7f476f7665726e6f72566f74696e6753696d706c653a20766f746520616c72656160008201527f6479206361737400000000000000000000000000000000000000000000000000602082015250565b7f416464726573733a20696e73756666696369656e742062616c616e636520666f60008201527f722063616c6c0000000000000000000000000000000000000000000000000000602082015250565b7f476f7665726e6f723a20766f7465206e6f742063757272656e746c792061637460008201527f6976650000000000000000000000000000000000000000000000000000000000602082015250565b7f476f7665726e6f723a20656d7074792070726f706f73616c0000000000000000600082015250565b7f45434453413a20696e76616c6964207369676e6174757265202776272076616c60008201527f7565000000000000000000000000000000000000000000000000000000000000602082015250565b7f53616665436173743a2076616c756520646f65736e27742066697420696e203660008201527f3420626974730000000000000000000000000000000000000000000000000000602082015250565b7f476f7665726e6f723a2070726f706f73616c206e6f742073756363657373667560008201527f6c00000000000000000000000000000000000000000000000000000000000000602082015250565b7f476f7665726e6f723a20756e6b6e6f776e2070726f706f73616c206964000000600082015250565b7f476f7665726e6f72566f74696e6753696d706c653a20696e76616c696420766160008201527f6c756520666f7220656e756d20566f7465547970650000000000000000000000602082015250565b7f476f7665726e6f723a2070726f706f73616c20616c726561647920657869737460008201527f7300000000000000000000000000000000000000000000000000000000000000602082015250565b7f416464726573733a2063616c6c20746f206e6f6e2d636f6e7472616374000000600082015250565b60088110614eaf57614eae6148d4565b5b50565b614ebb81614685565b8114614ec657600080fd5b50565b614ed2816146a9565b8114614edd57600080fd5b50565b614ee9816146b5565b8114614ef457600080fd5b50565b614f00816146bf565b8114614f0b57600080fd5b50565b614f17816146eb565b8114614f2257600080fd5b50565b614f2e8161473a565b8114614f3957600080fd5b50565b614f4581614758565b8114614f5057600080fd5b5056fe416464726573733a206c6f772d6c6576656c2063616c6c20776974682076616c7565206661696c6564a26469706673582212201ad6a4913755d4796031013711d0aad311bc60dc3d06dbf38d82dc1cfd0870c564736f6c63430008020033",
  "linkReferences": {},
  "deployedLinkReferences": {}
}