{
  "_format": "hh-sol-artifact-1",
  "contractName": "GovernorCompMock",
  "sourceName": "contracts/OZ/mocks/GovernorCompMock.sol",
  "abi": [
    {
      "inputs": [
        {
          "internalType": "string",
          "name": "name_",
          "type": "string"
        },
        {
          "internalType": "contract ERC20VotesComp",
          "name": "token_",
          "type": "address"
        }
      ],
      "stateMutability": "nonpayable",
      "type": "constructor"
    },
    {
      "anonymous": false,
      "inputs": [
        {
          "indexed": false,
          "internalType": "uint256",
          "name": "proposalId",
          "type": "uint256"
        }
      ],
      "name": "ProposalCanceled",
      "type": "event"
    },
    {
      "anonymous": false,
      "inputs": [
        {
          "indexed": false,
          "internalType": "uint256",
          "name": "proposalId",
          "type": "uint256"
        },
        {
          "indexed": false,
          "internalType": "address",
          "name": "proposer",
          "type": "address"
        },
        {
          "indexed": false,
          "internalType": "address[]",
          "name": "targets",
          "type": "address[]"
        },
        {
          "indexed": false,
          "internalType": "uint256[]",
          "name": "values",
          "type": "uint256[]"
        },
        {
          "indexed": false,
          "internalType": "string[]",
          "name": "signatures",
          "type": "string[]"
        },
        {
          "indexed": false,
          "internalType": "bytes[]",
          "name": "calldatas",
          "type": "bytes[]"
        },
        {
          "indexed": false,
          "internalType": "uint256",
          "name": "startBlock",
          "type": "uint256"
        },
        {
          "indexed": false,
          "internalType": "uint256",
          "name": "endBlock",
          "type": "uint256"
        },
        {
          "indexed": false,
          "internalType": "string",
          "name": "description",
          "type": "string"
        }
      ],
      "name": "ProposalCreated",
      "type": "event"
    },
    {
      "anonymous": false,
      "inputs": [
        {
          "indexed": false,
          "internalType": "uint256",
          "name": "proposalId",
          "type": "uint256"
        }
      ],
      "name": "ProposalExecuted",
      "type": "event"
    },
    {
      "anonymous": false,
      "inputs": [
        {
          "indexed": true,
          "internalType": "address",
          "name": "voter",
          "type": "address"
        },
        {
          "indexed": false,
          "internalType": "uint256",
          "name": "proposalId",
          "type": "uint256"
        },
        {
          "indexed": false,
          "internalType": "uint8",
          "name": "support",
          "type": "uint8"
        },
        {
          "indexed": false,
          "internalType": "uint256",
          "name": "weight",
          "type": "uint256"
        },
        {
          "indexed": false,
          "internalType": "string",
          "name": "reason",
          "type": "string"
        }
      ],
      "name": "VoteCast",
      "type": "event"
    },
    {
      "inputs": [],
      "name": "BALLOT_TYPEHASH",
      "outputs": [
        {
          "internalType": "bytes32",
          "name": "",
          "type": "bytes32"
        }
      ],
      "stateMutability": "view",
      "type": "function"
    },
    {
      "inputs": [],
      "name": "COUNTING_MODE",
      "outputs": [
        {
          "internalType": "string",
          "name": "",
          "type": "string"
        }
      ],
      "stateMutability": "pure",
      "type": "function"
    },
    {
      "inputs": [
        {
          "internalType": "address[]",
          "name": "targets",
          "type": "address[]"
        },
        {
          "internalType": "uint256[]",
          "name": "values",
          "type": "uint256[]"
        },
        {
          "internalType": "bytes[]",
          "name": "calldatas",
          "type": "bytes[]"
        },
        {
          "internalType": "bytes32",
          "name": "salt",
          "type": "bytes32"
        }
      ],
      "name": "cancel",
      "outputs": [
        {
          "internalType": "uint256",
          "name": "proposalId",
          "type": "uint256"
        }
      ],
      "stateMutability": "nonpayable",
      "type": "function"
    },
    {
      "inputs": [
        {
          "internalType": "uint256",
          "name": "proposalId",
          "type": "uint256"
        },
        {
          "internalType": "uint8",
          "name": "support",
          "type": "uint8"
        }
      ],
      "name": "castVote",
      "outputs": [
        {
          "internalType": "uint256",
          "name": "",
          "type": "uint256"
        }
      ],
      "stateMutability": "nonpayable",
      "type": "function"
    },
    {
      "inputs": [
        {
          "internalType": "uint256",
          "name": "proposalId",
          "type": "uint256"
        },
        {
          "internalType": "uint8",
          "name": "support",
          "type": "uint8"
        },
        {
          "internalType": "uint8",
          "name": "v",
          "type": "uint8"
        },
        {
          "internalType": "bytes32",
          "name": "r",
          "type": "bytes32"
        },
        {
          "internalType": "bytes32",
          "name": "s",
          "type": "bytes32"
        }
      ],
      "name": "castVoteBySig",
      "outputs": [
        {
          "internalType": "uint256",
          "name": "",
          "type": "uint256"
        }
      ],
      "stateMutability": "nonpayable",
      "type": "function"
    },
    {
      "inputs": [
        {
          "internalType": "uint256",
          "name": "proposalId",
          "type": "uint256"
        },
        {
          "internalType": "uint8",
          "name": "support",
          "type": "uint8"
        },
        {
          "internalType": "string",
          "name": "reason",
          "type": "string"
        }
      ],
      "name": "castVoteWithReason",
      "outputs": [
        {
          "internalType": "uint256",
          "name": "",
          "type": "uint256"
        }
      ],
      "stateMutability": "nonpayable",
      "type": "function"
    },
    {
      "inputs": [
        {
          "internalType": "address[]",
          "name": "targets",
          "type": "address[]"
        },
        {
          "internalType": "uint256[]",
          "name": "values",
          "type": "uint256[]"
        },
        {
          "internalType": "bytes[]",
          "name": "calldatas",
          "type": "bytes[]"
        },
        {
          "internalType": "bytes32",
          "name": "descriptionHash",
          "type": "bytes32"
        }
      ],
      "name": "execute",
      "outputs": [
        {
          "internalType": "uint256",
          "name": "",
          "type": "uint256"
        }
      ],
      "stateMutability": "payable",
      "type": "function"
    },
    {
      "inputs": [
        {
          "internalType": "address",
          "name": "account",
          "type": "address"
        },
        {
          "internalType": "uint256",
          "name": "blockNumber",
          "type": "uint256"
        }
      ],
      "name": "getVotes",
      "outputs": [
        {
          "internalType": "uint256",
          "name": "",
          "type": "uint256"
        }
      ],
      "stateMutability": "view",
      "type": "function"
    },
    {
      "inputs": [
        {
          "internalType": "uint256",
          "name": "proposalId",
          "type": "uint256"
        },
        {
          "internalType": "address",
          "name": "account",
          "type": "address"
        }
      ],
      "name": "hasVoted",
      "outputs": [
        {
          "internalType": "bool",
          "name": "",
          "type": "bool"
        }
      ],
      "stateMutability": "view",
      "type": "function"
    },
    {
      "inputs": [
        {
          "internalType": "address[]",
          "name": "targets",
          "type": "address[]"
        },
        {
          "internalType": "uint256[]",
          "name": "values",
          "type": "uint256[]"
        },
        {
          "internalType": "bytes[]",
          "name": "calldatas",
          "type": "bytes[]"
        },
        {
          "internalType": "bytes32",
          "name": "descriptionHash",
          "type": "bytes32"
        }
      ],
      "name": "hashProposal",
      "outputs": [
        {
          "internalType": "uint256",
          "name": "",
          "type": "uint256"
        }
      ],
      "stateMutability": "pure",
      "type": "function"
    },
    {
      "inputs": [],
      "name": "name",
      "outputs": [
        {
          "internalType": "string",
          "name": "",
          "type": "string"
        }
      ],
      "stateMutability": "view",
      "type": "function"
    },
    {
      "inputs": [
        {
          "internalType": "uint256",
          "name": "proposalId",
          "type": "uint256"
        }
      ],
      "name": "proposalDeadline",
      "outputs": [
        {
          "internalType": "uint256",
          "name": "",
          "type": "uint256"
        }
      ],
      "stateMutability": "view",
      "type": "function"
    },
    {
      "inputs": [
        {
          "internalType": "uint256",
          "name": "proposalId",
          "type": "uint256"
        }
      ],
      "name": "proposalSnapshot",
      "outputs": [
        {
          "internalType": "uint256",
          "name": "",
          "type": "uint256"
        }
      ],
      "stateMutability": "view",
      "type": "function"
    },
    {
      "inputs": [],
      "name": "proposalThreshold",
      "outputs": [
        {
          "internalType": "uint256",
          "name": "",
          "type": "uint256"
        }
      ],
      "stateMutability": "view",
      "type": "function"
    },
    {
      "inputs": [
        {
          "internalType": "uint256",
          "name": "proposalId",
          "type": "uint256"
        }
      ],
      "name": "proposalVotes",
      "outputs": [
        {
          "internalType": "uint256",
          "name": "againstVotes",
          "type": "uint256"
        },
        {
          "internalType": "uint256",
          "name": "forVotes",
          "type": "uint256"
        },
        {
          "internalType": "uint256",
          "name": "abstainVotes",
          "type": "uint256"
        }
      ],
      "stateMutability": "view",
      "type": "function"
    },
    {
      "inputs": [
        {
          "internalType": "address[]",
          "name": "targets",
          "type": "address[]"
        },
        {
          "internalType": "uint256[]",
          "name": "values",
          "type": "uint256[]"
        },
        {
          "internalType": "bytes[]",
          "name": "calldatas",
          "type": "bytes[]"
        },
        {
          "internalType": "string",
          "name": "description",
          "type": "string"
        }
      ],
      "name": "propose",
      "outputs": [
        {
          "internalType": "uint256",
          "name": "",
          "type": "uint256"
        }
      ],
      "stateMutability": "nonpayable",
      "type": "function"
    },
    {
      "inputs": [
        {
          "internalType": "uint256",
          "name": "",
          "type": "uint256"
        }
      ],
      "name": "quorum",
      "outputs": [
        {
          "internalType": "uint256",
          "name": "",
          "type": "uint256"
        }
      ],
      "stateMutability": "pure",
      "type": "function"
    },
    {
      "inputs": [
        {
          "internalType": "address",
          "name": "target",
          "type": "address"
        },
        {
          "internalType": "uint256",
          "name": "value",
          "type": "uint256"
        },
        {
          "internalType": "bytes",
          "name": "data",
          "type": "bytes"
        }
      ],
      "name": "relay",
      "outputs": [],
      "stateMutability": "nonpayable",
      "type": "function"
    },
    {
      "inputs": [
        {
          "internalType": "uint256",
          "name": "proposalId",
          "type": "uint256"
        }
      ],
      "name": "state",
      "outputs": [
        {
          "internalType": "enum IGovernor.ProposalState",
          "name": "",
          "type": "uint8"
        }
      ],
      "stateMutability": "view",
      "type": "function"
    },
    {
      "inputs": [
        {
          "internalType": "bytes4",
          "name": "interfaceId",
          "type": "bytes4"
        }
      ],
      "name": "supportsInterface",
      "outputs": [
        {
          "internalType": "bool",
          "name": "",
          "type": "bool"
        }
      ],
      "stateMutability": "view",
      "type": "function"
    },
    {
      "inputs": [],
      "name": "token",
      "outputs": [
        {
          "internalType": "contract ERC20VotesComp",
          "name": "",
          "type": "address"
        }
      ],
      "stateMutability": "view",
      "type": "function"
    },
    {
      "inputs": [],
      "name": "version",
      "outputs": [
        {
          "internalType": "string",
          "name": "",
          "type": "string"
        }
      ],
      "stateMutability": "view",
      "type": "function"
    },
    {
      "inputs": [],
      "name": "votingDelay",
      "outputs": [
        {
          "internalType": "uint256",
          "name": "",
          "type": "uint256"
        }
      ],
      "stateMutability": "pure",
      "type": "function"
    },
    {
      "inputs": [],
      "name": "votingPeriod",
      "outputs": [
        {
          "internalType": "uint256",
          "name": "",
          "type": "uint256"
        }
      ],
      "stateMutability": "pure",
      "type": "function"
    },
    {
      "stateMutability": "payable",
      "type": "receive"
    }
  ],
  "bytecode": "0x6101606040523480156200001257600080fd5b5060405162004a1138038062004a1183398181016040528101906200003891906200030d565b8082806200004b6200015b60201b60201c565b60008280519060200120905060008280519060200120905060007f8b73c3c69bb8fe3d512ecc4cf759cc79239f7b179b0ffacaa9a75d522b39400f90508260e081815250508161010081815250504660a08181525050620000b48184846200019860201b60201c565b608081815250503073ffffffffffffffffffffffffffffffffffffffff1660c08173ffffffffffffffffffffffffffffffffffffffff1660601b815250508061012081815250505050505050806000908051906020019062000118929190620001d4565b50508073ffffffffffffffffffffffffffffffffffffffff166101408173ffffffffffffffffffffffffffffffffffffffff1660601b81525050505050620005dd565b60606040518060400160405280600181526020017f3100000000000000000000000000000000000000000000000000000000000000815250905090565b60008383834630604051602001620001b59594939291906200039a565b6040516020818303038152906040528051906020012090509392505050565b828054620001e290620004e8565b90600052602060002090601f01602090048101928262000206576000855562000252565b82601f106200022157805160ff191683800117855562000252565b8280016001018555821562000252579182015b828111156200025157825182559160200191906001019062000234565b5b50905062000261919062000265565b5090565b5b808211156200028057600081600090555060010162000266565b5090565b60006200029b620002958462000420565b620003f7565b905082815260208101848484011115620002b457600080fd5b620002c1848285620004b2565b509392505050565b600081519050620002da81620005c3565b92915050565b600082601f830112620002f257600080fd5b81516200030484826020860162000284565b91505092915050565b600080604083850312156200032157600080fd5b600083015167ffffffffffffffff8111156200033c57600080fd5b6200034a85828601620002e0565b92505060206200035d85828601620002c9565b9150509250929050565b620003728162000456565b82525050565b62000383816200046a565b82525050565b6200039481620004a8565b82525050565b600060a082019050620003b1600083018862000378565b620003c0602083018762000378565b620003cf604083018662000378565b620003de606083018562000389565b620003ed608083018462000367565b9695505050505050565b60006200040362000416565b90506200041182826200051e565b919050565b6000604051905090565b600067ffffffffffffffff8211156200043e576200043d62000583565b5b6200044982620005b2565b9050602081019050919050565b6000620004638262000488565b9050919050565b6000819050919050565b6000620004818262000456565b9050919050565b600073ffffffffffffffffffffffffffffffffffffffff82169050919050565b6000819050919050565b60005b83811015620004d2578082015181840152602081019050620004b5565b83811115620004e2576000848401525b50505050565b600060028204905060018216806200050157607f821691505b6020821081141562000518576200051762000554565b5b50919050565b6200052982620005b2565b810181811067ffffffffffffffff821117156200054b576200054a62000583565b5b80604052505050565b7f4e487b7100000000000000000000000000000000000000000000000000000000600052602260045260246000fd5b7f4e487b7100000000000000000000000000000000000000000000000000000000600052604160045260246000fd5b6000601f19601f8301169050919050565b620005ce8162000474565b8114620005da57600080fd5b50565b60805160a05160c05160601c60e05161010051610120516101405160601c6143cc620006456000396000818161125701526119e101526000611bb501526000611bf701526000611bd601526000611b0b01526000611b6101526000611b8a01526143cc6000f3fe60806040526004361061014f5760003560e01c806356781388116100b6578063c59057e41161006f578063c59057e41461056b578063dd4e2ba5146105a8578063deaaa7cc146105d3578063eb9019d4146105fe578063f8ce560a1461063b578063fc0c546a1461067857610195565b806356781388146104235780637b3c71d3146104605780637d5e81e21461049d578063b58131b0146104da578063c01f9e3714610505578063c28bc2fa1461054257610195565b80633bccf4fd116101085780633bccf4fd146102c55780633e4f49e614610302578063438596321461033f578063452115d61461037c578063544ffc9c146103b957806354fd4d50146103f857610195565b806301ffc9a71461019a57806302a251a3146101d757806306fdde03146102025780632656227d1461022d5780632d63f6931461025d5780633932abb11461029a57610195565b36610195573073ffffffffffffffffffffffffffffffffffffffff166101736106a3565b73ffffffffffffffffffffffffffffffffffffffff161461019357600080fd5b005b600080fd5b3480156101a657600080fd5b506101c160048036038101906101bc9190612a36565b6106ab565b6040516101ce91906132fd565b60405180910390f35b3480156101e357600080fd5b506101ec610725565b6040516101f9919061369a565b60405180910390f35b34801561020e57600080fd5b5061021761072e565b6040516102249190613438565b60405180910390f35b610247600480360381019061024291906128c8565b6107c0565b604051610254919061369a565b60405180910390f35b34801561026957600080fd5b50610284600480360381019061027f9190612a5f565b61098b565b604051610291919061369a565b60405180910390f35b3480156102a657600080fd5b506102af6109f9565b6040516102bc919061369a565b60405180910390f35b3480156102d157600080fd5b506102ec60048036038101906102e79190612b6c565b610a02565b6040516102f9919061369a565b60405180910390f35b34801561030e57600080fd5b5061032960048036038101906103249190612a5f565b610a8c565b604051610336919061341d565b60405180910390f35b34801561034b57600080fd5b5061036660048036038101906103619190612a88565b610ba1565b60405161037391906132fd565b60405180910390f35b34801561038857600080fd5b506103a3600480360381019061039e91906128c8565b610c0c565b6040516103b0919061369a565b60405180910390f35b3480156103c557600080fd5b506103e060048036038101906103db9190612a5f565b610c24565b6040516103ef93929190613765565b60405180910390f35b34801561040457600080fd5b5061040d610c5c565b60405161041a9190613438565b60405180910390f35b34801561042f57600080fd5b5061044a60048036038101906104459190612ac4565b610c99565b604051610457919061369a565b60405180910390f35b34801561046c57600080fd5b5061048760048036038101906104829190612b00565b610cca565b604051610494919061369a565b60405180910390f35b3480156104a957600080fd5b506104c460048036038101906104bf9190612973565b610d32565b6040516104d1919061369a565b60405180910390f35b3480156104e657600080fd5b506104ef611058565b6040516104fc919061369a565b60405180910390f35b34801561051157600080fd5b5061052c60048036038101906105279190612a5f565b61105d565b604051610539919061369a565b60405180910390f35b34801561054e57600080fd5b506105696004803603810190610564919061285c565b6110cb565b005b34801561057757600080fd5b50610592600480360381019061058d91906128c8565b61119d565b60405161059f919061369a565b60405180910390f35b3480156105b457600080fd5b506105bd6111d9565b6040516105ca9190613438565b60405180910390f35b3480156105df57600080fd5b506105e8611216565b6040516105f59190613318565b60405180910390f35b34801561060a57600080fd5b5061062560048036038101906106209190612820565b61123a565b604051610632919061369a565b60405180910390f35b34801561064757600080fd5b50610662600480360381019061065d9190612a5f565b61124e565b60405161066f919061369a565b60405180910390f35b34801561068457600080fd5b5061068d611255565b60405161069a9190613402565b60405180910390f35b600030905090565b60007fbf26d897000000000000000000000000000000000000000000000000000000007bffffffffffffffffffffffffffffffffffffffffffffffffffffffff1916827bffffffffffffffffffffffffffffffffffffffffffffffffffffffff1916148061071e575061071d82611279565b5b9050919050565b60006010905090565b60606000805461073d90613c52565b80601f016020809104026020016040519081016040528092919081815260200182805461076990613c52565b80156107b65780601f1061078b576101008083540402835291602001916107b6565b820191906000526020600020905b81548152906001019060200180831161079957829003601f168201915b5050505050905090565b6000806107cf8686868661119d565b905060006107dc82610a8c565b905060046007811115610818577f4e487b7100000000000000000000000000000000000000000000000000000000600052602160045260246000fd5b816007811115610851577f4e487b7100000000000000000000000000000000000000000000000000000000600052602160045260246000fd5b14806108cd575060056007811115610892577f4e487b7100000000000000000000000000000000000000000000000000000000600052602160045260246000fd5b8160078111156108cb577f4e487b7100000000000000000000000000000000000000000000000000000000600052602160045260246000fd5b145b61090c576040517f08c379a0000000000000000000000000000000000000000000000000000000008152600401610903906135fa565b60405180910390fd5b600180600084815260200190815260200160002060020160006101000a81548160ff0219169083151502179055507f712ae1383f79ac853f8d882153778e0260ef8f03b504e2866e0593e04d2b291f82604051610969919061369a565b60405180910390a161097e82888888886112e3565b8192505050949350505050565b60006109e8600160008481526020019081526020016000206000016040518060200160405290816000820160009054906101000a900467ffffffffffffffff1667ffffffffffffffff1667ffffffffffffffff1681525050611464565b67ffffffffffffffff169050919050565b60006004905090565b600080610a63610a5b7f150214d74d59b7d1e90c73fc22ef3d991dd0a76b046543d4d80ab92d2a50328f8989604051602001610a4093929190613386565b60405160208183030381529060405280519060200120611472565b86868661148c565b9050610a80878288604051806020016040528060008152506114b7565b91505095945050505050565b6000806001600084815260200190815260200160002090508060020160009054906101000a900460ff1615610ac5576007915050610b9c565b8060020160019054906101000a900460ff1615610ae6576002915050610b9c565b6000610af18461098b565b90506000811415610b37576040517f08c379a0000000000000000000000000000000000000000000000000000000008152600401610b2e9061361a565b60405180910390fd5b438110610b4957600092505050610b9c565b6000610b548561105d565b9050438110610b695760019350505050610b9c565b610b7285611657565b8015610b835750610b828561169e565b5b15610b945760049350505050610b9c565b600393505050505b919050565b60006002600084815260200190815260200160002060030160008373ffffffffffffffffffffffffffffffffffffffff1673ffffffffffffffffffffffffffffffffffffffff16815260200190815260200160002060009054906101000a900460ff16905092915050565b6000610c1a858585856116c9565b9050949350505050565b600080600080600260008681526020019081526020016000209050806000015481600101548260020154935093509350509193909250565b60606040518060400160405280600181526020017f3100000000000000000000000000000000000000000000000000000000000000815250905090565b600080610ca4611906565b9050610cc1848285604051806020016040528060008152506114b7565b91505092915050565b600080610cd5611906565b9050610d2786828787878080601f016020809104026020016040519081016040528093929190818152602001838380828437600081840152601f19601f820116905080830192505050505050506114b7565b915050949350505050565b6000610d3c611058565b610d5233600143610d4d9190613aca565b61123a565b1015610d93576040517f08c379a0000000000000000000000000000000000000000000000000000000008152600401610d8a9061349a565b60405180910390fd5b6000610da8868686868051906020012061119d565b90508451865114610dee576040517f08c379a0000000000000000000000000000000000000000000000000000000008152600401610de5906134da565b60405180910390fd5b8351865114610e32576040517f08c379a0000000000000000000000000000000000000000000000000000000008152600401610e29906134da565b60405180910390fd5b6000865111610e76576040517f08c379a0000000000000000000000000000000000000000000000000000000008152600401610e6d9061357a565b60405180910390fd5b6000600160008381526020019081526020016000209050610ed6816000016040518060200160405290816000820160009054906101000a900467ffffffffffffffff1667ffffffffffffffff1667ffffffffffffffff168152505061190e565b610f15576040517f08c379a0000000000000000000000000000000000000000000000000000000008152600401610f0c9061365a565b60405180910390fd5b6000610f27610f226109f9565b611928565b610f3043611928565b610f3a9190613a8c565b90506000610f4e610f49610725565b611928565b82610f599190613a8c565b9050610f71828460000161197f90919063ffffffff16565b610f87818460010161197f90919063ffffffff16565b7f7d84a6263ae0d98d3329bd7b46bb4e8d6f98cd35a7adb45c274c8b7fd5ebd5e084610fb1611906565b8b8b8d5167ffffffffffffffff811115610ff4577f4e487b7100000000000000000000000000000000000000000000000000000000600052604160045260246000fd5b60405190808252806020026020018201604052801561102757816020015b60608152602001906001900390816110125790505b508c88888e604051611041999897969594939291906136b5565b60405180910390a183945050505050949350505050565b600090565b60006110ba600160008481526020019081526020016000206001016040518060200160405290816000820160009054906101000a900467ffffffffffffffff1667ffffffffffffffff1667ffffffffffffffff1681525050611464565b67ffffffffffffffff169050919050565b6110d36106a3565b73ffffffffffffffffffffffffffffffffffffffff166110f1611906565b73ffffffffffffffffffffffffffffffffffffffff1614611147576040517f08c379a000000000000000000000000000000000000000000000000000000000815260040161113e9061347a565b60405180910390fd5b6111968483838080601f016020809104026020016040519081016040528093929190818152602001838380828437600081840152601f19601f82011690508083019250505050505050856119ae565b5050505050565b6000848484846040516020016111b694939291906132a3565b6040516020818303038152906040528051906020012060001c9050949350505050565b60606040518060400160405280602081526020017f737570706f72743d627261766f2671756f72756d3d666f722c6162737461696e815250905090565b7f150214d74d59b7d1e90c73fc22ef3d991dd0a76b046543d4d80ab92d2a50328f81565b600061124683836119dd565b905092915050565b6000919050565b7f000000000000000000000000000000000000000000000000000000000000000081565b60007f01ffc9a7000000000000000000000000000000000000000000000000000000007bffffffffffffffffffffffffffffffffffffffffffffffffffffffff1916827bffffffffffffffffffffffffffffffffffffffffffffffffffffffff1916149050919050565b600060405180606001604052806027815260200161434760279139905060005b855181101561145b57600080878381518110611348577f4e487b7100000000000000000000000000000000000000000000000000000000600052603260045260246000fd5b602002602001015173ffffffffffffffffffffffffffffffffffffffff1687848151811061139f577f4e487b7100000000000000000000000000000000000000000000000000000000600052603260045260246000fd5b60200260200101518785815181106113e0577f4e487b7100000000000000000000000000000000000000000000000000000000600052603260045260246000fd5b60200260200101516040516113f5919061322c565b60006040518083038185875af1925050503d8060008114611432576040519150601f19603f3d011682016040523d82523d6000602084013e611437565b606091505b5091509150611447828286611aa0565b5050508061145490613cb5565b9050611303565b50505050505050565b600081600001519050919050565b600061148561147f611b07565b83611c21565b9050919050565b600080600061149d87878787611c54565b915091506114aa81611d61565b8192505050949350505050565b60008060016000878152602001908152602001600020905060016007811115611509577f4e487b7100000000000000000000000000000000000000000000000000000000600052602160045260246000fd5b61151287610a8c565b600781111561154a577f4e487b7100000000000000000000000000000000000000000000000000000000600052602160045260246000fd5b1461158a576040517f08c379a00000000000000000000000000000000000000000000000000000000081526004016115819061355a565b60405180910390fd5b60006115e8866115d9846000016040518060200160405290816000820160009054906101000a900467ffffffffffffffff1667ffffffffffffffff1667ffffffffffffffff1681525050611464565b67ffffffffffffffff1661123a565b90506115f6878787846120b2565b8573ffffffffffffffffffffffffffffffffffffffff167fb8e138887d0aa13bab447e82de9d5c1777041ecd21ca36ba824ff1e6c07ddda488878488604051611642949392919061379c565b60405180910390a28092505050949350505050565b600080600260008481526020019081526020016000209050806002015481600101546116839190613a36565b61169461168f8561098b565b61124e565b1115915050919050565b6000806002600084815260200190815260200160002090508060000154816001015411915050919050565b6000806116d88686868661119d565b905060006116e582610a8c565b905060026007811115611721577f4e487b7100000000000000000000000000000000000000000000000000000000600052602160045260246000fd5b81600781111561175a577f4e487b7100000000000000000000000000000000000000000000000000000000600052602160045260246000fd5b141580156117d957506006600781111561179d577f4e487b7100000000000000000000000000000000000000000000000000000000600052602160045260246000fd5b8160078111156117d6577f4e487b7100000000000000000000000000000000000000000000000000000000600052602160045260246000fd5b14155b80156118555750600780811115611819577f4e487b7100000000000000000000000000000000000000000000000000000000600052602160045260246000fd5b816007811115611852577f4e487b7100000000000000000000000000000000000000000000000000000000600052602160045260246000fd5b14155b611894576040517f08c379a000000000000000000000000000000000000000000000000000000000815260040161188b906135da565b60405180910390fd5b600180600084815260200190815260200160002060020160016101000a81548160ff0219169083151502179055507f789cf55be980739dad1d0699b93b58e806b51c9d96619bfa8fe0a28abaa7b30c826040516118f1919061369a565b60405180910390a18192505050949350505050565b600033905090565b600080826000015167ffffffffffffffff16149050919050565b600067ffffffffffffffff8016821115611977576040517f08c379a000000000000000000000000000000000000000000000000000000000815260040161196e906135ba565b60405180910390fd5b819050919050565b808260000160006101000a81548167ffffffffffffffff021916908367ffffffffffffffff1602179055505050565b60606119d484848460405180606001604052806029815260200161436e6029913961232a565b90509392505050565b60007f000000000000000000000000000000000000000000000000000000000000000073ffffffffffffffffffffffffffffffffffffffff1663782d6fe184846040518363ffffffff1660e01b8152600401611a3a92919061327a565b60206040518083038186803b158015611a5257600080fd5b505afa158015611a66573d6000803e3d6000fd5b505050506040513d601f19601f82011682018060405250810190611a8a9190612be3565b6bffffffffffffffffffffffff16905092915050565b60608315611ab057829050611b00565b600083511115611ac35782518084602001fd5b816040517f08c379a0000000000000000000000000000000000000000000000000000000008152600401611af79190613438565b60405180910390fd5b9392505050565b60007f000000000000000000000000000000000000000000000000000000000000000073ffffffffffffffffffffffffffffffffffffffff163073ffffffffffffffffffffffffffffffffffffffff16148015611b8357507f000000000000000000000000000000000000000000000000000000000000000046145b15611bb0577f00000000000000000000000000000000000000000000000000000000000000009050611c1e565b611c1b7f00000000000000000000000000000000000000000000000000000000000000007f00000000000000000000000000000000000000000000000000000000000000007f000000000000000000000000000000000000000000000000000000000000000061243e565b90505b90565b60008282604051602001611c36929190613243565b60405160208183030381529060405280519060200120905092915050565b6000807f7fffffffffffffffffffffffffffffff5d576e7357a4501ddfe92f46681b20a08360001c1115611c8f576000600391509150611d58565b601b8560ff1614158015611ca75750601c8560ff1614155b15611cb9576000600491509150611d58565b600060018787878760405160008152602001604052604051611cde94939291906133bd565b6020604051602081039080840390855afa158015611d00573d6000803e3d6000fd5b505050602060405103519050600073ffffffffffffffffffffffffffffffffffffffff168173ffffffffffffffffffffffffffffffffffffffff161415611d4f57600060019250925050611d58565b80600092509250505b94509492505050565b60006004811115611d9b577f4e487b7100000000000000000000000000000000000000000000000000000000600052602160045260246000fd5b816004811115611dd4577f4e487b7100000000000000000000000000000000000000000000000000000000600052602160045260246000fd5b1415611ddf576120af565b60016004811115611e19577f4e487b7100000000000000000000000000000000000000000000000000000000600052602160045260246000fd5b816004811115611e52577f4e487b7100000000000000000000000000000000000000000000000000000000600052602160045260246000fd5b1415611e93576040517f08c379a0000000000000000000000000000000000000000000000000000000008152600401611e8a9061345a565b60405180910390fd5b60026004811115611ecd577f4e487b7100000000000000000000000000000000000000000000000000000000600052602160045260246000fd5b816004811115611f06577f4e487b7100000000000000000000000000000000000000000000000000000000600052602160045260246000fd5b1415611f47576040517f08c379a0000000000000000000000000000000000000000000000000000000008152600401611f3e906134ba565b60405180910390fd5b60036004811115611f81577f4e487b7100000000000000000000000000000000000000000000000000000000600052602160045260246000fd5b816004811115611fba577f4e487b7100000000000000000000000000000000000000000000000000000000600052602160045260246000fd5b1415611ffb576040517f08c379a0000000000000000000000000000000000000000000000000000000008152600401611ff2906134fa565b60405180910390fd5b600480811115612034577f4e487b7100000000000000000000000000000000000000000000000000000000600052602160045260246000fd5b81600481111561206d577f4e487b7100000000000000000000000000000000000000000000000000000000600052602160045260246000fd5b14156120ae576040517f08c379a00000000000000000000000000000000000000000000000000000000081526004016120a59061359a565b60405180910390fd5b5b50565b60006002600086815260200190815260200160002090508060030160008573ffffffffffffffffffffffffffffffffffffffff1673ffffffffffffffffffffffffffffffffffffffff16815260200190815260200160002060009054906101000a900460ff1615612158576040517f08c379a000000000000000000000000000000000000000000000000000000000815260040161214f9061351a565b60405180910390fd5b60018160030160008673ffffffffffffffffffffffffffffffffffffffff1673ffffffffffffffffffffffffffffffffffffffff16815260200190815260200160002060006101000a81548160ff021916908315150217905550600060028111156121ec577f4e487b7100000000000000000000000000000000000000000000000000000000600052602160045260246000fd5b60ff168360ff161415612219578181600001600082825461220d9190613a36565b92505081905550612323565b60016002811115612253577f4e487b7100000000000000000000000000000000000000000000000000000000600052602160045260246000fd5b60ff168360ff16141561228057818160010160008282546122749190613a36565b92505081905550612322565b6002808111156122b9577f4e487b7100000000000000000000000000000000000000000000000000000000600052602160045260246000fd5b60ff168360ff1614156122e657818160020160008282546122da9190613a36565b92505081905550612321565b6040517f08c379a00000000000000000000000000000000000000000000000000000000081526004016123189061363a565b60405180910390fd5b5b5b5050505050565b60608247101561236f576040517f08c379a00000000000000000000000000000000000000000000000000000000081526004016123669061353a565b60405180910390fd5b61237885612478565b6123b7576040517f08c379a00000000000000000000000000000000000000000000000000000000081526004016123ae9061367a565b60405180910390fd5b6000808673ffffffffffffffffffffffffffffffffffffffff1685876040516123e0919061322c565b60006040518083038185875af1925050503d806000811461241d576040519150601f19603f3d011682016040523d82523d6000602084013e612422565b606091505b5091509150612432828286611aa0565b92505050949350505050565b60008383834630604051602001612459959493929190613333565b6040516020818303038152906040528051906020012090509392505050565b600080823b905060008111915050919050565b600061249e6124998461380d565b6137e8565b905080838252602082019050828560208602820111156124bd57600080fd5b60005b858110156124ed57816124d3888261263c565b8452602084019350602083019250506001810190506124c0565b5050509392505050565b600061250a61250584613839565b6137e8565b9050808382526020820190508260005b8581101561254a57813585016125308882612743565b84526020840193506020830192505060018101905061251a565b5050509392505050565b600061256761256284613865565b6137e8565b9050808382526020820190508285602086028201111561258657600080fd5b60005b858110156125b6578161259c88826127e1565b845260208401935060208301925050600181019050612589565b5050509392505050565b60006125d36125ce84613891565b6137e8565b9050828152602081018484840111156125eb57600080fd5b6125f6848285613c10565b509392505050565b600061261161260c846138c2565b6137e8565b90508281526020810184848401111561262957600080fd5b612634848285613c10565b509392505050565b60008135905061264b816142bc565b92915050565b600082601f83011261266257600080fd5b813561267284826020860161248b565b91505092915050565b600082601f83011261268c57600080fd5b813561269c8482602086016124f7565b91505092915050565b600082601f8301126126b657600080fd5b81356126c6848260208601612554565b91505092915050565b6000813590506126de816142d3565b92915050565b6000813590506126f3816142ea565b92915050565b60008083601f84011261270b57600080fd5b8235905067ffffffffffffffff81111561272457600080fd5b60208301915083600182028301111561273c57600080fd5b9250929050565b600082601f83011261275457600080fd5b81356127648482602086016125c0565b91505092915050565b60008083601f84011261277f57600080fd5b8235905067ffffffffffffffff81111561279857600080fd5b6020830191508360018202830111156127b057600080fd5b9250929050565b600082601f8301126127c857600080fd5b81356127d88482602086016125fe565b91505092915050565b6000813590506127f081614301565b92915050565b60008135905061280581614318565b92915050565b60008151905061281a8161432f565b92915050565b6000806040838503121561283357600080fd5b60006128418582860161263c565b9250506020612852858286016127e1565b9150509250929050565b6000806000806060858703121561287257600080fd5b60006128808782880161263c565b9450506020612891878288016127e1565b935050604085013567ffffffffffffffff8111156128ae57600080fd5b6128ba878288016126f9565b925092505092959194509250565b600080600080608085870312156128de57600080fd5b600085013567ffffffffffffffff8111156128f857600080fd5b61290487828801612651565b945050602085013567ffffffffffffffff81111561292157600080fd5b61292d878288016126a5565b935050604085013567ffffffffffffffff81111561294a57600080fd5b6129568782880161267b565b9250506060612967878288016126cf565b91505092959194509250565b6000806000806080858703121561298957600080fd5b600085013567ffffffffffffffff8111156129a357600080fd5b6129af87828801612651565b945050602085013567ffffffffffffffff8111156129cc57600080fd5b6129d8878288016126a5565b935050604085013567ffffffffffffffff8111156129f557600080fd5b612a018782880161267b565b925050606085013567ffffffffffffffff811115612a1e57600080fd5b612a2a878288016127b7565b91505092959194509250565b600060208284031215612a4857600080fd5b6000612a56848285016126e4565b91505092915050565b600060208284031215612a7157600080fd5b6000612a7f848285016127e1565b91505092915050565b60008060408385031215612a9b57600080fd5b6000612aa9858286016127e1565b9250506020612aba8582860161263c565b9150509250929050565b60008060408385031215612ad757600080fd5b6000612ae5858286016127e1565b9250506020612af6858286016127f6565b9150509250929050565b60008060008060608587031215612b1657600080fd5b6000612b24878288016127e1565b9450506020612b35878288016127f6565b935050604085013567ffffffffffffffff811115612b5257600080fd5b612b5e8782880161276d565b925092505092959194509250565b600080600080600060a08688031215612b8457600080fd5b6000612b92888289016127e1565b9550506020612ba3888289016127f6565b9450506040612bb4888289016127f6565b9350506060612bc5888289016126cf565b9250506080612bd6888289016126cf565b9150509295509295909350565b600060208284031215612bf557600080fd5b6000612c038482850161280b565b91505092915050565b6000612c188383612c64565b60208301905092915050565b6000612c308383612e5d565b905092915050565b6000612c448383612ee5565b905092915050565b6000612c5883836131f0565b60208301905092915050565b612c6d81613afe565b82525050565b612c7c81613afe565b82525050565b6000612c8d82613933565b612c9781856139a9565b9350612ca2836138f3565b8060005b83811015612cd3578151612cba8882612c0c565b9750612cc583613975565b925050600181019050612ca6565b5085935050505092915050565b6000612ceb8261393e565b612cf581856139ba565b935083602082028501612d0785613903565b8060005b85811015612d435784840389528151612d248582612c24565b9450612d2f83613982565b925060208a01995050600181019050612d0b565b50829750879550505050505092915050565b6000612d6082613949565b612d6a81856139cb565b935083602082028501612d7c85613913565b8060005b85811015612db85784840389528151612d998582612c38565b9450612da48361398f565b925060208a01995050600181019050612d80565b50829750879550505050505092915050565b6000612dd582613954565b612ddf81856139dc565b9350612dea83613923565b8060005b83811015612e1b578151612e028882612c4c565b9750612e0d8361399c565b925050600181019050612dee565b5085935050505092915050565b612e3181613b10565b82525050565b612e4081613b1c565b82525050565b612e57612e5282613b1c565b613cfe565b82525050565b6000612e688261395f565b612e7281856139ed565b9350612e82818560208601613c1f565b612e8b81613dc4565b840191505092915050565b6000612ea18261395f565b612eab81856139fe565b9350612ebb818560208601613c1f565b80840191505092915050565b612ed081613bc8565b82525050565b612edf81613bec565b82525050565b6000612ef08261396a565b612efa8185613a09565b9350612f0a818560208601613c1f565b612f1381613dc4565b840191505092915050565b6000612f298261396a565b612f338185613a1a565b9350612f43818560208601613c1f565b612f4c81613dc4565b840191505092915050565b6000612f64601883613a1a565b9150612f6f82613dd5565b602082019050919050565b6000612f87601883613a1a565b9150612f9282613dfe565b602082019050919050565b6000612faa604383613a1a565b9150612fb582613e27565b606082019050919050565b6000612fcd601f83613a1a565b9150612fd882613e9c565b602082019050919050565b6000612ff0600283613a2b565b9150612ffb82613ec5565b600282019050919050565b6000613013602183613a1a565b915061301e82613eee565b604082019050919050565b6000613036602283613a1a565b915061304182613f3d565b604082019050919050565b6000613059602783613a1a565b915061306482613f8c565b604082019050919050565b600061307c602683613a1a565b915061308782613fdb565b604082019050919050565b600061309f602383613a1a565b91506130aa8261402a565b604082019050919050565b60006130c2601883613a1a565b91506130cd82614079565b602082019050919050565b60006130e5602283613a1a565b91506130f0826140a2565b604082019050919050565b6000613108602683613a1a565b9150613113826140f1565b604082019050919050565b600061312b601d83613a1a565b915061313682614140565b602082019050919050565b600061314e602183613a1a565b915061315982614169565b604082019050919050565b6000613171601d83613a1a565b915061317c826141b8565b602082019050919050565b6000613194603583613a1a565b915061319f826141e1565b604082019050919050565b60006131b7602183613a1a565b91506131c282614230565b604082019050919050565b60006131da601d83613a1a565b91506131e58261427f565b602082019050919050565b6131f981613b85565b82525050565b61320881613b85565b82525050565b61321781613bfe565b82525050565b61322681613ba3565b82525050565b60006132388284612e96565b915081905092915050565b600061324e82612fe3565b915061325a8285612e46565b60208201915061326a8284612e46565b6020820191508190509392505050565b600060408201905061328f6000830185612c73565b61329c60208301846131ff565b9392505050565b600060808201905081810360008301526132bd8187612c82565b905081810360208301526132d18186612dca565b905081810360408301526132e58185612ce0565b90506132f46060830184612e37565b95945050505050565b60006020820190506133126000830184612e28565b92915050565b600060208201905061332d6000830184612e37565b92915050565b600060a0820190506133486000830188612e37565b6133556020830187612e37565b6133626040830186612e37565b61336f60608301856131ff565b61337c6080830184612c73565b9695505050505050565b600060608201905061339b6000830186612e37565b6133a860208301856131ff565b6133b5604083018461321d565b949350505050565b60006080820190506133d26000830187612e37565b6133df602083018661321d565b6133ec6040830185612e37565b6133f96060830184612e37565b95945050505050565b60006020820190506134176000830184612ec7565b92915050565b60006020820190506134326000830184612ed6565b92915050565b600060208201905081810360008301526134528184612f1e565b905092915050565b6000602082019050818103600083015261347381612f57565b9050919050565b6000602082019050818103600083015261349381612f7a565b9050919050565b600060208201905081810360008301526134b381612f9d565b9050919050565b600060208201905081810360008301526134d381612fc0565b9050919050565b600060208201905081810360008301526134f381613006565b9050919050565b6000602082019050818103600083015261351381613029565b9050919050565b600060208201905081810360008301526135338161304c565b9050919050565b600060208201905081810360008301526135538161306f565b9050919050565b6000602082019050818103600083015261357381613092565b9050919050565b60006020820190508181036000830152613593816130b5565b9050919050565b600060208201905081810360008301526135b3816130d8565b9050919050565b600060208201905081810360008301526135d3816130fb565b9050919050565b600060208201905081810360008301526135f38161311e565b9050919050565b6000602082019050818103600083015261361381613141565b9050919050565b6000602082019050818103600083015261363381613164565b9050919050565b6000602082019050818103600083015261365381613187565b9050919050565b60006020820190508181036000830152613673816131aa565b9050919050565b60006020820190508181036000830152613693816131cd565b9050919050565b60006020820190506136af60008301846131ff565b92915050565b6000610120820190506136cb600083018c6131ff565b6136d8602083018b612c73565b81810360408301526136ea818a612c82565b905081810360608301526136fe8189612dca565b905081810360808301526137128188612d55565b905081810360a08301526137268187612ce0565b905061373560c083018661320e565b61374260e083018561320e565b8181036101008301526137558184612f1e565b90509a9950505050505050505050565b600060608201905061377a60008301866131ff565b61378760208301856131ff565b61379460408301846131ff565b949350505050565b60006080820190506137b160008301876131ff565b6137be602083018661321d565b6137cb60408301856131ff565b81810360608301526137dd8184612f1e565b905095945050505050565b60006137f2613803565b90506137fe8282613c84565b919050565b6000604051905090565b600067ffffffffffffffff82111561382857613827613d95565b5b602082029050602081019050919050565b600067ffffffffffffffff82111561385457613853613d95565b5b602082029050602081019050919050565b600067ffffffffffffffff8211156138805761387f613d95565b5b602082029050602081019050919050565b600067ffffffffffffffff8211156138ac576138ab613d95565b5b6138b582613dc4565b9050602081019050919050565b600067ffffffffffffffff8211156138dd576138dc613d95565b5b6138e682613dc4565b9050602081019050919050565b6000819050602082019050919050565b6000819050602082019050919050565b6000819050602082019050919050565b6000819050602082019050919050565b600081519050919050565b600081519050919050565b600081519050919050565b600081519050919050565b600081519050919050565b600081519050919050565b6000602082019050919050565b6000602082019050919050565b6000602082019050919050565b6000602082019050919050565b600082825260208201905092915050565b600082825260208201905092915050565b600082825260208201905092915050565b600082825260208201905092915050565b600082825260208201905092915050565b600081905092915050565b600082825260208201905092915050565b600082825260208201905092915050565b600081905092915050565b6000613a4182613b85565b9150613a4c83613b85565b9250827fffffffffffffffffffffffffffffffffffffffffffffffffffffffffffffffff03821115613a8157613a80613d08565b5b828201905092915050565b6000613a9782613b8f565b9150613aa283613b8f565b92508267ffffffffffffffff03821115613abf57613abe613d08565b5b828201905092915050565b6000613ad582613b85565b9150613ae083613b85565b925082821015613af357613af2613d08565b5b828203905092915050565b6000613b0982613b65565b9050919050565b60008115159050919050565b6000819050919050565b60007fffffffff0000000000000000000000000000000000000000000000000000000082169050919050565b6000819050613b60826142a8565b919050565b600073ffffffffffffffffffffffffffffffffffffffff82169050919050565b6000819050919050565b600067ffffffffffffffff82169050919050565b600060ff82169050919050565b60006bffffffffffffffffffffffff82169050919050565b6000613bd382613bda565b9050919050565b6000613be582613b65565b9050919050565b6000613bf782613b52565b9050919050565b6000613c0982613b8f565b9050919050565b82818337600083830152505050565b60005b83811015613c3d578082015181840152602081019050613c22565b83811115613c4c576000848401525b50505050565b60006002820490506001821680613c6a57607f821691505b60208210811415613c7e57613c7d613d66565b5b50919050565b613c8d82613dc4565b810181811067ffffffffffffffff82111715613cac57613cab613d95565b5b80604052505050565b6000613cc082613b85565b91507fffffffffffffffffffffffffffffffffffffffffffffffffffffffffffffffff821415613cf357613cf2613d08565b5b600182019050919050565b6000819050919050565b7f4e487b7100000000000000000000000000000000000000000000000000000000600052601160045260246000fd5b7f4e487b7100000000000000000000000000000000000000000000000000000000600052602160045260246000fd5b7f4e487b7100000000000000000000000000000000000000000000000000000000600052602260045260246000fd5b7f4e487b7100000000000000000000000000000000000000000000000000000000600052604160045260246000fd5b6000601f19601f8301169050919050565b7f45434453413a20696e76616c6964207369676e61747572650000000000000000600082015250565b7f476f7665726e6f723a206f6e6c79476f7665726e616e63650000000000000000600082015250565b7f476f7665726e6f72436f6d7061746962696c697479427261766f3a2070726f7060008201527f6f73657220766f7465732062656c6f772070726f706f73616c2074687265736860208201527f6f6c640000000000000000000000000000000000000000000000000000000000604082015250565b7f45434453413a20696e76616c6964207369676e6174757265206c656e67746800600082015250565b7f1901000000000000000000000000000000000000000000000000000000000000600082015250565b7f476f7665726e6f723a20696e76616c69642070726f706f73616c206c656e677460008201527f6800000000000000000000000000000000000000000000000000000000000000602082015250565b7f45434453413a20696e76616c6964207369676e6174757265202773272076616c60008201527f7565000000000000000000000000000000000000000000000000000000000000602082015250565b7f476f7665726e6f72566f74696e6753696d706c653a20766f746520616c72656160008201527f6479206361737400000000000000000000000000000000000000000000000000602082015250565b7f416464726573733a20696e73756666696369656e742062616c616e636520666f60008201527f722063616c6c0000000000000000000000000000000000000000000000000000602082015250565b7f476f7665726e6f723a20766f7465206e6f742063757272656e746c792061637460008201527f6976650000000000000000000000000000000000000000000000000000000000602082015250565b7f476f7665726e6f723a20656d7074792070726f706f73616c0000000000000000600082015250565b7f45434453413a20696e76616c6964207369676e6174757265202776272076616c60008201527f7565000000000000000000000000000000000000000000000000000000000000602082015250565b7f53616665436173743a2076616c756520646f65736e27742066697420696e203660008201527f3420626974730000000000000000000000000000000000000000000000000000602082015250565b7f476f7665726e6f723a2070726f706f73616c206e6f7420616374697665000000600082015250565b7f476f7665726e6f723a2070726f706f73616c206e6f742073756363657373667560008201527f6c00000000000000000000000000000000000000000000000000000000000000602082015250565b7f476f7665726e6f723a20756e6b6e6f776e2070726f706f73616c206964000000600082015250565b7f476f7665726e6f72566f74696e6753696d706c653a20696e76616c696420766160008201527f6c756520666f7220656e756d20566f7465547970650000000000000000000000602082015250565b7f476f7665726e6f723a2070726f706f73616c20616c726561647920657869737460008201527f7300000000000000000000000000000000000000000000000000000000000000602082015250565b7f416464726573733a2063616c6c20746f206e6f6e2d636f6e7472616374000000600082015250565b600881106142b9576142b8613d37565b5b50565b6142c581613afe565b81146142d057600080fd5b50565b6142dc81613b1c565b81146142e757600080fd5b50565b6142f381613b26565b81146142fe57600080fd5b50565b61430a81613b85565b811461431557600080fd5b50565b61432181613ba3565b811461432c57600080fd5b50565b61433881613bb0565b811461434357600080fd5b5056fe476f7665726e6f723a2063616c6c20726576657274656420776974686f7574206d657373616765416464726573733a206c6f772d6c6576656c2063616c6c20776974682076616c7565206661696c6564a2646970667358221220042d4e92f51ee86230446e22942cf723732d7d0454b95f34f6f366a93cdfb71064736f6c63430008020033",
  "linkReferences": {},
  "deployedLinkReferences": {}
}