{
  "_format": "hh-sol-artifact-1",
  "contractName": "PullPaymentMock",
  "sourceName": "contracts/OZ/mocks/PullPaymentMock.sol",
  "abi": [
    {
      "inputs": [],
      "stateMutability": "payable",
      "type": "constructor"
    },
    {
      "inputs": [
        {
          "internalType": "address",
          "name": "dest",
          "type": "address"
        },
        {
          "internalType": "uint256",
          "name": "amount",
          "type": "uint256"
        }
      ],
      "name": "callTransfer",
      "outputs": [],
      "stateMutability": "nonpayable",
      "type": "function"
    },
    {
      "inputs": [
        {
          "internalType": "address",
          "name": "dest",
          "type": "address"
        }
      ],
      "name": "payments",
      "outputs": [
        {
          "internalType": "uint256",
          "name": "",
          "type": "uint256"
        }
      ],
      "stateMutability": "view",
      "type": "function"
    },
    {
      "inputs": [
        {
          "internalType": "address payable",
          "name": "payee",
          "type": "address"
        }
      ],
      "name": "withdrawPayments",
      "outputs": [],
      "stateMutability": "nonpayable",
      "type": "function"
    }
  ],
  "bytecode": "0x60a060405260405161001090610068565b604051809103906000f08015801561002c573d6000803e3d6000fd5b5073ffffffffffffffffffffffffffffffffffffffff1660808173ffffffffffffffffffffffffffffffffffffffff1660601b81525050610075565b610d098061057e83390190565b60805160601c6104de6100a06000396000818160b00152818161014e01526101fe01526104de6000f3fe608060405234801561001057600080fd5b50600436106100415760003560e01c806331b3eb9414610046578063d444099114610062578063e2982c211461007e575b600080fd5b610060600480360381019061005b9190610309565b6100ae565b005b61007c60048036038101906100779190610332565b61013c565b005b610098600480360381019061009391906102e0565b61014a565b6040516100a591906103fa565b60405180910390f35b7f000000000000000000000000000000000000000000000000000000000000000073ffffffffffffffffffffffffffffffffffffffff166351cff8d9826040518263ffffffff1660e01b815260040161010791906103df565b600060405180830381600087803b15801561012157600080fd5b505af1158015610135573d6000803e3d6000fd5b5050505050565b61014682826101fc565b5050565b60007f000000000000000000000000000000000000000000000000000000000000000073ffffffffffffffffffffffffffffffffffffffff1663e3a9db1a836040518263ffffffff1660e01b81526004016101a591906103c4565b60206040518083038186803b1580156101bd57600080fd5b505afa1580156101d1573d6000803e3d6000fd5b505050506040513d601f19601f820116820180604052508101906101f5919061036e565b9050919050565b7f000000000000000000000000000000000000000000000000000000000000000073ffffffffffffffffffffffffffffffffffffffff1663f340fa0182846040518363ffffffff1660e01b815260040161025691906103c4565b6000604051808303818588803b15801561026f57600080fd5b505af1158015610283573d6000803e3d6000fd5b50505050505050565b60008135905061029b81610463565b92915050565b6000813590506102b08161047a565b92915050565b6000813590506102c581610491565b92915050565b6000815190506102da81610491565b92915050565b6000602082840312156102f257600080fd5b60006103008482850161028c565b91505092915050565b60006020828403121561031b57600080fd5b6000610329848285016102a1565b91505092915050565b6000806040838503121561034557600080fd5b60006103538582860161028c565b9250506020610364858286016102b6565b9150509250929050565b60006020828403121561038057600080fd5b600061038e848285016102cb565b91505092915050565b6103a081610427565b82525050565b6103af81610415565b82525050565b6103be81610459565b82525050565b60006020820190506103d960008301846103a6565b92915050565b60006020820190506103f46000830184610397565b92915050565b600060208201905061040f60008301846103b5565b92915050565b600061042082610439565b9050919050565b600061043282610439565b9050919050565b600073ffffffffffffffffffffffffffffffffffffffff82169050919050565b6000819050919050565b61046c81610415565b811461047757600080fd5b50565b61048381610427565b811461048e57600080fd5b50565b61049a81610459565b81146104a557600080fd5b5056fea2646970667358221220266309a7d6fefc1ca1f780ef4995224956047890aae2797a85cef048da3d57fb64736f6c63430008020033608060405234801561001057600080fd5b5061002d61002261003260201b60201c565b61003a60201b60201c565b6100fe565b600033905090565b60008060009054906101000a900473ffffffffffffffffffffffffffffffffffffffff169050816000806101000a81548173ffffffffffffffffffffffffffffffffffffffff021916908373ffffffffffffffffffffffffffffffffffffffff1602179055508173ffffffffffffffffffffffffffffffffffffffff168173ffffffffffffffffffffffffffffffffffffffff167f8be0079c531659141344cd1fd0a4f28419497f9722a3daafe3b4186f6b6457e060405160405180910390a35050565b610bfc8061010d6000396000f3fe6080604052600436106100555760003560e01c806351cff8d91461005a578063715018a6146100835780638da5cb5b1461009a578063e3a9db1a146100c5578063f2fde38b14610102578063f340fa011461012b575b600080fd5b34801561006657600080fd5b50610081600480360381019061007c91906107f5565b610147565b005b34801561008f57600080fd5b506100986102c7565b005b3480156100a657600080fd5b506100af61034f565b6040516100bc9190610900565b60405180910390f35b3480156100d157600080fd5b506100ec60048036038101906100e791906107cc565b610378565b6040516100f9919061099b565b60405180910390f35b34801561010e57600080fd5b50610129600480360381019061012491906107cc565b6103c1565b005b610145600480360381019061014091906107cc565b6104b9565b005b61014f6105e2565b73ffffffffffffffffffffffffffffffffffffffff1661016d61034f565b73ffffffffffffffffffffffffffffffffffffffff16146101c3576040517f08c379a00000000000000000000000000000000000000000000000000000000081526004016101ba9061097b565b60405180910390fd5b6000600160008373ffffffffffffffffffffffffffffffffffffffff1673ffffffffffffffffffffffffffffffffffffffff1681526020019081526020016000205490506000600160008473ffffffffffffffffffffffffffffffffffffffff1673ffffffffffffffffffffffffffffffffffffffff16815260200190815260200160002081905550610275818373ffffffffffffffffffffffffffffffffffffffff166105ea90919063ffffffff16565b8173ffffffffffffffffffffffffffffffffffffffff167f7084f5476618d8e60b11ef0d7d3f06914655adb8793e28ff7f018d4c76d505d5826040516102bb919061099b565b60405180910390a25050565b6102cf6105e2565b73ffffffffffffffffffffffffffffffffffffffff166102ed61034f565b73ffffffffffffffffffffffffffffffffffffffff1614610343576040517f08c379a000000000000000000000000000000000000000000000000000000000815260040161033a9061097b565b60405180910390fd5b61034d60006106de565b565b60008060009054906101000a900473ffffffffffffffffffffffffffffffffffffffff16905090565b6000600160008373ffffffffffffffffffffffffffffffffffffffff1673ffffffffffffffffffffffffffffffffffffffff168152602001908152602001600020549050919050565b6103c96105e2565b73ffffffffffffffffffffffffffffffffffffffff166103e761034f565b73ffffffffffffffffffffffffffffffffffffffff161461043d576040517f08c379a00000000000000000000000000000000000000000000000000000000081526004016104349061097b565b60405180910390fd5b600073ffffffffffffffffffffffffffffffffffffffff168173ffffffffffffffffffffffffffffffffffffffff1614156104ad576040517f08c379a00000000000000000000000000000000000000000000000000000000081526004016104a49061091b565b60405180910390fd5b6104b6816106de565b50565b6104c16105e2565b73ffffffffffffffffffffffffffffffffffffffff166104df61034f565b73ffffffffffffffffffffffffffffffffffffffff1614610535576040517f08c379a000000000000000000000000000000000000000000000000000000000815260040161052c9061097b565b60405180910390fd5b600034905080600160008473ffffffffffffffffffffffffffffffffffffffff1673ffffffffffffffffffffffffffffffffffffffff168152602001908152602001600020600082825461058991906109d2565b925050819055508173ffffffffffffffffffffffffffffffffffffffff167f2da466a7b24304f47e87fa2e1e5a81b9831ce54fec19055ce277ca2f39ba42c4826040516105d6919061099b565b60405180910390a25050565b600033905090565b8047101561062d576040517f08c379a00000000000000000000000000000000000000000000000000000000081526004016106249061095b565b60405180910390fd5b60008273ffffffffffffffffffffffffffffffffffffffff1682604051610653906108eb565b60006040518083038185875af1925050503d8060008114610690576040519150601f19603f3d011682016040523d82523d6000602084013e610695565b606091505b50509050806106d9576040517f08c379a00000000000000000000000000000000000000000000000000000000081526004016106d09061093b565b60405180910390fd5b505050565b60008060009054906101000a900473ffffffffffffffffffffffffffffffffffffffff169050816000806101000a81548173ffffffffffffffffffffffffffffffffffffffff021916908373ffffffffffffffffffffffffffffffffffffffff1602179055508173ffffffffffffffffffffffffffffffffffffffff168173ffffffffffffffffffffffffffffffffffffffff167f8be0079c531659141344cd1fd0a4f28419497f9722a3daafe3b4186f6b6457e060405160405180910390a35050565b6000813590506107b181610b98565b92915050565b6000813590506107c681610baf565b92915050565b6000602082840312156107de57600080fd5b60006107ec848285016107a2565b91505092915050565b60006020828403121561080757600080fd5b6000610815848285016107b7565b91505092915050565b61082781610a28565b82525050565b600061083a6026836109c1565b915061084582610aa5565b604082019050919050565b600061085d603a836109c1565b915061086882610af4565b604082019050919050565b6000610880601d836109c1565b915061088b82610b43565b602082019050919050565b60006108a36020836109c1565b91506108ae82610b6c565b602082019050919050565b60006108c66000836109b6565b91506108d182610b95565b600082019050919050565b6108e581610a6c565b82525050565b60006108f6826108b9565b9150819050919050565b6000602082019050610915600083018461081e565b92915050565b600060208201905081810360008301526109348161082d565b9050919050565b6000602082019050818103600083015261095481610850565b9050919050565b6000602082019050818103600083015261097481610873565b9050919050565b6000602082019050818103600083015261099481610896565b9050919050565b60006020820190506109b060008301846108dc565b92915050565b600081905092915050565b600082825260208201905092915050565b60006109dd82610a6c565b91506109e883610a6c565b9250827fffffffffffffffffffffffffffffffffffffffffffffffffffffffffffffffff03821115610a1d57610a1c610a76565b5b828201905092915050565b6000610a3382610a4c565b9050919050565b6000610a4582610a4c565b9050919050565b600073ffffffffffffffffffffffffffffffffffffffff82169050919050565b6000819050919050565b7f4e487b7100000000000000000000000000000000000000000000000000000000600052601160045260246000fd5b7f4f776e61626c653a206e6577206f776e657220697320746865207a65726f206160008201527f6464726573730000000000000000000000000000000000000000000000000000602082015250565b7f416464726573733a20756e61626c6520746f2073656e642076616c75652c207260008201527f6563697069656e74206d61792068617665207265766572746564000000000000602082015250565b7f416464726573733a20696e73756666696369656e742062616c616e6365000000600082015250565b7f4f776e61626c653a2063616c6c6572206973206e6f7420746865206f776e6572600082015250565b50565b610ba181610a28565b8114610bac57600080fd5b50565b610bb881610a3a565b8114610bc357600080fd5b5056fea2646970667358221220ceb98870193ad4f5b107d45e62cb2cab35dac15ef3da150aebfc9e4d0c35dd5f64736f6c63430008020033",
  "linkReferences": {},
  "deployedLinkReferences": {}
}