{
  "_format": "hh-sol-artifact-1",
  "contractName": "MathMock",
  "sourceName": "contracts/OZ/mocks/MathMock.sol",
  "abi": [
    {
      "inputs": [
        {
          "internalType": "int256",
          "name": "n",
          "type": "int256"
        }
      ],
      "name": "abs",
      "outputs": [
        {
          "internalType": "uint256",
          "name": "",
          "type": "uint256"
        }
      ],
      "stateMutability": "pure",
      "type": "function"
    },
    {
      "inputs": [
        {
          "internalType": "uint256",
          "name": "a",
          "type": "uint256"
        },
        {
          "internalType": "uint256",
          "name": "b",
          "type": "uint256"
        }
      ],
      "name": "average",
      "outputs": [
        {
          "internalType": "uint256",
          "name": "",
          "type": "uint256"
        }
      ],
      "stateMutability": "pure",
      "type": "function"
    },
    {
      "inputs": [
        {
          "internalType": "uint256",
          "name": "a",
          "type": "uint256"
        },
        {
          "internalType": "uint256",
          "name": "b",
          "type": "uint256"
        }
      ],
      "name": "ceilDiv",
      "outputs": [
        {
          "internalType": "uint256",
          "name": "",
          "type": "uint256"
        }
      ],
      "stateMutability": "pure",
      "type": "function"
    },
    {
      "inputs": [
        {
          "internalType": "uint256",
          "name": "a",
          "type": "uint256"
        },
        {
          "internalType": "uint256",
          "name": "b",
          "type": "uint256"
        }
      ],
      "name": "max",
      "outputs": [
        {
          "internalType": "uint256",
          "name": "",
          "type": "uint256"
        }
      ],
      "stateMutability": "pure",
      "type": "function"
    },
    {
      "inputs": [
        {
          "internalType": "uint256",
          "name": "a",
          "type": "uint256"
        },
        {
          "internalType": "uint256",
          "name": "b",
          "type": "uint256"
        }
      ],
      "name": "min",
      "outputs": [
        {
          "internalType": "uint256",
          "name": "",
          "type": "uint256"
        }
      ],
      "stateMutability": "pure",
      "type": "function"
    }
  ],
  "bytecode": "0x608060405234801561001057600080fd5b506104a9806100206000396000f3fe608060405234801561001057600080fd5b50600436106100575760003560e01c80631b5ac4b51461005c5780632b7423ab1461008c5780636d5433e6146100bc5780637ae2b5c7146100ec5780639cb353271461011c575b600080fd5b6100766004803603810190610071919061028c565b61014c565b6040516100839190610300565b60405180910390f35b6100a660048036038101906100a191906102b5565b61015e565b6040516100b39190610300565b60405180910390f35b6100d660048036038101906100d191906102b5565b610172565b6040516100e39190610300565b60405180910390f35b610106600480360381019061010191906102b5565b610186565b6040516101139190610300565b60405180910390f35b610136600480360381019061013191906102b5565b61019a565b6040516101439190610300565b60405180910390f35b6000610157826101ae565b9050919050565b600061016a83836101ca565b905092915050565b600061017e83836101f0565b905092915050565b6000610192838361020a565b905092915050565b60006101a68383610223565b905092915050565b6000808212156101c157816000036101c3565b815b9050919050565b600060028284186101db9190610371565b8284166101e8919061031b565b905092915050565b6000818310156102005781610202565b825b905092915050565b6000818310610219578161021b565b825b905092915050565b600080828461023291906103b6565b1461023e576001610241565b60005b60ff1682846102509190610371565b61025a919061031b565b905092915050565b60008135905061027181610445565b92915050565b6000813590506102868161045c565b92915050565b60006020828403121561029e57600080fd5b60006102ac84828501610262565b91505092915050565b600080604083850312156102c857600080fd5b60006102d685828601610277565b92505060206102e785828601610277565b9150509250929050565b6102fa816103ac565b82525050565b600060208201905061031560008301846102f1565b92915050565b6000610326826103ac565b9150610331836103ac565b9250827fffffffffffffffffffffffffffffffffffffffffffffffffffffffffffffffff03821115610366576103656103e7565b5b828201905092915050565b600061037c826103ac565b9150610387836103ac565b92508261039757610396610416565b5b828204905092915050565b6000819050919050565b6000819050919050565b60006103c1826103ac565b91506103cc836103ac565b9250826103dc576103db610416565b5b828206905092915050565b7f4e487b7100000000000000000000000000000000000000000000000000000000600052601160045260246000fd5b7f4e487b7100000000000000000000000000000000000000000000000000000000600052601260045260246000fd5b61044e816103a2565b811461045957600080fd5b50565b610465816103ac565b811461047057600080fd5b5056fea2646970667358221220b697b7b0d41db42c828187222e3d880f64919b696d3db5e6eb140cdde6a6b1d264736f6c63430008020033",
  "linkReferences": {},
  "deployedLinkReferences": {}
}