{
  "_format": "hh-sol-artifact-1",
  "contractName": "ECDSAMock",
  "sourceName": "contracts/OZ/mocks/ECDSAMock.sol",
  "abi": [
    {
      "inputs": [
        {
          "internalType": "bytes32",
          "name": "hash",
          "type": "bytes32"
        },
        {
          "internalType": "bytes",
          "name": "signature",
          "type": "bytes"
        }
      ],
      "name": "recover",
      "outputs": [
        {
          "internalType": "address",
          "name": "",
          "type": "address"
        }
      ],
      "stateMutability": "pure",
      "type": "function"
    },
    {
      "inputs": [
        {
          "internalType": "bytes32",
          "name": "hash",
          "type": "bytes32"
        },
        {
          "internalType": "bytes32",
          "name": "r",
          "type": "bytes32"
        },
        {
          "internalType": "bytes32",
          "name": "vs",
          "type": "bytes32"
        }
      ],
      "name": "recover_r_vs",
      "outputs": [
        {
          "internalType": "address",
          "name": "",
          "type": "address"
        }
      ],
      "stateMutability": "pure",
      "type": "function"
    },
    {
      "inputs": [
        {
          "internalType": "bytes32",
          "name": "hash",
          "type": "bytes32"
        },
        {
          "internalType": "uint8",
          "name": "v",
          "type": "uint8"
        },
        {
          "internalType": "bytes32",
          "name": "r",
          "type": "bytes32"
        },
        {
          "internalType": "bytes32",
          "name": "s",
          "type": "bytes32"
        }
      ],
      "name": "recover_v_r_s",
      "outputs": [
        {
          "internalType": "address",
          "name": "",
          "type": "address"
        }
      ],
      "stateMutability": "pure",
      "type": "function"
    },
    {
      "inputs": [
        {
          "internalType": "bytes32",
          "name": "hash",
          "type": "bytes32"
        }
      ],
      "name": "toEthSignedMessageHash",
      "outputs": [
        {
          "internalType": "bytes32",
          "name": "",
          "type": "bytes32"
        }
      ],
      "stateMutability": "pure",
      "type": "function"
    },
    {
      "inputs": [
        {
          "internalType": "bytes",
          "name": "s",
          "type": "bytes"
        }
      ],
      "name": "toEthSignedMessageHash",
      "outputs": [
        {
          "internalType": "bytes32",
          "name": "",
          "type": "bytes32"
        }
      ],
      "stateMutability": "pure",
      "type": "function"
    }
  ],
  "bytecode": "0x608060405234801561001057600080fd5b50611338806100206000396000f3fe608060405234801561001057600080fd5b50600436106100575760003560e01c8063126442731461005c57806319045a251461008c578063918a15cf146100bc57806392bd87b5146100ec578063a005410b1461011c575b600080fd5b61007660048036038101906100719190610af0565b61014c565b6040516100839190610d61565b60405180910390f35b6100a660048036038101906100a19190610a9c565b61016f565b6040516100b39190610d61565b60405180910390f35b6100d660048036038101906100d19190610a24565b61018c565b6040516100e39190610d7c565b60405180910390f35b61010660048036038101906101019190610b53565b61019e565b6040516101139190610d7c565b60405180910390f35b61013660048036038101906101319190610a4d565b6101b0565b6040516101439190610d61565b60405180910390f35b6000610165848484886101d0909392919063ffffffff16565b9050949350505050565b600061018482846101fb90919063ffffffff16565b905092915050565b600061019782610222565b9050919050565b60006101a982610252565b9050919050565b60006101c783838661028d9092919063ffffffff16565b90509392505050565b60008060006101e1878787876102b6565b915091506101ee816103c3565b8192505050949350505050565b600080600061020a8585610714565b91509150610217816103c3565b819250505092915050565b6000816040516020016102359190610d0c565b604051602081830303815290604052805190602001209050919050565b600061025e8251610797565b82604051602001610270929190610d32565b604051602081830303815290604052805190602001209050919050565b600080600061029d868686610944565b915091506102aa816103c3565b81925050509392505050565b6000807f7fffffffffffffffffffffffffffffff5d576e7357a4501ddfe92f46681b20a08360001c11156102f15760006003915091506103ba565b601b8560ff16141580156103095750601c8560ff1614155b1561031b5760006004915091506103ba565b6000600187878787604051600081526020016040526040516103409493929190610d97565b6020604051602081039080840390855afa158015610362573d6000803e3d6000fd5b505050602060405103519050600073ffffffffffffffffffffffffffffffffffffffff168173ffffffffffffffffffffffffffffffffffffffff1614156103b1576000600192509250506103ba565b80600092509250505b94509492505050565b600060048111156103fd577f4e487b7100000000000000000000000000000000000000000000000000000000600052602160045260246000fd5b816004811115610436577f4e487b7100000000000000000000000000000000000000000000000000000000600052602160045260246000fd5b141561044157610711565b6001600481111561047b577f4e487b7100000000000000000000000000000000000000000000000000000000600052602160045260246000fd5b8160048111156104b4577f4e487b7100000000000000000000000000000000000000000000000000000000600052602160045260246000fd5b14156104f5576040517f08c379a00000000000000000000000000000000000000000000000000000000081526004016104ec90610ddc565b60405180910390fd5b6002600481111561052f577f4e487b7100000000000000000000000000000000000000000000000000000000600052602160045260246000fd5b816004811115610568577f4e487b7100000000000000000000000000000000000000000000000000000000600052602160045260246000fd5b14156105a9576040517f08c379a00000000000000000000000000000000000000000000000000000000081526004016105a090610dfc565b60405180910390fd5b600360048111156105e3577f4e487b7100000000000000000000000000000000000000000000000000000000600052602160045260246000fd5b81600481111561061c577f4e487b7100000000000000000000000000000000000000000000000000000000600052602160045260246000fd5b141561065d576040517f08c379a000000000000000000000000000000000000000000000000000000000815260040161065490610e1c565b60405180910390fd5b600480811115610696577f4e487b7100000000000000000000000000000000000000000000000000000000600052602160045260246000fd5b8160048111156106cf577f4e487b7100000000000000000000000000000000000000000000000000000000600052602160045260246000fd5b1415610710576040517f08c379a000000000000000000000000000000000000000000000000000000000815260040161070790610e3c565b60405180910390fd5b5b50565b6000806041835114156107565760008060006020860151925060408601519150606086015160001a905061074a878285856102b6565b94509450505050610790565b60408351141561078757600080602085015191506040850151905061077c868383610944565b935093505050610790565b60006002915091505b9250929050565b606060008214156107df576040518060400160405280600181526020017f3000000000000000000000000000000000000000000000000000000000000000815250905061093f565b600082905060005b600082146108115780806107fa90611070565b915050600a8261080a9190610f45565b91506107e7565b60008167ffffffffffffffff811115610853577f4e487b7100000000000000000000000000000000000000000000000000000000600052604160045260246000fd5b6040519080825280601f01601f1916602001820160405280156108855781602001600182028036833780820191505090505b5090505b600085146109385760018261089e9190610f76565b9150600a856108ad91906110c3565b60306108b99190610eef565b60f81b8183815181106108f5577f4e487b7100000000000000000000000000000000000000000000000000000000600052603260045260246000fd5b60200101907effffffffffffffffffffffffffffffffffffffffffffffffffffffffffffff1916908160001a905350600a856109319190610f45565b9450610889565b8093505050505b919050565b6000806000807f7fffffffffffffffffffffffffffffffffffffffffffffffffffffffffffffff85169150601b8560ff1c019050610984878288856102b6565b935093505050935093915050565b60006109a56109a084610e81565b610e5c565b9050828152602081018484840111156109bd57600080fd5b6109c8848285610ffd565b509392505050565b6000813590506109df816112d4565b92915050565b600082601f8301126109f657600080fd5b8135610a06848260208601610992565b91505092915050565b600081359050610a1e816112eb565b92915050565b600060208284031215610a3657600080fd5b6000610a44848285016109d0565b91505092915050565b600080600060608486031215610a6257600080fd5b6000610a70868287016109d0565b9350506020610a81868287016109d0565b9250506040610a92868287016109d0565b9150509250925092565b60008060408385031215610aaf57600080fd5b6000610abd858286016109d0565b925050602083013567ffffffffffffffff811115610ada57600080fd5b610ae6858286016109e5565b9150509250929050565b60008060008060808587031215610b0657600080fd5b6000610b14878288016109d0565b9450506020610b2587828801610a0f565b9350506040610b36878288016109d0565b9250506060610b47878288016109d0565b91505092959194509250565b600060208284031215610b6557600080fd5b600082013567ffffffffffffffff811115610b7f57600080fd5b610b8b848285016109e5565b91505092915050565b610b9d81610faa565b82525050565b610bac81610fbc565b82525050565b610bc3610bbe82610fbc565b6110b9565b82525050565b6000610bd482610eb2565b610bde8185610ec8565b9350610bee81856020860161100c565b80840191505092915050565b6000610c0582610ebd565b610c0f8185610ee4565b9350610c1f81856020860161100c565b80840191505092915050565b6000610c38601883610ed3565b9150610c4382611192565b602082019050919050565b6000610c5b601f83610ed3565b9150610c66826111bb565b602082019050919050565b6000610c7e601c83610ee4565b9150610c89826111e4565b601c82019050919050565b6000610ca1602283610ed3565b9150610cac8261120d565b604082019050919050565b6000610cc4602283610ed3565b9150610ccf8261125c565b604082019050919050565b6000610ce7601a83610ee4565b9150610cf2826112ab565b601a82019050919050565b610d0681610ff0565b82525050565b6000610d1782610c71565b9150610d238284610bb2565b60208201915081905092915050565b6000610d3d82610cda565b9150610d498285610bfa565b9150610d558284610bc9565b91508190509392505050565b6000602082019050610d766000830184610b94565b92915050565b6000602082019050610d916000830184610ba3565b92915050565b6000608082019050610dac6000830187610ba3565b610db96020830186610cfd565b610dc66040830185610ba3565b610dd36060830184610ba3565b95945050505050565b60006020820190508181036000830152610df581610c2b565b9050919050565b60006020820190508181036000830152610e1581610c4e565b9050919050565b60006020820190508181036000830152610e3581610c94565b9050919050565b60006020820190508181036000830152610e5581610cb7565b9050919050565b6000610e66610e77565b9050610e72828261103f565b919050565b6000604051905090565b600067ffffffffffffffff821115610e9c57610e9b611152565b5b610ea582611181565b9050602081019050919050565b600081519050919050565b600081519050919050565b600081905092915050565b600082825260208201905092915050565b600081905092915050565b6000610efa82610fe6565b9150610f0583610fe6565b9250827fffffffffffffffffffffffffffffffffffffffffffffffffffffffffffffffff03821115610f3a57610f396110f4565b5b828201905092915050565b6000610f5082610fe6565b9150610f5b83610fe6565b925082610f6b57610f6a611123565b5b828204905092915050565b6000610f8182610fe6565b9150610f8c83610fe6565b925082821015610f9f57610f9e6110f4565b5b828203905092915050565b6000610fb582610fc6565b9050919050565b6000819050919050565b600073ffffffffffffffffffffffffffffffffffffffff82169050919050565b6000819050919050565b600060ff82169050919050565b82818337600083830152505050565b60005b8381101561102a57808201518184015260208101905061100f565b83811115611039576000848401525b50505050565b61104882611181565b810181811067ffffffffffffffff8211171561106757611066611152565b5b80604052505050565b600061107b82610fe6565b91507fffffffffffffffffffffffffffffffffffffffffffffffffffffffffffffffff8214156110ae576110ad6110f4565b5b600182019050919050565b6000819050919050565b60006110ce82610fe6565b91506110d983610fe6565b9250826110e9576110e8611123565b5b828206905092915050565b7f4e487b7100000000000000000000000000000000000000000000000000000000600052601160045260246000fd5b7f4e487b7100000000000000000000000000000000000000000000000000000000600052601260045260246000fd5b7f4e487b7100000000000000000000000000000000000000000000000000000000600052604160045260246000fd5b6000601f19601f8301169050919050565b7f45434453413a20696e76616c6964207369676e61747572650000000000000000600082015250565b7f45434453413a20696e76616c6964207369676e6174757265206c656e67746800600082015250565b7f19457468657265756d205369676e6564204d6573736167653a0a333200000000600082015250565b7f45434453413a20696e76616c6964207369676e6174757265202773272076616c60008201527f7565000000000000000000000000000000000000000000000000000000000000602082015250565b7f45434453413a20696e76616c6964207369676e6174757265202776272076616c60008201527f7565000000000000000000000000000000000000000000000000000000000000602082015250565b7f19457468657265756d205369676e6564204d6573736167653a0a000000000000600082015250565b6112dd81610fbc565b81146112e857600080fd5b50565b6112f481610ff0565b81146112ff57600080fd5b5056fea2646970667358221220bf3293d59bcff0a84ead555f354b581234fc9e816b1ae0ce3eeb21bf88b7fc4064736f6c63430008020033",
  "linkReferences": {},
  "deployedLinkReferences": {}
}