{
  "_format": "hh-sol-artifact-1",
  "contractName": "ERC1155BurnableMock",
  "sourceName": "contracts/OZ/mocks/ERC1155BurnableMock.sol",
  "abi": [
    {
      "inputs": [
        {
          "internalType": "string",
          "name": "uri",
          "type": "string"
        }
      ],
      "stateMutability": "nonpayable",
      "type": "constructor"
    },
    {
      "anonymous": false,
      "inputs": [
        {
          "indexed": true,
          "internalType": "address",
          "name": "account",
          "type": "address"
        },
        {
          "indexed": true,
          "internalType": "address",
          "name": "operator",
          "type": "address"
        },
        {
          "indexed": false,
          "internalType": "bool",
          "name": "approved",
          "type": "bool"
        }
      ],
      "name": "ApprovalForAll",
      "type": "event"
    },
    {
      "anonymous": false,
      "inputs": [
        {
          "indexed": true,
          "internalType": "address",
          "name": "operator",
          "type": "address"
        },
        {
          "indexed": true,
          "internalType": "address",
          "name": "from",
          "type": "address"
        },
        {
          "indexed": true,
          "internalType": "address",
          "name": "to",
          "type": "address"
        },
        {
          "indexed": false,
          "internalType": "uint256[]",
          "name": "ids",
          "type": "uint256[]"
        },
        {
          "indexed": false,
          "internalType": "uint256[]",
          "name": "values",
          "type": "uint256[]"
        }
      ],
      "name": "TransferBatch",
      "type": "event"
    },
    {
      "anonymous": false,
      "inputs": [
        {
          "indexed": true,
          "internalType": "address",
          "name": "operator",
          "type": "address"
        },
        {
          "indexed": true,
          "internalType": "address",
          "name": "from",
          "type": "address"
        },
        {
          "indexed": true,
          "internalType": "address",
          "name": "to",
          "type": "address"
        },
        {
          "indexed": false,
          "internalType": "uint256",
          "name": "id",
          "type": "uint256"
        },
        {
          "indexed": false,
          "internalType": "uint256",
          "name": "value",
          "type": "uint256"
        }
      ],
      "name": "TransferSingle",
      "type": "event"
    },
    {
      "anonymous": false,
      "inputs": [
        {
          "indexed": false,
          "internalType": "string",
          "name": "value",
          "type": "string"
        },
        {
          "indexed": true,
          "internalType": "uint256",
          "name": "id",
          "type": "uint256"
        }
      ],
      "name": "URI",
      "type": "event"
    },
    {
      "inputs": [
        {
          "internalType": "address",
          "name": "account",
          "type": "address"
        },
        {
          "internalType": "uint256",
          "name": "id",
          "type": "uint256"
        }
      ],
      "name": "balanceOf",
      "outputs": [
        {
          "internalType": "uint256",
          "name": "",
          "type": "uint256"
        }
      ],
      "stateMutability": "view",
      "type": "function"
    },
    {
      "inputs": [
        {
          "internalType": "address[]",
          "name": "accounts",
          "type": "address[]"
        },
        {
          "internalType": "uint256[]",
          "name": "ids",
          "type": "uint256[]"
        }
      ],
      "name": "balanceOfBatch",
      "outputs": [
        {
          "internalType": "uint256[]",
          "name": "",
          "type": "uint256[]"
        }
      ],
      "stateMutability": "view",
      "type": "function"
    },
    {
      "inputs": [
        {
          "internalType": "address",
          "name": "account",
          "type": "address"
        },
        {
          "internalType": "uint256",
          "name": "id",
          "type": "uint256"
        },
        {
          "internalType": "uint256",
          "name": "value",
          "type": "uint256"
        }
      ],
      "name": "burn",
      "outputs": [],
      "stateMutability": "nonpayable",
      "type": "function"
    },
    {
      "inputs": [
        {
          "internalType": "address",
          "name": "account",
          "type": "address"
        },
        {
          "internalType": "uint256[]",
          "name": "ids",
          "type": "uint256[]"
        },
        {
          "internalType": "uint256[]",
          "name": "values",
          "type": "uint256[]"
        }
      ],
      "name": "burnBatch",
      "outputs": [],
      "stateMutability": "nonpayable",
      "type": "function"
    },
    {
      "inputs": [
        {
          "internalType": "address",
          "name": "account",
          "type": "address"
        },
        {
          "internalType": "address",
          "name": "operator",
          "type": "address"
        }
      ],
      "name": "isApprovedForAll",
      "outputs": [
        {
          "internalType": "bool",
          "name": "",
          "type": "bool"
        }
      ],
      "stateMutability": "view",
      "type": "function"
    },
    {
      "inputs": [
        {
          "internalType": "address",
          "name": "to",
          "type": "address"
        },
        {
          "internalType": "uint256",
          "name": "id",
          "type": "uint256"
        },
        {
          "internalType": "uint256",
          "name": "value",
          "type": "uint256"
        },
        {
          "internalType": "bytes",
          "name": "data",
          "type": "bytes"
        }
      ],
      "name": "mint",
      "outputs": [],
      "stateMutability": "nonpayable",
      "type": "function"
    },
    {
      "inputs": [
        {
          "internalType": "address",
          "name": "from",
          "type": "address"
        },
        {
          "internalType": "address",
          "name": "to",
          "type": "address"
        },
        {
          "internalType": "uint256[]",
          "name": "ids",
          "type": "uint256[]"
        },
        {
          "internalType": "uint256[]",
          "name": "amounts",
          "type": "uint256[]"
        },
        {
          "internalType": "bytes",
          "name": "data",
          "type": "bytes"
        }
      ],
      "name": "safeBatchTransferFrom",
      "outputs": [],
      "stateMutability": "nonpayable",
      "type": "function"
    },
    {
      "inputs": [
        {
          "internalType": "address",
          "name": "from",
          "type": "address"
        },
        {
          "internalType": "address",
          "name": "to",
          "type": "address"
        },
        {
          "internalType": "uint256",
          "name": "id",
          "type": "uint256"
        },
        {
          "internalType": "uint256",
          "name": "amount",
          "type": "uint256"
        },
        {
          "internalType": "bytes",
          "name": "data",
          "type": "bytes"
        }
      ],
      "name": "safeTransferFrom",
      "outputs": [],
      "stateMutability": "nonpayable",
      "type": "function"
    },
    {
      "inputs": [
        {
          "internalType": "address",
          "name": "operator",
          "type": "address"
        },
        {
          "internalType": "bool",
          "name": "approved",
          "type": "bool"
        }
      ],
      "name": "setApprovalForAll",
      "outputs": [],
      "stateMutability": "nonpayable",
      "type": "function"
    },
    {
      "inputs": [
        {
          "internalType": "bytes4",
          "name": "interfaceId",
          "type": "bytes4"
        }
      ],
      "name": "supportsInterface",
      "outputs": [
        {
          "internalType": "bool",
          "name": "",
          "type": "bool"
        }
      ],
      "stateMutability": "view",
      "type": "function"
    },
    {
      "inputs": [
        {
          "internalType": "uint256",
          "name": "",
          "type": "uint256"
        }
      ],
      "name": "uri",
      "outputs": [
        {
          "internalType": "string",
          "name": "",
          "type": "string"
        }
      ],
      "stateMutability": "view",
      "type": "function"
    }
  ],
  "bytecode": "0x60806040523480156200001157600080fd5b50604051620035063803806200350683398181016040528101906200003791906200018f565b8062000049816200005160201b60201c565b505062000344565b8060029080519060200190620000699291906200006d565b5050565b8280546200007b9062000269565b90600052602060002090601f0160209004810192826200009f5760008555620000eb565b82601f10620000ba57805160ff1916838001178555620000eb565b82800160010185558215620000eb579182015b82811115620000ea578251825591602001919060010190620000cd565b5b509050620000fa9190620000fe565b5090565b5b8082111562000119576000816000905550600101620000ff565b5090565b6000620001346200012e84620001fd565b620001d4565b9050828152602081018484840111156200014d57600080fd5b6200015a84828562000233565b509392505050565b600082601f8301126200017457600080fd5b8151620001868482602086016200011d565b91505092915050565b600060208284031215620001a257600080fd5b600082015167ffffffffffffffff811115620001bd57600080fd5b620001cb8482850162000162565b91505092915050565b6000620001e0620001f3565b9050620001ee82826200029f565b919050565b6000604051905090565b600067ffffffffffffffff8211156200021b576200021a62000304565b5b620002268262000333565b9050602081019050919050565b60005b838110156200025357808201518184015260208101905062000236565b8381111562000263576000848401525b50505050565b600060028204905060018216806200028257607f821691505b60208210811415620002995762000298620002d5565b5b50919050565b620002aa8262000333565b810181811067ffffffffffffffff82111715620002cc57620002cb62000304565b5b80604052505050565b7f4e487b7100000000000000000000000000000000000000000000000000000000600052602260045260246000fd5b7f4e487b7100000000000000000000000000000000000000000000000000000000600052604160045260246000fd5b6000601f19601f8301169050919050565b6131b280620003546000396000f3fe608060405234801561001057600080fd5b50600436106100a85760003560e01c80636b20c454116100715780636b20c45414610189578063731133e9146101a5578063a22cb465146101c1578063e985e9c5146101dd578063f242432a1461020d578063f5298aca14610229576100a8565b8062fdd58e146100ad57806301ffc9a7146100dd5780630e89341c1461010d5780632eb2c2d61461013d5780634e1273f414610159575b600080fd5b6100c760048036038101906100c291906120cf565b610245565b6040516100d4919061289f565b60405180910390f35b6100f760048036038101906100f29190612241565b61030e565b60405161010491906126c2565b60405180910390f35b61012760048036038101906101229190612293565b6103f0565b60405161013491906126dd565b60405180910390f35b61015760048036038101906101529190611ec6565b610484565b005b610173600480360381019061016e91906121d5565b610525565b6040516101809190612669565b60405180910390f35b6101a3600480360381019061019e9190612014565b6106d6565b005b6101bf60048036038101906101ba919061215a565b610773565b005b6101db60048036038101906101d69190612093565b610785565b005b6101f760048036038101906101f29190611e8a565b61079b565b60405161020491906126c2565b60405180910390f35b61022760048036038101906102229190611f85565b61082f565b005b610243600480360381019061023e919061210b565b6108d0565b005b60008073ffffffffffffffffffffffffffffffffffffffff168373ffffffffffffffffffffffffffffffffffffffff1614156102b6576040517f08c379a00000000000000000000000000000000000000000000000000000000081526004016102ad9061273f565b60405180910390fd5b60008083815260200190815260200160002060008473ffffffffffffffffffffffffffffffffffffffff1673ffffffffffffffffffffffffffffffffffffffff16815260200190815260200160002054905092915050565b60007fd9b67a26000000000000000000000000000000000000000000000000000000007bffffffffffffffffffffffffffffffffffffffffffffffffffffffff1916827bffffffffffffffffffffffffffffffffffffffffffffffffffffffff191614806103d957507f0e89341c000000000000000000000000000000000000000000000000000000007bffffffffffffffffffffffffffffffffffffffffffffffffffffffff1916827bffffffffffffffffffffffffffffffffffffffffffffffffffffffff1916145b806103e957506103e88261096d565b5b9050919050565b6060600280546103ff90612b0e565b80601f016020809104026020016040519081016040528092919081815260200182805461042b90612b0e565b80156104785780601f1061044d57610100808354040283529160200191610478565b820191906000526020600020905b81548152906001019060200180831161045b57829003601f168201915b50505050509050919050565b61048c6109d7565b73ffffffffffffffffffffffffffffffffffffffff168573ffffffffffffffffffffffffffffffffffffffff1614806104d257506104d1856104cc6109d7565b61079b565b5b610511576040517f08c379a0000000000000000000000000000000000000000000000000000000008152600401610508906127bf565b60405180910390fd5b61051e85858585856109df565b5050505050565b6060815183511461056b576040517f08c379a00000000000000000000000000000000000000000000000000000000081526004016105629061283f565b60405180910390fd5b6000835167ffffffffffffffff8111156105ae577f4e487b7100000000000000000000000000000000000000000000000000000000600052604160045260246000fd5b6040519080825280602002602001820160405280156105dc5781602001602082028036833780820191505090505b50905060005b84518110156106cb57610675858281518110610627577f4e487b7100000000000000000000000000000000000000000000000000000000600052603260045260246000fd5b6020026020010151858381518110610668577f4e487b7100000000000000000000000000000000000000000000000000000000600052603260045260246000fd5b6020026020010151610245565b8282815181106106ae577f4e487b7100000000000000000000000000000000000000000000000000000000600052603260045260246000fd5b602002602001018181525050806106c490612b71565b90506105e2565b508091505092915050565b6106de6109d7565b73ffffffffffffffffffffffffffffffffffffffff168373ffffffffffffffffffffffffffffffffffffffff16148061072457506107238361071e6109d7565b61079b565b5b610763576040517f08c379a000000000000000000000000000000000000000000000000000000000815260040161075a9061277f565b60405180910390fd5b61076e838383610d3f565b505050565b61077f8484848461103c565b50505050565b6107976107906109d7565b83836111d2565b5050565b6000600160008473ffffffffffffffffffffffffffffffffffffffff1673ffffffffffffffffffffffffffffffffffffffff16815260200190815260200160002060008373ffffffffffffffffffffffffffffffffffffffff1673ffffffffffffffffffffffffffffffffffffffff16815260200190815260200160002060009054906101000a900460ff16905092915050565b6108376109d7565b73ffffffffffffffffffffffffffffffffffffffff168573ffffffffffffffffffffffffffffffffffffffff16148061087d575061087c856108776109d7565b61079b565b5b6108bc576040517f08c379a00000000000000000000000000000000000000000000000000000000081526004016108b39061277f565b60405180910390fd5b6108c9858585858561133f565b5050505050565b6108d86109d7565b73ffffffffffffffffffffffffffffffffffffffff168373ffffffffffffffffffffffffffffffffffffffff16148061091e575061091d836109186109d7565b61079b565b5b61095d576040517f08c379a00000000000000000000000000000000000000000000000000000000081526004016109549061277f565b60405180910390fd5b6109688383836115c1565b505050565b60007f01ffc9a7000000000000000000000000000000000000000000000000000000007bffffffffffffffffffffffffffffffffffffffffffffffffffffffff1916827bffffffffffffffffffffffffffffffffffffffffffffffffffffffff1916149050919050565b600033905090565b8151835114610a23576040517f08c379a0000000000000000000000000000000000000000000000000000000008152600401610a1a9061285f565b60405180910390fd5b600073ffffffffffffffffffffffffffffffffffffffff168473ffffffffffffffffffffffffffffffffffffffff161415610a93576040517f08c379a0000000000000000000000000000000000000000000000000000000008152600401610a8a9061279f565b60405180910390fd5b6000610a9d6109d7565b9050610aad8187878787876117de565b60005b8451811015610caa576000858281518110610af4577f4e487b7100000000000000000000000000000000000000000000000000000000600052603260045260246000fd5b602002602001015190506000858381518110610b39577f4e487b7100000000000000000000000000000000000000000000000000000000600052603260045260246000fd5b60200260200101519050600080600084815260200190815260200160002060008b73ffffffffffffffffffffffffffffffffffffffff1673ffffffffffffffffffffffffffffffffffffffff16815260200190815260200160002054905081811015610bda576040517f08c379a0000000000000000000000000000000000000000000000000000000008152600401610bd1906127ff565b60405180910390fd5b81810360008085815260200190815260200160002060008c73ffffffffffffffffffffffffffffffffffffffff1673ffffffffffffffffffffffffffffffffffffffff168152602001908152602001600020819055508160008085815260200190815260200160002060008b73ffffffffffffffffffffffffffffffffffffffff1673ffffffffffffffffffffffffffffffffffffffff1681526020019081526020016000206000828254610c8f9190612a02565b9250508190555050505080610ca390612b71565b9050610ab0565b508473ffffffffffffffffffffffffffffffffffffffff168673ffffffffffffffffffffffffffffffffffffffff168273ffffffffffffffffffffffffffffffffffffffff167f4a39dc06d4c0dbc64b70af90fd698a233a518aa5d07e595d983b8c0526c8f7fb8787604051610d2192919061268b565b60405180910390a4610d378187878787876117e6565b505050505050565b600073ffffffffffffffffffffffffffffffffffffffff168373ffffffffffffffffffffffffffffffffffffffff161415610daf576040517f08c379a0000000000000000000000000000000000000000000000000000000008152600401610da6906127df565b60405180910390fd5b8051825114610df3576040517f08c379a0000000000000000000000000000000000000000000000000000000008152600401610dea9061285f565b60405180910390fd5b6000610dfd6109d7565b9050610e1d818560008686604051806020016040528060008152506117de565b60005b8351811015610fb6576000848281518110610e64577f4e487b7100000000000000000000000000000000000000000000000000000000600052603260045260246000fd5b602002602001015190506000848381518110610ea9577f4e487b7100000000000000000000000000000000000000000000000000000000600052603260045260246000fd5b60200260200101519050600080600084815260200190815260200160002060008973ffffffffffffffffffffffffffffffffffffffff1673ffffffffffffffffffffffffffffffffffffffff16815260200190815260200160002054905081811015610f4a576040517f08c379a0000000000000000000000000000000000000000000000000000000008152600401610f419061275f565b60405180910390fd5b81810360008085815260200190815260200160002060008a73ffffffffffffffffffffffffffffffffffffffff1673ffffffffffffffffffffffffffffffffffffffff168152602001908152602001600020819055505050508080610fae90612b71565b915050610e20565b50600073ffffffffffffffffffffffffffffffffffffffff168473ffffffffffffffffffffffffffffffffffffffff168273ffffffffffffffffffffffffffffffffffffffff167f4a39dc06d4c0dbc64b70af90fd698a233a518aa5d07e595d983b8c0526c8f7fb868660405161102e92919061268b565b60405180910390a450505050565b600073ffffffffffffffffffffffffffffffffffffffff168473ffffffffffffffffffffffffffffffffffffffff1614156110ac576040517f08c379a00000000000000000000000000000000000000000000000000000000081526004016110a39061287f565b60405180910390fd5b60006110b66109d7565b90506110d7816000876110c8886119cd565b6110d1886119cd565b876117de565b8260008086815260200190815260200160002060008773ffffffffffffffffffffffffffffffffffffffff1673ffffffffffffffffffffffffffffffffffffffff16815260200190815260200160002060008282546111369190612a02565b925050819055508473ffffffffffffffffffffffffffffffffffffffff16600073ffffffffffffffffffffffffffffffffffffffff168273ffffffffffffffffffffffffffffffffffffffff167fc3d58168c5ae7397731d063d5bbf3d657854427343f4c083240f7aacaa2d0f6287876040516111b49291906128ba565b60405180910390a46111cb81600087878787611a93565b5050505050565b8173ffffffffffffffffffffffffffffffffffffffff168373ffffffffffffffffffffffffffffffffffffffff161415611241576040517f08c379a00000000000000000000000000000000000000000000000000000000081526004016112389061281f565b60405180910390fd5b80600160008573ffffffffffffffffffffffffffffffffffffffff1673ffffffffffffffffffffffffffffffffffffffff16815260200190815260200160002060008473ffffffffffffffffffffffffffffffffffffffff1673ffffffffffffffffffffffffffffffffffffffff16815260200190815260200160002060006101000a81548160ff0219169083151502179055508173ffffffffffffffffffffffffffffffffffffffff168373ffffffffffffffffffffffffffffffffffffffff167f17307eab39ab6107e8899845ad3d59bd9653f200f220920489ca2b5937696c318360405161133291906126c2565b60405180910390a3505050565b600073ffffffffffffffffffffffffffffffffffffffff168473ffffffffffffffffffffffffffffffffffffffff1614156113af576040517f08c379a00000000000000000000000000000000000000000000000000000000081526004016113a69061279f565b60405180910390fd5b60006113b96109d7565b90506113d98187876113ca886119cd565b6113d3886119cd565b876117de565b600080600086815260200190815260200160002060008873ffffffffffffffffffffffffffffffffffffffff1673ffffffffffffffffffffffffffffffffffffffff16815260200190815260200160002054905083811015611470576040517f08c379a0000000000000000000000000000000000000000000000000000000008152600401611467906127ff565b60405180910390fd5b83810360008087815260200190815260200160002060008973ffffffffffffffffffffffffffffffffffffffff1673ffffffffffffffffffffffffffffffffffffffff168152602001908152602001600020819055508360008087815260200190815260200160002060008873ffffffffffffffffffffffffffffffffffffffff1673ffffffffffffffffffffffffffffffffffffffff16815260200190815260200160002060008282546115259190612a02565b925050819055508573ffffffffffffffffffffffffffffffffffffffff168773ffffffffffffffffffffffffffffffffffffffff168373ffffffffffffffffffffffffffffffffffffffff167fc3d58168c5ae7397731d063d5bbf3d657854427343f4c083240f7aacaa2d0f6288886040516115a29291906128ba565b60405180910390a46115b8828888888888611a93565b50505050505050565b600073ffffffffffffffffffffffffffffffffffffffff168373ffffffffffffffffffffffffffffffffffffffff161415611631576040517f08c379a0000000000000000000000000000000000000000000000000000000008152600401611628906127df565b60405180910390fd5b600061163b6109d7565b905061166b8185600061164d876119cd565b611656876119cd565b604051806020016040528060008152506117de565b600080600085815260200190815260200160002060008673ffffffffffffffffffffffffffffffffffffffff1673ffffffffffffffffffffffffffffffffffffffff16815260200190815260200160002054905082811015611702576040517f08c379a00000000000000000000000000000000000000000000000000000000081526004016116f99061275f565b60405180910390fd5b82810360008086815260200190815260200160002060008773ffffffffffffffffffffffffffffffffffffffff1673ffffffffffffffffffffffffffffffffffffffff16815260200190815260200160002081905550600073ffffffffffffffffffffffffffffffffffffffff168573ffffffffffffffffffffffffffffffffffffffff168373ffffffffffffffffffffffffffffffffffffffff167fc3d58168c5ae7397731d063d5bbf3d657854427343f4c083240f7aacaa2d0f6287876040516117cf9291906128ba565b60405180910390a45050505050565b505050505050565b6118058473ffffffffffffffffffffffffffffffffffffffff16611c7a565b156119c5578373ffffffffffffffffffffffffffffffffffffffff1663bc197c8187878686866040518663ffffffff1660e01b815260040161184b9594939291906125a7565b602060405180830381600087803b15801561186557600080fd5b505af192505050801561189657506040513d601f19601f82011682018060405250810190611893919061226a565b60015b61193c576118a2612c47565b806308c379a014156118ff57506118b761308a565b806118c25750611901565b806040517f08c379a00000000000000000000000000000000000000000000000000000000081526004016118f691906126dd565b60405180910390fd5b505b6040517f08c379a0000000000000000000000000000000000000000000000000000000008152600401611933906126ff565b60405180910390fd5b63bc197c8160e01b7bffffffffffffffffffffffffffffffffffffffffffffffffffffffff1916817bffffffffffffffffffffffffffffffffffffffffffffffffffffffff1916146119c3576040517f08c379a00000000000000000000000000000000000000000000000000000000081526004016119ba9061271f565b60405180910390fd5b505b505050505050565b60606000600167ffffffffffffffff811115611a12577f4e487b7100000000000000000000000000000000000000000000000000000000600052604160045260246000fd5b604051908082528060200260200182016040528015611a405781602001602082028036833780820191505090505b5090508281600081518110611a7e577f4e487b7100000000000000000000000000000000000000000000000000000000600052603260045260246000fd5b60200260200101818152505080915050919050565b611ab28473ffffffffffffffffffffffffffffffffffffffff16611c7a565b15611c72578373ffffffffffffffffffffffffffffffffffffffff1663f23a6e6187878686866040518663ffffffff1660e01b8152600401611af895949392919061260f565b602060405180830381600087803b158015611b1257600080fd5b505af1925050508015611b4357506040513d601f19601f82011682018060405250810190611b40919061226a565b60015b611be957611b4f612c47565b806308c379a01415611bac5750611b6461308a565b80611b6f5750611bae565b806040517f08c379a0000000000000000000000000000000000000000000000000000000008152600401611ba391906126dd565b60405180910390fd5b505b6040517f08c379a0000000000000000000000000000000000000000000000000000000008152600401611be0906126ff565b60405180910390fd5b63f23a6e6160e01b7bffffffffffffffffffffffffffffffffffffffffffffffffffffffff1916817bffffffffffffffffffffffffffffffffffffffffffffffffffffffff191614611c70576040517f08c379a0000000000000000000000000000000000000000000000000000000008152600401611c679061271f565b60405180910390fd5b505b505050505050565b600080823b905060008111915050919050565b6000611ca0611c9b84612908565b6128e3565b90508083825260208201905082856020860282011115611cbf57600080fd5b60005b85811015611cef5781611cd58882611da3565b845260208401935060208301925050600181019050611cc2565b5050509392505050565b6000611d0c611d0784612934565b6128e3565b90508083825260208201905082856020860282011115611d2b57600080fd5b60005b85811015611d5b5781611d418882611e75565b845260208401935060208301925050600181019050611d2e565b5050509392505050565b6000611d78611d7384612960565b6128e3565b905082815260208101848484011115611d9057600080fd5b611d9b848285612acc565b509392505050565b600081359050611db281613120565b92915050565b600082601f830112611dc957600080fd5b8135611dd9848260208601611c8d565b91505092915050565b600082601f830112611df357600080fd5b8135611e03848260208601611cf9565b91505092915050565b600081359050611e1b81613137565b92915050565b600081359050611e308161314e565b92915050565b600081519050611e458161314e565b92915050565b600082601f830112611e5c57600080fd5b8135611e6c848260208601611d65565b91505092915050565b600081359050611e8481613165565b92915050565b60008060408385031215611e9d57600080fd5b6000611eab85828601611da3565b9250506020611ebc85828601611da3565b9150509250929050565b600080600080600060a08688031215611ede57600080fd5b6000611eec88828901611da3565b9550506020611efd88828901611da3565b945050604086013567ffffffffffffffff811115611f1a57600080fd5b611f2688828901611de2565b935050606086013567ffffffffffffffff811115611f4357600080fd5b611f4f88828901611de2565b925050608086013567ffffffffffffffff811115611f6c57600080fd5b611f7888828901611e4b565b9150509295509295909350565b600080600080600060a08688031215611f9d57600080fd5b6000611fab88828901611da3565b9550506020611fbc88828901611da3565b9450506040611fcd88828901611e75565b9350506060611fde88828901611e75565b925050608086013567ffffffffffffffff811115611ffb57600080fd5b61200788828901611e4b565b9150509295509295909350565b60008060006060848603121561202957600080fd5b600061203786828701611da3565b935050602084013567ffffffffffffffff81111561205457600080fd5b61206086828701611de2565b925050604084013567ffffffffffffffff81111561207d57600080fd5b61208986828701611de2565b9150509250925092565b600080604083850312156120a657600080fd5b60006120b485828601611da3565b92505060206120c585828601611e0c565b9150509250929050565b600080604083850312156120e257600080fd5b60006120f085828601611da3565b925050602061210185828601611e75565b9150509250929050565b60008060006060848603121561212057600080fd5b600061212e86828701611da3565b935050602061213f86828701611e75565b925050604061215086828701611e75565b9150509250925092565b6000806000806080858703121561217057600080fd5b600061217e87828801611da3565b945050602061218f87828801611e75565b93505060406121a087828801611e75565b925050606085013567ffffffffffffffff8111156121bd57600080fd5b6121c987828801611e4b565b91505092959194509250565b600080604083850312156121e857600080fd5b600083013567ffffffffffffffff81111561220257600080fd5b61220e85828601611db8565b925050602083013567ffffffffffffffff81111561222b57600080fd5b61223785828601611de2565b9150509250929050565b60006020828403121561225357600080fd5b600061226184828501611e21565b91505092915050565b60006020828403121561227c57600080fd5b600061228a84828501611e36565b91505092915050565b6000602082840312156122a557600080fd5b60006122b384828501611e75565b91505092915050565b60006122c88383612589565b60208301905092915050565b6122dd81612a58565b82525050565b60006122ee826129a1565b6122f881856129cf565b935061230383612991565b8060005b8381101561233457815161231b88826122bc565b9750612326836129c2565b925050600181019050612307565b5085935050505092915050565b61234a81612a6a565b82525050565b600061235b826129ac565b61236581856129e0565b9350612375818560208601612adb565b61237e81612c69565b840191505092915050565b6000612394826129b7565b61239e81856129f1565b93506123ae818560208601612adb565b6123b781612c69565b840191505092915050565b60006123cf6034836129f1565b91506123da82612c87565b604082019050919050565b60006123f26028836129f1565b91506123fd82612cd6565b604082019050919050565b6000612415602b836129f1565b915061242082612d25565b604082019050919050565b60006124386024836129f1565b915061244382612d74565b604082019050919050565b600061245b6029836129f1565b915061246682612dc3565b604082019050919050565b600061247e6025836129f1565b915061248982612e12565b604082019050919050565b60006124a16032836129f1565b91506124ac82612e61565b604082019050919050565b60006124c46023836129f1565b91506124cf82612eb0565b604082019050919050565b60006124e7602a836129f1565b91506124f282612eff565b604082019050919050565b600061250a6029836129f1565b915061251582612f4e565b604082019050919050565b600061252d6029836129f1565b915061253882612f9d565b604082019050919050565b60006125506028836129f1565b915061255b82612fec565b604082019050919050565b60006125736021836129f1565b915061257e8261303b565b604082019050919050565b61259281612ac2565b82525050565b6125a181612ac2565b82525050565b600060a0820190506125bc60008301886122d4565b6125c960208301876122d4565b81810360408301526125db81866122e3565b905081810360608301526125ef81856122e3565b905081810360808301526126038184612350565b90509695505050505050565b600060a08201905061262460008301886122d4565b61263160208301876122d4565b61263e6040830186612598565b61264b6060830185612598565b818103608083015261265d8184612350565b90509695505050505050565b6000602082019050818103600083015261268381846122e3565b905092915050565b600060408201905081810360008301526126a581856122e3565b905081810360208301526126b981846122e3565b90509392505050565b60006020820190506126d76000830184612341565b92915050565b600060208201905081810360008301526126f78184612389565b905092915050565b60006020820190508181036000830152612718816123c2565b9050919050565b60006020820190508181036000830152612738816123e5565b9050919050565b6000602082019050818103600083015261275881612408565b9050919050565b600060208201905081810360008301526127788161242b565b9050919050565b600060208201905081810360008301526127988161244e565b9050919050565b600060208201905081810360008301526127b881612471565b9050919050565b600060208201905081810360008301526127d881612494565b9050919050565b600060208201905081810360008301526127f8816124b7565b9050919050565b60006020820190508181036000830152612818816124da565b9050919050565b60006020820190508181036000830152612838816124fd565b9050919050565b6000602082019050818103600083015261285881612520565b9050919050565b6000602082019050818103600083015261287881612543565b9050919050565b6000602082019050818103600083015261289881612566565b9050919050565b60006020820190506128b46000830184612598565b92915050565b60006040820190506128cf6000830185612598565b6128dc6020830184612598565b9392505050565b60006128ed6128fe565b90506128f98282612b40565b919050565b6000604051905090565b600067ffffffffffffffff82111561292357612922612c18565b5b602082029050602081019050919050565b600067ffffffffffffffff82111561294f5761294e612c18565b5b602082029050602081019050919050565b600067ffffffffffffffff82111561297b5761297a612c18565b5b61298482612c69565b9050602081019050919050565b6000819050602082019050919050565b600081519050919050565b600081519050919050565b600081519050919050565b6000602082019050919050565b600082825260208201905092915050565b600082825260208201905092915050565b600082825260208201905092915050565b6000612a0d82612ac2565b9150612a1883612ac2565b9250827fffffffffffffffffffffffffffffffffffffffffffffffffffffffffffffffff03821115612a4d57612a4c612bba565b5b828201905092915050565b6000612a6382612aa2565b9050919050565b60008115159050919050565b60007fffffffff0000000000000000000000000000000000000000000000000000000082169050919050565b600073ffffffffffffffffffffffffffffffffffffffff82169050919050565b6000819050919050565b82818337600083830152505050565b60005b83811015612af9578082015181840152602081019050612ade565b83811115612b08576000848401525b50505050565b60006002820490506001821680612b2657607f821691505b60208210811415612b3a57612b39612be9565b5b50919050565b612b4982612c69565b810181811067ffffffffffffffff82111715612b6857612b67612c18565b5b80604052505050565b6000612b7c82612ac2565b91507fffffffffffffffffffffffffffffffffffffffffffffffffffffffffffffffff821415612baf57612bae612bba565b5b600182019050919050565b7f4e487b7100000000000000000000000000000000000000000000000000000000600052601160045260246000fd5b7f4e487b7100000000000000000000000000000000000000000000000000000000600052602260045260246000fd5b7f4e487b7100000000000000000000000000000000000000000000000000000000600052604160045260246000fd5b600060033d1115612c665760046000803e612c63600051612c7a565b90505b90565b6000601f19601f8301169050919050565b60008160e01c9050919050565b7f455243313135353a207472616e7366657220746f206e6f6e204552433131353560008201527f526563656976657220696d706c656d656e746572000000000000000000000000602082015250565b7f455243313135353a204552433131353552656365697665722072656a6563746560008201527f6420746f6b656e73000000000000000000000000000000000000000000000000602082015250565b7f455243313135353a2062616c616e636520717565727920666f7220746865207a60008201527f65726f2061646472657373000000000000000000000000000000000000000000602082015250565b7f455243313135353a206275726e20616d6f756e7420657863656564732062616c60008201527f616e636500000000000000000000000000000000000000000000000000000000602082015250565b7f455243313135353a2063616c6c6572206973206e6f74206f776e6572206e6f7260008201527f20617070726f7665640000000000000000000000000000000000000000000000602082015250565b7f455243313135353a207472616e7366657220746f20746865207a65726f20616460008201527f6472657373000000000000000000000000000000000000000000000000000000602082015250565b7f455243313135353a207472616e736665722063616c6c6572206973206e6f742060008201527f6f776e6572206e6f7220617070726f7665640000000000000000000000000000602082015250565b7f455243313135353a206275726e2066726f6d20746865207a65726f206164647260008201527f6573730000000000000000000000000000000000000000000000000000000000602082015250565b7f455243313135353a20696e73756666696369656e742062616c616e636520666f60008201527f72207472616e7366657200000000000000000000000000000000000000000000602082015250565b7f455243313135353a2073657474696e6720617070726f76616c2073746174757360008201527f20666f722073656c660000000000000000000000000000000000000000000000602082015250565b7f455243313135353a206163636f756e747320616e6420696473206c656e67746860008201527f206d69736d617463680000000000000000000000000000000000000000000000602082015250565b7f455243313135353a2069647320616e6420616d6f756e7473206c656e6774682060008201527f6d69736d61746368000000000000000000000000000000000000000000000000602082015250565b7f455243313135353a206d696e7420746f20746865207a65726f2061646472657360008201527f7300000000000000000000000000000000000000000000000000000000000000602082015250565b600060443d101561309a5761311d565b6130a26128fe565b60043d036004823e80513d602482011167ffffffffffffffff821117156130ca57505061311d565b808201805167ffffffffffffffff8111156130e8575050505061311d565b80602083010160043d03850181111561310557505050505061311d565b61311482602001850186612b40565b82955050505050505b90565b61312981612a58565b811461313457600080fd5b50565b61314081612a6a565b811461314b57600080fd5b50565b61315781612a76565b811461316257600080fd5b50565b61316e81612ac2565b811461317957600080fd5b5056fea2646970667358221220ca2e836b787d3dd6d6d973299971e4701fa698c1ecdaac5dceaed94a4ba75d0764736f6c63430008020033",
  "linkReferences": {},
  "deployedLinkReferences": {}
}