{
  "_format": "hh-sol-artifact-1",
  "contractName": "SampleMother",
  "sourceName": "contracts/OZ/mocks/MultipleInheritanceInitializableMocks.sol",
  "abi": [
    {
      "inputs": [],
      "name": "initialize",
      "outputs": [],
      "stateMutability": "nonpayable",
      "type": "function"
    },
    {
      "inputs": [
        {
          "internalType": "uint256",
          "name": "value",
          "type": "uint256"
        }
      ],
      "name": "initialize",
      "outputs": [],
      "stateMutability": "nonpayable",
      "type": "function"
    },
    {
      "inputs": [],
      "name": "isHuman",
      "outputs": [
        {
          "internalType": "bool",
          "name": "",
          "type": "bool"
        }
      ],
      "stateMutability": "view",
      "type": "function"
    },
    {
      "inputs": [],
      "name": "mother",
      "outputs": [
        {
          "internalType": "uint256",
          "name": "",
          "type": "uint256"
        }
      ],
      "stateMutability": "view",
      "type": "function"
    }
  ],
  "bytecode": "0x608060405234801561001057600080fd5b50610441806100206000396000f3fe608060405234801561001057600080fd5b506004361061004c5760003560e01c80634a6c9db6146100515780638129fc1c1461006f578063ed7dfee314610079578063fe4b84df14610097575b600080fd5b6100596100b3565b6040516100669190610328565b60405180910390f35b6100776100c6565b005b6100816101ba565b60405161008e9190610363565b60405180910390f35b6100b160048036038101906100ac91906102be565b6101c0565b005b600060029054906101000a900460ff1681565b600060019054906101000a900460ff16806100ec575060008054906101000a900460ff16155b61012b576040517f08c379a000000000000000000000000000000000000000000000000000000000815260040161012290610343565b60405180910390fd5b60008060019054906101000a900460ff16159050801561017b576001600060016101000a81548160ff02191690831515021790555060016000806101000a81548160ff0219169083151502179055505b6001600060026101000a81548160ff02191690831515021790555080156101b75760008060016101000a81548160ff0219169083151502179055505b50565b60015481565b600060019054906101000a900460ff16806101e6575060008054906101000a900460ff16155b610225576040517f08c379a000000000000000000000000000000000000000000000000000000000815260040161021c90610343565b60405180910390fd5b60008060019054906101000a900460ff161590508015610275576001600060016101000a81548160ff02191690831515021790555060016000806101000a81548160ff0219169083151502179055505b61027d6100c6565b8160018190555080156102a55760008060016101000a81548160ff0219169083151502179055505b5050565b6000813590506102b8816103f4565b92915050565b6000602082840312156102d057600080fd5b60006102de848285016102a9565b91505092915050565b6102f08161038f565b82525050565b6000610303602e8361037e565b915061030e826103a5565b604082019050919050565b6103228161039b565b82525050565b600060208201905061033d60008301846102e7565b92915050565b6000602082019050818103600083015261035c816102f6565b9050919050565b60006020820190506103786000830184610319565b92915050565b600082825260208201905092915050565b60008115159050919050565b6000819050919050565b7f496e697469616c697a61626c653a20636f6e747261637420697320616c72656160008201527f647920696e697469616c697a6564000000000000000000000000000000000000602082015250565b6103fd8161039b565b811461040857600080fd5b5056fea264697066735822122040e163dd85103e00a1abb2ef2e0af259aa4e7ae37a7a2a65c799cd21703ad9a964736f6c63430008020033",
  "linkReferences": {},
  "deployedLinkReferences": {}
}