{
  "_format": "hh-sol-artifact-1",
  "contractName": "SampleGramps",
  "sourceName": "contracts/OZ/mocks/MultipleInheritanceInitializableMocks.sol",
  "abi": [
    {
      "inputs": [],
      "name": "gramps",
      "outputs": [
        {
          "internalType": "string",
          "name": "",
          "type": "string"
        }
      ],
      "stateMutability": "view",
      "type": "function"
    },
    {
      "inputs": [],
      "name": "initialize",
      "outputs": [],
      "stateMutability": "nonpayable",
      "type": "function"
    },
    {
      "inputs": [
        {
          "internalType": "string",
          "name": "value",
          "type": "string"
        }
      ],
      "name": "initialize",
      "outputs": [],
      "stateMutability": "nonpayable",
      "type": "function"
    },
    {
      "inputs": [],
      "name": "isHuman",
      "outputs": [
        {
          "internalType": "bool",
          "name": "",
          "type": "bool"
        }
      ],
      "stateMutability": "view",
      "type": "function"
    }
  ],
  "bytecode": "0x608060405234801561001057600080fd5b5061076c806100206000396000f3fe608060405234801561001057600080fd5b506004361061004c5760003560e01c80634a6c9db6146100515780638129fc1c1461006f578063f62d188814610079578063fa39851f14610095575b600080fd5b6100596100b3565b60405161006691906104f8565b60405180910390f35b6100776100c6565b005b610093600480360381019061008e919061044c565b6101ba565b005b61009d6102b3565b6040516100aa9190610513565b60405180910390f35b600060029054906101000a900460ff1681565b600060019054906101000a900460ff16806100ec575060008054906101000a900460ff16155b61012b576040517f08c379a000000000000000000000000000000000000000000000000000000000815260040161012290610535565b60405180910390fd5b60008060019054906101000a900460ff16159050801561017b576001600060016101000a81548160ff02191690831515021790555060016000806101000a81548160ff0219169083151502179055505b6001600060026101000a81548160ff02191690831515021790555080156101b75760008060016101000a81548160ff0219169083151502179055505b50565b600060019054906101000a900460ff16806101e0575060008054906101000a900460ff16155b61021f576040517f08c379a000000000000000000000000000000000000000000000000000000000815260040161021690610535565b60405180910390fd5b60008060019054906101000a900460ff16159050801561026f576001600060016101000a81548160ff02191690831515021790555060016000806101000a81548160ff0219169083151502179055505b6102776100c6565b816001908051906020019061028d929190610341565b5080156102af5760008060016101000a81548160ff0219169083151502179055505b5050565b600180546102c090610615565b80601f01602080910402602001604051908101604052809291908181526020018280546102ec90610615565b80156103395780601f1061030e57610100808354040283529160200191610339565b820191906000526020600020905b81548152906001019060200180831161031c57829003601f168201915b505050505081565b82805461034d90610615565b90600052602060002090601f01602090048101928261036f57600085556103b6565b82601f1061038857805160ff19168380011785556103b6565b828001600101855582156103b6579182015b828111156103b557825182559160200191906001019061039a565b5b5090506103c391906103c7565b5090565b5b808211156103e05760008160009055506001016103c8565b5090565b60006103f76103f28461057a565b610555565b90508281526020810184848401111561040f57600080fd5b61041a8482856105d3565b509392505050565b600082601f83011261043357600080fd5b81356104438482602086016103e4565b91505092915050565b60006020828403121561045e57600080fd5b600082013567ffffffffffffffff81111561047857600080fd5b61048484828501610422565b91505092915050565b610496816105c7565b82525050565b60006104a7826105ab565b6104b181856105b6565b93506104c18185602086016105e2565b6104ca816106d6565b840191505092915050565b60006104e2602e836105b6565b91506104ed826106e7565b604082019050919050565b600060208201905061050d600083018461048d565b92915050565b6000602082019050818103600083015261052d818461049c565b905092915050565b6000602082019050818103600083015261054e816104d5565b9050919050565b600061055f610570565b905061056b8282610647565b919050565b6000604051905090565b600067ffffffffffffffff821115610595576105946106a7565b5b61059e826106d6565b9050602081019050919050565b600081519050919050565b600082825260208201905092915050565b60008115159050919050565b82818337600083830152505050565b60005b838110156106005780820151818401526020810190506105e5565b8381111561060f576000848401525b50505050565b6000600282049050600182168061062d57607f821691505b6020821081141561064157610640610678565b5b50919050565b610650826106d6565b810181811067ffffffffffffffff8211171561066f5761066e6106a7565b5b80604052505050565b7f4e487b7100000000000000000000000000000000000000000000000000000000600052602260045260246000fd5b7f4e487b7100000000000000000000000000000000000000000000000000000000600052604160045260246000fd5b6000601f19601f8301169050919050565b7f496e697469616c697a61626c653a20636f6e747261637420697320616c72656160008201527f647920696e697469616c697a656400000000000000000000000000000000000060208201525056fea2646970667358221220417568ac50a13e094c32f4b97715dd5aa2dba4f04fef2e6949d0d1c42cc5398b64736f6c63430008020033",
  "linkReferences": {},
  "deployedLinkReferences": {}
}