{
  "_format": "hh-sol-artifact-1",
  "contractName": "ArraysImpl",
  "sourceName": "contracts/OZ/mocks/ArraysImpl.sol",
  "abi": [
    {
      "inputs": [
        {
          "internalType": "uint256[]",
          "name": "array",
          "type": "uint256[]"
        }
      ],
      "stateMutability": "nonpayable",
      "type": "constructor"
    },
    {
      "inputs": [
        {
          "internalType": "uint256",
          "name": "element",
          "type": "uint256"
        }
      ],
      "name": "findUpperBound",
      "outputs": [
        {
          "internalType": "uint256",
          "name": "",
          "type": "uint256"
        }
      ],
      "stateMutability": "view",
      "type": "function"
    }
  ],
  "bytecode": "0x608060405234801561001057600080fd5b5060405161063838038061063883398181016040528101906100329190610164565b806000908051906020019061004892919061004f565b5050610288565b82805482825590600052602060002090810192821561008b579160200282015b8281111561008a57825182559160200191906001019061006f565b5b509050610098919061009c565b5090565b5b808211156100b557600081600090555060010161009d565b5090565b60006100cc6100c7846101ca565b6101a5565b905080838252602082019050828560208602820111156100eb57600080fd5b60005b8581101561011b5781610101888261014f565b8452602084019350602083019250506001810190506100ee565b5050509392505050565b600082601f83011261013657600080fd5b81516101468482602086016100b9565b91505092915050565b60008151905061015e81610271565b92915050565b60006020828403121561017657600080fd5b600082015167ffffffffffffffff81111561019057600080fd5b61019c84828501610125565b91505092915050565b60006101af6101c0565b90506101bb8282610200565b919050565b6000604051905090565b600067ffffffffffffffff8211156101e5576101e4610231565b5b602082029050602081019050919050565b6000819050919050565b61020982610260565b810181811067ffffffffffffffff8211171561022857610227610231565b5b80604052505050565b7f4e487b7100000000000000000000000000000000000000000000000000000000600052604160045260246000fd5b6000601f19601f8301169050919050565b61027a816101f6565b811461028557600080fd5b50565b6103a1806102976000396000f3fe608060405234801561001057600080fd5b506004361061002b5760003560e01c806333e3a58a14610030575b600080fd5b61004a600480360381019061004591906101de565b610060565b6040516100579190610216565b60405180910390f35b600061007682600061007d90919063ffffffff16565b9050919050565b60008083805490501415610094576000905061019d565b600080848054905090505b8082101561011e5760006100b383836101a3565b9050848682815481106100ef577f4e487b7100000000000000000000000000000000000000000000000000000000600052603260045260246000fd5b9060005260206000200154111561010857809150610118565b6001816101159190610231565b92505b5061009f565b60008211801561017c5750838560018461013891906102b8565b8154811061016f577f4e487b7100000000000000000000000000000000000000000000000000000000600052603260045260246000fd5b9060005260206000200154145b156101975760018261018e91906102b8565b9250505061019d565b81925050505b92915050565b600060028284186101b49190610287565b8284166101c19190610231565b905092915050565b6000813590506101d881610354565b92915050565b6000602082840312156101f057600080fd5b60006101fe848285016101c9565b91505092915050565b610210816102ec565b82525050565b600060208201905061022b6000830184610207565b92915050565b600061023c826102ec565b9150610247836102ec565b9250827fffffffffffffffffffffffffffffffffffffffffffffffffffffffffffffffff0382111561027c5761027b6102f6565b5b828201905092915050565b6000610292826102ec565b915061029d836102ec565b9250826102ad576102ac610325565b5b828204905092915050565b60006102c3826102ec565b91506102ce836102ec565b9250828210156102e1576102e06102f6565b5b828203905092915050565b6000819050919050565b7f4e487b7100000000000000000000000000000000000000000000000000000000600052601160045260246000fd5b7f4e487b7100000000000000000000000000000000000000000000000000000000600052601260045260246000fd5b61035d816102ec565b811461036857600080fd5b5056fea264697066735822122081afdfe1cbcfc14c2a3d069ca2cbdd452ae4d1278db7df7a37609a4889fe830b64736f6c63430008020033",
  "linkReferences": {},
  "deployedLinkReferences": {}
}