{
  "_format": "hh-sol-artifact-1",
  "contractName": "ERC20WrapperMock",
  "sourceName": "contracts/OZ/mocks/ERC20WrapperMock.sol",
  "abi": [
    {
      "inputs": [
        {
          "internalType": "contract IERC20",
          "name": "_underlyingToken",
          "type": "address"
        },
        {
          "internalType": "string",
          "name": "name",
          "type": "string"
        },
        {
          "internalType": "string",
          "name": "symbol",
          "type": "string"
        }
      ],
      "stateMutability": "nonpayable",
      "type": "constructor"
    },
    {
      "anonymous": false,
      "inputs": [
        {
          "indexed": true,
          "internalType": "address",
          "name": "owner",
          "type": "address"
        },
        {
          "indexed": true,
          "internalType": "address",
          "name": "spender",
          "type": "address"
        },
        {
          "indexed": false,
          "internalType": "uint256",
          "name": "value",
          "type": "uint256"
        }
      ],
      "name": "Approval",
      "type": "event"
    },
    {
      "anonymous": false,
      "inputs": [
        {
          "indexed": true,
          "internalType": "address",
          "name": "from",
          "type": "address"
        },
        {
          "indexed": true,
          "internalType": "address",
          "name": "to",
          "type": "address"
        },
        {
          "indexed": false,
          "internalType": "uint256",
          "name": "value",
          "type": "uint256"
        }
      ],
      "name": "Transfer",
      "type": "event"
    },
    {
      "inputs": [
        {
          "internalType": "address",
          "name": "owner",
          "type": "address"
        },
        {
          "internalType": "address",
          "name": "spender",
          "type": "address"
        }
      ],
      "name": "allowance",
      "outputs": [
        {
          "internalType": "uint256",
          "name": "",
          "type": "uint256"
        }
      ],
      "stateMutability": "view",
      "type": "function"
    },
    {
      "inputs": [
        {
          "internalType": "address",
          "name": "spender",
          "type": "address"
        },
        {
          "internalType": "uint256",
          "name": "amount",
          "type": "uint256"
        }
      ],
      "name": "approve",
      "outputs": [
        {
          "internalType": "bool",
          "name": "",
          "type": "bool"
        }
      ],
      "stateMutability": "nonpayable",
      "type": "function"
    },
    {
      "inputs": [
        {
          "internalType": "address",
          "name": "account",
          "type": "address"
        }
      ],
      "name": "balanceOf",
      "outputs": [
        {
          "internalType": "uint256",
          "name": "",
          "type": "uint256"
        }
      ],
      "stateMutability": "view",
      "type": "function"
    },
    {
      "inputs": [],
      "name": "decimals",
      "outputs": [
        {
          "internalType": "uint8",
          "name": "",
          "type": "uint8"
        }
      ],
      "stateMutability": "view",
      "type": "function"
    },
    {
      "inputs": [
        {
          "internalType": "address",
          "name": "spender",
          "type": "address"
        },
        {
          "internalType": "uint256",
          "name": "subtractedValue",
          "type": "uint256"
        }
      ],
      "name": "decreaseAllowance",
      "outputs": [
        {
          "internalType": "bool",
          "name": "",
          "type": "bool"
        }
      ],
      "stateMutability": "nonpayable",
      "type": "function"
    },
    {
      "inputs": [
        {
          "internalType": "address",
          "name": "account",
          "type": "address"
        },
        {
          "internalType": "uint256",
          "name": "amount",
          "type": "uint256"
        }
      ],
      "name": "depositFor",
      "outputs": [
        {
          "internalType": "bool",
          "name": "",
          "type": "bool"
        }
      ],
      "stateMutability": "nonpayable",
      "type": "function"
    },
    {
      "inputs": [
        {
          "internalType": "address",
          "name": "spender",
          "type": "address"
        },
        {
          "internalType": "uint256",
          "name": "addedValue",
          "type": "uint256"
        }
      ],
      "name": "increaseAllowance",
      "outputs": [
        {
          "internalType": "bool",
          "name": "",
          "type": "bool"
        }
      ],
      "stateMutability": "nonpayable",
      "type": "function"
    },
    {
      "inputs": [],
      "name": "name",
      "outputs": [
        {
          "internalType": "string",
          "name": "",
          "type": "string"
        }
      ],
      "stateMutability": "view",
      "type": "function"
    },
    {
      "inputs": [
        {
          "internalType": "address",
          "name": "account",
          "type": "address"
        }
      ],
      "name": "recover",
      "outputs": [
        {
          "internalType": "uint256",
          "name": "",
          "type": "uint256"
        }
      ],
      "stateMutability": "nonpayable",
      "type": "function"
    },
    {
      "inputs": [],
      "name": "symbol",
      "outputs": [
        {
          "internalType": "string",
          "name": "",
          "type": "string"
        }
      ],
      "stateMutability": "view",
      "type": "function"
    },
    {
      "inputs": [],
      "name": "totalSupply",
      "outputs": [
        {
          "internalType": "uint256",
          "name": "",
          "type": "uint256"
        }
      ],
      "stateMutability": "view",
      "type": "function"
    },
    {
      "inputs": [
        {
          "internalType": "address",
          "name": "recipient",
          "type": "address"
        },
        {
          "internalType": "uint256",
          "name": "amount",
          "type": "uint256"
        }
      ],
      "name": "transfer",
      "outputs": [
        {
          "internalType": "bool",
          "name": "",
          "type": "bool"
        }
      ],
      "stateMutability": "nonpayable",
      "type": "function"
    },
    {
      "inputs": [
        {
          "internalType": "address",
          "name": "sender",
          "type": "address"
        },
        {
          "internalType": "address",
          "name": "recipient",
          "type": "address"
        },
        {
          "internalType": "uint256",
          "name": "amount",
          "type": "uint256"
        }
      ],
      "name": "transferFrom",
      "outputs": [
        {
          "internalType": "bool",
          "name": "",
          "type": "bool"
        }
      ],
      "stateMutability": "nonpayable",
      "type": "function"
    },
    {
      "inputs": [],
      "name": "underlying",
      "outputs": [
        {
          "internalType": "contract IERC20",
          "name": "",
          "type": "address"
        }
      ],
      "stateMutability": "view",
      "type": "function"
    },
    {
      "inputs": [
        {
          "internalType": "address",
          "name": "account",
          "type": "address"
        },
        {
          "internalType": "uint256",
          "name": "amount",
          "type": "uint256"
        }
      ],
      "name": "withdrawTo",
      "outputs": [
        {
          "internalType": "bool",
          "name": "",
          "type": "bool"
        }
      ],
      "stateMutability": "nonpayable",
      "type": "function"
    }
  ],
  "bytecode": "0x60a06040523480156200001157600080fd5b506040516200266f3803806200266f8339818101604052810190620000379190620001e8565b828282816003908051906020019062000052929190620000af565b5080600490805190602001906200006b929190620000af565b5050508073ffffffffffffffffffffffffffffffffffffffff1660808173ffffffffffffffffffffffffffffffffffffffff1660601b815250505050505062000442565b828054620000bd906200034d565b90600052602060002090601f016020900481019282620000e157600085556200012d565b82601f10620000fc57805160ff19168380011785556200012d565b828001600101855582156200012d579182015b828111156200012c5782518255916020019190600101906200010f565b5b5090506200013c919062000140565b5090565b5b808211156200015b57600081600090555060010162000141565b5090565b600062000176620001708462000299565b62000270565b9050828152602081018484840111156200018f57600080fd5b6200019c84828562000317565b509392505050565b600081519050620001b58162000428565b92915050565b600082601f830112620001cd57600080fd5b8151620001df8482602086016200015f565b91505092915050565b600080600060608486031215620001fe57600080fd5b60006200020e86828701620001a4565b935050602084015167ffffffffffffffff8111156200022c57600080fd5b6200023a86828701620001bb565b925050604084015167ffffffffffffffff8111156200025857600080fd5b6200026686828701620001bb565b9150509250925092565b60006200027c6200028f565b90506200028a828262000383565b919050565b6000604051905090565b600067ffffffffffffffff821115620002b757620002b6620003e8565b5b620002c28262000417565b9050602081019050919050565b6000620002dc82620002f7565b9050919050565b6000620002f082620002cf565b9050919050565b600073ffffffffffffffffffffffffffffffffffffffff82169050919050565b60005b83811015620003375780820151818401526020810190506200031a565b8381111562000347576000848401525b50505050565b600060028204905060018216806200036657607f821691505b602082108114156200037d576200037c620003b9565b5b50919050565b6200038e8262000417565b810181811067ffffffffffffffff82111715620003b057620003af620003e8565b5b80604052505050565b7f4e487b7100000000000000000000000000000000000000000000000000000000600052602260045260246000fd5b7f4e487b7100000000000000000000000000000000000000000000000000000000600052604160045260246000fd5b6000601f19601f8301169050919050565b6200043381620002e3565b81146200043f57600080fd5b50565b60805160601c6121f96200047660003960008181610454015281816105830152818161067c0152610ae801526121f96000f3fe608060405234801561001057600080fd5b50600436106100f55760003560e01c8063313ce5671161009757806395d89b411161006657806395d89b41146102c2578063a457c2d7146102e0578063a9059cbb14610310578063dd62ed3e14610340576100f5565b8063313ce5671461022657806339509351146102445780636f307dc31461027457806370a0823114610292576100f5565b806318160ddd116100d357806318160ddd14610178578063205c28781461019657806323b872dd146101c65780632f4f21e2146101f6576100f5565b806306fdde03146100fa578063095ea7b3146101185780630cd865ec14610148575b600080fd5b610102610370565b60405161010f91906119c6565b60405180910390f35b610132600480360381019061012d91906115f4565b610402565b60405161013f9190611990565b60405180910390f35b610162600480360381019061015d9190611540565b610420565b60405161016f9190611b88565b60405180910390f35b610180610432565b60405161018d9190611b88565b60405180910390f35b6101b060048036038101906101ab91906115f4565b61043c565b6040516101bd9190611990565b60405180910390f35b6101e060048036038101906101db91906115a5565b610484565b6040516101ed9190611990565b60405180910390f35b610210600480360381019061020b91906115f4565b61057c565b60405161021d9190611990565b60405180910390f35b61022e6105c5565b60405161023b9190611ba3565b60405180910390f35b61025e600480360381019061025991906115f4565b6105ce565b60405161026b9190611990565b60405180910390f35b61027c61067a565b60405161028991906119ab565b60405180910390f35b6102ac60048036038101906102a79190611540565b61069e565b6040516102b99190611b88565b60405180910390f35b6102ca6106e6565b6040516102d791906119c6565b60405180910390f35b6102fa60048036038101906102f591906115f4565b610778565b6040516103079190611990565b60405180910390f35b61032a600480360381019061032591906115f4565b610863565b6040516103379190611990565b60405180910390f35b61035a60048036038101906103559190611569565b610881565b6040516103679190611b88565b60405180910390f35b60606003805461037f90611d26565b80601f01602080910402602001604051908101604052809291908181526020018280546103ab90611d26565b80156103f85780601f106103cd576101008083540402835291602001916103f8565b820191906000526020600020905b8154815290600101906020018083116103db57829003601f168201915b5050505050905090565b600061041661040f610908565b8484610910565b6001905092915050565b600061042b82610adb565b9050919050565b6000600254905090565b600061044f610449610908565b83610bae565b61047a7f00000000000000000000000000000000000000000000000000000000000000008484610d85565b6001905092915050565b6000610491848484610e0b565b6000600160008673ffffffffffffffffffffffffffffffffffffffff1673ffffffffffffffffffffffffffffffffffffffff16815260200190815260200160002060006104dc610908565b73ffffffffffffffffffffffffffffffffffffffff1673ffffffffffffffffffffffffffffffffffffffff1681526020019081526020016000205490508281101561055c576040517f08c379a000000000000000000000000000000000000000000000000000000000815260040161055390611a88565b60405180910390fd5b61057085610568610908565b858403610910565b60019150509392505050565b60006105b17f00000000000000000000000000000000000000000000000000000000000000006105aa610908565b308561108c565b6105bb8383611115565b6001905092915050565b60006012905090565b60006106706105db610908565b8484600160006105e9610908565b73ffffffffffffffffffffffffffffffffffffffff1673ffffffffffffffffffffffffffffffffffffffff16815260200190815260200160002060008873ffffffffffffffffffffffffffffffffffffffff1673ffffffffffffffffffffffffffffffffffffffff1681526020019081526020016000205461066b9190611bf0565b610910565b6001905092915050565b7f000000000000000000000000000000000000000000000000000000000000000081565b60008060008373ffffffffffffffffffffffffffffffffffffffff1673ffffffffffffffffffffffffffffffffffffffff168152602001908152602001600020549050919050565b6060600480546106f590611d26565b80601f016020809104026020016040519081016040528092919081815260200182805461072190611d26565b801561076e5780601f106107435761010080835404028352916020019161076e565b820191906000526020600020905b81548152906001019060200180831161075157829003601f168201915b5050505050905090565b60008060016000610787610908565b73ffffffffffffffffffffffffffffffffffffffff1673ffffffffffffffffffffffffffffffffffffffff16815260200190815260200160002060008573ffffffffffffffffffffffffffffffffffffffff1673ffffffffffffffffffffffffffffffffffffffff16815260200190815260200160002054905082811015610844576040517f08c379a000000000000000000000000000000000000000000000000000000000815260040161083b90611b48565b60405180910390fd5b61085861084f610908565b85858403610910565b600191505092915050565b6000610877610870610908565b8484610e0b565b6001905092915050565b6000600160008473ffffffffffffffffffffffffffffffffffffffff1673ffffffffffffffffffffffffffffffffffffffff16815260200190815260200160002060008373ffffffffffffffffffffffffffffffffffffffff1673ffffffffffffffffffffffffffffffffffffffff16815260200190815260200160002054905092915050565b600033905090565b600073ffffffffffffffffffffffffffffffffffffffff168373ffffffffffffffffffffffffffffffffffffffff161415610980576040517f08c379a000000000000000000000000000000000000000000000000000000000815260040161097790611ae8565b60405180910390fd5b600073ffffffffffffffffffffffffffffffffffffffff168273ffffffffffffffffffffffffffffffffffffffff1614156109f0576040517f08c379a00000000000000000000000000000000000000000000000000000000081526004016109e790611a28565b60405180910390fd5b80600160008573ffffffffffffffffffffffffffffffffffffffff1673ffffffffffffffffffffffffffffffffffffffff16815260200190815260200160002060008473ffffffffffffffffffffffffffffffffffffffff1673ffffffffffffffffffffffffffffffffffffffff168152602001908152602001600020819055508173ffffffffffffffffffffffffffffffffffffffff168373ffffffffffffffffffffffffffffffffffffffff167f8c5be1e5ebec7d5bd14f71427d1e84f3dd0314c0f7b2291e5b200ac8c7c3b92583604051610ace9190611b88565b60405180910390a3505050565b600080610ae6610432565b7f000000000000000000000000000000000000000000000000000000000000000073ffffffffffffffffffffffffffffffffffffffff166370a08231306040518263ffffffff1660e01b8152600401610b3f9190611915565b60206040518083038186803b158015610b5757600080fd5b505afa158015610b6b573d6000803e3d6000fd5b505050506040513d601f19601f82011682018060405250810190610b8f9190611659565b610b999190611c46565b9050610ba58382611115565b80915050919050565b600073ffffffffffffffffffffffffffffffffffffffff168273ffffffffffffffffffffffffffffffffffffffff161415610c1e576040517f08c379a0000000000000000000000000000000000000000000000000000000008152600401610c1590611aa8565b60405180910390fd5b610c2a82600083611275565b60008060008473ffffffffffffffffffffffffffffffffffffffff1673ffffffffffffffffffffffffffffffffffffffff16815260200190815260200160002054905081811015610cb0576040517f08c379a0000000000000000000000000000000000000000000000000000000008152600401610ca790611a08565b60405180910390fd5b8181036000808573ffffffffffffffffffffffffffffffffffffffff1673ffffffffffffffffffffffffffffffffffffffff168152602001908152602001600020819055508160026000828254610d079190611c46565b92505081905550600073ffffffffffffffffffffffffffffffffffffffff168373ffffffffffffffffffffffffffffffffffffffff167fddf252ad1be2c89b69c2b068fc378daa952ba7f163c4a11628f55a4df523b3ef84604051610d6c9190611b88565b60405180910390a3610d808360008461127a565b505050565b610e068363a9059cbb60e01b8484604051602401610da4929190611967565b604051602081830303815290604052907bffffffffffffffffffffffffffffffffffffffffffffffffffffffff19166020820180517bffffffffffffffffffffffffffffffffffffffffffffffffffffffff838183161783525050505061127f565b505050565b600073ffffffffffffffffffffffffffffffffffffffff168373ffffffffffffffffffffffffffffffffffffffff161415610e7b576040517f08c379a0000000000000000000000000000000000000000000000000000000008152600401610e7290611ac8565b60405180910390fd5b600073ffffffffffffffffffffffffffffffffffffffff168273ffffffffffffffffffffffffffffffffffffffff161415610eeb576040517f08c379a0000000000000000000000000000000000000000000000000000000008152600401610ee2906119e8565b60405180910390fd5b610ef6838383611275565b60008060008573ffffffffffffffffffffffffffffffffffffffff1673ffffffffffffffffffffffffffffffffffffffff16815260200190815260200160002054905081811015610f7c576040517f08c379a0000000000000000000000000000000000000000000000000000000008152600401610f7390611a48565b60405180910390fd5b8181036000808673ffffffffffffffffffffffffffffffffffffffff1673ffffffffffffffffffffffffffffffffffffffff16815260200190815260200160002081905550816000808573ffffffffffffffffffffffffffffffffffffffff1673ffffffffffffffffffffffffffffffffffffffff168152602001908152602001600020600082825461100f9190611bf0565b925050819055508273ffffffffffffffffffffffffffffffffffffffff168473ffffffffffffffffffffffffffffffffffffffff167fddf252ad1be2c89b69c2b068fc378daa952ba7f163c4a11628f55a4df523b3ef846040516110739190611b88565b60405180910390a361108684848461127a565b50505050565b61110f846323b872dd60e01b8585856040516024016110ad93929190611930565b604051602081830303815290604052907bffffffffffffffffffffffffffffffffffffffffffffffffffffffff19166020820180517bffffffffffffffffffffffffffffffffffffffffffffffffffffffff838183161783525050505061127f565b50505050565b600073ffffffffffffffffffffffffffffffffffffffff168273ffffffffffffffffffffffffffffffffffffffff161415611185576040517f08c379a000000000000000000000000000000000000000000000000000000000815260040161117c90611b68565b60405180910390fd5b61119160008383611275565b80600260008282546111a39190611bf0565b92505081905550806000808473ffffffffffffffffffffffffffffffffffffffff1673ffffffffffffffffffffffffffffffffffffffff16815260200190815260200160002060008282546111f89190611bf0565b925050819055508173ffffffffffffffffffffffffffffffffffffffff16600073ffffffffffffffffffffffffffffffffffffffff167fddf252ad1be2c89b69c2b068fc378daa952ba7f163c4a11628f55a4df523b3ef8360405161125d9190611b88565b60405180910390a36112716000838361127a565b5050565b505050565b505050565b60006112e1826040518060400160405280602081526020017f5361666545524332303a206c6f772d6c6576656c2063616c6c206661696c65648152508573ffffffffffffffffffffffffffffffffffffffff166113469092919063ffffffff16565b905060008151111561134157808060200190518101906113019190611630565b611340576040517f08c379a000000000000000000000000000000000000000000000000000000000815260040161133790611b28565b60405180910390fd5b5b505050565b6060611355848460008561135e565b90509392505050565b6060824710156113a3576040517f08c379a000000000000000000000000000000000000000000000000000000000815260040161139a90611a68565b60405180910390fd5b6113ac85611472565b6113eb576040517f08c379a00000000000000000000000000000000000000000000000000000000081526004016113e290611b08565b60405180910390fd5b6000808673ffffffffffffffffffffffffffffffffffffffff16858760405161141491906118fe565b60006040518083038185875af1925050503d8060008114611451576040519150601f19603f3d011682016040523d82523d6000602084013e611456565b606091505b5091509150611466828286611485565b92505050949350505050565b600080823b905060008111915050919050565b60608315611495578290506114e5565b6000835111156114a85782518084602001fd5b816040517f08c379a00000000000000000000000000000000000000000000000000000000081526004016114dc91906119c6565b60405180910390fd5b9392505050565b6000813590506114fb8161217e565b92915050565b60008151905061151081612195565b92915050565b600081359050611525816121ac565b92915050565b60008151905061153a816121ac565b92915050565b60006020828403121561155257600080fd5b6000611560848285016114ec565b91505092915050565b6000806040838503121561157c57600080fd5b600061158a858286016114ec565b925050602061159b858286016114ec565b9150509250929050565b6000806000606084860312156115ba57600080fd5b60006115c8868287016114ec565b93505060206115d9868287016114ec565b92505060406115ea86828701611516565b9150509250925092565b6000806040838503121561160757600080fd5b6000611615858286016114ec565b925050602061162685828601611516565b9150509250929050565b60006020828403121561164257600080fd5b600061165084828501611501565b91505092915050565b60006020828403121561166b57600080fd5b60006116798482850161152b565b91505092915050565b61168b81611c7a565b82525050565b61169a81611c8c565b82525050565b60006116ab82611bbe565b6116b58185611bd4565b93506116c5818560208601611cf3565b80840191505092915050565b6116da81611ccf565b82525050565b60006116eb82611bc9565b6116f58185611bdf565b9350611705818560208601611cf3565b61170e81611db6565b840191505092915050565b6000611726602383611bdf565b915061173182611dc7565b604082019050919050565b6000611749602283611bdf565b915061175482611e16565b604082019050919050565b600061176c602283611bdf565b915061177782611e65565b604082019050919050565b600061178f602683611bdf565b915061179a82611eb4565b604082019050919050565b60006117b2602683611bdf565b91506117bd82611f03565b604082019050919050565b60006117d5602883611bdf565b91506117e082611f52565b604082019050919050565b60006117f8602183611bdf565b915061180382611fa1565b604082019050919050565b600061181b602583611bdf565b915061182682611ff0565b604082019050919050565b600061183e602483611bdf565b91506118498261203f565b604082019050919050565b6000611861601d83611bdf565b915061186c8261208e565b602082019050919050565b6000611884602a83611bdf565b915061188f826120b7565b604082019050919050565b60006118a7602583611bdf565b91506118b282612106565b604082019050919050565b60006118ca601f83611bdf565b91506118d582612155565b602082019050919050565b6118e981611cb8565b82525050565b6118f881611cc2565b82525050565b600061190a82846116a0565b915081905092915050565b600060208201905061192a6000830184611682565b92915050565b60006060820190506119456000830186611682565b6119526020830185611682565b61195f60408301846118e0565b949350505050565b600060408201905061197c6000830185611682565b61198960208301846118e0565b9392505050565b60006020820190506119a56000830184611691565b92915050565b60006020820190506119c060008301846116d1565b92915050565b600060208201905081810360008301526119e081846116e0565b905092915050565b60006020820190508181036000830152611a0181611719565b9050919050565b60006020820190508181036000830152611a218161173c565b9050919050565b60006020820190508181036000830152611a418161175f565b9050919050565b60006020820190508181036000830152611a6181611782565b9050919050565b60006020820190508181036000830152611a81816117a5565b9050919050565b60006020820190508181036000830152611aa1816117c8565b9050919050565b60006020820190508181036000830152611ac1816117eb565b9050919050565b60006020820190508181036000830152611ae18161180e565b9050919050565b60006020820190508181036000830152611b0181611831565b9050919050565b60006020820190508181036000830152611b2181611854565b9050919050565b60006020820190508181036000830152611b4181611877565b9050919050565b60006020820190508181036000830152611b618161189a565b9050919050565b60006020820190508181036000830152611b81816118bd565b9050919050565b6000602082019050611b9d60008301846118e0565b92915050565b6000602082019050611bb860008301846118ef565b92915050565b600081519050919050565b600081519050919050565b600081905092915050565b600082825260208201905092915050565b6000611bfb82611cb8565b9150611c0683611cb8565b9250827fffffffffffffffffffffffffffffffffffffffffffffffffffffffffffffffff03821115611c3b57611c3a611d58565b5b828201905092915050565b6000611c5182611cb8565b9150611c5c83611cb8565b925082821015611c6f57611c6e611d58565b5b828203905092915050565b6000611c8582611c98565b9050919050565b60008115159050919050565b600073ffffffffffffffffffffffffffffffffffffffff82169050919050565b6000819050919050565b600060ff82169050919050565b6000611cda82611ce1565b9050919050565b6000611cec82611c98565b9050919050565b60005b83811015611d11578082015181840152602081019050611cf6565b83811115611d20576000848401525b50505050565b60006002820490506001821680611d3e57607f821691505b60208210811415611d5257611d51611d87565b5b50919050565b7f4e487b7100000000000000000000000000000000000000000000000000000000600052601160045260246000fd5b7f4e487b7100000000000000000000000000000000000000000000000000000000600052602260045260246000fd5b6000601f19601f8301169050919050565b7f45524332303a207472616e7366657220746f20746865207a65726f206164647260008201527f6573730000000000000000000000000000000000000000000000000000000000602082015250565b7f45524332303a206275726e20616d6f756e7420657863656564732062616c616e60008201527f6365000000000000000000000000000000000000000000000000000000000000602082015250565b7f45524332303a20617070726f766520746f20746865207a65726f20616464726560008201527f7373000000000000000000000000000000000000000000000000000000000000602082015250565b7f45524332303a207472616e7366657220616d6f756e742065786365656473206260008201527f616c616e63650000000000000000000000000000000000000000000000000000602082015250565b7f416464726573733a20696e73756666696369656e742062616c616e636520666f60008201527f722063616c6c0000000000000000000000000000000000000000000000000000602082015250565b7f45524332303a207472616e7366657220616d6f756e742065786365656473206160008201527f6c6c6f77616e6365000000000000000000000000000000000000000000000000602082015250565b7f45524332303a206275726e2066726f6d20746865207a65726f2061646472657360008201527f7300000000000000000000000000000000000000000000000000000000000000602082015250565b7f45524332303a207472616e736665722066726f6d20746865207a65726f20616460008201527f6472657373000000000000000000000000000000000000000000000000000000602082015250565b7f45524332303a20617070726f76652066726f6d20746865207a65726f2061646460008201527f7265737300000000000000000000000000000000000000000000000000000000602082015250565b7f416464726573733a2063616c6c20746f206e6f6e2d636f6e7472616374000000600082015250565b7f5361666545524332303a204552433230206f7065726174696f6e20646964206e60008201527f6f74207375636365656400000000000000000000000000000000000000000000602082015250565b7f45524332303a2064656372656173656420616c6c6f77616e63652062656c6f7760008201527f207a65726f000000000000000000000000000000000000000000000000000000602082015250565b7f45524332303a206d696e7420746f20746865207a65726f206164647265737300600082015250565b61218781611c7a565b811461219257600080fd5b50565b61219e81611c8c565b81146121a957600080fd5b50565b6121b581611cb8565b81146121c057600080fd5b5056fea264697066735822122086a536f1704a9b1363f8f29993cbe09e2083fda4a5e371ad6633d0005d20715864736f6c63430008020033",
  "linkReferences": {},
  "deployedLinkReferences": {}
}