{
  "_format": "hh-sol-artifact-1",
  "contractName": "ERC2771ContextMock",
  "sourceName": "contracts/OZ/mocks/ERC2771ContextMock.sol",
  "abi": [
    {
      "inputs": [
        {
          "internalType": "address",
          "name": "trustedForwarder",
          "type": "address"
        }
      ],
      "stateMutability": "nonpayable",
      "type": "constructor"
    },
    {
      "anonymous": false,
      "inputs": [
        {
          "indexed": false,
          "internalType": "bytes",
          "name": "data",
          "type": "bytes"
        },
        {
          "indexed": false,
          "internalType": "uint256",
          "name": "integerValue",
          "type": "uint256"
        },
        {
          "indexed": false,
          "internalType": "string",
          "name": "stringValue",
          "type": "string"
        }
      ],
      "name": "Data",
      "type": "event"
    },
    {
      "anonymous": false,
      "inputs": [
        {
          "indexed": false,
          "internalType": "address",
          "name": "sender",
          "type": "address"
        }
      ],
      "name": "Sender",
      "type": "event"
    },
    {
      "inputs": [
        {
          "internalType": "address",
          "name": "forwarder",
          "type": "address"
        }
      ],
      "name": "isTrustedForwarder",
      "outputs": [
        {
          "internalType": "bool",
          "name": "",
          "type": "bool"
        }
      ],
      "stateMutability": "view",
      "type": "function"
    },
    {
      "inputs": [
        {
          "internalType": "uint256",
          "name": "integerValue",
          "type": "uint256"
        },
        {
          "internalType": "string",
          "name": "stringValue",
          "type": "string"
        }
      ],
      "name": "msgData",
      "outputs": [],
      "stateMutability": "nonpayable",
      "type": "function"
    },
    {
      "inputs": [],
      "name": "msgSender",
      "outputs": [],
      "stateMutability": "nonpayable",
      "type": "function"
    }
  ],
  "bytecode": "0x608060405234801561001057600080fd5b506040516107db3803806107db8339818101604052810190610032919061008f565b80806000806101000a81548173ffffffffffffffffffffffffffffffffffffffff021916908373ffffffffffffffffffffffffffffffffffffffff1602179055505050610101565b600081519050610089816100ea565b92915050565b6000602082840312156100a157600080fd5b60006100af8482850161007a565b91505092915050565b60006100c3826100ca565b9050919050565b600073ffffffffffffffffffffffffffffffffffffffff82169050919050565b6100f3816100b8565b81146100fe57600080fd5b50565b6106cb806101106000396000f3fe608060405234801561001057600080fd5b50600436106100415760003560e01c8063376bf26214610046578063572b6c0514610062578063d737d0c714610092575b600080fd5b610060600480360381019061005b91906102ef565b61009c565b005b61007c600480360381019061007791906102c6565b6100e3565b60405161008991906103f1565b60405180910390f35b61009a61013c565b005b7faf235354a0a47c91ee171961326335cb2d1a8e55b8a89859b0e61eb049e50ea06100c561017c565b84846040516100d7949392919061040c565b60405180910390a15050565b60008060009054906101000a900473ffffffffffffffffffffffffffffffffffffffff1673ffffffffffffffffffffffffffffffffffffffff168273ffffffffffffffffffffffffffffffffffffffff16149050919050565b7fd6558c3ed910d959271054471fd1c326679d9fece99c5091b00ed89627cf2bfc61016561018f565b60405161017291906103d6565b60405180910390a1565b36600061018761019e565b915091509091565b60006101996101ed565b905090565b3660006101aa336100e3565b156101dc57600036600090601460003690506101c69190610509565b926101d3939291906104d6565b915091506101e9565b6101e461021f565b915091505b9091565b60006101f8336100e3565b1561020c57601436033560601c905061021b565b61021461022c565b905061021c565b5b90565b3660008036915091509091565b600033905090565b600061024761024284610478565b610453565b90508281526020810184848401111561025f57600080fd5b61026a848285610585565b509392505050565b60008135905061028181610667565b92915050565b600082601f83011261029857600080fd5b81356102a8848260208601610234565b91505092915050565b6000813590506102c08161067e565b92915050565b6000602082840312156102d857600080fd5b60006102e684828501610272565b91505092915050565b6000806040838503121561030257600080fd5b6000610310858286016102b1565b925050602083013567ffffffffffffffff81111561032d57600080fd5b61033985828601610287565b9150509250929050565b61034c8161053d565b82525050565b61035b8161054f565b82525050565b600061036d83856104b4565b935061037a838584610585565b61038383610656565b840190509392505050565b6000610399826104a9565b6103a381856104c5565b93506103b3818560208601610594565b6103bc81610656565b840191505092915050565b6103d08161057b565b82525050565b60006020820190506103eb6000830184610343565b92915050565b60006020820190506104066000830184610352565b92915050565b60006060820190508181036000830152610427818688610361565b905061043660208301856103c7565b8181036040830152610448818461038e565b905095945050505050565b600061045d61046e565b905061046982826105c7565b919050565b6000604051905090565b600067ffffffffffffffff82111561049357610492610627565b5b61049c82610656565b9050602081019050919050565b600081519050919050565b600082825260208201905092915050565b600082825260208201905092915050565b600080858511156104e657600080fd5b838611156104f357600080fd5b6001850283019150848603905094509492505050565b60006105148261057b565b915061051f8361057b565b925082821015610532576105316105f8565b5b828203905092915050565b60006105488261055b565b9050919050565b60008115159050919050565b600073ffffffffffffffffffffffffffffffffffffffff82169050919050565b6000819050919050565b82818337600083830152505050565b60005b838110156105b2578082015181840152602081019050610597565b838111156105c1576000848401525b50505050565b6105d082610656565b810181811067ffffffffffffffff821117156105ef576105ee610627565b5b80604052505050565b7f4e487b7100000000000000000000000000000000000000000000000000000000600052601160045260246000fd5b7f4e487b7100000000000000000000000000000000000000000000000000000000600052604160045260246000fd5b6000601f19601f8301169050919050565b6106708161053d565b811461067b57600080fd5b50565b6106878161057b565b811461069257600080fd5b5056fea2646970667358221220013a4f6d9b26c02b05de04c5334f530881265eaccffe47c80383aa050e3e0e6e64736f6c63430008020033",
  "linkReferences": {},
  "deployedLinkReferences": {}
}