{
  "_format": "hh-sol-artifact-1",
  "contractName": "ContextMockCaller",
  "sourceName": "contracts/OZ/mocks/ContextMock.sol",
  "abi": [
    {
      "inputs": [
        {
          "internalType": "contract ContextMock",
          "name": "context",
          "type": "address"
        },
        {
          "internalType": "uint256",
          "name": "integerValue",
          "type": "uint256"
        },
        {
          "internalType": "string",
          "name": "stringValue",
          "type": "string"
        }
      ],
      "name": "callData",
      "outputs": [],
      "stateMutability": "nonpayable",
      "type": "function"
    },
    {
      "inputs": [
        {
          "internalType": "contract ContextMock",
          "name": "context",
          "type": "address"
        }
      ],
      "name": "callSender",
      "outputs": [],
      "stateMutability": "nonpayable",
      "type": "function"
    }
  ],
  "bytecode": "0x608060405234801561001057600080fd5b506104b8806100206000396000f3fe608060405234801561001057600080fd5b50600436106100355760003560e01c80628604591461003a5780633207ad9614610056575b600080fd5b610054600480360381019061004f9190610202565b610072565b005b610070600480360381019061006b91906101d9565b6100e4565b005b8273ffffffffffffffffffffffffffffffffffffffff1663376bf26283836040518363ffffffff1660e01b81526004016100ad9291906102b1565b600060405180830381600087803b1580156100c757600080fd5b505af11580156100db573d6000803e3d6000fd5b50505050505050565b8073ffffffffffffffffffffffffffffffffffffffff1663d737d0c76040518163ffffffff1660e01b8152600401600060405180830381600087803b15801561012c57600080fd5b505af1158015610140573d6000803e3d6000fd5b5050505050565b600061015a61015584610306565b6102e1565b90508281526020810184848401111561017257600080fd5b61017d8482856103a1565b509392505050565b60008135905061019481610454565b92915050565b600082601f8301126101ab57600080fd5b81356101bb848260208601610147565b91505092915050565b6000813590506101d38161046b565b92915050565b6000602082840312156101eb57600080fd5b60006101f984828501610185565b91505092915050565b60008060006060848603121561021757600080fd5b600061022586828701610185565b9350506020610236868287016101c4565b925050604084013567ffffffffffffffff81111561025357600080fd5b61025f8682870161019a565b9150509250925092565b600061027482610337565b61027e8185610342565b935061028e8185602086016103b0565b61029781610443565b840191505092915050565b6102ab81610397565b82525050565b60006040820190506102c660008301856102a2565b81810360208301526102d88184610269565b90509392505050565b60006102eb6102fc565b90506102f782826103e3565b919050565b6000604051905090565b600067ffffffffffffffff82111561032157610320610414565b5b61032a82610443565b9050602081019050919050565b600081519050919050565b600082825260208201905092915050565b600061035e82610377565b9050919050565b600061037082610353565b9050919050565b600073ffffffffffffffffffffffffffffffffffffffff82169050919050565b6000819050919050565b82818337600083830152505050565b60005b838110156103ce5780820151818401526020810190506103b3565b838111156103dd576000848401525b50505050565b6103ec82610443565b810181811067ffffffffffffffff8211171561040b5761040a610414565b5b80604052505050565b7f4e487b7100000000000000000000000000000000000000000000000000000000600052604160045260246000fd5b6000601f19601f8301169050919050565b61045d81610365565b811461046857600080fd5b50565b61047481610397565b811461047f57600080fd5b5056fea2646970667358221220672f59a1c9d75e00e1717e7120daed5ef895374cc60692b3778d67ba0473098264736f6c63430008020033",
  "linkReferences": {},
  "deployedLinkReferences": {}
}