{
  "_format": "hh-sol-artifact-1",
  "contractName": "ERC20VotesMock",
  "sourceName": "contracts/OZ/mocks/ERC20VotesMock.sol",
  "abi": [
    {
      "inputs": [
        {
          "internalType": "string",
          "name": "name",
          "type": "string"
        },
        {
          "internalType": "string",
          "name": "symbol",
          "type": "string"
        }
      ],
      "stateMutability": "nonpayable",
      "type": "constructor"
    },
    {
      "anonymous": false,
      "inputs": [
        {
          "indexed": true,
          "internalType": "address",
          "name": "owner",
          "type": "address"
        },
        {
          "indexed": true,
          "internalType": "address",
          "name": "spender",
          "type": "address"
        },
        {
          "indexed": false,
          "internalType": "uint256",
          "name": "value",
          "type": "uint256"
        }
      ],
      "name": "Approval",
      "type": "event"
    },
    {
      "anonymous": false,
      "inputs": [
        {
          "indexed": true,
          "internalType": "address",
          "name": "delegator",
          "type": "address"
        },
        {
          "indexed": true,
          "internalType": "address",
          "name": "fromDelegate",
          "type": "address"
        },
        {
          "indexed": true,
          "internalType": "address",
          "name": "toDelegate",
          "type": "address"
        }
      ],
      "name": "DelegateChanged",
      "type": "event"
    },
    {
      "anonymous": false,
      "inputs": [
        {
          "indexed": true,
          "internalType": "address",
          "name": "delegate",
          "type": "address"
        },
        {
          "indexed": false,
          "internalType": "uint256",
          "name": "previousBalance",
          "type": "uint256"
        },
        {
          "indexed": false,
          "internalType": "uint256",
          "name": "newBalance",
          "type": "uint256"
        }
      ],
      "name": "DelegateVotesChanged",
      "type": "event"
    },
    {
      "anonymous": false,
      "inputs": [
        {
          "indexed": true,
          "internalType": "address",
          "name": "from",
          "type": "address"
        },
        {
          "indexed": true,
          "internalType": "address",
          "name": "to",
          "type": "address"
        },
        {
          "indexed": false,
          "internalType": "uint256",
          "name": "value",
          "type": "uint256"
        }
      ],
      "name": "Transfer",
      "type": "event"
    },
    {
      "inputs": [],
      "name": "DOMAIN_SEPARATOR",
      "outputs": [
        {
          "internalType": "bytes32",
          "name": "",
          "type": "bytes32"
        }
      ],
      "stateMutability": "view",
      "type": "function"
    },
    {
      "inputs": [
        {
          "internalType": "address",
          "name": "owner",
          "type": "address"
        },
        {
          "internalType": "address",
          "name": "spender",
          "type": "address"
        }
      ],
      "name": "allowance",
      "outputs": [
        {
          "internalType": "uint256",
          "name": "",
          "type": "uint256"
        }
      ],
      "stateMutability": "view",
      "type": "function"
    },
    {
      "inputs": [
        {
          "internalType": "address",
          "name": "spender",
          "type": "address"
        },
        {
          "internalType": "uint256",
          "name": "amount",
          "type": "uint256"
        }
      ],
      "name": "approve",
      "outputs": [
        {
          "internalType": "bool",
          "name": "",
          "type": "bool"
        }
      ],
      "stateMutability": "nonpayable",
      "type": "function"
    },
    {
      "inputs": [
        {
          "internalType": "address",
          "name": "account",
          "type": "address"
        }
      ],
      "name": "balanceOf",
      "outputs": [
        {
          "internalType": "uint256",
          "name": "",
          "type": "uint256"
        }
      ],
      "stateMutability": "view",
      "type": "function"
    },
    {
      "inputs": [
        {
          "internalType": "address",
          "name": "account",
          "type": "address"
        },
        {
          "internalType": "uint256",
          "name": "amount",
          "type": "uint256"
        }
      ],
      "name": "burn",
      "outputs": [],
      "stateMutability": "nonpayable",
      "type": "function"
    },
    {
      "inputs": [
        {
          "internalType": "address",
          "name": "account",
          "type": "address"
        },
        {
          "internalType": "uint32",
          "name": "pos",
          "type": "uint32"
        }
      ],
      "name": "checkpoints",
      "outputs": [
        {
          "components": [
            {
              "internalType": "uint32",
              "name": "fromBlock",
              "type": "uint32"
            },
            {
              "internalType": "uint224",
              "name": "votes",
              "type": "uint224"
            }
          ],
          "internalType": "struct ERC20Votes.Checkpoint",
          "name": "",
          "type": "tuple"
        }
      ],
      "stateMutability": "view",
      "type": "function"
    },
    {
      "inputs": [],
      "name": "decimals",
      "outputs": [
        {
          "internalType": "uint8",
          "name": "",
          "type": "uint8"
        }
      ],
      "stateMutability": "view",
      "type": "function"
    },
    {
      "inputs": [
        {
          "internalType": "address",
          "name": "spender",
          "type": "address"
        },
        {
          "internalType": "uint256",
          "name": "subtractedValue",
          "type": "uint256"
        }
      ],
      "name": "decreaseAllowance",
      "outputs": [
        {
          "internalType": "bool",
          "name": "",
          "type": "bool"
        }
      ],
      "stateMutability": "nonpayable",
      "type": "function"
    },
    {
      "inputs": [
        {
          "internalType": "address",
          "name": "delegatee",
          "type": "address"
        }
      ],
      "name": "delegate",
      "outputs": [],
      "stateMutability": "nonpayable",
      "type": "function"
    },
    {
      "inputs": [
        {
          "internalType": "address",
          "name": "delegatee",
          "type": "address"
        },
        {
          "internalType": "uint256",
          "name": "nonce",
          "type": "uint256"
        },
        {
          "internalType": "uint256",
          "name": "expiry",
          "type": "uint256"
        },
        {
          "internalType": "uint8",
          "name": "v",
          "type": "uint8"
        },
        {
          "internalType": "bytes32",
          "name": "r",
          "type": "bytes32"
        },
        {
          "internalType": "bytes32",
          "name": "s",
          "type": "bytes32"
        }
      ],
      "name": "delegateBySig",
      "outputs": [],
      "stateMutability": "nonpayable",
      "type": "function"
    },
    {
      "inputs": [
        {
          "internalType": "address",
          "name": "account",
          "type": "address"
        }
      ],
      "name": "delegates",
      "outputs": [
        {
          "internalType": "address",
          "name": "",
          "type": "address"
        }
      ],
      "stateMutability": "view",
      "type": "function"
    },
    {
      "inputs": [],
      "name": "getChainId",
      "outputs": [
        {
          "internalType": "uint256",
          "name": "",
          "type": "uint256"
        }
      ],
      "stateMutability": "view",
      "type": "function"
    },
    {
      "inputs": [
        {
          "internalType": "uint256",
          "name": "blockNumber",
          "type": "uint256"
        }
      ],
      "name": "getPastTotalSupply",
      "outputs": [
        {
          "internalType": "uint256",
          "name": "",
          "type": "uint256"
        }
      ],
      "stateMutability": "view",
      "type": "function"
    },
    {
      "inputs": [
        {
          "internalType": "address",
          "name": "account",
          "type": "address"
        },
        {
          "internalType": "uint256",
          "name": "blockNumber",
          "type": "uint256"
        }
      ],
      "name": "getPastVotes",
      "outputs": [
        {
          "internalType": "uint256",
          "name": "",
          "type": "uint256"
        }
      ],
      "stateMutability": "view",
      "type": "function"
    },
    {
      "inputs": [
        {
          "internalType": "address",
          "name": "account",
          "type": "address"
        }
      ],
      "name": "getVotes",
      "outputs": [
        {
          "internalType": "uint256",
          "name": "",
          "type": "uint256"
        }
      ],
      "stateMutability": "view",
      "type": "function"
    },
    {
      "inputs": [
        {
          "internalType": "address",
          "name": "spender",
          "type": "address"
        },
        {
          "internalType": "uint256",
          "name": "addedValue",
          "type": "uint256"
        }
      ],
      "name": "increaseAllowance",
      "outputs": [
        {
          "internalType": "bool",
          "name": "",
          "type": "bool"
        }
      ],
      "stateMutability": "nonpayable",
      "type": "function"
    },
    {
      "inputs": [
        {
          "internalType": "address",
          "name": "account",
          "type": "address"
        },
        {
          "internalType": "uint256",
          "name": "amount",
          "type": "uint256"
        }
      ],
      "name": "mint",
      "outputs": [],
      "stateMutability": "nonpayable",
      "type": "function"
    },
    {
      "inputs": [],
      "name": "name",
      "outputs": [
        {
          "internalType": "string",
          "name": "",
          "type": "string"
        }
      ],
      "stateMutability": "view",
      "type": "function"
    },
    {
      "inputs": [
        {
          "internalType": "address",
          "name": "owner",
          "type": "address"
        }
      ],
      "name": "nonces",
      "outputs": [
        {
          "internalType": "uint256",
          "name": "",
          "type": "uint256"
        }
      ],
      "stateMutability": "view",
      "type": "function"
    },
    {
      "inputs": [
        {
          "internalType": "address",
          "name": "account",
          "type": "address"
        }
      ],
      "name": "numCheckpoints",
      "outputs": [
        {
          "internalType": "uint32",
          "name": "",
          "type": "uint32"
        }
      ],
      "stateMutability": "view",
      "type": "function"
    },
    {
      "inputs": [
        {
          "internalType": "address",
          "name": "owner",
          "type": "address"
        },
        {
          "internalType": "address",
          "name": "spender",
          "type": "address"
        },
        {
          "internalType": "uint256",
          "name": "value",
          "type": "uint256"
        },
        {
          "internalType": "uint256",
          "name": "deadline",
          "type": "uint256"
        },
        {
          "internalType": "uint8",
          "name": "v",
          "type": "uint8"
        },
        {
          "internalType": "bytes32",
          "name": "r",
          "type": "bytes32"
        },
        {
          "internalType": "bytes32",
          "name": "s",
          "type": "bytes32"
        }
      ],
      "name": "permit",
      "outputs": [],
      "stateMutability": "nonpayable",
      "type": "function"
    },
    {
      "inputs": [],
      "name": "symbol",
      "outputs": [
        {
          "internalType": "string",
          "name": "",
          "type": "string"
        }
      ],
      "stateMutability": "view",
      "type": "function"
    },
    {
      "inputs": [],
      "name": "totalSupply",
      "outputs": [
        {
          "internalType": "uint256",
          "name": "",
          "type": "uint256"
        }
      ],
      "stateMutability": "view",
      "type": "function"
    },
    {
      "inputs": [
        {
          "internalType": "address",
          "name": "recipient",
          "type": "address"
        },
        {
          "internalType": "uint256",
          "name": "amount",
          "type": "uint256"
        }
      ],
      "name": "transfer",
      "outputs": [
        {
          "internalType": "bool",
          "name": "",
          "type": "bool"
        }
      ],
      "stateMutability": "nonpayable",
      "type": "function"
    },
    {
      "inputs": [
        {
          "internalType": "address",
          "name": "sender",
          "type": "address"
        },
        {
          "internalType": "address",
          "name": "recipient",
          "type": "address"
        },
        {
          "internalType": "uint256",
          "name": "amount",
          "type": "uint256"
        }
      ],
      "name": "transferFrom",
      "outputs": [
        {
          "internalType": "bool",
          "name": "",
          "type": "bool"
        }
      ],
      "stateMutability": "nonpayable",
      "type": "function"
    }
  ],
  "bytecode": "0x6101606040527f6e71edae12b1b97f4d1f60370fef10105fa2faae0126114a169c64845d6126c9610140908152503480156200003a57600080fd5b506040516200442b3803806200442b8339818101604052810190620000609190620002ea565b81806040518060400160405280600181526020017f310000000000000000000000000000000000000000000000000000000000000081525084848160039080519060200190620000b2929190620001c8565b508060049080519060200190620000cb929190620001c8565b50505060008280519060200120905060008280519060200120905060007f8b73c3c69bb8fe3d512ecc4cf759cc79239f7b179b0ffacaa9a75d522b39400f90508260e081815250508161010081815250504660a08181525050620001378184846200018c60201b60201c565b608081815250503073ffffffffffffffffffffffffffffffffffffffff1660c08173ffffffffffffffffffffffffffffffffffffffff1660601b815250508061012081815250505050505050505050620005a5565b60008383834630604051602001620001a995949392919062000390565b6040516020818303038152906040528051906020012090509392505050565b828054620001d690620004ca565b90600052602060002090601f016020900481019282620001fa576000855562000246565b82601f106200021557805160ff191683800117855562000246565b8280016001018555821562000246579182015b828111156200024557825182559160200191906001019062000228565b5b50905062000255919062000259565b5090565b5b80821115620002745760008160009055506001016200025a565b5090565b60006200028f620002898462000416565b620003ed565b905082815260208101848484011115620002a857600080fd5b620002b584828562000494565b509392505050565b600082601f830112620002cf57600080fd5b8151620002e184826020860162000278565b91505092915050565b60008060408385031215620002fe57600080fd5b600083015167ffffffffffffffff8111156200031957600080fd5b6200032785828601620002bd565b925050602083015167ffffffffffffffff8111156200034557600080fd5b6200035385828601620002bd565b9150509250929050565b62000368816200044c565b82525050565b620003798162000460565b82525050565b6200038a816200048a565b82525050565b600060a082019050620003a760008301886200036e565b620003b660208301876200036e565b620003c560408301866200036e565b620003d460608301856200037f565b620003e360808301846200035d565b9695505050505050565b6000620003f96200040c565b905062000407828262000500565b919050565b6000604051905090565b600067ffffffffffffffff82111562000434576200043362000565565b5b6200043f8262000594565b9050602081019050919050565b600062000459826200046a565b9050919050565b6000819050919050565b600073ffffffffffffffffffffffffffffffffffffffff82169050919050565b6000819050919050565b60005b83811015620004b457808201518184015260208101905062000497565b83811115620004c4576000848401525b50505050565b60006002820490506001821680620004e357607f821691505b60208210811415620004fa57620004f962000536565b5b50919050565b6200050b8262000594565b810181811067ffffffffffffffff821117156200052d576200052c62000565565b5b80604052505050565b7f4e487b7100000000000000000000000000000000000000000000000000000000600052602260045260246000fd5b7f4e487b7100000000000000000000000000000000000000000000000000000000600052604160045260246000fd5b6000601f19601f8301169050919050565b60805160a05160c05160601c60e051610100516101205161014051613e28620006036000396000610e620152600061161c0152600061165e0152600061163d01526000611572015260006115c8015260006115f10152613e286000f3fe608060405234801561001057600080fd5b50600436106101735760003560e01c80636fcfff45116100de5780639dc29fac11610097578063c3cda52011610071578063c3cda520146104c0578063d505accf146104dc578063dd62ed3e146104f8578063f1127ed81461052857610173565b80639dc29fac14610444578063a457c2d714610460578063a9059cbb1461049057610173565b80636fcfff451461033657806370a08231146103665780637ecebe00146103965780638e539e8c146103c657806395d89b41146103f65780639ab24eb01461041457610173565b80633644e515116101305780633644e51514610250578063395093511461026e5780633a46b1a81461029e57806340c10f19146102ce578063587cde1e146102ea5780635c19a95c1461031a57610173565b806306fdde0314610178578063095ea7b31461019657806318160ddd146101c657806323b872dd146101e4578063313ce567146102145780633408e47014610232575b600080fd5b610180610558565b60405161018d91906131bf565b60405180910390f35b6101b060048036038101906101ab9190612ab3565b6105ea565b6040516101bd919061304b565b60405180910390f35b6101ce610608565b6040516101db91906134bc565b60405180910390f35b6101fe60048036038101906101f991906129c6565b610612565b60405161020b919061304b565b60405180910390f35b61021c61070a565b604051610229919061351b565b60405180910390f35b61023a610713565b60405161024791906134bc565b60405180910390f35b61025861071b565b6040516102659190613066565b60405180910390f35b61028860048036038101906102839190612ab3565b61072a565b604051610295919061304b565b60405180910390f35b6102b860048036038101906102b39190612ab3565b6107d6565b6040516102c591906134bc565b60405180910390f35b6102e860048036038101906102e39190612ab3565b61086a565b005b61030460048036038101906102ff9190612961565b610878565b6040516103119190613030565b60405180910390f35b610334600480360381019061032f9190612961565b6108e1565b005b610350600480360381019061034b9190612961565b6108f5565b60405161035d9190613500565b60405180910390f35b610380600480360381019061037b9190612961565b610949565b60405161038d91906134bc565b60405180910390f35b6103b060048036038101906103ab9190612961565b610991565b6040516103bd91906134bc565b60405180910390f35b6103e060048036038101906103db9190612bb4565b6109e1565b6040516103ed91906134bc565b60405180910390f35b6103fe610a37565b60405161040b91906131bf565b60405180910390f35b61042e60048036038101906104299190612961565b610ac9565b60405161043b91906134bc565b60405180910390f35b61045e60048036038101906104599190612ab3565b610c00565b005b61047a60048036038101906104759190612ab3565b610c0e565b604051610487919061304b565b60405180910390f35b6104aa60048036038101906104a59190612ab3565b610cf9565b6040516104b7919061304b565b60405180910390f35b6104da60048036038101906104d59190612aef565b610d17565b005b6104f660048036038101906104f19190612a15565b610e1b565b005b610512600480360381019061050d919061298a565b610f5d565b60405161051f91906134bc565b60405180910390f35b610542600480360381019061053d9190612b78565b610fe4565b60405161054f91906134a1565b60405180910390f35b606060038054610567906136e2565b80601f0160208091040260200160405190810160405280929190818152602001828054610593906136e2565b80156105e05780601f106105b5576101008083540402835291602001916105e0565b820191906000526020600020905b8154815290600101906020018083116105c357829003601f168201915b5050505050905090565b60006105fe6105f761111a565b8484611122565b6001905092915050565b6000600254905090565b600061061f8484846112ed565b6000600160008673ffffffffffffffffffffffffffffffffffffffff1673ffffffffffffffffffffffffffffffffffffffff168152602001908152602001600020600061066a61111a565b73ffffffffffffffffffffffffffffffffffffffff1673ffffffffffffffffffffffffffffffffffffffff168152602001908152602001600020549050828110156106ea576040517f08c379a00000000000000000000000000000000000000000000000000000000081526004016106e190613381565b60405180910390fd5b6106fe856106f661111a565b858403611122565b60019150509392505050565b60006012905090565b600046905090565b600061072561156e565b905090565b60006107cc61073761111a565b84846001600061074561111a565b73ffffffffffffffffffffffffffffffffffffffff1673ffffffffffffffffffffffffffffffffffffffff16815260200190815260200160002060008873ffffffffffffffffffffffffffffffffffffffff1673ffffffffffffffffffffffffffffffffffffffff168152602001908152602001600020546107c7919061355d565b611122565b6001905092915050565b600043821061081a576040517f08c379a000000000000000000000000000000000000000000000000000000000815260040161081190613221565b60405180910390fd5b610862600760008573ffffffffffffffffffffffffffffffffffffffff1673ffffffffffffffffffffffffffffffffffffffff16815260200190815260200160002083611688565b905092915050565b61087482826117e0565b5050565b6000600660008373ffffffffffffffffffffffffffffffffffffffff1673ffffffffffffffffffffffffffffffffffffffff16815260200190815260200160002060009054906101000a900473ffffffffffffffffffffffffffffffffffffffff169050919050565b6108f26108ec61111a565b8261186d565b50565b6000610942600760008473ffffffffffffffffffffffffffffffffffffffff1673ffffffffffffffffffffffffffffffffffffffff16815260200190815260200160002080549050611987565b9050919050565b60008060008373ffffffffffffffffffffffffffffffffffffffff1673ffffffffffffffffffffffffffffffffffffffff168152602001908152602001600020549050919050565b60006109da600560008473ffffffffffffffffffffffffffffffffffffffff1673ffffffffffffffffffffffffffffffffffffffff1681526020019081526020016000206119da565b9050919050565b6000438210610a25576040517f08c379a0000000000000000000000000000000000000000000000000000000008152600401610a1c90613221565b60405180910390fd5b610a30600883611688565b9050919050565b606060048054610a46906136e2565b80601f0160208091040260200160405190810160405280929190818152602001828054610a72906136e2565b8015610abf5780601f10610a9457610100808354040283529160200191610abf565b820191906000526020600020905b815481529060010190602001808311610aa257829003601f168201915b5050505050905090565b600080600760008473ffffffffffffffffffffffffffffffffffffffff1673ffffffffffffffffffffffffffffffffffffffff16815260200190815260200160002080549050905060008114610bd757600760008473ffffffffffffffffffffffffffffffffffffffff1673ffffffffffffffffffffffffffffffffffffffff168152602001908152602001600020600182610b6591906135e4565b81548110610b9c577f4e487b7100000000000000000000000000000000000000000000000000000000600052603260045260246000fd5b9060005260206000200160000160049054906101000a90047bffffffffffffffffffffffffffffffffffffffffffffffffffffffff16610bda565b60005b7bffffffffffffffffffffffffffffffffffffffffffffffffffffffff16915050919050565b610c0a82826119e8565b5050565b60008060016000610c1d61111a565b73ffffffffffffffffffffffffffffffffffffffff1673ffffffffffffffffffffffffffffffffffffffff16815260200190815260200160002060008573ffffffffffffffffffffffffffffffffffffffff1673ffffffffffffffffffffffffffffffffffffffff16815260200190815260200160002054905082811015610cda576040517f08c379a0000000000000000000000000000000000000000000000000000000008152600401610cd190613461565b60405180910390fd5b610cee610ce561111a565b85858403611122565b600191505092915050565b6000610d0d610d0661111a565b84846112ed565b6001905092915050565b83421115610d5a576040517f08c379a0000000000000000000000000000000000000000000000000000000008152600401610d5190613241565b60405180910390fd5b6000610dbc610db47fe48329057bfd03d55e49b547132e39cffd9c1820ad7b9d4c5307691425d15adf898989604051602001610d9994939291906130e2565b60405160208183030381529060405280519060200120611a06565b858585611a20565b9050610dc781611a4b565b8614610e08576040517f08c379a0000000000000000000000000000000000000000000000000000000008152600401610dff906132a1565b60405180910390fd5b610e12818861186d565b50505050505050565b83421115610e5e576040517f08c379a0000000000000000000000000000000000000000000000000000000008152600401610e55906132e1565b60405180910390fd5b60007f0000000000000000000000000000000000000000000000000000000000000000888888610e8d8c611a4b565b89604051602001610ea396959493929190613081565b6040516020818303038152906040528051906020012090506000610ec682611a06565b90506000610ed682878787611a20565b90508973ffffffffffffffffffffffffffffffffffffffff168173ffffffffffffffffffffffffffffffffffffffff1614610f46576040517f08c379a0000000000000000000000000000000000000000000000000000000008152600401610f3d90613361565b60405180910390fd5b610f518a8a8a611122565b50505050505050505050565b6000600160008473ffffffffffffffffffffffffffffffffffffffff1673ffffffffffffffffffffffffffffffffffffffff16815260200190815260200160002060008373ffffffffffffffffffffffffffffffffffffffff1673ffffffffffffffffffffffffffffffffffffffff16815260200190815260200160002054905092915050565b610fec6128ba565b600760008473ffffffffffffffffffffffffffffffffffffffff1673ffffffffffffffffffffffffffffffffffffffff1681526020019081526020016000208263ffffffff1681548110611069577f4e487b7100000000000000000000000000000000000000000000000000000000600052603260045260246000fd5b906000526020600020016040518060400160405290816000820160009054906101000a900463ffffffff1663ffffffff1663ffffffff1681526020016000820160049054906101000a90047bffffffffffffffffffffffffffffffffffffffffffffffffffffffff167bffffffffffffffffffffffffffffffffffffffffffffffffffffffff167bffffffffffffffffffffffffffffffffffffffffffffffffffffffff1681525050905092915050565b600033905090565b600073ffffffffffffffffffffffffffffffffffffffff168373ffffffffffffffffffffffffffffffffffffffff161415611192576040517f08c379a000000000000000000000000000000000000000000000000000000000815260040161118990613441565b60405180910390fd5b600073ffffffffffffffffffffffffffffffffffffffff168273ffffffffffffffffffffffffffffffffffffffff161415611202576040517f08c379a00000000000000000000000000000000000000000000000000000000081526004016111f9906132c1565b60405180910390fd5b80600160008573ffffffffffffffffffffffffffffffffffffffff1673ffffffffffffffffffffffffffffffffffffffff16815260200190815260200160002060008473ffffffffffffffffffffffffffffffffffffffff1673ffffffffffffffffffffffffffffffffffffffff168152602001908152602001600020819055508173ffffffffffffffffffffffffffffffffffffffff168373ffffffffffffffffffffffffffffffffffffffff167f8c5be1e5ebec7d5bd14f71427d1e84f3dd0314c0f7b2291e5b200ac8c7c3b925836040516112e091906134bc565b60405180910390a3505050565b600073ffffffffffffffffffffffffffffffffffffffff168373ffffffffffffffffffffffffffffffffffffffff16141561135d576040517f08c379a000000000000000000000000000000000000000000000000000000000815260040161135490613401565b60405180910390fd5b600073ffffffffffffffffffffffffffffffffffffffff168273ffffffffffffffffffffffffffffffffffffffff1614156113cd576040517f08c379a00000000000000000000000000000000000000000000000000000000081526004016113c490613201565b60405180910390fd5b6113d8838383611aa9565b60008060008573ffffffffffffffffffffffffffffffffffffffff1673ffffffffffffffffffffffffffffffffffffffff1681526020019081526020016000205490508181101561145e576040517f08c379a000000000000000000000000000000000000000000000000000000000815260040161145590613301565b60405180910390fd5b8181036000808673ffffffffffffffffffffffffffffffffffffffff1673ffffffffffffffffffffffffffffffffffffffff16815260200190815260200160002081905550816000808573ffffffffffffffffffffffffffffffffffffffff1673ffffffffffffffffffffffffffffffffffffffff16815260200190815260200160002060008282546114f1919061355d565b925050819055508273ffffffffffffffffffffffffffffffffffffffff168473ffffffffffffffffffffffffffffffffffffffff167fddf252ad1be2c89b69c2b068fc378daa952ba7f163c4a11628f55a4df523b3ef8460405161155591906134bc565b60405180910390a3611568848484611aae565b50505050565b60007f000000000000000000000000000000000000000000000000000000000000000073ffffffffffffffffffffffffffffffffffffffff163073ffffffffffffffffffffffffffffffffffffffff161480156115ea57507f000000000000000000000000000000000000000000000000000000000000000046145b15611617577f00000000000000000000000000000000000000000000000000000000000000009050611685565b6116827f00000000000000000000000000000000000000000000000000000000000000007f00000000000000000000000000000000000000000000000000000000000000007f0000000000000000000000000000000000000000000000000000000000000000611ad9565b90505b90565b6000808380549050905060005b8181101561172d5760006116a98284611b13565b9050848682815481106116e5577f4e487b7100000000000000000000000000000000000000000000000000000000600052603260045260246000fd5b9060005260206000200160000160009054906101000a900463ffffffff1663ffffffff16111561171757809250611727565b600181611724919061355d565b91505b50611695565b600082146117b5578460018361174391906135e4565b8154811061177a577f4e487b7100000000000000000000000000000000000000000000000000000000600052603260045260246000fd5b9060005260206000200160000160049054906101000a90047bffffffffffffffffffffffffffffffffffffffffffffffffffffffff166117b8565b60005b7bffffffffffffffffffffffffffffffffffffffffffffffffffffffff169250505092915050565b6117ea8282611b39565b6117f2611c99565b7bffffffffffffffffffffffffffffffffffffffffffffffffffffffff16611818610608565b1115611859576040517f08c379a0000000000000000000000000000000000000000000000000000000008152600401611850906133a1565b60405180910390fd5b6118676008611cbd83611cd3565b50505050565b600061187883610878565b9050600061188584610949565b905082600660008673ffffffffffffffffffffffffffffffffffffffff1673ffffffffffffffffffffffffffffffffffffffff16815260200190815260200160002060006101000a81548173ffffffffffffffffffffffffffffffffffffffff021916908373ffffffffffffffffffffffffffffffffffffffff1602179055508273ffffffffffffffffffffffffffffffffffffffff168273ffffffffffffffffffffffffffffffffffffffff168573ffffffffffffffffffffffffffffffffffffffff167f3134e8a2e6d97e929a7e54011ea5485d7d196dd5f0ba4d4ef95803e8e3fc257f60405160405180910390a4611981828483611fbd565b50505050565b600063ffffffff80168211156119d2576040517f08c379a00000000000000000000000000000000000000000000000000000000081526004016119c990613421565b60405180910390fd5b819050919050565b600081600001549050919050565b6119f282826121b6565b611a00600861238d83611cd3565b50505050565b6000611a19611a1361156e565b836123a3565b9050919050565b6000806000611a31878787876123d6565b91509150611a3e816124e3565b8192505050949350505050565b600080600560008473ffffffffffffffffffffffffffffffffffffffff1673ffffffffffffffffffffffffffffffffffffffff1681526020019081526020016000209050611a98816119da565b9150611aa381612834565b50919050565b505050565b611ab983838361284a565b611ad4611ac584610878565b611ace84610878565b83611fbd565b505050565b60008383834630604051602001611af4959493929190613127565b6040516020818303038152906040528051906020012090509392505050565b60006002828418611b2491906135b3565b828416611b31919061355d565b905092915050565b600073ffffffffffffffffffffffffffffffffffffffff168273ffffffffffffffffffffffffffffffffffffffff161415611ba9576040517f08c379a0000000000000000000000000000000000000000000000000000000008152600401611ba090613481565b60405180910390fd5b611bb560008383611aa9565b8060026000828254611bc7919061355d565b92505081905550806000808473ffffffffffffffffffffffffffffffffffffffff1673ffffffffffffffffffffffffffffffffffffffff1681526020019081526020016000206000828254611c1c919061355d565b925050819055508173ffffffffffffffffffffffffffffffffffffffff16600073ffffffffffffffffffffffffffffffffffffffff167fddf252ad1be2c89b69c2b068fc378daa952ba7f163c4a11628f55a4df523b3ef83604051611c8191906134bc565b60405180910390a3611c9560008383611aae565b5050565b60007bffffffffffffffffffffffffffffffffffffffffffffffffffffffff905090565b60008183611ccb919061355d565b905092915050565b60008060008580549050905060008114611d675785600182611cf591906135e4565b81548110611d2c577f4e487b7100000000000000000000000000000000000000000000000000000000600052603260045260246000fd5b9060005260206000200160000160049054906101000a90047bffffffffffffffffffffffffffffffffffffffffffffffffffffffff16611d6a565b60005b7bffffffffffffffffffffffffffffffffffffffffffffffffffffffff169250611d9883858763ffffffff16565b9150600081118015611e1157504386600183611db491906135e4565b81548110611deb577f4e487b7100000000000000000000000000000000000000000000000000000000600052603260045260246000fd5b9060005260206000200160000160009054906101000a900463ffffffff1663ffffffff16145b15611ec457611e1f8261284f565b86600183611e2d91906135e4565b81548110611e64577f4e487b7100000000000000000000000000000000000000000000000000000000600052603260045260246000fd5b9060005260206000200160000160046101000a8154817bffffffffffffffffffffffffffffffffffffffffffffffffffffffff02191690837bffffffffffffffffffffffffffffffffffffffffffffffffffffffff160217905550611fb4565b856040518060400160405280611ed943611987565b63ffffffff168152602001611eed8561284f565b7bffffffffffffffffffffffffffffffffffffffffffffffffffffffff168152509080600181540180825580915050600190039060005260206000200160009091909190915060008201518160000160006101000a81548163ffffffff021916908363ffffffff16021790555060208201518160000160046101000a8154817bffffffffffffffffffffffffffffffffffffffffffffffffffffffff02191690837bffffffffffffffffffffffffffffffffffffffffffffffffffffffff16021790555050505b50935093915050565b8173ffffffffffffffffffffffffffffffffffffffff168373ffffffffffffffffffffffffffffffffffffffff1614158015611ff95750600081115b156121b157600073ffffffffffffffffffffffffffffffffffffffff168373ffffffffffffffffffffffffffffffffffffffff16146120d757600080612080600760008773ffffffffffffffffffffffffffffffffffffffff1673ffffffffffffffffffffffffffffffffffffffff16815260200190815260200160002061238d85611cd3565b915091508473ffffffffffffffffffffffffffffffffffffffff167fdec2bacdd2f05b59de34da9b523dff8be42e5e38e818c82fdb0bae774387a72483836040516120cc9291906134d7565b60405180910390a250505b600073ffffffffffffffffffffffffffffffffffffffff168273ffffffffffffffffffffffffffffffffffffffff16146121b057600080612159600760008673ffffffffffffffffffffffffffffffffffffffff1673ffffffffffffffffffffffffffffffffffffffff168152602001908152602001600020611cbd85611cd3565b915091508373ffffffffffffffffffffffffffffffffffffffff167fdec2bacdd2f05b59de34da9b523dff8be42e5e38e818c82fdb0bae774387a72483836040516121a59291906134d7565b60405180910390a250505b5b505050565b600073ffffffffffffffffffffffffffffffffffffffff168273ffffffffffffffffffffffffffffffffffffffff161415612226576040517f08c379a000000000000000000000000000000000000000000000000000000000815260040161221d906133e1565b60405180910390fd5b61223282600083611aa9565b60008060008473ffffffffffffffffffffffffffffffffffffffff1673ffffffffffffffffffffffffffffffffffffffff168152602001908152602001600020549050818110156122b8576040517f08c379a00000000000000000000000000000000000000000000000000000000081526004016122af90613261565b60405180910390fd5b8181036000808573ffffffffffffffffffffffffffffffffffffffff1673ffffffffffffffffffffffffffffffffffffffff16815260200190815260200160002081905550816002600082825461230f91906135e4565b92505081905550600073ffffffffffffffffffffffffffffffffffffffff168373ffffffffffffffffffffffffffffffffffffffff167fddf252ad1be2c89b69c2b068fc378daa952ba7f163c4a11628f55a4df523b3ef8460405161237491906134bc565b60405180910390a361238883600084611aae565b505050565b6000818361239b91906135e4565b905092915050565b600082826040516020016123b8929190612ff9565b60405160208183030381529060405280519060200120905092915050565b6000807f7fffffffffffffffffffffffffffffff5d576e7357a4501ddfe92f46681b20a08360001c11156124115760006003915091506124da565b601b8560ff16141580156124295750601c8560ff1614155b1561243b5760006004915091506124da565b600060018787878760405160008152602001604052604051612460949392919061317a565b6020604051602081039080840390855afa158015612482573d6000803e3d6000fd5b505050602060405103519050600073ffffffffffffffffffffffffffffffffffffffff168173ffffffffffffffffffffffffffffffffffffffff1614156124d1576000600192509250506124da565b80600092509250505b94509492505050565b6000600481111561251d577f4e487b7100000000000000000000000000000000000000000000000000000000600052602160045260246000fd5b816004811115612556577f4e487b7100000000000000000000000000000000000000000000000000000000600052602160045260246000fd5b141561256157612831565b6001600481111561259b577f4e487b7100000000000000000000000000000000000000000000000000000000600052602160045260246000fd5b8160048111156125d4577f4e487b7100000000000000000000000000000000000000000000000000000000600052602160045260246000fd5b1415612615576040517f08c379a000000000000000000000000000000000000000000000000000000000815260040161260c906131e1565b60405180910390fd5b6002600481111561264f577f4e487b7100000000000000000000000000000000000000000000000000000000600052602160045260246000fd5b816004811115612688577f4e487b7100000000000000000000000000000000000000000000000000000000600052602160045260246000fd5b14156126c9576040517f08c379a00000000000000000000000000000000000000000000000000000000081526004016126c090613281565b60405180910390fd5b60036004811115612703577f4e487b7100000000000000000000000000000000000000000000000000000000600052602160045260246000fd5b81600481111561273c577f4e487b7100000000000000000000000000000000000000000000000000000000600052602160045260246000fd5b141561277d576040517f08c379a000000000000000000000000000000000000000000000000000000000815260040161277490613321565b60405180910390fd5b6004808111156127b6577f4e487b7100000000000000000000000000000000000000000000000000000000600052602160045260246000fd5b8160048111156127ef577f4e487b7100000000000000000000000000000000000000000000000000000000600052602160045260246000fd5b1415612830576040517f08c379a000000000000000000000000000000000000000000000000000000000815260040161282790613341565b60405180910390fd5b5b50565b6001816000016000828254019250508190555050565b505050565b60007bffffffffffffffffffffffffffffffffffffffffffffffffffffffff80168211156128b2576040517f08c379a00000000000000000000000000000000000000000000000000000000081526004016128a9906133c1565b60405180910390fd5b819050919050565b6040518060400160405280600063ffffffff16815260200160007bffffffffffffffffffffffffffffffffffffffffffffffffffffffff1681525090565b60008135905061290781613d7f565b92915050565b60008135905061291c81613d96565b92915050565b60008135905061293181613dad565b92915050565b60008135905061294681613dc4565b92915050565b60008135905061295b81613ddb565b92915050565b60006020828403121561297357600080fd5b6000612981848285016128f8565b91505092915050565b6000806040838503121561299d57600080fd5b60006129ab858286016128f8565b92505060206129bc858286016128f8565b9150509250929050565b6000806000606084860312156129db57600080fd5b60006129e9868287016128f8565b93505060206129fa868287016128f8565b9250506040612a0b86828701612922565b9150509250925092565b600080600080600080600060e0888a031215612a3057600080fd5b6000612a3e8a828b016128f8565b9750506020612a4f8a828b016128f8565b9650506040612a608a828b01612922565b9550506060612a718a828b01612922565b9450506080612a828a828b0161294c565b93505060a0612a938a828b0161290d565b92505060c0612aa48a828b0161290d565b91505092959891949750929550565b60008060408385031215612ac657600080fd5b6000612ad4858286016128f8565b9250506020612ae585828601612922565b9150509250929050565b60008060008060008060c08789031215612b0857600080fd5b6000612b1689828a016128f8565b9650506020612b2789828a01612922565b9550506040612b3889828a01612922565b9450506060612b4989828a0161294c565b9350506080612b5a89828a0161290d565b92505060a0612b6b89828a0161290d565b9150509295509295509295565b60008060408385031215612b8b57600080fd5b6000612b99858286016128f8565b9250506020612baa85828601612937565b9150509250929050565b600060208284031215612bc657600080fd5b6000612bd484828501612922565b91505092915050565b612be681613618565b82525050565b612bf58161362a565b82525050565b612c0481613636565b82525050565b612c1b612c1682613636565b613714565b82525050565b6000612c2c82613536565b612c368185613541565b9350612c468185602086016136af565b612c4f816137ab565b840191505092915050565b6000612c67601883613541565b9150612c72826137bc565b602082019050919050565b6000612c8a602383613541565b9150612c95826137e5565b604082019050919050565b6000612cad601f83613541565b9150612cb882613834565b602082019050919050565b6000612cd0601d83613541565b9150612cdb8261385d565b602082019050919050565b6000612cf3602283613541565b9150612cfe82613886565b604082019050919050565b6000612d16601f83613541565b9150612d21826138d5565b602082019050919050565b6000612d39601983613541565b9150612d44826138fe565b602082019050919050565b6000612d5c602283613541565b9150612d6782613927565b604082019050919050565b6000612d7f600283613552565b9150612d8a82613976565b600282019050919050565b6000612da2601d83613541565b9150612dad8261399f565b602082019050919050565b6000612dc5602683613541565b9150612dd0826139c8565b604082019050919050565b6000612de8602283613541565b9150612df382613a17565b604082019050919050565b6000612e0b602283613541565b9150612e1682613a66565b604082019050919050565b6000612e2e601e83613541565b9150612e3982613ab5565b602082019050919050565b6000612e51602883613541565b9150612e5c82613ade565b604082019050919050565b6000612e74603083613541565b9150612e7f82613b2d565b604082019050919050565b6000612e97602783613541565b9150612ea282613b7c565b604082019050919050565b6000612eba602183613541565b9150612ec582613bcb565b604082019050919050565b6000612edd602583613541565b9150612ee882613c1a565b604082019050919050565b6000612f00602683613541565b9150612f0b82613c69565b604082019050919050565b6000612f23602483613541565b9150612f2e82613cb8565b604082019050919050565b6000612f46602583613541565b9150612f5182613d07565b604082019050919050565b6000612f69601f83613541565b9150612f7482613d56565b602082019050919050565b604082016000820151612f956000850182612fcc565b506020820151612fa86020850182612fae565b50505050565b612fb781613660565b82525050565b612fc681613688565b82525050565b612fd581613692565b82525050565b612fe481613692565b82525050565b612ff3816136a2565b82525050565b600061300482612d72565b91506130108285612c0a565b6020820191506130208284612c0a565b6020820191508190509392505050565b60006020820190506130456000830184612bdd565b92915050565b60006020820190506130606000830184612bec565b92915050565b600060208201905061307b6000830184612bfb565b92915050565b600060c0820190506130966000830189612bfb565b6130a36020830188612bdd565b6130b06040830187612bdd565b6130bd6060830186612fbd565b6130ca6080830185612fbd565b6130d760a0830184612fbd565b979650505050505050565b60006080820190506130f76000830187612bfb565b6131046020830186612bdd565b6131116040830185612fbd565b61311e6060830184612fbd565b95945050505050565b600060a08201905061313c6000830188612bfb565b6131496020830187612bfb565b6131566040830186612bfb565b6131636060830185612fbd565b6131706080830184612bdd565b9695505050505050565b600060808201905061318f6000830187612bfb565b61319c6020830186612fea565b6131a96040830185612bfb565b6131b66060830184612bfb565b95945050505050565b600060208201905081810360008301526131d98184612c21565b905092915050565b600060208201905081810360008301526131fa81612c5a565b9050919050565b6000602082019050818103600083015261321a81612c7d565b9050919050565b6000602082019050818103600083015261323a81612ca0565b9050919050565b6000602082019050818103600083015261325a81612cc3565b9050919050565b6000602082019050818103600083015261327a81612ce6565b9050919050565b6000602082019050818103600083015261329a81612d09565b9050919050565b600060208201905081810360008301526132ba81612d2c565b9050919050565b600060208201905081810360008301526132da81612d4f565b9050919050565b600060208201905081810360008301526132fa81612d95565b9050919050565b6000602082019050818103600083015261331a81612db8565b9050919050565b6000602082019050818103600083015261333a81612ddb565b9050919050565b6000602082019050818103600083015261335a81612dfe565b9050919050565b6000602082019050818103600083015261337a81612e21565b9050919050565b6000602082019050818103600083015261339a81612e44565b9050919050565b600060208201905081810360008301526133ba81612e67565b9050919050565b600060208201905081810360008301526133da81612e8a565b9050919050565b600060208201905081810360008301526133fa81612ead565b9050919050565b6000602082019050818103600083015261341a81612ed0565b9050919050565b6000602082019050818103600083015261343a81612ef3565b9050919050565b6000602082019050818103600083015261345a81612f16565b9050919050565b6000602082019050818103600083015261347a81612f39565b9050919050565b6000602082019050818103600083015261349a81612f5c565b9050919050565b60006040820190506134b66000830184612f7f565b92915050565b60006020820190506134d16000830184612fbd565b92915050565b60006040820190506134ec6000830185612fbd565b6134f96020830184612fbd565b9392505050565b60006020820190506135156000830184612fdb565b92915050565b60006020820190506135306000830184612fea565b92915050565b600081519050919050565b600082825260208201905092915050565b600081905092915050565b600061356882613688565b915061357383613688565b9250827fffffffffffffffffffffffffffffffffffffffffffffffffffffffffffffffff038211156135a8576135a761371e565b5b828201905092915050565b60006135be82613688565b91506135c983613688565b9250826135d9576135d861374d565b5b828204905092915050565b60006135ef82613688565b91506135fa83613688565b92508282101561360d5761360c61371e565b5b828203905092915050565b600061362382613640565b9050919050565b60008115159050919050565b6000819050919050565b600073ffffffffffffffffffffffffffffffffffffffff82169050919050565b60007bffffffffffffffffffffffffffffffffffffffffffffffffffffffff82169050919050565b6000819050919050565b600063ffffffff82169050919050565b600060ff82169050919050565b60005b838110156136cd5780820151818401526020810190506136b2565b838111156136dc576000848401525b50505050565b600060028204905060018216806136fa57607f821691505b6020821081141561370e5761370d61377c565b5b50919050565b6000819050919050565b7f4e487b7100000000000000000000000000000000000000000000000000000000600052601160045260246000fd5b7f4e487b7100000000000000000000000000000000000000000000000000000000600052601260045260246000fd5b7f4e487b7100000000000000000000000000000000000000000000000000000000600052602260045260246000fd5b6000601f19601f8301169050919050565b7f45434453413a20696e76616c6964207369676e61747572650000000000000000600082015250565b7f45524332303a207472616e7366657220746f20746865207a65726f206164647260008201527f6573730000000000000000000000000000000000000000000000000000000000602082015250565b7f4552433230566f7465733a20626c6f636b206e6f7420796574206d696e656400600082015250565b7f4552433230566f7465733a207369676e61747572652065787069726564000000600082015250565b7f45524332303a206275726e20616d6f756e7420657863656564732062616c616e60008201527f6365000000000000000000000000000000000000000000000000000000000000602082015250565b7f45434453413a20696e76616c6964207369676e6174757265206c656e67746800600082015250565b7f4552433230566f7465733a20696e76616c6964206e6f6e636500000000000000600082015250565b7f45524332303a20617070726f766520746f20746865207a65726f20616464726560008201527f7373000000000000000000000000000000000000000000000000000000000000602082015250565b7f1901000000000000000000000000000000000000000000000000000000000000600082015250565b7f45524332305065726d69743a206578706972656420646561646c696e65000000600082015250565b7f45524332303a207472616e7366657220616d6f756e742065786365656473206260008201527f616c616e63650000000000000000000000000000000000000000000000000000602082015250565b7f45434453413a20696e76616c6964207369676e6174757265202773272076616c60008201527f7565000000000000000000000000000000000000000000000000000000000000602082015250565b7f45434453413a20696e76616c6964207369676e6174757265202776272076616c60008201527f7565000000000000000000000000000000000000000000000000000000000000602082015250565b7f45524332305065726d69743a20696e76616c6964207369676e61747572650000600082015250565b7f45524332303a207472616e7366657220616d6f756e742065786365656473206160008201527f6c6c6f77616e6365000000000000000000000000000000000000000000000000602082015250565b7f4552433230566f7465733a20746f74616c20737570706c79207269736b73206f60008201527f766572666c6f77696e6720766f74657300000000000000000000000000000000602082015250565b7f53616665436173743a2076616c756520646f65736e27742066697420696e203260008201527f3234206269747300000000000000000000000000000000000000000000000000602082015250565b7f45524332303a206275726e2066726f6d20746865207a65726f2061646472657360008201527f7300000000000000000000000000000000000000000000000000000000000000602082015250565b7f45524332303a207472616e736665722066726f6d20746865207a65726f20616460008201527f6472657373000000000000000000000000000000000000000000000000000000602082015250565b7f53616665436173743a2076616c756520646f65736e27742066697420696e203360008201527f3220626974730000000000000000000000000000000000000000000000000000602082015250565b7f45524332303a20617070726f76652066726f6d20746865207a65726f2061646460008201527f7265737300000000000000000000000000000000000000000000000000000000602082015250565b7f45524332303a2064656372656173656420616c6c6f77616e63652062656c6f7760008201527f207a65726f000000000000000000000000000000000000000000000000000000602082015250565b7f45524332303a206d696e7420746f20746865207a65726f206164647265737300600082015250565b613d8881613618565b8114613d9357600080fd5b50565b613d9f81613636565b8114613daa57600080fd5b50565b613db681613688565b8114613dc157600080fd5b50565b613dcd81613692565b8114613dd857600080fd5b50565b613de4816136a2565b8114613def57600080fd5b5056fea26469706673582212208926961ae1120b3b85b74fe34561dc53720f70add9ccab8d24a615c1c37e4c7b64736f6c63430008020033",
  "linkReferences": {},
  "deployedLinkReferences": {}
}