{
  "_format": "hh-sol-artifact-1",
  "contractName": "ERC721BurnableMock",
  "sourceName": "contracts/OZ/mocks/ERC721BurnableMock.sol",
  "abi": [
    {
      "inputs": [
        {
          "internalType": "string",
          "name": "name",
          "type": "string"
        },
        {
          "internalType": "string",
          "name": "symbol",
          "type": "string"
        }
      ],
      "stateMutability": "nonpayable",
      "type": "constructor"
    },
    {
      "anonymous": false,
      "inputs": [
        {
          "indexed": true,
          "internalType": "address",
          "name": "owner",
          "type": "address"
        },
        {
          "indexed": true,
          "internalType": "address",
          "name": "approved",
          "type": "address"
        },
        {
          "indexed": true,
          "internalType": "uint256",
          "name": "tokenId",
          "type": "uint256"
        }
      ],
      "name": "Approval",
      "type": "event"
    },
    {
      "anonymous": false,
      "inputs": [
        {
          "indexed": true,
          "internalType": "address",
          "name": "owner",
          "type": "address"
        },
        {
          "indexed": true,
          "internalType": "address",
          "name": "operator",
          "type": "address"
        },
        {
          "indexed": false,
          "internalType": "bool",
          "name": "approved",
          "type": "bool"
        }
      ],
      "name": "ApprovalForAll",
      "type": "event"
    },
    {
      "anonymous": false,
      "inputs": [
        {
          "indexed": true,
          "internalType": "address",
          "name": "from",
          "type": "address"
        },
        {
          "indexed": true,
          "internalType": "address",
          "name": "to",
          "type": "address"
        },
        {
          "indexed": true,
          "internalType": "uint256",
          "name": "tokenId",
          "type": "uint256"
        }
      ],
      "name": "Transfer",
      "type": "event"
    },
    {
      "inputs": [
        {
          "internalType": "address",
          "name": "to",
          "type": "address"
        },
        {
          "internalType": "uint256",
          "name": "tokenId",
          "type": "uint256"
        }
      ],
      "name": "approve",
      "outputs": [],
      "stateMutability": "nonpayable",
      "type": "function"
    },
    {
      "inputs": [
        {
          "internalType": "address",
          "name": "owner",
          "type": "address"
        }
      ],
      "name": "balanceOf",
      "outputs": [
        {
          "internalType": "uint256",
          "name": "",
          "type": "uint256"
        }
      ],
      "stateMutability": "view",
      "type": "function"
    },
    {
      "inputs": [
        {
          "internalType": "uint256",
          "name": "tokenId",
          "type": "uint256"
        }
      ],
      "name": "burn",
      "outputs": [],
      "stateMutability": "nonpayable",
      "type": "function"
    },
    {
      "inputs": [
        {
          "internalType": "uint256",
          "name": "tokenId",
          "type": "uint256"
        }
      ],
      "name": "exists",
      "outputs": [
        {
          "internalType": "bool",
          "name": "",
          "type": "bool"
        }
      ],
      "stateMutability": "view",
      "type": "function"
    },
    {
      "inputs": [
        {
          "internalType": "uint256",
          "name": "tokenId",
          "type": "uint256"
        }
      ],
      "name": "getApproved",
      "outputs": [
        {
          "internalType": "address",
          "name": "",
          "type": "address"
        }
      ],
      "stateMutability": "view",
      "type": "function"
    },
    {
      "inputs": [
        {
          "internalType": "address",
          "name": "owner",
          "type": "address"
        },
        {
          "internalType": "address",
          "name": "operator",
          "type": "address"
        }
      ],
      "name": "isApprovedForAll",
      "outputs": [
        {
          "internalType": "bool",
          "name": "",
          "type": "bool"
        }
      ],
      "stateMutability": "view",
      "type": "function"
    },
    {
      "inputs": [
        {
          "internalType": "address",
          "name": "to",
          "type": "address"
        },
        {
          "internalType": "uint256",
          "name": "tokenId",
          "type": "uint256"
        }
      ],
      "name": "mint",
      "outputs": [],
      "stateMutability": "nonpayable",
      "type": "function"
    },
    {
      "inputs": [],
      "name": "name",
      "outputs": [
        {
          "internalType": "string",
          "name": "",
          "type": "string"
        }
      ],
      "stateMutability": "view",
      "type": "function"
    },
    {
      "inputs": [
        {
          "internalType": "uint256",
          "name": "tokenId",
          "type": "uint256"
        }
      ],
      "name": "ownerOf",
      "outputs": [
        {
          "internalType": "address",
          "name": "",
          "type": "address"
        }
      ],
      "stateMutability": "view",
      "type": "function"
    },
    {
      "inputs": [
        {
          "internalType": "address",
          "name": "to",
          "type": "address"
        },
        {
          "internalType": "uint256",
          "name": "tokenId",
          "type": "uint256"
        },
        {
          "internalType": "bytes",
          "name": "_data",
          "type": "bytes"
        }
      ],
      "name": "safeMint",
      "outputs": [],
      "stateMutability": "nonpayable",
      "type": "function"
    },
    {
      "inputs": [
        {
          "internalType": "address",
          "name": "to",
          "type": "address"
        },
        {
          "internalType": "uint256",
          "name": "tokenId",
          "type": "uint256"
        }
      ],
      "name": "safeMint",
      "outputs": [],
      "stateMutability": "nonpayable",
      "type": "function"
    },
    {
      "inputs": [
        {
          "internalType": "address",
          "name": "from",
          "type": "address"
        },
        {
          "internalType": "address",
          "name": "to",
          "type": "address"
        },
        {
          "internalType": "uint256",
          "name": "tokenId",
          "type": "uint256"
        }
      ],
      "name": "safeTransferFrom",
      "outputs": [],
      "stateMutability": "nonpayable",
      "type": "function"
    },
    {
      "inputs": [
        {
          "internalType": "address",
          "name": "from",
          "type": "address"
        },
        {
          "internalType": "address",
          "name": "to",
          "type": "address"
        },
        {
          "internalType": "uint256",
          "name": "tokenId",
          "type": "uint256"
        },
        {
          "internalType": "bytes",
          "name": "_data",
          "type": "bytes"
        }
      ],
      "name": "safeTransferFrom",
      "outputs": [],
      "stateMutability": "nonpayable",
      "type": "function"
    },
    {
      "inputs": [
        {
          "internalType": "address",
          "name": "operator",
          "type": "address"
        },
        {
          "internalType": "bool",
          "name": "approved",
          "type": "bool"
        }
      ],
      "name": "setApprovalForAll",
      "outputs": [],
      "stateMutability": "nonpayable",
      "type": "function"
    },
    {
      "inputs": [
        {
          "internalType": "bytes4",
          "name": "interfaceId",
          "type": "bytes4"
        }
      ],
      "name": "supportsInterface",
      "outputs": [
        {
          "internalType": "bool",
          "name": "",
          "type": "bool"
        }
      ],
      "stateMutability": "view",
      "type": "function"
    },
    {
      "inputs": [],
      "name": "symbol",
      "outputs": [
        {
          "internalType": "string",
          "name": "",
          "type": "string"
        }
      ],
      "stateMutability": "view",
      "type": "function"
    },
    {
      "inputs": [
        {
          "internalType": "uint256",
          "name": "tokenId",
          "type": "uint256"
        }
      ],
      "name": "tokenURI",
      "outputs": [
        {
          "internalType": "string",
          "name": "",
          "type": "string"
        }
      ],
      "stateMutability": "view",
      "type": "function"
    },
    {
      "inputs": [
        {
          "internalType": "address",
          "name": "from",
          "type": "address"
        },
        {
          "internalType": "address",
          "name": "to",
          "type": "address"
        },
        {
          "internalType": "uint256",
          "name": "tokenId",
          "type": "uint256"
        }
      ],
      "name": "transferFrom",
      "outputs": [],
      "stateMutability": "nonpayable",
      "type": "function"
    }
  ],
  "bytecode": "0x60806040523480156200001157600080fd5b5060405162002ddb38038062002ddb833981810160405281019062000037919062000197565b818181600090805190602001906200005192919062000075565b5080600190805190602001906200006a92919062000075565b50505050506200037a565b82805462000083906200029f565b90600052602060002090601f016020900481019282620000a75760008555620000f3565b82601f10620000c257805160ff1916838001178555620000f3565b82800160010185558215620000f3579182015b82811115620000f2578251825591602001919060010190620000d5565b5b50905062000102919062000106565b5090565b5b808211156200012157600081600090555060010162000107565b5090565b60006200013c620001368462000233565b6200020a565b9050828152602081018484840111156200015557600080fd5b6200016284828562000269565b509392505050565b600082601f8301126200017c57600080fd5b81516200018e84826020860162000125565b91505092915050565b60008060408385031215620001ab57600080fd5b600083015167ffffffffffffffff811115620001c657600080fd5b620001d4858286016200016a565b925050602083015167ffffffffffffffff811115620001f257600080fd5b62000200858286016200016a565b9150509250929050565b60006200021662000229565b9050620002248282620002d5565b919050565b6000604051905090565b600067ffffffffffffffff8211156200025157620002506200033a565b5b6200025c8262000369565b9050602081019050919050565b60005b83811015620002895780820151818401526020810190506200026c565b8381111562000299576000848401525b50505050565b60006002820490506001821680620002b857607f821691505b60208210811415620002cf57620002ce6200030b565b5b50919050565b620002e08262000369565b810181811067ffffffffffffffff821117156200030257620003016200033a565b5b80604052505050565b7f4e487b7100000000000000000000000000000000000000000000000000000000600052602260045260246000fd5b7f4e487b7100000000000000000000000000000000000000000000000000000000600052604160045260246000fd5b6000601f19601f8301169050919050565b612a51806200038a6000396000f3fe608060405234801561001057600080fd5b50600436106101165760003560e01c80636352211e116100a2578063a144819411610071578063a1448194146102ef578063a22cb4651461030b578063b88d4fde14610327578063c87b56dd14610343578063e985e9c51461037357610116565b80636352211e1461025557806370a08231146102855780638832e6e3146102b557806395d89b41146102d157610116565b806323b872dd116100e957806323b872dd146101b557806340c10f19146101d157806342842e0e146101ed57806342966c68146102095780634f558e791461022557610116565b806301ffc9a71461011b57806306fdde031461014b578063081812fc14610169578063095ea7b314610199575b600080fd5b61013560048036038101906101309190611bc1565b6103a3565b6040516101429190611fa4565b60405180910390f35b610153610485565b6040516101609190611fbf565b60405180910390f35b610183600480360381019061017e9190611c13565b610517565b6040516101909190611f3d565b60405180910390f35b6101b360048036038101906101ae9190611b1e565b61059c565b005b6101cf60048036038101906101ca9190611a18565b6106b4565b005b6101eb60048036038101906101e69190611b1e565b610714565b005b61020760048036038101906102029190611a18565b610722565b005b610223600480360381019061021e9190611c13565b610742565b005b61023f600480360381019061023a9190611c13565b61079e565b60405161024c9190611fa4565b60405180910390f35b61026f600480360381019061026a9190611c13565b6107b0565b60405161027c9190611f3d565b60405180910390f35b61029f600480360381019061029a91906119b3565b610862565b6040516102ac91906121c1565b60405180910390f35b6102cf60048036038101906102ca9190611b5a565b61091a565b005b6102d961092a565b6040516102e69190611fbf565b60405180910390f35b61030960048036038101906103049190611b1e565b6109bc565b005b61032560048036038101906103209190611ae2565b6109ca565b005b610341600480360381019061033c9190611a67565b6109e0565b005b61035d60048036038101906103589190611c13565b610a42565b60405161036a9190611fbf565b60405180910390f35b61038d600480360381019061038891906119dc565b610ae9565b60405161039a9190611fa4565b60405180910390f35b60007f80ac58cd000000000000000000000000000000000000000000000000000000007bffffffffffffffffffffffffffffffffffffffffffffffffffffffff1916827bffffffffffffffffffffffffffffffffffffffffffffffffffffffff1916148061046e57507f5b5e139f000000000000000000000000000000000000000000000000000000007bffffffffffffffffffffffffffffffffffffffffffffffffffffffff1916827bffffffffffffffffffffffffffffffffffffffffffffffffffffffff1916145b8061047e575061047d82610b7d565b5b9050919050565b606060008054610494906123e6565b80601f01602080910402602001604051908101604052809291908181526020018280546104c0906123e6565b801561050d5780601f106104e25761010080835404028352916020019161050d565b820191906000526020600020905b8154815290600101906020018083116104f057829003601f168201915b5050505050905090565b600061052282610be7565b610561576040517f08c379a000000000000000000000000000000000000000000000000000000000815260040161055890612101565b60405180910390fd5b6004600083815260200190815260200160002060009054906101000a900473ffffffffffffffffffffffffffffffffffffffff169050919050565b60006105a7826107b0565b90508073ffffffffffffffffffffffffffffffffffffffff168373ffffffffffffffffffffffffffffffffffffffff161415610618576040517f08c379a000000000000000000000000000000000000000000000000000000000815260040161060f90612161565b60405180910390fd5b8073ffffffffffffffffffffffffffffffffffffffff16610637610c53565b73ffffffffffffffffffffffffffffffffffffffff161480610666575061066581610660610c53565b610ae9565b5b6106a5576040517f08c379a000000000000000000000000000000000000000000000000000000000815260040161069c90612081565b60405180910390fd5b6106af8383610c5b565b505050565b6106c56106bf610c53565b82610d14565b610704576040517f08c379a00000000000000000000000000000000000000000000000000000000081526004016106fb90612181565b60405180910390fd5b61070f838383610df2565b505050565b61071e828261104e565b5050565b61073d838383604051806020016040528060008152506109e0565b505050565b61075361074d610c53565b82610d14565b610792576040517f08c379a0000000000000000000000000000000000000000000000000000000008152600401610789906121a1565b60405180910390fd5b61079b8161121c565b50565b60006107a982610be7565b9050919050565b6000806002600084815260200190815260200160002060009054906101000a900473ffffffffffffffffffffffffffffffffffffffff169050600073ffffffffffffffffffffffffffffffffffffffff168173ffffffffffffffffffffffffffffffffffffffff161415610859576040517f08c379a0000000000000000000000000000000000000000000000000000000008152600401610850906120c1565b60405180910390fd5b80915050919050565b60008073ffffffffffffffffffffffffffffffffffffffff168273ffffffffffffffffffffffffffffffffffffffff1614156108d3576040517f08c379a00000000000000000000000000000000000000000000000000000000081526004016108ca906120a1565b60405180910390fd5b600360008373ffffffffffffffffffffffffffffffffffffffff1673ffffffffffffffffffffffffffffffffffffffff168152602001908152602001600020549050919050565b61092583838361132d565b505050565b606060018054610939906123e6565b80601f0160208091040260200160405190810160405280929190818152602001828054610965906123e6565b80156109b25780601f10610987576101008083540402835291602001916109b2565b820191906000526020600020905b81548152906001019060200180831161099557829003601f168201915b5050505050905090565b6109c68282611388565b5050565b6109dc6109d5610c53565b83836113a6565b5050565b6109f16109eb610c53565b83610d14565b610a30576040517f08c379a0000000000000000000000000000000000000000000000000000000008152600401610a2790612181565b60405180910390fd5b610a3c84848484611513565b50505050565b6060610a4d82610be7565b610a8c576040517f08c379a0000000000000000000000000000000000000000000000000000000008152600401610a8390612141565b60405180910390fd5b6000610a9661156f565b90506000815111610ab65760405180602001604052806000815250610ae1565b80610ac084611586565b604051602001610ad1929190611f19565b6040516020818303038152906040525b915050919050565b6000600560008473ffffffffffffffffffffffffffffffffffffffff1673ffffffffffffffffffffffffffffffffffffffff16815260200190815260200160002060008373ffffffffffffffffffffffffffffffffffffffff1673ffffffffffffffffffffffffffffffffffffffff16815260200190815260200160002060009054906101000a900460ff16905092915050565b60007f01ffc9a7000000000000000000000000000000000000000000000000000000007bffffffffffffffffffffffffffffffffffffffffffffffffffffffff1916827bffffffffffffffffffffffffffffffffffffffffffffffffffffffff1916149050919050565b60008073ffffffffffffffffffffffffffffffffffffffff166002600084815260200190815260200160002060009054906101000a900473ffffffffffffffffffffffffffffffffffffffff1673ffffffffffffffffffffffffffffffffffffffff1614159050919050565b600033905090565b816004600083815260200190815260200160002060006101000a81548173ffffffffffffffffffffffffffffffffffffffff021916908373ffffffffffffffffffffffffffffffffffffffff160217905550808273ffffffffffffffffffffffffffffffffffffffff16610cce836107b0565b73ffffffffffffffffffffffffffffffffffffffff167f8c5be1e5ebec7d5bd14f71427d1e84f3dd0314c0f7b2291e5b200ac8c7c3b92560405160405180910390a45050565b6000610d1f82610be7565b610d5e576040517f08c379a0000000000000000000000000000000000000000000000000000000008152600401610d5590612061565b60405180910390fd5b6000610d69836107b0565b90508073ffffffffffffffffffffffffffffffffffffffff168473ffffffffffffffffffffffffffffffffffffffff161480610dd857508373ffffffffffffffffffffffffffffffffffffffff16610dc084610517565b73ffffffffffffffffffffffffffffffffffffffff16145b80610de95750610de88185610ae9565b5b91505092915050565b8273ffffffffffffffffffffffffffffffffffffffff16610e12826107b0565b73ffffffffffffffffffffffffffffffffffffffff1614610e68576040517f08c379a0000000000000000000000000000000000000000000000000000000008152600401610e5f90612121565b60405180910390fd5b600073ffffffffffffffffffffffffffffffffffffffff168273ffffffffffffffffffffffffffffffffffffffff161415610ed8576040517f08c379a0000000000000000000000000000000000000000000000000000000008152600401610ecf90612021565b60405180910390fd5b610ee3838383611733565b610eee600082610c5b565b6001600360008573ffffffffffffffffffffffffffffffffffffffff1673ffffffffffffffffffffffffffffffffffffffff1681526020019081526020016000206000828254610f3e91906122fc565b925050819055506001600360008473ffffffffffffffffffffffffffffffffffffffff1673ffffffffffffffffffffffffffffffffffffffff1681526020019081526020016000206000828254610f959190612275565b92505081905550816002600083815260200190815260200160002060006101000a81548173ffffffffffffffffffffffffffffffffffffffff021916908373ffffffffffffffffffffffffffffffffffffffff160217905550808273ffffffffffffffffffffffffffffffffffffffff168473ffffffffffffffffffffffffffffffffffffffff167fddf252ad1be2c89b69c2b068fc378daa952ba7f163c4a11628f55a4df523b3ef60405160405180910390a4505050565b600073ffffffffffffffffffffffffffffffffffffffff168273ffffffffffffffffffffffffffffffffffffffff1614156110be576040517f08c379a00000000000000000000000000000000000000000000000000000000081526004016110b5906120e1565b60405180910390fd5b6110c781610be7565b15611107576040517f08c379a00000000000000000000000000000000000000000000000000000000081526004016110fe90612001565b60405180910390fd5b61111360008383611733565b6001600360008473ffffffffffffffffffffffffffffffffffffffff1673ffffffffffffffffffffffffffffffffffffffff16815260200190815260200160002060008282546111639190612275565b92505081905550816002600083815260200190815260200160002060006101000a81548173ffffffffffffffffffffffffffffffffffffffff021916908373ffffffffffffffffffffffffffffffffffffffff160217905550808273ffffffffffffffffffffffffffffffffffffffff16600073ffffffffffffffffffffffffffffffffffffffff167fddf252ad1be2c89b69c2b068fc378daa952ba7f163c4a11628f55a4df523b3ef60405160405180910390a45050565b6000611227826107b0565b905061123581600084611733565b611240600083610c5b565b6001600360008373ffffffffffffffffffffffffffffffffffffffff1673ffffffffffffffffffffffffffffffffffffffff168152602001908152602001600020600082825461129091906122fc565b925050819055506002600083815260200190815260200160002060006101000a81549073ffffffffffffffffffffffffffffffffffffffff021916905581600073ffffffffffffffffffffffffffffffffffffffff168273ffffffffffffffffffffffffffffffffffffffff167fddf252ad1be2c89b69c2b068fc378daa952ba7f163c4a11628f55a4df523b3ef60405160405180910390a45050565b611337838361104e565b6113446000848484611738565b611383576040517f08c379a000000000000000000000000000000000000000000000000000000000815260040161137a90611fe1565b60405180910390fd5b505050565b6113a282826040518060200160405280600081525061132d565b5050565b8173ffffffffffffffffffffffffffffffffffffffff168373ffffffffffffffffffffffffffffffffffffffff161415611415576040517f08c379a000000000000000000000000000000000000000000000000000000000815260040161140c90612041565b60405180910390fd5b80600560008573ffffffffffffffffffffffffffffffffffffffff1673ffffffffffffffffffffffffffffffffffffffff16815260200190815260200160002060008473ffffffffffffffffffffffffffffffffffffffff1673ffffffffffffffffffffffffffffffffffffffff16815260200190815260200160002060006101000a81548160ff0219169083151502179055508173ffffffffffffffffffffffffffffffffffffffff168373ffffffffffffffffffffffffffffffffffffffff167f17307eab39ab6107e8899845ad3d59bd9653f200f220920489ca2b5937696c31836040516115069190611fa4565b60405180910390a3505050565b61151e848484610df2565b61152a84848484611738565b611569576040517f08c379a000000000000000000000000000000000000000000000000000000000815260040161156090611fe1565b60405180910390fd5b50505050565b606060405180602001604052806000815250905090565b606060008214156115ce576040518060400160405280600181526020017f3000000000000000000000000000000000000000000000000000000000000000815250905061172e565b600082905060005b600082146116005780806115e990612449565b915050600a826115f991906122cb565b91506115d6565b60008167ffffffffffffffff811115611642577f4e487b7100000000000000000000000000000000000000000000000000000000600052604160045260246000fd5b6040519080825280601f01601f1916602001820160405280156116745781602001600182028036833780820191505090505b5090505b600085146117275760018261168d91906122fc565b9150600a8561169c9190612492565b60306116a89190612275565b60f81b8183815181106116e4577f4e487b7100000000000000000000000000000000000000000000000000000000600052603260045260246000fd5b60200101907effffffffffffffffffffffffffffffffffffffffffffffffffffffffffffff1916908160001a905350600a8561172091906122cb565b9450611678565b8093505050505b919050565b505050565b60006117598473ffffffffffffffffffffffffffffffffffffffff166118cf565b156118c2578373ffffffffffffffffffffffffffffffffffffffff1663150b7a02611782610c53565b8786866040518563ffffffff1660e01b81526004016117a49493929190611f58565b602060405180830381600087803b1580156117be57600080fd5b505af19250505080156117ef57506040513d601f19601f820116820180604052508101906117ec9190611bea565b60015b611872573d806000811461181f576040519150601f19603f3d011682016040523d82523d6000602084013e611824565b606091505b5060008151141561186a576040517f08c379a000000000000000000000000000000000000000000000000000000000815260040161186190611fe1565b60405180910390fd5b805181602001fd5b63150b7a0260e01b7bffffffffffffffffffffffffffffffffffffffffffffffffffffffff1916817bffffffffffffffffffffffffffffffffffffffffffffffffffffffff1916149150506118c7565b600190505b949350505050565b600080823b905060008111915050919050565b60006118f56118f084612201565b6121dc565b90508281526020810184848401111561190d57600080fd5b6119188482856123a4565b509392505050565b60008135905061192f816129bf565b92915050565b600081359050611944816129d6565b92915050565b600081359050611959816129ed565b92915050565b60008151905061196e816129ed565b92915050565b600082601f83011261198557600080fd5b81356119958482602086016118e2565b91505092915050565b6000813590506119ad81612a04565b92915050565b6000602082840312156119c557600080fd5b60006119d384828501611920565b91505092915050565b600080604083850312156119ef57600080fd5b60006119fd85828601611920565b9250506020611a0e85828601611920565b9150509250929050565b600080600060608486031215611a2d57600080fd5b6000611a3b86828701611920565b9350506020611a4c86828701611920565b9250506040611a5d8682870161199e565b9150509250925092565b60008060008060808587031215611a7d57600080fd5b6000611a8b87828801611920565b9450506020611a9c87828801611920565b9350506040611aad8782880161199e565b925050606085013567ffffffffffffffff811115611aca57600080fd5b611ad687828801611974565b91505092959194509250565b60008060408385031215611af557600080fd5b6000611b0385828601611920565b9250506020611b1485828601611935565b9150509250929050565b60008060408385031215611b3157600080fd5b6000611b3f85828601611920565b9250506020611b508582860161199e565b9150509250929050565b600080600060608486031215611b6f57600080fd5b6000611b7d86828701611920565b9350506020611b8e8682870161199e565b925050604084013567ffffffffffffffff811115611bab57600080fd5b611bb786828701611974565b9150509250925092565b600060208284031215611bd357600080fd5b6000611be18482850161194a565b91505092915050565b600060208284031215611bfc57600080fd5b6000611c0a8482850161195f565b91505092915050565b600060208284031215611c2557600080fd5b6000611c338482850161199e565b91505092915050565b611c4581612330565b82525050565b611c5481612342565b82525050565b6000611c6582612232565b611c6f8185612248565b9350611c7f8185602086016123b3565b611c888161257f565b840191505092915050565b6000611c9e8261223d565b611ca88185612259565b9350611cb88185602086016123b3565b611cc18161257f565b840191505092915050565b6000611cd78261223d565b611ce1818561226a565b9350611cf18185602086016123b3565b80840191505092915050565b6000611d0a603283612259565b9150611d1582612590565b604082019050919050565b6000611d2d601c83612259565b9150611d38826125df565b602082019050919050565b6000611d50602483612259565b9150611d5b82612608565b604082019050919050565b6000611d73601983612259565b9150611d7e82612657565b602082019050919050565b6000611d96602c83612259565b9150611da182612680565b604082019050919050565b6000611db9603883612259565b9150611dc4826126cf565b604082019050919050565b6000611ddc602a83612259565b9150611de78261271e565b604082019050919050565b6000611dff602983612259565b9150611e0a8261276d565b604082019050919050565b6000611e22602083612259565b9150611e2d826127bc565b602082019050919050565b6000611e45602c83612259565b9150611e50826127e5565b604082019050919050565b6000611e68602983612259565b9150611e7382612834565b604082019050919050565b6000611e8b602f83612259565b9150611e9682612883565b604082019050919050565b6000611eae602183612259565b9150611eb9826128d2565b604082019050919050565b6000611ed1603183612259565b9150611edc82612921565b604082019050919050565b6000611ef4603083612259565b9150611eff82612970565b604082019050919050565b611f138161239a565b82525050565b6000611f258285611ccc565b9150611f318284611ccc565b91508190509392505050565b6000602082019050611f526000830184611c3c565b92915050565b6000608082019050611f6d6000830187611c3c565b611f7a6020830186611c3c565b611f876040830185611f0a565b8181036060830152611f998184611c5a565b905095945050505050565b6000602082019050611fb96000830184611c4b565b92915050565b60006020820190508181036000830152611fd98184611c93565b905092915050565b60006020820190508181036000830152611ffa81611cfd565b9050919050565b6000602082019050818103600083015261201a81611d20565b9050919050565b6000602082019050818103600083015261203a81611d43565b9050919050565b6000602082019050818103600083015261205a81611d66565b9050919050565b6000602082019050818103600083015261207a81611d89565b9050919050565b6000602082019050818103600083015261209a81611dac565b9050919050565b600060208201905081810360008301526120ba81611dcf565b9050919050565b600060208201905081810360008301526120da81611df2565b9050919050565b600060208201905081810360008301526120fa81611e15565b9050919050565b6000602082019050818103600083015261211a81611e38565b9050919050565b6000602082019050818103600083015261213a81611e5b565b9050919050565b6000602082019050818103600083015261215a81611e7e565b9050919050565b6000602082019050818103600083015261217a81611ea1565b9050919050565b6000602082019050818103600083015261219a81611ec4565b9050919050565b600060208201905081810360008301526121ba81611ee7565b9050919050565b60006020820190506121d66000830184611f0a565b92915050565b60006121e66121f7565b90506121f28282612418565b919050565b6000604051905090565b600067ffffffffffffffff82111561221c5761221b612550565b5b6122258261257f565b9050602081019050919050565b600081519050919050565b600081519050919050565b600082825260208201905092915050565b600082825260208201905092915050565b600081905092915050565b60006122808261239a565b915061228b8361239a565b9250827fffffffffffffffffffffffffffffffffffffffffffffffffffffffffffffffff038211156122c0576122bf6124c3565b5b828201905092915050565b60006122d68261239a565b91506122e18361239a565b9250826122f1576122f06124f2565b5b828204905092915050565b60006123078261239a565b91506123128361239a565b925082821015612325576123246124c3565b5b828203905092915050565b600061233b8261237a565b9050919050565b60008115159050919050565b60007fffffffff0000000000000000000000000000000000000000000000000000000082169050919050565b600073ffffffffffffffffffffffffffffffffffffffff82169050919050565b6000819050919050565b82818337600083830152505050565b60005b838110156123d15780820151818401526020810190506123b6565b838111156123e0576000848401525b50505050565b600060028204905060018216806123fe57607f821691505b6020821081141561241257612411612521565b5b50919050565b6124218261257f565b810181811067ffffffffffffffff821117156124405761243f612550565b5b80604052505050565b60006124548261239a565b91507fffffffffffffffffffffffffffffffffffffffffffffffffffffffffffffffff821415612487576124866124c3565b5b600182019050919050565b600061249d8261239a565b91506124a88361239a565b9250826124b8576124b76124f2565b5b828206905092915050565b7f4e487b7100000000000000000000000000000000000000000000000000000000600052601160045260246000fd5b7f4e487b7100000000000000000000000000000000000000000000000000000000600052601260045260246000fd5b7f4e487b7100000000000000000000000000000000000000000000000000000000600052602260045260246000fd5b7f4e487b7100000000000000000000000000000000000000000000000000000000600052604160045260246000fd5b6000601f19601f8301169050919050565b7f4552433732313a207472616e7366657220746f206e6f6e20455243373231526560008201527f63656976657220696d706c656d656e7465720000000000000000000000000000602082015250565b7f4552433732313a20746f6b656e20616c7265616479206d696e74656400000000600082015250565b7f4552433732313a207472616e7366657220746f20746865207a65726f2061646460008201527f7265737300000000000000000000000000000000000000000000000000000000602082015250565b7f4552433732313a20617070726f766520746f2063616c6c657200000000000000600082015250565b7f4552433732313a206f70657261746f7220717565727920666f72206e6f6e657860008201527f697374656e7420746f6b656e0000000000000000000000000000000000000000602082015250565b7f4552433732313a20617070726f76652063616c6c6572206973206e6f74206f7760008201527f6e6572206e6f7220617070726f76656420666f7220616c6c0000000000000000602082015250565b7f4552433732313a2062616c616e636520717565727920666f7220746865207a6560008201527f726f206164647265737300000000000000000000000000000000000000000000602082015250565b7f4552433732313a206f776e657220717565727920666f72206e6f6e657869737460008201527f656e7420746f6b656e0000000000000000000000000000000000000000000000602082015250565b7f4552433732313a206d696e7420746f20746865207a65726f2061646472657373600082015250565b7f4552433732313a20617070726f76656420717565727920666f72206e6f6e657860008201527f697374656e7420746f6b656e0000000000000000000000000000000000000000602082015250565b7f4552433732313a207472616e73666572206f6620746f6b656e2074686174206960008201527f73206e6f74206f776e0000000000000000000000000000000000000000000000602082015250565b7f4552433732314d657461646174613a2055524920717565727920666f72206e6f60008201527f6e6578697374656e7420746f6b656e0000000000000000000000000000000000602082015250565b7f4552433732313a20617070726f76616c20746f2063757272656e74206f776e6560008201527f7200000000000000000000000000000000000000000000000000000000000000602082015250565b7f4552433732313a207472616e736665722063616c6c6572206973206e6f74206f60008201527f776e6572206e6f7220617070726f766564000000000000000000000000000000602082015250565b7f4552433732314275726e61626c653a2063616c6c6572206973206e6f74206f7760008201527f6e6572206e6f7220617070726f76656400000000000000000000000000000000602082015250565b6129c881612330565b81146129d357600080fd5b50565b6129df81612342565b81146129ea57600080fd5b50565b6129f68161234e565b8114612a0157600080fd5b50565b612a0d8161239a565b8114612a1857600080fd5b5056fea26469706673582212203cc387e6733592f922aaff9917d7d55714530f6f6149bd22e91ca00107b3286f64736f6c63430008020033",
  "linkReferences": {},
  "deployedLinkReferences": {}
}